{
  "_format": "hh-sol-artifact-1",
  "contractName": "AutoPay",
  "sourceName": "contracts/AutoPay.sol",
  "abi": [
    {
      "anonymous": false,
      "inputs": [
        {
          "indexed": true,
          "internalType": "bytes32",
          "name": "paymentId",
          "type": "bytes32"
        },
        {
          "indexed": true,
          "internalType": "address",
          "name": "user",
          "type": "address"
        },
        {
          "indexed": true,
          "internalType": "address",
          "name": "agent",
          "type": "address"
        },
        {
          "indexed": false,
          "internalType": "address",
          "name": "recipient",
          "type": "address"
        },
        {
          "indexed": false,
          "internalType": "uint256",
          "name": "amount",
          "type": "uint256"
        }
      ],
      "name": "AutoPaymentExecuted",
      "type": "event"
    },
    {
      "anonymous": false,
      "inputs": [
        {
          "indexed": true,
          "internalType": "address",
          "name": "user",
          "type": "address"
        },
        {
          "indexed": true,
          "internalType": "address",
          "name": "agent",
          "type": "address"
        },
        {
          "indexed": false,
          "internalType": "uint256",
          "name": "singleLimit",
          "type": "uint256"
        },
        {
          "indexed": false,
          "internalType": "uint256",
          "name": "dailyLimit",
          "type": "uint256"
        },
        {
          "indexed": false,
          "internalType": "uint256",
          "name": "expiresAt",
          "type": "uint256"
        }
      ],
      "name": "GrantCreated",
      "type": "event"
    },
    {
      "anonymous": false,
      "inputs": [
        {
          "indexed": true,
          "internalType": "address",
          "name": "user",
          "type": "address"
        },
        {
          "indexed": true,
          "internalType": "address",
          "name": "agent",
          "type": "address"
        }
      ],
      "name": "GrantRevoked",
      "type": "event"
    },
    {
      "anonymous": false,
      "inputs": [
        {
          "indexed": true,
          "internalType": "address",
          "name": "previousOwner",
          "type": "address"
        },
        {
          "indexed": true,
          "internalType": "address",
          "name": "newOwner",
          "type": "address"
        }
      ],
      "name": "OwnershipTransferred",
      "type": "event"
    },
    {
      "anonymous": false,
      "inputs": [
        {
          "indexed": false,
          "internalType": "address",
          "name": "account",
          "type": "address"
        }
      ],
      "name": "Paused",
      "type": "event"
    },
    {
      "anonymous": false,
      "inputs": [
        {
          "indexed": false,
          "internalType": "address",
          "name": "account",
          "type": "address"
        }
      ],
      "name": "Unpaused",
      "type": "event"
    },
    {
      "inputs": [
        {
          "internalType": "bytes32",
          "name": "",
          "type": "bytes32"
        }
      ],
      "name": "autoPayments",
      "outputs": [
        {
          "internalType": "bytes32",
          "name": "paymentId",
          "type": "bytes32"
        },
        {
          "internalType": "address",
          "name": "user",
          "type": "address"
        },
        {
          "internalType": "address",
          "name": "agent",
          "type": "address"
        },
        {
          "internalType": "address",
          "name": "recipient",
          "type": "address"
        },
        {
          "internalType": "uint256",
          "name": "amount",
          "type": "uint256"
        },
        {
          "internalType": "uint256",
          "name": "timestamp",
          "type": "uint256"
        },
        {
          "internalType": "bool",
          "name": "executed",
          "type": "bool"
        }
      ],
      "stateMutability": "view",
      "type": "function"
    },
    {
      "inputs": [],
      "name": "commissionContract",
      "outputs": [
        {
          "internalType": "contract ICommission",
          "name": "",
          "type": "address"
        }
      ],
      "stateMutability": "view",
      "type": "function"
    },
    {
      "inputs": [
        {
          "internalType": "address",
          "name": "agent",
          "type": "address"
        },
        {
          "internalType": "uint256",
          "name": "singleLimit",
          "type": "uint256"
        },
        {
          "internalType": "uint256",
          "name": "dailyLimit",
          "type": "uint256"
        },
        {
          "internalType": "uint256",
          "name": "duration",
          "type": "uint256"
        }
      ],
      "name": "createGrant",
      "outputs": [],
      "stateMutability": "nonpayable",
      "type": "function"
    },
    {
      "inputs": [
        {
          "internalType": "address",
          "name": "token",
          "type": "address"
        },
        {
          "internalType": "address",
          "name": "to",
          "type": "address"
        },
        {
          "internalType": "uint256",
          "name": "amount",
          "type": "uint256"
        }
      ],
      "name": "emergencyWithdraw",
      "outputs": [],
      "stateMutability": "nonpayable",
      "type": "function"
    },
    {
      "inputs": [
        {
          "internalType": "bytes32",
          "name": "paymentId",
          "type": "bytes32"
        },
        {
          "internalType": "address",
          "name": "user",
          "type": "address"
        },
        {
          "internalType": "address",
          "name": "recipient",
          "type": "address"
        },
        {
          "internalType": "uint256",
          "name": "amount",
          "type": "uint256"
        }
      ],
      "name": "executeAutoPayment",
      "outputs": [],
      "stateMutability": "nonpayable",
      "type": "function"
    },
    {
      "inputs": [
        {
          "internalType": "bytes32",
          "name": "paymentId",
          "type": "bytes32"
        }
      ],
      "name": "getAutoPayment",
      "outputs": [
        {
          "components": [
            {
              "internalType": "bytes32",
              "name": "paymentId",
              "type": "bytes32"
            },
            {
              "internalType": "address",
              "name": "user",
              "type": "address"
            },
            {
              "internalType": "address",
              "name": "agent",
              "type": "address"
            },
            {
              "internalType": "address",
              "name": "recipient",
              "type": "address"
            },
            {
              "internalType": "uint256",
              "name": "amount",
              "type": "uint256"
            },
            {
              "internalType": "uint256",
              "name": "timestamp",
              "type": "uint256"
            },
            {
              "internalType": "bool",
              "name": "executed",
              "type": "bool"
            }
          ],
          "internalType": "struct AutoPay.AutoPayment",
          "name": "",
          "type": "tuple"
        }
      ],
      "stateMutability": "view",
      "type": "function"
    },
    {
      "inputs": [
        {
          "internalType": "address",
          "name": "user",
          "type": "address"
        },
        {
          "internalType": "address",
          "name": "agent",
          "type": "address"
        }
      ],
      "name": "getGrant",
      "outputs": [
        {
          "components": [
            {
              "internalType": "address",
              "name": "user",
              "type": "address"
            },
            {
              "internalType": "address",
              "name": "agent",
              "type": "address"
            },
            {
              "internalType": "uint256",
              "name": "singleLimit",
              "type": "uint256"
            },
            {
              "internalType": "uint256",
              "name": "dailyLimit",
              "type": "uint256"
            },
            {
              "internalType": "uint256",
              "name": "usedToday",
              "type": "uint256"
            },
            {
              "internalType": "uint256",
              "name": "lastResetDate",
              "type": "uint256"
            },
            {
              "internalType": "uint256",
              "name": "expiresAt",
              "type": "uint256"
            },
            {
              "internalType": "bool",
              "name": "isActive",
              "type": "bool"
            }
          ],
          "internalType": "struct AutoPay.Grant",
          "name": "",
          "type": "tuple"
        }
      ],
      "stateMutability": "view",
      "type": "function"
    },
    {
      "inputs": [
        {
          "internalType": "address",
          "name": "",
          "type": "address"
        },
        {
          "internalType": "address",
          "name": "",
          "type": "address"
        }
      ],
      "name": "grants",
      "outputs": [
        {
          "internalType": "address",
          "name": "user",
          "type": "address"
        },
        {
          "internalType": "address",
          "name": "agent",
          "type": "address"
        },
        {
          "internalType": "uint256",
          "name": "singleLimit",
          "type": "uint256"
        },
        {
          "internalType": "uint256",
          "name": "dailyLimit",
          "type": "uint256"
        },
        {
          "internalType": "uint256",
          "name": "usedToday",
          "type": "uint256"
        },
        {
          "internalType": "uint256",
          "name": "lastResetDate",
          "type": "uint256"
        },
        {
          "internalType": "uint256",
          "name": "expiresAt",
          "type": "uint256"
        },
        {
          "internalType": "bool",
          "name": "isActive",
          "type": "bool"
        }
      ],
      "stateMutability": "view",
      "type": "function"
    },
    {
      "inputs": [],
      "name": "owner",
      "outputs": [
        {
          "internalType": "address",
          "name": "",
          "type": "address"
        }
      ],
      "stateMutability": "view",
      "type": "function"
    },
    {
      "inputs": [],
      "name": "pause",
      "outputs": [],
      "stateMutability": "nonpayable",
      "type": "function"
    },
    {
      "inputs": [],
      "name": "paused",
      "outputs": [
        {
          "internalType": "bool",
          "name": "",
          "type": "bool"
        }
      ],
      "stateMutability": "view",
      "type": "function"
    },
    {
      "inputs": [],
      "name": "paymentToken",
      "outputs": [
        {
          "internalType": "contract IERC20",
          "name": "",
          "type": "address"
        }
      ],
      "stateMutability": "view",
      "type": "function"
    },
    {
      "inputs": [],
      "name": "renounceOwnership",
      "outputs": [],
      "stateMutability": "nonpayable",
      "type": "function"
    },
    {
      "inputs": [
        {
          "internalType": "address",
          "name": "agent",
          "type": "address"
        }
      ],
      "name": "revokeGrant",
      "outputs": [],
      "stateMutability": "nonpayable",
      "type": "function"
    },
    {
      "inputs": [
        {
          "internalType": "address",
          "name": "_commission",
          "type": "address"
        }
      ],
      "name": "setCommissionContract",
      "outputs": [],
      "stateMutability": "nonpayable",
      "type": "function"
    },
    {
      "inputs": [
        {
          "internalType": "address",
          "name": "_token",
          "type": "address"
        }
      ],
      "name": "setPaymentToken",
      "outputs": [],
      "stateMutability": "nonpayable",
      "type": "function"
    },
    {
      "inputs": [
        {
          "internalType": "bool",
          "name": "_enabled",
          "type": "bool"
        }
      ],
      "name": "setSplitModeEnabled",
      "outputs": [],
      "stateMutability": "nonpayable",
      "type": "function"
    },
    {
      "inputs": [],
      "name": "splitModeEnabled",
      "outputs": [
        {
          "internalType": "bool",
          "name": "",
          "type": "bool"
        }
      ],
      "stateMutability": "view",
      "type": "function"
    },
    {
      "inputs": [
        {
          "internalType": "address",
          "name": "newOwner",
          "type": "address"
        }
      ],
      "name": "transferOwnership",
      "outputs": [],
      "stateMutability": "nonpayable",
      "type": "function"
    },
    {
      "inputs": [],
      "name": "unpause",
      "outputs": [],
      "stateMutability": "nonpayable",
      "type": "function"
    }
  ],
  "bytecode": "0x608080604052346100695760008054336001600160a01b0319821681178355916001600160a01b03909116907f8be0079c531659141344cd1fd0a4f28419497f9722a3daafe3b4186f6b6457e09080a36001805560ff196002541660025561146c908161006f8239f35b600080fdfe6080604081815260048036101561001557600080fd5b60009260e08435811c91826316140b7a14610e94575081631817c5a714610dc55781633013ce2914610d975781633f4ba83a14610d015781635c975abb14610cdc5781635d48dbcf14610cb45781636a326ab114610c1c5781636d1319eb14610afa578163715018a614610aa057816377fc1906146109b05781638456cb59146109545781638da5cb5b1461092b5781639c278efa1461088b5781639e136ec1146107fd578163ba7af008146107b7578163c6ed3be11461073b57508063da8909e514610712578063e63ea40814610655578063ebd99dc6146101cb5763f2fde38b1461010157600080fd5b346101c75760203660031901126101c75761011a6110b1565b906101236110e2565b6001600160a01b03918216928315610175575050600054826001600160601b0360a01b821617600055167f8be0079c531659141344cd1fd0a4f28419497f9722a3daafe3b4186f6b6457e0600080a380f35b906020608492519162461bcd60e51b8352820152602660248201527f4f776e61626c653a206e6577206f776e657220697320746865207a65726f206160448201526564647265737360d01b6064820152fd5b8280fd5b5090346101c75760803660031901126101c7578135916101e96110cc565b9260448035936001600160a01b03808616949092908587036106515760649182359460029760019a898c541461060f57898c556102246111ce565b828a5460081c16156105d55790828d9216998a83528760209387855281812033825285522060ff600782015416156105a1576006810154421161057057818101548a1161052f578e62015180420490600583019081548311610522575b5050508681019081549060036102978d8461113a565b910154106104e1578f9695949392918f8d8f8e878f95928a8c8f95976006986102c3876103619d61113a565b90558951998a976102d389611190565b8989528489019586526005828a019533875260608b0198895260808b01998a5260c060a08c019b428d52019b858d528352522099518a558901925116916001600160601b0360a01b92838254161790558c8a8901915116828254161790558b6003880192511690825416179055518c85015551600584015551151591019060ff801983541691151516179055565b6003548460ff8260a01c1691826104d5575b505015610444575050506003541693843b156101c757889183875196879485936369c5eaeb60e11b85528c898601528b60248601528401525af1801561043a57610408575b50507fe653f9a47a7f3faeee2a31c16138aa1e9428d9938f2f2f4696d9f64dbe5b6ee991610400915b516001600160a01b039096168652602086015233949081906040820190565b0390a4805580f35b67ffffffffffffffff82999399116104275750875295816104006103b8565b634e487b7160e01b835260419052602482fd5b83513d8b823e3d90fd5b90929196939594505460081c16938651956323b872dd60e01b908701528960248701528501528581850152835260a083019083821067ffffffffffffffff8311176104c257507fe653f9a47a7f3faeee2a31c16138aa1e9428d9938f2f2f4696d9f64dbe5b6ee9949284926104bd926104009652611212565b6103e1565b634e487b7160e01b8b526041905260248afd5b16151590508438610373565b895162461bcd60e51b8152808901869052601a60248201527f416d6f756e742065786365656473206461696c79206c696d6974000000000000818901528990fd5b8984015555388f80610281565b885162461bcd60e51b8152808801859052601b60248201527f416d6f756e7420657863656564732073696e676c65206c696d69740000000000818801528890fd5b885162461bcd60e51b8152808801859052600d60248201526c11dc985b9d08195e1c1a5c9959609a1b818801528890fd5b885162461bcd60e51b8152808801859052601060248201526f4772616e74206e6f742061637469766560801b818801528890fd5b5050507414185e5b595b9d081d1bdad95b881b9bdd081cd95d605a1b90602085519362461bcd60e51b855284015260156024840152820152fd5b5050507f5265656e7472616e637947756172643a207265656e7472616e742063616c6c0090602085519362461bcd60e51b8552840152601f6024840152820152fd5b8880fd5b5082903461070e57606036600319011261070e576106716110b1565b6106796110cc565b6106816110e2565b6001600160a01b0392818416156106d75750845163a9059cbb60e01b60208201526001600160a01b03919091166024820152604480358183015281526106d49290916106ce6064846111ac565b16611212565b80f35b606490602087519162461bcd60e51b83528201526011602482015270125b9d985b1a59081c9958da5c1a595b9d607a1b6044820152fd5b5080fd5b50503461070e578160031936011261070e5760035490516001600160a01b039091168152602090f35b939050346107b45760203660031901126107b45782908235815260056020522080549260018060a01b039283600184015416938060028501541690600385015416918401549260ff600660058701549601541695815197885260208801528601526060850152608084015260a0830152151560c0820152f35b80fd5b84833461070e57602036600319011261070e573580151580910361070e576107dd6110e2565b6003805460ff60a01b191660a09290921b60ff60a01b1691909117905580f35b5050346101c75760203660031901126101c7576108186110b1565b6108206110e2565b6001600160a01b03169182156108485750506001600160601b0360a01b600354161760035580f35b906020606492519162461bcd60e51b8352820152601a60248201527f496e76616c696420636f6d6d697373696f6e20616464726573730000000000006044820152fd5b90508391346101c757836003193601126101c75783610100946108ac6110b1565b946108b56110cc565b60018060a01b03809716825284602052868383209116825260205220908482541694600183015416926002830154906003840154908401549160058501549360ff6007600688015497015416968151998a5260208a01528801526060870152608086015260a085015260c0840152151590820152f35b5050503461070e578160031936011261070e57905490516001600160a01b039091168152602090f35b5050503461070e578160031936011261070e5760207f62e78cea01bee320cd4e420270b5ea74000d11b0c9f74754ebdbfc544b05a258916109936110e2565b61099b6111ce565b600160ff19600254161760025551338152a180f35b828486346107b45760203660031901126107b45780829160c083516109d481611190565b82815282602082015282858201528260608201528260808201528260a0820152015283358152600560205220908051918291610a0f83611190565b81549485845260018060a01b039182806001860154166020870190815281806002880154169184890192835260c060ff60068460038c0154169860608d01998a528b01549a60808d019b8c5260a060058201549d019c8d520154169a019915158a5284519a8b52511660208a0152511690870152511660608501525160808401525160a083015251151560c0820152f35b84346107b457806003193601126107b457610ab96110e2565b80546001600160a01b03198116825581906001600160a01b03167f8be0079c531659141344cd1fd0a4f28419497f9722a3daafe3b4186f6b6457e08280a380f35b9192905034610c185780600319360112610c1857928361010094610b1c6110b1565b92610b256110cc565b81868451610b328161115d565b82815282602082015282868201528260608201528260808201528260a08201528260c0820152015260018060a01b0380951682528660205284838320911682526020522090805192610b838461115d565b8083541695868552816001850154169260208601938452600285015481870190815260038601549260608801938452860154936080880194855260058701549560a089019687528960ff600760068b01549a60c08d019b8c520154169901981515895283519a8b52511660208a015251908801525160608701525160808601525160a08501525160c084015251151590820152f35b8380fd5b5050346101c75760203660031901126101c757610c376110b1565b91610c406110e2565b6001600160a01b03831615610c7957505060028054610100600160a81b03191660089290921b610100600160a81b031691909117905580f35b906020606492519162461bcd60e51b83528201526015602482015274496e76616c696420746f6b656e206164647265737360581b6044820152fd5b5050503461070e578160031936011261070e5760209060ff60035460a01c1690519015158152f35b5050503461070e578160031936011261070e5760209060ff6002541690519015158152f35b5050346101c757826003193601126101c757610d1b6110e2565b6002549060ff821615610d5d575060ff1916600255513381527f5db9ee0a495bf2e6ff9c91a7834c1ba4fdd244a5e8aa4e537bd38aeae4b073aa90602090a180f35b606490602084519162461bcd60e51b8352820152601460248201527314185d5cd8589b194e881b9bdd081c185d5cd95960621b6044820152fd5b5050503461070e578160031936011261070e57600254905160089190911c6001600160a01b03168152602090f35b505090346101c757602080600319360112610c1857610de26110b1565b3385528382528285206001600160a01b039091168086529082528285206007015490939060ff1615610e535733808652908252828520848652909152908320600701805460ff191690557fd11acd754bb26b1c2c614f5d846fe7e88fe5218cf98a37555939f62cda0a83f68380a380f35b915162461bcd60e51b815291820152601b60248201527f4772616e74206e6f7420666f756e64206f7220696e61637469766500000000006044820152606490fd5b85918486346110ad5760803660031901126110ad57610eb16110b1565b6001600160a01b039081169460243594604435946064359392909190881561107457508615158061106b575b1561103757858711610ff457916007888a87610fb79588978b8d610f04610fbd9c4261113a565b958986519a8b97610f148961115d565b33895260208901938b8552818a0195865260608a0196875260808a019781895260a08b019a6201518042048c5260c081019c8d52019b60018d5233825289602052828220908252602052209b5116906001600160601b0360a01b91828d5416178c5560018c0192511690825416179055516002890155516003880155519086015551600585015551600684015551151591019060ff801983541691151516179055565b4261113a565b91815193845260208401528201527f457a71784c401c8b696add5f23143a8501ff8825c51bc8fa793a5f90496c962e60603392a380f35b845162461bcd60e51b8152602081840181905260248201527f53696e676c65206c696d69742065786365656473206461696c79206c696d69746044820152606490fd5b845162461bcd60e51b8152602081840152600e60248201526d496e76616c6964206c696d69747360901b6044820152606490fd5b50851515610edd565b62461bcd60e51b81526020838201526015602482015274496e76616c6964206167656e74206164647265737360581b6044820152606490fd5b8480fd5b600435906001600160a01b03821682036110c757565b600080fd5b602435906001600160a01b03821682036110c757565b6000546001600160a01b031633036110f657565b606460405162461bcd60e51b815260206004820152602060248201527f4f776e61626c653a2063616c6c6572206973206e6f7420746865206f776e65726044820152fd5b9190820180921161114757565b634e487b7160e01b600052601160045260246000fd5b610100810190811067ffffffffffffffff82111761117a57604052565b634e487b7160e01b600052604160045260246000fd5b60e0810190811067ffffffffffffffff82111761117a57604052565b90601f8019910116810190811067ffffffffffffffff82111761117a57604052565b60ff600254166111da57565b60405162461bcd60e51b815260206004820152601060248201526f14185d5cd8589b194e881c185d5cd95960821b6044820152606490fd5b60018060a01b0316906040516040810167ffffffffffffffff908281108282111761117a576040526020938483527f5361666545524332303a206c6f772d6c6576656c2063616c6c206661696c6564858401526000808587829751910182855af1903d15611357573d92831161134357906112ad939291604051926112a088601f19601f84011601856111ac565b83523d868885013e611362565b80519182159184831561131f575b5050509050156112c85750565b6084906040519062461bcd60e51b82526004820152602a60248201527f5361666545524332303a204552433230206f7065726174696f6e20646964206e6044820152691bdd081cdd58d8d9595960b21b6064820152fd5b91938180945001031261070e578201519081151582036107b45750803880846112bb565b634e487b7160e01b85526041600452602485fd5b906112ad9392506060915b919290156113c45750815115611376575090565b3b1561137f5790565b60405162461bcd60e51b815260206004820152601d60248201527f416464726573733a2063616c6c20746f206e6f6e2d636f6e74726163740000006044820152606490fd5b8251909150156113d75750805190602001fd5b6040519062461bcd60e51b82528160208060048301528251908160248401526000935b82851061141d575050604492506000838284010152601f80199101168101030190fd5b84810182015186860160440152938101938593506113fa56fea26469706673582212209506d065a1f8749f36ba97eb1defdafa3094df57640b35b82bf9f5b3f9683e3964736f6c63430008140033",
  "linkReferences": {},
  "deployedLinkReferences": {}
}