{
  "_format": "hh-sol-artifact-1",
  "contractName": "ERC8004SessionManager",
  "sourceName": "contracts/ERC8004SessionManager.sol",
  "abi": [
    {
      "inputs": [
        {
          "internalType": "address",
          "name": "_usdcToken",
          "type": "address"
        }
      ],
      "stateMutability": "nonpayable",
      "type": "constructor"
    },
    {
      "anonymous": false,
      "inputs": [
        {
          "indexed": true,
          "internalType": "bytes32",
          "name": "sessionId",
          "type": "bytes32"
        },
        {
          "indexed": false,
          "internalType": "uint256",
          "name": "newDate",
          "type": "uint256"
        }
      ],
      "name": "DailyLimitReset",
      "type": "event"
    },
    {
      "anonymous": false,
      "inputs": [
        {
          "indexed": true,
          "internalType": "address",
          "name": "previousOwner",
          "type": "address"
        },
        {
          "indexed": true,
          "internalType": "address",
          "name": "newOwner",
          "type": "address"
        }
      ],
      "name": "OwnershipTransferred",
      "type": "event"
    },
    {
      "anonymous": false,
      "inputs": [
        {
          "indexed": false,
          "internalType": "address",
          "name": "account",
          "type": "address"
        }
      ],
      "name": "Paused",
      "type": "event"
    },
    {
      "anonymous": false,
      "inputs": [
        {
          "indexed": true,
          "internalType": "bytes32",
          "name": "sessionId",
          "type": "bytes32"
        },
        {
          "indexed": true,
          "internalType": "address",
          "name": "to",
          "type": "address"
        },
        {
          "indexed": false,
          "internalType": "uint256",
          "name": "amount",
          "type": "uint256"
        },
        {
          "indexed": true,
          "internalType": "bytes32",
          "name": "paymentId",
          "type": "bytes32"
        }
      ],
      "name": "PaymentExecuted",
      "type": "event"
    },
    {
      "anonymous": false,
      "inputs": [
        {
          "indexed": true,
          "internalType": "bytes32",
          "name": "sessionId",
          "type": "bytes32"
        },
        {
          "indexed": true,
          "internalType": "address",
          "name": "owner",
          "type": "address"
        },
        {
          "indexed": true,
          "internalType": "address",
          "name": "signer",
          "type": "address"
        },
        {
          "indexed": false,
          "internalType": "uint256",
          "name": "singleLimit",
          "type": "uint256"
        },
        {
          "indexed": false,
          "internalType": "uint256",
          "name": "dailyLimit",
          "type": "uint256"
        },
        {
          "indexed": false,
          "internalType": "uint256",
          "name": "expiry",
          "type": "uint256"
        }
      ],
      "name": "SessionCreated",
      "type": "event"
    },
    {
      "anonymous": false,
      "inputs": [
        {
          "indexed": true,
          "internalType": "bytes32",
          "name": "sessionId",
          "type": "bytes32"
        },
        {
          "indexed": true,
          "internalType": "address",
          "name": "owner",
          "type": "address"
        }
      ],
      "name": "SessionRevoked",
      "type": "event"
    },
    {
      "anonymous": false,
      "inputs": [
        {
          "indexed": false,
          "internalType": "address",
          "name": "account",
          "type": "address"
        }
      ],
      "name": "Unpaused",
      "type": "event"
    },
    {
      "inputs": [
        {
          "internalType": "address",
          "name": "signer",
          "type": "address"
        },
        {
          "internalType": "uint256",
          "name": "singleLimit",
          "type": "uint256"
        },
        {
          "internalType": "uint256",
          "name": "dailyLimit",
          "type": "uint256"
        },
        {
          "internalType": "uint256",
          "name": "expiry",
          "type": "uint256"
        }
      ],
      "name": "createSession",
      "outputs": [
        {
          "internalType": "bytes32",
          "name": "sessionId",
          "type": "bytes32"
        }
      ],
      "stateMutability": "nonpayable",
      "type": "function"
    },
    {
      "inputs": [
        {
          "internalType": "bytes32[]",
          "name": "sessionIds",
          "type": "bytes32[]"
        },
        {
          "internalType": "address[]",
          "name": "recipients",
          "type": "address[]"
        },
        {
          "internalType": "uint256[]",
          "name": "amounts",
          "type": "uint256[]"
        },
        {
          "internalType": "bytes32[]",
          "name": "paymentIds",
          "type": "bytes32[]"
        },
        {
          "internalType": "bytes[]",
          "name": "signatures",
          "type": "bytes[]"
        }
      ],
      "name": "executeBatchWithSession",
      "outputs": [],
      "stateMutability": "nonpayable",
      "type": "function"
    },
    {
      "inputs": [
        {
          "internalType": "bytes32",
          "name": "sessionId",
          "type": "bytes32"
        },
        {
          "internalType": "address",
          "name": "to",
          "type": "address"
        },
        {
          "internalType": "uint256",
          "name": "amount",
          "type": "uint256"
        },
        {
          "internalType": "bytes32",
          "name": "paymentId",
          "type": "bytes32"
        },
        {
          "internalType": "bytes",
          "name": "signature",
          "type": "bytes"
        }
      ],
      "name": "executeWithSession",
      "outputs": [],
      "stateMutability": "nonpayable",
      "type": "function"
    },
    {
      "inputs": [
        {
          "internalType": "bytes32",
          "name": "sessionId",
          "type": "bytes32"
        }
      ],
      "name": "getSession",
      "outputs": [
        {
          "components": [
            {
              "internalType": "address",
              "name": "signer",
              "type": "address"
            },
            {
              "internalType": "address",
              "name": "owner",
              "type": "address"
            },
            {
              "internalType": "uint256",
              "name": "singleLimit",
              "type": "uint256"
            },
            {
              "internalType": "uint256",
              "name": "dailyLimit",
              "type": "uint256"
            },
            {
              "internalType": "uint256",
              "name": "usedToday",
              "type": "uint256"
            },
            {
              "internalType": "uint256",
              "name": "expiry",
              "type": "uint256"
            },
            {
              "internalType": "uint256",
              "name": "lastResetDate",
              "type": "uint256"
            },
            {
              "internalType": "bool",
              "name": "isActive",
              "type": "bool"
            }
          ],
          "internalType": "struct ERC8004SessionManager.Session",
          "name": "",
          "type": "tuple"
        }
      ],
      "stateMutability": "view",
      "type": "function"
    },
    {
      "inputs": [
        {
          "internalType": "address",
          "name": "user",
          "type": "address"
        }
      ],
      "name": "getUserSessions",
      "outputs": [
        {
          "internalType": "bytes32[]",
          "name": "",
          "type": "bytes32[]"
        }
      ],
      "stateMutability": "view",
      "type": "function"
    },
    {
      "inputs": [
        {
          "internalType": "address",
          "name": "user",
          "type": "address"
        }
      ],
      "name": "getUserTokenAllowance",
      "outputs": [
        {
          "internalType": "uint256",
          "name": "allowance",
          "type": "uint256"
        },
        {
          "internalType": "address",
          "name": "tokenAddress",
          "type": "address"
        },
        {
          "internalType": "bool",
          "name": "isAuthorized",
          "type": "bool"
        }
      ],
      "stateMutability": "view",
      "type": "function"
    },
    {
      "inputs": [],
      "name": "owner",
      "outputs": [
        {
          "internalType": "address",
          "name": "",
          "type": "address"
        }
      ],
      "stateMutability": "view",
      "type": "function"
    },
    {
      "inputs": [],
      "name": "pause",
      "outputs": [],
      "stateMutability": "nonpayable",
      "type": "function"
    },
    {
      "inputs": [],
      "name": "paused",
      "outputs": [
        {
          "internalType": "bool",
          "name": "",
          "type": "bool"
        }
      ],
      "stateMutability": "view",
      "type": "function"
    },
    {
      "inputs": [],
      "name": "relayer",
      "outputs": [
        {
          "internalType": "address",
          "name": "",
          "type": "address"
        }
      ],
      "stateMutability": "view",
      "type": "function"
    },
    {
      "inputs": [],
      "name": "renounceOwnership",
      "outputs": [],
      "stateMutability": "nonpayable",
      "type": "function"
    },
    {
      "inputs": [
        {
          "internalType": "bytes32",
          "name": "sessionId",
          "type": "bytes32"
        }
      ],
      "name": "revokeSession",
      "outputs": [],
      "stateMutability": "nonpayable",
      "type": "function"
    },
    {
      "inputs": [
        {
          "internalType": "bytes32",
          "name": "",
          "type": "bytes32"
        }
      ],
      "name": "sessions",
      "outputs": [
        {
          "internalType": "address",
          "name": "signer",
          "type": "address"
        },
        {
          "internalType": "address",
          "name": "owner",
          "type": "address"
        },
        {
          "internalType": "uint256",
          "name": "singleLimit",
          "type": "uint256"
        },
        {
          "internalType": "uint256",
          "name": "dailyLimit",
          "type": "uint256"
        },
        {
          "internalType": "uint256",
          "name": "usedToday",
          "type": "uint256"
        },
        {
          "internalType": "uint256",
          "name": "expiry",
          "type": "uint256"
        },
        {
          "internalType": "uint256",
          "name": "lastResetDate",
          "type": "uint256"
        },
        {
          "internalType": "bool",
          "name": "isActive",
          "type": "bool"
        }
      ],
      "stateMutability": "view",
      "type": "function"
    },
    {
      "inputs": [
        {
          "internalType": "address",
          "name": "_relayer",
          "type": "address"
        }
      ],
      "name": "setRelayer",
      "outputs": [],
      "stateMutability": "nonpayable",
      "type": "function"
    },
    {
      "inputs": [
        {
          "internalType": "address",
          "name": "newOwner",
          "type": "address"
        }
      ],
      "name": "transferOwnership",
      "outputs": [],
      "stateMutability": "nonpayable",
      "type": "function"
    },
    {
      "inputs": [],
      "name": "unpause",
      "outputs": [],
      "stateMutability": "nonpayable",
      "type": "function"
    },
    {
      "inputs": [],
      "name": "usdcToken",
      "outputs": [
        {
          "internalType": "address",
          "name": "",
          "type": "address"
        }
      ],
      "stateMutability": "view",
      "type": "function"
    },
    {
      "inputs": [
        {
          "internalType": "address",
          "name": "",
          "type": "address"
        },
        {
          "internalType": "uint256",
          "name": "",
          "type": "uint256"
        }
      ],
      "name": "userSessions",
      "outputs": [
        {
          "internalType": "bytes32",
          "name": "",
          "type": "bytes32"
        }
      ],
      "stateMutability": "view",
      "type": "function"
    }
  ],
  "bytecode": "0x60803461010157601f611aea38819003918201601f19168301916001600160401b038311848410176101065780849260209460405283398101031261010157516001600160a01b0380821691829003610101576000549060018060a01b0319913383821617600055604051913391167f8be0079c531659141344cd1fd0a4f28419497f9722a3daafe3b4186f6b6457e0600080a36001805560ff196002541660025582156100bf575060055416176005556040516119cd908161011d8239f35b62461bcd60e51b815260206004820152601460248201527f496e76616c6964205553444320616464726573730000000000000000000000006044820152606490fd5b600080fd5b634e487b7160e01b600052604160045260246000fdfe608080604052600436101561001357600080fd5b60e0600035811c91826311eac85514610ef15750816314f8192414610bb5578163223715dd14610b0157816339b240bd146109f55781633f4ba83a1461096157816345ba64f4146106af5781635c975abb1461068c5781636548e9bc1461060d5781636d597d13146105b5578163715018a61461055c5781637dbd2832146104d2575080637f93faa3146104255780638406c079146103fc5780638456cb59146103a25780638da5cb5b1461037957806391170e47146102a1578063a7fed385146101b05763f2fde38b146100e757600080fd5b346101ab5760203660031901126101ab57610100610f15565b610108610f73565b6001600160a01b0390811690811561015757600054826001600160601b0360a01b821617600055167f8be0079c531659141344cd1fd0a4f28419497f9722a3daafe3b4186f6b6457e0600080a3005b60405162461bcd60e51b815260206004820152602660248201527f4f776e61626c653a206e6577206f776e657220697320746865207a65726f206160448201526564647265737360d01b6064820152608490fd5b600080fd5b346101ab5760203660031901126101ab57600435600081815260036020526040902060018101546001600160a01b0316330361026857600701805460ff8116156102235760ff1916905533907f53c7d74d36edc91dbf6b53bb0ea80bbdb2ca5894d54f6f62beacc537701822fd600080a3005b60405162461bcd60e51b815260206004820152601760248201527f53657373696f6e20616c7265616479207265766f6b65640000000000000000006044820152606490fd5b60405162461bcd60e51b81526020600482015260116024820152702737ba1039b2b9b9b4b7b71037bbb732b960791b6044820152606490fd5b346101ab5760a03660031901126101ab576024356001600160a01b0360043581831683036101ab57608435926001600160401b03928385116101ab57366023860112156101ab5784600401359384116101ab5736602485870101116101ab576103739461035460058361031b602495600654163314611039565b86600052600360205261033a6040600020916001830154161515611085565b61034a60ff6007830154166110c5565b0154421115611106565b61035c611188565b610364611144565b01916064359160443591611217565b60018055005b346101ab5760003660031901126101ab576000546040516001600160a01b039091168152602090f35b346101ab5760003660031901126101ab576103bb610f73565b6103c3611144565b600160ff1960025416176002557f62e78cea01bee320cd4e420270b5ea74000d11b0c9f74754ebdbfc544b05a2586020604051338152a1005b346101ab5760003660031901126101ab576006546040516001600160a01b039091168152602090f35b346101ab576020806003193601126101ab5761043f610f15565b600554604051636eb1769f60e11b81526001600160a01b0392831660048201523060248201529291168183604481845afa9081156104c657600091610496575b606093506040519282845283015215156040820152f35b90508183813d83116104bf575b6104ad8183611018565b810103126101ab57606092519061047f565b503d6104a3565b6040513d6000823e3d90fd5b346101ab5760203660031901126101ab5761010090600435600052600360205260406000209060018060a01b03918281541692600182015416906002810154600382015460048301549060058401549260ff600760068701549601541695604051988952602089015260408801526060870152608086015260a085015260c0840152151590820152f35b346101ab5760003660031901126101ab57610575610f73565b600080546001600160a01b0319811682556001600160a01b03167f8be0079c531659141344cd1fd0a4f28419497f9722a3daafe3b4186f6b6457e08280a3005b346101ab5760403660031901126101ab576105ce610f15565b6001600160a01b03166000908152600460205260409020805460243591908210156101ab576020916105ff91610f5b565b90546040519160031b1c8152f35b346101ab5760203660031901126101ab57610626610f15565b61062e610f73565b6001600160a01b03168015610655576001600160601b0360a01b6006541617600655600080f35b60405162461bcd60e51b815260206004820152600f60248201526e24b73b30b634b2103932b630bcb2b960891b6044820152606490fd5b346101ab5760003660031901126101ab57602060ff600254166040519015158152f35b346101ab5760a03660031901126101ab576004356001600160401b0381116101ab576106df903690600401610f2b565b6024356001600160401b0381116101ab576106fe903690600401610f2b565b916044356001600160401b0381116101ab5761071e903690600401610f2b565b926064356001600160401b0381116101ab5761073e903690600401610f2b565b9190946084356001600160401b0381116101ab57610760903690600401610f2b565b94909360018060a01b039661077a88600654163314611039565b610782611188565b61078a611144565b89811480610958575b8061094f575b80610946575b1561090957801515806108fe575b156108c45760005b8181106107c25760018055005b8a8961081c838f81876107d492611987565b35938460005260036020526107f56040600020946001860154161515611085565b61080560ff6007860154166110c5565b610816600580950154421115611106565b8a611987565b358b811681036101ab578c9161083f8588610838828d8d611987565b3595611987565b35908c8610156108ae5785901b8b0135601e198c3603018112156101ab578b01928335936001600160401b0385116101ab576020019284360384136101ab5761088795611217565b6000198114610898576001016107b5565b634e487b7160e01b600052601160045260246000fd5b634e487b7160e01b600052603260045260246000fd5b60405162461bcd60e51b8152602060048201526012602482015271496e76616c69642062617463682073697a6560701b6044820152606490fd5b5060328111156107ad565b60405162461bcd60e51b8152602060048201526015602482015274082e4e4c2f240d8cadccee8d040dad2e6dac2e8c6d605b1b6044820152606490fd5b5086821461079f565b50818414610799565b50838a14610793565b346101ab5760003660031901126101ab5761097a610f73565b60025460ff8116156109b95760ff19166002557f5db9ee0a495bf2e6ff9c91a7834c1ba4fdd244a5e8aa4e537bd38aeae4b073aa6020604051338152a1005b60405162461bcd60e51b815260206004820152601460248201527314185d5cd8589b194e881b9bdd081c185d5cd95960621b6044820152606490fd5b346101ab5760203660031901126101ab5780600061010092604051610a1981610fcb565b8281528260208201528260408201528260608201528260808201528260a08201528260c082015201526004356000526003602052604060002090604051610a5f81610fcb565b60018060a01b03928381541693848352806001830154169060208401918252600283015460408501908152600384015490606086019182526004850154926080870193845260058601549460a088019586528860ff600760068a01549960c08c019a8b5201541698019715158852604051998a52511660208901525160408801525160608701525160808601525160a08501525160c084015251151590820152f35b346101ab576020806003193601126101ab576001600160a01b03610b23610f15565b1660005260048152604060002060405190818382549182815201908192600052846000209060005b86828210610ba1578686610b6182880383611018565b604051928392818401908285525180915260408401929160005b828110610b8a57505050500390f35b835185528695509381019392810192600101610b7b565b835485529093019260019283019201610b4b565b346101ab5760803660031901126101ab57610bce610f15565b906001600160a01b03808316908115610ebb5760248035918215610e805760443590838210610e3c576064359242841115610e07576000199182430198438a11610df25760405160209a8b8201923360601b84526001600160601b03199060601b16603483015242604883015243606883015240608882015260888152610c5481610ffd565b519020978860005260038a528160016040600020015416610db7578891600791878c60405193610c8385610fcb565b8c855281850133815260408601908d825260608701928c8452600360808901956000875260a08a0197885260c08a01986201518042048a528a019b60018d5260005252806040600020985116906001600160601b0360a01b91828a54161789556001890192511690825416179055516002860155516003850155516004840155516005830155516006820155019051151560ff801983541691161790553360005260048852604060002080549168010000000000000000831015610da3575090610d5291600182018155610f5b565b819291549060031b9188831b921b1916179055604051928352858301526040820152827f172d7ccba1f3184e217ab083748b845fd9db3cbe7fd8da1b1c94ae2837379a1860603393a4604051908152f35b634e487b7160e01b60009081526041600452fd5b60405162461bcd60e51b8152600481018b90526014818501527329b2b9b9b4b7b71024a21031b7b63634b9b4b7b760611b6044820152606490fd5b82634e487b7160e01b60005260116004526000fd5b606490600e6040519162461bcd60e51b8352602060048401528201526d496e76616c69642065787069727960901b6044820152fd5b60405162461bcd60e51b8152602060048201819052818501527f4461696c79206c696d6974206d757374203e3d2073696e676c65206c696d69746044820152606490fd5b60405162461bcd60e51b81526020600482015260148184015273125b9d985b1a59081cda5b99db19481b1a5b5a5d60621b6044820152606490fd5b60405162461bcd60e51b815260206004820152600e60248201526d24b73b30b634b21039b4b3b732b960911b6044820152606490fd5b346101ab5760003660031901126101ab576005546001600160a01b03168152602090f35b600435906001600160a01b03821682036101ab57565b9181601f840112156101ab578235916001600160401b0383116101ab576020808501948460051b0101116101ab57565b80548210156108ae5760005260206000200190600090565b6000546001600160a01b03163303610f8757565b606460405162461bcd60e51b815260206004820152602060248201527f4f776e61626c653a2063616c6c6572206973206e6f7420746865206f776e65726044820152fd5b61010081019081106001600160401b03821117610fe757604052565b634e487b7160e01b600052604160045260246000fd5b60c081019081106001600160401b03821117610fe757604052565b90601f801991011681019081106001600160401b03821117610fe757604052565b1561104057565b60405162461bcd60e51b815260206004820152601860248201527f4f6e6c792072656c617965722063616e206578656375746500000000000000006044820152606490fd5b1561108c57565b60405162461bcd60e51b815260206004820152601160248201527014d95cdcda5bdb881b9bdd08199bdd5b99607a1b6044820152606490fd5b156110cc57565b60405162461bcd60e51b815260206004820152601260248201527153657373696f6e206e6f742061637469766560701b6044820152606490fd5b1561110d57565b60405162461bcd60e51b815260206004820152600f60248201526e14d95cdcda5bdb88195e1c1a5c9959608a1b6044820152606490fd5b60ff6002541661115057565b60405162461bcd60e51b815260206004820152601060248201526f14185d5cd8589b194e881c185d5cd95960821b6044820152606490fd5b600260015414611199576002600155565b60405162461bcd60e51b815260206004820152601f60248201527f5265656e7472616e637947756172643a207265656e7472616e742063616c6c006044820152606490fd5b9190820180921161089857565b6001600160401b038111610fe757601f01601f191660200190565b60ff16604d811161089857600a0a90565b929491909360009284845260209360038552604092838220908762015180420488600685019182548111611699575b505050506002820154861161165e576004938483019182549161126989846111de565b6003860154106116255787518a81018c815260608e901b6bffffffffffffffffffffffff1916828b0152605482018b9052607482018f90524660948084019190915282526001600160a01b039d8e169d95949392916112c781610ffd565b5190207f19457468657265756d205369676e6564204d6573736167653a0a3332000000008852601c52603c8720906112fe816111eb565b9261130b8b519485611018565b81845236828201116116215791888d8386946113319683611339990137840101526118c0565b9190916117a6565b83808654169116036115ea578761134f916111de565b905580600554169085519263313ce56760e01b845288848781865afa9384156115e05785946115a3575b5060ff8894166006810361151c575b506001015416855192888401916323b872dd60e01b835260248501528a604485015260648401526064835260a08301926001600160401b03818510818611176115095760e08201908111858210176115095787528884527f5361666545524332303a206c6f772d6c6576656c2063616c6c206661696c656460c08201525161143f9392918591829182855af13d15611501573d91611425836111eb565b9261143289519485611018565b83523d868b85013e6116d2565b8051918215918783156114d6575b5050509050156114825750519081527f756ad05355eaee75b04e423ae52915105c02d4a3fc70eaddf2d437bbe24a0fd29190a4565b83608492519162461bcd60e51b8352820152602a60248201527f5361666545524332303a204552433230206f7065726174696f6e20646964206e6044820152691bdd081cdd58d8d9595960b21b6064820152fd5b9193818094500103126114fd578501519081151582036114fa57508038808761144d565b80fd5b5080fd5b6060916116d2565b634e487b7160e01b865260418752602486fd5b909350600681111561156b576005190160ff81116115585761153d90611206565b80880290888204148815171561155857600190935b90611388565b634e487b7160e01b855260118652602485fd5b60060360ff81116115585761157f90611206565b801561159057600190880493611552565b634e487b7160e01b855260128652602485fd5b9093508881813d83116115d9575b6115bb8183611018565b810103126115d5575160ff811681036115d5579238611379565b8480fd5b503d6115b1565b87513d87823e3d90fd5b865162461bcd60e51b81528087018a90526011602482015270496e76616c6964207369676e617475726560781b6044820152606490fd5b8880fd5b875162461bcd60e51b81528088018b90526013602482015272115e18d959591cc819185a5b1e481b1a5b5a5d606a1b6044820152606490fd5b845162461bcd60e51b8152600481018890526014602482015273115e18d959591cc81cda5b99db19481b1a5b5a5d60621b6044820152606490fd5b807fc4a881808fe11209c7fd9fa8f3bb044229bd1de8bb80de1f0475be1c2d0d14bb93886004890155558851908152a287388881611246565b9192901561173457508151156116e6575090565b3b156116ef5790565b60405162461bcd60e51b815260206004820152601d60248201527f416464726573733a2063616c6c20746f206e6f6e2d636f6e74726163740000006044820152606490fd5b8251909150156117475750805190602001fd5b6040519062461bcd60e51b82528160208060048301528251908160248401526000935b82851061178d575050604492506000838284010152601f80199101168101030190fd5b848101820151868601604401529381019385935061176a565b60058110156118aa57806117b75750565b600181036118045760405162461bcd60e51b815260206004820152601860248201527f45434453413a20696e76616c6964207369676e617475726500000000000000006044820152606490fd5b600281036118515760405162461bcd60e51b815260206004820152601f60248201527f45434453413a20696e76616c6964207369676e6174757265206c656e677468006044820152606490fd5b60031461185a57565b60405162461bcd60e51b815260206004820152602260248201527f45434453413a20696e76616c6964207369676e6174757265202773272076616c604482015261756560f01b6064820152608490fd5b634e487b7160e01b600052602160045260246000fd5b9060418151146000146118ee576118ea916020820151906060604084015193015160001a906118f8565b9091565b5050600090600290565b9291907f7fffffffffffffffffffffffffffffff5d576e7357a4501ddfe92f46681b20a0831161197b5791608094939160ff602094604051948552168484015260408301526060820152600093849182805260015afa1561196e5781516001600160a01b03811615611968579190565b50600190565b50604051903d90823e3d90fd5b50505050600090600390565b91908110156108ae5760051b019056fea2646970667358221220fb878255400a44b987a89396f54db4c31c4fafea67c38d40cc7e56fd0b10de5764736f6c63430008140033",
  "linkReferences": {},
  "deployedLinkReferences": {}
}