{
  "_format": "hh-sol-artifact-1",
  "contractName": "PaymentRouter",
  "sourceName": "contracts/PaymentRouter.sol",
  "abi": [
    {
      "anonymous": false,
      "inputs": [
        {
          "indexed": true,
          "internalType": "address",
          "name": "previousOwner",
          "type": "address"
        },
        {
          "indexed": true,
          "internalType": "address",
          "name": "newOwner",
          "type": "address"
        }
      ],
      "name": "OwnershipTransferred",
      "type": "event"
    },
    {
      "anonymous": false,
      "inputs": [
        {
          "indexed": false,
          "internalType": "address",
          "name": "account",
          "type": "address"
        }
      ],
      "name": "Paused",
      "type": "event"
    },
    {
      "anonymous": false,
      "inputs": [
        {
          "indexed": true,
          "internalType": "bytes32",
          "name": "paymentId",
          "type": "bytes32"
        },
        {
          "indexed": true,
          "internalType": "address",
          "name": "recipient",
          "type": "address"
        },
        {
          "indexed": false,
          "internalType": "uint256",
          "name": "amount",
          "type": "uint256"
        }
      ],
      "name": "PaymentCompleted",
      "type": "event"
    },
    {
      "anonymous": false,
      "inputs": [
        {
          "indexed": true,
          "internalType": "bytes32",
          "name": "paymentId",
          "type": "bytes32"
        },
        {
          "indexed": true,
          "internalType": "address",
          "name": "payer",
          "type": "address"
        },
        {
          "indexed": true,
          "internalType": "address",
          "name": "recipient",
          "type": "address"
        },
        {
          "indexed": false,
          "internalType": "uint256",
          "name": "amount",
          "type": "uint256"
        },
        {
          "indexed": false,
          "internalType": "enum PaymentRouter.PaymentMethod",
          "name": "method",
          "type": "uint8"
        },
        {
          "indexed": false,
          "internalType": "bytes32",
          "name": "sessionId",
          "type": "bytes32"
        },
        {
          "indexed": false,
          "internalType": "uint256",
          "name": "merchantPrice",
          "type": "uint256"
        },
        {
          "indexed": false,
          "internalType": "uint256",
          "name": "channelFee",
          "type": "uint256"
        }
      ],
      "name": "PaymentRouted",
      "type": "event"
    },
    {
      "anonymous": false,
      "inputs": [
        {
          "indexed": false,
          "internalType": "address",
          "name": "account",
          "type": "address"
        }
      ],
      "name": "Unpaused",
      "type": "event"
    },
    {
      "inputs": [
        {
          "internalType": "address",
          "name": "",
          "type": "address"
        }
      ],
      "name": "balances",
      "outputs": [
        {
          "internalType": "uint256",
          "name": "",
          "type": "uint256"
        }
      ],
      "stateMutability": "view",
      "type": "function"
    },
    {
      "inputs": [
        {
          "internalType": "bytes32",
          "name": "paymentId",
          "type": "bytes32"
        }
      ],
      "name": "completePayment",
      "outputs": [],
      "stateMutability": "nonpayable",
      "type": "function"
    },
    {
      "inputs": [
        {
          "internalType": "bytes32",
          "name": "paymentId",
          "type": "bytes32"
        }
      ],
      "name": "getPayment",
      "outputs": [
        {
          "components": [
            {
              "internalType": "bytes32",
              "name": "paymentId",
              "type": "bytes32"
            },
            {
              "internalType": "address",
              "name": "payer",
              "type": "address"
            },
            {
              "internalType": "address",
              "name": "recipient",
              "type": "address"
            },
            {
              "internalType": "uint256",
              "name": "amount",
              "type": "uint256"
            },
            {
              "internalType": "enum PaymentRouter.PaymentMethod",
              "name": "method",
              "type": "uint8"
            },
            {
              "internalType": "bytes32",
              "name": "sessionId",
              "type": "bytes32"
            },
            {
              "internalType": "uint256",
              "name": "merchantPrice",
              "type": "uint256"
            },
            {
              "internalType": "uint256",
              "name": "channelFee",
              "type": "uint256"
            },
            {
              "internalType": "bool",
              "name": "completed",
              "type": "bool"
            },
            {
              "internalType": "uint256",
              "name": "timestamp",
              "type": "uint256"
            }
          ],
          "internalType": "struct PaymentRouter.PaymentRecord",
          "name": "",
          "type": "tuple"
        }
      ],
      "stateMutability": "view",
      "type": "function"
    },
    {
      "inputs": [],
      "name": "owner",
      "outputs": [
        {
          "internalType": "address",
          "name": "",
          "type": "address"
        }
      ],
      "stateMutability": "view",
      "type": "function"
    },
    {
      "inputs": [],
      "name": "pause",
      "outputs": [],
      "stateMutability": "nonpayable",
      "type": "function"
    },
    {
      "inputs": [],
      "name": "paused",
      "outputs": [
        {
          "internalType": "bool",
          "name": "",
          "type": "bool"
        }
      ],
      "stateMutability": "view",
      "type": "function"
    },
    {
      "inputs": [
        {
          "internalType": "enum PaymentRouter.PaymentMethod",
          "name": "",
          "type": "uint8"
        }
      ],
      "name": "paymentChannels",
      "outputs": [
        {
          "internalType": "address",
          "name": "channelAddress",
          "type": "address"
        },
        {
          "internalType": "bool",
          "name": "isActive",
          "type": "bool"
        },
        {
          "internalType": "uint256",
          "name": "priority",
          "type": "uint256"
        },
        {
          "internalType": "uint256",
          "name": "minAmount",
          "type": "uint256"
        },
        {
          "internalType": "uint256",
          "name": "maxAmount",
          "type": "uint256"
        }
      ],
      "stateMutability": "view",
      "type": "function"
    },
    {
      "inputs": [
        {
          "internalType": "bytes32",
          "name": "",
          "type": "bytes32"
        }
      ],
      "name": "payments",
      "outputs": [
        {
          "internalType": "bytes32",
          "name": "paymentId",
          "type": "bytes32"
        },
        {
          "internalType": "address",
          "name": "payer",
          "type": "address"
        },
        {
          "internalType": "address",
          "name": "recipient",
          "type": "address"
        },
        {
          "internalType": "uint256",
          "name": "amount",
          "type": "uint256"
        },
        {
          "internalType": "enum PaymentRouter.PaymentMethod",
          "name": "method",
          "type": "uint8"
        },
        {
          "internalType": "bytes32",
          "name": "sessionId",
          "type": "bytes32"
        },
        {
          "internalType": "uint256",
          "name": "merchantPrice",
          "type": "uint256"
        },
        {
          "internalType": "uint256",
          "name": "channelFee",
          "type": "uint256"
        },
        {
          "internalType": "bool",
          "name": "completed",
          "type": "bool"
        },
        {
          "internalType": "uint256",
          "name": "timestamp",
          "type": "uint256"
        }
      ],
      "stateMutability": "view",
      "type": "function"
    },
    {
      "inputs": [],
      "name": "renounceOwnership",
      "outputs": [],
      "stateMutability": "nonpayable",
      "type": "function"
    },
    {
      "inputs": [
        {
          "internalType": "bytes32",
          "name": "paymentId",
          "type": "bytes32"
        },
        {
          "internalType": "address",
          "name": "recipient",
          "type": "address"
        },
        {
          "internalType": "uint256",
          "name": "amount",
          "type": "uint256"
        },
        {
          "internalType": "enum PaymentRouter.PaymentMethod",
          "name": "method",
          "type": "uint8"
        },
        {
          "internalType": "bytes32",
          "name": "sessionId",
          "type": "bytes32"
        },
        {
          "internalType": "uint256",
          "name": "merchantPrice",
          "type": "uint256"
        },
        {
          "internalType": "uint256",
          "name": "channelFee",
          "type": "uint256"
        }
      ],
      "name": "routePayment",
      "outputs": [],
      "stateMutability": "payable",
      "type": "function"
    },
    {
      "inputs": [
        {
          "internalType": "bytes32",
          "name": "paymentId",
          "type": "bytes32"
        },
        {
          "internalType": "address",
          "name": "recipient",
          "type": "address"
        },
        {
          "internalType": "uint256",
          "name": "amount",
          "type": "uint256"
        },
        {
          "internalType": "enum PaymentRouter.PaymentMethod",
          "name": "method",
          "type": "uint8"
        }
      ],
      "name": "routePaymentLegacy",
      "outputs": [],
      "stateMutability": "payable",
      "type": "function"
    },
    {
      "inputs": [
        {
          "internalType": "enum PaymentRouter.PaymentMethod",
          "name": "method",
          "type": "uint8"
        },
        {
          "internalType": "address",
          "name": "channelAddress",
          "type": "address"
        },
        {
          "internalType": "bool",
          "name": "isActive",
          "type": "bool"
        },
        {
          "internalType": "uint256",
          "name": "priority",
          "type": "uint256"
        },
        {
          "internalType": "uint256",
          "name": "minAmount",
          "type": "uint256"
        },
        {
          "internalType": "uint256",
          "name": "maxAmount",
          "type": "uint256"
        }
      ],
      "name": "setPaymentChannel",
      "outputs": [],
      "stateMutability": "nonpayable",
      "type": "function"
    },
    {
      "inputs": [
        {
          "internalType": "address",
          "name": "newOwner",
          "type": "address"
        }
      ],
      "name": "transferOwnership",
      "outputs": [],
      "stateMutability": "nonpayable",
      "type": "function"
    },
    {
      "inputs": [],
      "name": "unpause",
      "outputs": [],
      "stateMutability": "nonpayable",
      "type": "function"
    },
    {
      "inputs": [
        {
          "internalType": "uint256",
          "name": "amount",
          "type": "uint256"
        }
      ],
      "name": "withdraw",
      "outputs": [],
      "stateMutability": "nonpayable",
      "type": "function"
    },
    {
      "stateMutability": "payable",
      "type": "receive"
    }
  ],
  "bytecode": "0x608080604052346100695760008054336001600160a01b0319821681178355916001600160a01b03909116907f8be0079c531659141344cd1fd0a4f28419497f9722a3daafe3b4186f6b6457e09080a36001805560ff19600254166002556111a4908161006f8239f35b600080fdfe608080604052600436101561001d575b50361561001b57600080fd5b005b60003560e01c9081630716326d14610dec575080631893fa0a14610d1f57806327e235e314610ce55780632e1a7d4d14610b9c5780633f4ba83a14610b0857806347ca8a8b146109c8578063532796c11461075d5780635c975abb1461073a5780636ff0095c1461044e578063715018a6146103f55780638456cb591461039b5780638da5cb5b14610372578063e0db06c51461030b578063e66eefc81461019d5763f2fde38b146100cf573861000f565b34610198576020366003190112610198576100e8610eb6565b6100f0610ee5565b6001600160a01b0390811690811561014457600054826bffffffffffffffffffffffff60a01b821617600055167f8be0079c531659141344cd1fd0a4f28419497f9722a3daafe3b4186f6b6457e0600080a3005b60405162461bcd60e51b815260206004820152602660248201527f4f776e61626c653a206e6577206f776e657220697320746865207a65726f206160448201526564647265737360d01b6064820152608490fd5b600080fd5b346101985760203660031901126101985760006101206101bb611057565b8281528260208201528260408201528260608201528260808201528260a08201528260c08201528260e082015282610100820152015260043560005260046020526101406040600020600961020e611057565b8254815260018301546001600160a01b03908116602083015260028401541660408201526003830154606082015260048301549092906102549060ff1660808501611078565b600581015460a0840152600681015460c0840152600781015460e084015260ff60088201541615156101008401520154610120820152610120604051918051835260018060a01b03602082015116602084015260018060a01b036040820151166040840152606081015160608401526102d560808201516080850190610e93565b60a081015160a084015260c081015160c084015260e081015160e084015261010081015115156101008401520151610120820152f35b346101985760203660031901126101985760043560048110156101985761033360a091610ecc565b805490600181015490600360028201549101549160ff60405194600180881b0381168652861c1615156020850152604084015260608301526080820152f35b34610198576000366003190112610198576000546040516001600160a01b039091168152602090f35b34610198576000366003190112610198576103b4610ee5565b6103bc6110d4565b600160ff1960025416176002557f62e78cea01bee320cd4e420270b5ea74000d11b0c9f74754ebdbfc544b05a2586020604051338152a1005b346101985760003660031901126101985761040e610ee5565b600080546001600160a01b0319811682556001600160a01b03167f8be0079c531659141344cd1fd0a4f28419497f9722a3daafe3b4186f6b6457e08280a3005b60e036600319011261019857610462610ea0565b6004606435101561019857610475611118565b61047d6110d4565b6104916001600160a01b0382161515610f3d565b61049e6044351515610f7d565b6104b860ff6104ae606435610ecc565b5460a01c16610fc9565b60026104c5606435610ecc565b015460443510158061071b575b6104db90611015565b6104e3611057565b60043581523360208201526001600160a01b0382166040820152604435606082015261051460643560808301611078565b60843560a082015260a43560c082015260c43560e08201526000610100820181905242610120830152600480358252602081815260409283902084518155908401516001820180546001600160a01b03199081166001600160a01b0393841617909155938501516002830180549095169116179092556060830151600383015560808301519290831015610705576101206009916004840160ff199560ff87835416911617905560a0810151600585015560c0810151600685015560e081015160078501556105f96101008201511515600886019060ff801983541691151516179055565b0151910155604051604435815261061560208201606435610e93565b608435604082015260a435606082015260c43560808201526001600160a01b038316903390600435907fe48accf3cf242ef139d88c03dddd8f8b3c40c61fba1da3e864cc19b6280950269060a090a4600160643514610675575b60018055005b610683604435341015611084565b60018060a01b038216600052600560205260406000206106a660443582546110c7565b90556004356000526004602052600160086040600020019182541617905560405190604435825260018060a01b0316907fa7b31f0f3731da4b3c94c7d84acb277ee788cda12f626e14c6baa74670dc5a07602060043592a3808061066f565b634e487b7160e01b600052602160045260246000fd5b506104db600361072c606435610ecc565b0154604435111590506104d2565b3461019857600036600319011261019857602060ff600254166040519015158152f35b608036600319011261019857600435610774610ea0565b906044359160643560048110156101985761078d611118565b6107956110d4565b6001600160a01b03918216936107ac851515610f3d565b6107b7811515610f7d565b6107c560ff6104ae84610ecc565b60026107d083610ecc565b0154811015806109ad575b6107e490611015565b6107ec611057565b84815260209283820191338352604081019588875287606083019486865260808401926108198685611078565b60a08501966000885260c086019a898c5260e0870193600085526101008801936000855261012089019642885260005260048d526040600020985189558060018a01925116916bffffffffffffffffffffffff60a01b928382541617905560028901925116908254161790555160038601556004850193519160048310156107055760ff9a6001986009966108de958e199e8f8354169116179055516005880155516006870155516007860155511515600885019060ff801983541691151516179055565b51910155866040518481526108f586820184610e93565b6000604082015284606082015260006080820152877fe48accf3cf242ef139d88c03dddd8f8b3c40c61fba1da3e864cc19b62809502660a03393a41461093b5760018055005b7fa7b31f0f3731da4b3c94c7d84acb277ee788cda12f626e14c6baa74670dc5a079261096982341015611084565b856000526005835260406000206109818382546110c7565b905584600052600483526001600860406000200191825416179055604051908152a3808080808061066f565b506107e460036109bc84610ecc565b015482111590506107db565b3461019857602080600319360112610198576004356109e5611118565b8060005260048252604060002090600882019283549360ff8516610ac35760048401546001600160a01b0391908290610a209060ff16610ecc565b54163303610a8f5760017fa7b31f0f3731da4b3c94c7d84acb277ee788cda12f626e14c6baa74670dc5a0794959660ff19161790556003850194600286549101908282541660005260058452610a7c60406000209182546110c7565b905554169354604051908152a360018055005b60405162461bcd60e51b815260048101849052600c60248201526b155b985d5d1a1bdc9a5e995960a21b6044820152606490fd5b60405162461bcd60e51b815260048101839052601960248201527f5061796d656e7420616c726561647920636f6d706c65746564000000000000006044820152606490fd5b3461019857600036600319011261019857610b21610ee5565b60025460ff811615610b605760ff19166002557f5db9ee0a495bf2e6ff9c91a7834c1ba4fdd244a5e8aa4e537bd38aeae4b073aa6020604051338152a1005b60405162461bcd60e51b815260206004820152601460248201527314185d5cd8589b194e881b9bdd081c185d5cd95960621b6044820152606490fd5b346101985760208060031936011261019857600435610bb9611118565b33600052600582528060406000205410610ca95733600052600582526040600020908154818103908111610c935760008080938193879655335af13d15610c8e5767ffffffffffffffff3d818111610c785760405191601f8201601f19908116603f0116830190811183821017610c785760405281526000833d92013e5b15610c425760018055005b6064906040519062461bcd60e51b82526004820152600f60248201526e151c985b9cd9995c8819985a5b1959608a1b6044820152fd5b634e487b7160e01b600052604160045260246000fd5b610c37565b634e487b7160e01b600052601160045260246000fd5b60405162461bcd60e51b8152600481018390526014602482015273496e73756666696369656e742062616c616e636560601b6044820152606490fd5b34610198576020366003190112610198576001600160a01b03610d06610eb6565b1660005260056020526020604060002054604051908152f35b346101985760c036600319011261019857600435600481101561019857610d44610ea0565b906044359081151580920361019857610d5b610ee5565b6040519260a084019284841067ffffffffffffffff851117610c785760039360405260018060a01b038092168552602085019081526040850190606435825260608601926084358452610db6608088019560a4358752610ecc565b9651875492516001600160a81b031990931691161790151560a01b60ff60a01b1617855551600185015551600284015551910155005b3461019857602036600319011261019857610140906004356000526004602052604060002080549060018060a01b0380600183015416906002830154166003830154610e7460ff600486015416600586015492600687015494600788015496600960ff60088b015416990154998b5260208b015260408a015260608901526080880190610e93565b60a086015260c085015260e08401521515610100830152610120820152f35b9060048210156107055752565b602435906001600160a01b038216820361019857565b600435906001600160a01b038216820361019857565b6004811015610705576000526003602052604060002090565b6000546001600160a01b03163303610ef957565b606460405162461bcd60e51b815260206004820152602060248201527f4f776e61626c653a2063616c6c6572206973206e6f7420746865206f776e65726044820152fd5b15610f4457565b60405162461bcd60e51b8152602060048201526011602482015270125b9d985b1a59081c9958da5c1a595b9d607a1b6044820152606490fd5b15610f8457565b60405162461bcd60e51b815260206004820152601d60248201527f416d6f756e74206d7573742062652067726561746572207468616e20300000006044820152606490fd5b15610fd057565b60405162461bcd60e51b815260206004820152601a60248201527f5061796d656e74206368616e6e656c206e6f74206163746976650000000000006044820152606490fd5b1561101c57565b60405162461bcd60e51b8152602060048201526013602482015272416d6f756e74206f7574206f662072616e676560681b6044820152606490fd5b60405190610140820182811067ffffffffffffffff821117610c7857604052565b60048210156107055752565b1561108b57565b60405162461bcd60e51b8152602060048201526014602482015273125b9cdd59999a58da595b9d081c185e5b595b9d60621b6044820152606490fd5b91908201809211610c9357565b60ff600254166110e057565b60405162461bcd60e51b815260206004820152601060248201526f14185d5cd8589b194e881c185d5cd95960821b6044820152606490fd5b600260015414611129576002600155565b60405162461bcd60e51b815260206004820152601f60248201527f5265656e7472616e637947756172643a207265656e7472616e742063616c6c006044820152606490fdfea2646970667358221220bceffa94ad69a0e1db506c63509420505dd095a3ae62c96c0d63bc4b0bbcf39364736f6c63430008140033",
  "linkReferences": {},
  "deployedLinkReferences": {}
}