{"contracts/MerkleDistributor.sol":{"MerkleDistributor":{"abi":[{"inputs":[{"internalType":"address","name":"_admin","type":"address"},{"internalType":"address","name":"_treasury","type":"address"}],"stateMutability":"nonpayable","type":"constructor"},{"inputs":[],"name":"AccessControlBadConfirmation","type":"error"},{"inputs":[{"internalType":"address","name":"account","type":"address"},{"internalType":"bytes32","name":"neededRole","type":"bytes32"}],"name":"AccessControlUnauthorizedAccount","type":"error"},{"inputs":[{"internalType":"address","name":"token","type":"address"}],"name":"SafeERC20FailedOperation","type":"error"},{"anonymous":false,"inputs":[{"indexed":true,"internalType":"uint256","name":"epochId","type":"uint256"},{"indexed":true,"internalType":"address","name":"account","type":"address"},{"indexed":true,"internalType":"address","name":"token","type":"address"},{"indexed":false,"internalType":"uint256","name":"amount","type":"uint256"}],"name":"Claimed","type":"event"},{"anonymous":false,"inputs":[{"indexed":true,"internalType":"uint256","name":"epochId","type":"uint256"},{"indexed":true,"internalType":"address","name":"token","type":"address"},{"indexed":false,"internalType":"bytes32","name":"merkleRoot","type":"bytes32"}],"name":"MerkleRootSet","type":"event"},{"anonymous":false,"inputs":[{"indexed":true,"internalType":"bytes32","name":"role","type":"bytes32"},{"indexed":true,"internalType":"bytes32","name":"previousAdminRole","type":"bytes32"},{"indexed":true,"internalType":"bytes32","name":"newAdminRole","type":"bytes32"}],"name":"RoleAdminChanged","type":"event"},{"anonymous":false,"inputs":[{"indexed":true,"internalType":"bytes32","name":"role","type":"bytes32"},{"indexed":true,"internalType":"address","name":"account","type":"address"},{"indexed":true,"internalType":"address","name":"sender","type":"address"}],"name":"RoleGranted","type":"event"},{"anonymous":false,"inputs":[{"indexed":true,"internalType":"bytes32","name":"role","type":"bytes32"},{"indexed":true,"internalType":"address","name":"account","type":"address"},{"indexed":true,"internalType":"address","name":"sender","type":"address"}],"name":"RoleRevoked","type":"event"},{"anonymous":false,"inputs":[{"indexed":false,"internalType":"address","name":"oldTreasury","type":"address"},{"indexed":false,"internalType":"address","name":"newTreasury","type":"address"}],"name":"TreasuryUpdated","type":"event"},{"inputs":[],"name":"DEFAULT_ADMIN_ROLE","outputs":[{"internalType":"bytes32","name":"","type":"bytes32"}],"stateMutability":"view","type":"function"},{"inputs":[],"name":"OPERATOR_ROLE","outputs":[{"internalType":"bytes32","name":"","type":"bytes32"}],"stateMutability":"view","type":"function"},{"inputs":[{"internalType":"uint256","name":"epochId","type":"uint256"},{"internalType":"address","name":"token","type":"address"},{"internalType":"address","name":"account","type":"address"},{"internalType":"uint256","name":"amount","type":"uint256"},{"internalType":"bytes32[]","name":"merkleProof","type":"bytes32[]"}],"name":"canClaim","outputs":[{"internalType":"bool","name":"","type":"bool"}],"stateMutability":"view","type":"function"},{"inputs":[{"internalType":"uint256","name":"epochId","type":"uint256"},{"internalType":"address","name":"token","type":"address"},{"internalType":"uint256","name":"amount","type":"uint256"},{"internalType":"bytes32[]","name":"merkleProof","type":"bytes32[]"}],"name":"claim","outputs":[],"stateMutability":"nonpayable","type":"function"},{"inputs":[{"internalType":"uint256[]","name":"epochIds","type":"uint256[]"},{"internalType":"address","name":"token","type":"address"},{"internalType":"uint256[]","name":"amounts","type":"uint256[]"},{"internalType":"bytes32[][]","name":"merkleProofs","type":"bytes32[][]"}],"name":"claimMultiple","outputs":[],"stateMutability":"nonpayable","type":"function"},{"inputs":[{"internalType":"uint256","name":"","type":"uint256"},{"internalType":"address","name":"","type":"address"},{"internalType":"address","name":"","type":"address"}],"name":"claimed","outputs":[{"internalType":"bool","name":"","type":"bool"}],"stateMutability":"view","type":"function"},{"inputs":[{"internalType":"uint256","name":"","type":"uint256"},{"internalType":"address","name":"","type":"address"}],"name":"epochMerkleRoots","outputs":[{"internalType":"bytes32","name":"","type":"bytes32"}],"stateMutability":"view","type":"function"},{"inputs":[{"internalType":"bytes32","name":"role","type":"bytes32"}],"name":"getRoleAdmin","outputs":[{"internalType":"bytes32","name":"","type":"bytes32"}],"stateMutability":"view","type":"function"},{"inputs":[{"internalType":"bytes32","name":"role","type":"bytes32"},{"internalType":"address","name":"account","type":"address"}],"name":"grantRole","outputs":[],"stateMutability":"nonpayable","type":"function"},{"inputs":[{"internalType":"bytes32","name":"role","type":"bytes32"},{"internalType":"address","name":"account","type":"address"}],"name":"hasRole","outputs":[{"internalType":"bool","name":"","type":"bool"}],"stateMutability":"view","type":"function"},{"inputs":[{"internalType":"uint256","name":"epochId","type":"uint256"},{"internalType":"address","name":"token","type":"address"},{"internalType":"address","name":"account","type":"address"}],"name":"isClaimed","outputs":[{"internalType":"bool","name":"","type":"bool"}],"stateMutability":"view","type":"function"},{"inputs":[{"internalType":"bytes32","name":"role","type":"bytes32"},{"internalType":"address","name":"callerConfirmation","type":"address"}],"name":"renounceRole","outputs":[],"stateMutability":"nonpayable","type":"function"},{"inputs":[{"internalType":"bytes32","name":"role","type":"bytes32"},{"internalType":"address","name":"account","type":"address"}],"name":"revokeRole","outputs":[],"stateMutability":"nonpayable","type":"function"},{"inputs":[{"internalType":"uint256","name":"epochId","type":"uint256"},{"internalType":"address","name":"token","type":"address"},{"internalType":"bytes32","name":"merkleRoot","type":"bytes32"}],"name":"setMerkleRoot","outputs":[],"stateMutability":"nonpayable","type":"function"},{"inputs":[{"internalType":"address","name":"_treasury","type":"address"}],"name":"setTreasury","outputs":[],"stateMutability":"nonpayable","type":"function"},{"inputs":[{"internalType":"bytes4","name":"interfaceId","type":"bytes4"}],"name":"supportsInterface","outputs":[{"internalType":"bool","name":"","type":"bool"}],"stateMutability":"view","type":"function"},{"inputs":[{"internalType":"address","name":"","type":"address"},{"internalType":"address","name":"","type":"address"}],"name":"totalClaimed","outputs":[{"internalType":"uint256","name":"","type":"uint256"}],"stateMutability":"view","type":"function"},{"inputs":[],"name":"treasury","outputs":[{"internalType":"address","name":"","type":"address"}],"stateMutability":"view","type":"function"}],"evm":{"bytecode":{"linkReferences":{},"object":"60806040523480156200001157600080fd5b50604051620028313803806200283183398181016040528101906200003791906200031a565b600073ffffffffffffffffffffffffffffffffffffffff168173ffffffffffffffffffffffffffffffffffffffff1603620000a9576040517f08c379a0000000000000000000000000000000000000000000000000000000008152600401620000a090620003c2565b60405180910390fd5b620000be6000801b836200013b60201b60201c565b50620000f17f97667070c54ef182b0f5858b034beac1b6f3089aa2d3188bb1e8929f4fa9b929836200013b60201b60201c565b5080600160006101000a81548173ffffffffffffffffffffffffffffffffffffffff021916908373ffffffffffffffffffffffffffffffffffffffff1602179055505050620003e4565b60006200014f83836200023e60201b60201c565b6200023357600160008085815260200190815260200160002060000160008473ffffffffffffffffffffffffffffffffffffffff1673ffffffffffffffffffffffffffffffffffffffff16815260200190815260200160002060006101000a81548160ff021916908315150217905550620001cf620002a860201b60201c565b73ffffffffffffffffffffffffffffffffffffffff168273ffffffffffffffffffffffffffffffffffffffff16847f2f8788117e7eff1d82e926ec794901d17c78024a50270940304540a733656f0d60405160405180910390a46001905062000238565b600090505b92915050565b600080600084815260200190815260200160002060000160008373ffffffffffffffffffffffffffffffffffffffff1673ffffffffffffffffffffffffffffffffffffffff16815260200190815260200160002060009054906101000a900460ff16905092915050565b600033905090565b600080fd5b600073ffffffffffffffffffffffffffffffffffffffff82169050919050565b6000620002e282620002b5565b9050919050565b620002f481620002d5565b81146200030057600080fd5b50565b6000815190506200031481620002e9565b92915050565b60008060408385031215620003345762000333620002b0565b5b6000620003448582860162000303565b9250506020620003578582860162000303565b9150509250929050565b600082825260208201905092915050565b7f496e76616c696420747265617375727900000000000000000000000000000000600082015250565b6000620003aa60108362000361565b9150620003b78262000372565b602082019050919050565b60006020820190508181036000830152620003dd816200039b565b9050919050565b61243d80620003f46000396000f3fe608060405234801561001057600080fd5b50600436106101165760003560e01c806391d14854116100a2578063ccf5663111610071578063ccf5663114610303578063d547741f14610333578063eb18eb661461034f578063f0f442601461037f578063f5b541a61461039b57610116565b806391d14854146102695780639461dcf114610299578063a217fddf146102b5578063addc0811146102d357610116565b80632f2ff15d116100e95780632f2ff15d146101c757806336568abe146101e3578063594065d0146101ff57806361d027b31461022f5780637e8137521461024d57610116565b806301ffc9a71461011b5780630d0ffa0a1461014b578063248a9ca31461017b5780632e7ba6ef146101ab575b600080fd5b6101356004803603810190610130919061189d565b6103b9565b60405161014291906118e5565b60405180910390f35b61016560048036038101906101609190611994565b610433565b60405161017291906118e5565b60405180910390f35b61019560048036038101906101909190611a1d565b6104d9565b6040516101a29190611a59565b60405180910390f35b6101c560048036038101906101c09190611ad9565b6104f8565b005b6101e160048036038101906101dc9190611b61565b61091c565b005b6101fd60048036038101906101f89190611b61565b61093e565b005b61021960048036038101906102149190611ba1565b6109b9565b6040516102269190611bf0565b60405180910390f35b6102376109de565b6040516102449190611c1a565b60405180910390f35b61026760048036038101906102629190611ce1565b610a04565b005b610283600480360381019061027e9190611b61565b610ebf565b60405161029091906118e5565b60405180910390f35b6102b360048036038101906102ae9190611daa565b610f29565b005b6102bd611042565b6040516102ca9190611a59565b60405180910390f35b6102ed60048036038101906102e89190611dfd565b611049565b6040516102fa91906118e5565b60405180910390f35b61031d60048036038101906103189190611e97565b6111e5565b60405161032a9190611a59565b60405180910390f35b61034d60048036038101906103489190611b61565b61120a565b005b61036960048036038101906103649190611994565b61122c565b60405161037691906118e5565b60405180910390f35b61039960048036038101906103949190611ed7565b611268565b005b6103a361138a565b6040516103b09190611a59565b60405180910390f35b60007f7965db0b000000000000000000000000000000000000000000000000000000007bffffffffffffffffffffffffffffffffffffffffffffffffffffffff1916827bffffffffffffffffffffffffffffffffffffffffffffffffffffffff1916148061042c575061042b826113ae565b5b9050919050565b60006003600085815260200190815260200160002060008473ffffffffffffffffffffffffffffffffffffffff1673ffffffffffffffffffffffffffffffffffffffff16815260200190815260200160002060008373ffffffffffffffffffffffffffffffffffffffff1673ffffffffffffffffffffffffffffffffffffffff16815260200190815260200160002060009054906101000a900460ff1690509392505050565b6000806000838152602001908152602001600020600101549050919050565b6003600086815260200190815260200160002060008573ffffffffffffffffffffffffffffffffffffffff1673ffffffffffffffffffffffffffffffffffffffff16815260200190815260200160002060003373ffffffffffffffffffffffffffffffffffffffff1673ffffffffffffffffffffffffffffffffffffffff16815260200190815260200160002060009054906101000a900460ff16156105d3576040517f08c379a00000000000000000000000000000000000000000000000000000000081526004016105ca90611f61565b60405180910390fd5b60006002600087815260200190815260200160002060008673ffffffffffffffffffffffffffffffffffffffff1673ffffffffffffffffffffffffffffffffffffffff1681526020019081526020016000205490506000801b810361066d576040517f08c379a000000000000000000000000000000000000000000000000000000000815260040161066490611fcd565b60405180910390fd5b60003385604051602001610682929190612056565b6040516020818303038152906040528051906020012090506106e6848480806020026020016040519081016040528093929190818152602001838360200280828437600081840152601f19601f820116905080830192505050505050508383611418565b610725576040517f08c379a000000000000000000000000000000000000000000000000000000000815260040161071c906120ce565b60405180910390fd5b60016003600089815260200190815260200160002060008873ffffffffffffffffffffffffffffffffffffffff1673ffffffffffffffffffffffffffffffffffffffff16815260200190815260200160002060003373ffffffffffffffffffffffffffffffffffffffff1673ffffffffffffffffffffffffffffffffffffffff16815260200190815260200160002060006101000a81548160ff02191690831515021790555084600460003373ffffffffffffffffffffffffffffffffffffffff1673ffffffffffffffffffffffffffffffffffffffff16815260200190815260200160002060008873ffffffffffffffffffffffffffffffffffffffff1673ffffffffffffffffffffffffffffffffffffffff1681526020019081526020016000206000828254610857919061211d565b925050819055506108ad600160009054906101000a900473ffffffffffffffffffffffffffffffffffffffff1633878973ffffffffffffffffffffffffffffffffffffffff1661142f909392919063ffffffff16565b8573ffffffffffffffffffffffffffffffffffffffff163373ffffffffffffffffffffffffffffffffffffffff16887fce3bcb6e219596cf26007ffdfaae8953bc3f76e3f36c0a79b23e28020da3222e8860405161090b9190611bf0565b60405180910390a450505050505050565b610925826104d9565b61092e816114b1565b61093883836114c5565b50505050565b6109466115b6565b73ffffffffffffffffffffffffffffffffffffffff168173ffffffffffffffffffffffffffffffffffffffff16146109aa576040517f6697b23200000000000000000000000000000000000000000000000000000000815260040160405180910390fd5b6109b482826115be565b505050565b6004602052816000526040600020602052806000526040600020600091509150505481565b600160009054906101000a900473ffffffffffffffffffffffffffffffffffffffff1681565b838390508787905014610a4c576040517f08c379a0000000000000000000000000000000000000000000000000000000008152600401610a439061219d565b60405180910390fd5b818190508787905014610a94576040517f08c379a0000000000000000000000000000000000000000000000000000000008152600401610a8b9061219d565b60405180910390fd5b6000805b88889050811015610dc8576000898983818110610ab857610ab76121bd565b5b9050602002013590506000878784818110610ad657610ad56121bd565b5b9050602002013590506003600083815260200190815260200160002060008a73ffffffffffffffffffffffffffffffffffffffff1673ffffffffffffffffffffffffffffffffffffffff16815260200190815260200160002060003373ffffffffffffffffffffffffffffffffffffffff1673ffffffffffffffffffffffffffffffffffffffff16815260200190815260200160002060009054906101000a900460ff1615610b86575050610db5565b60006002600084815260200190815260200160002060008b73ffffffffffffffffffffffffffffffffffffffff1673ffffffffffffffffffffffffffffffffffffffff1681526020019081526020016000205490506000801b8103610bed57505050610db5565b60003383604051602001610c02929190612056565b604051602081830303815290604052805190602001209050610c89888887818110610c3057610c2f6121bd565b5b9050602002810190610c4291906121fb565b80806020026020016040519081016040528093929190818152602001838360200280828437600081840152601f19601f820116905080830192505050505050508383611418565b610c965750505050610db5565b60016003600086815260200190815260200160002060008d73ffffffffffffffffffffffffffffffffffffffff1673ffffffffffffffffffffffffffffffffffffffff16815260200190815260200160002060003373ffffffffffffffffffffffffffffffffffffffff1673ffffffffffffffffffffffffffffffffffffffff16815260200190815260200160002060006101000a81548160ff0219169083151502179055508286610d48919061211d565b95508a73ffffffffffffffffffffffffffffffffffffffff163373ffffffffffffffffffffffffffffffffffffffff16857fce3bcb6e219596cf26007ffdfaae8953bc3f76e3f36c0a79b23e28020da3222e86604051610da89190611bf0565b60405180910390a4505050505b8080610dc09061225e565b915050610a98565b506000811115610eb55780600460003373ffffffffffffffffffffffffffffffffffffffff1673ffffffffffffffffffffffffffffffffffffffff16815260200190815260200160002060008873ffffffffffffffffffffffffffffffffffffffff1673ffffffffffffffffffffffffffffffffffffffff1681526020019081526020016000206000828254610e5e919061211d565b92505081905550610eb4600160009054906101000a900473ffffffffffffffffffffffffffffffffffffffff1633838973ffffffffffffffffffffffffffffffffffffffff1661142f909392919063ffffffff16565b5b5050505050505050565b600080600084815260200190815260200160002060000160008373ffffffffffffffffffffffffffffffffffffffff1673ffffffffffffffffffffffffffffffffffffffff16815260200190815260200160002060009054906101000a900460ff16905092915050565b7f97667070c54ef182b0f5858b034beac1b6f3089aa2d3188bb1e8929f4fa9b929610f53816114b1565b6000801b8203610f98576040517f08c379a0000000000000000000000000000000000000000000000000000000008152600401610f8f906122f2565b60405180910390fd5b816002600086815260200190815260200160002060008573ffffffffffffffffffffffffffffffffffffffff1673ffffffffffffffffffffffffffffffffffffffff168152602001908152602001600020819055508273ffffffffffffffffffffffffffffffffffffffff16847f25f67e2127b895637dfb4b4966e9a41c7e4e9f2033eb9188e609186ff895a771846040516110349190611a59565b60405180910390a350505050565b6000801b81565b60006003600088815260200190815260200160002060008773ffffffffffffffffffffffffffffffffffffffff1673ffffffffffffffffffffffffffffffffffffffff16815260200190815260200160002060008673ffffffffffffffffffffffffffffffffffffffff1673ffffffffffffffffffffffffffffffffffffffff16815260200190815260200160002060009054906101000a900460ff16156110f457600090506111db565b60006002600089815260200190815260200160002060008873ffffffffffffffffffffffffffffffffffffffff1673ffffffffffffffffffffffffffffffffffffffff1681526020019081526020016000205490506000801b810361115d5760009150506111db565b60008686604051602001611172929190612056565b6040516020818303038152906040528051906020012090506111d6858580806020026020016040519081016040528093929190818152602001838360200280828437600081840152601f19601f820116905080830192505050505050508383611418565b925050505b9695505050505050565b6002602052816000526040600020602052806000526040600020600091509150505481565b611213826104d9565b61121c816114b1565b61122683836115be565b50505050565b6003602052826000526040600020602052816000526040600020602052806000526040600020600092509250509054906101000a900460ff1681565b6000801b611275816114b1565b600073ffffffffffffffffffffffffffffffffffffffff168273ffffffffffffffffffffffffffffffffffffffff16036112e4576040517f08c379a00000000000000000000000000000000000000000000000000000000081526004016112db9061235e565b60405180910390fd5b6000600160009054906101000a900473ffffffffffffffffffffffffffffffffffffffff16905082600160006101000a81548173ffffffffffffffffffffffffffffffffffffffff021916908373ffffffffffffffffffffffffffffffffffffffff1602179055507f4ab5be82436d353e61ca18726e984e561f5c1cc7c6d38b29d2553c790434705a818460405161137d92919061237e565b60405180910390a1505050565b7f97667070c54ef182b0f5858b034beac1b6f3089aa2d3188bb1e8929f4fa9b92981565b60007f01ffc9a7000000000000000000000000000000000000000000000000000000007bffffffffffffffffffffffffffffffffffffffffffffffffffffffff1916827bffffffffffffffffffffffffffffffffffffffffffffffffffffffff1916149050919050565b60008261142585846116b0565b1490509392505050565b6114ab848573ffffffffffffffffffffffffffffffffffffffff166323b872dd868686604051602401611464939291906123a7565b604051602081830303815290604052915060e01b6020820180517bffffffffffffffffffffffffffffffffffffffffffffffffffffffff8381831617835250505050611706565b50505050565b6114c2816114bd6115b6565b6117a8565b50565b60006114d18383610ebf565b6115ab57600160008085815260200190815260200160002060000160008473ffffffffffffffffffffffffffffffffffffffff1673ffffffffffffffffffffffffffffffffffffffff16815260200190815260200160002060006101000a81548160ff0219169083151502179055506115486115b6565b73ffffffffffffffffffffffffffffffffffffffff168273ffffffffffffffffffffffffffffffffffffffff16847f2f8788117e7eff1d82e926ec794901d17c78024a50270940304540a733656f0d60405160405180910390a4600190506115b0565b600090505b92915050565b600033905090565b60006115ca8383610ebf565b156116a557600080600085815260200190815260200160002060000160008473ffffffffffffffffffffffffffffffffffffffff1673ffffffffffffffffffffffffffffffffffffffff16815260200190815260200160002060006101000a81548160ff0219169083151502179055506116426115b6565b73ffffffffffffffffffffffffffffffffffffffff168273ffffffffffffffffffffffffffffffffffffffff16847ff6391f5c32d9c69d2a47ea670b442974b53935d1edc7fd64eb21e047a839171b60405160405180910390a4600190506116aa565b600090505b92915050565b60008082905060005b84518110156116fb576116e6828683815181106116d9576116d86121bd565b5b60200260200101516117f9565b915080806116f39061225e565b9150506116b9565b508091505092915050565b600080602060008451602086016000885af180611729576040513d6000823e3d81fd5b3d925060005191505060008214611744576001811415611760565b60008473ffffffffffffffffffffffffffffffffffffffff163b145b156117a257836040517f5274afe70000000000000000000000000000000000000000000000000000000081526004016117999190611c1a565b60405180910390fd5b50505050565b6117b28282610ebf565b6117f55780826040517fe2517d3f0000000000000000000000000000000000000000000000000000000081526004016117ec9291906123de565b60405180910390fd5b5050565b60008183106118115761180c8284611824565b61181c565b61181b8383611824565b5b905092915050565b600082600052816020526040600020905092915050565b600080fd5b600080fd5b60007fffffffff0000000000000000000000000000000000000000000000000000000082169050919050565b61187a81611845565b811461188557600080fd5b50565b60008135905061189781611871565b92915050565b6000602082840312156118b3576118b261183b565b5b60006118c184828501611888565b91505092915050565b60008115159050919050565b6118df816118ca565b82525050565b60006020820190506118fa60008301846118d6565b92915050565b6000819050919050565b61191381611900565b811461191e57600080fd5b50565b6000813590506119308161190a565b92915050565b600073ffffffffffffffffffffffffffffffffffffffff82169050919050565b600061196182611936565b9050919050565b61197181611956565b811461197c57600080fd5b50565b60008135905061198e81611968565b92915050565b6000806000606084860312156119ad576119ac61183b565b5b60006119bb86828701611921565b93505060206119cc8682870161197f565b92505060406119dd8682870161197f565b9150509250925092565b6000819050919050565b6119fa816119e7565b8114611a0557600080fd5b50565b600081359050611a17816119f1565b92915050565b600060208284031215611a3357611a3261183b565b5b6000611a4184828501611a08565b91505092915050565b611a53816119e7565b82525050565b6000602082019050611a6e6000830184611a4a565b92915050565b600080fd5b600080fd5b600080fd5b60008083601f840112611a9957611a98611a74565b5b8235905067ffffffffffffffff811115611ab657611ab5611a79565b5b602083019150836020820283011115611ad257611ad1611a7e565b5b9250929050565b600080600080600060808688031215611af557611af461183b565b5b6000611b0388828901611921565b9550506020611b148882890161197f565b9450506040611b2588828901611921565b935050606086013567ffffffffffffffff811115611b4657611b45611840565b5b611b5288828901611a83565b92509250509295509295909350565b60008060408385031215611b7857611b7761183b565b5b6000611b8685828601611a08565b9250506020611b978582860161197f565b9150509250929050565b60008060408385031215611bb857611bb761183b565b5b6000611bc68582860161197f565b9250506020611bd78582860161197f565b9150509250929050565b611bea81611900565b82525050565b6000602082019050611c056000830184611be1565b92915050565b611c1481611956565b82525050565b6000602082019050611c2f6000830184611c0b565b92915050565b60008083601f840112611c4b57611c4a611a74565b5b8235905067ffffffffffffffff811115611c6857611c67611a79565b5b602083019150836020820283011115611c8457611c83611a7e565b5b9250929050565b60008083601f840112611ca157611ca0611a74565b5b8235905067ffffffffffffffff811115611cbe57611cbd611a79565b5b602083019150836020820283011115611cda57611cd9611a7e565b5b9250929050565b60008060008060008060006080888a031215611d0057611cff61183b565b5b600088013567ffffffffffffffff811115611d1e57611d1d611840565b5b611d2a8a828b01611c35565b97509750506020611d3d8a828b0161197f565b955050604088013567ffffffffffffffff811115611d5e57611d5d611840565b5b611d6a8a828b01611c35565b9450945050606088013567ffffffffffffffff811115611d8d57611d8c611840565b5b611d998a828b01611c8b565b925092505092959891949750929550565b600080600060608486031215611dc357611dc261183b565b5b6000611dd186828701611921565b9350506020611de28682870161197f565b9250506040611df386828701611a08565b9150509250925092565b60008060008060008060a08789031215611e1a57611e1961183b565b5b6000611e2889828a01611921565b9650506020611e3989828a0161197f565b9550506040611e4a89828a0161197f565b9450506060611e5b89828a01611921565b935050608087013567ffffffffffffffff811115611e7c57611e7b611840565b5b611e8889828a01611a83565b92509250509295509295509295565b60008060408385031215611eae57611ead61183b565b5b6000611ebc85828601611921565b9250506020611ecd8582860161197f565b9150509250929050565b600060208284031215611eed57611eec61183b565b5b6000611efb8482850161197f565b91505092915050565b600082825260208201905092915050565b7f416c726561647920636c61696d65640000000000000000000000000000000000600082015250565b6000611f4b600f83611f04565b9150611f5682611f15565b602082019050919050565b60006020820190508181036000830152611f7a81611f3e565b9050919050565b7f4d65726b6c6520726f6f74206e6f742073657400000000000000000000000000600082015250565b6000611fb7601383611f04565b9150611fc282611f81565b602082019050919050565b60006020820190508181036000830152611fe681611faa565b9050919050565b60008160601b9050919050565b600061200582611fed565b9050919050565b600061201782611ffa565b9050919050565b61202f61202a82611956565b61200c565b82525050565b6000819050919050565b61205061204b82611900565b612035565b82525050565b6000612062828561201e565b601482019150612072828461203f565b6020820191508190509392505050565b7f496e76616c69642070726f6f6600000000000000000000000000000000000000600082015250565b60006120b8600d83611f04565b91506120c382612082565b602082019050919050565b600060208201905081810360008301526120e7816120ab565b9050919050565b7f4e487b7100000000000000000000000000000000000000000000000000000000600052601160045260246000fd5b600061212882611900565b915061213383611900565b925082820190508082111561214b5761214a6120ee565b5b92915050565b7f4c656e677468206d69736d617463680000000000000000000000000000000000600082015250565b6000612187600f83611f04565b915061219282612151565b602082019050919050565b600060208201905081810360008301526121b68161217a565b9050919050565b7f4e487b7100000000000000000000000000000000000000000000000000000000600052603260045260246000fd5b600080fd5b600080fd5b600080fd5b60008083356001602003843603038112612218576122176121ec565b5b80840192508235915067ffffffffffffffff82111561223a576122396121f1565b5b602083019250602082023603831315612256576122556121f6565b5b509250929050565b600061226982611900565b91507fffffffffffffffffffffffffffffffffffffffffffffffffffffffffffffffff820361229b5761229a6120ee565b5b600182019050919050565b7f496e76616c6964206d65726b6c6520726f6f7400000000000000000000000000600082015250565b60006122dc601383611f04565b91506122e7826122a6565b602082019050919050565b6000602082019050818103600083015261230b816122cf565b9050919050565b7f496e76616c696420747265617375727900000000000000000000000000000000600082015250565b6000612348601083611f04565b915061235382612312565b602082019050919050565b600060208201905081810360008301526123778161233b565b9050919050565b60006040820190506123936000830185611c0b565b6123a06020830184611c0b565b9392505050565b60006060820190506123bc6000830186611c0b565b6123c96020830185611c0b565b6123d66040830184611be1565b949350505050565b60006040820190506123f36000830185611c0b565b6124006020830184611a4a565b939250505056fea26469706673582212209d81cfd05b0bb13876937d918a2dd89997cd5b5b8823c0fceb123fe5367ee41b64736f6c63430008140033","opcodes":"PUSH1 0x80 PUSH1 0x40 MSTORE CALLVALUE DUP1 ISZERO PUSH3 0x11 JUMPI PUSH1 0x0 DUP1 REVERT JUMPDEST POP PUSH1 0x40 MLOAD PUSH3 0x2831 CODESIZE SUB DUP1 PUSH3 0x2831 DUP4 CODECOPY DUP2 DUP2 ADD PUSH1 0x40 MSTORE DUP2 ADD SWAP1 PUSH3 0x37 SWAP2 SWAP1 PUSH3 0x31A JUMP JUMPDEST PUSH1 0x0 PUSH20 0xFFFFFFFFFFFFFFFFFFFFFFFFFFFFFFFFFFFFFFFF AND DUP2 PUSH20 0xFFFFFFFFFFFFFFFFFFFFFFFFFFFFFFFFFFFFFFFF AND SUB PUSH3 0xA9 JUMPI PUSH1 0x40 MLOAD PUSH32 0x8C379A000000000000000000000000000000000000000000000000000000000 DUP2 MSTORE PUSH1 0x4 ADD PUSH3 0xA0 SWAP1 PUSH3 0x3C2 JUMP JUMPDEST PUSH1 0x40 MLOAD DUP1 SWAP2 SUB SWAP1 REVERT JUMPDEST PUSH3 0xBE PUSH1 0x0 DUP1 SHL DUP4 PUSH3 0x13B PUSH1 0x20 SHL PUSH1 0x20 SHR JUMP JUMPDEST POP PUSH3 0xF1 PUSH32 0x97667070C54EF182B0F5858B034BEAC1B6F3089AA2D3188BB1E8929F4FA9B929 DUP4 PUSH3 0x13B PUSH1 0x20 SHL PUSH1 0x20 SHR JUMP JUMPDEST POP DUP1 PUSH1 0x1 PUSH1 0x0 PUSH2 0x100 EXP DUP2 SLOAD DUP2 PUSH20 0xFFFFFFFFFFFFFFFFFFFFFFFFFFFFFFFFFFFFFFFF MUL NOT AND SWAP1 DUP4 PUSH20 0xFFFFFFFFFFFFFFFFFFFFFFFFFFFFFFFFFFFFFFFF AND MUL OR SWAP1 SSTORE POP POP POP PUSH3 0x3E4 JUMP JUMPDEST PUSH1 0x0 PUSH3 0x14F DUP4 DUP4 PUSH3 0x23E PUSH1 0x20 SHL PUSH1 0x20 SHR JUMP JUMPDEST PUSH3 0x233 JUMPI PUSH1 0x1 PUSH1 0x0 DUP1 DUP6 DUP2 MSTORE PUSH1 0x20 ADD SWAP1 DUP2 MSTORE PUSH1 0x20 ADD PUSH1 0x0 KECCAK256 PUSH1 0x0 ADD PUSH1 0x0 DUP5 PUSH20 0xFFFFFFFFFFFFFFFFFFFFFFFFFFFFFFFFFFFFFFFF AND PUSH20 0xFFFFFFFFFFFFFFFFFFFFFFFFFFFFFFFFFFFFFFFF AND DUP2 MSTORE PUSH1 0x20 ADD SWAP1 DUP2 MSTORE PUSH1 0x20 ADD PUSH1 0x0 KECCAK256 PUSH1 0x0 PUSH2 0x100 EXP DUP2 SLOAD DUP2 PUSH1 0xFF MUL NOT AND SWAP1 DUP4 ISZERO ISZERO MUL OR SWAP1 SSTORE POP PUSH3 0x1CF PUSH3 0x2A8 PUSH1 0x20 SHL PUSH1 0x20 SHR JUMP JUMPDEST PUSH20 0xFFFFFFFFFFFFFFFFFFFFFFFFFFFFFFFFFFFFFFFF AND DUP3 PUSH20 0xFFFFFFFFFFFFFFFFFFFFFFFFFFFFFFFFFFFFFFFF AND DUP5 PUSH32 0x2F8788117E7EFF1D82E926EC794901D17C78024A50270940304540A733656F0D PUSH1 0x40 MLOAD PUSH1 0x40 MLOAD DUP1 SWAP2 SUB SWAP1 LOG4 PUSH1 0x1 SWAP1 POP PUSH3 0x238 JUMP JUMPDEST PUSH1 0x0 SWAP1 POP JUMPDEST SWAP3 SWAP2 POP POP JUMP JUMPDEST PUSH1 0x0 DUP1 PUSH1 0x0 DUP5 DUP2 MSTORE PUSH1 0x20 ADD SWAP1 DUP2 MSTORE PUSH1 0x20 ADD PUSH1 0x0 KECCAK256 PUSH1 0x0 ADD PUSH1 0x0 DUP4 PUSH20 0xFFFFFFFFFFFFFFFFFFFFFFFFFFFFFFFFFFFFFFFF AND PUSH20 0xFFFFFFFFFFFFFFFFFFFFFFFFFFFFFFFFFFFFFFFF AND DUP2 MSTORE PUSH1 0x20 ADD SWAP1 DUP2 MSTORE PUSH1 0x20 ADD PUSH1 0x0 KECCAK256 PUSH1 0x0 SWAP1 SLOAD SWAP1 PUSH2 0x100 EXP SWAP1 DIV PUSH1 0xFF AND SWAP1 POP SWAP3 SWAP2 POP POP JUMP JUMPDEST PUSH1 0x0 CALLER SWAP1 POP SWAP1 JUMP JUMPDEST PUSH1 0x0 DUP1 REVERT JUMPDEST PUSH1 0x0 PUSH20 0xFFFFFFFFFFFFFFFFFFFFFFFFFFFFFFFFFFFFFFFF DUP3 AND SWAP1 POP SWAP2 SWAP1 POP JUMP JUMPDEST PUSH1 0x0 PUSH3 0x2E2 DUP3 PUSH3 0x2B5 JUMP JUMPDEST SWAP1 POP SWAP2 SWAP1 POP JUMP JUMPDEST PUSH3 0x2F4 DUP2 PUSH3 0x2D5 JUMP JUMPDEST DUP2 EQ PUSH3 0x300 JUMPI PUSH1 0x0 DUP1 REVERT JUMPDEST POP JUMP JUMPDEST PUSH1 0x0 DUP2 MLOAD SWAP1 POP PUSH3 0x314 DUP2 PUSH3 0x2E9 JUMP JUMPDEST SWAP3 SWAP2 POP POP JUMP JUMPDEST PUSH1 0x0 DUP1 PUSH1 0x40 DUP4 DUP6 SUB SLT ISZERO PUSH3 0x334 JUMPI PUSH3 0x333 PUSH3 0x2B0 JUMP JUMPDEST JUMPDEST PUSH1 0x0 PUSH3 0x344 DUP6 DUP3 DUP7 ADD PUSH3 0x303 JUMP JUMPDEST SWAP3 POP POP PUSH1 0x20 PUSH3 0x357 DUP6 DUP3 DUP7 ADD PUSH3 0x303 JUMP JUMPDEST SWAP2 POP POP SWAP3 POP SWAP3 SWAP1 POP JUMP JUMPDEST PUSH1 0x0 DUP3 DUP3 MSTORE PUSH1 0x20 DUP3 ADD SWAP1 POP SWAP3 SWAP2 POP POP JUMP JUMPDEST PUSH32 0x496E76616C696420747265617375727900000000000000000000000000000000 PUSH1 0x0 DUP3 ADD MSTORE POP JUMP JUMPDEST PUSH1 0x0 PUSH3 0x3AA PUSH1 0x10 DUP4 PUSH3 0x361 JUMP JUMPDEST SWAP2 POP PUSH3 0x3B7 DUP3 PUSH3 0x372 JUMP JUMPDEST PUSH1 0x20 DUP3 ADD SWAP1 POP SWAP2 SWAP1 POP JUMP JUMPDEST PUSH1 0x0 PUSH1 0x20 DUP3 ADD SWAP1 POP DUP2 DUP2 SUB PUSH1 0x0 DUP4 ADD MSTORE PUSH3 0x3DD DUP2 PUSH3 0x39B JUMP JUMPDEST SWAP1 POP SWAP2 SWAP1 POP JUMP JUMPDEST PUSH2 0x243D DUP1 PUSH3 0x3F4 PUSH1 0x0 CODECOPY PUSH1 0x0 RETURN INVALID PUSH1 0x80 PUSH1 0x40 MSTORE CALLVALUE DUP1 ISZERO PUSH2 0x10 JUMPI PUSH1 0x0 DUP1 REVERT JUMPDEST POP PUSH1 0x4 CALLDATASIZE LT PUSH2 0x116 JUMPI PUSH1 0x0 CALLDATALOAD PUSH1 0xE0 SHR DUP1 PUSH4 0x91D14854 GT PUSH2 0xA2 JUMPI DUP1 PUSH4 0xCCF56631 GT PUSH2 0x71 JUMPI DUP1 PUSH4 0xCCF56631 EQ PUSH2 0x303 JUMPI DUP1 PUSH4 0xD547741F EQ PUSH2 0x333 JUMPI DUP1 PUSH4 0xEB18EB66 EQ PUSH2 0x34F JUMPI DUP1 PUSH4 0xF0F44260 EQ PUSH2 0x37F JUMPI DUP1 PUSH4 0xF5B541A6 EQ PUSH2 0x39B JUMPI PUSH2 0x116 JUMP JUMPDEST DUP1 PUSH4 0x91D14854 EQ PUSH2 0x269 JUMPI DUP1 PUSH4 0x9461DCF1 EQ PUSH2 0x299 JUMPI DUP1 PUSH4 0xA217FDDF EQ PUSH2 0x2B5 JUMPI DUP1 PUSH4 0xADDC0811 EQ PUSH2 0x2D3 JUMPI PUSH2 0x116 JUMP JUMPDEST DUP1 PUSH4 0x2F2FF15D GT PUSH2 0xE9 JUMPI DUP1 PUSH4 0x2F2FF15D EQ PUSH2 0x1C7 JUMPI DUP1 PUSH4 0x36568ABE EQ PUSH2 0x1E3 JUMPI DUP1 PUSH4 0x594065D0 EQ PUSH2 0x1FF JUMPI DUP1 PUSH4 0x61D027B3 EQ PUSH2 0x22F JUMPI DUP1 PUSH4 0x7E813752 EQ PUSH2 0x24D JUMPI PUSH2 0x116 JUMP JUMPDEST DUP1 PUSH4 0x1FFC9A7 EQ PUSH2 0x11B JUMPI DUP1 PUSH4 0xD0FFA0A EQ PUSH2 0x14B JUMPI DUP1 PUSH4 0x248A9CA3 EQ PUSH2 0x17B JUMPI DUP1 PUSH4 0x2E7BA6EF EQ PUSH2 0x1AB JUMPI JUMPDEST PUSH1 0x0 DUP1 REVERT JUMPDEST PUSH2 0x135 PUSH1 0x4 DUP1 CALLDATASIZE SUB DUP2 ADD SWAP1 PUSH2 0x130 SWAP2 SWAP1 PUSH2 0x189D JUMP JUMPDEST PUSH2 0x3B9 JUMP JUMPDEST PUSH1 0x40 MLOAD PUSH2 0x142 SWAP2 SWAP1 PUSH2 0x18E5 JUMP JUMPDEST PUSH1 0x40 MLOAD DUP1 SWAP2 SUB SWAP1 RETURN JUMPDEST PUSH2 0x165 PUSH1 0x4 DUP1 CALLDATASIZE SUB DUP2 ADD SWAP1 PUSH2 0x160 SWAP2 SWAP1 PUSH2 0x1994 JUMP JUMPDEST PUSH2 0x433 JUMP JUMPDEST PUSH1 0x40 MLOAD PUSH2 0x172 SWAP2 SWAP1 PUSH2 0x18E5 JUMP JUMPDEST PUSH1 0x40 MLOAD DUP1 SWAP2 SUB SWAP1 RETURN JUMPDEST PUSH2 0x195 PUSH1 0x4 DUP1 CALLDATASIZE SUB DUP2 ADD SWAP1 PUSH2 0x190 SWAP2 SWAP1 PUSH2 0x1A1D JUMP JUMPDEST PUSH2 0x4D9 JUMP JUMPDEST PUSH1 0x40 MLOAD PUSH2 0x1A2 SWAP2 SWAP1 PUSH2 0x1A59 JUMP JUMPDEST PUSH1 0x40 MLOAD DUP1 SWAP2 SUB SWAP1 RETURN JUMPDEST PUSH2 0x1C5 PUSH1 0x4 DUP1 CALLDATASIZE SUB DUP2 ADD SWAP1 PUSH2 0x1C0 SWAP2 SWAP1 PUSH2 0x1AD9 JUMP JUMPDEST PUSH2 0x4F8 JUMP JUMPDEST STOP JUMPDEST PUSH2 0x1E1 PUSH1 0x4 DUP1 CALLDATASIZE SUB DUP2 ADD SWAP1 PUSH2 0x1DC SWAP2 SWAP1 PUSH2 0x1B61 JUMP JUMPDEST PUSH2 0x91C JUMP JUMPDEST STOP JUMPDEST PUSH2 0x1FD PUSH1 0x4 DUP1 CALLDATASIZE SUB DUP2 ADD SWAP1 PUSH2 0x1F8 SWAP2 SWAP1 PUSH2 0x1B61 JUMP JUMPDEST PUSH2 0x93E JUMP JUMPDEST STOP JUMPDEST PUSH2 0x219 PUSH1 0x4 DUP1 CALLDATASIZE SUB DUP2 ADD SWAP1 PUSH2 0x214 SWAP2 SWAP1 PUSH2 0x1BA1 JUMP JUMPDEST PUSH2 0x9B9 JUMP JUMPDEST PUSH1 0x40 MLOAD PUSH2 0x226 SWAP2 SWAP1 PUSH2 0x1BF0 JUMP JUMPDEST PUSH1 0x40 MLOAD DUP1 SWAP2 SUB SWAP1 RETURN JUMPDEST PUSH2 0x237 PUSH2 0x9DE JUMP JUMPDEST PUSH1 0x40 MLOAD PUSH2 0x244 SWAP2 SWAP1 PUSH2 0x1C1A JUMP JUMPDEST PUSH1 0x40 MLOAD DUP1 SWAP2 SUB SWAP1 RETURN JUMPDEST PUSH2 0x267 PUSH1 0x4 DUP1 CALLDATASIZE SUB DUP2 ADD SWAP1 PUSH2 0x262 SWAP2 SWAP1 PUSH2 0x1CE1 JUMP JUMPDEST PUSH2 0xA04 JUMP JUMPDEST STOP JUMPDEST PUSH2 0x283 PUSH1 0x4 DUP1 CALLDATASIZE SUB DUP2 ADD SWAP1 PUSH2 0x27E SWAP2 SWAP1 PUSH2 0x1B61 JUMP JUMPDEST PUSH2 0xEBF JUMP JUMPDEST PUSH1 0x40 MLOAD PUSH2 0x290 SWAP2 SWAP1 PUSH2 0x18E5 JUMP JUMPDEST PUSH1 0x40 MLOAD DUP1 SWAP2 SUB SWAP1 RETURN JUMPDEST PUSH2 0x2B3 PUSH1 0x4 DUP1 CALLDATASIZE SUB DUP2 ADD SWAP1 PUSH2 0x2AE SWAP2 SWAP1 PUSH2 0x1DAA JUMP JUMPDEST PUSH2 0xF29 JUMP JUMPDEST STOP JUMPDEST PUSH2 0x2BD PUSH2 0x1042 JUMP JUMPDEST PUSH1 0x40 MLOAD PUSH2 0x2CA SWAP2 SWAP1 PUSH2 0x1A59 JUMP JUMPDEST PUSH1 0x40 MLOAD DUP1 SWAP2 SUB SWAP1 RETURN JUMPDEST PUSH2 0x2ED PUSH1 0x4 DUP1 CALLDATASIZE SUB DUP2 ADD SWAP1 PUSH2 0x2E8 SWAP2 SWAP1 PUSH2 0x1DFD JUMP JUMPDEST PUSH2 0x1049 JUMP JUMPDEST PUSH1 0x40 MLOAD PUSH2 0x2FA SWAP2 SWAP1 PUSH2 0x18E5 JUMP JUMPDEST PUSH1 0x40 MLOAD DUP1 SWAP2 SUB SWAP1 RETURN JUMPDEST PUSH2 0x31D PUSH1 0x4 DUP1 CALLDATASIZE SUB DUP2 ADD SWAP1 PUSH2 0x318 SWAP2 SWAP1 PUSH2 0x1E97 JUMP JUMPDEST PUSH2 0x11E5 JUMP JUMPDEST PUSH1 0x40 MLOAD PUSH2 0x32A SWAP2 SWAP1 PUSH2 0x1A59 JUMP JUMPDEST PUSH1 0x40 MLOAD DUP1 SWAP2 SUB SWAP1 RETURN JUMPDEST PUSH2 0x34D PUSH1 0x4 DUP1 CALLDATASIZE SUB DUP2 ADD SWAP1 PUSH2 0x348 SWAP2 SWAP1 PUSH2 0x1B61 JUMP JUMPDEST PUSH2 0x120A JUMP JUMPDEST STOP JUMPDEST PUSH2 0x369 PUSH1 0x4 DUP1 CALLDATASIZE SUB DUP2 ADD SWAP1 PUSH2 0x364 SWAP2 SWAP1 PUSH2 0x1994 JUMP JUMPDEST PUSH2 0x122C JUMP JUMPDEST PUSH1 0x40 MLOAD PUSH2 0x376 SWAP2 SWAP1 PUSH2 0x18E5 JUMP JUMPDEST PUSH1 0x40 MLOAD DUP1 SWAP2 SUB SWAP1 RETURN JUMPDEST PUSH2 0x399 PUSH1 0x4 DUP1 CALLDATASIZE SUB DUP2 ADD SWAP1 PUSH2 0x394 SWAP2 SWAP1 PUSH2 0x1ED7 JUMP JUMPDEST PUSH2 0x1268 JUMP JUMPDEST STOP JUMPDEST PUSH2 0x3A3 PUSH2 0x138A JUMP JUMPDEST PUSH1 0x40 MLOAD PUSH2 0x3B0 SWAP2 SWAP1 PUSH2 0x1A59 JUMP JUMPDEST PUSH1 0x40 MLOAD DUP1 SWAP2 SUB SWAP1 RETURN JUMPDEST PUSH1 0x0 PUSH32 0x7965DB0B00000000000000000000000000000000000000000000000000000000 PUSH28 0xFFFFFFFFFFFFFFFFFFFFFFFFFFFFFFFFFFFFFFFFFFFFFFFFFFFFFFFF NOT AND DUP3 PUSH28 0xFFFFFFFFFFFFFFFFFFFFFFFFFFFFFFFFFFFFFFFFFFFFFFFFFFFFFFFF NOT AND EQ DUP1 PUSH2 0x42C JUMPI POP PUSH2 0x42B DUP3 PUSH2 0x13AE JUMP JUMPDEST JUMPDEST SWAP1 POP SWAP2 SWAP1 POP JUMP JUMPDEST PUSH1 0x0 PUSH1 0x3 PUSH1 0x0 DUP6 DUP2 MSTORE PUSH1 0x20 ADD SWAP1 DUP2 MSTORE PUSH1 0x20 ADD PUSH1 0x0 KECCAK256 PUSH1 0x0 DUP5 PUSH20 0xFFFFFFFFFFFFFFFFFFFFFFFFFFFFFFFFFFFFFFFF AND PUSH20 0xFFFFFFFFFFFFFFFFFFFFFFFFFFFFFFFFFFFFFFFF AND DUP2 MSTORE PUSH1 0x20 ADD SWAP1 DUP2 MSTORE PUSH1 0x20 ADD PUSH1 0x0 KECCAK256 PUSH1 0x0 DUP4 PUSH20 0xFFFFFFFFFFFFFFFFFFFFFFFFFFFFFFFFFFFFFFFF AND PUSH20 0xFFFFFFFFFFFFFFFFFFFFFFFFFFFFFFFFFFFFFFFF AND DUP2 MSTORE PUSH1 0x20 ADD SWAP1 DUP2 MSTORE PUSH1 0x20 ADD PUSH1 0x0 KECCAK256 PUSH1 0x0 SWAP1 SLOAD SWAP1 PUSH2 0x100 EXP SWAP1 DIV PUSH1 0xFF AND SWAP1 POP SWAP4 SWAP3 POP POP POP JUMP JUMPDEST PUSH1 0x0 DUP1 PUSH1 0x0 DUP4 DUP2 MSTORE PUSH1 0x20 ADD SWAP1 DUP2 MSTORE PUSH1 0x20 ADD PUSH1 0x0 KECCAK256 PUSH1 0x1 ADD SLOAD SWAP1 POP SWAP2 SWAP1 POP JUMP JUMPDEST PUSH1 0x3 PUSH1 0x0 DUP7 DUP2 MSTORE PUSH1 0x20 ADD SWAP1 DUP2 MSTORE PUSH1 0x20 ADD PUSH1 0x0 KECCAK256 PUSH1 0x0 DUP6 PUSH20 0xFFFFFFFFFFFFFFFFFFFFFFFFFFFFFFFFFFFFFFFF AND PUSH20 0xFFFFFFFFFFFFFFFFFFFFFFFFFFFFFFFFFFFFFFFF AND DUP2 MSTORE PUSH1 0x20 ADD SWAP1 DUP2 MSTORE PUSH1 0x20 ADD PUSH1 0x0 KECCAK256 PUSH1 0x0 CALLER PUSH20 0xFFFFFFFFFFFFFFFFFFFFFFFFFFFFFFFFFFFFFFFF AND PUSH20 0xFFFFFFFFFFFFFFFFFFFFFFFFFFFFFFFFFFFFFFFF AND DUP2 MSTORE PUSH1 0x20 ADD SWAP1 DUP2 MSTORE PUSH1 0x20 ADD PUSH1 0x0 KECCAK256 PUSH1 0x0 SWAP1 SLOAD SWAP1 PUSH2 0x100 EXP SWAP1 DIV PUSH1 0xFF AND ISZERO PUSH2 0x5D3 JUMPI PUSH1 0x40 MLOAD PUSH32 0x8C379A000000000000000000000000000000000000000000000000000000000 DUP2 MSTORE PUSH1 0x4 ADD PUSH2 0x5CA SWAP1 PUSH2 0x1F61 JUMP JUMPDEST PUSH1 0x40 MLOAD DUP1 SWAP2 SUB SWAP1 REVERT JUMPDEST PUSH1 0x0 PUSH1 0x2 PUSH1 0x0 DUP8 DUP2 MSTORE PUSH1 0x20 ADD SWAP1 DUP2 MSTORE PUSH1 0x20 ADD PUSH1 0x0 KECCAK256 PUSH1 0x0 DUP7 PUSH20 0xFFFFFFFFFFFFFFFFFFFFFFFFFFFFFFFFFFFFFFFF AND PUSH20 0xFFFFFFFFFFFFFFFFFFFFFFFFFFFFFFFFFFFFFFFF AND DUP2 MSTORE PUSH1 0x20 ADD SWAP1 DUP2 MSTORE PUSH1 0x20 ADD PUSH1 0x0 KECCAK256 SLOAD SWAP1 POP PUSH1 0x0 DUP1 SHL DUP2 SUB PUSH2 0x66D JUMPI PUSH1 0x40 MLOAD PUSH32 0x8C379A000000000000000000000000000000000000000000000000000000000 DUP2 MSTORE PUSH1 0x4 ADD PUSH2 0x664 SWAP1 PUSH2 0x1FCD JUMP JUMPDEST PUSH1 0x40 MLOAD DUP1 SWAP2 SUB SWAP1 REVERT JUMPDEST PUSH1 0x0 CALLER DUP6 PUSH1 0x40 MLOAD PUSH1 0x20 ADD PUSH2 0x682 SWAP3 SWAP2 SWAP1 PUSH2 0x2056 JUMP JUMPDEST PUSH1 0x40 MLOAD PUSH1 0x20 DUP2 DUP4 SUB SUB DUP2 MSTORE SWAP1 PUSH1 0x40 MSTORE DUP1 MLOAD SWAP1 PUSH1 0x20 ADD KECCAK256 SWAP1 POP PUSH2 0x6E6 DUP5 DUP5 DUP1 DUP1 PUSH1 0x20 MUL PUSH1 0x20 ADD PUSH1 0x40 MLOAD SWAP1 DUP2 ADD PUSH1 0x40 MSTORE DUP1 SWAP4 SWAP3 SWAP2 SWAP1 DUP2 DUP2 MSTORE PUSH1 0x20 ADD DUP4 DUP4 PUSH1 0x20 MUL DUP1 DUP3 DUP5 CALLDATACOPY PUSH1 0x0 DUP2 DUP5 ADD MSTORE PUSH1 0x1F NOT PUSH1 0x1F DUP3 ADD AND SWAP1 POP DUP1 DUP4 ADD SWAP3 POP POP POP POP POP POP POP DUP4 DUP4 PUSH2 0x1418 JUMP JUMPDEST PUSH2 0x725 JUMPI PUSH1 0x40 MLOAD PUSH32 0x8C379A000000000000000000000000000000000000000000000000000000000 DUP2 MSTORE PUSH1 0x4 ADD PUSH2 0x71C SWAP1 PUSH2 0x20CE JUMP JUMPDEST PUSH1 0x40 MLOAD DUP1 SWAP2 SUB SWAP1 REVERT JUMPDEST PUSH1 0x1 PUSH1 0x3 PUSH1 0x0 DUP10 DUP2 MSTORE PUSH1 0x20 ADD SWAP1 DUP2 MSTORE PUSH1 0x20 ADD PUSH1 0x0 KECCAK256 PUSH1 0x0 DUP9 PUSH20 0xFFFFFFFFFFFFFFFFFFFFFFFFFFFFFFFFFFFFFFFF AND PUSH20 0xFFFFFFFFFFFFFFFFFFFFFFFFFFFFFFFFFFFFFFFF AND DUP2 MSTORE PUSH1 0x20 ADD SWAP1 DUP2 MSTORE PUSH1 0x20 ADD PUSH1 0x0 KECCAK256 PUSH1 0x0 CALLER PUSH20 0xFFFFFFFFFFFFFFFFFFFFFFFFFFFFFFFFFFFFFFFF AND PUSH20 0xFFFFFFFFFFFFFFFFFFFFFFFFFFFFFFFFFFFFFFFF AND DUP2 MSTORE PUSH1 0x20 ADD SWAP1 DUP2 MSTORE PUSH1 0x20 ADD PUSH1 0x0 KECCAK256 PUSH1 0x0 PUSH2 0x100 EXP DUP2 SLOAD DUP2 PUSH1 0xFF MUL NOT AND SWAP1 DUP4 ISZERO ISZERO MUL OR SWAP1 SSTORE POP DUP5 PUSH1 0x4 PUSH1 0x0 CALLER PUSH20 0xFFFFFFFFFFFFFFFFFFFFFFFFFFFFFFFFFFFFFFFF AND PUSH20 0xFFFFFFFFFFFFFFFFFFFFFFFFFFFFFFFFFFFFFFFF AND DUP2 MSTORE PUSH1 0x20 ADD SWAP1 DUP2 MSTORE PUSH1 0x20 ADD PUSH1 0x0 KECCAK256 PUSH1 0x0 DUP9 PUSH20 0xFFFFFFFFFFFFFFFFFFFFFFFFFFFFFFFFFFFFFFFF AND PUSH20 0xFFFFFFFFFFFFFFFFFFFFFFFFFFFFFFFFFFFFFFFF AND DUP2 MSTORE PUSH1 0x20 ADD SWAP1 DUP2 MSTORE PUSH1 0x20 ADD PUSH1 0x0 KECCAK256 PUSH1 0x0 DUP3 DUP3 SLOAD PUSH2 0x857 SWAP2 SWAP1 PUSH2 0x211D JUMP JUMPDEST SWAP3 POP POP DUP2 SWAP1 SSTORE POP PUSH2 0x8AD PUSH1 0x1 PUSH1 0x0 SWAP1 SLOAD SWAP1 PUSH2 0x100 EXP SWAP1 DIV PUSH20 0xFFFFFFFFFFFFFFFFFFFFFFFFFFFFFFFFFFFFFFFF AND CALLER DUP8 DUP10 PUSH20 0xFFFFFFFFFFFFFFFFFFFFFFFFFFFFFFFFFFFFFFFF AND PUSH2 0x142F SWAP1 SWAP4 SWAP3 SWAP2 SWAP1 PUSH4 0xFFFFFFFF AND JUMP JUMPDEST DUP6 PUSH20 0xFFFFFFFFFFFFFFFFFFFFFFFFFFFFFFFFFFFFFFFF AND CALLER PUSH20 0xFFFFFFFFFFFFFFFFFFFFFFFFFFFFFFFFFFFFFFFF AND DUP9 PUSH32 0xCE3BCB6E219596CF26007FFDFAAE8953BC3F76E3F36C0A79B23E28020DA3222E DUP9 PUSH1 0x40 MLOAD PUSH2 0x90B SWAP2 SWAP1 PUSH2 0x1BF0 JUMP JUMPDEST PUSH1 0x40 MLOAD DUP1 SWAP2 SUB SWAP1 LOG4 POP POP POP POP POP POP POP JUMP JUMPDEST PUSH2 0x925 DUP3 PUSH2 0x4D9 JUMP JUMPDEST PUSH2 0x92E DUP2 PUSH2 0x14B1 JUMP JUMPDEST PUSH2 0x938 DUP4 DUP4 PUSH2 0x14C5 JUMP JUMPDEST POP POP POP POP JUMP JUMPDEST PUSH2 0x946 PUSH2 0x15B6 JUMP JUMPDEST PUSH20 0xFFFFFFFFFFFFFFFFFFFFFFFFFFFFFFFFFFFFFFFF AND DUP2 PUSH20 0xFFFFFFFFFFFFFFFFFFFFFFFFFFFFFFFFFFFFFFFF AND EQ PUSH2 0x9AA JUMPI PUSH1 0x40 MLOAD PUSH32 0x6697B23200000000000000000000000000000000000000000000000000000000 DUP2 MSTORE PUSH1 0x4 ADD PUSH1 0x40 MLOAD DUP1 SWAP2 SUB SWAP1 REVERT JUMPDEST PUSH2 0x9B4 DUP3 DUP3 PUSH2 0x15BE JUMP JUMPDEST POP POP POP JUMP JUMPDEST PUSH1 0x4 PUSH1 0x20 MSTORE DUP2 PUSH1 0x0 MSTORE PUSH1 0x40 PUSH1 0x0 KECCAK256 PUSH1 0x20 MSTORE DUP1 PUSH1 0x0 MSTORE PUSH1 0x40 PUSH1 0x0 KECCAK256 PUSH1 0x0 SWAP2 POP SWAP2 POP POP SLOAD DUP2 JUMP JUMPDEST PUSH1 0x1 PUSH1 0x0 SWAP1 SLOAD SWAP1 PUSH2 0x100 EXP SWAP1 DIV PUSH20 0xFFFFFFFFFFFFFFFFFFFFFFFFFFFFFFFFFFFFFFFF AND DUP2 JUMP JUMPDEST DUP4 DUP4 SWAP1 POP DUP8 DUP8 SWAP1 POP EQ PUSH2 0xA4C JUMPI PUSH1 0x40 MLOAD PUSH32 0x8C379A000000000000000000000000000000000000000000000000000000000 DUP2 MSTORE PUSH1 0x4 ADD PUSH2 0xA43 SWAP1 PUSH2 0x219D JUMP JUMPDEST PUSH1 0x40 MLOAD DUP1 SWAP2 SUB SWAP1 REVERT JUMPDEST DUP2 DUP2 SWAP1 POP DUP8 DUP8 SWAP1 POP EQ PUSH2 0xA94 JUMPI PUSH1 0x40 MLOAD PUSH32 0x8C379A000000000000000000000000000000000000000000000000000000000 DUP2 MSTORE PUSH1 0x4 ADD PUSH2 0xA8B SWAP1 PUSH2 0x219D JUMP JUMPDEST PUSH1 0x40 MLOAD DUP1 SWAP2 SUB SWAP1 REVERT JUMPDEST PUSH1 0x0 DUP1 JUMPDEST DUP9 DUP9 SWAP1 POP DUP2 LT ISZERO PUSH2 0xDC8 JUMPI PUSH1 0x0 DUP10 DUP10 DUP4 DUP2 DUP2 LT PUSH2 0xAB8 JUMPI PUSH2 0xAB7 PUSH2 0x21BD JUMP JUMPDEST JUMPDEST SWAP1 POP PUSH1 0x20 MUL ADD CALLDATALOAD SWAP1 POP PUSH1 0x0 DUP8 DUP8 DUP5 DUP2 DUP2 LT PUSH2 0xAD6 JUMPI PUSH2 0xAD5 PUSH2 0x21BD JUMP JUMPDEST JUMPDEST SWAP1 POP PUSH1 0x20 MUL ADD CALLDATALOAD SWAP1 POP PUSH1 0x3 PUSH1 0x0 DUP4 DUP2 MSTORE PUSH1 0x20 ADD SWAP1 DUP2 MSTORE PUSH1 0x20 ADD PUSH1 0x0 KECCAK256 PUSH1 0x0 DUP11 PUSH20 0xFFFFFFFFFFFFFFFFFFFFFFFFFFFFFFFFFFFFFFFF AND PUSH20 0xFFFFFFFFFFFFFFFFFFFFFFFFFFFFFFFFFFFFFFFF AND DUP2 MSTORE PUSH1 0x20 ADD SWAP1 DUP2 MSTORE PUSH1 0x20 ADD PUSH1 0x0 KECCAK256 PUSH1 0x0 CALLER PUSH20 0xFFFFFFFFFFFFFFFFFFFFFFFFFFFFFFFFFFFFFFFF AND PUSH20 0xFFFFFFFFFFFFFFFFFFFFFFFFFFFFFFFFFFFFFFFF AND DUP2 MSTORE PUSH1 0x20 ADD SWAP1 DUP2 MSTORE PUSH1 0x20 ADD PUSH1 0x0 KECCAK256 PUSH1 0x0 SWAP1 SLOAD SWAP1 PUSH2 0x100 EXP SWAP1 DIV PUSH1 0xFF AND ISZERO PUSH2 0xB86 JUMPI POP POP PUSH2 0xDB5 JUMP JUMPDEST PUSH1 0x0 PUSH1 0x2 PUSH1 0x0 DUP5 DUP2 MSTORE PUSH1 0x20 ADD SWAP1 DUP2 MSTORE PUSH1 0x20 ADD PUSH1 0x0 KECCAK256 PUSH1 0x0 DUP12 PUSH20 0xFFFFFFFFFFFFFFFFFFFFFFFFFFFFFFFFFFFFFFFF AND PUSH20 0xFFFFFFFFFFFFFFFFFFFFFFFFFFFFFFFFFFFFFFFF AND DUP2 MSTORE PUSH1 0x20 ADD SWAP1 DUP2 MSTORE PUSH1 0x20 ADD PUSH1 0x0 KECCAK256 SLOAD SWAP1 POP PUSH1 0x0 DUP1 SHL DUP2 SUB PUSH2 0xBED JUMPI POP POP POP PUSH2 0xDB5 JUMP JUMPDEST PUSH1 0x0 CALLER DUP4 PUSH1 0x40 MLOAD PUSH1 0x20 ADD PUSH2 0xC02 SWAP3 SWAP2 SWAP1 PUSH2 0x2056 JUMP JUMPDEST PUSH1 0x40 MLOAD PUSH1 0x20 DUP2 DUP4 SUB SUB DUP2 MSTORE SWAP1 PUSH1 0x40 MSTORE DUP1 MLOAD SWAP1 PUSH1 0x20 ADD KECCAK256 SWAP1 POP PUSH2 0xC89 DUP9 DUP9 DUP8 DUP2 DUP2 LT PUSH2 0xC30 JUMPI PUSH2 0xC2F PUSH2 0x21BD JUMP JUMPDEST JUMPDEST SWAP1 POP PUSH1 0x20 MUL DUP2 ADD SWAP1 PUSH2 0xC42 SWAP2 SWAP1 PUSH2 0x21FB JUMP JUMPDEST DUP1 DUP1 PUSH1 0x20 MUL PUSH1 0x20 ADD PUSH1 0x40 MLOAD SWAP1 DUP2 ADD PUSH1 0x40 MSTORE DUP1 SWAP4 SWAP3 SWAP2 SWAP1 DUP2 DUP2 MSTORE PUSH1 0x20 ADD DUP4 DUP4 PUSH1 0x20 MUL DUP1 DUP3 DUP5 CALLDATACOPY PUSH1 0x0 DUP2 DUP5 ADD MSTORE PUSH1 0x1F NOT PUSH1 0x1F DUP3 ADD AND SWAP1 POP DUP1 DUP4 ADD SWAP3 POP POP POP POP POP POP POP DUP4 DUP4 PUSH2 0x1418 JUMP JUMPDEST PUSH2 0xC96 JUMPI POP POP POP POP PUSH2 0xDB5 JUMP JUMPDEST PUSH1 0x1 PUSH1 0x3 PUSH1 0x0 DUP7 DUP2 MSTORE PUSH1 0x20 ADD SWAP1 DUP2 MSTORE PUSH1 0x20 ADD PUSH1 0x0 KECCAK256 PUSH1 0x0 DUP14 PUSH20 0xFFFFFFFFFFFFFFFFFFFFFFFFFFFFFFFFFFFFFFFF AND PUSH20 0xFFFFFFFFFFFFFFFFFFFFFFFFFFFFFFFFFFFFFFFF AND DUP2 MSTORE PUSH1 0x20 ADD SWAP1 DUP2 MSTORE PUSH1 0x20 ADD PUSH1 0x0 KECCAK256 PUSH1 0x0 CALLER PUSH20 0xFFFFFFFFFFFFFFFFFFFFFFFFFFFFFFFFFFFFFFFF AND PUSH20 0xFFFFFFFFFFFFFFFFFFFFFFFFFFFFFFFFFFFFFFFF AND DUP2 MSTORE PUSH1 0x20 ADD SWAP1 DUP2 MSTORE PUSH1 0x20 ADD PUSH1 0x0 KECCAK256 PUSH1 0x0 PUSH2 0x100 EXP DUP2 SLOAD DUP2 PUSH1 0xFF MUL NOT AND SWAP1 DUP4 ISZERO ISZERO MUL OR SWAP1 SSTORE POP DUP3 DUP7 PUSH2 0xD48 SWAP2 SWAP1 PUSH2 0x211D JUMP JUMPDEST SWAP6 POP DUP11 PUSH20 0xFFFFFFFFFFFFFFFFFFFFFFFFFFFFFFFFFFFFFFFF AND CALLER PUSH20 0xFFFFFFFFFFFFFFFFFFFFFFFFFFFFFFFFFFFFFFFF AND DUP6 PUSH32 0xCE3BCB6E219596CF26007FFDFAAE8953BC3F76E3F36C0A79B23E28020DA3222E DUP7 PUSH1 0x40 MLOAD PUSH2 0xDA8 SWAP2 SWAP1 PUSH2 0x1BF0 JUMP JUMPDEST PUSH1 0x40 MLOAD DUP1 SWAP2 SUB SWAP1 LOG4 POP POP POP POP JUMPDEST DUP1 DUP1 PUSH2 0xDC0 SWAP1 PUSH2 0x225E JUMP JUMPDEST SWAP2 POP POP PUSH2 0xA98 JUMP JUMPDEST POP PUSH1 0x0 DUP2 GT ISZERO PUSH2 0xEB5 JUMPI DUP1 PUSH1 0x4 PUSH1 0x0 CALLER PUSH20 0xFFFFFFFFFFFFFFFFFFFFFFFFFFFFFFFFFFFFFFFF AND PUSH20 0xFFFFFFFFFFFFFFFFFFFFFFFFFFFFFFFFFFFFFFFF AND DUP2 MSTORE PUSH1 0x20 ADD SWAP1 DUP2 MSTORE PUSH1 0x20 ADD PUSH1 0x0 KECCAK256 PUSH1 0x0 DUP9 PUSH20 0xFFFFFFFFFFFFFFFFFFFFFFFFFFFFFFFFFFFFFFFF AND PUSH20 0xFFFFFFFFFFFFFFFFFFFFFFFFFFFFFFFFFFFFFFFF AND DUP2 MSTORE PUSH1 0x20 ADD SWAP1 DUP2 MSTORE PUSH1 0x20 ADD PUSH1 0x0 KECCAK256 PUSH1 0x0 DUP3 DUP3 SLOAD PUSH2 0xE5E SWAP2 SWAP1 PUSH2 0x211D JUMP JUMPDEST SWAP3 POP POP DUP2 SWAP1 SSTORE POP PUSH2 0xEB4 PUSH1 0x1 PUSH1 0x0 SWAP1 SLOAD SWAP1 PUSH2 0x100 EXP SWAP1 DIV PUSH20 0xFFFFFFFFFFFFFFFFFFFFFFFFFFFFFFFFFFFFFFFF AND CALLER DUP4 DUP10 PUSH20 0xFFFFFFFFFFFFFFFFFFFFFFFFFFFFFFFFFFFFFFFF AND PUSH2 0x142F SWAP1 SWAP4 SWAP3 SWAP2 SWAP1 PUSH4 0xFFFFFFFF AND JUMP JUMPDEST JUMPDEST POP POP POP POP POP POP POP POP JUMP JUMPDEST PUSH1 0x0 DUP1 PUSH1 0x0 DUP5 DUP2 MSTORE PUSH1 0x20 ADD SWAP1 DUP2 MSTORE PUSH1 0x20 ADD PUSH1 0x0 KECCAK256 PUSH1 0x0 ADD PUSH1 0x0 DUP4 PUSH20 0xFFFFFFFFFFFFFFFFFFFFFFFFFFFFFFFFFFFFFFFF AND PUSH20 0xFFFFFFFFFFFFFFFFFFFFFFFFFFFFFFFFFFFFFFFF AND DUP2 MSTORE PUSH1 0x20 ADD SWAP1 DUP2 MSTORE PUSH1 0x20 ADD PUSH1 0x0 KECCAK256 PUSH1 0x0 SWAP1 SLOAD SWAP1 PUSH2 0x100 EXP SWAP1 DIV PUSH1 0xFF AND SWAP1 POP SWAP3 SWAP2 POP POP JUMP JUMPDEST PUSH32 0x97667070C54EF182B0F5858B034BEAC1B6F3089AA2D3188BB1E8929F4FA9B929 PUSH2 0xF53 DUP2 PUSH2 0x14B1 JUMP JUMPDEST PUSH1 0x0 DUP1 SHL DUP3 SUB PUSH2 0xF98 JUMPI PUSH1 0x40 MLOAD PUSH32 0x8C379A000000000000000000000000000000000000000000000000000000000 DUP2 MSTORE PUSH1 0x4 ADD PUSH2 0xF8F SWAP1 PUSH2 0x22F2 JUMP JUMPDEST PUSH1 0x40 MLOAD DUP1 SWAP2 SUB SWAP1 REVERT JUMPDEST DUP2 PUSH1 0x2 PUSH1 0x0 DUP7 DUP2 MSTORE PUSH1 0x20 ADD SWAP1 DUP2 MSTORE PUSH1 0x20 ADD PUSH1 0x0 KECCAK256 PUSH1 0x0 DUP6 PUSH20 0xFFFFFFFFFFFFFFFFFFFFFFFFFFFFFFFFFFFFFFFF AND PUSH20 0xFFFFFFFFFFFFFFFFFFFFFFFFFFFFFFFFFFFFFFFF AND DUP2 MSTORE PUSH1 0x20 ADD SWAP1 DUP2 MSTORE PUSH1 0x20 ADD PUSH1 0x0 KECCAK256 DUP2 SWAP1 SSTORE POP DUP3 PUSH20 0xFFFFFFFFFFFFFFFFFFFFFFFFFFFFFFFFFFFFFFFF AND DUP5 PUSH32 0x25F67E2127B895637DFB4B4966E9A41C7E4E9F2033EB9188E609186FF895A771 DUP5 PUSH1 0x40 MLOAD PUSH2 0x1034 SWAP2 SWAP1 PUSH2 0x1A59 JUMP JUMPDEST PUSH1 0x40 MLOAD DUP1 SWAP2 SUB SWAP1 LOG3 POP POP POP POP JUMP JUMPDEST PUSH1 0x0 DUP1 SHL DUP2 JUMP JUMPDEST PUSH1 0x0 PUSH1 0x3 PUSH1 0x0 DUP9 DUP2 MSTORE PUSH1 0x20 ADD SWAP1 DUP2 MSTORE PUSH1 0x20 ADD PUSH1 0x0 KECCAK256 PUSH1 0x0 DUP8 PUSH20 0xFFFFFFFFFFFFFFFFFFFFFFFFFFFFFFFFFFFFFFFF AND PUSH20 0xFFFFFFFFFFFFFFFFFFFFFFFFFFFFFFFFFFFFFFFF AND DUP2 MSTORE PUSH1 0x20 ADD SWAP1 DUP2 MSTORE PUSH1 0x20 ADD PUSH1 0x0 KECCAK256 PUSH1 0x0 DUP7 PUSH20 0xFFFFFFFFFFFFFFFFFFFFFFFFFFFFFFFFFFFFFFFF AND PUSH20 0xFFFFFFFFFFFFFFFFFFFFFFFFFFFFFFFFFFFFFFFF AND DUP2 MSTORE PUSH1 0x20 ADD SWAP1 DUP2 MSTORE PUSH1 0x20 ADD PUSH1 0x0 KECCAK256 PUSH1 0x0 SWAP1 SLOAD SWAP1 PUSH2 0x100 EXP SWAP1 DIV PUSH1 0xFF AND ISZERO PUSH2 0x10F4 JUMPI PUSH1 0x0 SWAP1 POP PUSH2 0x11DB JUMP JUMPDEST PUSH1 0x0 PUSH1 0x2 PUSH1 0x0 DUP10 DUP2 MSTORE PUSH1 0x20 ADD SWAP1 DUP2 MSTORE PUSH1 0x20 ADD PUSH1 0x0 KECCAK256 PUSH1 0x0 DUP9 PUSH20 0xFFFFFFFFFFFFFFFFFFFFFFFFFFFFFFFFFFFFFFFF AND PUSH20 0xFFFFFFFFFFFFFFFFFFFFFFFFFFFFFFFFFFFFFFFF AND DUP2 MSTORE PUSH1 0x20 ADD SWAP1 DUP2 MSTORE PUSH1 0x20 ADD PUSH1 0x0 KECCAK256 SLOAD SWAP1 POP PUSH1 0x0 DUP1 SHL DUP2 SUB PUSH2 0x115D JUMPI PUSH1 0x0 SWAP2 POP POP PUSH2 0x11DB JUMP JUMPDEST PUSH1 0x0 DUP7 DUP7 PUSH1 0x40 MLOAD PUSH1 0x20 ADD PUSH2 0x1172 SWAP3 SWAP2 SWAP1 PUSH2 0x2056 JUMP JUMPDEST PUSH1 0x40 MLOAD PUSH1 0x20 DUP2 DUP4 SUB SUB DUP2 MSTORE SWAP1 PUSH1 0x40 MSTORE DUP1 MLOAD SWAP1 PUSH1 0x20 ADD KECCAK256 SWAP1 POP PUSH2 0x11D6 DUP6 DUP6 DUP1 DUP1 PUSH1 0x20 MUL PUSH1 0x20 ADD PUSH1 0x40 MLOAD SWAP1 DUP2 ADD PUSH1 0x40 MSTORE DUP1 SWAP4 SWAP3 SWAP2 SWAP1 DUP2 DUP2 MSTORE PUSH1 0x20 ADD DUP4 DUP4 PUSH1 0x20 MUL DUP1 DUP3 DUP5 CALLDATACOPY PUSH1 0x0 DUP2 DUP5 ADD MSTORE PUSH1 0x1F NOT PUSH1 0x1F DUP3 ADD AND SWAP1 POP DUP1 DUP4 ADD SWAP3 POP POP POP POP POP POP POP DUP4 DUP4 PUSH2 0x1418 JUMP JUMPDEST SWAP3 POP POP POP JUMPDEST SWAP7 SWAP6 POP POP POP POP POP POP JUMP JUMPDEST PUSH1 0x2 PUSH1 0x20 MSTORE DUP2 PUSH1 0x0 MSTORE PUSH1 0x40 PUSH1 0x0 KECCAK256 PUSH1 0x20 MSTORE DUP1 PUSH1 0x0 MSTORE PUSH1 0x40 PUSH1 0x0 KECCAK256 PUSH1 0x0 SWAP2 POP SWAP2 POP POP SLOAD DUP2 JUMP JUMPDEST PUSH2 0x1213 DUP3 PUSH2 0x4D9 JUMP JUMPDEST PUSH2 0x121C DUP2 PUSH2 0x14B1 JUMP JUMPDEST PUSH2 0x1226 DUP4 DUP4 PUSH2 0x15BE JUMP JUMPDEST POP POP POP POP JUMP JUMPDEST PUSH1 0x3 PUSH1 0x20 MSTORE DUP3 PUSH1 0x0 MSTORE PUSH1 0x40 PUSH1 0x0 KECCAK256 PUSH1 0x20 MSTORE DUP2 PUSH1 0x0 MSTORE PUSH1 0x40 PUSH1 0x0 KECCAK256 PUSH1 0x20 MSTORE DUP1 PUSH1 0x0 MSTORE PUSH1 0x40 PUSH1 0x0 KECCAK256 PUSH1 0x0 SWAP3 POP SWAP3 POP POP SWAP1 SLOAD SWAP1 PUSH2 0x100 EXP SWAP1 DIV PUSH1 0xFF AND DUP2 JUMP JUMPDEST PUSH1 0x0 DUP1 SHL PUSH2 0x1275 DUP2 PUSH2 0x14B1 JUMP JUMPDEST PUSH1 0x0 PUSH20 0xFFFFFFFFFFFFFFFFFFFFFFFFFFFFFFFFFFFFFFFF AND DUP3 PUSH20 0xFFFFFFFFFFFFFFFFFFFFFFFFFFFFFFFFFFFFFFFF AND SUB PUSH2 0x12E4 JUMPI PUSH1 0x40 MLOAD PUSH32 0x8C379A000000000000000000000000000000000000000000000000000000000 DUP2 MSTORE PUSH1 0x4 ADD PUSH2 0x12DB SWAP1 PUSH2 0x235E JUMP JUMPDEST PUSH1 0x40 MLOAD DUP1 SWAP2 SUB SWAP1 REVERT JUMPDEST PUSH1 0x0 PUSH1 0x1 PUSH1 0x0 SWAP1 SLOAD SWAP1 PUSH2 0x100 EXP SWAP1 DIV PUSH20 0xFFFFFFFFFFFFFFFFFFFFFFFFFFFFFFFFFFFFFFFF AND SWAP1 POP DUP3 PUSH1 0x1 PUSH1 0x0 PUSH2 0x100 EXP DUP2 SLOAD DUP2 PUSH20 0xFFFFFFFFFFFFFFFFFFFFFFFFFFFFFFFFFFFFFFFF MUL NOT AND SWAP1 DUP4 PUSH20 0xFFFFFFFFFFFFFFFFFFFFFFFFFFFFFFFFFFFFFFFF AND MUL OR SWAP1 SSTORE POP PUSH32 0x4AB5BE82436D353E61CA18726E984E561F5C1CC7C6D38B29D2553C790434705A DUP2 DUP5 PUSH1 0x40 MLOAD PUSH2 0x137D SWAP3 SWAP2 SWAP1 PUSH2 0x237E JUMP JUMPDEST PUSH1 0x40 MLOAD DUP1 SWAP2 SUB SWAP1 LOG1 POP POP POP JUMP JUMPDEST PUSH32 0x97667070C54EF182B0F5858B034BEAC1B6F3089AA2D3188BB1E8929F4FA9B929 DUP2 JUMP JUMPDEST PUSH1 0x0 PUSH32 0x1FFC9A700000000000000000000000000000000000000000000000000000000 PUSH28 0xFFFFFFFFFFFFFFFFFFFFFFFFFFFFFFFFFFFFFFFFFFFFFFFFFFFFFFFF NOT AND DUP3 PUSH28 0xFFFFFFFFFFFFFFFFFFFFFFFFFFFFFFFFFFFFFFFFFFFFFFFFFFFFFFFF NOT AND EQ SWAP1 POP SWAP2 SWAP1 POP JUMP JUMPDEST PUSH1 0x0 DUP3 PUSH2 0x1425 DUP6 DUP5 PUSH2 0x16B0 JUMP JUMPDEST EQ SWAP1 POP SWAP4 SWAP3 POP POP POP JUMP JUMPDEST PUSH2 0x14AB DUP5 DUP6 PUSH20 0xFFFFFFFFFFFFFFFFFFFFFFFFFFFFFFFFFFFFFFFF AND PUSH4 0x23B872DD DUP7 DUP7 DUP7 PUSH1 0x40 MLOAD PUSH1 0x24 ADD PUSH2 0x1464 SWAP4 SWAP3 SWAP2 SWAP1 PUSH2 0x23A7 JUMP JUMPDEST PUSH1 0x40 MLOAD PUSH1 0x20 DUP2 DUP4 SUB SUB DUP2 MSTORE SWAP1 PUSH1 0x40 MSTORE SWAP2 POP PUSH1 0xE0 SHL PUSH1 0x20 DUP3 ADD DUP1 MLOAD PUSH28 0xFFFFFFFFFFFFFFFFFFFFFFFFFFFFFFFFFFFFFFFFFFFFFFFFFFFFFFFF DUP4 DUP2 DUP4 AND OR DUP4 MSTORE POP POP POP POP PUSH2 0x1706 JUMP JUMPDEST POP POP POP POP JUMP JUMPDEST PUSH2 0x14C2 DUP2 PUSH2 0x14BD PUSH2 0x15B6 JUMP JUMPDEST PUSH2 0x17A8 JUMP JUMPDEST POP JUMP JUMPDEST PUSH1 0x0 PUSH2 0x14D1 DUP4 DUP4 PUSH2 0xEBF JUMP JUMPDEST PUSH2 0x15AB JUMPI PUSH1 0x1 PUSH1 0x0 DUP1 DUP6 DUP2 MSTORE PUSH1 0x20 ADD SWAP1 DUP2 MSTORE PUSH1 0x20 ADD PUSH1 0x0 KECCAK256 PUSH1 0x0 ADD PUSH1 0x0 DUP5 PUSH20 0xFFFFFFFFFFFFFFFFFFFFFFFFFFFFFFFFFFFFFFFF AND PUSH20 0xFFFFFFFFFFFFFFFFFFFFFFFFFFFFFFFFFFFFFFFF AND DUP2 MSTORE PUSH1 0x20 ADD SWAP1 DUP2 MSTORE PUSH1 0x20 ADD PUSH1 0x0 KECCAK256 PUSH1 0x0 PUSH2 0x100 EXP DUP2 SLOAD DUP2 PUSH1 0xFF MUL NOT AND SWAP1 DUP4 ISZERO ISZERO MUL OR SWAP1 SSTORE POP PUSH2 0x1548 PUSH2 0x15B6 JUMP JUMPDEST PUSH20 0xFFFFFFFFFFFFFFFFFFFFFFFFFFFFFFFFFFFFFFFF AND DUP3 PUSH20 0xFFFFFFFFFFFFFFFFFFFFFFFFFFFFFFFFFFFFFFFF AND DUP5 PUSH32 0x2F8788117E7EFF1D82E926EC794901D17C78024A50270940304540A733656F0D PUSH1 0x40 MLOAD PUSH1 0x40 MLOAD DUP1 SWAP2 SUB SWAP1 LOG4 PUSH1 0x1 SWAP1 POP PUSH2 0x15B0 JUMP JUMPDEST PUSH1 0x0 SWAP1 POP JUMPDEST SWAP3 SWAP2 POP POP JUMP JUMPDEST PUSH1 0x0 CALLER SWAP1 POP SWAP1 JUMP JUMPDEST PUSH1 0x0 PUSH2 0x15CA DUP4 DUP4 PUSH2 0xEBF JUMP JUMPDEST ISZERO PUSH2 0x16A5 JUMPI PUSH1 0x0 DUP1 PUSH1 0x0 DUP6 DUP2 MSTORE PUSH1 0x20 ADD SWAP1 DUP2 MSTORE PUSH1 0x20 ADD PUSH1 0x0 KECCAK256 PUSH1 0x0 ADD PUSH1 0x0 DUP5 PUSH20 0xFFFFFFFFFFFFFFFFFFFFFFFFFFFFFFFFFFFFFFFF AND PUSH20 0xFFFFFFFFFFFFFFFFFFFFFFFFFFFFFFFFFFFFFFFF AND DUP2 MSTORE PUSH1 0x20 ADD SWAP1 DUP2 MSTORE PUSH1 0x20 ADD PUSH1 0x0 KECCAK256 PUSH1 0x0 PUSH2 0x100 EXP DUP2 SLOAD DUP2 PUSH1 0xFF MUL NOT AND SWAP1 DUP4 ISZERO ISZERO MUL OR SWAP1 SSTORE POP PUSH2 0x1642 PUSH2 0x15B6 JUMP JUMPDEST PUSH20 0xFFFFFFFFFFFFFFFFFFFFFFFFFFFFFFFFFFFFFFFF AND DUP3 PUSH20 0xFFFFFFFFFFFFFFFFFFFFFFFFFFFFFFFFFFFFFFFF AND DUP5 PUSH32 0xF6391F5C32D9C69D2A47EA670B442974B53935D1EDC7FD64EB21E047A839171B PUSH1 0x40 MLOAD PUSH1 0x40 MLOAD DUP1 SWAP2 SUB SWAP1 LOG4 PUSH1 0x1 SWAP1 POP PUSH2 0x16AA JUMP JUMPDEST PUSH1 0x0 SWAP1 POP JUMPDEST SWAP3 SWAP2 POP POP JUMP JUMPDEST PUSH1 0x0 DUP1 DUP3 SWAP1 POP PUSH1 0x0 JUMPDEST DUP5 MLOAD DUP2 LT ISZERO PUSH2 0x16FB JUMPI PUSH2 0x16E6 DUP3 DUP7 DUP4 DUP2 MLOAD DUP2 LT PUSH2 0x16D9 JUMPI PUSH2 0x16D8 PUSH2 0x21BD JUMP JUMPDEST JUMPDEST PUSH1 0x20 MUL PUSH1 0x20 ADD ADD MLOAD PUSH2 0x17F9 JUMP JUMPDEST SWAP2 POP DUP1 DUP1 PUSH2 0x16F3 SWAP1 PUSH2 0x225E JUMP JUMPDEST SWAP2 POP POP PUSH2 0x16B9 JUMP JUMPDEST POP DUP1 SWAP2 POP POP SWAP3 SWAP2 POP POP JUMP JUMPDEST PUSH1 0x0 DUP1 PUSH1 0x20 PUSH1 0x0 DUP5 MLOAD PUSH1 0x20 DUP7 ADD PUSH1 0x0 DUP9 GAS CALL DUP1 PUSH2 0x1729 JUMPI PUSH1 0x40 MLOAD RETURNDATASIZE PUSH1 0x0 DUP3 RETURNDATACOPY RETURNDATASIZE DUP2 REVERT JUMPDEST RETURNDATASIZE SWAP3 POP PUSH1 0x0 MLOAD SWAP2 POP POP PUSH1 0x0 DUP3 EQ PUSH2 0x1744 JUMPI PUSH1 0x1 DUP2 EQ ISZERO PUSH2 0x1760 JUMP JUMPDEST PUSH1 0x0 DUP5 PUSH20 0xFFFFFFFFFFFFFFFFFFFFFFFFFFFFFFFFFFFFFFFF AND EXTCODESIZE EQ JUMPDEST ISZERO PUSH2 0x17A2 JUMPI DUP4 PUSH1 0x40 MLOAD PUSH32 0x5274AFE700000000000000000000000000000000000000000000000000000000 DUP2 MSTORE PUSH1 0x4 ADD PUSH2 0x1799 SWAP2 SWAP1 PUSH2 0x1C1A JUMP JUMPDEST PUSH1 0x40 MLOAD DUP1 SWAP2 SUB SWAP1 REVERT JUMPDEST POP POP POP POP JUMP JUMPDEST PUSH2 0x17B2 DUP3 DUP3 PUSH2 0xEBF JUMP JUMPDEST PUSH2 0x17F5 JUMPI DUP1 DUP3 PUSH1 0x40 MLOAD PUSH32 0xE2517D3F00000000000000000000000000000000000000000000000000000000 DUP2 MSTORE PUSH1 0x4 ADD PUSH2 0x17EC SWAP3 SWAP2 SWAP1 PUSH2 0x23DE JUMP JUMPDEST PUSH1 0x40 MLOAD DUP1 SWAP2 SUB SWAP1 REVERT JUMPDEST POP POP JUMP JUMPDEST PUSH1 0x0 DUP2 DUP4 LT PUSH2 0x1811 JUMPI PUSH2 0x180C DUP3 DUP5 PUSH2 0x1824 JUMP JUMPDEST PUSH2 0x181C JUMP JUMPDEST PUSH2 0x181B DUP4 DUP4 PUSH2 0x1824 JUMP JUMPDEST JUMPDEST SWAP1 POP SWAP3 SWAP2 POP POP JUMP JUMPDEST PUSH1 0x0 DUP3 PUSH1 0x0 MSTORE DUP2 PUSH1 0x20 MSTORE PUSH1 0x40 PUSH1 0x0 KECCAK256 SWAP1 POP SWAP3 SWAP2 POP POP JUMP JUMPDEST PUSH1 0x0 DUP1 REVERT JUMPDEST PUSH1 0x0 DUP1 REVERT JUMPDEST PUSH1 0x0 PUSH32 0xFFFFFFFF00000000000000000000000000000000000000000000000000000000 DUP3 AND SWAP1 POP SWAP2 SWAP1 POP JUMP JUMPDEST PUSH2 0x187A DUP2 PUSH2 0x1845 JUMP JUMPDEST DUP2 EQ PUSH2 0x1885 JUMPI PUSH1 0x0 DUP1 REVERT JUMPDEST POP JUMP JUMPDEST PUSH1 0x0 DUP2 CALLDATALOAD SWAP1 POP PUSH2 0x1897 DUP2 PUSH2 0x1871 JUMP JUMPDEST SWAP3 SWAP2 POP POP JUMP JUMPDEST PUSH1 0x0 PUSH1 0x20 DUP3 DUP5 SUB SLT ISZERO PUSH2 0x18B3 JUMPI PUSH2 0x18B2 PUSH2 0x183B JUMP JUMPDEST JUMPDEST PUSH1 0x0 PUSH2 0x18C1 DUP5 DUP3 DUP6 ADD PUSH2 0x1888 JUMP JUMPDEST SWAP2 POP POP SWAP3 SWAP2 POP POP JUMP JUMPDEST PUSH1 0x0 DUP2 ISZERO ISZERO SWAP1 POP SWAP2 SWAP1 POP JUMP JUMPDEST PUSH2 0x18DF DUP2 PUSH2 0x18CA JUMP JUMPDEST DUP3 MSTORE POP POP JUMP JUMPDEST PUSH1 0x0 PUSH1 0x20 DUP3 ADD SWAP1 POP PUSH2 0x18FA PUSH1 0x0 DUP4 ADD DUP5 PUSH2 0x18D6 JUMP JUMPDEST SWAP3 SWAP2 POP POP JUMP JUMPDEST PUSH1 0x0 DUP2 SWAP1 POP SWAP2 SWAP1 POP JUMP JUMPDEST PUSH2 0x1913 DUP2 PUSH2 0x1900 JUMP JUMPDEST DUP2 EQ PUSH2 0x191E JUMPI PUSH1 0x0 DUP1 REVERT JUMPDEST POP JUMP JUMPDEST PUSH1 0x0 DUP2 CALLDATALOAD SWAP1 POP PUSH2 0x1930 DUP2 PUSH2 0x190A JUMP JUMPDEST SWAP3 SWAP2 POP POP JUMP JUMPDEST PUSH1 0x0 PUSH20 0xFFFFFFFFFFFFFFFFFFFFFFFFFFFFFFFFFFFFFFFF DUP3 AND SWAP1 POP SWAP2 SWAP1 POP JUMP JUMPDEST PUSH1 0x0 PUSH2 0x1961 DUP3 PUSH2 0x1936 JUMP JUMPDEST SWAP1 POP SWAP2 SWAP1 POP JUMP JUMPDEST PUSH2 0x1971 DUP2 PUSH2 0x1956 JUMP JUMPDEST DUP2 EQ PUSH2 0x197C JUMPI PUSH1 0x0 DUP1 REVERT JUMPDEST POP JUMP JUMPDEST PUSH1 0x0 DUP2 CALLDATALOAD SWAP1 POP PUSH2 0x198E DUP2 PUSH2 0x1968 JUMP JUMPDEST SWAP3 SWAP2 POP POP JUMP JUMPDEST PUSH1 0x0 DUP1 PUSH1 0x0 PUSH1 0x60 DUP5 DUP7 SUB SLT ISZERO PUSH2 0x19AD JUMPI PUSH2 0x19AC PUSH2 0x183B JUMP JUMPDEST JUMPDEST PUSH1 0x0 PUSH2 0x19BB DUP7 DUP3 DUP8 ADD PUSH2 0x1921 JUMP JUMPDEST SWAP4 POP POP PUSH1 0x20 PUSH2 0x19CC DUP7 DUP3 DUP8 ADD PUSH2 0x197F JUMP JUMPDEST SWAP3 POP POP PUSH1 0x40 PUSH2 0x19DD DUP7 DUP3 DUP8 ADD PUSH2 0x197F JUMP JUMPDEST SWAP2 POP POP SWAP3 POP SWAP3 POP SWAP3 JUMP JUMPDEST PUSH1 0x0 DUP2 SWAP1 POP SWAP2 SWAP1 POP JUMP JUMPDEST PUSH2 0x19FA DUP2 PUSH2 0x19E7 JUMP JUMPDEST DUP2 EQ PUSH2 0x1A05 JUMPI PUSH1 0x0 DUP1 REVERT JUMPDEST POP JUMP JUMPDEST PUSH1 0x0 DUP2 CALLDATALOAD SWAP1 POP PUSH2 0x1A17 DUP2 PUSH2 0x19F1 JUMP JUMPDEST SWAP3 SWAP2 POP POP JUMP JUMPDEST PUSH1 0x0 PUSH1 0x20 DUP3 DUP5 SUB SLT ISZERO PUSH2 0x1A33 JUMPI PUSH2 0x1A32 PUSH2 0x183B JUMP JUMPDEST JUMPDEST PUSH1 0x0 PUSH2 0x1A41 DUP5 DUP3 DUP6 ADD PUSH2 0x1A08 JUMP JUMPDEST SWAP2 POP POP SWAP3 SWAP2 POP POP JUMP JUMPDEST PUSH2 0x1A53 DUP2 PUSH2 0x19E7 JUMP JUMPDEST DUP3 MSTORE POP POP JUMP JUMPDEST PUSH1 0x0 PUSH1 0x20 DUP3 ADD SWAP1 POP PUSH2 0x1A6E PUSH1 0x0 DUP4 ADD DUP5 PUSH2 0x1A4A JUMP JUMPDEST SWAP3 SWAP2 POP POP JUMP JUMPDEST PUSH1 0x0 DUP1 REVERT JUMPDEST PUSH1 0x0 DUP1 REVERT JUMPDEST PUSH1 0x0 DUP1 REVERT JUMPDEST PUSH1 0x0 DUP1 DUP4 PUSH1 0x1F DUP5 ADD SLT PUSH2 0x1A99 JUMPI PUSH2 0x1A98 PUSH2 0x1A74 JUMP JUMPDEST JUMPDEST DUP3 CALLDATALOAD SWAP1 POP PUSH8 0xFFFFFFFFFFFFFFFF DUP2 GT ISZERO PUSH2 0x1AB6 JUMPI PUSH2 0x1AB5 PUSH2 0x1A79 JUMP JUMPDEST JUMPDEST PUSH1 0x20 DUP4 ADD SWAP2 POP DUP4 PUSH1 0x20 DUP3 MUL DUP4 ADD GT ISZERO PUSH2 0x1AD2 JUMPI PUSH2 0x1AD1 PUSH2 0x1A7E JUMP JUMPDEST JUMPDEST SWAP3 POP SWAP3 SWAP1 POP JUMP JUMPDEST PUSH1 0x0 DUP1 PUSH1 0x0 DUP1 PUSH1 0x0 PUSH1 0x80 DUP7 DUP9 SUB SLT ISZERO PUSH2 0x1AF5 JUMPI PUSH2 0x1AF4 PUSH2 0x183B JUMP JUMPDEST JUMPDEST PUSH1 0x0 PUSH2 0x1B03 DUP9 DUP3 DUP10 ADD PUSH2 0x1921 JUMP JUMPDEST SWAP6 POP POP PUSH1 0x20 PUSH2 0x1B14 DUP9 DUP3 DUP10 ADD PUSH2 0x197F JUMP JUMPDEST SWAP5 POP POP PUSH1 0x40 PUSH2 0x1B25 DUP9 DUP3 DUP10 ADD PUSH2 0x1921 JUMP JUMPDEST SWAP4 POP POP PUSH1 0x60 DUP7 ADD CALLDATALOAD PUSH8 0xFFFFFFFFFFFFFFFF DUP2 GT ISZERO PUSH2 0x1B46 JUMPI PUSH2 0x1B45 PUSH2 0x1840 JUMP JUMPDEST JUMPDEST PUSH2 0x1B52 DUP9 DUP3 DUP10 ADD PUSH2 0x1A83 JUMP JUMPDEST SWAP3 POP SWAP3 POP POP SWAP3 SWAP6 POP SWAP3 SWAP6 SWAP1 SWAP4 POP JUMP JUMPDEST PUSH1 0x0 DUP1 PUSH1 0x40 DUP4 DUP6 SUB SLT ISZERO PUSH2 0x1B78 JUMPI PUSH2 0x1B77 PUSH2 0x183B JUMP JUMPDEST JUMPDEST PUSH1 0x0 PUSH2 0x1B86 DUP6 DUP3 DUP7 ADD PUSH2 0x1A08 JUMP JUMPDEST SWAP3 POP POP PUSH1 0x20 PUSH2 0x1B97 DUP6 DUP3 DUP7 ADD PUSH2 0x197F JUMP JUMPDEST SWAP2 POP POP SWAP3 POP SWAP3 SWAP1 POP JUMP JUMPDEST PUSH1 0x0 DUP1 PUSH1 0x40 DUP4 DUP6 SUB SLT ISZERO PUSH2 0x1BB8 JUMPI PUSH2 0x1BB7 PUSH2 0x183B JUMP JUMPDEST JUMPDEST PUSH1 0x0 PUSH2 0x1BC6 DUP6 DUP3 DUP7 ADD PUSH2 0x197F JUMP JUMPDEST SWAP3 POP POP PUSH1 0x20 PUSH2 0x1BD7 DUP6 DUP3 DUP7 ADD PUSH2 0x197F JUMP JUMPDEST SWAP2 POP POP SWAP3 POP SWAP3 SWAP1 POP JUMP JUMPDEST PUSH2 0x1BEA DUP2 PUSH2 0x1900 JUMP JUMPDEST DUP3 MSTORE POP POP JUMP JUMPDEST PUSH1 0x0 PUSH1 0x20 DUP3 ADD SWAP1 POP PUSH2 0x1C05 PUSH1 0x0 DUP4 ADD DUP5 PUSH2 0x1BE1 JUMP JUMPDEST SWAP3 SWAP2 POP POP JUMP JUMPDEST PUSH2 0x1C14 DUP2 PUSH2 0x1956 JUMP JUMPDEST DUP3 MSTORE POP POP JUMP JUMPDEST PUSH1 0x0 PUSH1 0x20 DUP3 ADD SWAP1 POP PUSH2 0x1C2F PUSH1 0x0 DUP4 ADD DUP5 PUSH2 0x1C0B JUMP JUMPDEST SWAP3 SWAP2 POP POP JUMP JUMPDEST PUSH1 0x0 DUP1 DUP4 PUSH1 0x1F DUP5 ADD SLT PUSH2 0x1C4B JUMPI PUSH2 0x1C4A PUSH2 0x1A74 JUMP JUMPDEST JUMPDEST DUP3 CALLDATALOAD SWAP1 POP PUSH8 0xFFFFFFFFFFFFFFFF DUP2 GT ISZERO PUSH2 0x1C68 JUMPI PUSH2 0x1C67 PUSH2 0x1A79 JUMP JUMPDEST JUMPDEST PUSH1 0x20 DUP4 ADD SWAP2 POP DUP4 PUSH1 0x20 DUP3 MUL DUP4 ADD GT ISZERO PUSH2 0x1C84 JUMPI PUSH2 0x1C83 PUSH2 0x1A7E JUMP JUMPDEST JUMPDEST SWAP3 POP SWAP3 SWAP1 POP JUMP JUMPDEST PUSH1 0x0 DUP1 DUP4 PUSH1 0x1F DUP5 ADD SLT PUSH2 0x1CA1 JUMPI PUSH2 0x1CA0 PUSH2 0x1A74 JUMP JUMPDEST JUMPDEST DUP3 CALLDATALOAD SWAP1 POP PUSH8 0xFFFFFFFFFFFFFFFF DUP2 GT ISZERO PUSH2 0x1CBE JUMPI PUSH2 0x1CBD PUSH2 0x1A79 JUMP JUMPDEST JUMPDEST PUSH1 0x20 DUP4 ADD SWAP2 POP DUP4 PUSH1 0x20 DUP3 MUL DUP4 ADD GT ISZERO PUSH2 0x1CDA JUMPI PUSH2 0x1CD9 PUSH2 0x1A7E JUMP JUMPDEST JUMPDEST SWAP3 POP SWAP3 SWAP1 POP JUMP JUMPDEST PUSH1 0x0 DUP1 PUSH1 0x0 DUP1 PUSH1 0x0 DUP1 PUSH1 0x0 PUSH1 0x80 DUP9 DUP11 SUB SLT ISZERO PUSH2 0x1D00 JUMPI PUSH2 0x1CFF PUSH2 0x183B JUMP JUMPDEST JUMPDEST PUSH1 0x0 DUP9 ADD CALLDATALOAD PUSH8 0xFFFFFFFFFFFFFFFF DUP2 GT ISZERO PUSH2 0x1D1E JUMPI PUSH2 0x1D1D PUSH2 0x1840 JUMP JUMPDEST JUMPDEST PUSH2 0x1D2A DUP11 DUP3 DUP12 ADD PUSH2 0x1C35 JUMP JUMPDEST SWAP8 POP SWAP8 POP POP PUSH1 0x20 PUSH2 0x1D3D DUP11 DUP3 DUP12 ADD PUSH2 0x197F JUMP JUMPDEST SWAP6 POP POP PUSH1 0x40 DUP9 ADD CALLDATALOAD PUSH8 0xFFFFFFFFFFFFFFFF DUP2 GT ISZERO PUSH2 0x1D5E JUMPI PUSH2 0x1D5D PUSH2 0x1840 JUMP JUMPDEST JUMPDEST PUSH2 0x1D6A DUP11 DUP3 DUP12 ADD PUSH2 0x1C35 JUMP JUMPDEST SWAP5 POP SWAP5 POP POP PUSH1 0x60 DUP9 ADD CALLDATALOAD PUSH8 0xFFFFFFFFFFFFFFFF DUP2 GT ISZERO PUSH2 0x1D8D JUMPI PUSH2 0x1D8C PUSH2 0x1840 JUMP JUMPDEST JUMPDEST PUSH2 0x1D99 DUP11 DUP3 DUP12 ADD PUSH2 0x1C8B JUMP JUMPDEST SWAP3 POP SWAP3 POP POP SWAP3 SWAP6 SWAP9 SWAP2 SWAP5 SWAP8 POP SWAP3 SWAP6 POP JUMP JUMPDEST PUSH1 0x0 DUP1 PUSH1 0x0 PUSH1 0x60 DUP5 DUP7 SUB SLT ISZERO PUSH2 0x1DC3 JUMPI PUSH2 0x1DC2 PUSH2 0x183B JUMP JUMPDEST JUMPDEST PUSH1 0x0 PUSH2 0x1DD1 DUP7 DUP3 DUP8 ADD PUSH2 0x1921 JUMP JUMPDEST SWAP4 POP POP PUSH1 0x20 PUSH2 0x1DE2 DUP7 DUP3 DUP8 ADD PUSH2 0x197F JUMP JUMPDEST SWAP3 POP POP PUSH1 0x40 PUSH2 0x1DF3 DUP7 DUP3 DUP8 ADD PUSH2 0x1A08 JUMP JUMPDEST SWAP2 POP POP SWAP3 POP SWAP3 POP SWAP3 JUMP JUMPDEST PUSH1 0x0 DUP1 PUSH1 0x0 DUP1 PUSH1 0x0 DUP1 PUSH1 0xA0 DUP8 DUP10 SUB SLT ISZERO PUSH2 0x1E1A JUMPI PUSH2 0x1E19 PUSH2 0x183B JUMP JUMPDEST JUMPDEST PUSH1 0x0 PUSH2 0x1E28 DUP10 DUP3 DUP11 ADD PUSH2 0x1921 JUMP JUMPDEST SWAP7 POP POP PUSH1 0x20 PUSH2 0x1E39 DUP10 DUP3 DUP11 ADD PUSH2 0x197F JUMP JUMPDEST SWAP6 POP POP PUSH1 0x40 PUSH2 0x1E4A DUP10 DUP3 DUP11 ADD PUSH2 0x197F JUMP JUMPDEST SWAP5 POP POP PUSH1 0x60 PUSH2 0x1E5B DUP10 DUP3 DUP11 ADD PUSH2 0x1921 JUMP JUMPDEST SWAP4 POP POP PUSH1 0x80 DUP8 ADD CALLDATALOAD PUSH8 0xFFFFFFFFFFFFFFFF DUP2 GT ISZERO PUSH2 0x1E7C JUMPI PUSH2 0x1E7B PUSH2 0x1840 JUMP JUMPDEST JUMPDEST PUSH2 0x1E88 DUP10 DUP3 DUP11 ADD PUSH2 0x1A83 JUMP JUMPDEST SWAP3 POP SWAP3 POP POP SWAP3 SWAP6 POP SWAP3 SWAP6 POP SWAP3 SWAP6 JUMP JUMPDEST PUSH1 0x0 DUP1 PUSH1 0x40 DUP4 DUP6 SUB SLT ISZERO PUSH2 0x1EAE JUMPI PUSH2 0x1EAD PUSH2 0x183B JUMP JUMPDEST JUMPDEST PUSH1 0x0 PUSH2 0x1EBC DUP6 DUP3 DUP7 ADD PUSH2 0x1921 JUMP JUMPDEST SWAP3 POP POP PUSH1 0x20 PUSH2 0x1ECD DUP6 DUP3 DUP7 ADD PUSH2 0x197F JUMP JUMPDEST SWAP2 POP POP SWAP3 POP SWAP3 SWAP1 POP JUMP JUMPDEST PUSH1 0x0 PUSH1 0x20 DUP3 DUP5 SUB SLT ISZERO PUSH2 0x1EED JUMPI PUSH2 0x1EEC PUSH2 0x183B JUMP JUMPDEST JUMPDEST PUSH1 0x0 PUSH2 0x1EFB DUP5 DUP3 DUP6 ADD PUSH2 0x197F JUMP JUMPDEST SWAP2 POP POP SWAP3 SWAP2 POP POP JUMP JUMPDEST PUSH1 0x0 DUP3 DUP3 MSTORE PUSH1 0x20 DUP3 ADD SWAP1 POP SWAP3 SWAP2 POP POP JUMP JUMPDEST PUSH32 0x416C726561647920636C61696D65640000000000000000000000000000000000 PUSH1 0x0 DUP3 ADD MSTORE POP JUMP JUMPDEST PUSH1 0x0 PUSH2 0x1F4B PUSH1 0xF DUP4 PUSH2 0x1F04 JUMP JUMPDEST SWAP2 POP PUSH2 0x1F56 DUP3 PUSH2 0x1F15 JUMP JUMPDEST PUSH1 0x20 DUP3 ADD SWAP1 POP SWAP2 SWAP1 POP JUMP JUMPDEST PUSH1 0x0 PUSH1 0x20 DUP3 ADD SWAP1 POP DUP2 DUP2 SUB PUSH1 0x0 DUP4 ADD MSTORE PUSH2 0x1F7A DUP2 PUSH2 0x1F3E JUMP JUMPDEST SWAP1 POP SWAP2 SWAP1 POP JUMP JUMPDEST PUSH32 0x4D65726B6C6520726F6F74206E6F742073657400000000000000000000000000 PUSH1 0x0 DUP3 ADD MSTORE POP JUMP JUMPDEST PUSH1 0x0 PUSH2 0x1FB7 PUSH1 0x13 DUP4 PUSH2 0x1F04 JUMP JUMPDEST SWAP2 POP PUSH2 0x1FC2 DUP3 PUSH2 0x1F81 JUMP JUMPDEST PUSH1 0x20 DUP3 ADD SWAP1 POP SWAP2 SWAP1 POP JUMP JUMPDEST PUSH1 0x0 PUSH1 0x20 DUP3 ADD SWAP1 POP DUP2 DUP2 SUB PUSH1 0x0 DUP4 ADD MSTORE PUSH2 0x1FE6 DUP2 PUSH2 0x1FAA JUMP JUMPDEST SWAP1 POP SWAP2 SWAP1 POP JUMP JUMPDEST PUSH1 0x0 DUP2 PUSH1 0x60 SHL SWAP1 POP SWAP2 SWAP1 POP JUMP JUMPDEST PUSH1 0x0 PUSH2 0x2005 DUP3 PUSH2 0x1FED JUMP JUMPDEST SWAP1 POP SWAP2 SWAP1 POP JUMP JUMPDEST PUSH1 0x0 PUSH2 0x2017 DUP3 PUSH2 0x1FFA JUMP JUMPDEST SWAP1 POP SWAP2 SWAP1 POP JUMP JUMPDEST PUSH2 0x202F PUSH2 0x202A DUP3 PUSH2 0x1956 JUMP JUMPDEST PUSH2 0x200C JUMP JUMPDEST DUP3 MSTORE POP POP JUMP JUMPDEST PUSH1 0x0 DUP2 SWAP1 POP SWAP2 SWAP1 POP JUMP JUMPDEST PUSH2 0x2050 PUSH2 0x204B DUP3 PUSH2 0x1900 JUMP JUMPDEST PUSH2 0x2035 JUMP JUMPDEST DUP3 MSTORE POP POP JUMP JUMPDEST PUSH1 0x0 PUSH2 0x2062 DUP3 DUP6 PUSH2 0x201E JUMP JUMPDEST PUSH1 0x14 DUP3 ADD SWAP2 POP PUSH2 0x2072 DUP3 DUP5 PUSH2 0x203F JUMP JUMPDEST PUSH1 0x20 DUP3 ADD SWAP2 POP DUP2 SWAP1 POP SWAP4 SWAP3 POP POP POP JUMP JUMPDEST PUSH32 0x496E76616C69642070726F6F6600000000000000000000000000000000000000 PUSH1 0x0 DUP3 ADD MSTORE POP JUMP JUMPDEST PUSH1 0x0 PUSH2 0x20B8 PUSH1 0xD DUP4 PUSH2 0x1F04 JUMP JUMPDEST SWAP2 POP PUSH2 0x20C3 DUP3 PUSH2 0x2082 JUMP JUMPDEST PUSH1 0x20 DUP3 ADD SWAP1 POP SWAP2 SWAP1 POP JUMP JUMPDEST PUSH1 0x0 PUSH1 0x20 DUP3 ADD SWAP1 POP DUP2 DUP2 SUB PUSH1 0x0 DUP4 ADD MSTORE PUSH2 0x20E7 DUP2 PUSH2 0x20AB JUMP JUMPDEST SWAP1 POP SWAP2 SWAP1 POP JUMP JUMPDEST PUSH32 0x4E487B7100000000000000000000000000000000000000000000000000000000 PUSH1 0x0 MSTORE PUSH1 0x11 PUSH1 0x4 MSTORE PUSH1 0x24 PUSH1 0x0 REVERT JUMPDEST PUSH1 0x0 PUSH2 0x2128 DUP3 PUSH2 0x1900 JUMP JUMPDEST SWAP2 POP PUSH2 0x2133 DUP4 PUSH2 0x1900 JUMP JUMPDEST SWAP3 POP DUP3 DUP3 ADD SWAP1 POP DUP1 DUP3 GT ISZERO PUSH2 0x214B JUMPI PUSH2 0x214A PUSH2 0x20EE JUMP JUMPDEST JUMPDEST SWAP3 SWAP2 POP POP JUMP JUMPDEST PUSH32 0x4C656E677468206D69736D617463680000000000000000000000000000000000 PUSH1 0x0 DUP3 ADD MSTORE POP JUMP JUMPDEST PUSH1 0x0 PUSH2 0x2187 PUSH1 0xF DUP4 PUSH2 0x1F04 JUMP JUMPDEST SWAP2 POP PUSH2 0x2192 DUP3 PUSH2 0x2151 JUMP JUMPDEST PUSH1 0x20 DUP3 ADD SWAP1 POP SWAP2 SWAP1 POP JUMP JUMPDEST PUSH1 0x0 PUSH1 0x20 DUP3 ADD SWAP1 POP DUP2 DUP2 SUB PUSH1 0x0 DUP4 ADD MSTORE PUSH2 0x21B6 DUP2 PUSH2 0x217A JUMP JUMPDEST SWAP1 POP SWAP2 SWAP1 POP JUMP JUMPDEST PUSH32 0x4E487B7100000000000000000000000000000000000000000000000000000000 PUSH1 0x0 MSTORE PUSH1 0x32 PUSH1 0x4 MSTORE PUSH1 0x24 PUSH1 0x0 REVERT JUMPDEST PUSH1 0x0 DUP1 REVERT JUMPDEST PUSH1 0x0 DUP1 REVERT JUMPDEST PUSH1 0x0 DUP1 REVERT JUMPDEST PUSH1 0x0 DUP1 DUP4 CALLDATALOAD PUSH1 0x1 PUSH1 0x20 SUB DUP5 CALLDATASIZE SUB SUB DUP2 SLT PUSH2 0x2218 JUMPI PUSH2 0x2217 PUSH2 0x21EC JUMP JUMPDEST JUMPDEST DUP1 DUP5 ADD SWAP3 POP DUP3 CALLDATALOAD SWAP2 POP PUSH8 0xFFFFFFFFFFFFFFFF DUP3 GT ISZERO PUSH2 0x223A JUMPI PUSH2 0x2239 PUSH2 0x21F1 JUMP JUMPDEST JUMPDEST PUSH1 0x20 DUP4 ADD SWAP3 POP PUSH1 0x20 DUP3 MUL CALLDATASIZE SUB DUP4 SGT ISZERO PUSH2 0x2256 JUMPI PUSH2 0x2255 PUSH2 0x21F6 JUMP JUMPDEST JUMPDEST POP SWAP3 POP SWAP3 SWAP1 POP JUMP JUMPDEST PUSH1 0x0 PUSH2 0x2269 DUP3 PUSH2 0x1900 JUMP JUMPDEST SWAP2 POP PUSH32 0xFFFFFFFFFFFFFFFFFFFFFFFFFFFFFFFFFFFFFFFFFFFFFFFFFFFFFFFFFFFFFFFF DUP3 SUB PUSH2 0x229B JUMPI PUSH2 0x229A PUSH2 0x20EE JUMP JUMPDEST JUMPDEST PUSH1 0x1 DUP3 ADD SWAP1 POP SWAP2 SWAP1 POP JUMP JUMPDEST PUSH32 0x496E76616C6964206D65726B6C6520726F6F7400000000000000000000000000 PUSH1 0x0 DUP3 ADD MSTORE POP JUMP JUMPDEST PUSH1 0x0 PUSH2 0x22DC PUSH1 0x13 DUP4 PUSH2 0x1F04 JUMP JUMPDEST SWAP2 POP PUSH2 0x22E7 DUP3 PUSH2 0x22A6 JUMP JUMPDEST PUSH1 0x20 DUP3 ADD SWAP1 POP SWAP2 SWAP1 POP JUMP JUMPDEST PUSH1 0x0 PUSH1 0x20 DUP3 ADD SWAP1 POP DUP2 DUP2 SUB PUSH1 0x0 DUP4 ADD MSTORE PUSH2 0x230B DUP2 PUSH2 0x22CF JUMP JUMPDEST SWAP1 POP SWAP2 SWAP1 POP JUMP JUMPDEST PUSH32 0x496E76616C696420747265617375727900000000000000000000000000000000 PUSH1 0x0 DUP3 ADD MSTORE POP JUMP JUMPDEST PUSH1 0x0 PUSH2 0x2348 PUSH1 0x10 DUP4 PUSH2 0x1F04 JUMP JUMPDEST SWAP2 POP PUSH2 0x2353 DUP3 PUSH2 0x2312 JUMP JUMPDEST PUSH1 0x20 DUP3 ADD SWAP1 POP SWAP2 SWAP1 POP JUMP JUMPDEST PUSH1 0x0 PUSH1 0x20 DUP3 ADD SWAP1 POP DUP2 DUP2 SUB PUSH1 0x0 DUP4 ADD MSTORE PUSH2 0x2377 DUP2 PUSH2 0x233B JUMP JUMPDEST SWAP1 POP SWAP2 SWAP1 POP JUMP JUMPDEST PUSH1 0x0 PUSH1 0x40 DUP3 ADD SWAP1 POP PUSH2 0x2393 PUSH1 0x0 DUP4 ADD DUP6 PUSH2 0x1C0B JUMP JUMPDEST PUSH2 0x23A0 PUSH1 0x20 DUP4 ADD DUP5 PUSH2 0x1C0B JUMP JUMPDEST SWAP4 SWAP3 POP POP POP JUMP JUMPDEST PUSH1 0x0 PUSH1 0x60 DUP3 ADD SWAP1 POP PUSH2 0x23BC PUSH1 0x0 DUP4 ADD DUP7 PUSH2 0x1C0B JUMP JUMPDEST PUSH2 0x23C9 PUSH1 0x20 DUP4 ADD DUP6 PUSH2 0x1C0B JUMP JUMPDEST PUSH2 0x23D6 PUSH1 0x40 DUP4 ADD DUP5 PUSH2 0x1BE1 JUMP JUMPDEST SWAP5 SWAP4 POP POP POP POP JUMP JUMPDEST PUSH1 0x0 PUSH1 0x40 DUP3 ADD SWAP1 POP PUSH2 0x23F3 PUSH1 0x0 DUP4 ADD DUP6 PUSH2 0x1C0B JUMP JUMPDEST PUSH2 0x2400 PUSH1 0x20 DUP4 ADD DUP5 PUSH2 0x1A4A JUMP JUMPDEST SWAP4 SWAP3 POP POP POP JUMP INVALID LOG2 PUSH5 0x6970667358 0x22 SLT KECCAK256 SWAP14 DUP2 0xCF 0xD0 JUMPDEST SIGNEXTEND 0xB1 CODESIZE PUSH23 0x937D918A2DD89997CD5B5B8823C0FCEB123FE5367EE41B PUSH5 0x736F6C6343 STOP ADDMOD EQ STOP CALLER "},"methodIdentifiers":{"DEFAULT_ADMIN_ROLE()":"a217fddf","OPERATOR_ROLE()":"f5b541a6","canClaim(uint256,address,address,uint256,bytes32[])":"addc0811","claim(uint256,address,uint256,bytes32[])":"2e7ba6ef","claimMultiple(uint256[],address,uint256[],bytes32[][])":"7e813752","claimed(uint256,address,address)":"eb18eb66","epochMerkleRoots(uint256,address)":"ccf56631","getRoleAdmin(bytes32)":"248a9ca3","grantRole(bytes32,address)":"2f2ff15d","hasRole(bytes32,address)":"91d14854","isClaimed(uint256,address,address)":"0d0ffa0a","renounceRole(bytes32,address)":"36568abe","revokeRole(bytes32,address)":"d547741f","setMerkleRoot(uint256,address,bytes32)":"9461dcf1","setTreasury(address)":"f0f44260","supportsInterface(bytes4)":"01ffc9a7","totalClaimed(address,address)":"594065d0","treasury()":"61d027b3"}}}}}