{"contracts/ArnFeeSplitter.sol":{"ArnFeeSplitter":{"abi":[{"inputs":[{"internalType":"address","name":"_treasury","type":"address"}],"stateMutability":"nonpayable","type":"constructor"},{"inputs":[{"internalType":"address","name":"owner","type":"address"}],"name":"OwnableInvalidOwner","type":"error"},{"inputs":[{"internalType":"address","name":"account","type":"address"}],"name":"OwnableUnauthorizedAccount","type":"error"},{"inputs":[{"internalType":"address","name":"token","type":"address"}],"name":"SafeERC20FailedOperation","type":"error"},{"anonymous":false,"inputs":[{"indexed":true,"internalType":"address","name":"previousOwner","type":"address"},{"indexed":true,"internalType":"address","name":"newOwner","type":"address"}],"name":"OwnershipTransferred","type":"event"},{"anonymous":false,"inputs":[{"indexed":true,"internalType":"address","name":"token","type":"address"},{"indexed":true,"internalType":"address","name":"merchant","type":"address"},{"indexed":false,"internalType":"uint256","name":"totalAmount","type":"uint256"},{"indexed":false,"internalType":"uint256","name":"merchantAmount","type":"uint256"},{"indexed":false,"internalType":"uint256","name":"feeAmount","type":"uint256"},{"indexed":true,"internalType":"bytes32","name":"routeRefHash","type":"bytes32"}],"name":"PaymentSplit","type":"event"},{"anonymous":false,"inputs":[{"indexed":false,"internalType":"uint256","name":"newFeeBps","type":"uint256"}],"name":"ProtocolFeeUpdated","type":"event"},{"anonymous":false,"inputs":[{"indexed":false,"internalType":"address","name":"newTreasury","type":"address"}],"name":"TreasuryUpdated","type":"event"},{"inputs":[],"name":"owner","outputs":[{"internalType":"address","name":"","type":"address"}],"stateMutability":"view","type":"function"},{"inputs":[],"name":"protocolFeeBps","outputs":[{"internalType":"uint256","name":"","type":"uint256"}],"stateMutability":"view","type":"function"},{"inputs":[],"name":"renounceOwnership","outputs":[],"stateMutability":"nonpayable","type":"function"},{"inputs":[{"internalType":"uint256","name":"_bps","type":"uint256"}],"name":"setProtocolFee","outputs":[],"stateMutability":"nonpayable","type":"function"},{"inputs":[{"internalType":"address","name":"_treasury","type":"address"}],"name":"setTreasury","outputs":[],"stateMutability":"nonpayable","type":"function"},{"inputs":[{"internalType":"address","name":"token","type":"address"},{"internalType":"address","name":"merchant","type":"address"},{"internalType":"uint256","name":"amount","type":"uint256"},{"internalType":"bytes","name":"routeRef","type":"bytes"}],"name":"splitPaymentERC20","outputs":[],"stateMutability":"nonpayable","type":"function"},{"inputs":[{"internalType":"address","name":"merchant","type":"address"},{"internalType":"bytes","name":"routeRef","type":"bytes"}],"name":"splitPaymentNative","outputs":[],"stateMutability":"payable","type":"function"},{"inputs":[{"internalType":"address","name":"newOwner","type":"address"}],"name":"transferOwnership","outputs":[],"stateMutability":"nonpayable","type":"function"},{"inputs":[],"name":"treasury","outputs":[{"internalType":"address","name":"","type":"address"}],"stateMutability":"view","type":"function"}],"evm":{"bytecode":{"linkReferences":{},"object":"6080604052601e6001553480156200001657600080fd5b50604051620015873803806200158783398181016040528101906200003c9190620002ac565b33600073ffffffffffffffffffffffffffffffffffffffff168173ffffffffffffffffffffffffffffffffffffffff1603620000b25760006040517f1e4fbdf7000000000000000000000000000000000000000000000000000000008152600401620000a99190620002ef565b60405180910390fd5b620000c3816200017e60201b60201c565b50600073ffffffffffffffffffffffffffffffffffffffff168173ffffffffffffffffffffffffffffffffffffffff160362000136576040517f08c379a00000000000000000000000000000000000000000000000000000000081526004016200012d906200036d565b60405180910390fd5b80600260006101000a81548173ffffffffffffffffffffffffffffffffffffffff021916908373ffffffffffffffffffffffffffffffffffffffff160217905550506200038f565b60008060009054906101000a900473ffffffffffffffffffffffffffffffffffffffff169050816000806101000a81548173ffffffffffffffffffffffffffffffffffffffff021916908373ffffffffffffffffffffffffffffffffffffffff1602179055508173ffffffffffffffffffffffffffffffffffffffff168173ffffffffffffffffffffffffffffffffffffffff167f8be0079c531659141344cd1fd0a4f28419497f9722a3daafe3b4186f6b6457e060405160405180910390a35050565b600080fd5b600073ffffffffffffffffffffffffffffffffffffffff82169050919050565b6000620002748262000247565b9050919050565b620002868162000267565b81146200029257600080fd5b50565b600081519050620002a6816200027b565b92915050565b600060208284031215620002c557620002c462000242565b5b6000620002d58482850162000295565b91505092915050565b620002e98162000267565b82525050565b6000602082019050620003066000830184620002de565b92915050565b600082825260208201905092915050565b7f496e76616c696420747265617375727900000000000000000000000000000000600082015250565b6000620003556010836200030c565b915062000362826200031d565b602082019050919050565b60006020820190508181036000830152620003888162000346565b9050919050565b6111e8806200039f6000396000f3fe6080604052600436106100865760003560e01c8063715018a611610059578063715018a614610126578063787dce3d1461013d5780638da5cb5b14610166578063f0f4426014610191578063f2fde38b146101ba57610086565b806335659fb81461008b5780633e8eaff6146100b657806352383037146100d257806361d027b3146100fb575b600080fd5b34801561009757600080fd5b506100a06101e3565b6040516100ad9190610aff565b60405180910390f35b6100d060048036038101906100cb9190610be7565b6101e9565b005b3480156100de57600080fd5b506100f960048036038101906100f49190610c73565b61047a565b005b34801561010757600080fd5b50610110610606565b60405161011d9190610d0a565b60405180910390f35b34801561013257600080fd5b5061013b61062c565b005b34801561014957600080fd5b50610164600480360381019061015f9190610d25565b610640565b005b34801561017257600080fd5b5061017b6106ce565b6040516101889190610d0a565b60405180910390f35b34801561019d57600080fd5b506101b860048036038101906101b39190610d52565b6106f7565b005b3480156101c657600080fd5b506101e160048036038101906101dc9190610d52565b6107e9565b005b60015481565b600034905060008111610231576040517f08c379a000000000000000000000000000000000000000000000000000000000815260040161022890610ddc565b60405180910390fd5b6000612710600154836102449190610e2b565b61024e9190610e9c565b90506000818361025e9190610ecd565b90506000821115610339576000600260009054906101000a900473ffffffffffffffffffffffffffffffffffffffff1673ffffffffffffffffffffffffffffffffffffffff16836040516102b190610f32565b60006040518083038185875af1925050503d80600081146102ee576040519150601f19603f3d011682016040523d82523d6000602084013e6102f3565b606091505b5050905080610337576040517f08c379a000000000000000000000000000000000000000000000000000000000815260040161032e90610f93565b60405180910390fd5b505b60008111156103f05760008673ffffffffffffffffffffffffffffffffffffffff168260405161036890610f32565b60006040518083038185875af1925050503d80600081146103a5576040519150601f19603f3d011682016040523d82523d6000602084013e6103aa565b606091505b50509050806103ee576040517f08c379a00000000000000000000000000000000000000000000000000000000081526004016103e590610fff565b60405180910390fd5b505b8484604051610400929190611053565b60405180910390208673ffffffffffffffffffffffffffffffffffffffff16600073ffffffffffffffffffffffffffffffffffffffff167f1d53deaef03137ccd2fa5503b6c280dacfce2e7ae1483128fb0ebfc6fa050e8c86858760405161046a9392919061106c565b60405180910390a4505050505050565b600083116104bd576040517f08c379a00000000000000000000000000000000000000000000000000000000081526004016104b490610ddc565b60405180910390fd5b6000612710600154856104d09190610e2b565b6104da9190610e9c565b9050600081856104ea9190610ecd565b905060008211156105455761054433600260009054906101000a900473ffffffffffffffffffffffffffffffffffffffff16848a73ffffffffffffffffffffffffffffffffffffffff1661086f909392919063ffffffff16565b5b600081111561057c5761057b3387838a73ffffffffffffffffffffffffffffffffffffffff1661086f909392919063ffffffff16565b5b838360405161058c929190611053565b60405180910390208673ffffffffffffffffffffffffffffffffffffffff168873ffffffffffffffffffffffffffffffffffffffff167f1d53deaef03137ccd2fa5503b6c280dacfce2e7ae1483128fb0ebfc6fa050e8c8885876040516105f59392919061106c565b60405180910390a450505050505050565b600260009054906101000a900473ffffffffffffffffffffffffffffffffffffffff1681565b6106346108f1565b61063e6000610978565b565b6106486108f1565b6103e881111561068d576040517f08c379a0000000000000000000000000000000000000000000000000000000008152600401610684906110ef565b60405180910390fd5b806001819055507fd10d75876659a287a59a6ccfa2e3fff42f84d94b542837acd30bc184d562de40816040516106c39190610aff565b60405180910390a150565b60008060009054906101000a900473ffffffffffffffffffffffffffffffffffffffff16905090565b6106ff6108f1565b600073ffffffffffffffffffffffffffffffffffffffff168173ffffffffffffffffffffffffffffffffffffffff160361076e576040517f08c379a00000000000000000000000000000000000000000000000000000000081526004016107659061115b565b60405180910390fd5b80600260006101000a81548173ffffffffffffffffffffffffffffffffffffffff021916908373ffffffffffffffffffffffffffffffffffffffff1602179055507f7dae230f18360d76a040c81f050aa14eb9d6dc7901b20fc5d855e2a20fe814d1816040516107de9190610d0a565b60405180910390a150565b6107f16108f1565b600073ffffffffffffffffffffffffffffffffffffffff168173ffffffffffffffffffffffffffffffffffffffff16036108635760006040517f1e4fbdf700000000000000000000000000000000000000000000000000000000815260040161085a9190610d0a565b60405180910390fd5b61086c81610978565b50565b6108eb848573ffffffffffffffffffffffffffffffffffffffff166323b872dd8686866040516024016108a49392919061117b565b604051602081830303815290604052915060e01b6020820180517bffffffffffffffffffffffffffffffffffffffffffffffffffffffff8381831617835250505050610a3c565b50505050565b6108f9610ade565b73ffffffffffffffffffffffffffffffffffffffff166109176106ce565b73ffffffffffffffffffffffffffffffffffffffff16146109765761093a610ade565b6040517f118cdaa700000000000000000000000000000000000000000000000000000000815260040161096d9190610d0a565b60405180910390fd5b565b60008060009054906101000a900473ffffffffffffffffffffffffffffffffffffffff169050816000806101000a81548173ffffffffffffffffffffffffffffffffffffffff021916908373ffffffffffffffffffffffffffffffffffffffff1602179055508173ffffffffffffffffffffffffffffffffffffffff168173ffffffffffffffffffffffffffffffffffffffff167f8be0079c531659141344cd1fd0a4f28419497f9722a3daafe3b4186f6b6457e060405160405180910390a35050565b600080602060008451602086016000885af180610a5f576040513d6000823e3d81fd5b3d925060005191505060008214610a7a576001811415610a96565b60008473ffffffffffffffffffffffffffffffffffffffff163b145b15610ad857836040517f5274afe7000000000000000000000000000000000000000000000000000000008152600401610acf9190610d0a565b60405180910390fd5b50505050565b600033905090565b6000819050919050565b610af981610ae6565b82525050565b6000602082019050610b146000830184610af0565b92915050565b600080fd5b600080fd5b600073ffffffffffffffffffffffffffffffffffffffff82169050919050565b6000610b4f82610b24565b9050919050565b610b5f81610b44565b8114610b6a57600080fd5b50565b600081359050610b7c81610b56565b92915050565b600080fd5b600080fd5b600080fd5b60008083601f840112610ba757610ba6610b82565b5b8235905067ffffffffffffffff811115610bc457610bc3610b87565b5b602083019150836001820283011115610be057610bdf610b8c565b5b9250929050565b600080600060408486031215610c0057610bff610b1a565b5b6000610c0e86828701610b6d565b935050602084013567ffffffffffffffff811115610c2f57610c2e610b1f565b5b610c3b86828701610b91565b92509250509250925092565b610c5081610ae6565b8114610c5b57600080fd5b50565b600081359050610c6d81610c47565b92915050565b600080600080600060808688031215610c8f57610c8e610b1a565b5b6000610c9d88828901610b6d565b9550506020610cae88828901610b6d565b9450506040610cbf88828901610c5e565b935050606086013567ffffffffffffffff811115610ce057610cdf610b1f565b5b610cec88828901610b91565b92509250509295509295909350565b610d0481610b44565b82525050565b6000602082019050610d1f6000830184610cfb565b92915050565b600060208284031215610d3b57610d3a610b1a565b5b6000610d4984828501610c5e565b91505092915050565b600060208284031215610d6857610d67610b1a565b5b6000610d7684828501610b6d565b91505092915050565b600082825260208201905092915050565b7f416d6f756e74206d757374206265203e20300000000000000000000000000000600082015250565b6000610dc6601283610d7f565b9150610dd182610d90565b602082019050919050565b60006020820190508181036000830152610df581610db9565b9050919050565b7f4e487b7100000000000000000000000000000000000000000000000000000000600052601160045260246000fd5b6000610e3682610ae6565b9150610e4183610ae6565b9250828202610e4f81610ae6565b91508282048414831517610e6657610e65610dfc565b5b5092915050565b7f4e487b7100000000000000000000000000000000000000000000000000000000600052601260045260246000fd5b6000610ea782610ae6565b9150610eb283610ae6565b925082610ec257610ec1610e6d565b5b828204905092915050565b6000610ed882610ae6565b9150610ee383610ae6565b9250828203905081811115610efb57610efa610dfc565b5b92915050565b600081905092915050565b50565b6000610f1c600083610f01565b9150610f2782610f0c565b600082019050919050565b6000610f3d82610f0f565b9150819050919050565b7f466565207472616e73666572206661696c656400000000000000000000000000600082015250565b6000610f7d601383610d7f565b9150610f8882610f47565b602082019050919050565b60006020820190508181036000830152610fac81610f70565b9050919050565b7f4d65726368616e74207472616e73666572206661696c65640000000000000000600082015250565b6000610fe9601883610d7f565b9150610ff482610fb3565b602082019050919050565b6000602082019050818103600083015261101881610fdc565b9050919050565b82818337600083830152505050565b600061103a8385610f01565b935061104783858461101f565b82840190509392505050565b600061106082848661102e565b91508190509392505050565b60006060820190506110816000830186610af0565b61108e6020830185610af0565b61109b6040830184610af0565b949350505050565b7f46656520746f6f206869676820286d6178203130252900000000000000000000600082015250565b60006110d9601683610d7f565b91506110e4826110a3565b602082019050919050565b60006020820190508181036000830152611108816110cc565b9050919050565b7f496e76616c696420616464726573730000000000000000000000000000000000600082015250565b6000611145600f83610d7f565b91506111508261110f565b602082019050919050565b6000602082019050818103600083015261117481611138565b9050919050565b60006060820190506111906000830186610cfb565b61119d6020830185610cfb565b6111aa6040830184610af0565b94935050505056fea26469706673582212208ed71e03c0900bb9f1100f7a6e4415299182663976196db579229c2b8666825d64736f6c63430008140033","opcodes":"PUSH1 0x80 PUSH1 0x40 MSTORE PUSH1 0x1E PUSH1 0x1 SSTORE CALLVALUE DUP1 ISZERO PUSH3 0x16 JUMPI PUSH1 0x0 DUP1 REVERT JUMPDEST POP PUSH1 0x40 MLOAD PUSH3 0x1587 CODESIZE SUB DUP1 PUSH3 0x1587 DUP4 CODECOPY DUP2 DUP2 ADD PUSH1 0x40 MSTORE DUP2 ADD SWAP1 PUSH3 0x3C SWAP2 SWAP1 PUSH3 0x2AC JUMP JUMPDEST CALLER PUSH1 0x0 PUSH20 0xFFFFFFFFFFFFFFFFFFFFFFFFFFFFFFFFFFFFFFFF AND DUP2 PUSH20 0xFFFFFFFFFFFFFFFFFFFFFFFFFFFFFFFFFFFFFFFF AND SUB PUSH3 0xB2 JUMPI PUSH1 0x0 PUSH1 0x40 MLOAD PUSH32 0x1E4FBDF700000000000000000000000000000000000000000000000000000000 DUP2 MSTORE PUSH1 0x4 ADD PUSH3 0xA9 SWAP2 SWAP1 PUSH3 0x2EF JUMP JUMPDEST PUSH1 0x40 MLOAD DUP1 SWAP2 SUB SWAP1 REVERT JUMPDEST PUSH3 0xC3 DUP2 PUSH3 0x17E PUSH1 0x20 SHL PUSH1 0x20 SHR JUMP JUMPDEST POP PUSH1 0x0 PUSH20 0xFFFFFFFFFFFFFFFFFFFFFFFFFFFFFFFFFFFFFFFF AND DUP2 PUSH20 0xFFFFFFFFFFFFFFFFFFFFFFFFFFFFFFFFFFFFFFFF AND SUB PUSH3 0x136 JUMPI PUSH1 0x40 MLOAD PUSH32 0x8C379A000000000000000000000000000000000000000000000000000000000 DUP2 MSTORE PUSH1 0x4 ADD PUSH3 0x12D SWAP1 PUSH3 0x36D JUMP JUMPDEST PUSH1 0x40 MLOAD DUP1 SWAP2 SUB SWAP1 REVERT JUMPDEST DUP1 PUSH1 0x2 PUSH1 0x0 PUSH2 0x100 EXP DUP2 SLOAD DUP2 PUSH20 0xFFFFFFFFFFFFFFFFFFFFFFFFFFFFFFFFFFFFFFFF MUL NOT AND SWAP1 DUP4 PUSH20 0xFFFFFFFFFFFFFFFFFFFFFFFFFFFFFFFFFFFFFFFF AND MUL OR SWAP1 SSTORE POP POP PUSH3 0x38F JUMP JUMPDEST PUSH1 0x0 DUP1 PUSH1 0x0 SWAP1 SLOAD SWAP1 PUSH2 0x100 EXP SWAP1 DIV PUSH20 0xFFFFFFFFFFFFFFFFFFFFFFFFFFFFFFFFFFFFFFFF AND SWAP1 POP DUP2 PUSH1 0x0 DUP1 PUSH2 0x100 EXP DUP2 SLOAD DUP2 PUSH20 0xFFFFFFFFFFFFFFFFFFFFFFFFFFFFFFFFFFFFFFFF MUL NOT AND SWAP1 DUP4 PUSH20 0xFFFFFFFFFFFFFFFFFFFFFFFFFFFFFFFFFFFFFFFF AND MUL OR SWAP1 SSTORE POP DUP2 PUSH20 0xFFFFFFFFFFFFFFFFFFFFFFFFFFFFFFFFFFFFFFFF AND DUP2 PUSH20 0xFFFFFFFFFFFFFFFFFFFFFFFFFFFFFFFFFFFFFFFF AND PUSH32 0x8BE0079C531659141344CD1FD0A4F28419497F9722A3DAAFE3B4186F6B6457E0 PUSH1 0x40 MLOAD PUSH1 0x40 MLOAD DUP1 SWAP2 SUB SWAP1 LOG3 POP POP JUMP JUMPDEST PUSH1 0x0 DUP1 REVERT JUMPDEST PUSH1 0x0 PUSH20 0xFFFFFFFFFFFFFFFFFFFFFFFFFFFFFFFFFFFFFFFF DUP3 AND SWAP1 POP SWAP2 SWAP1 POP JUMP JUMPDEST PUSH1 0x0 PUSH3 0x274 DUP3 PUSH3 0x247 JUMP JUMPDEST SWAP1 POP SWAP2 SWAP1 POP JUMP JUMPDEST PUSH3 0x286 DUP2 PUSH3 0x267 JUMP JUMPDEST DUP2 EQ PUSH3 0x292 JUMPI PUSH1 0x0 DUP1 REVERT JUMPDEST POP JUMP JUMPDEST PUSH1 0x0 DUP2 MLOAD SWAP1 POP PUSH3 0x2A6 DUP2 PUSH3 0x27B JUMP JUMPDEST SWAP3 SWAP2 POP POP JUMP JUMPDEST PUSH1 0x0 PUSH1 0x20 DUP3 DUP5 SUB SLT ISZERO PUSH3 0x2C5 JUMPI PUSH3 0x2C4 PUSH3 0x242 JUMP JUMPDEST JUMPDEST PUSH1 0x0 PUSH3 0x2D5 DUP5 DUP3 DUP6 ADD PUSH3 0x295 JUMP JUMPDEST SWAP2 POP POP SWAP3 SWAP2 POP POP JUMP JUMPDEST PUSH3 0x2E9 DUP2 PUSH3 0x267 JUMP JUMPDEST DUP3 MSTORE POP POP JUMP JUMPDEST PUSH1 0x0 PUSH1 0x20 DUP3 ADD SWAP1 POP PUSH3 0x306 PUSH1 0x0 DUP4 ADD DUP5 PUSH3 0x2DE JUMP JUMPDEST SWAP3 SWAP2 POP POP JUMP JUMPDEST PUSH1 0x0 DUP3 DUP3 MSTORE PUSH1 0x20 DUP3 ADD SWAP1 POP SWAP3 SWAP2 POP POP JUMP JUMPDEST PUSH32 0x496E76616C696420747265617375727900000000000000000000000000000000 PUSH1 0x0 DUP3 ADD MSTORE POP JUMP JUMPDEST PUSH1 0x0 PUSH3 0x355 PUSH1 0x10 DUP4 PUSH3 0x30C JUMP JUMPDEST SWAP2 POP PUSH3 0x362 DUP3 PUSH3 0x31D JUMP JUMPDEST PUSH1 0x20 DUP3 ADD SWAP1 POP SWAP2 SWAP1 POP JUMP JUMPDEST PUSH1 0x0 PUSH1 0x20 DUP3 ADD SWAP1 POP DUP2 DUP2 SUB PUSH1 0x0 DUP4 ADD MSTORE PUSH3 0x388 DUP2 PUSH3 0x346 JUMP JUMPDEST SWAP1 POP SWAP2 SWAP1 POP JUMP JUMPDEST PUSH2 0x11E8 DUP1 PUSH3 0x39F PUSH1 0x0 CODECOPY PUSH1 0x0 RETURN INVALID PUSH1 0x80 PUSH1 0x40 MSTORE PUSH1 0x4 CALLDATASIZE LT PUSH2 0x86 JUMPI PUSH1 0x0 CALLDATALOAD PUSH1 0xE0 SHR DUP1 PUSH4 0x715018A6 GT PUSH2 0x59 JUMPI DUP1 PUSH4 0x715018A6 EQ PUSH2 0x126 JUMPI DUP1 PUSH4 0x787DCE3D EQ PUSH2 0x13D JUMPI DUP1 PUSH4 0x8DA5CB5B EQ PUSH2 0x166 JUMPI DUP1 PUSH4 0xF0F44260 EQ PUSH2 0x191 JUMPI DUP1 PUSH4 0xF2FDE38B EQ PUSH2 0x1BA JUMPI PUSH2 0x86 JUMP JUMPDEST DUP1 PUSH4 0x35659FB8 EQ PUSH2 0x8B JUMPI DUP1 PUSH4 0x3E8EAFF6 EQ PUSH2 0xB6 JUMPI DUP1 PUSH4 0x52383037 EQ PUSH2 0xD2 JUMPI DUP1 PUSH4 0x61D027B3 EQ PUSH2 0xFB JUMPI JUMPDEST PUSH1 0x0 DUP1 REVERT JUMPDEST CALLVALUE DUP1 ISZERO PUSH2 0x97 JUMPI PUSH1 0x0 DUP1 REVERT JUMPDEST POP PUSH2 0xA0 PUSH2 0x1E3 JUMP JUMPDEST PUSH1 0x40 MLOAD PUSH2 0xAD SWAP2 SWAP1 PUSH2 0xAFF JUMP JUMPDEST PUSH1 0x40 MLOAD DUP1 SWAP2 SUB SWAP1 RETURN JUMPDEST PUSH2 0xD0 PUSH1 0x4 DUP1 CALLDATASIZE SUB DUP2 ADD SWAP1 PUSH2 0xCB SWAP2 SWAP1 PUSH2 0xBE7 JUMP JUMPDEST PUSH2 0x1E9 JUMP JUMPDEST STOP JUMPDEST CALLVALUE DUP1 ISZERO PUSH2 0xDE JUMPI PUSH1 0x0 DUP1 REVERT JUMPDEST POP PUSH2 0xF9 PUSH1 0x4 DUP1 CALLDATASIZE SUB DUP2 ADD SWAP1 PUSH2 0xF4 SWAP2 SWAP1 PUSH2 0xC73 JUMP JUMPDEST PUSH2 0x47A JUMP JUMPDEST STOP JUMPDEST CALLVALUE DUP1 ISZERO PUSH2 0x107 JUMPI PUSH1 0x0 DUP1 REVERT JUMPDEST POP PUSH2 0x110 PUSH2 0x606 JUMP JUMPDEST PUSH1 0x40 MLOAD PUSH2 0x11D SWAP2 SWAP1 PUSH2 0xD0A JUMP JUMPDEST PUSH1 0x40 MLOAD DUP1 SWAP2 SUB SWAP1 RETURN JUMPDEST CALLVALUE DUP1 ISZERO PUSH2 0x132 JUMPI PUSH1 0x0 DUP1 REVERT JUMPDEST POP PUSH2 0x13B PUSH2 0x62C JUMP JUMPDEST STOP JUMPDEST CALLVALUE DUP1 ISZERO PUSH2 0x149 JUMPI PUSH1 0x0 DUP1 REVERT JUMPDEST POP PUSH2 0x164 PUSH1 0x4 DUP1 CALLDATASIZE SUB DUP2 ADD SWAP1 PUSH2 0x15F SWAP2 SWAP1 PUSH2 0xD25 JUMP JUMPDEST PUSH2 0x640 JUMP JUMPDEST STOP JUMPDEST CALLVALUE DUP1 ISZERO PUSH2 0x172 JUMPI PUSH1 0x0 DUP1 REVERT JUMPDEST POP PUSH2 0x17B PUSH2 0x6CE JUMP JUMPDEST PUSH1 0x40 MLOAD PUSH2 0x188 SWAP2 SWAP1 PUSH2 0xD0A JUMP JUMPDEST PUSH1 0x40 MLOAD DUP1 SWAP2 SUB SWAP1 RETURN JUMPDEST CALLVALUE DUP1 ISZERO PUSH2 0x19D JUMPI PUSH1 0x0 DUP1 REVERT JUMPDEST POP PUSH2 0x1B8 PUSH1 0x4 DUP1 CALLDATASIZE SUB DUP2 ADD SWAP1 PUSH2 0x1B3 SWAP2 SWAP1 PUSH2 0xD52 JUMP JUMPDEST PUSH2 0x6F7 JUMP JUMPDEST STOP JUMPDEST CALLVALUE DUP1 ISZERO PUSH2 0x1C6 JUMPI PUSH1 0x0 DUP1 REVERT JUMPDEST POP PUSH2 0x1E1 PUSH1 0x4 DUP1 CALLDATASIZE SUB DUP2 ADD SWAP1 PUSH2 0x1DC SWAP2 SWAP1 PUSH2 0xD52 JUMP JUMPDEST PUSH2 0x7E9 JUMP JUMPDEST STOP JUMPDEST PUSH1 0x1 SLOAD DUP2 JUMP JUMPDEST PUSH1 0x0 CALLVALUE SWAP1 POP PUSH1 0x0 DUP2 GT PUSH2 0x231 JUMPI PUSH1 0x40 MLOAD PUSH32 0x8C379A000000000000000000000000000000000000000000000000000000000 DUP2 MSTORE PUSH1 0x4 ADD PUSH2 0x228 SWAP1 PUSH2 0xDDC JUMP JUMPDEST PUSH1 0x40 MLOAD DUP1 SWAP2 SUB SWAP1 REVERT JUMPDEST PUSH1 0x0 PUSH2 0x2710 PUSH1 0x1 SLOAD DUP4 PUSH2 0x244 SWAP2 SWAP1 PUSH2 0xE2B JUMP JUMPDEST PUSH2 0x24E SWAP2 SWAP1 PUSH2 0xE9C JUMP JUMPDEST SWAP1 POP PUSH1 0x0 DUP2 DUP4 PUSH2 0x25E SWAP2 SWAP1 PUSH2 0xECD JUMP JUMPDEST SWAP1 POP PUSH1 0x0 DUP3 GT ISZERO PUSH2 0x339 JUMPI PUSH1 0x0 PUSH1 0x2 PUSH1 0x0 SWAP1 SLOAD SWAP1 PUSH2 0x100 EXP SWAP1 DIV PUSH20 0xFFFFFFFFFFFFFFFFFFFFFFFFFFFFFFFFFFFFFFFF AND PUSH20 0xFFFFFFFFFFFFFFFFFFFFFFFFFFFFFFFFFFFFFFFF AND DUP4 PUSH1 0x40 MLOAD PUSH2 0x2B1 SWAP1 PUSH2 0xF32 JUMP JUMPDEST PUSH1 0x0 PUSH1 0x40 MLOAD DUP1 DUP4 SUB DUP2 DUP6 DUP8 GAS CALL SWAP3 POP POP POP RETURNDATASIZE DUP1 PUSH1 0x0 DUP2 EQ PUSH2 0x2EE JUMPI PUSH1 0x40 MLOAD SWAP2 POP PUSH1 0x1F NOT PUSH1 0x3F RETURNDATASIZE ADD AND DUP3 ADD PUSH1 0x40 MSTORE RETURNDATASIZE DUP3 MSTORE RETURNDATASIZE PUSH1 0x0 PUSH1 0x20 DUP5 ADD RETURNDATACOPY PUSH2 0x2F3 JUMP JUMPDEST PUSH1 0x60 SWAP2 POP JUMPDEST POP POP SWAP1 POP DUP1 PUSH2 0x337 JUMPI PUSH1 0x40 MLOAD PUSH32 0x8C379A000000000000000000000000000000000000000000000000000000000 DUP2 MSTORE PUSH1 0x4 ADD PUSH2 0x32E SWAP1 PUSH2 0xF93 JUMP JUMPDEST PUSH1 0x40 MLOAD DUP1 SWAP2 SUB SWAP1 REVERT JUMPDEST POP JUMPDEST PUSH1 0x0 DUP2 GT ISZERO PUSH2 0x3F0 JUMPI PUSH1 0x0 DUP7 PUSH20 0xFFFFFFFFFFFFFFFFFFFFFFFFFFFFFFFFFFFFFFFF AND DUP3 PUSH1 0x40 MLOAD PUSH2 0x368 SWAP1 PUSH2 0xF32 JUMP JUMPDEST PUSH1 0x0 PUSH1 0x40 MLOAD DUP1 DUP4 SUB DUP2 DUP6 DUP8 GAS CALL SWAP3 POP POP POP RETURNDATASIZE DUP1 PUSH1 0x0 DUP2 EQ PUSH2 0x3A5 JUMPI PUSH1 0x40 MLOAD SWAP2 POP PUSH1 0x1F NOT PUSH1 0x3F RETURNDATASIZE ADD AND DUP3 ADD PUSH1 0x40 MSTORE RETURNDATASIZE DUP3 MSTORE RETURNDATASIZE PUSH1 0x0 PUSH1 0x20 DUP5 ADD RETURNDATACOPY PUSH2 0x3AA JUMP JUMPDEST PUSH1 0x60 SWAP2 POP JUMPDEST POP POP SWAP1 POP DUP1 PUSH2 0x3EE JUMPI PUSH1 0x40 MLOAD PUSH32 0x8C379A000000000000000000000000000000000000000000000000000000000 DUP2 MSTORE PUSH1 0x4 ADD PUSH2 0x3E5 SWAP1 PUSH2 0xFFF JUMP JUMPDEST PUSH1 0x40 MLOAD DUP1 SWAP2 SUB SWAP1 REVERT JUMPDEST POP JUMPDEST DUP5 DUP5 PUSH1 0x40 MLOAD PUSH2 0x400 SWAP3 SWAP2 SWAP1 PUSH2 0x1053 JUMP JUMPDEST PUSH1 0x40 MLOAD DUP1 SWAP2 SUB SWAP1 KECCAK256 DUP7 PUSH20 0xFFFFFFFFFFFFFFFFFFFFFFFFFFFFFFFFFFFFFFFF AND PUSH1 0x0 PUSH20 0xFFFFFFFFFFFFFFFFFFFFFFFFFFFFFFFFFFFFFFFF AND PUSH32 0x1D53DEAEF03137CCD2FA5503B6C280DACFCE2E7AE1483128FB0EBFC6FA050E8C DUP7 DUP6 DUP8 PUSH1 0x40 MLOAD PUSH2 0x46A SWAP4 SWAP3 SWAP2 SWAP1 PUSH2 0x106C JUMP JUMPDEST PUSH1 0x40 MLOAD DUP1 SWAP2 SUB SWAP1 LOG4 POP POP POP POP POP POP JUMP JUMPDEST PUSH1 0x0 DUP4 GT PUSH2 0x4BD JUMPI PUSH1 0x40 MLOAD PUSH32 0x8C379A000000000000000000000000000000000000000000000000000000000 DUP2 MSTORE PUSH1 0x4 ADD PUSH2 0x4B4 SWAP1 PUSH2 0xDDC JUMP JUMPDEST PUSH1 0x40 MLOAD DUP1 SWAP2 SUB SWAP1 REVERT JUMPDEST PUSH1 0x0 PUSH2 0x2710 PUSH1 0x1 SLOAD DUP6 PUSH2 0x4D0 SWAP2 SWAP1 PUSH2 0xE2B JUMP JUMPDEST PUSH2 0x4DA SWAP2 SWAP1 PUSH2 0xE9C JUMP JUMPDEST SWAP1 POP PUSH1 0x0 DUP2 DUP6 PUSH2 0x4EA SWAP2 SWAP1 PUSH2 0xECD JUMP JUMPDEST SWAP1 POP PUSH1 0x0 DUP3 GT ISZERO PUSH2 0x545 JUMPI PUSH2 0x544 CALLER PUSH1 0x2 PUSH1 0x0 SWAP1 SLOAD SWAP1 PUSH2 0x100 EXP SWAP1 DIV PUSH20 0xFFFFFFFFFFFFFFFFFFFFFFFFFFFFFFFFFFFFFFFF AND DUP5 DUP11 PUSH20 0xFFFFFFFFFFFFFFFFFFFFFFFFFFFFFFFFFFFFFFFF AND PUSH2 0x86F SWAP1 SWAP4 SWAP3 SWAP2 SWAP1 PUSH4 0xFFFFFFFF AND JUMP JUMPDEST JUMPDEST PUSH1 0x0 DUP2 GT ISZERO PUSH2 0x57C JUMPI PUSH2 0x57B CALLER DUP8 DUP4 DUP11 PUSH20 0xFFFFFFFFFFFFFFFFFFFFFFFFFFFFFFFFFFFFFFFF AND PUSH2 0x86F SWAP1 SWAP4 SWAP3 SWAP2 SWAP1 PUSH4 0xFFFFFFFF AND JUMP JUMPDEST JUMPDEST DUP4 DUP4 PUSH1 0x40 MLOAD PUSH2 0x58C SWAP3 SWAP2 SWAP1 PUSH2 0x1053 JUMP JUMPDEST PUSH1 0x40 MLOAD DUP1 SWAP2 SUB SWAP1 KECCAK256 DUP7 PUSH20 0xFFFFFFFFFFFFFFFFFFFFFFFFFFFFFFFFFFFFFFFF AND DUP9 PUSH20 0xFFFFFFFFFFFFFFFFFFFFFFFFFFFFFFFFFFFFFFFF AND PUSH32 0x1D53DEAEF03137CCD2FA5503B6C280DACFCE2E7AE1483128FB0EBFC6FA050E8C DUP9 DUP6 DUP8 PUSH1 0x40 MLOAD PUSH2 0x5F5 SWAP4 SWAP3 SWAP2 SWAP1 PUSH2 0x106C JUMP JUMPDEST PUSH1 0x40 MLOAD DUP1 SWAP2 SUB SWAP1 LOG4 POP POP POP POP POP POP POP JUMP JUMPDEST PUSH1 0x2 PUSH1 0x0 SWAP1 SLOAD SWAP1 PUSH2 0x100 EXP SWAP1 DIV PUSH20 0xFFFFFFFFFFFFFFFFFFFFFFFFFFFFFFFFFFFFFFFF AND DUP2 JUMP JUMPDEST PUSH2 0x634 PUSH2 0x8F1 JUMP JUMPDEST PUSH2 0x63E PUSH1 0x0 PUSH2 0x978 JUMP JUMPDEST JUMP JUMPDEST PUSH2 0x648 PUSH2 0x8F1 JUMP JUMPDEST PUSH2 0x3E8 DUP2 GT ISZERO PUSH2 0x68D JUMPI PUSH1 0x40 MLOAD PUSH32 0x8C379A000000000000000000000000000000000000000000000000000000000 DUP2 MSTORE PUSH1 0x4 ADD PUSH2 0x684 SWAP1 PUSH2 0x10EF JUMP JUMPDEST PUSH1 0x40 MLOAD DUP1 SWAP2 SUB SWAP1 REVERT JUMPDEST DUP1 PUSH1 0x1 DUP2 SWAP1 SSTORE POP PUSH32 0xD10D75876659A287A59A6CCFA2E3FFF42F84D94B542837ACD30BC184D562DE40 DUP2 PUSH1 0x40 MLOAD PUSH2 0x6C3 SWAP2 SWAP1 PUSH2 0xAFF JUMP JUMPDEST PUSH1 0x40 MLOAD DUP1 SWAP2 SUB SWAP1 LOG1 POP JUMP JUMPDEST PUSH1 0x0 DUP1 PUSH1 0x0 SWAP1 SLOAD SWAP1 PUSH2 0x100 EXP SWAP1 DIV PUSH20 0xFFFFFFFFFFFFFFFFFFFFFFFFFFFFFFFFFFFFFFFF AND SWAP1 POP SWAP1 JUMP JUMPDEST PUSH2 0x6FF PUSH2 0x8F1 JUMP JUMPDEST PUSH1 0x0 PUSH20 0xFFFFFFFFFFFFFFFFFFFFFFFFFFFFFFFFFFFFFFFF AND DUP2 PUSH20 0xFFFFFFFFFFFFFFFFFFFFFFFFFFFFFFFFFFFFFFFF AND SUB PUSH2 0x76E JUMPI PUSH1 0x40 MLOAD PUSH32 0x8C379A000000000000000000000000000000000000000000000000000000000 DUP2 MSTORE PUSH1 0x4 ADD PUSH2 0x765 SWAP1 PUSH2 0x115B JUMP JUMPDEST PUSH1 0x40 MLOAD DUP1 SWAP2 SUB SWAP1 REVERT JUMPDEST DUP1 PUSH1 0x2 PUSH1 0x0 PUSH2 0x100 EXP DUP2 SLOAD DUP2 PUSH20 0xFFFFFFFFFFFFFFFFFFFFFFFFFFFFFFFFFFFFFFFF MUL NOT AND SWAP1 DUP4 PUSH20 0xFFFFFFFFFFFFFFFFFFFFFFFFFFFFFFFFFFFFFFFF AND MUL OR SWAP1 SSTORE POP PUSH32 0x7DAE230F18360D76A040C81F050AA14EB9D6DC7901B20FC5D855E2A20FE814D1 DUP2 PUSH1 0x40 MLOAD PUSH2 0x7DE SWAP2 SWAP1 PUSH2 0xD0A JUMP JUMPDEST PUSH1 0x40 MLOAD DUP1 SWAP2 SUB SWAP1 LOG1 POP JUMP JUMPDEST PUSH2 0x7F1 PUSH2 0x8F1 JUMP JUMPDEST PUSH1 0x0 PUSH20 0xFFFFFFFFFFFFFFFFFFFFFFFFFFFFFFFFFFFFFFFF AND DUP2 PUSH20 0xFFFFFFFFFFFFFFFFFFFFFFFFFFFFFFFFFFFFFFFF AND SUB PUSH2 0x863 JUMPI PUSH1 0x0 PUSH1 0x40 MLOAD PUSH32 0x1E4FBDF700000000000000000000000000000000000000000000000000000000 DUP2 MSTORE PUSH1 0x4 ADD PUSH2 0x85A SWAP2 SWAP1 PUSH2 0xD0A JUMP JUMPDEST PUSH1 0x40 MLOAD DUP1 SWAP2 SUB SWAP1 REVERT JUMPDEST PUSH2 0x86C DUP2 PUSH2 0x978 JUMP JUMPDEST POP JUMP JUMPDEST PUSH2 0x8EB DUP5 DUP6 PUSH20 0xFFFFFFFFFFFFFFFFFFFFFFFFFFFFFFFFFFFFFFFF AND PUSH4 0x23B872DD DUP7 DUP7 DUP7 PUSH1 0x40 MLOAD PUSH1 0x24 ADD PUSH2 0x8A4 SWAP4 SWAP3 SWAP2 SWAP1 PUSH2 0x117B JUMP JUMPDEST PUSH1 0x40 MLOAD PUSH1 0x20 DUP2 DUP4 SUB SUB DUP2 MSTORE SWAP1 PUSH1 0x40 MSTORE SWAP2 POP PUSH1 0xE0 SHL PUSH1 0x20 DUP3 ADD DUP1 MLOAD PUSH28 0xFFFFFFFFFFFFFFFFFFFFFFFFFFFFFFFFFFFFFFFFFFFFFFFFFFFFFFFF DUP4 DUP2 DUP4 AND OR DUP4 MSTORE POP POP POP POP PUSH2 0xA3C JUMP JUMPDEST POP POP POP POP JUMP JUMPDEST PUSH2 0x8F9 PUSH2 0xADE JUMP JUMPDEST PUSH20 0xFFFFFFFFFFFFFFFFFFFFFFFFFFFFFFFFFFFFFFFF AND PUSH2 0x917 PUSH2 0x6CE JUMP JUMPDEST PUSH20 0xFFFFFFFFFFFFFFFFFFFFFFFFFFFFFFFFFFFFFFFF AND EQ PUSH2 0x976 JUMPI PUSH2 0x93A PUSH2 0xADE JUMP JUMPDEST PUSH1 0x40 MLOAD PUSH32 0x118CDAA700000000000000000000000000000000000000000000000000000000 DUP2 MSTORE PUSH1 0x4 ADD PUSH2 0x96D SWAP2 SWAP1 PUSH2 0xD0A JUMP JUMPDEST PUSH1 0x40 MLOAD DUP1 SWAP2 SUB SWAP1 REVERT JUMPDEST JUMP JUMPDEST PUSH1 0x0 DUP1 PUSH1 0x0 SWAP1 SLOAD SWAP1 PUSH2 0x100 EXP SWAP1 DIV PUSH20 0xFFFFFFFFFFFFFFFFFFFFFFFFFFFFFFFFFFFFFFFF AND SWAP1 POP DUP2 PUSH1 0x0 DUP1 PUSH2 0x100 EXP DUP2 SLOAD DUP2 PUSH20 0xFFFFFFFFFFFFFFFFFFFFFFFFFFFFFFFFFFFFFFFF MUL NOT AND SWAP1 DUP4 PUSH20 0xFFFFFFFFFFFFFFFFFFFFFFFFFFFFFFFFFFFFFFFF AND MUL OR SWAP1 SSTORE POP DUP2 PUSH20 0xFFFFFFFFFFFFFFFFFFFFFFFFFFFFFFFFFFFFFFFF AND DUP2 PUSH20 0xFFFFFFFFFFFFFFFFFFFFFFFFFFFFFFFFFFFFFFFF AND PUSH32 0x8BE0079C531659141344CD1FD0A4F28419497F9722A3DAAFE3B4186F6B6457E0 PUSH1 0x40 MLOAD PUSH1 0x40 MLOAD DUP1 SWAP2 SUB SWAP1 LOG3 POP POP JUMP JUMPDEST PUSH1 0x0 DUP1 PUSH1 0x20 PUSH1 0x0 DUP5 MLOAD PUSH1 0x20 DUP7 ADD PUSH1 0x0 DUP9 GAS CALL DUP1 PUSH2 0xA5F JUMPI PUSH1 0x40 MLOAD RETURNDATASIZE PUSH1 0x0 DUP3 RETURNDATACOPY RETURNDATASIZE DUP2 REVERT JUMPDEST RETURNDATASIZE SWAP3 POP PUSH1 0x0 MLOAD SWAP2 POP POP PUSH1 0x0 DUP3 EQ PUSH2 0xA7A JUMPI PUSH1 0x1 DUP2 EQ ISZERO PUSH2 0xA96 JUMP JUMPDEST PUSH1 0x0 DUP5 PUSH20 0xFFFFFFFFFFFFFFFFFFFFFFFFFFFFFFFFFFFFFFFF AND EXTCODESIZE EQ JUMPDEST ISZERO PUSH2 0xAD8 JUMPI DUP4 PUSH1 0x40 MLOAD PUSH32 0x5274AFE700000000000000000000000000000000000000000000000000000000 DUP2 MSTORE PUSH1 0x4 ADD PUSH2 0xACF SWAP2 SWAP1 PUSH2 0xD0A JUMP JUMPDEST PUSH1 0x40 MLOAD DUP1 SWAP2 SUB SWAP1 REVERT JUMPDEST POP POP POP POP JUMP JUMPDEST PUSH1 0x0 CALLER SWAP1 POP SWAP1 JUMP JUMPDEST PUSH1 0x0 DUP2 SWAP1 POP SWAP2 SWAP1 POP JUMP JUMPDEST PUSH2 0xAF9 DUP2 PUSH2 0xAE6 JUMP JUMPDEST DUP3 MSTORE POP POP JUMP JUMPDEST PUSH1 0x0 PUSH1 0x20 DUP3 ADD SWAP1 POP PUSH2 0xB14 PUSH1 0x0 DUP4 ADD DUP5 PUSH2 0xAF0 JUMP JUMPDEST SWAP3 SWAP2 POP POP JUMP JUMPDEST PUSH1 0x0 DUP1 REVERT JUMPDEST PUSH1 0x0 DUP1 REVERT JUMPDEST PUSH1 0x0 PUSH20 0xFFFFFFFFFFFFFFFFFFFFFFFFFFFFFFFFFFFFFFFF DUP3 AND SWAP1 POP SWAP2 SWAP1 POP JUMP JUMPDEST PUSH1 0x0 PUSH2 0xB4F DUP3 PUSH2 0xB24 JUMP JUMPDEST SWAP1 POP SWAP2 SWAP1 POP JUMP JUMPDEST PUSH2 0xB5F DUP2 PUSH2 0xB44 JUMP JUMPDEST DUP2 EQ PUSH2 0xB6A JUMPI PUSH1 0x0 DUP1 REVERT JUMPDEST POP JUMP JUMPDEST PUSH1 0x0 DUP2 CALLDATALOAD SWAP1 POP PUSH2 0xB7C DUP2 PUSH2 0xB56 JUMP JUMPDEST SWAP3 SWAP2 POP POP JUMP JUMPDEST PUSH1 0x0 DUP1 REVERT JUMPDEST PUSH1 0x0 DUP1 REVERT JUMPDEST PUSH1 0x0 DUP1 REVERT JUMPDEST PUSH1 0x0 DUP1 DUP4 PUSH1 0x1F DUP5 ADD SLT PUSH2 0xBA7 JUMPI PUSH2 0xBA6 PUSH2 0xB82 JUMP JUMPDEST JUMPDEST DUP3 CALLDATALOAD SWAP1 POP PUSH8 0xFFFFFFFFFFFFFFFF DUP2 GT ISZERO PUSH2 0xBC4 JUMPI PUSH2 0xBC3 PUSH2 0xB87 JUMP JUMPDEST JUMPDEST PUSH1 0x20 DUP4 ADD SWAP2 POP DUP4 PUSH1 0x1 DUP3 MUL DUP4 ADD GT ISZERO PUSH2 0xBE0 JUMPI PUSH2 0xBDF PUSH2 0xB8C JUMP JUMPDEST JUMPDEST SWAP3 POP SWAP3 SWAP1 POP JUMP JUMPDEST PUSH1 0x0 DUP1 PUSH1 0x0 PUSH1 0x40 DUP5 DUP7 SUB SLT ISZERO PUSH2 0xC00 JUMPI PUSH2 0xBFF PUSH2 0xB1A JUMP JUMPDEST JUMPDEST PUSH1 0x0 PUSH2 0xC0E DUP7 DUP3 DUP8 ADD PUSH2 0xB6D JUMP JUMPDEST SWAP4 POP POP PUSH1 0x20 DUP5 ADD CALLDATALOAD PUSH8 0xFFFFFFFFFFFFFFFF DUP2 GT ISZERO PUSH2 0xC2F JUMPI PUSH2 0xC2E PUSH2 0xB1F JUMP JUMPDEST JUMPDEST PUSH2 0xC3B DUP7 DUP3 DUP8 ADD PUSH2 0xB91 JUMP JUMPDEST SWAP3 POP SWAP3 POP POP SWAP3 POP SWAP3 POP SWAP3 JUMP JUMPDEST PUSH2 0xC50 DUP2 PUSH2 0xAE6 JUMP JUMPDEST DUP2 EQ PUSH2 0xC5B JUMPI PUSH1 0x0 DUP1 REVERT JUMPDEST POP JUMP JUMPDEST PUSH1 0x0 DUP2 CALLDATALOAD SWAP1 POP PUSH2 0xC6D DUP2 PUSH2 0xC47 JUMP JUMPDEST SWAP3 SWAP2 POP POP JUMP JUMPDEST PUSH1 0x0 DUP1 PUSH1 0x0 DUP1 PUSH1 0x0 PUSH1 0x80 DUP7 DUP9 SUB SLT ISZERO PUSH2 0xC8F JUMPI PUSH2 0xC8E PUSH2 0xB1A JUMP JUMPDEST JUMPDEST PUSH1 0x0 PUSH2 0xC9D DUP9 DUP3 DUP10 ADD PUSH2 0xB6D JUMP JUMPDEST SWAP6 POP POP PUSH1 0x20 PUSH2 0xCAE DUP9 DUP3 DUP10 ADD PUSH2 0xB6D JUMP JUMPDEST SWAP5 POP POP PUSH1 0x40 PUSH2 0xCBF DUP9 DUP3 DUP10 ADD PUSH2 0xC5E JUMP JUMPDEST SWAP4 POP POP PUSH1 0x60 DUP7 ADD CALLDATALOAD PUSH8 0xFFFFFFFFFFFFFFFF DUP2 GT ISZERO PUSH2 0xCE0 JUMPI PUSH2 0xCDF PUSH2 0xB1F JUMP JUMPDEST JUMPDEST PUSH2 0xCEC DUP9 DUP3 DUP10 ADD PUSH2 0xB91 JUMP JUMPDEST SWAP3 POP SWAP3 POP POP SWAP3 SWAP6 POP SWAP3 SWAP6 SWAP1 SWAP4 POP JUMP JUMPDEST PUSH2 0xD04 DUP2 PUSH2 0xB44 JUMP JUMPDEST DUP3 MSTORE POP POP JUMP JUMPDEST PUSH1 0x0 PUSH1 0x20 DUP3 ADD SWAP1 POP PUSH2 0xD1F PUSH1 0x0 DUP4 ADD DUP5 PUSH2 0xCFB JUMP JUMPDEST SWAP3 SWAP2 POP POP JUMP JUMPDEST PUSH1 0x0 PUSH1 0x20 DUP3 DUP5 SUB SLT ISZERO PUSH2 0xD3B JUMPI PUSH2 0xD3A PUSH2 0xB1A JUMP JUMPDEST JUMPDEST PUSH1 0x0 PUSH2 0xD49 DUP5 DUP3 DUP6 ADD PUSH2 0xC5E JUMP JUMPDEST SWAP2 POP POP SWAP3 SWAP2 POP POP JUMP JUMPDEST PUSH1 0x0 PUSH1 0x20 DUP3 DUP5 SUB SLT ISZERO PUSH2 0xD68 JUMPI PUSH2 0xD67 PUSH2 0xB1A JUMP JUMPDEST JUMPDEST PUSH1 0x0 PUSH2 0xD76 DUP5 DUP3 DUP6 ADD PUSH2 0xB6D JUMP JUMPDEST SWAP2 POP POP SWAP3 SWAP2 POP POP JUMP JUMPDEST PUSH1 0x0 DUP3 DUP3 MSTORE PUSH1 0x20 DUP3 ADD SWAP1 POP SWAP3 SWAP2 POP POP JUMP JUMPDEST PUSH32 0x416D6F756E74206D757374206265203E20300000000000000000000000000000 PUSH1 0x0 DUP3 ADD MSTORE POP JUMP JUMPDEST PUSH1 0x0 PUSH2 0xDC6 PUSH1 0x12 DUP4 PUSH2 0xD7F JUMP JUMPDEST SWAP2 POP PUSH2 0xDD1 DUP3 PUSH2 0xD90 JUMP JUMPDEST PUSH1 0x20 DUP3 ADD SWAP1 POP SWAP2 SWAP1 POP JUMP JUMPDEST PUSH1 0x0 PUSH1 0x20 DUP3 ADD SWAP1 POP DUP2 DUP2 SUB PUSH1 0x0 DUP4 ADD MSTORE PUSH2 0xDF5 DUP2 PUSH2 0xDB9 JUMP JUMPDEST SWAP1 POP SWAP2 SWAP1 POP JUMP JUMPDEST PUSH32 0x4E487B7100000000000000000000000000000000000000000000000000000000 PUSH1 0x0 MSTORE PUSH1 0x11 PUSH1 0x4 MSTORE PUSH1 0x24 PUSH1 0x0 REVERT JUMPDEST PUSH1 0x0 PUSH2 0xE36 DUP3 PUSH2 0xAE6 JUMP JUMPDEST SWAP2 POP PUSH2 0xE41 DUP4 PUSH2 0xAE6 JUMP JUMPDEST SWAP3 POP DUP3 DUP3 MUL PUSH2 0xE4F DUP2 PUSH2 0xAE6 JUMP JUMPDEST SWAP2 POP DUP3 DUP3 DIV DUP5 EQ DUP4 ISZERO OR PUSH2 0xE66 JUMPI PUSH2 0xE65 PUSH2 0xDFC JUMP JUMPDEST JUMPDEST POP SWAP3 SWAP2 POP POP JUMP JUMPDEST PUSH32 0x4E487B7100000000000000000000000000000000000000000000000000000000 PUSH1 0x0 MSTORE PUSH1 0x12 PUSH1 0x4 MSTORE PUSH1 0x24 PUSH1 0x0 REVERT JUMPDEST PUSH1 0x0 PUSH2 0xEA7 DUP3 PUSH2 0xAE6 JUMP JUMPDEST SWAP2 POP PUSH2 0xEB2 DUP4 PUSH2 0xAE6 JUMP JUMPDEST SWAP3 POP DUP3 PUSH2 0xEC2 JUMPI PUSH2 0xEC1 PUSH2 0xE6D JUMP JUMPDEST JUMPDEST DUP3 DUP3 DIV SWAP1 POP SWAP3 SWAP2 POP POP JUMP JUMPDEST PUSH1 0x0 PUSH2 0xED8 DUP3 PUSH2 0xAE6 JUMP JUMPDEST SWAP2 POP PUSH2 0xEE3 DUP4 PUSH2 0xAE6 JUMP JUMPDEST SWAP3 POP DUP3 DUP3 SUB SWAP1 POP DUP2 DUP2 GT ISZERO PUSH2 0xEFB JUMPI PUSH2 0xEFA PUSH2 0xDFC JUMP JUMPDEST JUMPDEST SWAP3 SWAP2 POP POP JUMP JUMPDEST PUSH1 0x0 DUP2 SWAP1 POP SWAP3 SWAP2 POP POP JUMP JUMPDEST POP JUMP JUMPDEST PUSH1 0x0 PUSH2 0xF1C PUSH1 0x0 DUP4 PUSH2 0xF01 JUMP JUMPDEST SWAP2 POP PUSH2 0xF27 DUP3 PUSH2 0xF0C JUMP JUMPDEST PUSH1 0x0 DUP3 ADD SWAP1 POP SWAP2 SWAP1 POP JUMP JUMPDEST PUSH1 0x0 PUSH2 0xF3D DUP3 PUSH2 0xF0F JUMP JUMPDEST SWAP2 POP DUP2 SWAP1 POP SWAP2 SWAP1 POP JUMP JUMPDEST PUSH32 0x466565207472616E73666572206661696C656400000000000000000000000000 PUSH1 0x0 DUP3 ADD MSTORE POP JUMP JUMPDEST PUSH1 0x0 PUSH2 0xF7D PUSH1 0x13 DUP4 PUSH2 0xD7F JUMP JUMPDEST SWAP2 POP PUSH2 0xF88 DUP3 PUSH2 0xF47 JUMP JUMPDEST PUSH1 0x20 DUP3 ADD SWAP1 POP SWAP2 SWAP1 POP JUMP JUMPDEST PUSH1 0x0 PUSH1 0x20 DUP3 ADD SWAP1 POP DUP2 DUP2 SUB PUSH1 0x0 DUP4 ADD MSTORE PUSH2 0xFAC DUP2 PUSH2 0xF70 JUMP JUMPDEST SWAP1 POP SWAP2 SWAP1 POP JUMP JUMPDEST PUSH32 0x4D65726368616E74207472616E73666572206661696C65640000000000000000 PUSH1 0x0 DUP3 ADD MSTORE POP JUMP JUMPDEST PUSH1 0x0 PUSH2 0xFE9 PUSH1 0x18 DUP4 PUSH2 0xD7F JUMP JUMPDEST SWAP2 POP PUSH2 0xFF4 DUP3 PUSH2 0xFB3 JUMP JUMPDEST PUSH1 0x20 DUP3 ADD SWAP1 POP SWAP2 SWAP1 POP JUMP JUMPDEST PUSH1 0x0 PUSH1 0x20 DUP3 ADD SWAP1 POP DUP2 DUP2 SUB PUSH1 0x0 DUP4 ADD MSTORE PUSH2 0x1018 DUP2 PUSH2 0xFDC JUMP JUMPDEST SWAP1 POP SWAP2 SWAP1 POP JUMP JUMPDEST DUP3 DUP2 DUP4 CALLDATACOPY PUSH1 0x0 DUP4 DUP4 ADD MSTORE POP POP POP JUMP JUMPDEST PUSH1 0x0 PUSH2 0x103A DUP4 DUP6 PUSH2 0xF01 JUMP JUMPDEST SWAP4 POP PUSH2 0x1047 DUP4 DUP6 DUP5 PUSH2 0x101F JUMP JUMPDEST DUP3 DUP5 ADD SWAP1 POP SWAP4 SWAP3 POP POP POP JUMP JUMPDEST PUSH1 0x0 PUSH2 0x1060 DUP3 DUP5 DUP7 PUSH2 0x102E JUMP JUMPDEST SWAP2 POP DUP2 SWAP1 POP SWAP4 SWAP3 POP POP POP JUMP JUMPDEST PUSH1 0x0 PUSH1 0x60 DUP3 ADD SWAP1 POP PUSH2 0x1081 PUSH1 0x0 DUP4 ADD DUP7 PUSH2 0xAF0 JUMP JUMPDEST PUSH2 0x108E PUSH1 0x20 DUP4 ADD DUP6 PUSH2 0xAF0 JUMP JUMPDEST PUSH2 0x109B PUSH1 0x40 DUP4 ADD DUP5 PUSH2 0xAF0 JUMP JUMPDEST SWAP5 SWAP4 POP POP POP POP JUMP JUMPDEST PUSH32 0x46656520746F6F206869676820286D6178203130252900000000000000000000 PUSH1 0x0 DUP3 ADD MSTORE POP JUMP JUMPDEST PUSH1 0x0 PUSH2 0x10D9 PUSH1 0x16 DUP4 PUSH2 0xD7F JUMP JUMPDEST SWAP2 POP PUSH2 0x10E4 DUP3 PUSH2 0x10A3 JUMP JUMPDEST PUSH1 0x20 DUP3 ADD SWAP1 POP SWAP2 SWAP1 POP JUMP JUMPDEST PUSH1 0x0 PUSH1 0x20 DUP3 ADD SWAP1 POP DUP2 DUP2 SUB PUSH1 0x0 DUP4 ADD MSTORE PUSH2 0x1108 DUP2 PUSH2 0x10CC JUMP JUMPDEST SWAP1 POP SWAP2 SWAP1 POP JUMP JUMPDEST PUSH32 0x496E76616C696420616464726573730000000000000000000000000000000000 PUSH1 0x0 DUP3 ADD MSTORE POP JUMP JUMPDEST PUSH1 0x0 PUSH2 0x1145 PUSH1 0xF DUP4 PUSH2 0xD7F JUMP JUMPDEST SWAP2 POP PUSH2 0x1150 DUP3 PUSH2 0x110F JUMP JUMPDEST PUSH1 0x20 DUP3 ADD SWAP1 POP SWAP2 SWAP1 POP JUMP JUMPDEST PUSH1 0x0 PUSH1 0x20 DUP3 ADD SWAP1 POP DUP2 DUP2 SUB PUSH1 0x0 DUP4 ADD MSTORE PUSH2 0x1174 DUP2 PUSH2 0x1138 JUMP JUMPDEST SWAP1 POP SWAP2 SWAP1 POP JUMP JUMPDEST PUSH1 0x0 PUSH1 0x60 DUP3 ADD SWAP1 POP PUSH2 0x1190 PUSH1 0x0 DUP4 ADD DUP7 PUSH2 0xCFB JUMP JUMPDEST PUSH2 0x119D PUSH1 0x20 DUP4 ADD DUP6 PUSH2 0xCFB JUMP JUMPDEST PUSH2 0x11AA PUSH1 0x40 DUP4 ADD DUP5 PUSH2 0xAF0 JUMP JUMPDEST SWAP5 SWAP4 POP POP POP POP JUMP INVALID LOG2 PUSH5 0x6970667358 0x22 SLT KECCAK256 DUP15 0xD7 0x1E SUB 0xC0 SWAP1 SIGNEXTEND 0xB9 CALL LT 0xF PUSH27 0x6E4415299182663976196DB579229C2B8666825D64736F6C634300 ADDMOD EQ STOP CALLER "},"methodIdentifiers":{"owner()":"8da5cb5b","protocolFeeBps()":"35659fb8","renounceOwnership()":"715018a6","setProtocolFee(uint256)":"787dce3d","setTreasury(address)":"f0f44260","splitPaymentERC20(address,address,uint256,bytes)":"52383037","splitPaymentNative(address,bytes)":"3e8eaff6","transferOwnership(address)":"f2fde38b","treasury()":"61d027b3"}}}}}