{"contracts/ArnTreasury.sol":{"ArnTreasury":{"abi":[{"inputs":[{"internalType":"address","name":"_admin","type":"address"}],"stateMutability":"nonpayable","type":"constructor"},{"inputs":[],"name":"AccessControlBadConfirmation","type":"error"},{"inputs":[{"internalType":"address","name":"account","type":"address"},{"internalType":"bytes32","name":"neededRole","type":"bytes32"}],"name":"AccessControlUnauthorizedAccount","type":"error"},{"inputs":[{"internalType":"address","name":"token","type":"address"}],"name":"SafeERC20FailedOperation","type":"error"},{"anonymous":false,"inputs":[{"indexed":false,"internalType":"address","name":"watcher","type":"address"},{"indexed":false,"internalType":"address","name":"operator","type":"address"},{"indexed":false,"internalType":"address","name":"publicGoods","type":"address"},{"indexed":false,"internalType":"address","name":"securityReserve","type":"address"}],"name":"DistributionUpdated","type":"event"},{"anonymous":false,"inputs":[{"indexed":true,"internalType":"address","name":"sender","type":"address"},{"indexed":false,"internalType":"uint256","name":"amount","type":"uint256"}],"name":"FundsReceived","type":"event"},{"anonymous":false,"inputs":[{"indexed":true,"internalType":"address","name":"token","type":"address"},{"indexed":true,"internalType":"address","name":"to","type":"address"},{"indexed":false,"internalType":"uint256","name":"amount","type":"uint256"},{"indexed":false,"internalType":"string","name":"reason","type":"string"}],"name":"FundsWithdrawn","type":"event"},{"anonymous":false,"inputs":[{"indexed":true,"internalType":"address","name":"token","type":"address"},{"indexed":false,"internalType":"uint256","name":"totalAmount","type":"uint256"}],"name":"RewardsDistributed","type":"event"},{"anonymous":false,"inputs":[{"indexed":true,"internalType":"bytes32","name":"role","type":"bytes32"},{"indexed":true,"internalType":"bytes32","name":"previousAdminRole","type":"bytes32"},{"indexed":true,"internalType":"bytes32","name":"newAdminRole","type":"bytes32"}],"name":"RoleAdminChanged","type":"event"},{"anonymous":false,"inputs":[{"indexed":true,"internalType":"bytes32","name":"role","type":"bytes32"},{"indexed":true,"internalType":"address","name":"account","type":"address"},{"indexed":true,"internalType":"address","name":"sender","type":"address"}],"name":"RoleGranted","type":"event"},{"anonymous":false,"inputs":[{"indexed":true,"internalType":"bytes32","name":"role","type":"bytes32"},{"indexed":true,"internalType":"address","name":"account","type":"address"},{"indexed":true,"internalType":"address","name":"sender","type":"address"}],"name":"RoleRevoked","type":"event"},{"inputs":[],"name":"DEFAULT_ADMIN_ROLE","outputs":[{"internalType":"bytes32","name":"","type":"bytes32"}],"stateMutability":"view","type":"function"},{"inputs":[],"name":"DISTRIBUTOR_ROLE","outputs":[{"internalType":"bytes32","name":"","type":"bytes32"}],"stateMutability":"view","type":"function"},{"inputs":[],"name":"OPERATOR_BPS","outputs":[{"internalType":"uint256","name":"","type":"uint256"}],"stateMutability":"view","type":"function"},{"inputs":[],"name":"PUBLIC_GOODS_BPS","outputs":[{"internalType":"uint256","name":"","type":"uint256"}],"stateMutability":"view","type":"function"},{"inputs":[],"name":"SECURITY_RESERVE_BPS","outputs":[{"internalType":"uint256","name":"","type":"uint256"}],"stateMutability":"view","type":"function"},{"inputs":[],"name":"TIMELOCK_ROLE","outputs":[{"internalType":"bytes32","name":"","type":"bytes32"}],"stateMutability":"view","type":"function"},{"inputs":[],"name":"WATCHER_BPS","outputs":[{"internalType":"uint256","name":"","type":"uint256"}],"stateMutability":"view","type":"function"},{"inputs":[{"internalType":"address","name":"token","type":"address"},{"internalType":"address","name":"to","type":"address"},{"internalType":"uint256","name":"amount","type":"uint256"}],"name":"distributeReward","outputs":[],"stateMutability":"nonpayable","type":"function"},{"inputs":[{"internalType":"address","name":"token","type":"address"}],"name":"distributeRewards","outputs":[],"stateMutability":"nonpayable","type":"function"},{"inputs":[{"internalType":"bytes32","name":"role","type":"bytes32"}],"name":"getRoleAdmin","outputs":[{"internalType":"bytes32","name":"","type":"bytes32"}],"stateMutability":"view","type":"function"},{"inputs":[{"internalType":"bytes32","name":"role","type":"bytes32"},{"internalType":"address","name":"account","type":"address"}],"name":"grantRole","outputs":[],"stateMutability":"nonpayable","type":"function"},{"inputs":[{"internalType":"bytes32","name":"role","type":"bytes32"},{"internalType":"address","name":"account","type":"address"}],"name":"hasRole","outputs":[{"internalType":"bool","name":"","type":"bool"}],"stateMutability":"view","type":"function"},{"inputs":[],"name":"operator","outputs":[{"internalType":"address","name":"","type":"address"}],"stateMutability":"view","type":"function"},{"inputs":[],"name":"publicGoods","outputs":[{"internalType":"address","name":"","type":"address"}],"stateMutability":"view","type":"function"},{"inputs":[{"internalType":"bytes32","name":"role","type":"bytes32"},{"internalType":"address","name":"callerConfirmation","type":"address"}],"name":"renounceRole","outputs":[],"stateMutability":"nonpayable","type":"function"},{"inputs":[{"internalType":"bytes32","name":"role","type":"bytes32"},{"internalType":"address","name":"account","type":"address"}],"name":"revokeRole","outputs":[],"stateMutability":"nonpayable","type":"function"},{"inputs":[],"name":"securityReserve","outputs":[{"internalType":"address","name":"","type":"address"}],"stateMutability":"view","type":"function"},{"inputs":[{"internalType":"address","name":"_watcher","type":"address"},{"internalType":"address","name":"_operator","type":"address"},{"internalType":"address","name":"_publicGoods","type":"address"},{"internalType":"address","name":"_securityReserve","type":"address"}],"name":"setDistributionAddresses","outputs":[],"stateMutability":"nonpayable","type":"function"},{"inputs":[{"internalType":"bytes4","name":"interfaceId","type":"bytes4"}],"name":"supportsInterface","outputs":[{"internalType":"bool","name":"","type":"bool"}],"stateMutability":"view","type":"function"},{"inputs":[],"name":"watcher","outputs":[{"internalType":"address","name":"","type":"address"}],"stateMutability":"view","type":"function"},{"stateMutability":"payable","type":"receive"}],"evm":{"bytecode":{"linkReferences":{},"object":"60806040523480156200001157600080fd5b5060405162001c5738038062001c5783398181016040528101906200003791906200036a565b6200004c6000801b826200018b60201b60201c565b506200007f7ff66846415d2bf9eabda9e84793ff9c0ea96d87f50fc41e66aa16469c6a442f05826200018b60201b60201c565b5080600160006101000a81548173ffffffffffffffffffffffffffffffffffffffff021916908373ffffffffffffffffffffffffffffffffffffffff16021790555080600260006101000a81548173ffffffffffffffffffffffffffffffffffffffff021916908373ffffffffffffffffffffffffffffffffffffffff16021790555080600360006101000a81548173ffffffffffffffffffffffffffffffffffffffff021916908373ffffffffffffffffffffffffffffffffffffffff16021790555080600460006101000a81548173ffffffffffffffffffffffffffffffffffffffff021916908373ffffffffffffffffffffffffffffffffffffffff160217905550506200039c565b60006200019f83836200028e60201b60201c565b6200028357600160008085815260200190815260200160002060000160008473ffffffffffffffffffffffffffffffffffffffff1673ffffffffffffffffffffffffffffffffffffffff16815260200190815260200160002060006101000a81548160ff0219169083151502179055506200021f620002f860201b60201c565b73ffffffffffffffffffffffffffffffffffffffff168273ffffffffffffffffffffffffffffffffffffffff16847f2f8788117e7eff1d82e926ec794901d17c78024a50270940304540a733656f0d60405160405180910390a46001905062000288565b600090505b92915050565b600080600084815260200190815260200160002060000160008373ffffffffffffffffffffffffffffffffffffffff1673ffffffffffffffffffffffffffffffffffffffff16815260200190815260200160002060009054906101000a900460ff16905092915050565b600033905090565b600080fd5b600073ffffffffffffffffffffffffffffffffffffffff82169050919050565b6000620003328262000305565b9050919050565b620003448162000325565b81146200035057600080fd5b50565b600081519050620003648162000339565b92915050565b60006020828403121562000383576200038262000300565b5b6000620003938482850162000353565b91505092915050565b6118ab80620003ac6000396000f3fe6080604052600436106101235760003560e01c8063a217fddf116100a0578063e7cea7f411610064578063e7cea7f41461042e578063ef1ee73214610457578063f0bd87cc14610482578063f288a2e2146104ad578063f53507f2146104d857610178565b8063a217fddf14610359578063d547741f14610384578063d6b74865146103ad578063da595774146103d8578063e3577e7b1461040357610178565b80632f2ff15d116100e75780632f2ff15d1461027657806336568abe1461029f5780635246cacb146102c8578063570ca735146102f157806391d148541461031c57610178565b806301ffc9a71461017d578063118bfe7e146101ba5780631de9d9b6146101e5578063236d37481461020e578063248a9ca31461023957610178565b36610178573373ffffffffffffffffffffffffffffffffffffffff167f8e47b87b0ef542cdfa1659c551d88bad38aa7f452d2bbb349ab7530dfec8be8f3460405161016e9190611225565b60405180910390a2005b600080fd5b34801561018957600080fd5b506101a4600480360381019061019f919061129d565b610503565b6040516101b191906112e5565b60405180910390f35b3480156101c657600080fd5b506101cf61057d565b6040516101dc9190611341565b60405180910390f35b3480156101f157600080fd5b5061020c60048036038101906102079190611388565b6105a3565b005b34801561021a57600080fd5b50610223610858565b6040516102309190611225565b60405180910390f35b34801561024557600080fd5b50610260600480360381019061025b91906113eb565b61085e565b60405161026d9190611427565b60405180910390f35b34801561028257600080fd5b5061029d60048036038101906102989190611442565b61087d565b005b3480156102ab57600080fd5b506102c660048036038101906102c19190611442565b61089f565b005b3480156102d457600080fd5b506102ef60048036038101906102ea9190611482565b61091a565b005b3480156102fd57600080fd5b50610306610a6f565b6040516103139190611341565b60405180910390f35b34801561032857600080fd5b50610343600480360381019061033e9190611442565b610a95565b60405161035091906112e5565b60405180910390f35b34801561036557600080fd5b5061036e610aff565b60405161037b9190611427565b60405180910390f35b34801561039057600080fd5b506103ab60048036038101906103a69190611442565b610b06565b005b3480156103b957600080fd5b506103c2610b28565b6040516103cf9190611341565b60405180910390f35b3480156103e457600080fd5b506103ed610b4e565b6040516103fa9190611225565b60405180910390f35b34801561040f57600080fd5b50610418610b54565b6040516104259190611341565b60405180910390f35b34801561043a57600080fd5b5061045560048036038101906104509190611515565b610b7a565b005b34801561046357600080fd5b5061046c610cbc565b6040516104799190611225565b60405180910390f35b34801561048e57600080fd5b50610497610cc2565b6040516104a49190611427565b60405180910390f35b3480156104b957600080fd5b506104c2610ce6565b6040516104cf9190611427565b60405180910390f35b3480156104e457600080fd5b506104ed610d0a565b6040516104fa9190611225565b60405180910390f35b60007f7965db0b000000000000000000000000000000000000000000000000000000007bffffffffffffffffffffffffffffffffffffffffffffffffffffffff1916827bffffffffffffffffffffffffffffffffffffffffffffffffffffffff19161480610576575061057582610d10565b5b9050919050565b600460009054906101000a900473ffffffffffffffffffffffffffffffffffffffff1681565b7ffbd454f36a7e1a388bd6fc3ab10d434aa4578f811acbbcf33afb1c697486313c6105cd81610d7a565b60008073ffffffffffffffffffffffffffffffffffffffff168373ffffffffffffffffffffffffffffffffffffffff160361060a57479050610687565b8273ffffffffffffffffffffffffffffffffffffffff166370a08231306040518263ffffffff1660e01b81526004016106439190611341565b602060405180830381865afa158015610660573d6000803e3d6000fd5b505050506040513d601f19601f82011682018060405250810190610684919061157d565b90505b600081116106ca576040517f08c379a00000000000000000000000000000000000000000000000000000000081526004016106c190611607565b60405180910390fd5b6000612710610fa0836106dd9190611656565b6106e791906116c7565b90506000612710610bb8846106fc9190611656565b61070691906116c7565b905060006127106107d08561071b9190611656565b61072591906116c7565b905060008183858761073791906116f8565b61074191906116f8565b61074b91906116f8565b905061077a87600160009054906101000a900473ffffffffffffffffffffffffffffffffffffffff1686610d8e565b6107a787600260009054906101000a900473ffffffffffffffffffffffffffffffffffffffff1685610d8e565b6107d487600360009054906101000a900473ffffffffffffffffffffffffffffffffffffffff1684610d8e565b61080187600460009054906101000a900473ffffffffffffffffffffffffffffffffffffffff1683610d8e565b8673ffffffffffffffffffffffffffffffffffffffff167fdf29796aad820e4bb192f3a8d631b76519bcd2cbe77cc85af20e9df53cece086866040516108479190611225565b60405180910390a250505050505050565b6103e881565b6000806000838152602001908152602001600020600101549050919050565b6108868261085e565b61088f81610d7a565b6108998383610eaf565b50505050565b6108a7610fa0565b73ffffffffffffffffffffffffffffffffffffffff168173ffffffffffffffffffffffffffffffffffffffff161461090b576040517f6697b23200000000000000000000000000000000000000000000000000000000815260040160405180910390fd5b6109158282610fa8565b505050565b6000801b61092781610d7a565b84600160006101000a81548173ffffffffffffffffffffffffffffffffffffffff021916908373ffffffffffffffffffffffffffffffffffffffff16021790555083600260006101000a81548173ffffffffffffffffffffffffffffffffffffffff021916908373ffffffffffffffffffffffffffffffffffffffff16021790555082600360006101000a81548173ffffffffffffffffffffffffffffffffffffffff021916908373ffffffffffffffffffffffffffffffffffffffff16021790555081600460006101000a81548173ffffffffffffffffffffffffffffffffffffffff021916908373ffffffffffffffffffffffffffffffffffffffff1602179055507f47a5df88bad4f3b7bdcb8e0e4310e4076e128efc4216cee8cd115c1600387e7c85858585604051610a60949392919061172c565b60405180910390a15050505050565b600260009054906101000a900473ffffffffffffffffffffffffffffffffffffffff1681565b600080600084815260200190815260200160002060000160008373ffffffffffffffffffffffffffffffffffffffff1673ffffffffffffffffffffffffffffffffffffffff16815260200190815260200160002060009054906101000a900460ff16905092915050565b6000801b81565b610b0f8261085e565b610b1881610d7a565b610b228383610fa8565b50505050565b600160009054906101000a900473ffffffffffffffffffffffffffffffffffffffff1681565b6107d081565b600360009054906101000a900473ffffffffffffffffffffffffffffffffffffffff1681565b7ffbd454f36a7e1a388bd6fc3ab10d434aa4578f811acbbcf33afb1c697486313c610ba481610d7a565b600073ffffffffffffffffffffffffffffffffffffffff168473ffffffffffffffffffffffffffffffffffffffff1603610c8a5760008373ffffffffffffffffffffffffffffffffffffffff1683604051610bfe906117a2565b60006040518083038185875af1925050503d8060008114610c3b576040519150601f19603f3d011682016040523d82523d6000602084013e610c40565b606091505b5050905080610c84576040517f08c379a0000000000000000000000000000000000000000000000000000000008152600401610c7b90611803565b60405180910390fd5b50610cb6565b610cb583838673ffffffffffffffffffffffffffffffffffffffff1661109a9092919063ffffffff16565b5b50505050565b610fa081565b7ffbd454f36a7e1a388bd6fc3ab10d434aa4578f811acbbcf33afb1c697486313c81565b7ff66846415d2bf9eabda9e84793ff9c0ea96d87f50fc41e66aa16469c6a442f0581565b610bb881565b60007f01ffc9a7000000000000000000000000000000000000000000000000000000007bffffffffffffffffffffffffffffffffffffffffffffffffffffffff1916827bffffffffffffffffffffffffffffffffffffffffffffffffffffffff1916149050919050565b610d8b81610d86610fa0565b611119565b50565b6000810315610eaa57600073ffffffffffffffffffffffffffffffffffffffff168373ffffffffffffffffffffffffffffffffffffffff1603610e7d5760008273ffffffffffffffffffffffffffffffffffffffff1682604051610df1906117a2565b60006040518083038185875af1925050503d8060008114610e2e576040519150601f19603f3d011682016040523d82523d6000602084013e610e33565b606091505b5050905080610e77576040517f08c379a0000000000000000000000000000000000000000000000000000000008152600401610e6e90611803565b60405180910390fd5b50610ea9565b610ea882828573ffffffffffffffffffffffffffffffffffffffff1661109a9092919063ffffffff16565b5b5b505050565b6000610ebb8383610a95565b610f9557600160008085815260200190815260200160002060000160008473ffffffffffffffffffffffffffffffffffffffff1673ffffffffffffffffffffffffffffffffffffffff16815260200190815260200160002060006101000a81548160ff021916908315150217905550610f32610fa0565b73ffffffffffffffffffffffffffffffffffffffff168273ffffffffffffffffffffffffffffffffffffffff16847f2f8788117e7eff1d82e926ec794901d17c78024a50270940304540a733656f0d60405160405180910390a460019050610f9a565b600090505b92915050565b600033905090565b6000610fb48383610a95565b1561108f57600080600085815260200190815260200160002060000160008473ffffffffffffffffffffffffffffffffffffffff1673ffffffffffffffffffffffffffffffffffffffff16815260200190815260200160002060006101000a81548160ff02191690831515021790555061102c610fa0565b73ffffffffffffffffffffffffffffffffffffffff168273ffffffffffffffffffffffffffffffffffffffff16847ff6391f5c32d9c69d2a47ea670b442974b53935d1edc7fd64eb21e047a839171b60405160405180910390a460019050611094565b600090505b92915050565b611114838473ffffffffffffffffffffffffffffffffffffffff1663a9059cbb85856040516024016110cd929190611823565b604051602081830303815290604052915060e01b6020820180517bffffffffffffffffffffffffffffffffffffffffffffffffffffffff838183161783525050505061116a565b505050565b6111238282610a95565b6111665780826040517fe2517d3f00000000000000000000000000000000000000000000000000000000815260040161115d92919061184c565b60405180910390fd5b5050565b600080602060008451602086016000885af18061118d576040513d6000823e3d81fd5b3d9250600051915050600082146111a85760018114156111c4565b60008473ffffffffffffffffffffffffffffffffffffffff163b145b1561120657836040517f5274afe70000000000000000000000000000000000000000000000000000000081526004016111fd9190611341565b60405180910390fd5b50505050565b6000819050919050565b61121f8161120c565b82525050565b600060208201905061123a6000830184611216565b92915050565b600080fd5b60007fffffffff0000000000000000000000000000000000000000000000000000000082169050919050565b61127a81611245565b811461128557600080fd5b50565b60008135905061129781611271565b92915050565b6000602082840312156112b3576112b2611240565b5b60006112c184828501611288565b91505092915050565b60008115159050919050565b6112df816112ca565b82525050565b60006020820190506112fa60008301846112d6565b92915050565b600073ffffffffffffffffffffffffffffffffffffffff82169050919050565b600061132b82611300565b9050919050565b61133b81611320565b82525050565b60006020820190506113566000830184611332565b92915050565b61136581611320565b811461137057600080fd5b50565b6000813590506113828161135c565b92915050565b60006020828403121561139e5761139d611240565b5b60006113ac84828501611373565b91505092915050565b6000819050919050565b6113c8816113b5565b81146113d357600080fd5b50565b6000813590506113e5816113bf565b92915050565b60006020828403121561140157611400611240565b5b600061140f848285016113d6565b91505092915050565b611421816113b5565b82525050565b600060208201905061143c6000830184611418565b92915050565b6000806040838503121561145957611458611240565b5b6000611467858286016113d6565b925050602061147885828601611373565b9150509250929050565b6000806000806080858703121561149c5761149b611240565b5b60006114aa87828801611373565b94505060206114bb87828801611373565b93505060406114cc87828801611373565b92505060606114dd87828801611373565b91505092959194509250565b6114f28161120c565b81146114fd57600080fd5b50565b60008135905061150f816114e9565b92915050565b60008060006060848603121561152e5761152d611240565b5b600061153c86828701611373565b935050602061154d86828701611373565b925050604061155e86828701611500565b9150509250925092565b600081519050611577816114e9565b92915050565b60006020828403121561159357611592611240565b5b60006115a184828501611568565b91505092915050565b600082825260208201905092915050565b7f4e6f2066756e647320746f206469737472696275746500000000000000000000600082015250565b60006115f16016836115aa565b91506115fc826115bb565b602082019050919050565b60006020820190508181036000830152611620816115e4565b9050919050565b7f4e487b7100000000000000000000000000000000000000000000000000000000600052601160045260246000fd5b60006116618261120c565b915061166c8361120c565b925082820261167a8161120c565b9150828204841483151761169157611690611627565b5b5092915050565b7f4e487b7100000000000000000000000000000000000000000000000000000000600052601260045260246000fd5b60006116d28261120c565b91506116dd8361120c565b9250826116ed576116ec611698565b5b828204905092915050565b60006117038261120c565b915061170e8361120c565b925082820390508181111561172657611725611627565b5b92915050565b60006080820190506117416000830187611332565b61174e6020830186611332565b61175b6040830185611332565b6117686060830184611332565b95945050505050565b600081905092915050565b50565b600061178c600083611771565b91506117978261177c565b600082019050919050565b60006117ad8261177f565b9150819050919050565b7f5472616e73666572206661696c65640000000000000000000000000000000000600082015250565b60006117ed600f836115aa565b91506117f8826117b7565b602082019050919050565b6000602082019050818103600083015261181c816117e0565b9050919050565b60006040820190506118386000830185611332565b6118456020830184611216565b9392505050565b60006040820190506118616000830185611332565b61186e6020830184611418565b939250505056fea264697066735822122062cc8c127d1f136366c6242bd9f6de7fc1077c61b00eafb3d55d3f14923d737a64736f6c63430008140033","opcodes":"PUSH1 0x80 PUSH1 0x40 MSTORE CALLVALUE DUP1 ISZERO PUSH3 0x11 JUMPI PUSH1 0x0 DUP1 REVERT JUMPDEST POP PUSH1 0x40 MLOAD PUSH3 0x1C57 CODESIZE SUB DUP1 PUSH3 0x1C57 DUP4 CODECOPY DUP2 DUP2 ADD PUSH1 0x40 MSTORE DUP2 ADD SWAP1 PUSH3 0x37 SWAP2 SWAP1 PUSH3 0x36A JUMP JUMPDEST PUSH3 0x4C PUSH1 0x0 DUP1 SHL DUP3 PUSH3 0x18B PUSH1 0x20 SHL PUSH1 0x20 SHR JUMP JUMPDEST POP PUSH3 0x7F PUSH32 0xF66846415D2BF9EABDA9E84793FF9C0EA96D87F50FC41E66AA16469C6A442F05 DUP3 PUSH3 0x18B PUSH1 0x20 SHL PUSH1 0x20 SHR JUMP JUMPDEST POP DUP1 PUSH1 0x1 PUSH1 0x0 PUSH2 0x100 EXP DUP2 SLOAD DUP2 PUSH20 0xFFFFFFFFFFFFFFFFFFFFFFFFFFFFFFFFFFFFFFFF MUL NOT AND SWAP1 DUP4 PUSH20 0xFFFFFFFFFFFFFFFFFFFFFFFFFFFFFFFFFFFFFFFF AND MUL OR SWAP1 SSTORE POP DUP1 PUSH1 0x2 PUSH1 0x0 PUSH2 0x100 EXP DUP2 SLOAD DUP2 PUSH20 0xFFFFFFFFFFFFFFFFFFFFFFFFFFFFFFFFFFFFFFFF MUL NOT AND SWAP1 DUP4 PUSH20 0xFFFFFFFFFFFFFFFFFFFFFFFFFFFFFFFFFFFFFFFF AND MUL OR SWAP1 SSTORE POP DUP1 PUSH1 0x3 PUSH1 0x0 PUSH2 0x100 EXP DUP2 SLOAD DUP2 PUSH20 0xFFFFFFFFFFFFFFFFFFFFFFFFFFFFFFFFFFFFFFFF MUL NOT AND SWAP1 DUP4 PUSH20 0xFFFFFFFFFFFFFFFFFFFFFFFFFFFFFFFFFFFFFFFF AND MUL OR SWAP1 SSTORE POP DUP1 PUSH1 0x4 PUSH1 0x0 PUSH2 0x100 EXP DUP2 SLOAD DUP2 PUSH20 0xFFFFFFFFFFFFFFFFFFFFFFFFFFFFFFFFFFFFFFFF MUL NOT AND SWAP1 DUP4 PUSH20 0xFFFFFFFFFFFFFFFFFFFFFFFFFFFFFFFFFFFFFFFF AND MUL OR SWAP1 SSTORE POP POP PUSH3 0x39C JUMP JUMPDEST PUSH1 0x0 PUSH3 0x19F DUP4 DUP4 PUSH3 0x28E PUSH1 0x20 SHL PUSH1 0x20 SHR JUMP JUMPDEST PUSH3 0x283 JUMPI PUSH1 0x1 PUSH1 0x0 DUP1 DUP6 DUP2 MSTORE PUSH1 0x20 ADD SWAP1 DUP2 MSTORE PUSH1 0x20 ADD PUSH1 0x0 KECCAK256 PUSH1 0x0 ADD PUSH1 0x0 DUP5 PUSH20 0xFFFFFFFFFFFFFFFFFFFFFFFFFFFFFFFFFFFFFFFF AND PUSH20 0xFFFFFFFFFFFFFFFFFFFFFFFFFFFFFFFFFFFFFFFF AND DUP2 MSTORE PUSH1 0x20 ADD SWAP1 DUP2 MSTORE PUSH1 0x20 ADD PUSH1 0x0 KECCAK256 PUSH1 0x0 PUSH2 0x100 EXP DUP2 SLOAD DUP2 PUSH1 0xFF MUL NOT AND SWAP1 DUP4 ISZERO ISZERO MUL OR SWAP1 SSTORE POP PUSH3 0x21F PUSH3 0x2F8 PUSH1 0x20 SHL PUSH1 0x20 SHR JUMP JUMPDEST PUSH20 0xFFFFFFFFFFFFFFFFFFFFFFFFFFFFFFFFFFFFFFFF AND DUP3 PUSH20 0xFFFFFFFFFFFFFFFFFFFFFFFFFFFFFFFFFFFFFFFF AND DUP5 PUSH32 0x2F8788117E7EFF1D82E926EC794901D17C78024A50270940304540A733656F0D PUSH1 0x40 MLOAD PUSH1 0x40 MLOAD DUP1 SWAP2 SUB SWAP1 LOG4 PUSH1 0x1 SWAP1 POP PUSH3 0x288 JUMP JUMPDEST PUSH1 0x0 SWAP1 POP JUMPDEST SWAP3 SWAP2 POP POP JUMP JUMPDEST PUSH1 0x0 DUP1 PUSH1 0x0 DUP5 DUP2 MSTORE PUSH1 0x20 ADD SWAP1 DUP2 MSTORE PUSH1 0x20 ADD PUSH1 0x0 KECCAK256 PUSH1 0x0 ADD PUSH1 0x0 DUP4 PUSH20 0xFFFFFFFFFFFFFFFFFFFFFFFFFFFFFFFFFFFFFFFF AND PUSH20 0xFFFFFFFFFFFFFFFFFFFFFFFFFFFFFFFFFFFFFFFF AND DUP2 MSTORE PUSH1 0x20 ADD SWAP1 DUP2 MSTORE PUSH1 0x20 ADD PUSH1 0x0 KECCAK256 PUSH1 0x0 SWAP1 SLOAD SWAP1 PUSH2 0x100 EXP SWAP1 DIV PUSH1 0xFF AND SWAP1 POP SWAP3 SWAP2 POP POP JUMP JUMPDEST PUSH1 0x0 CALLER SWAP1 POP SWAP1 JUMP JUMPDEST PUSH1 0x0 DUP1 REVERT JUMPDEST PUSH1 0x0 PUSH20 0xFFFFFFFFFFFFFFFFFFFFFFFFFFFFFFFFFFFFFFFF DUP3 AND SWAP1 POP SWAP2 SWAP1 POP JUMP JUMPDEST PUSH1 0x0 PUSH3 0x332 DUP3 PUSH3 0x305 JUMP JUMPDEST SWAP1 POP SWAP2 SWAP1 POP JUMP JUMPDEST PUSH3 0x344 DUP2 PUSH3 0x325 JUMP JUMPDEST DUP2 EQ PUSH3 0x350 JUMPI PUSH1 0x0 DUP1 REVERT JUMPDEST POP JUMP JUMPDEST PUSH1 0x0 DUP2 MLOAD SWAP1 POP PUSH3 0x364 DUP2 PUSH3 0x339 JUMP JUMPDEST SWAP3 SWAP2 POP POP JUMP JUMPDEST PUSH1 0x0 PUSH1 0x20 DUP3 DUP5 SUB SLT ISZERO PUSH3 0x383 JUMPI PUSH3 0x382 PUSH3 0x300 JUMP JUMPDEST JUMPDEST PUSH1 0x0 PUSH3 0x393 DUP5 DUP3 DUP6 ADD PUSH3 0x353 JUMP JUMPDEST SWAP2 POP POP SWAP3 SWAP2 POP POP JUMP JUMPDEST PUSH2 0x18AB DUP1 PUSH3 0x3AC PUSH1 0x0 CODECOPY PUSH1 0x0 RETURN INVALID PUSH1 0x80 PUSH1 0x40 MSTORE PUSH1 0x4 CALLDATASIZE LT PUSH2 0x123 JUMPI PUSH1 0x0 CALLDATALOAD PUSH1 0xE0 SHR DUP1 PUSH4 0xA217FDDF GT PUSH2 0xA0 JUMPI DUP1 PUSH4 0xE7CEA7F4 GT PUSH2 0x64 JUMPI DUP1 PUSH4 0xE7CEA7F4 EQ PUSH2 0x42E JUMPI DUP1 PUSH4 0xEF1EE732 EQ PUSH2 0x457 JUMPI DUP1 PUSH4 0xF0BD87CC EQ PUSH2 0x482 JUMPI DUP1 PUSH4 0xF288A2E2 EQ PUSH2 0x4AD JUMPI DUP1 PUSH4 0xF53507F2 EQ PUSH2 0x4D8 JUMPI PUSH2 0x178 JUMP JUMPDEST DUP1 PUSH4 0xA217FDDF EQ PUSH2 0x359 JUMPI DUP1 PUSH4 0xD547741F EQ PUSH2 0x384 JUMPI DUP1 PUSH4 0xD6B74865 EQ PUSH2 0x3AD JUMPI DUP1 PUSH4 0xDA595774 EQ PUSH2 0x3D8 JUMPI DUP1 PUSH4 0xE3577E7B EQ PUSH2 0x403 JUMPI PUSH2 0x178 JUMP JUMPDEST DUP1 PUSH4 0x2F2FF15D GT PUSH2 0xE7 JUMPI DUP1 PUSH4 0x2F2FF15D EQ PUSH2 0x276 JUMPI DUP1 PUSH4 0x36568ABE EQ PUSH2 0x29F JUMPI DUP1 PUSH4 0x5246CACB EQ PUSH2 0x2C8 JUMPI DUP1 PUSH4 0x570CA735 EQ PUSH2 0x2F1 JUMPI DUP1 PUSH4 0x91D14854 EQ PUSH2 0x31C JUMPI PUSH2 0x178 JUMP JUMPDEST DUP1 PUSH4 0x1FFC9A7 EQ PUSH2 0x17D JUMPI DUP1 PUSH4 0x118BFE7E EQ PUSH2 0x1BA JUMPI DUP1 PUSH4 0x1DE9D9B6 EQ PUSH2 0x1E5 JUMPI DUP1 PUSH4 0x236D3748 EQ PUSH2 0x20E JUMPI DUP1 PUSH4 0x248A9CA3 EQ PUSH2 0x239 JUMPI PUSH2 0x178 JUMP JUMPDEST CALLDATASIZE PUSH2 0x178 JUMPI CALLER PUSH20 0xFFFFFFFFFFFFFFFFFFFFFFFFFFFFFFFFFFFFFFFF AND PUSH32 0x8E47B87B0EF542CDFA1659C551D88BAD38AA7F452D2BBB349AB7530DFEC8BE8F CALLVALUE PUSH1 0x40 MLOAD PUSH2 0x16E SWAP2 SWAP1 PUSH2 0x1225 JUMP JUMPDEST PUSH1 0x40 MLOAD DUP1 SWAP2 SUB SWAP1 LOG2 STOP JUMPDEST PUSH1 0x0 DUP1 REVERT JUMPDEST CALLVALUE DUP1 ISZERO PUSH2 0x189 JUMPI PUSH1 0x0 DUP1 REVERT JUMPDEST POP PUSH2 0x1A4 PUSH1 0x4 DUP1 CALLDATASIZE SUB DUP2 ADD SWAP1 PUSH2 0x19F SWAP2 SWAP1 PUSH2 0x129D JUMP JUMPDEST PUSH2 0x503 JUMP JUMPDEST PUSH1 0x40 MLOAD PUSH2 0x1B1 SWAP2 SWAP1 PUSH2 0x12E5 JUMP JUMPDEST PUSH1 0x40 MLOAD DUP1 SWAP2 SUB SWAP1 RETURN JUMPDEST CALLVALUE DUP1 ISZERO PUSH2 0x1C6 JUMPI PUSH1 0x0 DUP1 REVERT JUMPDEST POP PUSH2 0x1CF PUSH2 0x57D JUMP JUMPDEST PUSH1 0x40 MLOAD PUSH2 0x1DC SWAP2 SWAP1 PUSH2 0x1341 JUMP JUMPDEST PUSH1 0x40 MLOAD DUP1 SWAP2 SUB SWAP1 RETURN JUMPDEST CALLVALUE DUP1 ISZERO PUSH2 0x1F1 JUMPI PUSH1 0x0 DUP1 REVERT JUMPDEST POP PUSH2 0x20C PUSH1 0x4 DUP1 CALLDATASIZE SUB DUP2 ADD SWAP1 PUSH2 0x207 SWAP2 SWAP1 PUSH2 0x1388 JUMP JUMPDEST PUSH2 0x5A3 JUMP JUMPDEST STOP JUMPDEST CALLVALUE DUP1 ISZERO PUSH2 0x21A JUMPI PUSH1 0x0 DUP1 REVERT JUMPDEST POP PUSH2 0x223 PUSH2 0x858 JUMP JUMPDEST PUSH1 0x40 MLOAD PUSH2 0x230 SWAP2 SWAP1 PUSH2 0x1225 JUMP JUMPDEST PUSH1 0x40 MLOAD DUP1 SWAP2 SUB SWAP1 RETURN JUMPDEST CALLVALUE DUP1 ISZERO PUSH2 0x245 JUMPI PUSH1 0x0 DUP1 REVERT JUMPDEST POP PUSH2 0x260 PUSH1 0x4 DUP1 CALLDATASIZE SUB DUP2 ADD SWAP1 PUSH2 0x25B SWAP2 SWAP1 PUSH2 0x13EB JUMP JUMPDEST PUSH2 0x85E JUMP JUMPDEST PUSH1 0x40 MLOAD PUSH2 0x26D SWAP2 SWAP1 PUSH2 0x1427 JUMP JUMPDEST PUSH1 0x40 MLOAD DUP1 SWAP2 SUB SWAP1 RETURN JUMPDEST CALLVALUE DUP1 ISZERO PUSH2 0x282 JUMPI PUSH1 0x0 DUP1 REVERT JUMPDEST POP PUSH2 0x29D PUSH1 0x4 DUP1 CALLDATASIZE SUB DUP2 ADD SWAP1 PUSH2 0x298 SWAP2 SWAP1 PUSH2 0x1442 JUMP JUMPDEST PUSH2 0x87D JUMP JUMPDEST STOP JUMPDEST CALLVALUE DUP1 ISZERO PUSH2 0x2AB JUMPI PUSH1 0x0 DUP1 REVERT JUMPDEST POP PUSH2 0x2C6 PUSH1 0x4 DUP1 CALLDATASIZE SUB DUP2 ADD SWAP1 PUSH2 0x2C1 SWAP2 SWAP1 PUSH2 0x1442 JUMP JUMPDEST PUSH2 0x89F JUMP JUMPDEST STOP JUMPDEST CALLVALUE DUP1 ISZERO PUSH2 0x2D4 JUMPI PUSH1 0x0 DUP1 REVERT JUMPDEST POP PUSH2 0x2EF PUSH1 0x4 DUP1 CALLDATASIZE SUB DUP2 ADD SWAP1 PUSH2 0x2EA SWAP2 SWAP1 PUSH2 0x1482 JUMP JUMPDEST PUSH2 0x91A JUMP JUMPDEST STOP JUMPDEST CALLVALUE DUP1 ISZERO PUSH2 0x2FD JUMPI PUSH1 0x0 DUP1 REVERT JUMPDEST POP PUSH2 0x306 PUSH2 0xA6F JUMP JUMPDEST PUSH1 0x40 MLOAD PUSH2 0x313 SWAP2 SWAP1 PUSH2 0x1341 JUMP JUMPDEST PUSH1 0x40 MLOAD DUP1 SWAP2 SUB SWAP1 RETURN JUMPDEST CALLVALUE DUP1 ISZERO PUSH2 0x328 JUMPI PUSH1 0x0 DUP1 REVERT JUMPDEST POP PUSH2 0x343 PUSH1 0x4 DUP1 CALLDATASIZE SUB DUP2 ADD SWAP1 PUSH2 0x33E SWAP2 SWAP1 PUSH2 0x1442 JUMP JUMPDEST PUSH2 0xA95 JUMP JUMPDEST PUSH1 0x40 MLOAD PUSH2 0x350 SWAP2 SWAP1 PUSH2 0x12E5 JUMP JUMPDEST PUSH1 0x40 MLOAD DUP1 SWAP2 SUB SWAP1 RETURN JUMPDEST CALLVALUE DUP1 ISZERO PUSH2 0x365 JUMPI PUSH1 0x0 DUP1 REVERT JUMPDEST POP PUSH2 0x36E PUSH2 0xAFF JUMP JUMPDEST PUSH1 0x40 MLOAD PUSH2 0x37B SWAP2 SWAP1 PUSH2 0x1427 JUMP JUMPDEST PUSH1 0x40 MLOAD DUP1 SWAP2 SUB SWAP1 RETURN JUMPDEST CALLVALUE DUP1 ISZERO PUSH2 0x390 JUMPI PUSH1 0x0 DUP1 REVERT JUMPDEST POP PUSH2 0x3AB PUSH1 0x4 DUP1 CALLDATASIZE SUB DUP2 ADD SWAP1 PUSH2 0x3A6 SWAP2 SWAP1 PUSH2 0x1442 JUMP JUMPDEST PUSH2 0xB06 JUMP JUMPDEST STOP JUMPDEST CALLVALUE DUP1 ISZERO PUSH2 0x3B9 JUMPI PUSH1 0x0 DUP1 REVERT JUMPDEST POP PUSH2 0x3C2 PUSH2 0xB28 JUMP JUMPDEST PUSH1 0x40 MLOAD PUSH2 0x3CF SWAP2 SWAP1 PUSH2 0x1341 JUMP JUMPDEST PUSH1 0x40 MLOAD DUP1 SWAP2 SUB SWAP1 RETURN JUMPDEST CALLVALUE DUP1 ISZERO PUSH2 0x3E4 JUMPI PUSH1 0x0 DUP1 REVERT JUMPDEST POP PUSH2 0x3ED PUSH2 0xB4E JUMP JUMPDEST PUSH1 0x40 MLOAD PUSH2 0x3FA SWAP2 SWAP1 PUSH2 0x1225 JUMP JUMPDEST PUSH1 0x40 MLOAD DUP1 SWAP2 SUB SWAP1 RETURN JUMPDEST CALLVALUE DUP1 ISZERO PUSH2 0x40F JUMPI PUSH1 0x0 DUP1 REVERT JUMPDEST POP PUSH2 0x418 PUSH2 0xB54 JUMP JUMPDEST PUSH1 0x40 MLOAD PUSH2 0x425 SWAP2 SWAP1 PUSH2 0x1341 JUMP JUMPDEST PUSH1 0x40 MLOAD DUP1 SWAP2 SUB SWAP1 RETURN JUMPDEST CALLVALUE DUP1 ISZERO PUSH2 0x43A JUMPI PUSH1 0x0 DUP1 REVERT JUMPDEST POP PUSH2 0x455 PUSH1 0x4 DUP1 CALLDATASIZE SUB DUP2 ADD SWAP1 PUSH2 0x450 SWAP2 SWAP1 PUSH2 0x1515 JUMP JUMPDEST PUSH2 0xB7A JUMP JUMPDEST STOP JUMPDEST CALLVALUE DUP1 ISZERO PUSH2 0x463 JUMPI PUSH1 0x0 DUP1 REVERT JUMPDEST POP PUSH2 0x46C PUSH2 0xCBC JUMP JUMPDEST PUSH1 0x40 MLOAD PUSH2 0x479 SWAP2 SWAP1 PUSH2 0x1225 JUMP JUMPDEST PUSH1 0x40 MLOAD DUP1 SWAP2 SUB SWAP1 RETURN JUMPDEST CALLVALUE DUP1 ISZERO PUSH2 0x48E JUMPI PUSH1 0x0 DUP1 REVERT JUMPDEST POP PUSH2 0x497 PUSH2 0xCC2 JUMP JUMPDEST PUSH1 0x40 MLOAD PUSH2 0x4A4 SWAP2 SWAP1 PUSH2 0x1427 JUMP JUMPDEST PUSH1 0x40 MLOAD DUP1 SWAP2 SUB SWAP1 RETURN JUMPDEST CALLVALUE DUP1 ISZERO PUSH2 0x4B9 JUMPI PUSH1 0x0 DUP1 REVERT JUMPDEST POP PUSH2 0x4C2 PUSH2 0xCE6 JUMP JUMPDEST PUSH1 0x40 MLOAD PUSH2 0x4CF SWAP2 SWAP1 PUSH2 0x1427 JUMP JUMPDEST PUSH1 0x40 MLOAD DUP1 SWAP2 SUB SWAP1 RETURN JUMPDEST CALLVALUE DUP1 ISZERO PUSH2 0x4E4 JUMPI PUSH1 0x0 DUP1 REVERT JUMPDEST POP PUSH2 0x4ED PUSH2 0xD0A JUMP JUMPDEST PUSH1 0x40 MLOAD PUSH2 0x4FA SWAP2 SWAP1 PUSH2 0x1225 JUMP JUMPDEST PUSH1 0x40 MLOAD DUP1 SWAP2 SUB SWAP1 RETURN JUMPDEST PUSH1 0x0 PUSH32 0x7965DB0B00000000000000000000000000000000000000000000000000000000 PUSH28 0xFFFFFFFFFFFFFFFFFFFFFFFFFFFFFFFFFFFFFFFFFFFFFFFFFFFFFFFF NOT AND DUP3 PUSH28 0xFFFFFFFFFFFFFFFFFFFFFFFFFFFFFFFFFFFFFFFFFFFFFFFFFFFFFFFF NOT AND EQ DUP1 PUSH2 0x576 JUMPI POP PUSH2 0x575 DUP3 PUSH2 0xD10 JUMP JUMPDEST JUMPDEST SWAP1 POP SWAP2 SWAP1 POP JUMP JUMPDEST PUSH1 0x4 PUSH1 0x0 SWAP1 SLOAD SWAP1 PUSH2 0x100 EXP SWAP1 DIV PUSH20 0xFFFFFFFFFFFFFFFFFFFFFFFFFFFFFFFFFFFFFFFF AND DUP2 JUMP JUMPDEST PUSH32 0xFBD454F36A7E1A388BD6FC3AB10D434AA4578F811ACBBCF33AFB1C697486313C PUSH2 0x5CD DUP2 PUSH2 0xD7A JUMP JUMPDEST PUSH1 0x0 DUP1 PUSH20 0xFFFFFFFFFFFFFFFFFFFFFFFFFFFFFFFFFFFFFFFF AND DUP4 PUSH20 0xFFFFFFFFFFFFFFFFFFFFFFFFFFFFFFFFFFFFFFFF AND SUB PUSH2 0x60A JUMPI SELFBALANCE SWAP1 POP PUSH2 0x687 JUMP JUMPDEST DUP3 PUSH20 0xFFFFFFFFFFFFFFFFFFFFFFFFFFFFFFFFFFFFFFFF AND PUSH4 0x70A08231 ADDRESS PUSH1 0x40 MLOAD DUP3 PUSH4 0xFFFFFFFF AND PUSH1 0xE0 SHL DUP2 MSTORE PUSH1 0x4 ADD PUSH2 0x643 SWAP2 SWAP1 PUSH2 0x1341 JUMP JUMPDEST PUSH1 0x20 PUSH1 0x40 MLOAD DUP1 DUP4 SUB DUP2 DUP7 GAS STATICCALL ISZERO DUP1 ISZERO PUSH2 0x660 JUMPI RETURNDATASIZE PUSH1 0x0 DUP1 RETURNDATACOPY RETURNDATASIZE PUSH1 0x0 REVERT JUMPDEST POP POP POP POP PUSH1 0x40 MLOAD RETURNDATASIZE PUSH1 0x1F NOT PUSH1 0x1F DUP3 ADD AND DUP3 ADD DUP1 PUSH1 0x40 MSTORE POP DUP2 ADD SWAP1 PUSH2 0x684 SWAP2 SWAP1 PUSH2 0x157D JUMP JUMPDEST SWAP1 POP JUMPDEST PUSH1 0x0 DUP2 GT PUSH2 0x6CA JUMPI PUSH1 0x40 MLOAD PUSH32 0x8C379A000000000000000000000000000000000000000000000000000000000 DUP2 MSTORE PUSH1 0x4 ADD PUSH2 0x6C1 SWAP1 PUSH2 0x1607 JUMP JUMPDEST PUSH1 0x40 MLOAD DUP1 SWAP2 SUB SWAP1 REVERT JUMPDEST PUSH1 0x0 PUSH2 0x2710 PUSH2 0xFA0 DUP4 PUSH2 0x6DD SWAP2 SWAP1 PUSH2 0x1656 JUMP JUMPDEST PUSH2 0x6E7 SWAP2 SWAP1 PUSH2 0x16C7 JUMP JUMPDEST SWAP1 POP PUSH1 0x0 PUSH2 0x2710 PUSH2 0xBB8 DUP5 PUSH2 0x6FC SWAP2 SWAP1 PUSH2 0x1656 JUMP JUMPDEST PUSH2 0x706 SWAP2 SWAP1 PUSH2 0x16C7 JUMP JUMPDEST SWAP1 POP PUSH1 0x0 PUSH2 0x2710 PUSH2 0x7D0 DUP6 PUSH2 0x71B SWAP2 SWAP1 PUSH2 0x1656 JUMP JUMPDEST PUSH2 0x725 SWAP2 SWAP1 PUSH2 0x16C7 JUMP JUMPDEST SWAP1 POP PUSH1 0x0 DUP2 DUP4 DUP6 DUP8 PUSH2 0x737 SWAP2 SWAP1 PUSH2 0x16F8 JUMP JUMPDEST PUSH2 0x741 SWAP2 SWAP1 PUSH2 0x16F8 JUMP JUMPDEST PUSH2 0x74B SWAP2 SWAP1 PUSH2 0x16F8 JUMP JUMPDEST SWAP1 POP PUSH2 0x77A DUP8 PUSH1 0x1 PUSH1 0x0 SWAP1 SLOAD SWAP1 PUSH2 0x100 EXP SWAP1 DIV PUSH20 0xFFFFFFFFFFFFFFFFFFFFFFFFFFFFFFFFFFFFFFFF AND DUP7 PUSH2 0xD8E JUMP JUMPDEST PUSH2 0x7A7 DUP8 PUSH1 0x2 PUSH1 0x0 SWAP1 SLOAD SWAP1 PUSH2 0x100 EXP SWAP1 DIV PUSH20 0xFFFFFFFFFFFFFFFFFFFFFFFFFFFFFFFFFFFFFFFF AND DUP6 PUSH2 0xD8E JUMP JUMPDEST PUSH2 0x7D4 DUP8 PUSH1 0x3 PUSH1 0x0 SWAP1 SLOAD SWAP1 PUSH2 0x100 EXP SWAP1 DIV PUSH20 0xFFFFFFFFFFFFFFFFFFFFFFFFFFFFFFFFFFFFFFFF AND DUP5 PUSH2 0xD8E JUMP JUMPDEST PUSH2 0x801 DUP8 PUSH1 0x4 PUSH1 0x0 SWAP1 SLOAD SWAP1 PUSH2 0x100 EXP SWAP1 DIV PUSH20 0xFFFFFFFFFFFFFFFFFFFFFFFFFFFFFFFFFFFFFFFF AND DUP4 PUSH2 0xD8E JUMP JUMPDEST DUP7 PUSH20 0xFFFFFFFFFFFFFFFFFFFFFFFFFFFFFFFFFFFFFFFF AND PUSH32 0xDF29796AAD820E4BB192F3A8D631B76519BCD2CBE77CC85AF20E9DF53CECE086 DUP7 PUSH1 0x40 MLOAD PUSH2 0x847 SWAP2 SWAP1 PUSH2 0x1225 JUMP JUMPDEST PUSH1 0x40 MLOAD DUP1 SWAP2 SUB SWAP1 LOG2 POP POP POP POP POP POP POP JUMP JUMPDEST PUSH2 0x3E8 DUP2 JUMP JUMPDEST PUSH1 0x0 DUP1 PUSH1 0x0 DUP4 DUP2 MSTORE PUSH1 0x20 ADD SWAP1 DUP2 MSTORE PUSH1 0x20 ADD PUSH1 0x0 KECCAK256 PUSH1 0x1 ADD SLOAD SWAP1 POP SWAP2 SWAP1 POP JUMP JUMPDEST PUSH2 0x886 DUP3 PUSH2 0x85E JUMP JUMPDEST PUSH2 0x88F DUP2 PUSH2 0xD7A JUMP JUMPDEST PUSH2 0x899 DUP4 DUP4 PUSH2 0xEAF JUMP JUMPDEST POP POP POP POP JUMP JUMPDEST PUSH2 0x8A7 PUSH2 0xFA0 JUMP JUMPDEST PUSH20 0xFFFFFFFFFFFFFFFFFFFFFFFFFFFFFFFFFFFFFFFF AND DUP2 PUSH20 0xFFFFFFFFFFFFFFFFFFFFFFFFFFFFFFFFFFFFFFFF AND EQ PUSH2 0x90B JUMPI PUSH1 0x40 MLOAD PUSH32 0x6697B23200000000000000000000000000000000000000000000000000000000 DUP2 MSTORE PUSH1 0x4 ADD PUSH1 0x40 MLOAD DUP1 SWAP2 SUB SWAP1 REVERT JUMPDEST PUSH2 0x915 DUP3 DUP3 PUSH2 0xFA8 JUMP JUMPDEST POP POP POP JUMP JUMPDEST PUSH1 0x0 DUP1 SHL PUSH2 0x927 DUP2 PUSH2 0xD7A JUMP JUMPDEST DUP5 PUSH1 0x1 PUSH1 0x0 PUSH2 0x100 EXP DUP2 SLOAD DUP2 PUSH20 0xFFFFFFFFFFFFFFFFFFFFFFFFFFFFFFFFFFFFFFFF MUL NOT AND SWAP1 DUP4 PUSH20 0xFFFFFFFFFFFFFFFFFFFFFFFFFFFFFFFFFFFFFFFF AND MUL OR SWAP1 SSTORE POP DUP4 PUSH1 0x2 PUSH1 0x0 PUSH2 0x100 EXP DUP2 SLOAD DUP2 PUSH20 0xFFFFFFFFFFFFFFFFFFFFFFFFFFFFFFFFFFFFFFFF MUL NOT AND SWAP1 DUP4 PUSH20 0xFFFFFFFFFFFFFFFFFFFFFFFFFFFFFFFFFFFFFFFF AND MUL OR SWAP1 SSTORE POP DUP3 PUSH1 0x3 PUSH1 0x0 PUSH2 0x100 EXP DUP2 SLOAD DUP2 PUSH20 0xFFFFFFFFFFFFFFFFFFFFFFFFFFFFFFFFFFFFFFFF MUL NOT AND SWAP1 DUP4 PUSH20 0xFFFFFFFFFFFFFFFFFFFFFFFFFFFFFFFFFFFFFFFF AND MUL OR SWAP1 SSTORE POP DUP2 PUSH1 0x4 PUSH1 0x0 PUSH2 0x100 EXP DUP2 SLOAD DUP2 PUSH20 0xFFFFFFFFFFFFFFFFFFFFFFFFFFFFFFFFFFFFFFFF MUL NOT AND SWAP1 DUP4 PUSH20 0xFFFFFFFFFFFFFFFFFFFFFFFFFFFFFFFFFFFFFFFF AND MUL OR SWAP1 SSTORE POP PUSH32 0x47A5DF88BAD4F3B7BDCB8E0E4310E4076E128EFC4216CEE8CD115C1600387E7C DUP6 DUP6 DUP6 DUP6 PUSH1 0x40 MLOAD PUSH2 0xA60 SWAP5 SWAP4 SWAP3 SWAP2 SWAP1 PUSH2 0x172C JUMP JUMPDEST PUSH1 0x40 MLOAD DUP1 SWAP2 SUB SWAP1 LOG1 POP POP POP POP POP JUMP JUMPDEST PUSH1 0x2 PUSH1 0x0 SWAP1 SLOAD SWAP1 PUSH2 0x100 EXP SWAP1 DIV PUSH20 0xFFFFFFFFFFFFFFFFFFFFFFFFFFFFFFFFFFFFFFFF AND DUP2 JUMP JUMPDEST PUSH1 0x0 DUP1 PUSH1 0x0 DUP5 DUP2 MSTORE PUSH1 0x20 ADD SWAP1 DUP2 MSTORE PUSH1 0x20 ADD PUSH1 0x0 KECCAK256 PUSH1 0x0 ADD PUSH1 0x0 DUP4 PUSH20 0xFFFFFFFFFFFFFFFFFFFFFFFFFFFFFFFFFFFFFFFF AND PUSH20 0xFFFFFFFFFFFFFFFFFFFFFFFFFFFFFFFFFFFFFFFF AND DUP2 MSTORE PUSH1 0x20 ADD SWAP1 DUP2 MSTORE PUSH1 0x20 ADD PUSH1 0x0 KECCAK256 PUSH1 0x0 SWAP1 SLOAD SWAP1 PUSH2 0x100 EXP SWAP1 DIV PUSH1 0xFF AND SWAP1 POP SWAP3 SWAP2 POP POP JUMP JUMPDEST PUSH1 0x0 DUP1 SHL DUP2 JUMP JUMPDEST PUSH2 0xB0F DUP3 PUSH2 0x85E JUMP JUMPDEST PUSH2 0xB18 DUP2 PUSH2 0xD7A JUMP JUMPDEST PUSH2 0xB22 DUP4 DUP4 PUSH2 0xFA8 JUMP JUMPDEST POP POP POP POP JUMP JUMPDEST PUSH1 0x1 PUSH1 0x0 SWAP1 SLOAD SWAP1 PUSH2 0x100 EXP SWAP1 DIV PUSH20 0xFFFFFFFFFFFFFFFFFFFFFFFFFFFFFFFFFFFFFFFF AND DUP2 JUMP JUMPDEST PUSH2 0x7D0 DUP2 JUMP JUMPDEST PUSH1 0x3 PUSH1 0x0 SWAP1 SLOAD SWAP1 PUSH2 0x100 EXP SWAP1 DIV PUSH20 0xFFFFFFFFFFFFFFFFFFFFFFFFFFFFFFFFFFFFFFFF AND DUP2 JUMP JUMPDEST PUSH32 0xFBD454F36A7E1A388BD6FC3AB10D434AA4578F811ACBBCF33AFB1C697486313C PUSH2 0xBA4 DUP2 PUSH2 0xD7A JUMP JUMPDEST PUSH1 0x0 PUSH20 0xFFFFFFFFFFFFFFFFFFFFFFFFFFFFFFFFFFFFFFFF AND DUP5 PUSH20 0xFFFFFFFFFFFFFFFFFFFFFFFFFFFFFFFFFFFFFFFF AND SUB PUSH2 0xC8A JUMPI PUSH1 0x0 DUP4 PUSH20 0xFFFFFFFFFFFFFFFFFFFFFFFFFFFFFFFFFFFFFFFF AND DUP4 PUSH1 0x40 MLOAD PUSH2 0xBFE SWAP1 PUSH2 0x17A2 JUMP JUMPDEST PUSH1 0x0 PUSH1 0x40 MLOAD DUP1 DUP4 SUB DUP2 DUP6 DUP8 GAS CALL SWAP3 POP POP POP RETURNDATASIZE DUP1 PUSH1 0x0 DUP2 EQ PUSH2 0xC3B JUMPI PUSH1 0x40 MLOAD SWAP2 POP PUSH1 0x1F NOT PUSH1 0x3F RETURNDATASIZE ADD AND DUP3 ADD PUSH1 0x40 MSTORE RETURNDATASIZE DUP3 MSTORE RETURNDATASIZE PUSH1 0x0 PUSH1 0x20 DUP5 ADD RETURNDATACOPY PUSH2 0xC40 JUMP JUMPDEST PUSH1 0x60 SWAP2 POP JUMPDEST POP POP SWAP1 POP DUP1 PUSH2 0xC84 JUMPI PUSH1 0x40 MLOAD PUSH32 0x8C379A000000000000000000000000000000000000000000000000000000000 DUP2 MSTORE PUSH1 0x4 ADD PUSH2 0xC7B SWAP1 PUSH2 0x1803 JUMP JUMPDEST PUSH1 0x40 MLOAD DUP1 SWAP2 SUB SWAP1 REVERT JUMPDEST POP PUSH2 0xCB6 JUMP JUMPDEST PUSH2 0xCB5 DUP4 DUP4 DUP7 PUSH20 0xFFFFFFFFFFFFFFFFFFFFFFFFFFFFFFFFFFFFFFFF AND PUSH2 0x109A SWAP1 SWAP3 SWAP2 SWAP1 PUSH4 0xFFFFFFFF AND JUMP JUMPDEST JUMPDEST POP POP POP POP JUMP JUMPDEST PUSH2 0xFA0 DUP2 JUMP JUMPDEST PUSH32 0xFBD454F36A7E1A388BD6FC3AB10D434AA4578F811ACBBCF33AFB1C697486313C DUP2 JUMP JUMPDEST PUSH32 0xF66846415D2BF9EABDA9E84793FF9C0EA96D87F50FC41E66AA16469C6A442F05 DUP2 JUMP JUMPDEST PUSH2 0xBB8 DUP2 JUMP JUMPDEST PUSH1 0x0 PUSH32 0x1FFC9A700000000000000000000000000000000000000000000000000000000 PUSH28 0xFFFFFFFFFFFFFFFFFFFFFFFFFFFFFFFFFFFFFFFFFFFFFFFFFFFFFFFF NOT AND DUP3 PUSH28 0xFFFFFFFFFFFFFFFFFFFFFFFFFFFFFFFFFFFFFFFFFFFFFFFFFFFFFFFF NOT AND EQ SWAP1 POP SWAP2 SWAP1 POP JUMP JUMPDEST PUSH2 0xD8B DUP2 PUSH2 0xD86 PUSH2 0xFA0 JUMP JUMPDEST PUSH2 0x1119 JUMP JUMPDEST POP JUMP JUMPDEST PUSH1 0x0 DUP2 SUB ISZERO PUSH2 0xEAA JUMPI PUSH1 0x0 PUSH20 0xFFFFFFFFFFFFFFFFFFFFFFFFFFFFFFFFFFFFFFFF AND DUP4 PUSH20 0xFFFFFFFFFFFFFFFFFFFFFFFFFFFFFFFFFFFFFFFF AND SUB PUSH2 0xE7D JUMPI PUSH1 0x0 DUP3 PUSH20 0xFFFFFFFFFFFFFFFFFFFFFFFFFFFFFFFFFFFFFFFF AND DUP3 PUSH1 0x40 MLOAD PUSH2 0xDF1 SWAP1 PUSH2 0x17A2 JUMP JUMPDEST PUSH1 0x0 PUSH1 0x40 MLOAD DUP1 DUP4 SUB DUP2 DUP6 DUP8 GAS CALL SWAP3 POP POP POP RETURNDATASIZE DUP1 PUSH1 0x0 DUP2 EQ PUSH2 0xE2E JUMPI PUSH1 0x40 MLOAD SWAP2 POP PUSH1 0x1F NOT PUSH1 0x3F RETURNDATASIZE ADD AND DUP3 ADD PUSH1 0x40 MSTORE RETURNDATASIZE DUP3 MSTORE RETURNDATASIZE PUSH1 0x0 PUSH1 0x20 DUP5 ADD RETURNDATACOPY PUSH2 0xE33 JUMP JUMPDEST PUSH1 0x60 SWAP2 POP JUMPDEST POP POP SWAP1 POP DUP1 PUSH2 0xE77 JUMPI PUSH1 0x40 MLOAD PUSH32 0x8C379A000000000000000000000000000000000000000000000000000000000 DUP2 MSTORE PUSH1 0x4 ADD PUSH2 0xE6E SWAP1 PUSH2 0x1803 JUMP JUMPDEST PUSH1 0x40 MLOAD DUP1 SWAP2 SUB SWAP1 REVERT JUMPDEST POP PUSH2 0xEA9 JUMP JUMPDEST PUSH2 0xEA8 DUP3 DUP3 DUP6 PUSH20 0xFFFFFFFFFFFFFFFFFFFFFFFFFFFFFFFFFFFFFFFF AND PUSH2 0x109A SWAP1 SWAP3 SWAP2 SWAP1 PUSH4 0xFFFFFFFF AND JUMP JUMPDEST JUMPDEST JUMPDEST POP POP POP JUMP JUMPDEST PUSH1 0x0 PUSH2 0xEBB DUP4 DUP4 PUSH2 0xA95 JUMP JUMPDEST PUSH2 0xF95 JUMPI PUSH1 0x1 PUSH1 0x0 DUP1 DUP6 DUP2 MSTORE PUSH1 0x20 ADD SWAP1 DUP2 MSTORE PUSH1 0x20 ADD PUSH1 0x0 KECCAK256 PUSH1 0x0 ADD PUSH1 0x0 DUP5 PUSH20 0xFFFFFFFFFFFFFFFFFFFFFFFFFFFFFFFFFFFFFFFF AND PUSH20 0xFFFFFFFFFFFFFFFFFFFFFFFFFFFFFFFFFFFFFFFF AND DUP2 MSTORE PUSH1 0x20 ADD SWAP1 DUP2 MSTORE PUSH1 0x20 ADD PUSH1 0x0 KECCAK256 PUSH1 0x0 PUSH2 0x100 EXP DUP2 SLOAD DUP2 PUSH1 0xFF MUL NOT AND SWAP1 DUP4 ISZERO ISZERO MUL OR SWAP1 SSTORE POP PUSH2 0xF32 PUSH2 0xFA0 JUMP JUMPDEST PUSH20 0xFFFFFFFFFFFFFFFFFFFFFFFFFFFFFFFFFFFFFFFF AND DUP3 PUSH20 0xFFFFFFFFFFFFFFFFFFFFFFFFFFFFFFFFFFFFFFFF AND DUP5 PUSH32 0x2F8788117E7EFF1D82E926EC794901D17C78024A50270940304540A733656F0D PUSH1 0x40 MLOAD PUSH1 0x40 MLOAD DUP1 SWAP2 SUB SWAP1 LOG4 PUSH1 0x1 SWAP1 POP PUSH2 0xF9A JUMP JUMPDEST PUSH1 0x0 SWAP1 POP JUMPDEST SWAP3 SWAP2 POP POP JUMP JUMPDEST PUSH1 0x0 CALLER SWAP1 POP SWAP1 JUMP JUMPDEST PUSH1 0x0 PUSH2 0xFB4 DUP4 DUP4 PUSH2 0xA95 JUMP JUMPDEST ISZERO PUSH2 0x108F JUMPI PUSH1 0x0 DUP1 PUSH1 0x0 DUP6 DUP2 MSTORE PUSH1 0x20 ADD SWAP1 DUP2 MSTORE PUSH1 0x20 ADD PUSH1 0x0 KECCAK256 PUSH1 0x0 ADD PUSH1 0x0 DUP5 PUSH20 0xFFFFFFFFFFFFFFFFFFFFFFFFFFFFFFFFFFFFFFFF AND PUSH20 0xFFFFFFFFFFFFFFFFFFFFFFFFFFFFFFFFFFFFFFFF AND DUP2 MSTORE PUSH1 0x20 ADD SWAP1 DUP2 MSTORE PUSH1 0x20 ADD PUSH1 0x0 KECCAK256 PUSH1 0x0 PUSH2 0x100 EXP DUP2 SLOAD DUP2 PUSH1 0xFF MUL NOT AND SWAP1 DUP4 ISZERO ISZERO MUL OR SWAP1 SSTORE POP PUSH2 0x102C PUSH2 0xFA0 JUMP JUMPDEST PUSH20 0xFFFFFFFFFFFFFFFFFFFFFFFFFFFFFFFFFFFFFFFF AND DUP3 PUSH20 0xFFFFFFFFFFFFFFFFFFFFFFFFFFFFFFFFFFFFFFFF AND DUP5 PUSH32 0xF6391F5C32D9C69D2A47EA670B442974B53935D1EDC7FD64EB21E047A839171B PUSH1 0x40 MLOAD PUSH1 0x40 MLOAD DUP1 SWAP2 SUB SWAP1 LOG4 PUSH1 0x1 SWAP1 POP PUSH2 0x1094 JUMP JUMPDEST PUSH1 0x0 SWAP1 POP JUMPDEST SWAP3 SWAP2 POP POP JUMP JUMPDEST PUSH2 0x1114 DUP4 DUP5 PUSH20 0xFFFFFFFFFFFFFFFFFFFFFFFFFFFFFFFFFFFFFFFF AND PUSH4 0xA9059CBB DUP6 DUP6 PUSH1 0x40 MLOAD PUSH1 0x24 ADD PUSH2 0x10CD SWAP3 SWAP2 SWAP1 PUSH2 0x1823 JUMP JUMPDEST PUSH1 0x40 MLOAD PUSH1 0x20 DUP2 DUP4 SUB SUB DUP2 MSTORE SWAP1 PUSH1 0x40 MSTORE SWAP2 POP PUSH1 0xE0 SHL PUSH1 0x20 DUP3 ADD DUP1 MLOAD PUSH28 0xFFFFFFFFFFFFFFFFFFFFFFFFFFFFFFFFFFFFFFFFFFFFFFFFFFFFFFFF DUP4 DUP2 DUP4 AND OR DUP4 MSTORE POP POP POP POP PUSH2 0x116A JUMP JUMPDEST POP POP POP JUMP JUMPDEST PUSH2 0x1123 DUP3 DUP3 PUSH2 0xA95 JUMP JUMPDEST PUSH2 0x1166 JUMPI DUP1 DUP3 PUSH1 0x40 MLOAD PUSH32 0xE2517D3F00000000000000000000000000000000000000000000000000000000 DUP2 MSTORE PUSH1 0x4 ADD PUSH2 0x115D SWAP3 SWAP2 SWAP1 PUSH2 0x184C JUMP JUMPDEST PUSH1 0x40 MLOAD DUP1 SWAP2 SUB SWAP1 REVERT JUMPDEST POP POP JUMP JUMPDEST PUSH1 0x0 DUP1 PUSH1 0x20 PUSH1 0x0 DUP5 MLOAD PUSH1 0x20 DUP7 ADD PUSH1 0x0 DUP9 GAS CALL DUP1 PUSH2 0x118D JUMPI PUSH1 0x40 MLOAD RETURNDATASIZE PUSH1 0x0 DUP3 RETURNDATACOPY RETURNDATASIZE DUP2 REVERT JUMPDEST RETURNDATASIZE SWAP3 POP PUSH1 0x0 MLOAD SWAP2 POP POP PUSH1 0x0 DUP3 EQ PUSH2 0x11A8 JUMPI PUSH1 0x1 DUP2 EQ ISZERO PUSH2 0x11C4 JUMP JUMPDEST PUSH1 0x0 DUP5 PUSH20 0xFFFFFFFFFFFFFFFFFFFFFFFFFFFFFFFFFFFFFFFF AND EXTCODESIZE EQ JUMPDEST ISZERO PUSH2 0x1206 JUMPI DUP4 PUSH1 0x40 MLOAD PUSH32 0x5274AFE700000000000000000000000000000000000000000000000000000000 DUP2 MSTORE PUSH1 0x4 ADD PUSH2 0x11FD SWAP2 SWAP1 PUSH2 0x1341 JUMP JUMPDEST PUSH1 0x40 MLOAD DUP1 SWAP2 SUB SWAP1 REVERT JUMPDEST POP POP POP POP JUMP JUMPDEST PUSH1 0x0 DUP2 SWAP1 POP SWAP2 SWAP1 POP JUMP JUMPDEST PUSH2 0x121F DUP2 PUSH2 0x120C JUMP JUMPDEST DUP3 MSTORE POP POP JUMP JUMPDEST PUSH1 0x0 PUSH1 0x20 DUP3 ADD SWAP1 POP PUSH2 0x123A PUSH1 0x0 DUP4 ADD DUP5 PUSH2 0x1216 JUMP JUMPDEST SWAP3 SWAP2 POP POP JUMP JUMPDEST PUSH1 0x0 DUP1 REVERT JUMPDEST PUSH1 0x0 PUSH32 0xFFFFFFFF00000000000000000000000000000000000000000000000000000000 DUP3 AND SWAP1 POP SWAP2 SWAP1 POP JUMP JUMPDEST PUSH2 0x127A DUP2 PUSH2 0x1245 JUMP JUMPDEST DUP2 EQ PUSH2 0x1285 JUMPI PUSH1 0x0 DUP1 REVERT JUMPDEST POP JUMP JUMPDEST PUSH1 0x0 DUP2 CALLDATALOAD SWAP1 POP PUSH2 0x1297 DUP2 PUSH2 0x1271 JUMP JUMPDEST SWAP3 SWAP2 POP POP JUMP JUMPDEST PUSH1 0x0 PUSH1 0x20 DUP3 DUP5 SUB SLT ISZERO PUSH2 0x12B3 JUMPI PUSH2 0x12B2 PUSH2 0x1240 JUMP JUMPDEST JUMPDEST PUSH1 0x0 PUSH2 0x12C1 DUP5 DUP3 DUP6 ADD PUSH2 0x1288 JUMP JUMPDEST SWAP2 POP POP SWAP3 SWAP2 POP POP JUMP JUMPDEST PUSH1 0x0 DUP2 ISZERO ISZERO SWAP1 POP SWAP2 SWAP1 POP JUMP JUMPDEST PUSH2 0x12DF DUP2 PUSH2 0x12CA JUMP JUMPDEST DUP3 MSTORE POP POP JUMP JUMPDEST PUSH1 0x0 PUSH1 0x20 DUP3 ADD SWAP1 POP PUSH2 0x12FA PUSH1 0x0 DUP4 ADD DUP5 PUSH2 0x12D6 JUMP JUMPDEST SWAP3 SWAP2 POP POP JUMP JUMPDEST PUSH1 0x0 PUSH20 0xFFFFFFFFFFFFFFFFFFFFFFFFFFFFFFFFFFFFFFFF DUP3 AND SWAP1 POP SWAP2 SWAP1 POP JUMP JUMPDEST PUSH1 0x0 PUSH2 0x132B DUP3 PUSH2 0x1300 JUMP JUMPDEST SWAP1 POP SWAP2 SWAP1 POP JUMP JUMPDEST PUSH2 0x133B DUP2 PUSH2 0x1320 JUMP JUMPDEST DUP3 MSTORE POP POP JUMP JUMPDEST PUSH1 0x0 PUSH1 0x20 DUP3 ADD SWAP1 POP PUSH2 0x1356 PUSH1 0x0 DUP4 ADD DUP5 PUSH2 0x1332 JUMP JUMPDEST SWAP3 SWAP2 POP POP JUMP JUMPDEST PUSH2 0x1365 DUP2 PUSH2 0x1320 JUMP JUMPDEST DUP2 EQ PUSH2 0x1370 JUMPI PUSH1 0x0 DUP1 REVERT JUMPDEST POP JUMP JUMPDEST PUSH1 0x0 DUP2 CALLDATALOAD SWAP1 POP PUSH2 0x1382 DUP2 PUSH2 0x135C JUMP JUMPDEST SWAP3 SWAP2 POP POP JUMP JUMPDEST PUSH1 0x0 PUSH1 0x20 DUP3 DUP5 SUB SLT ISZERO PUSH2 0x139E JUMPI PUSH2 0x139D PUSH2 0x1240 JUMP JUMPDEST JUMPDEST PUSH1 0x0 PUSH2 0x13AC DUP5 DUP3 DUP6 ADD PUSH2 0x1373 JUMP JUMPDEST SWAP2 POP POP SWAP3 SWAP2 POP POP JUMP JUMPDEST PUSH1 0x0 DUP2 SWAP1 POP SWAP2 SWAP1 POP JUMP JUMPDEST PUSH2 0x13C8 DUP2 PUSH2 0x13B5 JUMP JUMPDEST DUP2 EQ PUSH2 0x13D3 JUMPI PUSH1 0x0 DUP1 REVERT JUMPDEST POP JUMP JUMPDEST PUSH1 0x0 DUP2 CALLDATALOAD SWAP1 POP PUSH2 0x13E5 DUP2 PUSH2 0x13BF JUMP JUMPDEST SWAP3 SWAP2 POP POP JUMP JUMPDEST PUSH1 0x0 PUSH1 0x20 DUP3 DUP5 SUB SLT ISZERO PUSH2 0x1401 JUMPI PUSH2 0x1400 PUSH2 0x1240 JUMP JUMPDEST JUMPDEST PUSH1 0x0 PUSH2 0x140F DUP5 DUP3 DUP6 ADD PUSH2 0x13D6 JUMP JUMPDEST SWAP2 POP POP SWAP3 SWAP2 POP POP JUMP JUMPDEST PUSH2 0x1421 DUP2 PUSH2 0x13B5 JUMP JUMPDEST DUP3 MSTORE POP POP JUMP JUMPDEST PUSH1 0x0 PUSH1 0x20 DUP3 ADD SWAP1 POP PUSH2 0x143C PUSH1 0x0 DUP4 ADD DUP5 PUSH2 0x1418 JUMP JUMPDEST SWAP3 SWAP2 POP POP JUMP JUMPDEST PUSH1 0x0 DUP1 PUSH1 0x40 DUP4 DUP6 SUB SLT ISZERO PUSH2 0x1459 JUMPI PUSH2 0x1458 PUSH2 0x1240 JUMP JUMPDEST JUMPDEST PUSH1 0x0 PUSH2 0x1467 DUP6 DUP3 DUP7 ADD PUSH2 0x13D6 JUMP JUMPDEST SWAP3 POP POP PUSH1 0x20 PUSH2 0x1478 DUP6 DUP3 DUP7 ADD PUSH2 0x1373 JUMP JUMPDEST SWAP2 POP POP SWAP3 POP SWAP3 SWAP1 POP JUMP JUMPDEST PUSH1 0x0 DUP1 PUSH1 0x0 DUP1 PUSH1 0x80 DUP6 DUP8 SUB SLT ISZERO PUSH2 0x149C JUMPI PUSH2 0x149B PUSH2 0x1240 JUMP JUMPDEST JUMPDEST PUSH1 0x0 PUSH2 0x14AA DUP8 DUP3 DUP9 ADD PUSH2 0x1373 JUMP JUMPDEST SWAP5 POP POP PUSH1 0x20 PUSH2 0x14BB DUP8 DUP3 DUP9 ADD PUSH2 0x1373 JUMP JUMPDEST SWAP4 POP POP PUSH1 0x40 PUSH2 0x14CC DUP8 DUP3 DUP9 ADD PUSH2 0x1373 JUMP JUMPDEST SWAP3 POP POP PUSH1 0x60 PUSH2 0x14DD DUP8 DUP3 DUP9 ADD PUSH2 0x1373 JUMP JUMPDEST SWAP2 POP POP SWAP3 SWAP6 SWAP2 SWAP5 POP SWAP3 POP JUMP JUMPDEST PUSH2 0x14F2 DUP2 PUSH2 0x120C JUMP JUMPDEST DUP2 EQ PUSH2 0x14FD JUMPI PUSH1 0x0 DUP1 REVERT JUMPDEST POP JUMP JUMPDEST PUSH1 0x0 DUP2 CALLDATALOAD SWAP1 POP PUSH2 0x150F DUP2 PUSH2 0x14E9 JUMP JUMPDEST SWAP3 SWAP2 POP POP JUMP JUMPDEST PUSH1 0x0 DUP1 PUSH1 0x0 PUSH1 0x60 DUP5 DUP7 SUB SLT ISZERO PUSH2 0x152E JUMPI PUSH2 0x152D PUSH2 0x1240 JUMP JUMPDEST JUMPDEST PUSH1 0x0 PUSH2 0x153C DUP7 DUP3 DUP8 ADD PUSH2 0x1373 JUMP JUMPDEST SWAP4 POP POP PUSH1 0x20 PUSH2 0x154D DUP7 DUP3 DUP8 ADD PUSH2 0x1373 JUMP JUMPDEST SWAP3 POP POP PUSH1 0x40 PUSH2 0x155E DUP7 DUP3 DUP8 ADD PUSH2 0x1500 JUMP JUMPDEST SWAP2 POP POP SWAP3 POP SWAP3 POP SWAP3 JUMP JUMPDEST PUSH1 0x0 DUP2 MLOAD SWAP1 POP PUSH2 0x1577 DUP2 PUSH2 0x14E9 JUMP JUMPDEST SWAP3 SWAP2 POP POP JUMP JUMPDEST PUSH1 0x0 PUSH1 0x20 DUP3 DUP5 SUB SLT ISZERO PUSH2 0x1593 JUMPI PUSH2 0x1592 PUSH2 0x1240 JUMP JUMPDEST JUMPDEST PUSH1 0x0 PUSH2 0x15A1 DUP5 DUP3 DUP6 ADD PUSH2 0x1568 JUMP JUMPDEST SWAP2 POP POP SWAP3 SWAP2 POP POP JUMP JUMPDEST PUSH1 0x0 DUP3 DUP3 MSTORE PUSH1 0x20 DUP3 ADD SWAP1 POP SWAP3 SWAP2 POP POP JUMP JUMPDEST PUSH32 0x4E6F2066756E647320746F206469737472696275746500000000000000000000 PUSH1 0x0 DUP3 ADD MSTORE POP JUMP JUMPDEST PUSH1 0x0 PUSH2 0x15F1 PUSH1 0x16 DUP4 PUSH2 0x15AA JUMP JUMPDEST SWAP2 POP PUSH2 0x15FC DUP3 PUSH2 0x15BB JUMP JUMPDEST PUSH1 0x20 DUP3 ADD SWAP1 POP SWAP2 SWAP1 POP JUMP JUMPDEST PUSH1 0x0 PUSH1 0x20 DUP3 ADD SWAP1 POP DUP2 DUP2 SUB PUSH1 0x0 DUP4 ADD MSTORE PUSH2 0x1620 DUP2 PUSH2 0x15E4 JUMP JUMPDEST SWAP1 POP SWAP2 SWAP1 POP JUMP JUMPDEST PUSH32 0x4E487B7100000000000000000000000000000000000000000000000000000000 PUSH1 0x0 MSTORE PUSH1 0x11 PUSH1 0x4 MSTORE PUSH1 0x24 PUSH1 0x0 REVERT JUMPDEST PUSH1 0x0 PUSH2 0x1661 DUP3 PUSH2 0x120C JUMP JUMPDEST SWAP2 POP PUSH2 0x166C DUP4 PUSH2 0x120C JUMP JUMPDEST SWAP3 POP DUP3 DUP3 MUL PUSH2 0x167A DUP2 PUSH2 0x120C JUMP JUMPDEST SWAP2 POP DUP3 DUP3 DIV DUP5 EQ DUP4 ISZERO OR PUSH2 0x1691 JUMPI PUSH2 0x1690 PUSH2 0x1627 JUMP JUMPDEST JUMPDEST POP SWAP3 SWAP2 POP POP JUMP JUMPDEST PUSH32 0x4E487B7100000000000000000000000000000000000000000000000000000000 PUSH1 0x0 MSTORE PUSH1 0x12 PUSH1 0x4 MSTORE PUSH1 0x24 PUSH1 0x0 REVERT JUMPDEST PUSH1 0x0 PUSH2 0x16D2 DUP3 PUSH2 0x120C JUMP JUMPDEST SWAP2 POP PUSH2 0x16DD DUP4 PUSH2 0x120C JUMP JUMPDEST SWAP3 POP DUP3 PUSH2 0x16ED JUMPI PUSH2 0x16EC PUSH2 0x1698 JUMP JUMPDEST JUMPDEST DUP3 DUP3 DIV SWAP1 POP SWAP3 SWAP2 POP POP JUMP JUMPDEST PUSH1 0x0 PUSH2 0x1703 DUP3 PUSH2 0x120C JUMP JUMPDEST SWAP2 POP PUSH2 0x170E DUP4 PUSH2 0x120C JUMP JUMPDEST SWAP3 POP DUP3 DUP3 SUB SWAP1 POP DUP2 DUP2 GT ISZERO PUSH2 0x1726 JUMPI PUSH2 0x1725 PUSH2 0x1627 JUMP JUMPDEST JUMPDEST SWAP3 SWAP2 POP POP JUMP JUMPDEST PUSH1 0x0 PUSH1 0x80 DUP3 ADD SWAP1 POP PUSH2 0x1741 PUSH1 0x0 DUP4 ADD DUP8 PUSH2 0x1332 JUMP JUMPDEST PUSH2 0x174E PUSH1 0x20 DUP4 ADD DUP7 PUSH2 0x1332 JUMP JUMPDEST PUSH2 0x175B PUSH1 0x40 DUP4 ADD DUP6 PUSH2 0x1332 JUMP JUMPDEST PUSH2 0x1768 PUSH1 0x60 DUP4 ADD DUP5 PUSH2 0x1332 JUMP JUMPDEST SWAP6 SWAP5 POP POP POP POP POP JUMP JUMPDEST PUSH1 0x0 DUP2 SWAP1 POP SWAP3 SWAP2 POP POP JUMP JUMPDEST POP JUMP JUMPDEST PUSH1 0x0 PUSH2 0x178C PUSH1 0x0 DUP4 PUSH2 0x1771 JUMP JUMPDEST SWAP2 POP PUSH2 0x1797 DUP3 PUSH2 0x177C JUMP JUMPDEST PUSH1 0x0 DUP3 ADD SWAP1 POP SWAP2 SWAP1 POP JUMP JUMPDEST PUSH1 0x0 PUSH2 0x17AD DUP3 PUSH2 0x177F JUMP JUMPDEST SWAP2 POP DUP2 SWAP1 POP SWAP2 SWAP1 POP JUMP JUMPDEST PUSH32 0x5472616E73666572206661696C65640000000000000000000000000000000000 PUSH1 0x0 DUP3 ADD MSTORE POP JUMP JUMPDEST PUSH1 0x0 PUSH2 0x17ED PUSH1 0xF DUP4 PUSH2 0x15AA JUMP JUMPDEST SWAP2 POP PUSH2 0x17F8 DUP3 PUSH2 0x17B7 JUMP JUMPDEST PUSH1 0x20 DUP3 ADD SWAP1 POP SWAP2 SWAP1 POP JUMP JUMPDEST PUSH1 0x0 PUSH1 0x20 DUP3 ADD SWAP1 POP DUP2 DUP2 SUB PUSH1 0x0 DUP4 ADD MSTORE PUSH2 0x181C DUP2 PUSH2 0x17E0 JUMP JUMPDEST SWAP1 POP SWAP2 SWAP1 POP JUMP JUMPDEST PUSH1 0x0 PUSH1 0x40 DUP3 ADD SWAP1 POP PUSH2 0x1838 PUSH1 0x0 DUP4 ADD DUP6 PUSH2 0x1332 JUMP JUMPDEST PUSH2 0x1845 PUSH1 0x20 DUP4 ADD DUP5 PUSH2 0x1216 JUMP JUMPDEST SWAP4 SWAP3 POP POP POP JUMP JUMPDEST PUSH1 0x0 PUSH1 0x40 DUP3 ADD SWAP1 POP PUSH2 0x1861 PUSH1 0x0 DUP4 ADD DUP6 PUSH2 0x1332 JUMP JUMPDEST PUSH2 0x186E PUSH1 0x20 DUP4 ADD DUP5 PUSH2 0x1418 JUMP JUMPDEST SWAP4 SWAP3 POP POP POP JUMP INVALID LOG2 PUSH5 0x6970667358 0x22 SLT KECCAK256 PUSH3 0xCC8C12 PUSH30 0x1F136366C6242BD9F6DE7FC1077C61B00EAFB3D55D3F14923D737A64736F PUSH13 0x63430008140033000000000000 "},"methodIdentifiers":{"DEFAULT_ADMIN_ROLE()":"a217fddf","DISTRIBUTOR_ROLE()":"f0bd87cc","OPERATOR_BPS()":"f53507f2","PUBLIC_GOODS_BPS()":"da595774","SECURITY_RESERVE_BPS()":"236d3748","TIMELOCK_ROLE()":"f288a2e2","WATCHER_BPS()":"ef1ee732","distributeReward(address,address,uint256)":"e7cea7f4","distributeRewards(address)":"1de9d9b6","getRoleAdmin(bytes32)":"248a9ca3","grantRole(bytes32,address)":"2f2ff15d","hasRole(bytes32,address)":"91d14854","operator()":"570ca735","publicGoods()":"e3577e7b","renounceRole(bytes32,address)":"36568abe","revokeRole(bytes32,address)":"d547741f","securityReserve()":"118bfe7e","setDistributionAddresses(address,address,address,address)":"5246cacb","supportsInterface(bytes4)":"01ffc9a7","watcher()":"d6b74865"}}}}}