{"contracts/ArnFeeSplitter.sol":{"ArnFeeSplitter":{"abi":[{"inputs":[{"internalType":"address","name":"_treasury","type":"address"}],"stateMutability":"nonpayable","type":"constructor"},{"inputs":[{"internalType":"address","name":"owner","type":"address"}],"name":"OwnableInvalidOwner","type":"error"},{"inputs":[{"internalType":"address","name":"account","type":"address"}],"name":"OwnableUnauthorizedAccount","type":"error"},{"inputs":[{"internalType":"address","name":"token","type":"address"}],"name":"SafeERC20FailedOperation","type":"error"},{"anonymous":false,"inputs":[{"indexed":true,"internalType":"address","name":"previousOwner","type":"address"},{"indexed":true,"internalType":"address","name":"newOwner","type":"address"}],"name":"OwnershipTransferred","type":"event"},{"anonymous":false,"inputs":[{"indexed":true,"internalType":"address","name":"token","type":"address"},{"indexed":true,"internalType":"address","name":"merchant","type":"address"},{"indexed":false,"internalType":"uint256","name":"totalAmount","type":"uint256"},{"indexed":false,"internalType":"uint256","name":"merchantAmount","type":"uint256"},{"indexed":false,"internalType":"uint256","name":"feeAmount","type":"uint256"},{"indexed":true,"internalType":"bytes32","name":"routeRefHash","type":"bytes32"}],"name":"PaymentSplit","type":"event"},{"anonymous":false,"inputs":[{"indexed":false,"internalType":"uint256","name":"newFeeBps","type":"uint256"}],"name":"ProtocolFeeUpdated","type":"event"},{"anonymous":false,"inputs":[{"indexed":false,"internalType":"address","name":"newTreasury","type":"address"}],"name":"TreasuryUpdated","type":"event"},{"inputs":[],"name":"owner","outputs":[{"internalType":"address","name":"","type":"address"}],"stateMutability":"view","type":"function"},{"inputs":[],"name":"protocolFeeBps","outputs":[{"internalType":"uint256","name":"","type":"uint256"}],"stateMutability":"view","type":"function"},{"inputs":[{"internalType":"address","name":"token","type":"address"},{"internalType":"address","name":"merchant","type":"address"},{"internalType":"uint256","name":"amount","type":"uint256"},{"internalType":"bytes32","name":"orderId","type":"bytes32"}],"name":"quickPaySplit","outputs":[],"stateMutability":"nonpayable","type":"function"},{"inputs":[],"name":"renounceOwnership","outputs":[],"stateMutability":"nonpayable","type":"function"},{"inputs":[{"internalType":"uint256","name":"_bps","type":"uint256"}],"name":"setProtocolFee","outputs":[],"stateMutability":"nonpayable","type":"function"},{"inputs":[{"internalType":"address","name":"_treasury","type":"address"}],"name":"setTreasury","outputs":[],"stateMutability":"nonpayable","type":"function"},{"inputs":[{"internalType":"address","name":"token","type":"address"},{"internalType":"address","name":"merchant","type":"address"},{"internalType":"uint256","name":"amount","type":"uint256"},{"internalType":"bytes","name":"routeRef","type":"bytes"}],"name":"splitPaymentERC20","outputs":[],"stateMutability":"nonpayable","type":"function"},{"inputs":[{"internalType":"address","name":"merchant","type":"address"},{"internalType":"bytes","name":"routeRef","type":"bytes"}],"name":"splitPaymentNative","outputs":[],"stateMutability":"payable","type":"function"},{"inputs":[{"internalType":"address","name":"newOwner","type":"address"}],"name":"transferOwnership","outputs":[],"stateMutability":"nonpayable","type":"function"},{"inputs":[],"name":"treasury","outputs":[{"internalType":"address","name":"","type":"address"}],"stateMutability":"view","type":"function"}],"evm":{"bytecode":{"linkReferences":{},"object":"6080604052601e6001553480156200001657600080fd5b506040516200189d3803806200189d83398181016040528101906200003c9190620002ac565b33600073ffffffffffffffffffffffffffffffffffffffff168173ffffffffffffffffffffffffffffffffffffffff1603620000b25760006040517f1e4fbdf7000000000000000000000000000000000000000000000000000000008152600401620000a99190620002ef565b60405180910390fd5b620000c3816200017e60201b60201c565b50600073ffffffffffffffffffffffffffffffffffffffff168173ffffffffffffffffffffffffffffffffffffffff160362000136576040517f08c379a00000000000000000000000000000000000000000000000000000000081526004016200012d906200036d565b60405180910390fd5b80600260006101000a81548173ffffffffffffffffffffffffffffffffffffffff021916908373ffffffffffffffffffffffffffffffffffffffff160217905550506200038f565b60008060009054906101000a900473ffffffffffffffffffffffffffffffffffffffff169050816000806101000a81548173ffffffffffffffffffffffffffffffffffffffff021916908373ffffffffffffffffffffffffffffffffffffffff1602179055508173ffffffffffffffffffffffffffffffffffffffff168173ffffffffffffffffffffffffffffffffffffffff167f8be0079c531659141344cd1fd0a4f28419497f9722a3daafe3b4186f6b6457e060405160405180910390a35050565b600080fd5b600073ffffffffffffffffffffffffffffffffffffffff82169050919050565b6000620002748262000247565b9050919050565b620002868162000267565b81146200029257600080fd5b50565b600081519050620002a6816200027b565b92915050565b600060208284031215620002c557620002c462000242565b5b6000620002d58482850162000295565b91505092915050565b620002e98162000267565b82525050565b6000602082019050620003066000830184620002de565b92915050565b600082825260208201905092915050565b7f496e76616c696420747265617375727900000000000000000000000000000000600082015250565b6000620003556010836200030c565b915062000362826200031d565b602082019050919050565b60006020820190508181036000830152620003888162000346565b9050919050565b6114fe806200039f6000396000f3fe6080604052600436106100915760003560e01c8063715018a611610059578063715018a61461015a578063787dce3d146101715780638da5cb5b1461019a578063f0f44260146101c5578063f2fde38b146101ee57610091565b8063239796b21461009657806335659fb8146100bf5780633e8eaff6146100ea578063523830371461010657806361d027b31461012f575b600080fd5b3480156100a257600080fd5b506100bd60048036038101906100b89190610e0a565b610217565b005b3480156100cb57600080fd5b506100d46103b4565b6040516100e19190610e80565b60405180910390f35b61010460048036038101906100ff9190610f00565b6103ba565b005b34801561011257600080fd5b5061012d60048036038101906101289190610f60565b61064b565b005b34801561013b57600080fd5b506101446107d7565b6040516101519190610ff7565b60405180910390f35b34801561016657600080fd5b5061016f6107fd565b005b34801561017d57600080fd5b5061019860048036038101906101939190611012565b610811565b005b3480156101a657600080fd5b506101af61089f565b6040516101bc9190610ff7565b60405180910390f35b3480156101d157600080fd5b506101ec60048036038101906101e7919061103f565b6108c8565b005b3480156101fa57600080fd5b506102156004803603810190610210919061103f565b6109ba565b005b6000821161025a576040517f08c379a0000000000000000000000000000000000000000000000000000000008152600401610251906110c9565b60405180910390fd5b6102873330848773ffffffffffffffffffffffffffffffffffffffff16610a40909392919063ffffffff16565b60006127106001548461029a9190611118565b6102a49190611189565b9050600081846102b491906111ba565b9050600082111561030d5761030c600260009054906101000a900473ffffffffffffffffffffffffffffffffffffffff16838873ffffffffffffffffffffffffffffffffffffffff16610ac29092919063ffffffff16565b5b60008111156103425761034185828873ffffffffffffffffffffffffffffffffffffffff16610ac29092919063ffffffff16565b5b828573ffffffffffffffffffffffffffffffffffffffff168773ffffffffffffffffffffffffffffffffffffffff167f1d53deaef03137ccd2fa5503b6c280dacfce2e7ae1483128fb0ebfc6fa050e8c8785876040516103a4939291906111ee565b60405180910390a4505050505050565b60015481565b600034905060008111610402576040517f08c379a00000000000000000000000000000000000000000000000000000000081526004016103f9906110c9565b60405180910390fd5b6000612710600154836104159190611118565b61041f9190611189565b90506000818361042f91906111ba565b9050600082111561050a576000600260009054906101000a900473ffffffffffffffffffffffffffffffffffffffff1673ffffffffffffffffffffffffffffffffffffffff168360405161048290611256565b60006040518083038185875af1925050503d80600081146104bf576040519150601f19603f3d011682016040523d82523d6000602084013e6104c4565b606091505b5050905080610508576040517f08c379a00000000000000000000000000000000000000000000000000000000081526004016104ff906112b7565b60405180910390fd5b505b60008111156105c15760008673ffffffffffffffffffffffffffffffffffffffff168260405161053990611256565b60006040518083038185875af1925050503d8060008114610576576040519150601f19603f3d011682016040523d82523d6000602084013e61057b565b606091505b50509050806105bf576040517f08c379a00000000000000000000000000000000000000000000000000000000081526004016105b690611323565b60405180910390fd5b505b84846040516105d1929190611377565b60405180910390208673ffffffffffffffffffffffffffffffffffffffff16600073ffffffffffffffffffffffffffffffffffffffff167f1d53deaef03137ccd2fa5503b6c280dacfce2e7ae1483128fb0ebfc6fa050e8c86858760405161063b939291906111ee565b60405180910390a4505050505050565b6000831161068e576040517f08c379a0000000000000000000000000000000000000000000000000000000008152600401610685906110c9565b60405180910390fd5b6000612710600154856106a19190611118565b6106ab9190611189565b9050600081856106bb91906111ba565b905060008211156107165761071533600260009054906101000a900473ffffffffffffffffffffffffffffffffffffffff16848a73ffffffffffffffffffffffffffffffffffffffff16610a40909392919063ffffffff16565b5b600081111561074d5761074c3387838a73ffffffffffffffffffffffffffffffffffffffff16610a40909392919063ffffffff16565b5b838360405161075d929190611377565b60405180910390208673ffffffffffffffffffffffffffffffffffffffff168873ffffffffffffffffffffffffffffffffffffffff167f1d53deaef03137ccd2fa5503b6c280dacfce2e7ae1483128fb0ebfc6fa050e8c8885876040516107c6939291906111ee565b60405180910390a450505050505050565b600260009054906101000a900473ffffffffffffffffffffffffffffffffffffffff1681565b610805610b41565b61080f6000610bc8565b565b610819610b41565b6103e881111561085e576040517f08c379a0000000000000000000000000000000000000000000000000000000008152600401610855906113dc565b60405180910390fd5b806001819055507fd10d75876659a287a59a6ccfa2e3fff42f84d94b542837acd30bc184d562de40816040516108949190610e80565b60405180910390a150565b60008060009054906101000a900473ffffffffffffffffffffffffffffffffffffffff16905090565b6108d0610b41565b600073ffffffffffffffffffffffffffffffffffffffff168173ffffffffffffffffffffffffffffffffffffffff160361093f576040517f08c379a000000000000000000000000000000000000000000000000000000000815260040161093690611448565b60405180910390fd5b80600260006101000a81548173ffffffffffffffffffffffffffffffffffffffff021916908373ffffffffffffffffffffffffffffffffffffffff1602179055507f7dae230f18360d76a040c81f050aa14eb9d6dc7901b20fc5d855e2a20fe814d1816040516109af9190610ff7565b60405180910390a150565b6109c2610b41565b600073ffffffffffffffffffffffffffffffffffffffff168173ffffffffffffffffffffffffffffffffffffffff1603610a345760006040517f1e4fbdf7000000000000000000000000000000000000000000000000000000008152600401610a2b9190610ff7565b60405180910390fd5b610a3d81610bc8565b50565b610abc848573ffffffffffffffffffffffffffffffffffffffff166323b872dd868686604051602401610a7593929190611468565b604051602081830303815290604052915060e01b6020820180517bffffffffffffffffffffffffffffffffffffffffffffffffffffffff8381831617835250505050610c8c565b50505050565b610b3c838473ffffffffffffffffffffffffffffffffffffffff1663a9059cbb8585604051602401610af592919061149f565b604051602081830303815290604052915060e01b6020820180517bffffffffffffffffffffffffffffffffffffffffffffffffffffffff8381831617835250505050610c8c565b505050565b610b49610d2e565b73ffffffffffffffffffffffffffffffffffffffff16610b6761089f565b73ffffffffffffffffffffffffffffffffffffffff1614610bc657610b8a610d2e565b6040517f118cdaa7000000000000000000000000000000000000000000000000000000008152600401610bbd9190610ff7565b60405180910390fd5b565b60008060009054906101000a900473ffffffffffffffffffffffffffffffffffffffff169050816000806101000a81548173ffffffffffffffffffffffffffffffffffffffff021916908373ffffffffffffffffffffffffffffffffffffffff1602179055508173ffffffffffffffffffffffffffffffffffffffff168173ffffffffffffffffffffffffffffffffffffffff167f8be0079c531659141344cd1fd0a4f28419497f9722a3daafe3b4186f6b6457e060405160405180910390a35050565b600080602060008451602086016000885af180610caf576040513d6000823e3d81fd5b3d925060005191505060008214610cca576001811415610ce6565b60008473ffffffffffffffffffffffffffffffffffffffff163b145b15610d2857836040517f5274afe7000000000000000000000000000000000000000000000000000000008152600401610d1f9190610ff7565b60405180910390fd5b50505050565b600033905090565b600080fd5b600080fd5b600073ffffffffffffffffffffffffffffffffffffffff82169050919050565b6000610d6b82610d40565b9050919050565b610d7b81610d60565b8114610d8657600080fd5b50565b600081359050610d9881610d72565b92915050565b6000819050919050565b610db181610d9e565b8114610dbc57600080fd5b50565b600081359050610dce81610da8565b92915050565b6000819050919050565b610de781610dd4565b8114610df257600080fd5b50565b600081359050610e0481610dde565b92915050565b60008060008060808587031215610e2457610e23610d36565b5b6000610e3287828801610d89565b9450506020610e4387828801610d89565b9350506040610e5487828801610dbf565b9250506060610e6587828801610df5565b91505092959194509250565b610e7a81610d9e565b82525050565b6000602082019050610e956000830184610e71565b92915050565b600080fd5b600080fd5b600080fd5b60008083601f840112610ec057610ebf610e9b565b5b8235905067ffffffffffffffff811115610edd57610edc610ea0565b5b602083019150836001820283011115610ef957610ef8610ea5565b5b9250929050565b600080600060408486031215610f1957610f18610d36565b5b6000610f2786828701610d89565b935050602084013567ffffffffffffffff811115610f4857610f47610d3b565b5b610f5486828701610eaa565b92509250509250925092565b600080600080600060808688031215610f7c57610f7b610d36565b5b6000610f8a88828901610d89565b9550506020610f9b88828901610d89565b9450506040610fac88828901610dbf565b935050606086013567ffffffffffffffff811115610fcd57610fcc610d3b565b5b610fd988828901610eaa565b92509250509295509295909350565b610ff181610d60565b82525050565b600060208201905061100c6000830184610fe8565b92915050565b60006020828403121561102857611027610d36565b5b600061103684828501610dbf565b91505092915050565b60006020828403121561105557611054610d36565b5b600061106384828501610d89565b91505092915050565b600082825260208201905092915050565b7f416d6f756e74206d757374206265203e20300000000000000000000000000000600082015250565b60006110b360128361106c565b91506110be8261107d565b602082019050919050565b600060208201905081810360008301526110e2816110a6565b9050919050565b7f4e487b7100000000000000000000000000000000000000000000000000000000600052601160045260246000fd5b600061112382610d9e565b915061112e83610d9e565b925082820261113c81610d9e565b91508282048414831517611153576111526110e9565b5b5092915050565b7f4e487b7100000000000000000000000000000000000000000000000000000000600052601260045260246000fd5b600061119482610d9e565b915061119f83610d9e565b9250826111af576111ae61115a565b5b828204905092915050565b60006111c582610d9e565b91506111d083610d9e565b92508282039050818111156111e8576111e76110e9565b5b92915050565b60006060820190506112036000830186610e71565b6112106020830185610e71565b61121d6040830184610e71565b949350505050565b600081905092915050565b50565b6000611240600083611225565b915061124b82611230565b600082019050919050565b600061126182611233565b9150819050919050565b7f466565207472616e73666572206661696c656400000000000000000000000000600082015250565b60006112a160138361106c565b91506112ac8261126b565b602082019050919050565b600060208201905081810360008301526112d081611294565b9050919050565b7f4d65726368616e74207472616e73666572206661696c65640000000000000000600082015250565b600061130d60188361106c565b9150611318826112d7565b602082019050919050565b6000602082019050818103600083015261133c81611300565b9050919050565b82818337600083830152505050565b600061135e8385611225565b935061136b838584611343565b82840190509392505050565b6000611384828486611352565b91508190509392505050565b7f46656520746f6f206869676820286d6178203130252900000000000000000000600082015250565b60006113c660168361106c565b91506113d182611390565b602082019050919050565b600060208201905081810360008301526113f5816113b9565b9050919050565b7f496e76616c696420616464726573730000000000000000000000000000000000600082015250565b6000611432600f8361106c565b915061143d826113fc565b602082019050919050565b6000602082019050818103600083015261146181611425565b9050919050565b600060608201905061147d6000830186610fe8565b61148a6020830185610fe8565b6114976040830184610e71565b949350505050565b60006040820190506114b46000830185610fe8565b6114c16020830184610e71565b939250505056fea264697066735822122010194fc4350334b6269826ab982eb2ae837b148fc003fed171350bfa4bbd1aa864736f6c63430008140033","opcodes":"PUSH1 0x80 PUSH1 0x40 MSTORE PUSH1 0x1E PUSH1 0x1 SSTORE CALLVALUE DUP1 ISZERO PUSH3 0x16 JUMPI PUSH1 0x0 DUP1 REVERT JUMPDEST POP PUSH1 0x40 MLOAD PUSH3 0x189D CODESIZE SUB DUP1 PUSH3 0x189D DUP4 CODECOPY DUP2 DUP2 ADD PUSH1 0x40 MSTORE DUP2 ADD SWAP1 PUSH3 0x3C SWAP2 SWAP1 PUSH3 0x2AC JUMP JUMPDEST CALLER PUSH1 0x0 PUSH20 0xFFFFFFFFFFFFFFFFFFFFFFFFFFFFFFFFFFFFFFFF AND DUP2 PUSH20 0xFFFFFFFFFFFFFFFFFFFFFFFFFFFFFFFFFFFFFFFF AND SUB PUSH3 0xB2 JUMPI PUSH1 0x0 PUSH1 0x40 MLOAD PUSH32 0x1E4FBDF700000000000000000000000000000000000000000000000000000000 DUP2 MSTORE PUSH1 0x4 ADD PUSH3 0xA9 SWAP2 SWAP1 PUSH3 0x2EF JUMP JUMPDEST PUSH1 0x40 MLOAD DUP1 SWAP2 SUB SWAP1 REVERT JUMPDEST PUSH3 0xC3 DUP2 PUSH3 0x17E PUSH1 0x20 SHL PUSH1 0x20 SHR JUMP JUMPDEST POP PUSH1 0x0 PUSH20 0xFFFFFFFFFFFFFFFFFFFFFFFFFFFFFFFFFFFFFFFF AND DUP2 PUSH20 0xFFFFFFFFFFFFFFFFFFFFFFFFFFFFFFFFFFFFFFFF AND SUB PUSH3 0x136 JUMPI PUSH1 0x40 MLOAD PUSH32 0x8C379A000000000000000000000000000000000000000000000000000000000 DUP2 MSTORE PUSH1 0x4 ADD PUSH3 0x12D SWAP1 PUSH3 0x36D JUMP JUMPDEST PUSH1 0x40 MLOAD DUP1 SWAP2 SUB SWAP1 REVERT JUMPDEST DUP1 PUSH1 0x2 PUSH1 0x0 PUSH2 0x100 EXP DUP2 SLOAD DUP2 PUSH20 0xFFFFFFFFFFFFFFFFFFFFFFFFFFFFFFFFFFFFFFFF MUL NOT AND SWAP1 DUP4 PUSH20 0xFFFFFFFFFFFFFFFFFFFFFFFFFFFFFFFFFFFFFFFF AND MUL OR SWAP1 SSTORE POP POP PUSH3 0x38F JUMP JUMPDEST PUSH1 0x0 DUP1 PUSH1 0x0 SWAP1 SLOAD SWAP1 PUSH2 0x100 EXP SWAP1 DIV PUSH20 0xFFFFFFFFFFFFFFFFFFFFFFFFFFFFFFFFFFFFFFFF AND SWAP1 POP DUP2 PUSH1 0x0 DUP1 PUSH2 0x100 EXP DUP2 SLOAD DUP2 PUSH20 0xFFFFFFFFFFFFFFFFFFFFFFFFFFFFFFFFFFFFFFFF MUL NOT AND SWAP1 DUP4 PUSH20 0xFFFFFFFFFFFFFFFFFFFFFFFFFFFFFFFFFFFFFFFF AND MUL OR SWAP1 SSTORE POP DUP2 PUSH20 0xFFFFFFFFFFFFFFFFFFFFFFFFFFFFFFFFFFFFFFFF AND DUP2 PUSH20 0xFFFFFFFFFFFFFFFFFFFFFFFFFFFFFFFFFFFFFFFF AND PUSH32 0x8BE0079C531659141344CD1FD0A4F28419497F9722A3DAAFE3B4186F6B6457E0 PUSH1 0x40 MLOAD PUSH1 0x40 MLOAD DUP1 SWAP2 SUB SWAP1 LOG3 POP POP JUMP JUMPDEST PUSH1 0x0 DUP1 REVERT JUMPDEST PUSH1 0x0 PUSH20 0xFFFFFFFFFFFFFFFFFFFFFFFFFFFFFFFFFFFFFFFF DUP3 AND SWAP1 POP SWAP2 SWAP1 POP JUMP JUMPDEST PUSH1 0x0 PUSH3 0x274 DUP3 PUSH3 0x247 JUMP JUMPDEST SWAP1 POP SWAP2 SWAP1 POP JUMP JUMPDEST PUSH3 0x286 DUP2 PUSH3 0x267 JUMP JUMPDEST DUP2 EQ PUSH3 0x292 JUMPI PUSH1 0x0 DUP1 REVERT JUMPDEST POP JUMP JUMPDEST PUSH1 0x0 DUP2 MLOAD SWAP1 POP PUSH3 0x2A6 DUP2 PUSH3 0x27B JUMP JUMPDEST SWAP3 SWAP2 POP POP JUMP JUMPDEST PUSH1 0x0 PUSH1 0x20 DUP3 DUP5 SUB SLT ISZERO PUSH3 0x2C5 JUMPI PUSH3 0x2C4 PUSH3 0x242 JUMP JUMPDEST JUMPDEST PUSH1 0x0 PUSH3 0x2D5 DUP5 DUP3 DUP6 ADD PUSH3 0x295 JUMP JUMPDEST SWAP2 POP POP SWAP3 SWAP2 POP POP JUMP JUMPDEST PUSH3 0x2E9 DUP2 PUSH3 0x267 JUMP JUMPDEST DUP3 MSTORE POP POP JUMP JUMPDEST PUSH1 0x0 PUSH1 0x20 DUP3 ADD SWAP1 POP PUSH3 0x306 PUSH1 0x0 DUP4 ADD DUP5 PUSH3 0x2DE JUMP JUMPDEST SWAP3 SWAP2 POP POP JUMP JUMPDEST PUSH1 0x0 DUP3 DUP3 MSTORE PUSH1 0x20 DUP3 ADD SWAP1 POP SWAP3 SWAP2 POP POP JUMP JUMPDEST PUSH32 0x496E76616C696420747265617375727900000000000000000000000000000000 PUSH1 0x0 DUP3 ADD MSTORE POP JUMP JUMPDEST PUSH1 0x0 PUSH3 0x355 PUSH1 0x10 DUP4 PUSH3 0x30C JUMP JUMPDEST SWAP2 POP PUSH3 0x362 DUP3 PUSH3 0x31D JUMP JUMPDEST PUSH1 0x20 DUP3 ADD SWAP1 POP SWAP2 SWAP1 POP JUMP JUMPDEST PUSH1 0x0 PUSH1 0x20 DUP3 ADD SWAP1 POP DUP2 DUP2 SUB PUSH1 0x0 DUP4 ADD MSTORE PUSH3 0x388 DUP2 PUSH3 0x346 JUMP JUMPDEST SWAP1 POP SWAP2 SWAP1 POP JUMP JUMPDEST PUSH2 0x14FE DUP1 PUSH3 0x39F PUSH1 0x0 CODECOPY PUSH1 0x0 RETURN INVALID PUSH1 0x80 PUSH1 0x40 MSTORE PUSH1 0x4 CALLDATASIZE LT PUSH2 0x91 JUMPI PUSH1 0x0 CALLDATALOAD PUSH1 0xE0 SHR DUP1 PUSH4 0x715018A6 GT PUSH2 0x59 JUMPI DUP1 PUSH4 0x715018A6 EQ PUSH2 0x15A JUMPI DUP1 PUSH4 0x787DCE3D EQ PUSH2 0x171 JUMPI DUP1 PUSH4 0x8DA5CB5B EQ PUSH2 0x19A JUMPI DUP1 PUSH4 0xF0F44260 EQ PUSH2 0x1C5 JUMPI DUP1 PUSH4 0xF2FDE38B EQ PUSH2 0x1EE JUMPI PUSH2 0x91 JUMP JUMPDEST DUP1 PUSH4 0x239796B2 EQ PUSH2 0x96 JUMPI DUP1 PUSH4 0x35659FB8 EQ PUSH2 0xBF JUMPI DUP1 PUSH4 0x3E8EAFF6 EQ PUSH2 0xEA JUMPI DUP1 PUSH4 0x52383037 EQ PUSH2 0x106 JUMPI DUP1 PUSH4 0x61D027B3 EQ PUSH2 0x12F JUMPI JUMPDEST PUSH1 0x0 DUP1 REVERT JUMPDEST CALLVALUE DUP1 ISZERO PUSH2 0xA2 JUMPI PUSH1 0x0 DUP1 REVERT JUMPDEST POP PUSH2 0xBD PUSH1 0x4 DUP1 CALLDATASIZE SUB DUP2 ADD SWAP1 PUSH2 0xB8 SWAP2 SWAP1 PUSH2 0xE0A JUMP JUMPDEST PUSH2 0x217 JUMP JUMPDEST STOP JUMPDEST CALLVALUE DUP1 ISZERO PUSH2 0xCB JUMPI PUSH1 0x0 DUP1 REVERT JUMPDEST POP PUSH2 0xD4 PUSH2 0x3B4 JUMP JUMPDEST PUSH1 0x40 MLOAD PUSH2 0xE1 SWAP2 SWAP1 PUSH2 0xE80 JUMP JUMPDEST PUSH1 0x40 MLOAD DUP1 SWAP2 SUB SWAP1 RETURN JUMPDEST PUSH2 0x104 PUSH1 0x4 DUP1 CALLDATASIZE SUB DUP2 ADD SWAP1 PUSH2 0xFF SWAP2 SWAP1 PUSH2 0xF00 JUMP JUMPDEST PUSH2 0x3BA JUMP JUMPDEST STOP JUMPDEST CALLVALUE DUP1 ISZERO PUSH2 0x112 JUMPI PUSH1 0x0 DUP1 REVERT JUMPDEST POP PUSH2 0x12D PUSH1 0x4 DUP1 CALLDATASIZE SUB DUP2 ADD SWAP1 PUSH2 0x128 SWAP2 SWAP1 PUSH2 0xF60 JUMP JUMPDEST PUSH2 0x64B JUMP JUMPDEST STOP JUMPDEST CALLVALUE DUP1 ISZERO PUSH2 0x13B JUMPI PUSH1 0x0 DUP1 REVERT JUMPDEST POP PUSH2 0x144 PUSH2 0x7D7 JUMP JUMPDEST PUSH1 0x40 MLOAD PUSH2 0x151 SWAP2 SWAP1 PUSH2 0xFF7 JUMP JUMPDEST PUSH1 0x40 MLOAD DUP1 SWAP2 SUB SWAP1 RETURN JUMPDEST CALLVALUE DUP1 ISZERO PUSH2 0x166 JUMPI PUSH1 0x0 DUP1 REVERT JUMPDEST POP PUSH2 0x16F PUSH2 0x7FD JUMP JUMPDEST STOP JUMPDEST CALLVALUE DUP1 ISZERO PUSH2 0x17D JUMPI PUSH1 0x0 DUP1 REVERT JUMPDEST POP PUSH2 0x198 PUSH1 0x4 DUP1 CALLDATASIZE SUB DUP2 ADD SWAP1 PUSH2 0x193 SWAP2 SWAP1 PUSH2 0x1012 JUMP JUMPDEST PUSH2 0x811 JUMP JUMPDEST STOP JUMPDEST CALLVALUE DUP1 ISZERO PUSH2 0x1A6 JUMPI PUSH1 0x0 DUP1 REVERT JUMPDEST POP PUSH2 0x1AF PUSH2 0x89F JUMP JUMPDEST PUSH1 0x40 MLOAD PUSH2 0x1BC SWAP2 SWAP1 PUSH2 0xFF7 JUMP JUMPDEST PUSH1 0x40 MLOAD DUP1 SWAP2 SUB SWAP1 RETURN JUMPDEST CALLVALUE DUP1 ISZERO PUSH2 0x1D1 JUMPI PUSH1 0x0 DUP1 REVERT JUMPDEST POP PUSH2 0x1EC PUSH1 0x4 DUP1 CALLDATASIZE SUB DUP2 ADD SWAP1 PUSH2 0x1E7 SWAP2 SWAP1 PUSH2 0x103F JUMP JUMPDEST PUSH2 0x8C8 JUMP JUMPDEST STOP JUMPDEST CALLVALUE DUP1 ISZERO PUSH2 0x1FA JUMPI PUSH1 0x0 DUP1 REVERT JUMPDEST POP PUSH2 0x215 PUSH1 0x4 DUP1 CALLDATASIZE SUB DUP2 ADD SWAP1 PUSH2 0x210 SWAP2 SWAP1 PUSH2 0x103F JUMP JUMPDEST PUSH2 0x9BA JUMP JUMPDEST STOP JUMPDEST PUSH1 0x0 DUP3 GT PUSH2 0x25A JUMPI PUSH1 0x40 MLOAD PUSH32 0x8C379A000000000000000000000000000000000000000000000000000000000 DUP2 MSTORE PUSH1 0x4 ADD PUSH2 0x251 SWAP1 PUSH2 0x10C9 JUMP JUMPDEST PUSH1 0x40 MLOAD DUP1 SWAP2 SUB SWAP1 REVERT JUMPDEST PUSH2 0x287 CALLER ADDRESS DUP5 DUP8 PUSH20 0xFFFFFFFFFFFFFFFFFFFFFFFFFFFFFFFFFFFFFFFF AND PUSH2 0xA40 SWAP1 SWAP4 SWAP3 SWAP2 SWAP1 PUSH4 0xFFFFFFFF AND JUMP JUMPDEST PUSH1 0x0 PUSH2 0x2710 PUSH1 0x1 SLOAD DUP5 PUSH2 0x29A SWAP2 SWAP1 PUSH2 0x1118 JUMP JUMPDEST PUSH2 0x2A4 SWAP2 SWAP1 PUSH2 0x1189 JUMP JUMPDEST SWAP1 POP PUSH1 0x0 DUP2 DUP5 PUSH2 0x2B4 SWAP2 SWAP1 PUSH2 0x11BA JUMP JUMPDEST SWAP1 POP PUSH1 0x0 DUP3 GT ISZERO PUSH2 0x30D JUMPI PUSH2 0x30C PUSH1 0x2 PUSH1 0x0 SWAP1 SLOAD SWAP1 PUSH2 0x100 EXP SWAP1 DIV PUSH20 0xFFFFFFFFFFFFFFFFFFFFFFFFFFFFFFFFFFFFFFFF AND DUP4 DUP9 PUSH20 0xFFFFFFFFFFFFFFFFFFFFFFFFFFFFFFFFFFFFFFFF AND PUSH2 0xAC2 SWAP1 SWAP3 SWAP2 SWAP1 PUSH4 0xFFFFFFFF AND JUMP JUMPDEST JUMPDEST PUSH1 0x0 DUP2 GT ISZERO PUSH2 0x342 JUMPI PUSH2 0x341 DUP6 DUP3 DUP9 PUSH20 0xFFFFFFFFFFFFFFFFFFFFFFFFFFFFFFFFFFFFFFFF AND PUSH2 0xAC2 SWAP1 SWAP3 SWAP2 SWAP1 PUSH4 0xFFFFFFFF AND JUMP JUMPDEST JUMPDEST DUP3 DUP6 PUSH20 0xFFFFFFFFFFFFFFFFFFFFFFFFFFFFFFFFFFFFFFFF AND DUP8 PUSH20 0xFFFFFFFFFFFFFFFFFFFFFFFFFFFFFFFFFFFFFFFF AND PUSH32 0x1D53DEAEF03137CCD2FA5503B6C280DACFCE2E7AE1483128FB0EBFC6FA050E8C DUP8 DUP6 DUP8 PUSH1 0x40 MLOAD PUSH2 0x3A4 SWAP4 SWAP3 SWAP2 SWAP1 PUSH2 0x11EE JUMP JUMPDEST PUSH1 0x40 MLOAD DUP1 SWAP2 SUB SWAP1 LOG4 POP POP POP POP POP POP JUMP JUMPDEST PUSH1 0x1 SLOAD DUP2 JUMP JUMPDEST PUSH1 0x0 CALLVALUE SWAP1 POP PUSH1 0x0 DUP2 GT PUSH2 0x402 JUMPI PUSH1 0x40 MLOAD PUSH32 0x8C379A000000000000000000000000000000000000000000000000000000000 DUP2 MSTORE PUSH1 0x4 ADD PUSH2 0x3F9 SWAP1 PUSH2 0x10C9 JUMP JUMPDEST PUSH1 0x40 MLOAD DUP1 SWAP2 SUB SWAP1 REVERT JUMPDEST PUSH1 0x0 PUSH2 0x2710 PUSH1 0x1 SLOAD DUP4 PUSH2 0x415 SWAP2 SWAP1 PUSH2 0x1118 JUMP JUMPDEST PUSH2 0x41F SWAP2 SWAP1 PUSH2 0x1189 JUMP JUMPDEST SWAP1 POP PUSH1 0x0 DUP2 DUP4 PUSH2 0x42F SWAP2 SWAP1 PUSH2 0x11BA JUMP JUMPDEST SWAP1 POP PUSH1 0x0 DUP3 GT ISZERO PUSH2 0x50A JUMPI PUSH1 0x0 PUSH1 0x2 PUSH1 0x0 SWAP1 SLOAD SWAP1 PUSH2 0x100 EXP SWAP1 DIV PUSH20 0xFFFFFFFFFFFFFFFFFFFFFFFFFFFFFFFFFFFFFFFF AND PUSH20 0xFFFFFFFFFFFFFFFFFFFFFFFFFFFFFFFFFFFFFFFF AND DUP4 PUSH1 0x40 MLOAD PUSH2 0x482 SWAP1 PUSH2 0x1256 JUMP JUMPDEST PUSH1 0x0 PUSH1 0x40 MLOAD DUP1 DUP4 SUB DUP2 DUP6 DUP8 GAS CALL SWAP3 POP POP POP RETURNDATASIZE DUP1 PUSH1 0x0 DUP2 EQ PUSH2 0x4BF JUMPI PUSH1 0x40 MLOAD SWAP2 POP PUSH1 0x1F NOT PUSH1 0x3F RETURNDATASIZE ADD AND DUP3 ADD PUSH1 0x40 MSTORE RETURNDATASIZE DUP3 MSTORE RETURNDATASIZE PUSH1 0x0 PUSH1 0x20 DUP5 ADD RETURNDATACOPY PUSH2 0x4C4 JUMP JUMPDEST PUSH1 0x60 SWAP2 POP JUMPDEST POP POP SWAP1 POP DUP1 PUSH2 0x508 JUMPI PUSH1 0x40 MLOAD PUSH32 0x8C379A000000000000000000000000000000000000000000000000000000000 DUP2 MSTORE PUSH1 0x4 ADD PUSH2 0x4FF SWAP1 PUSH2 0x12B7 JUMP JUMPDEST PUSH1 0x40 MLOAD DUP1 SWAP2 SUB SWAP1 REVERT JUMPDEST POP JUMPDEST PUSH1 0x0 DUP2 GT ISZERO PUSH2 0x5C1 JUMPI PUSH1 0x0 DUP7 PUSH20 0xFFFFFFFFFFFFFFFFFFFFFFFFFFFFFFFFFFFFFFFF AND DUP3 PUSH1 0x40 MLOAD PUSH2 0x539 SWAP1 PUSH2 0x1256 JUMP JUMPDEST PUSH1 0x0 PUSH1 0x40 MLOAD DUP1 DUP4 SUB DUP2 DUP6 DUP8 GAS CALL SWAP3 POP POP POP RETURNDATASIZE DUP1 PUSH1 0x0 DUP2 EQ PUSH2 0x576 JUMPI PUSH1 0x40 MLOAD SWAP2 POP PUSH1 0x1F NOT PUSH1 0x3F RETURNDATASIZE ADD AND DUP3 ADD PUSH1 0x40 MSTORE RETURNDATASIZE DUP3 MSTORE RETURNDATASIZE PUSH1 0x0 PUSH1 0x20 DUP5 ADD RETURNDATACOPY PUSH2 0x57B JUMP JUMPDEST PUSH1 0x60 SWAP2 POP JUMPDEST POP POP SWAP1 POP DUP1 PUSH2 0x5BF JUMPI PUSH1 0x40 MLOAD PUSH32 0x8C379A000000000000000000000000000000000000000000000000000000000 DUP2 MSTORE PUSH1 0x4 ADD PUSH2 0x5B6 SWAP1 PUSH2 0x1323 JUMP JUMPDEST PUSH1 0x40 MLOAD DUP1 SWAP2 SUB SWAP1 REVERT JUMPDEST POP JUMPDEST DUP5 DUP5 PUSH1 0x40 MLOAD PUSH2 0x5D1 SWAP3 SWAP2 SWAP1 PUSH2 0x1377 JUMP JUMPDEST PUSH1 0x40 MLOAD DUP1 SWAP2 SUB SWAP1 KECCAK256 DUP7 PUSH20 0xFFFFFFFFFFFFFFFFFFFFFFFFFFFFFFFFFFFFFFFF AND PUSH1 0x0 PUSH20 0xFFFFFFFFFFFFFFFFFFFFFFFFFFFFFFFFFFFFFFFF AND PUSH32 0x1D53DEAEF03137CCD2FA5503B6C280DACFCE2E7AE1483128FB0EBFC6FA050E8C DUP7 DUP6 DUP8 PUSH1 0x40 MLOAD PUSH2 0x63B SWAP4 SWAP3 SWAP2 SWAP1 PUSH2 0x11EE JUMP JUMPDEST PUSH1 0x40 MLOAD DUP1 SWAP2 SUB SWAP1 LOG4 POP POP POP POP POP POP JUMP JUMPDEST PUSH1 0x0 DUP4 GT PUSH2 0x68E JUMPI PUSH1 0x40 MLOAD PUSH32 0x8C379A000000000000000000000000000000000000000000000000000000000 DUP2 MSTORE PUSH1 0x4 ADD PUSH2 0x685 SWAP1 PUSH2 0x10C9 JUMP JUMPDEST PUSH1 0x40 MLOAD DUP1 SWAP2 SUB SWAP1 REVERT JUMPDEST PUSH1 0x0 PUSH2 0x2710 PUSH1 0x1 SLOAD DUP6 PUSH2 0x6A1 SWAP2 SWAP1 PUSH2 0x1118 JUMP JUMPDEST PUSH2 0x6AB SWAP2 SWAP1 PUSH2 0x1189 JUMP JUMPDEST SWAP1 POP PUSH1 0x0 DUP2 DUP6 PUSH2 0x6BB SWAP2 SWAP1 PUSH2 0x11BA JUMP JUMPDEST SWAP1 POP PUSH1 0x0 DUP3 GT ISZERO PUSH2 0x716 JUMPI PUSH2 0x715 CALLER PUSH1 0x2 PUSH1 0x0 SWAP1 SLOAD SWAP1 PUSH2 0x100 EXP SWAP1 DIV PUSH20 0xFFFFFFFFFFFFFFFFFFFFFFFFFFFFFFFFFFFFFFFF AND DUP5 DUP11 PUSH20 0xFFFFFFFFFFFFFFFFFFFFFFFFFFFFFFFFFFFFFFFF AND PUSH2 0xA40 SWAP1 SWAP4 SWAP3 SWAP2 SWAP1 PUSH4 0xFFFFFFFF AND JUMP JUMPDEST JUMPDEST PUSH1 0x0 DUP2 GT ISZERO PUSH2 0x74D JUMPI PUSH2 0x74C CALLER DUP8 DUP4 DUP11 PUSH20 0xFFFFFFFFFFFFFFFFFFFFFFFFFFFFFFFFFFFFFFFF AND PUSH2 0xA40 SWAP1 SWAP4 SWAP3 SWAP2 SWAP1 PUSH4 0xFFFFFFFF AND JUMP JUMPDEST JUMPDEST DUP4 DUP4 PUSH1 0x40 MLOAD PUSH2 0x75D SWAP3 SWAP2 SWAP1 PUSH2 0x1377 JUMP JUMPDEST PUSH1 0x40 MLOAD DUP1 SWAP2 SUB SWAP1 KECCAK256 DUP7 PUSH20 0xFFFFFFFFFFFFFFFFFFFFFFFFFFFFFFFFFFFFFFFF AND DUP9 PUSH20 0xFFFFFFFFFFFFFFFFFFFFFFFFFFFFFFFFFFFFFFFF AND PUSH32 0x1D53DEAEF03137CCD2FA5503B6C280DACFCE2E7AE1483128FB0EBFC6FA050E8C DUP9 DUP6 DUP8 PUSH1 0x40 MLOAD PUSH2 0x7C6 SWAP4 SWAP3 SWAP2 SWAP1 PUSH2 0x11EE JUMP JUMPDEST PUSH1 0x40 MLOAD DUP1 SWAP2 SUB SWAP1 LOG4 POP POP POP POP POP POP POP JUMP JUMPDEST PUSH1 0x2 PUSH1 0x0 SWAP1 SLOAD SWAP1 PUSH2 0x100 EXP SWAP1 DIV PUSH20 0xFFFFFFFFFFFFFFFFFFFFFFFFFFFFFFFFFFFFFFFF AND DUP2 JUMP JUMPDEST PUSH2 0x805 PUSH2 0xB41 JUMP JUMPDEST PUSH2 0x80F PUSH1 0x0 PUSH2 0xBC8 JUMP JUMPDEST JUMP JUMPDEST PUSH2 0x819 PUSH2 0xB41 JUMP JUMPDEST PUSH2 0x3E8 DUP2 GT ISZERO PUSH2 0x85E JUMPI PUSH1 0x40 MLOAD PUSH32 0x8C379A000000000000000000000000000000000000000000000000000000000 DUP2 MSTORE PUSH1 0x4 ADD PUSH2 0x855 SWAP1 PUSH2 0x13DC JUMP JUMPDEST PUSH1 0x40 MLOAD DUP1 SWAP2 SUB SWAP1 REVERT JUMPDEST DUP1 PUSH1 0x1 DUP2 SWAP1 SSTORE POP PUSH32 0xD10D75876659A287A59A6CCFA2E3FFF42F84D94B542837ACD30BC184D562DE40 DUP2 PUSH1 0x40 MLOAD PUSH2 0x894 SWAP2 SWAP1 PUSH2 0xE80 JUMP JUMPDEST PUSH1 0x40 MLOAD DUP1 SWAP2 SUB SWAP1 LOG1 POP JUMP JUMPDEST PUSH1 0x0 DUP1 PUSH1 0x0 SWAP1 SLOAD SWAP1 PUSH2 0x100 EXP SWAP1 DIV PUSH20 0xFFFFFFFFFFFFFFFFFFFFFFFFFFFFFFFFFFFFFFFF AND SWAP1 POP SWAP1 JUMP JUMPDEST PUSH2 0x8D0 PUSH2 0xB41 JUMP JUMPDEST PUSH1 0x0 PUSH20 0xFFFFFFFFFFFFFFFFFFFFFFFFFFFFFFFFFFFFFFFF AND DUP2 PUSH20 0xFFFFFFFFFFFFFFFFFFFFFFFFFFFFFFFFFFFFFFFF AND SUB PUSH2 0x93F JUMPI PUSH1 0x40 MLOAD PUSH32 0x8C379A000000000000000000000000000000000000000000000000000000000 DUP2 MSTORE PUSH1 0x4 ADD PUSH2 0x936 SWAP1 PUSH2 0x1448 JUMP JUMPDEST PUSH1 0x40 MLOAD DUP1 SWAP2 SUB SWAP1 REVERT JUMPDEST DUP1 PUSH1 0x2 PUSH1 0x0 PUSH2 0x100 EXP DUP2 SLOAD DUP2 PUSH20 0xFFFFFFFFFFFFFFFFFFFFFFFFFFFFFFFFFFFFFFFF MUL NOT AND SWAP1 DUP4 PUSH20 0xFFFFFFFFFFFFFFFFFFFFFFFFFFFFFFFFFFFFFFFF AND MUL OR SWAP1 SSTORE POP PUSH32 0x7DAE230F18360D76A040C81F050AA14EB9D6DC7901B20FC5D855E2A20FE814D1 DUP2 PUSH1 0x40 MLOAD PUSH2 0x9AF SWAP2 SWAP1 PUSH2 0xFF7 JUMP JUMPDEST PUSH1 0x40 MLOAD DUP1 SWAP2 SUB SWAP1 LOG1 POP JUMP JUMPDEST PUSH2 0x9C2 PUSH2 0xB41 JUMP JUMPDEST PUSH1 0x0 PUSH20 0xFFFFFFFFFFFFFFFFFFFFFFFFFFFFFFFFFFFFFFFF AND DUP2 PUSH20 0xFFFFFFFFFFFFFFFFFFFFFFFFFFFFFFFFFFFFFFFF AND SUB PUSH2 0xA34 JUMPI PUSH1 0x0 PUSH1 0x40 MLOAD PUSH32 0x1E4FBDF700000000000000000000000000000000000000000000000000000000 DUP2 MSTORE PUSH1 0x4 ADD PUSH2 0xA2B SWAP2 SWAP1 PUSH2 0xFF7 JUMP JUMPDEST PUSH1 0x40 MLOAD DUP1 SWAP2 SUB SWAP1 REVERT JUMPDEST PUSH2 0xA3D DUP2 PUSH2 0xBC8 JUMP JUMPDEST POP JUMP JUMPDEST PUSH2 0xABC DUP5 DUP6 PUSH20 0xFFFFFFFFFFFFFFFFFFFFFFFFFFFFFFFFFFFFFFFF AND PUSH4 0x23B872DD DUP7 DUP7 DUP7 PUSH1 0x40 MLOAD PUSH1 0x24 ADD PUSH2 0xA75 SWAP4 SWAP3 SWAP2 SWAP1 PUSH2 0x1468 JUMP JUMPDEST PUSH1 0x40 MLOAD PUSH1 0x20 DUP2 DUP4 SUB SUB DUP2 MSTORE SWAP1 PUSH1 0x40 MSTORE SWAP2 POP PUSH1 0xE0 SHL PUSH1 0x20 DUP3 ADD DUP1 MLOAD PUSH28 0xFFFFFFFFFFFFFFFFFFFFFFFFFFFFFFFFFFFFFFFFFFFFFFFFFFFFFFFF DUP4 DUP2 DUP4 AND OR DUP4 MSTORE POP POP POP POP PUSH2 0xC8C JUMP JUMPDEST POP POP POP POP JUMP JUMPDEST PUSH2 0xB3C DUP4 DUP5 PUSH20 0xFFFFFFFFFFFFFFFFFFFFFFFFFFFFFFFFFFFFFFFF AND PUSH4 0xA9059CBB DUP6 DUP6 PUSH1 0x40 MLOAD PUSH1 0x24 ADD PUSH2 0xAF5 SWAP3 SWAP2 SWAP1 PUSH2 0x149F JUMP JUMPDEST PUSH1 0x40 MLOAD PUSH1 0x20 DUP2 DUP4 SUB SUB DUP2 MSTORE SWAP1 PUSH1 0x40 MSTORE SWAP2 POP PUSH1 0xE0 SHL PUSH1 0x20 DUP3 ADD DUP1 MLOAD PUSH28 0xFFFFFFFFFFFFFFFFFFFFFFFFFFFFFFFFFFFFFFFFFFFFFFFFFFFFFFFF DUP4 DUP2 DUP4 AND OR DUP4 MSTORE POP POP POP POP PUSH2 0xC8C JUMP JUMPDEST POP POP POP JUMP JUMPDEST PUSH2 0xB49 PUSH2 0xD2E JUMP JUMPDEST PUSH20 0xFFFFFFFFFFFFFFFFFFFFFFFFFFFFFFFFFFFFFFFF AND PUSH2 0xB67 PUSH2 0x89F JUMP JUMPDEST PUSH20 0xFFFFFFFFFFFFFFFFFFFFFFFFFFFFFFFFFFFFFFFF AND EQ PUSH2 0xBC6 JUMPI PUSH2 0xB8A PUSH2 0xD2E JUMP JUMPDEST PUSH1 0x40 MLOAD PUSH32 0x118CDAA700000000000000000000000000000000000000000000000000000000 DUP2 MSTORE PUSH1 0x4 ADD PUSH2 0xBBD SWAP2 SWAP1 PUSH2 0xFF7 JUMP JUMPDEST PUSH1 0x40 MLOAD DUP1 SWAP2 SUB SWAP1 REVERT JUMPDEST JUMP JUMPDEST PUSH1 0x0 DUP1 PUSH1 0x0 SWAP1 SLOAD SWAP1 PUSH2 0x100 EXP SWAP1 DIV PUSH20 0xFFFFFFFFFFFFFFFFFFFFFFFFFFFFFFFFFFFFFFFF AND SWAP1 POP DUP2 PUSH1 0x0 DUP1 PUSH2 0x100 EXP DUP2 SLOAD DUP2 PUSH20 0xFFFFFFFFFFFFFFFFFFFFFFFFFFFFFFFFFFFFFFFF MUL NOT AND SWAP1 DUP4 PUSH20 0xFFFFFFFFFFFFFFFFFFFFFFFFFFFFFFFFFFFFFFFF AND MUL OR SWAP1 SSTORE POP DUP2 PUSH20 0xFFFFFFFFFFFFFFFFFFFFFFFFFFFFFFFFFFFFFFFF AND DUP2 PUSH20 0xFFFFFFFFFFFFFFFFFFFFFFFFFFFFFFFFFFFFFFFF AND PUSH32 0x8BE0079C531659141344CD1FD0A4F28419497F9722A3DAAFE3B4186F6B6457E0 PUSH1 0x40 MLOAD PUSH1 0x40 MLOAD DUP1 SWAP2 SUB SWAP1 LOG3 POP POP JUMP JUMPDEST PUSH1 0x0 DUP1 PUSH1 0x20 PUSH1 0x0 DUP5 MLOAD PUSH1 0x20 DUP7 ADD PUSH1 0x0 DUP9 GAS CALL DUP1 PUSH2 0xCAF JUMPI PUSH1 0x40 MLOAD RETURNDATASIZE PUSH1 0x0 DUP3 RETURNDATACOPY RETURNDATASIZE DUP2 REVERT JUMPDEST RETURNDATASIZE SWAP3 POP PUSH1 0x0 MLOAD SWAP2 POP POP PUSH1 0x0 DUP3 EQ PUSH2 0xCCA JUMPI PUSH1 0x1 DUP2 EQ ISZERO PUSH2 0xCE6 JUMP JUMPDEST PUSH1 0x0 DUP5 PUSH20 0xFFFFFFFFFFFFFFFFFFFFFFFFFFFFFFFFFFFFFFFF AND EXTCODESIZE EQ JUMPDEST ISZERO PUSH2 0xD28 JUMPI DUP4 PUSH1 0x40 MLOAD PUSH32 0x5274AFE700000000000000000000000000000000000000000000000000000000 DUP2 MSTORE PUSH1 0x4 ADD PUSH2 0xD1F SWAP2 SWAP1 PUSH2 0xFF7 JUMP JUMPDEST PUSH1 0x40 MLOAD DUP1 SWAP2 SUB SWAP1 REVERT JUMPDEST POP POP POP POP JUMP JUMPDEST PUSH1 0x0 CALLER SWAP1 POP SWAP1 JUMP JUMPDEST PUSH1 0x0 DUP1 REVERT JUMPDEST PUSH1 0x0 DUP1 REVERT JUMPDEST PUSH1 0x0 PUSH20 0xFFFFFFFFFFFFFFFFFFFFFFFFFFFFFFFFFFFFFFFF DUP3 AND SWAP1 POP SWAP2 SWAP1 POP JUMP JUMPDEST PUSH1 0x0 PUSH2 0xD6B DUP3 PUSH2 0xD40 JUMP JUMPDEST SWAP1 POP SWAP2 SWAP1 POP JUMP JUMPDEST PUSH2 0xD7B DUP2 PUSH2 0xD60 JUMP JUMPDEST DUP2 EQ PUSH2 0xD86 JUMPI PUSH1 0x0 DUP1 REVERT JUMPDEST POP JUMP JUMPDEST PUSH1 0x0 DUP2 CALLDATALOAD SWAP1 POP PUSH2 0xD98 DUP2 PUSH2 0xD72 JUMP JUMPDEST SWAP3 SWAP2 POP POP JUMP JUMPDEST PUSH1 0x0 DUP2 SWAP1 POP SWAP2 SWAP1 POP JUMP JUMPDEST PUSH2 0xDB1 DUP2 PUSH2 0xD9E JUMP JUMPDEST DUP2 EQ PUSH2 0xDBC JUMPI PUSH1 0x0 DUP1 REVERT JUMPDEST POP JUMP JUMPDEST PUSH1 0x0 DUP2 CALLDATALOAD SWAP1 POP PUSH2 0xDCE DUP2 PUSH2 0xDA8 JUMP JUMPDEST SWAP3 SWAP2 POP POP JUMP JUMPDEST PUSH1 0x0 DUP2 SWAP1 POP SWAP2 SWAP1 POP JUMP JUMPDEST PUSH2 0xDE7 DUP2 PUSH2 0xDD4 JUMP JUMPDEST DUP2 EQ PUSH2 0xDF2 JUMPI PUSH1 0x0 DUP1 REVERT JUMPDEST POP JUMP JUMPDEST PUSH1 0x0 DUP2 CALLDATALOAD SWAP1 POP PUSH2 0xE04 DUP2 PUSH2 0xDDE JUMP JUMPDEST SWAP3 SWAP2 POP POP JUMP JUMPDEST PUSH1 0x0 DUP1 PUSH1 0x0 DUP1 PUSH1 0x80 DUP6 DUP8 SUB SLT ISZERO PUSH2 0xE24 JUMPI PUSH2 0xE23 PUSH2 0xD36 JUMP JUMPDEST JUMPDEST PUSH1 0x0 PUSH2 0xE32 DUP8 DUP3 DUP9 ADD PUSH2 0xD89 JUMP JUMPDEST SWAP5 POP POP PUSH1 0x20 PUSH2 0xE43 DUP8 DUP3 DUP9 ADD PUSH2 0xD89 JUMP JUMPDEST SWAP4 POP POP PUSH1 0x40 PUSH2 0xE54 DUP8 DUP3 DUP9 ADD PUSH2 0xDBF JUMP JUMPDEST SWAP3 POP POP PUSH1 0x60 PUSH2 0xE65 DUP8 DUP3 DUP9 ADD PUSH2 0xDF5 JUMP JUMPDEST SWAP2 POP POP SWAP3 SWAP6 SWAP2 SWAP5 POP SWAP3 POP JUMP JUMPDEST PUSH2 0xE7A DUP2 PUSH2 0xD9E JUMP JUMPDEST DUP3 MSTORE POP POP JUMP JUMPDEST PUSH1 0x0 PUSH1 0x20 DUP3 ADD SWAP1 POP PUSH2 0xE95 PUSH1 0x0 DUP4 ADD DUP5 PUSH2 0xE71 JUMP JUMPDEST SWAP3 SWAP2 POP POP JUMP JUMPDEST PUSH1 0x0 DUP1 REVERT JUMPDEST PUSH1 0x0 DUP1 REVERT JUMPDEST PUSH1 0x0 DUP1 REVERT JUMPDEST PUSH1 0x0 DUP1 DUP4 PUSH1 0x1F DUP5 ADD SLT PUSH2 0xEC0 JUMPI PUSH2 0xEBF PUSH2 0xE9B JUMP JUMPDEST JUMPDEST DUP3 CALLDATALOAD SWAP1 POP PUSH8 0xFFFFFFFFFFFFFFFF DUP2 GT ISZERO PUSH2 0xEDD JUMPI PUSH2 0xEDC PUSH2 0xEA0 JUMP JUMPDEST JUMPDEST PUSH1 0x20 DUP4 ADD SWAP2 POP DUP4 PUSH1 0x1 DUP3 MUL DUP4 ADD GT ISZERO PUSH2 0xEF9 JUMPI PUSH2 0xEF8 PUSH2 0xEA5 JUMP JUMPDEST JUMPDEST SWAP3 POP SWAP3 SWAP1 POP JUMP JUMPDEST PUSH1 0x0 DUP1 PUSH1 0x0 PUSH1 0x40 DUP5 DUP7 SUB SLT ISZERO PUSH2 0xF19 JUMPI PUSH2 0xF18 PUSH2 0xD36 JUMP JUMPDEST JUMPDEST PUSH1 0x0 PUSH2 0xF27 DUP7 DUP3 DUP8 ADD PUSH2 0xD89 JUMP JUMPDEST SWAP4 POP POP PUSH1 0x20 DUP5 ADD CALLDATALOAD PUSH8 0xFFFFFFFFFFFFFFFF DUP2 GT ISZERO PUSH2 0xF48 JUMPI PUSH2 0xF47 PUSH2 0xD3B JUMP JUMPDEST JUMPDEST PUSH2 0xF54 DUP7 DUP3 DUP8 ADD PUSH2 0xEAA JUMP JUMPDEST SWAP3 POP SWAP3 POP POP SWAP3 POP SWAP3 POP SWAP3 JUMP JUMPDEST PUSH1 0x0 DUP1 PUSH1 0x0 DUP1 PUSH1 0x0 PUSH1 0x80 DUP7 DUP9 SUB SLT ISZERO PUSH2 0xF7C JUMPI PUSH2 0xF7B PUSH2 0xD36 JUMP JUMPDEST JUMPDEST PUSH1 0x0 PUSH2 0xF8A DUP9 DUP3 DUP10 ADD PUSH2 0xD89 JUMP JUMPDEST SWAP6 POP POP PUSH1 0x20 PUSH2 0xF9B DUP9 DUP3 DUP10 ADD PUSH2 0xD89 JUMP JUMPDEST SWAP5 POP POP PUSH1 0x40 PUSH2 0xFAC DUP9 DUP3 DUP10 ADD PUSH2 0xDBF JUMP JUMPDEST SWAP4 POP POP PUSH1 0x60 DUP7 ADD CALLDATALOAD PUSH8 0xFFFFFFFFFFFFFFFF DUP2 GT ISZERO PUSH2 0xFCD JUMPI PUSH2 0xFCC PUSH2 0xD3B JUMP JUMPDEST JUMPDEST PUSH2 0xFD9 DUP9 DUP3 DUP10 ADD PUSH2 0xEAA JUMP JUMPDEST SWAP3 POP SWAP3 POP POP SWAP3 SWAP6 POP SWAP3 SWAP6 SWAP1 SWAP4 POP JUMP JUMPDEST PUSH2 0xFF1 DUP2 PUSH2 0xD60 JUMP JUMPDEST DUP3 MSTORE POP POP JUMP JUMPDEST PUSH1 0x0 PUSH1 0x20 DUP3 ADD SWAP1 POP PUSH2 0x100C PUSH1 0x0 DUP4 ADD DUP5 PUSH2 0xFE8 JUMP JUMPDEST SWAP3 SWAP2 POP POP JUMP JUMPDEST PUSH1 0x0 PUSH1 0x20 DUP3 DUP5 SUB SLT ISZERO PUSH2 0x1028 JUMPI PUSH2 0x1027 PUSH2 0xD36 JUMP JUMPDEST JUMPDEST PUSH1 0x0 PUSH2 0x1036 DUP5 DUP3 DUP6 ADD PUSH2 0xDBF JUMP JUMPDEST SWAP2 POP POP SWAP3 SWAP2 POP POP JUMP JUMPDEST PUSH1 0x0 PUSH1 0x20 DUP3 DUP5 SUB SLT ISZERO PUSH2 0x1055 JUMPI PUSH2 0x1054 PUSH2 0xD36 JUMP JUMPDEST JUMPDEST PUSH1 0x0 PUSH2 0x1063 DUP5 DUP3 DUP6 ADD PUSH2 0xD89 JUMP JUMPDEST SWAP2 POP POP SWAP3 SWAP2 POP POP JUMP JUMPDEST PUSH1 0x0 DUP3 DUP3 MSTORE PUSH1 0x20 DUP3 ADD SWAP1 POP SWAP3 SWAP2 POP POP JUMP JUMPDEST PUSH32 0x416D6F756E74206D757374206265203E20300000000000000000000000000000 PUSH1 0x0 DUP3 ADD MSTORE POP JUMP JUMPDEST PUSH1 0x0 PUSH2 0x10B3 PUSH1 0x12 DUP4 PUSH2 0x106C JUMP JUMPDEST SWAP2 POP PUSH2 0x10BE DUP3 PUSH2 0x107D JUMP JUMPDEST PUSH1 0x20 DUP3 ADD SWAP1 POP SWAP2 SWAP1 POP JUMP JUMPDEST PUSH1 0x0 PUSH1 0x20 DUP3 ADD SWAP1 POP DUP2 DUP2 SUB PUSH1 0x0 DUP4 ADD MSTORE PUSH2 0x10E2 DUP2 PUSH2 0x10A6 JUMP JUMPDEST SWAP1 POP SWAP2 SWAP1 POP JUMP JUMPDEST PUSH32 0x4E487B7100000000000000000000000000000000000000000000000000000000 PUSH1 0x0 MSTORE PUSH1 0x11 PUSH1 0x4 MSTORE PUSH1 0x24 PUSH1 0x0 REVERT JUMPDEST PUSH1 0x0 PUSH2 0x1123 DUP3 PUSH2 0xD9E JUMP JUMPDEST SWAP2 POP PUSH2 0x112E DUP4 PUSH2 0xD9E JUMP JUMPDEST SWAP3 POP DUP3 DUP3 MUL PUSH2 0x113C DUP2 PUSH2 0xD9E JUMP JUMPDEST SWAP2 POP DUP3 DUP3 DIV DUP5 EQ DUP4 ISZERO OR PUSH2 0x1153 JUMPI PUSH2 0x1152 PUSH2 0x10E9 JUMP JUMPDEST JUMPDEST POP SWAP3 SWAP2 POP POP JUMP JUMPDEST PUSH32 0x4E487B7100000000000000000000000000000000000000000000000000000000 PUSH1 0x0 MSTORE PUSH1 0x12 PUSH1 0x4 MSTORE PUSH1 0x24 PUSH1 0x0 REVERT JUMPDEST PUSH1 0x0 PUSH2 0x1194 DUP3 PUSH2 0xD9E JUMP JUMPDEST SWAP2 POP PUSH2 0x119F DUP4 PUSH2 0xD9E JUMP JUMPDEST SWAP3 POP DUP3 PUSH2 0x11AF JUMPI PUSH2 0x11AE PUSH2 0x115A JUMP JUMPDEST JUMPDEST DUP3 DUP3 DIV SWAP1 POP SWAP3 SWAP2 POP POP JUMP JUMPDEST PUSH1 0x0 PUSH2 0x11C5 DUP3 PUSH2 0xD9E JUMP JUMPDEST SWAP2 POP PUSH2 0x11D0 DUP4 PUSH2 0xD9E JUMP JUMPDEST SWAP3 POP DUP3 DUP3 SUB SWAP1 POP DUP2 DUP2 GT ISZERO PUSH2 0x11E8 JUMPI PUSH2 0x11E7 PUSH2 0x10E9 JUMP JUMPDEST JUMPDEST SWAP3 SWAP2 POP POP JUMP JUMPDEST PUSH1 0x0 PUSH1 0x60 DUP3 ADD SWAP1 POP PUSH2 0x1203 PUSH1 0x0 DUP4 ADD DUP7 PUSH2 0xE71 JUMP JUMPDEST PUSH2 0x1210 PUSH1 0x20 DUP4 ADD DUP6 PUSH2 0xE71 JUMP JUMPDEST PUSH2 0x121D PUSH1 0x40 DUP4 ADD DUP5 PUSH2 0xE71 JUMP JUMPDEST SWAP5 SWAP4 POP POP POP POP JUMP JUMPDEST PUSH1 0x0 DUP2 SWAP1 POP SWAP3 SWAP2 POP POP JUMP JUMPDEST POP JUMP JUMPDEST PUSH1 0x0 PUSH2 0x1240 PUSH1 0x0 DUP4 PUSH2 0x1225 JUMP JUMPDEST SWAP2 POP PUSH2 0x124B DUP3 PUSH2 0x1230 JUMP JUMPDEST PUSH1 0x0 DUP3 ADD SWAP1 POP SWAP2 SWAP1 POP JUMP JUMPDEST PUSH1 0x0 PUSH2 0x1261 DUP3 PUSH2 0x1233 JUMP JUMPDEST SWAP2 POP DUP2 SWAP1 POP SWAP2 SWAP1 POP JUMP JUMPDEST PUSH32 0x466565207472616E73666572206661696C656400000000000000000000000000 PUSH1 0x0 DUP3 ADD MSTORE POP JUMP JUMPDEST PUSH1 0x0 PUSH2 0x12A1 PUSH1 0x13 DUP4 PUSH2 0x106C JUMP JUMPDEST SWAP2 POP PUSH2 0x12AC DUP3 PUSH2 0x126B JUMP JUMPDEST PUSH1 0x20 DUP3 ADD SWAP1 POP SWAP2 SWAP1 POP JUMP JUMPDEST PUSH1 0x0 PUSH1 0x20 DUP3 ADD SWAP1 POP DUP2 DUP2 SUB PUSH1 0x0 DUP4 ADD MSTORE PUSH2 0x12D0 DUP2 PUSH2 0x1294 JUMP JUMPDEST SWAP1 POP SWAP2 SWAP1 POP JUMP JUMPDEST PUSH32 0x4D65726368616E74207472616E73666572206661696C65640000000000000000 PUSH1 0x0 DUP3 ADD MSTORE POP JUMP JUMPDEST PUSH1 0x0 PUSH2 0x130D PUSH1 0x18 DUP4 PUSH2 0x106C JUMP JUMPDEST SWAP2 POP PUSH2 0x1318 DUP3 PUSH2 0x12D7 JUMP JUMPDEST PUSH1 0x20 DUP3 ADD SWAP1 POP SWAP2 SWAP1 POP JUMP JUMPDEST PUSH1 0x0 PUSH1 0x20 DUP3 ADD SWAP1 POP DUP2 DUP2 SUB PUSH1 0x0 DUP4 ADD MSTORE PUSH2 0x133C DUP2 PUSH2 0x1300 JUMP JUMPDEST SWAP1 POP SWAP2 SWAP1 POP JUMP JUMPDEST DUP3 DUP2 DUP4 CALLDATACOPY PUSH1 0x0 DUP4 DUP4 ADD MSTORE POP POP POP JUMP JUMPDEST PUSH1 0x0 PUSH2 0x135E DUP4 DUP6 PUSH2 0x1225 JUMP JUMPDEST SWAP4 POP PUSH2 0x136B DUP4 DUP6 DUP5 PUSH2 0x1343 JUMP JUMPDEST DUP3 DUP5 ADD SWAP1 POP SWAP4 SWAP3 POP POP POP JUMP JUMPDEST PUSH1 0x0 PUSH2 0x1384 DUP3 DUP5 DUP7 PUSH2 0x1352 JUMP JUMPDEST SWAP2 POP DUP2 SWAP1 POP SWAP4 SWAP3 POP POP POP JUMP JUMPDEST PUSH32 0x46656520746F6F206869676820286D6178203130252900000000000000000000 PUSH1 0x0 DUP3 ADD MSTORE POP JUMP JUMPDEST PUSH1 0x0 PUSH2 0x13C6 PUSH1 0x16 DUP4 PUSH2 0x106C JUMP JUMPDEST SWAP2 POP PUSH2 0x13D1 DUP3 PUSH2 0x1390 JUMP JUMPDEST PUSH1 0x20 DUP3 ADD SWAP1 POP SWAP2 SWAP1 POP JUMP JUMPDEST PUSH1 0x0 PUSH1 0x20 DUP3 ADD SWAP1 POP DUP2 DUP2 SUB PUSH1 0x0 DUP4 ADD MSTORE PUSH2 0x13F5 DUP2 PUSH2 0x13B9 JUMP JUMPDEST SWAP1 POP SWAP2 SWAP1 POP JUMP JUMPDEST PUSH32 0x496E76616C696420616464726573730000000000000000000000000000000000 PUSH1 0x0 DUP3 ADD MSTORE POP JUMP JUMPDEST PUSH1 0x0 PUSH2 0x1432 PUSH1 0xF DUP4 PUSH2 0x106C JUMP JUMPDEST SWAP2 POP PUSH2 0x143D DUP3 PUSH2 0x13FC JUMP JUMPDEST PUSH1 0x20 DUP3 ADD SWAP1 POP SWAP2 SWAP1 POP JUMP JUMPDEST PUSH1 0x0 PUSH1 0x20 DUP3 ADD SWAP1 POP DUP2 DUP2 SUB PUSH1 0x0 DUP4 ADD MSTORE PUSH2 0x1461 DUP2 PUSH2 0x1425 JUMP JUMPDEST SWAP1 POP SWAP2 SWAP1 POP JUMP JUMPDEST PUSH1 0x0 PUSH1 0x60 DUP3 ADD SWAP1 POP PUSH2 0x147D PUSH1 0x0 DUP4 ADD DUP7 PUSH2 0xFE8 JUMP JUMPDEST PUSH2 0x148A PUSH1 0x20 DUP4 ADD DUP6 PUSH2 0xFE8 JUMP JUMPDEST PUSH2 0x1497 PUSH1 0x40 DUP4 ADD DUP5 PUSH2 0xE71 JUMP JUMPDEST SWAP5 SWAP4 POP POP POP POP JUMP JUMPDEST PUSH1 0x0 PUSH1 0x40 DUP3 ADD SWAP1 POP PUSH2 0x14B4 PUSH1 0x0 DUP4 ADD DUP6 PUSH2 0xFE8 JUMP JUMPDEST PUSH2 0x14C1 PUSH1 0x20 DUP4 ADD DUP5 PUSH2 0xE71 JUMP JUMPDEST SWAP4 SWAP3 POP POP POP JUMP INVALID LOG2 PUSH5 0x6970667358 0x22 SLT KECCAK256 LT NOT 0x4F 0xC4 CALLDATALOAD SUB CALLVALUE 0xB6 0x26 SWAP9 0x26 0xAB SWAP9 0x2E 0xB2 0xAE DUP4 PUSH28 0x148FC003FED171350BFA4BBD1AA864736F6C63430008140033000000 "},"methodIdentifiers":{"owner()":"8da5cb5b","protocolFeeBps()":"35659fb8","quickPaySplit(address,address,uint256,bytes32)":"239796b2","renounceOwnership()":"715018a6","setProtocolFee(uint256)":"787dce3d","setTreasury(address)":"f0f44260","splitPaymentERC20(address,address,uint256,bytes)":"52383037","splitPaymentNative(address,bytes)":"3e8eaff6","transferOwnership(address)":"f2fde38b","treasury()":"61d027b3"}}}}}