{
  "_format": "hh-sol-artifact-1",
  "contractName": "ArnFeeSplitter",
  "sourceName": "contracts/ArnFeeSplitter.sol",
  "abi": [
    {
      "inputs": [
        {
          "internalType": "address",
          "name": "_treasury",
          "type": "address"
        },
        {
          "internalType": "address",
          "name": "_commissionContract",
          "type": "address"
        }
      ],
      "stateMutability": "nonpayable",
      "type": "constructor"
    },
    {
      "inputs": [
        {
          "internalType": "address",
          "name": "owner",
          "type": "address"
        }
      ],
      "name": "OwnableInvalidOwner",
      "type": "error"
    },
    {
      "inputs": [
        {
          "internalType": "address",
          "name": "account",
          "type": "address"
        }
      ],
      "name": "OwnableUnauthorizedAccount",
      "type": "error"
    },
    {
      "inputs": [
        {
          "internalType": "address",
          "name": "token",
          "type": "address"
        }
      ],
      "name": "SafeERC20FailedOperation",
      "type": "error"
    },
    {
      "anonymous": false,
      "inputs": [
        {
          "indexed": false,
          "internalType": "address",
          "name": "newCommissionContract",
          "type": "address"
        }
      ],
      "name": "CommissionContractUpdated",
      "type": "event"
    },
    {
      "anonymous": false,
      "inputs": [
        {
          "indexed": true,
          "internalType": "address",
          "name": "previousOwner",
          "type": "address"
        },
        {
          "indexed": true,
          "internalType": "address",
          "name": "newOwner",
          "type": "address"
        }
      ],
      "name": "OwnershipTransferred",
      "type": "event"
    },
    {
      "anonymous": false,
      "inputs": [
        {
          "indexed": true,
          "internalType": "address",
          "name": "token",
          "type": "address"
        },
        {
          "indexed": true,
          "internalType": "address",
          "name": "merchant",
          "type": "address"
        },
        {
          "indexed": false,
          "internalType": "uint256",
          "name": "totalAmount",
          "type": "uint256"
        },
        {
          "indexed": false,
          "internalType": "uint256",
          "name": "commissionAmount",
          "type": "uint256"
        },
        {
          "indexed": false,
          "internalType": "uint256",
          "name": "x402FeeAmount",
          "type": "uint256"
        },
        {
          "indexed": true,
          "internalType": "bytes32",
          "name": "routeRefHash",
          "type": "bytes32"
        }
      ],
      "name": "PaymentSplit",
      "type": "event"
    },
    {
      "anonymous": false,
      "inputs": [
        {
          "indexed": false,
          "internalType": "uint256",
          "name": "newFeeBps",
          "type": "uint256"
        }
      ],
      "name": "ProtocolFeeUpdated",
      "type": "event"
    },
    {
      "anonymous": false,
      "inputs": [
        {
          "indexed": false,
          "internalType": "address",
          "name": "newTreasury",
          "type": "address"
        }
      ],
      "name": "TreasuryUpdated",
      "type": "event"
    },
    {
      "inputs": [],
      "name": "commissionContract",
      "outputs": [
        {
          "internalType": "address",
          "name": "",
          "type": "address"
        }
      ],
      "stateMutability": "view",
      "type": "function"
    },
    {
      "inputs": [],
      "name": "owner",
      "outputs": [
        {
          "internalType": "address",
          "name": "",
          "type": "address"
        }
      ],
      "stateMutability": "view",
      "type": "function"
    },
    {
      "inputs": [],
      "name": "protocolFeeBps",
      "outputs": [
        {
          "internalType": "uint256",
          "name": "",
          "type": "uint256"
        }
      ],
      "stateMutability": "view",
      "type": "function"
    },
    {
      "inputs": [
        {
          "internalType": "address",
          "name": "token",
          "type": "address"
        },
        {
          "internalType": "address",
          "name": "merchant",
          "type": "address"
        },
        {
          "internalType": "uint256",
          "name": "amount",
          "type": "uint256"
        },
        {
          "internalType": "bytes32",
          "name": "orderId",
          "type": "bytes32"
        }
      ],
      "name": "quickPaySplit",
      "outputs": [],
      "stateMutability": "nonpayable",
      "type": "function"
    },
    {
      "inputs": [],
      "name": "renounceOwnership",
      "outputs": [],
      "stateMutability": "nonpayable",
      "type": "function"
    },
    {
      "inputs": [
        {
          "internalType": "address",
          "name": "_commissionContract",
          "type": "address"
        }
      ],
      "name": "setCommissionContract",
      "outputs": [],
      "stateMutability": "nonpayable",
      "type": "function"
    },
    {
      "inputs": [
        {
          "internalType": "uint256",
          "name": "_bps",
          "type": "uint256"
        }
      ],
      "name": "setProtocolFee",
      "outputs": [],
      "stateMutability": "nonpayable",
      "type": "function"
    },
    {
      "inputs": [
        {
          "internalType": "address",
          "name": "_treasury",
          "type": "address"
        }
      ],
      "name": "setTreasury",
      "outputs": [],
      "stateMutability": "nonpayable",
      "type": "function"
    },
    {
      "inputs": [
        {
          "internalType": "address",
          "name": "token",
          "type": "address"
        },
        {
          "internalType": "address",
          "name": "merchant",
          "type": "address"
        },
        {
          "internalType": "uint256",
          "name": "amount",
          "type": "uint256"
        },
        {
          "internalType": "bytes",
          "name": "routeRef",
          "type": "bytes"
        }
      ],
      "name": "splitPaymentERC20",
      "outputs": [],
      "stateMutability": "nonpayable",
      "type": "function"
    },
    {
      "inputs": [
        {
          "internalType": "address",
          "name": "merchant",
          "type": "address"
        },
        {
          "internalType": "bytes",
          "name": "routeRef",
          "type": "bytes"
        }
      ],
      "name": "splitPaymentNative",
      "outputs": [],
      "stateMutability": "payable",
      "type": "function"
    },
    {
      "inputs": [
        {
          "internalType": "address",
          "name": "newOwner",
          "type": "address"
        }
      ],
      "name": "transferOwnership",
      "outputs": [],
      "stateMutability": "nonpayable",
      "type": "function"
    },
    {
      "inputs": [],
      "name": "treasury",
      "outputs": [
        {
          "internalType": "address",
          "name": "",
          "type": "address"
        }
      ],
      "stateMutability": "view",
      "type": "function"
    }
  ],
  "bytecode": "0x6080604052601e6001553480156200001657600080fd5b50604051620020d1380380620020d183398181016040528101906200003c919062000360565b33600073ffffffffffffffffffffffffffffffffffffffff168173ffffffffffffffffffffffffffffffffffffffff1603620000b25760006040517f1e4fbdf7000000000000000000000000000000000000000000000000000000008152600401620000a99190620003b8565b60405180910390fd5b620000c3816200023260201b60201c565b50600073ffffffffffffffffffffffffffffffffffffffff168273ffffffffffffffffffffffffffffffffffffffff160362000136576040517f08c379a00000000000000000000000000000000000000000000000000000000081526004016200012d9062000436565b60405180910390fd5b600073ffffffffffffffffffffffffffffffffffffffff168173ffffffffffffffffffffffffffffffffffffffff1603620001a8576040517f08c379a00000000000000000000000000000000000000000000000000000000081526004016200019f90620004a8565b60405180910390fd5b81600360006101000a81548173ffffffffffffffffffffffffffffffffffffffff021916908373ffffffffffffffffffffffffffffffffffffffff16021790555080600260006101000a81548173ffffffffffffffffffffffffffffffffffffffff021916908373ffffffffffffffffffffffffffffffffffffffff1602179055505050620004ca565b60008060009054906101000a900473ffffffffffffffffffffffffffffffffffffffff169050816000806101000a81548173ffffffffffffffffffffffffffffffffffffffff021916908373ffffffffffffffffffffffffffffffffffffffff1602179055508173ffffffffffffffffffffffffffffffffffffffff168173ffffffffffffffffffffffffffffffffffffffff167f8be0079c531659141344cd1fd0a4f28419497f9722a3daafe3b4186f6b6457e060405160405180910390a35050565b600080fd5b600073ffffffffffffffffffffffffffffffffffffffff82169050919050565b60006200032882620002fb565b9050919050565b6200033a816200031b565b81146200034657600080fd5b50565b6000815190506200035a816200032f565b92915050565b600080604083850312156200037a5762000379620002f6565b5b60006200038a8582860162000349565b92505060206200039d8582860162000349565b9150509250929050565b620003b2816200031b565b82525050565b6000602082019050620003cf6000830184620003a7565b92915050565b600082825260208201905092915050565b7f496e76616c696420747265617375727900000000000000000000000000000000600082015250565b60006200041e601083620003d5565b91506200042b82620003e6565b602082019050919050565b6000602082019050818103600083015262000451816200040f565b9050919050565b7f496e76616c696420636f6d6d697373696f6e20636f6e74726163740000000000600082015250565b600062000490601b83620003d5565b91506200049d8262000458565b602082019050919050565b60006020820190508181036000830152620004c38162000481565b9050919050565b611bf780620004da6000396000f3fe6080604052600436106100a75760003560e01c8063787dce3d11610064578063787dce3d146101875780638da5cb5b146101b05780639e136ec1146101db578063da8909e514610204578063f0f442601461022f578063f2fde38b14610258576100a7565b8063239796b2146100ac57806335659fb8146100d55780633e8eaff614610100578063523830371461011c57806361d027b314610145578063715018a614610170575b600080fd5b3480156100b857600080fd5b506100d360048036038101906100ce91906112f0565b610281565b005b3480156100e157600080fd5b506100ea610613565b6040516100f79190611366565b60405180910390f35b61011a600480360381019061011591906113e6565b610619565b005b34801561012857600080fd5b50610143600480360381019061013e9190611446565b6108aa565b005b34801561015157600080fd5b5061015a610a36565b60405161016791906114dd565b60405180910390f35b34801561017c57600080fd5b50610185610a5c565b005b34801561019357600080fd5b506101ae60048036038101906101a991906114f8565b610a70565b005b3480156101bc57600080fd5b506101c5610afe565b6040516101d291906114dd565b60405180910390f35b3480156101e757600080fd5b5061020260048036038101906101fd9190611525565b610b27565b005b34801561021057600080fd5b50610219610c19565b60405161022691906114dd565b60405180910390f35b34801561023b57600080fd5b5061025660048036038101906102519190611525565b610c3f565b005b34801561026457600080fd5b5061027f600480360381019061027a9190611525565b610d31565b005b600082116102c4576040517f08c379a00000000000000000000000000000000000000000000000000000000081526004016102bb906115af565b60405180910390fd5b6102f13330848773ffffffffffffffffffffffffffffffffffffffff16610db7909392919063ffffffff16565b60006127106001548461030491906115fe565b61030e919061166f565b90506000818461031e91906116a0565b9050600082111561037757610376600360009054906101000a900473ffffffffffffffffffffffffffffffffffffffff16838873ffffffffffffffffffffffffffffffffffffffff16610e399092919063ffffffff16565b5b60008111156105a1576103cd600260009054906101000a900473ffffffffffffffffffffffffffffffffffffffff16828873ffffffffffffffffffffffffffffffffffffffff16610eb89092919063ffffffff16565b600080600260009054906101000a900473ffffffffffffffffffffffffffffffffffffffff1673ffffffffffffffffffffffffffffffffffffffff16858460405160240161041c9291906116e3565b6040516020818303038152906040527f14e1327b000000000000000000000000000000000000000000000000000000007bffffffffffffffffffffffffffffffffffffffffffffffffffffffff19166020820180517bffffffffffffffffffffffffffffffffffffffffffffffffffffffff83818316178352505050506040516104a6919061177d565b6000604051808303816000865af19150503d80600081146104e3576040519150601f19603f3d011682016040523d82523d6000602084013e6104e8565b606091505b509150915081816040516020016104ff91906117eb565b6040516020818303038152906040529061054f576040517f08c379a00000000000000000000000000000000000000000000000000000000081526004016105469190611862565b60405180910390fd5b5061059e600260009054906101000a900473ffffffffffffffffffffffffffffffffffffffff1660008a73ffffffffffffffffffffffffffffffffffffffff16610eb89092919063ffffffff16565b50505b828573ffffffffffffffffffffffffffffffffffffffff168773ffffffffffffffffffffffffffffffffffffffff167f1d53deaef03137ccd2fa5503b6c280dacfce2e7ae1483128fb0ebfc6fa050e8c87858760405161060393929190611884565b60405180910390a4505050505050565b60015481565b600034905060008111610661576040517f08c379a0000000000000000000000000000000000000000000000000000000008152600401610658906115af565b60405180910390fd5b60006127106001548361067491906115fe565b61067e919061166f565b90506000818361068e91906116a0565b90506000821115610769576000600360009054906101000a900473ffffffffffffffffffffffffffffffffffffffff1673ffffffffffffffffffffffffffffffffffffffff16836040516106e1906118e1565b60006040518083038185875af1925050503d806000811461071e576040519150601f19603f3d011682016040523d82523d6000602084013e610723565b606091505b5050905080610767576040517f08c379a000000000000000000000000000000000000000000000000000000000815260040161075e90611942565b60405180910390fd5b505b60008111156108205760008673ffffffffffffffffffffffffffffffffffffffff1682604051610798906118e1565b60006040518083038185875af1925050503d80600081146107d5576040519150601f19603f3d011682016040523d82523d6000602084013e6107da565b606091505b505090508061081e576040517f08c379a0000000000000000000000000000000000000000000000000000000008152600401610815906119ae565b60405180910390fd5b505b8484604051610830929190611a02565b60405180910390208673ffffffffffffffffffffffffffffffffffffffff16600073ffffffffffffffffffffffffffffffffffffffff167f1d53deaef03137ccd2fa5503b6c280dacfce2e7ae1483128fb0ebfc6fa050e8c86858760405161089a93929190611884565b60405180910390a4505050505050565b600083116108ed576040517f08c379a00000000000000000000000000000000000000000000000000000000081526004016108e4906115af565b60405180910390fd5b60006127106001548561090091906115fe565b61090a919061166f565b90506000818561091a91906116a0565b905060008211156109755761097433600360009054906101000a900473ffffffffffffffffffffffffffffffffffffffff16848a73ffffffffffffffffffffffffffffffffffffffff16610db7909392919063ffffffff16565b5b60008111156109ac576109ab3387838a73ffffffffffffffffffffffffffffffffffffffff16610db7909392919063ffffffff16565b5b83836040516109bc929190611a02565b60405180910390208673ffffffffffffffffffffffffffffffffffffffff168873ffffffffffffffffffffffffffffffffffffffff167f1d53deaef03137ccd2fa5503b6c280dacfce2e7ae1483128fb0ebfc6fa050e8c888587604051610a2593929190611884565b60405180910390a450505050505050565b600360009054906101000a900473ffffffffffffffffffffffffffffffffffffffff1681565b610a64610fc7565b610a6e600061104e565b565b610a78610fc7565b6103e8811115610abd576040517f08c379a0000000000000000000000000000000000000000000000000000000008152600401610ab490611a67565b60405180910390fd5b806001819055507fd10d75876659a287a59a6ccfa2e3fff42f84d94b542837acd30bc184d562de4081604051610af39190611366565b60405180910390a150565b60008060009054906101000a900473ffffffffffffffffffffffffffffffffffffffff16905090565b610b2f610fc7565b600073ffffffffffffffffffffffffffffffffffffffff168173ffffffffffffffffffffffffffffffffffffffff1603610b9e576040517f08c379a0000000000000000000000000000000000000000000000000000000008152600401610b9590611ad3565b60405180910390fd5b80600260006101000a81548173ffffffffffffffffffffffffffffffffffffffff021916908373ffffffffffffffffffffffffffffffffffffffff1602179055507f15281db49f03f83576af4c43c0bfde7d7768315e1e71dc14ea5ad3377f92b5d281604051610c0e91906114dd565b60405180910390a150565b600260009054906101000a900473ffffffffffffffffffffffffffffffffffffffff1681565b610c47610fc7565b600073ffffffffffffffffffffffffffffffffffffffff168173ffffffffffffffffffffffffffffffffffffffff1603610cb6576040517f08c379a0000000000000000000000000000000000000000000000000000000008152600401610cad90611ad3565b60405180910390fd5b80600360006101000a81548173ffffffffffffffffffffffffffffffffffffffff021916908373ffffffffffffffffffffffffffffffffffffffff1602179055507f7dae230f18360d76a040c81f050aa14eb9d6dc7901b20fc5d855e2a20fe814d181604051610d2691906114dd565b60405180910390a150565b610d39610fc7565b600073ffffffffffffffffffffffffffffffffffffffff168173ffffffffffffffffffffffffffffffffffffffff1603610dab5760006040517f1e4fbdf7000000000000000000000000000000000000000000000000000000008152600401610da291906114dd565b60405180910390fd5b610db48161104e565b50565b610e33848573ffffffffffffffffffffffffffffffffffffffff166323b872dd868686604051602401610dec93929190611af3565b604051602081830303815290604052915060e01b6020820180517bffffffffffffffffffffffffffffffffffffffffffffffffffffffff8381831617835250505050611112565b50505050565b610eb3838473ffffffffffffffffffffffffffffffffffffffff1663a9059cbb8585604051602401610e6c929190611b2a565b604051602081830303815290604052915060e01b6020820180517bffffffffffffffffffffffffffffffffffffffffffffffffffffffff8381831617835250505050611112565b505050565b60008373ffffffffffffffffffffffffffffffffffffffff1663095ea7b38484604051602401610ee9929190611b2a565b604051602081830303815290604052915060e01b6020820180517bffffffffffffffffffffffffffffffffffffffffffffffffffffffff83818316178352505050509050610f3784826111b4565b610fc157610fb6848573ffffffffffffffffffffffffffffffffffffffff1663095ea7b3866000604051602401610f6f929190611b98565b604051602081830303815290604052915060e01b6020820180517bffffffffffffffffffffffffffffffffffffffffffffffffffffffff8381831617835250505050611112565b610fc08482611112565b5b50505050565b610fcf611214565b73ffffffffffffffffffffffffffffffffffffffff16610fed610afe565b73ffffffffffffffffffffffffffffffffffffffff161461104c57611010611214565b6040517f118cdaa700000000000000000000000000000000000000000000000000000000815260040161104391906114dd565b60405180910390fd5b565b60008060009054906101000a900473ffffffffffffffffffffffffffffffffffffffff169050816000806101000a81548173ffffffffffffffffffffffffffffffffffffffff021916908373ffffffffffffffffffffffffffffffffffffffff1602179055508173ffffffffffffffffffffffffffffffffffffffff168173ffffffffffffffffffffffffffffffffffffffff167f8be0079c531659141344cd1fd0a4f28419497f9722a3daafe3b4186f6b6457e060405160405180910390a35050565b600080602060008451602086016000885af180611135576040513d6000823e3d81fd5b3d92506000519150506000821461115057600181141561116c565b60008473ffffffffffffffffffffffffffffffffffffffff163b145b156111ae57836040517f5274afe70000000000000000000000000000000000000000000000000000000081526004016111a591906114dd565b60405180910390fd5b50505050565b6000806000806020600086516020880160008a5af192503d915060005190508280156112095750600082146111ec5760018114611208565b60008673ffffffffffffffffffffffffffffffffffffffff163b115b5b935050505092915050565b600033905090565b600080fd5b600080fd5b600073ffffffffffffffffffffffffffffffffffffffff82169050919050565b600061125182611226565b9050919050565b61126181611246565b811461126c57600080fd5b50565b60008135905061127e81611258565b92915050565b6000819050919050565b61129781611284565b81146112a257600080fd5b50565b6000813590506112b48161128e565b92915050565b6000819050919050565b6112cd816112ba565b81146112d857600080fd5b50565b6000813590506112ea816112c4565b92915050565b6000806000806080858703121561130a5761130961121c565b5b60006113188782880161126f565b94505060206113298782880161126f565b935050604061133a878288016112a5565b925050606061134b878288016112db565b91505092959194509250565b61136081611284565b82525050565b600060208201905061137b6000830184611357565b92915050565b600080fd5b600080fd5b600080fd5b60008083601f8401126113a6576113a5611381565b5b8235905067ffffffffffffffff8111156113c3576113c2611386565b5b6020830191508360018202830111156113df576113de61138b565b5b9250929050565b6000806000604084860312156113ff576113fe61121c565b5b600061140d8682870161126f565b935050602084013567ffffffffffffffff81111561142e5761142d611221565b5b61143a86828701611390565b92509250509250925092565b6000806000806000608086880312156114625761146161121c565b5b60006114708882890161126f565b95505060206114818882890161126f565b9450506040611492888289016112a5565b935050606086013567ffffffffffffffff8111156114b3576114b2611221565b5b6114bf88828901611390565b92509250509295509295909350565b6114d781611246565b82525050565b60006020820190506114f260008301846114ce565b92915050565b60006020828403121561150e5761150d61121c565b5b600061151c848285016112a5565b91505092915050565b60006020828403121561153b5761153a61121c565b5b60006115498482850161126f565b91505092915050565b600082825260208201905092915050565b7f416d6f756e74206d757374206265203e20300000000000000000000000000000600082015250565b6000611599601283611552565b91506115a482611563565b602082019050919050565b600060208201905081810360008301526115c88161158c565b9050919050565b7f4e487b7100000000000000000000000000000000000000000000000000000000600052601160045260246000fd5b600061160982611284565b915061161483611284565b925082820261162281611284565b91508282048414831517611639576116386115cf565b5b5092915050565b7f4e487b7100000000000000000000000000000000000000000000000000000000600052601260045260246000fd5b600061167a82611284565b915061168583611284565b92508261169557611694611640565b5b828204905092915050565b60006116ab82611284565b91506116b683611284565b92508282039050818111156116ce576116cd6115cf565b5b92915050565b6116dd816112ba565b82525050565b60006040820190506116f860008301856116d4565b6117056020830184611357565b9392505050565b600081519050919050565b600081905092915050565b60005b83811015611740578082015181840152602081019050611725565b60008484015250505050565b60006117578261170c565b6117618185611717565b9350611771818560208601611722565b80840191505092915050565b6000611789828461174c565b915081905092915050565b600081905092915050565b7f436f6d6d697373696f6e2063616c6c206661696c65643a200000000000000000600082015250565b60006117d5601883611794565b91506117e08261179f565b601882019050919050565b60006117f6826117c8565b9150611802828461174c565b915081905092915050565b600081519050919050565b6000601f19601f8301169050919050565b60006118348261180d565b61183e8185611552565b935061184e818560208601611722565b61185781611818565b840191505092915050565b6000602082019050818103600083015261187c8184611829565b905092915050565b60006060820190506118996000830186611357565b6118a66020830185611357565b6118b36040830184611357565b949350505050565b50565b60006118cb600083611717565b91506118d6826118bb565b600082019050919050565b60006118ec826118be565b9150819050919050565b7f466565207472616e73666572206661696c656400000000000000000000000000600082015250565b600061192c601383611552565b9150611937826118f6565b602082019050919050565b6000602082019050818103600083015261195b8161191f565b9050919050565b7f4d65726368616e74207472616e73666572206661696c65640000000000000000600082015250565b6000611998601883611552565b91506119a382611962565b602082019050919050565b600060208201905081810360008301526119c78161198b565b9050919050565b82818337600083830152505050565b60006119e98385611717565b93506119f68385846119ce565b82840190509392505050565b6000611a0f8284866119dd565b91508190509392505050565b7f46656520746f6f206869676820286d6178203130252900000000000000000000600082015250565b6000611a51601683611552565b9150611a5c82611a1b565b602082019050919050565b60006020820190508181036000830152611a8081611a44565b9050919050565b7f496e76616c696420616464726573730000000000000000000000000000000000600082015250565b6000611abd600f83611552565b9150611ac882611a87565b602082019050919050565b60006020820190508181036000830152611aec81611ab0565b9050919050565b6000606082019050611b0860008301866114ce565b611b1560208301856114ce565b611b226040830184611357565b949350505050565b6000604082019050611b3f60008301856114ce565b611b4c6020830184611357565b9392505050565b6000819050919050565b6000819050919050565b6000611b82611b7d611b7884611b53565b611b5d565b611284565b9050919050565b611b9281611b67565b82525050565b6000604082019050611bad60008301856114ce565b611bba6020830184611b89565b939250505056fea26469706673582212202190888106675db96579147f1cf1dd26a941794e9428a7d7fe9f128722c4fb0e64736f6c63430008140033",
  "linkReferences": {},
  "deployedLinkReferences": {}
}