{
  "_format": "hh-sol-artifact-1",
  "contractName": "Commission",
  "sourceName": "contracts/Commission.sol",
  "abi": [
    {
      "anonymous": false,
      "inputs": [
        {
          "indexed": true,
          "internalType": "bytes32",
          "name": "orderId",
          "type": "bytes32"
        },
        {
          "indexed": false,
          "internalType": "uint256",
          "name": "merchantAmount",
          "type": "uint256"
        }
      ],
      "name": "CommissionDistributed",
      "type": "event"
    },
    {
      "anonymous": false,
      "inputs": [
        {
          "indexed": true,
          "internalType": "bytes32",
          "name": "recordId",
          "type": "bytes32"
        },
        {
          "indexed": true,
          "internalType": "address",
          "name": "payee",
          "type": "address"
        },
        {
          "indexed": false,
          "internalType": "enum Commission.PayeeType",
          "name": "payeeType",
          "type": "uint8"
        },
        {
          "indexed": false,
          "internalType": "enum Commission.AgentType",
          "name": "agentType",
          "type": "uint8"
        },
        {
          "indexed": false,
          "internalType": "uint256",
          "name": "amount",
          "type": "uint256"
        },
        {
          "indexed": false,
          "internalType": "address",
          "name": "currency",
          "type": "address"
        },
        {
          "indexed": false,
          "internalType": "uint256",
          "name": "commissionBase",
          "type": "uint256"
        },
        {
          "indexed": false,
          "internalType": "uint256",
          "name": "channelFee",
          "type": "uint256"
        },
        {
          "indexed": false,
          "internalType": "bytes32",
          "name": "sessionId",
          "type": "bytes32"
        }
      ],
      "name": "CommissionRecorded",
      "type": "event"
    },
    {
      "anonymous": false,
      "inputs": [
        {
          "indexed": true,
          "internalType": "bytes32",
          "name": "orderId",
          "type": "bytes32"
        },
        {
          "indexed": false,
          "internalType": "enum Commission.Status",
          "name": "status",
          "type": "uint8"
        },
        {
          "indexed": false,
          "internalType": "uint256",
          "name": "settlementTime",
          "type": "uint256"
        }
      ],
      "name": "OrderSynced",
      "type": "event"
    },
    {
      "anonymous": false,
      "inputs": [
        {
          "indexed": true,
          "internalType": "address",
          "name": "previousOwner",
          "type": "address"
        },
        {
          "indexed": true,
          "internalType": "address",
          "name": "newOwner",
          "type": "address"
        }
      ],
      "name": "OwnershipTransferred",
      "type": "event"
    },
    {
      "anonymous": false,
      "inputs": [
        {
          "indexed": false,
          "internalType": "address",
          "name": "account",
          "type": "address"
        }
      ],
      "name": "Paused",
      "type": "event"
    },
    {
      "anonymous": false,
      "inputs": [
        {
          "indexed": true,
          "internalType": "bytes32",
          "name": "orderId",
          "type": "bytes32"
        },
        {
          "indexed": true,
          "internalType": "bytes32",
          "name": "sessionId",
          "type": "bytes32"
        },
        {
          "indexed": true,
          "internalType": "address",
          "name": "merchantWallet",
          "type": "address"
        },
        {
          "indexed": false,
          "internalType": "uint256",
          "name": "totalAmount",
          "type": "uint256"
        },
        {
          "indexed": false,
          "internalType": "uint256",
          "name": "merchantAmount",
          "type": "uint256"
        },
        {
          "indexed": false,
          "internalType": "uint256",
          "name": "platformFee",
          "type": "uint256"
        },
        {
          "indexed": false,
          "internalType": "uint256",
          "name": "executionFee",
          "type": "uint256"
        },
        {
          "indexed": false,
          "internalType": "uint256",
          "name": "referralFee",
          "type": "uint256"
        }
      ],
      "name": "PaymentAutoSplit",
      "type": "event"
    },
    {
      "anonymous": false,
      "inputs": [
        {
          "indexed": true,
          "internalType": "bytes32",
          "name": "orderId",
          "type": "bytes32"
        },
        {
          "indexed": false,
          "internalType": "enum Commission.PaymentScenario",
          "name": "scenario",
          "type": "uint8"
        },
        {
          "indexed": true,
          "internalType": "address",
          "name": "from",
          "type": "address"
        },
        {
          "indexed": false,
          "internalType": "uint256",
          "name": "amount",
          "type": "uint256"
        }
      ],
      "name": "PaymentReceived",
      "type": "event"
    },
    {
      "anonymous": false,
      "inputs": [
        {
          "indexed": true,
          "internalType": "bytes32",
          "name": "orderId",
          "type": "bytes32"
        },
        {
          "indexed": false,
          "internalType": "string",
          "name": "reason",
          "type": "string"
        },
        {
          "indexed": true,
          "internalType": "address",
          "name": "auditor",
          "type": "address"
        }
      ],
      "name": "ProofRejected",
      "type": "event"
    },
    {
      "anonymous": false,
      "inputs": [
        {
          "indexed": true,
          "internalType": "bytes32",
          "name": "orderId",
          "type": "bytes32"
        },
        {
          "indexed": false,
          "internalType": "bytes32",
          "name": "resultHash",
          "type": "bytes32"
        },
        {
          "indexed": true,
          "internalType": "address",
          "name": "submitter",
          "type": "address"
        }
      ],
      "name": "ProofSubmitted",
      "type": "event"
    },
    {
      "anonymous": false,
      "inputs": [
        {
          "indexed": true,
          "internalType": "bytes32",
          "name": "orderId",
          "type": "bytes32"
        },
        {
          "indexed": false,
          "internalType": "bytes32",
          "name": "resultHash",
          "type": "bytes32"
        },
        {
          "indexed": true,
          "internalType": "address",
          "name": "auditor",
          "type": "address"
        },
        {
          "indexed": false,
          "internalType": "uint256",
          "name": "quality",
          "type": "uint256"
        }
      ],
      "name": "ProofVerified",
      "type": "event"
    },
    {
      "anonymous": false,
      "inputs": [
        {
          "indexed": true,
          "internalType": "address",
          "name": "provider",
          "type": "address"
        },
        {
          "indexed": false,
          "internalType": "bool",
          "name": "authorized",
          "type": "bool"
        }
      ],
      "name": "ProviderAuthorized",
      "type": "event"
    },
    {
      "anonymous": false,
      "inputs": [
        {
          "indexed": true,
          "internalType": "bytes32",
          "name": "settlementId",
          "type": "bytes32"
        },
        {
          "indexed": true,
          "internalType": "address",
          "name": "payee",
          "type": "address"
        },
        {
          "indexed": false,
          "internalType": "uint256",
          "name": "amount",
          "type": "uint256"
        },
        {
          "indexed": false,
          "internalType": "address",
          "name": "currency",
          "type": "address"
        }
      ],
      "name": "SettlementCompleted",
      "type": "event"
    },
    {
      "anonymous": false,
      "inputs": [
        {
          "indexed": true,
          "internalType": "bytes32",
          "name": "settlementId",
          "type": "bytes32"
        },
        {
          "indexed": true,
          "internalType": "address",
          "name": "payee",
          "type": "address"
        },
        {
          "indexed": false,
          "internalType": "enum Commission.PayeeType",
          "name": "payeeType",
          "type": "uint8"
        },
        {
          "indexed": false,
          "internalType": "uint256",
          "name": "totalAmount",
          "type": "uint256"
        },
        {
          "indexed": false,
          "internalType": "address",
          "name": "currency",
          "type": "address"
        }
      ],
      "name": "SettlementCreated",
      "type": "event"
    },
    {
      "anonymous": false,
      "inputs": [
        {
          "indexed": true,
          "internalType": "bytes32",
          "name": "orderId",
          "type": "bytes32"
        },
        {
          "components": [
            {
              "internalType": "address",
              "name": "merchantMPCWallet",
              "type": "address"
            },
            {
              "internalType": "uint256",
              "name": "merchantAmount",
              "type": "uint256"
            },
            {
              "internalType": "address",
              "name": "referrer",
              "type": "address"
            },
            {
              "internalType": "uint256",
              "name": "referralFee",
              "type": "uint256"
            },
            {
              "internalType": "address",
              "name": "executor",
              "type": "address"
            },
            {
              "internalType": "uint256",
              "name": "executionFee",
              "type": "uint256"
            },
            {
              "internalType": "uint256",
              "name": "platformFee",
              "type": "uint256"
            },
            {
              "internalType": "uint256",
              "name": "offRampFee",
              "type": "uint256"
            },
            {
              "internalType": "bool",
              "name": "executorHasWallet",
              "type": "bool"
            },
            {
              "internalType": "uint256",
              "name": "settlementTime",
              "type": "uint256"
            },
            {
              "internalType": "bool",
              "name": "isDisputed",
              "type": "bool"
            },
            {
              "internalType": "bytes32",
              "name": "sessionId",
              "type": "bytes32"
            },
            {
              "internalType": "bytes32",
              "name": "proofHash",
              "type": "bytes32"
            },
            {
              "internalType": "address",
              "name": "auditor",
              "type": "address"
            },
            {
              "internalType": "bool",
              "name": "requiresProof",
              "type": "bool"
            },
            {
              "internalType": "bool",
              "name": "proofVerified",
              "type": "bool"
            }
          ],
          "indexed": false,
          "internalType": "struct Commission.SplitConfig",
          "name": "config",
          "type": "tuple"
        }
      ],
      "name": "SplitConfigSet",
      "type": "event"
    },
    {
      "anonymous": false,
      "inputs": [
        {
          "indexed": true,
          "internalType": "address",
          "name": "auditor",
          "type": "address"
        },
        {
          "indexed": false,
          "internalType": "bool",
          "name": "trusted",
          "type": "bool"
        }
      ],
      "name": "TrustedAuditorUpdated",
      "type": "event"
    },
    {
      "anonymous": false,
      "inputs": [
        {
          "indexed": false,
          "internalType": "address",
          "name": "account",
          "type": "address"
        }
      ],
      "name": "Unpaused",
      "type": "event"
    },
    {
      "inputs": [
        {
          "internalType": "address",
          "name": "",
          "type": "address"
        }
      ],
      "name": "authorizedProviders",
      "outputs": [
        {
          "internalType": "bool",
          "name": "",
          "type": "bool"
        }
      ],
      "stateMutability": "view",
      "type": "function"
    },
    {
      "inputs": [
        {
          "internalType": "bytes32",
          "name": "",
          "type": "bytes32"
        }
      ],
      "name": "commissions",
      "outputs": [
        {
          "internalType": "bytes32",
          "name": "recordId",
          "type": "bytes32"
        },
        {
          "internalType": "address",
          "name": "payee",
          "type": "address"
        },
        {
          "internalType": "enum Commission.PayeeType",
          "name": "payeeType",
          "type": "uint8"
        },
        {
          "internalType": "enum Commission.AgentType",
          "name": "agentType",
          "type": "uint8"
        },
        {
          "internalType": "uint256",
          "name": "amount",
          "type": "uint256"
        },
        {
          "internalType": "address",
          "name": "currency",
          "type": "address"
        },
        {
          "internalType": "uint256",
          "name": "commissionBase",
          "type": "uint256"
        },
        {
          "internalType": "uint256",
          "name": "channelFee",
          "type": "uint256"
        },
        {
          "internalType": "bytes32",
          "name": "sessionId",
          "type": "bytes32"
        },
        {
          "internalType": "uint256",
          "name": "timestamp",
          "type": "uint256"
        },
        {
          "internalType": "bool",
          "name": "settled",
          "type": "bool"
        }
      ],
      "stateMutability": "view",
      "type": "function"
    },
    {
      "inputs": [
        {
          "internalType": "address",
          "name": "token",
          "type": "address"
        },
        {
          "internalType": "address",
          "name": "treasury",
          "type": "address"
        },
        {
          "internalType": "address",
          "name": "rebatePool",
          "type": "address"
        }
      ],
      "name": "configureSettlementToken",
      "outputs": [],
      "stateMutability": "nonpayable",
      "type": "function"
    },
    {
      "inputs": [
        {
          "internalType": "address",
          "name": "payee",
          "type": "address"
        },
        {
          "internalType": "enum Commission.PayeeType",
          "name": "payeeType",
          "type": "uint8"
        },
        {
          "internalType": "address",
          "name": "currency",
          "type": "address"
        }
      ],
      "name": "createSettlement",
      "outputs": [
        {
          "internalType": "bytes32",
          "name": "",
          "type": "bytes32"
        }
      ],
      "stateMutability": "nonpayable",
      "type": "function"
    },
    {
      "inputs": [
        {
          "internalType": "bytes32",
          "name": "orderId",
          "type": "bytes32"
        }
      ],
      "name": "distributeCommission",
      "outputs": [],
      "stateMutability": "nonpayable",
      "type": "function"
    },
    {
      "inputs": [
        {
          "internalType": "address",
          "name": "to",
          "type": "address"
        },
        {
          "internalType": "uint256",
          "name": "amount",
          "type": "uint256"
        }
      ],
      "name": "emergencyWithdrawETH",
      "outputs": [],
      "stateMutability": "nonpayable",
      "type": "function"
    },
    {
      "inputs": [
        {
          "internalType": "address",
          "name": "token",
          "type": "address"
        },
        {
          "internalType": "address",
          "name": "to",
          "type": "address"
        },
        {
          "internalType": "uint256",
          "name": "amount",
          "type": "uint256"
        }
      ],
      "name": "emergencyWithdrawToken",
      "outputs": [],
      "stateMutability": "nonpayable",
      "type": "function"
    },
    {
      "inputs": [
        {
          "internalType": "bytes32",
          "name": "settlementId",
          "type": "bytes32"
        }
      ],
      "name": "executeSettlement",
      "outputs": [],
      "stateMutability": "nonpayable",
      "type": "function"
    },
    {
      "inputs": [],
      "name": "getContractBalance",
      "outputs": [
        {
          "internalType": "uint256",
          "name": "",
          "type": "uint256"
        }
      ],
      "stateMutability": "view",
      "type": "function"
    },
    {
      "inputs": [
        {
          "internalType": "address",
          "name": "payee",
          "type": "address"
        },
        {
          "internalType": "address",
          "name": "currency",
          "type": "address"
        }
      ],
      "name": "getPendingBalance",
      "outputs": [
        {
          "internalType": "uint256",
          "name": "",
          "type": "uint256"
        }
      ],
      "stateMutability": "view",
      "type": "function"
    },
    {
      "inputs": [
        {
          "internalType": "bytes32",
          "name": "orderId",
          "type": "bytes32"
        }
      ],
      "name": "getProofStatus",
      "outputs": [
        {
          "internalType": "bool",
          "name": "requiresProof",
          "type": "bool"
        },
        {
          "internalType": "bytes32",
          "name": "expectedHash",
          "type": "bytes32"
        },
        {
          "internalType": "bytes32",
          "name": "submittedHash",
          "type": "bytes32"
        },
        {
          "internalType": "bool",
          "name": "verified",
          "type": "bool"
        },
        {
          "internalType": "address",
          "name": "auditor",
          "type": "address"
        }
      ],
      "stateMutability": "view",
      "type": "function"
    },
    {
      "inputs": [
        {
          "internalType": "bytes32",
          "name": "orderId",
          "type": "bytes32"
        }
      ],
      "name": "getSplitConfig",
      "outputs": [
        {
          "components": [
            {
              "internalType": "address",
              "name": "merchantMPCWallet",
              "type": "address"
            },
            {
              "internalType": "uint256",
              "name": "merchantAmount",
              "type": "uint256"
            },
            {
              "internalType": "address",
              "name": "referrer",
              "type": "address"
            },
            {
              "internalType": "uint256",
              "name": "referralFee",
              "type": "uint256"
            },
            {
              "internalType": "address",
              "name": "executor",
              "type": "address"
            },
            {
              "internalType": "uint256",
              "name": "executionFee",
              "type": "uint256"
            },
            {
              "internalType": "uint256",
              "name": "platformFee",
              "type": "uint256"
            },
            {
              "internalType": "uint256",
              "name": "offRampFee",
              "type": "uint256"
            },
            {
              "internalType": "bool",
              "name": "executorHasWallet",
              "type": "bool"
            },
            {
              "internalType": "uint256",
              "name": "settlementTime",
              "type": "uint256"
            },
            {
              "internalType": "bool",
              "name": "isDisputed",
              "type": "bool"
            },
            {
              "internalType": "bytes32",
              "name": "sessionId",
              "type": "bytes32"
            },
            {
              "internalType": "bytes32",
              "name": "proofHash",
              "type": "bytes32"
            },
            {
              "internalType": "address",
              "name": "auditor",
              "type": "address"
            },
            {
              "internalType": "bool",
              "name": "requiresProof",
              "type": "bool"
            },
            {
              "internalType": "bool",
              "name": "proofVerified",
              "type": "bool"
            }
          ],
          "internalType": "struct Commission.SplitConfig",
          "name": "",
          "type": "tuple"
        }
      ],
      "stateMutability": "view",
      "type": "function"
    },
    {
      "inputs": [
        {
          "internalType": "bytes32",
          "name": "",
          "type": "bytes32"
        }
      ],
      "name": "orderSplitConfigs",
      "outputs": [
        {
          "internalType": "address",
          "name": "merchantMPCWallet",
          "type": "address"
        },
        {
          "internalType": "uint256",
          "name": "merchantAmount",
          "type": "uint256"
        },
        {
          "internalType": "address",
          "name": "referrer",
          "type": "address"
        },
        {
          "internalType": "uint256",
          "name": "referralFee",
          "type": "uint256"
        },
        {
          "internalType": "address",
          "name": "executor",
          "type": "address"
        },
        {
          "internalType": "uint256",
          "name": "executionFee",
          "type": "uint256"
        },
        {
          "internalType": "uint256",
          "name": "platformFee",
          "type": "uint256"
        },
        {
          "internalType": "uint256",
          "name": "offRampFee",
          "type": "uint256"
        },
        {
          "internalType": "bool",
          "name": "executorHasWallet",
          "type": "bool"
        },
        {
          "internalType": "uint256",
          "name": "settlementTime",
          "type": "uint256"
        },
        {
          "internalType": "bool",
          "name": "isDisputed",
          "type": "bool"
        },
        {
          "internalType": "bytes32",
          "name": "sessionId",
          "type": "bytes32"
        },
        {
          "internalType": "bytes32",
          "name": "proofHash",
          "type": "bytes32"
        },
        {
          "internalType": "address",
          "name": "auditor",
          "type": "address"
        },
        {
          "internalType": "bool",
          "name": "requiresProof",
          "type": "bool"
        },
        {
          "internalType": "bool",
          "name": "proofVerified",
          "type": "bool"
        }
      ],
      "stateMutability": "view",
      "type": "function"
    },
    {
      "inputs": [
        {
          "internalType": "bytes32",
          "name": "",
          "type": "bytes32"
        }
      ],
      "name": "orders",
      "outputs": [
        {
          "internalType": "bytes32",
          "name": "orderId",
          "type": "bytes32"
        },
        {
          "internalType": "address",
          "name": "merchant",
          "type": "address"
        },
        {
          "internalType": "address",
          "name": "referrer",
          "type": "address"
        },
        {
          "internalType": "address",
          "name": "executor",
          "type": "address"
        },
        {
          "internalType": "uint256",
          "name": "merchantAmount",
          "type": "uint256"
        },
        {
          "internalType": "uint256",
          "name": "referralFee",
          "type": "uint256"
        },
        {
          "internalType": "uint256",
          "name": "executionFee",
          "type": "uint256"
        },
        {
          "internalType": "uint256",
          "name": "platformFee",
          "type": "uint256"
        },
        {
          "internalType": "uint256",
          "name": "settlementTime",
          "type": "uint256"
        },
        {
          "internalType": "bool",
          "name": "executorHasWallet",
          "type": "bool"
        },
        {
          "internalType": "bool",
          "name": "isDisputed",
          "type": "bool"
        },
        {
          "internalType": "enum Commission.Status",
          "name": "status",
          "type": "uint8"
        }
      ],
      "stateMutability": "view",
      "type": "function"
    },
    {
      "inputs": [],
      "name": "owner",
      "outputs": [
        {
          "internalType": "address",
          "name": "",
          "type": "address"
        }
      ],
      "stateMutability": "view",
      "type": "function"
    },
    {
      "inputs": [],
      "name": "pause",
      "outputs": [],
      "stateMutability": "nonpayable",
      "type": "function"
    },
    {
      "inputs": [],
      "name": "paused",
      "outputs": [
        {
          "internalType": "bool",
          "name": "",
          "type": "bool"
        }
      ],
      "stateMutability": "view",
      "type": "function"
    },
    {
      "inputs": [],
      "name": "paymindTreasury",
      "outputs": [
        {
          "internalType": "address",
          "name": "",
          "type": "address"
        }
      ],
      "stateMutability": "view",
      "type": "function"
    },
    {
      "inputs": [
        {
          "internalType": "address",
          "name": "",
          "type": "address"
        },
        {
          "internalType": "address",
          "name": "",
          "type": "address"
        }
      ],
      "name": "pendingBalances",
      "outputs": [
        {
          "internalType": "uint256",
          "name": "",
          "type": "uint256"
        }
      ],
      "stateMutability": "view",
      "type": "function"
    },
    {
      "inputs": [
        {
          "internalType": "bytes32",
          "name": "orderId",
          "type": "bytes32"
        },
        {
          "internalType": "uint256",
          "name": "amount",
          "type": "uint256"
        }
      ],
      "name": "providerFiatToCryptoSplit",
      "outputs": [],
      "stateMutability": "nonpayable",
      "type": "function"
    },
    {
      "inputs": [
        {
          "internalType": "bytes32",
          "name": "orderId",
          "type": "bytes32"
        },
        {
          "internalType": "uint256",
          "name": "amount",
          "type": "uint256"
        }
      ],
      "name": "quickPaySplit",
      "outputs": [],
      "stateMutability": "nonpayable",
      "type": "function"
    },
    {
      "inputs": [
        {
          "internalType": "bytes32",
          "name": "orderId",
          "type": "bytes32"
        },
        {
          "internalType": "uint256",
          "name": "amount",
          "type": "uint256"
        },
        {
          "internalType": "address",
          "name": "payer",
          "type": "address"
        }
      ],
      "name": "quickPaySplitFrom",
      "outputs": [],
      "stateMutability": "nonpayable",
      "type": "function"
    },
    {
      "inputs": [
        {
          "internalType": "address",
          "name": "payee",
          "type": "address"
        },
        {
          "internalType": "enum Commission.PayeeType",
          "name": "payeeType",
          "type": "uint8"
        },
        {
          "internalType": "enum Commission.AgentType",
          "name": "agentType",
          "type": "uint8"
        },
        {
          "internalType": "uint256",
          "name": "amount",
          "type": "uint256"
        },
        {
          "internalType": "address",
          "name": "currency",
          "type": "address"
        },
        {
          "internalType": "uint256",
          "name": "commissionBase",
          "type": "uint256"
        },
        {
          "internalType": "uint256",
          "name": "channelFee",
          "type": "uint256"
        },
        {
          "internalType": "bytes32",
          "name": "sessionId",
          "type": "bytes32"
        }
      ],
      "name": "recordCommission",
      "outputs": [],
      "stateMutability": "nonpayable",
      "type": "function"
    },
    {
      "inputs": [
        {
          "internalType": "address",
          "name": "payee",
          "type": "address"
        },
        {
          "internalType": "enum Commission.PayeeType",
          "name": "payeeType",
          "type": "uint8"
        },
        {
          "internalType": "uint256",
          "name": "amount",
          "type": "uint256"
        },
        {
          "internalType": "address",
          "name": "currency",
          "type": "address"
        }
      ],
      "name": "recordCommissionLegacy",
      "outputs": [],
      "stateMutability": "nonpayable",
      "type": "function"
    },
    {
      "inputs": [
        {
          "internalType": "address",
          "name": "",
          "type": "address"
        }
      ],
      "name": "relayers",
      "outputs": [
        {
          "internalType": "bool",
          "name": "",
          "type": "bool"
        }
      ],
      "stateMutability": "view",
      "type": "function"
    },
    {
      "inputs": [],
      "name": "renounceOwnership",
      "outputs": [],
      "stateMutability": "nonpayable",
      "type": "function"
    },
    {
      "inputs": [
        {
          "internalType": "address",
          "name": "provider",
          "type": "address"
        },
        {
          "internalType": "bool",
          "name": "authorized",
          "type": "bool"
        }
      ],
      "name": "setAuthorizedProvider",
      "outputs": [],
      "stateMutability": "nonpayable",
      "type": "function"
    },
    {
      "inputs": [
        {
          "internalType": "bytes32",
          "name": "orderId",
          "type": "bytes32"
        },
        {
          "internalType": "bool",
          "name": "isDisputed",
          "type": "bool"
        }
      ],
      "name": "setDisputeStatus",
      "outputs": [],
      "stateMutability": "nonpayable",
      "type": "function"
    },
    {
      "inputs": [
        {
          "internalType": "bytes32",
          "name": "orderId",
          "type": "bytes32"
        },
        {
          "internalType": "bool",
          "name": "disputed",
          "type": "bool"
        }
      ],
      "name": "setOrderDispute",
      "outputs": [],
      "stateMutability": "nonpayable",
      "type": "function"
    },
    {
      "inputs": [
        {
          "internalType": "bytes32",
          "name": "orderId",
          "type": "bytes32"
        },
        {
          "internalType": "bytes32",
          "name": "proofHash",
          "type": "bytes32"
        },
        {
          "internalType": "address",
          "name": "auditor",
          "type": "address"
        }
      ],
      "name": "setProofRequirement",
      "outputs": [],
      "stateMutability": "nonpayable",
      "type": "function"
    },
    {
      "inputs": [
        {
          "internalType": "address",
          "name": "relayer",
          "type": "address"
        },
        {
          "internalType": "bool",
          "name": "active",
          "type": "bool"
        }
      ],
      "name": "setRelayer",
      "outputs": [],
      "stateMutability": "nonpayable",
      "type": "function"
    },
    {
      "inputs": [
        {
          "internalType": "bytes32",
          "name": "orderId",
          "type": "bytes32"
        },
        {
          "components": [
            {
              "internalType": "address",
              "name": "merchantMPCWallet",
              "type": "address"
            },
            {
              "internalType": "uint256",
              "name": "merchantAmount",
              "type": "uint256"
            },
            {
              "internalType": "address",
              "name": "referrer",
              "type": "address"
            },
            {
              "internalType": "uint256",
              "name": "referralFee",
              "type": "uint256"
            },
            {
              "internalType": "address",
              "name": "executor",
              "type": "address"
            },
            {
              "internalType": "uint256",
              "name": "executionFee",
              "type": "uint256"
            },
            {
              "internalType": "uint256",
              "name": "platformFee",
              "type": "uint256"
            },
            {
              "internalType": "uint256",
              "name": "offRampFee",
              "type": "uint256"
            },
            {
              "internalType": "bool",
              "name": "executorHasWallet",
              "type": "bool"
            },
            {
              "internalType": "uint256",
              "name": "settlementTime",
              "type": "uint256"
            },
            {
              "internalType": "bool",
              "name": "isDisputed",
              "type": "bool"
            },
            {
              "internalType": "bytes32",
              "name": "sessionId",
              "type": "bytes32"
            },
            {
              "internalType": "bytes32",
              "name": "proofHash",
              "type": "bytes32"
            },
            {
              "internalType": "address",
              "name": "auditor",
              "type": "address"
            },
            {
              "internalType": "bool",
              "name": "requiresProof",
              "type": "bool"
            },
            {
              "internalType": "bool",
              "name": "proofVerified",
              "type": "bool"
            }
          ],
          "internalType": "struct Commission.SplitConfig",
          "name": "config",
          "type": "tuple"
        }
      ],
      "name": "setSplitConfig",
      "outputs": [],
      "stateMutability": "nonpayable",
      "type": "function"
    },
    {
      "inputs": [
        {
          "internalType": "address",
          "name": "auditor",
          "type": "address"
        },
        {
          "internalType": "bool",
          "name": "trusted",
          "type": "bool"
        }
      ],
      "name": "setTrustedAuditor",
      "outputs": [],
      "stateMutability": "nonpayable",
      "type": "function"
    },
    {
      "inputs": [],
      "name": "settlementToken",
      "outputs": [
        {
          "internalType": "contract IERC20",
          "name": "",
          "type": "address"
        }
      ],
      "stateMutability": "view",
      "type": "function"
    },
    {
      "inputs": [
        {
          "internalType": "bytes32",
          "name": "",
          "type": "bytes32"
        }
      ],
      "name": "settlements",
      "outputs": [
        {
          "internalType": "bytes32",
          "name": "settlementId",
          "type": "bytes32"
        },
        {
          "internalType": "address",
          "name": "payee",
          "type": "address"
        },
        {
          "internalType": "enum Commission.PayeeType",
          "name": "payeeType",
          "type": "uint8"
        },
        {
          "internalType": "uint256",
          "name": "totalAmount",
          "type": "uint256"
        },
        {
          "internalType": "address",
          "name": "currency",
          "type": "address"
        },
        {
          "internalType": "uint256",
          "name": "settlementDate",
          "type": "uint256"
        },
        {
          "internalType": "bool",
          "name": "completed",
          "type": "bool"
        }
      ],
      "stateMutability": "view",
      "type": "function"
    },
    {
      "inputs": [
        {
          "internalType": "bytes32",
          "name": "orderId",
          "type": "bytes32"
        },
        {
          "internalType": "bytes32",
          "name": "resultHash",
          "type": "bytes32"
        }
      ],
      "name": "submitProof",
      "outputs": [],
      "stateMutability": "nonpayable",
      "type": "function"
    },
    {
      "inputs": [
        {
          "internalType": "bytes32",
          "name": "",
          "type": "bytes32"
        }
      ],
      "name": "submittedProofs",
      "outputs": [
        {
          "internalType": "bytes32",
          "name": "",
          "type": "bytes32"
        }
      ],
      "stateMutability": "view",
      "type": "function"
    },
    {
      "inputs": [
        {
          "internalType": "bytes32",
          "name": "orderId",
          "type": "bytes32"
        },
        {
          "internalType": "address",
          "name": "merchant",
          "type": "address"
        },
        {
          "internalType": "address",
          "name": "referrer",
          "type": "address"
        },
        {
          "internalType": "address",
          "name": "executor",
          "type": "address"
        },
        {
          "internalType": "uint256",
          "name": "merchantAmount",
          "type": "uint256"
        },
        {
          "internalType": "uint256",
          "name": "referralFee",
          "type": "uint256"
        },
        {
          "internalType": "uint256",
          "name": "executionFee",
          "type": "uint256"
        },
        {
          "internalType": "uint256",
          "name": "platformFee",
          "type": "uint256"
        },
        {
          "internalType": "uint256",
          "name": "settlementTime",
          "type": "uint256"
        },
        {
          "internalType": "bool",
          "name": "executorHasWallet",
          "type": "bool"
        },
        {
          "internalType": "bool",
          "name": "isDisputed",
          "type": "bool"
        },
        {
          "internalType": "enum Commission.Status",
          "name": "status",
          "type": "uint8"
        }
      ],
      "name": "syncOrder",
      "outputs": [],
      "stateMutability": "nonpayable",
      "type": "function"
    },
    {
      "inputs": [],
      "name": "systemRebatePool",
      "outputs": [
        {
          "internalType": "address",
          "name": "",
          "type": "address"
        }
      ],
      "stateMutability": "view",
      "type": "function"
    },
    {
      "inputs": [
        {
          "internalType": "address",
          "name": "newOwner",
          "type": "address"
        }
      ],
      "name": "transferOwnership",
      "outputs": [],
      "stateMutability": "nonpayable",
      "type": "function"
    },
    {
      "inputs": [
        {
          "internalType": "address",
          "name": "",
          "type": "address"
        }
      ],
      "name": "trustedAuditors",
      "outputs": [
        {
          "internalType": "bool",
          "name": "",
          "type": "bool"
        }
      ],
      "stateMutability": "view",
      "type": "function"
    },
    {
      "inputs": [],
      "name": "unpause",
      "outputs": [],
      "stateMutability": "nonpayable",
      "type": "function"
    },
    {
      "inputs": [
        {
          "internalType": "address",
          "name": "rebatePool",
          "type": "address"
        }
      ],
      "name": "updateSystemRebatePool",
      "outputs": [],
      "stateMutability": "nonpayable",
      "type": "function"
    },
    {
      "inputs": [
        {
          "internalType": "bytes32",
          "name": "orderId",
          "type": "bytes32"
        },
        {
          "internalType": "bool",
          "name": "approved",
          "type": "bool"
        },
        {
          "internalType": "uint256",
          "name": "quality",
          "type": "uint256"
        }
      ],
      "name": "verifyProof",
      "outputs": [],
      "stateMutability": "nonpayable",
      "type": "function"
    },
    {
      "inputs": [
        {
          "internalType": "bytes32",
          "name": "orderId",
          "type": "bytes32"
        },
        {
          "internalType": "uint256",
          "name": "amount",
          "type": "uint256"
        }
      ],
      "name": "walletSplit",
      "outputs": [],
      "stateMutability": "nonpayable",
      "type": "function"
    },
    {
      "stateMutability": "payable",
      "type": "receive"
    }
  ],
  "bytecode": "0x608080604052346100695760008054336001600160a01b0319821681178355916001600160a01b03909116907f8be0079c531659141344cd1fd0a4f28419497f9722a3daafe3b4186f6b6457e09080a36001805560ff196002541660025561371b908161006f8239f35b600080fdfe608080604052600436101561001d575b50361561001b57600080fd5b005b60003560e01c90816301bc95e214612622575080630431611a1461236857806305c4678e1461233c5780630bc963a6146122fd5780630bda191e146120c257806314e1327b1461205b578063175c2f5e14611ed75780631eb378f214611eb357806321be11a914611e8a578063277327a514611e3f57806327837eaf14611dc757806339caec3e14611d605780633cced74814611cf35780633f4ba83a14611c5f5780634a9d3e6a14611bb55780635300f84114611b7657806353303cff14611839578063559fb8771461175e5780635aca41f614610b965780635c975abb1461173b5780636429b9d61461167757806369dc3ae2146116385780636cfe6afe146114b05780636f9fb98a14611425578063715018a6146113cc5780637b9e618d1461139f5780638456cb59146113455780638bf6aa45146111445780638da5cb5b1461111b578063968e72bd14610fca5780639c3f1e9014610f035780639e92217214610df4578063a4c7118014610d22578063a609179414610caf578063aa074a4914610c6c578063b967024a14610c43578063cc30589d14610be7578063d3571a0214610b96578063d443895f146109a8578063d4f0ba1414610929578063d79e856714610892578063e0f6c03a1461068f578063ecd8dc3a1461063c578063f13177d5146102e25763f2fde38b14610219573861000f565b346102dd5760203660031901126102dd576102326126c6565b61023a6128b7565b6001600160a01b0390811690811561028957600054826001600160601b0360a01b821617600055167f8be0079c531659141344cd1fd0a4f28419497f9722a3daafe3b4186f6b6457e0600080a3005b60405162461bcd60e51b815260206004820152602660248201527f4f776e61626c653a206e6577206f776e657220697320746865207a65726f206160448201526564647265737360d01b6064820152608490fd5b600080fd5b346102dd57610100806003193601126102dd576102fd6126c6565b90600360243510156102dd57600360443510156102dd57608435916001600160a01b03831683036102dd576103306128b7565b6103446001600160a01b03821615156130c6565b610351606435151561310a565b6040519160208301916001600160601b0319808260601b1684526103766024356126a6565b60243560f81b603486015261038c6044356126a6565b60443560f81b603586015260643560368601528560601b16605685015260a435606a85015260c435608a85015260e43560aa8501524260ca85015260ca8452838281011067ffffffffffffffff8386011117610626576105948260086102407fe96fff900a6ff2a08049bfee9ccea320d64dbba6bcf81a91fc6c63360cc9f65b9660e09689016040528851902097610425848201612753565b8084018990526001600160a01b0386166101208201526104466024356126a6565b60243561014082015261045a6044356126a6565b6044356101608201526064356101808201526001600160a01b038a81166101a083015260a4356101c083015260c4356101e083015260e4356102008301524261022083015260008383018190528a81526005602052604090209482015185556101208201516001860180546001600160a01b0319908116929093169190911781556101408301516104f4906104ee816126a6565b82613156565b610160830151610503816126a6565b61050c816126a6565b815460ff60a81b191660a89190911b60ff60a81b1617905561018082015160028601556101a08201516003860180549092166001600160a01b03919091161790556101c081015160048501556101e081015160058501556102008101516006850155610220810151600785015501519101805491151560ff1660ff1992909216919091179055565b6001600160a01b03818116600090815260076020908152604080832093891683529290522080546105c8906064359061296e565b9055604051946105d96024356126a6565b60243586526105e96044356126a6565b604435602087015260643560408701526001600160a01b03908116606087015260a435608087015260c43560a087015260e43560c08701521693a3005b634e487b7160e01b600052604160045260246000fd5b346102dd5760403660031901126102dd5761001b6106586126c6565b610660612744565b906106696128b7565b60018060a01b0316600052600b60205260406000209060ff801983541691151516179055565b346102dd5760603660031901126102dd576106a86126c6565b60243560038110156102dd576106bc612708565b6106c46128b7565b60018060a01b03808416918260005260209460078652604060002091838116928360005287526040600020549182156108585760405190888201926001600160601b0319809260601b168452610719896126a6565b8860f81b603484015260601b1660358201524260498201526049815261073e816127a9565b519020946040519260e084019284841067ffffffffffffffff851117610626576108377fc30a1924924dab37b65ff08c18bf05c3fc23520c199b08658339543f4e28643b9560058a8c819a606099604052828552818501908d825260408601906107a78b6126a6565b8a82528b870189815261080760808901948c8652600660a08b019742895260c08c019960008b5260005252604060002099518a558360018b01915116946001600160601b0360a01b95868354161782555190610802826126a6565b613156565b516002880155600387019251169082541617905551600484015551151591019060ff801983541691151516179055565b60405192610844816126a6565b8352888301526040820152a3604051908152f35b60405162461bcd60e51b81526004810189905260126024820152714e6f2070656e64696e672062616c616e636560701b6044820152606490fd5b346102dd5760403660031901126102dd576108ab6126c6565b602435906108b76128b7565b6001600160a01b0316906108cc821515613605565b8047106108ed5760008080809361001b955af16108e7612fb2565b5061317a565b60405162461bcd60e51b8152602060048201526014602482015273496e73756666696369656e742062616c616e636560601b6044820152606490fd5b346102dd5760403660031901126102dd576109426126c6565b7f01b2e3b41e74046014de2cee0271cefdbd37a03ffa73d7f1641f2fa5fa8ecacc602061096d612744565b926109766128b7565b6001600160a01b03166000818152600c835260409020805460ff191660ff86151516179055925b6040519015158152a2005b346102dd576109b63661271e565b6109be612e17565b6109c6613545565b33600052602091600a835260ff6040600020541615610b59576002546040516370a0823160e01b8082523060048301529160081c6001600160a01b03908116908683602481855afa928315610b155787928791600095610b21575b5090610a309130903390613589565b60025460081c169260246040518095819382523060048301525afa8015610b15578492600091610ae0575b5090610a66916131bc565b10610a9b57610a9592826040519160028352820152816000805160206136c683398151915260403393a36131c9565b60018055005b60405162461bcd60e51b815260048101849052601860248201527f5472616e7366657220616d6f756e74206d69736d6174636800000000000000006044820152606490fd5b80929350868092503d8311610b0e575b610afa81836127c5565b810103126102dd5751839190610a66610a5b565b503d610af0565b6040513d6000823e3d90fd5b93849195508092503d8311610b52575b610b3b81836127c5565b810103126102dd57610a3086889351949091610a21565b503d610b31565b60405162461bcd60e51b81526004810184905260156024820152742ab730baba3437b934bd32b210383937bb34b232b960591b6044820152606490fd5b346102dd5760403660031901126102dd57610baf6126c6565b610bb76126f2565b9060018060a01b038091166000526007602052604060002091166000526020526020604060002054604051908152f35b346102dd5760403660031901126102dd5761001b610c03612744565b610c0b6128b7565b6004356000526009602052600a6040600020610c3160018060a01b038254161515612930565b019060ff801983541691151516179055565b346102dd5760003660031901126102dd576003546040516001600160a01b039091168152602090f35b346102dd5760203660031901126102dd57610c856126c6565b610c8d6128b7565b600480546001600160a01b0319166001600160a01b0392909216919091179055005b346102dd5760403660031901126102dd5761001b610ccb612744565b610cd36128b7565b600435600052600860205260096040600020610cf181541515612930565b01805461ff00191682151560081b61ff00161781559015610d145760059061290f565b60ff815460101c169061290f565b346102dd5760603660031901126102dd57610d3b612708565b33600052600b60205260ff604060002054168015610de0575b610d5d906135cb565b600435600090815260096020526040902080546001600160a01b03929190831615610da857602435600c820155600d0180546001600160b01b0319169190921617600160a01b179055005b60405162461bcd60e51b815260206004820152601060248201526f10dbdb999a59c81b9bdd08199bdd5b9960821b6044820152606490fd5b506000546001600160a01b03163314610d54565b346102dd5760203660031901126102dd5760043560005260096020526040600020600160a01b6001900381541690600181015490600160a01b600190036002820154166003820154600160a01b6001900360048401541660058401546006850154600786015490600887015460ff1692600988015494600a89015460ff1696600b8a015498600c8b01549a600d01549b604051809e81526020015260408d015260608c015260808b015260a08a015260c089015260e088015215156101008701526101208601521515610140850152610160840152610180830152600160a01b6001900381166101a08301528060a01c60ff1615156101c083015260a81c60ff1615156101e082015261020090f35b346102dd5760203660031901126102dd5760043560005260086020526101806040600020610fc881549160018060a01b039081600182015416918060028301541690600383015416600483015460058401549060068501549260078601549460096008880154970154976040519a8b5260208b015260408a01526060890152608088015260a087015260c086015260e085015261010084015260ff8116151561012084015260ff8160081c16151561014084015260ff61016084019160101c166128aa565bf35b346102dd5760403660031901126102dd57600435602435908060005260096020526040600020600d81019061101460ff835461100a828260a01c16613645565b60a81c1615613686565b6004810154336001600160a01b039182161490811561110e575b50156110d857600c9083600052600d60205284604060002055604051858152847ffc21f0a5b79e60806354685c8551409839f9fd3d44d61b6147dd3722b3fffbed60203393a3015480151590816110ce575b5061108757005b805460ff60a81b1916600160a81b179055604080519283526064602084015230927f9675c67edb39d5ae53cd37192a12d34a8b4341d9955d37e70e0968c6962c32a49190a3005b9050831484611080565b60405162461bcd60e51b815260206004820152600e60248201526d139bdd08185d5d1a1bdc9a5e995960921b6044820152606490fd5b905081541633148561102e565b346102dd5760003660031901126102dd576000546040516001600160a01b039091168152602090f35b346102dd5760603660031901126102dd57600435611160612744565b906044358160005260209260098452604060002033600052600c855260ff6040600020541690811561132e575b50801561131a575b156112dc578260005260098452600d604060002001908154906111bd60ff8360a01c16613645565b6111cd60ff8360a81c1615613686565b84600052600d8652604060002054156112a25780611297575b1561123b57600160a81b9060ff60a81b191617905581600052600d8352604060002054926040519384528301527f9675c67edb39d5ae53cd37192a12d34a8b4341d9955d37e70e0968c6962c32a460403393a3005b50505060405191808352808301527f5175616c69747920696e73756666696369656e74206f722072656a656374656460408301527f200baebc864ec206cc88e1b582cc4ea1491b5ebf371c65e35115d0b1ab4997ae60603393a3005b50603c8310156111e6565b60405162461bcd60e51b8152600481018790526012602482015271139bc81c1c9bdbd9881cdd589b5a5d1d195960721b6044820152606490fd5b60405162461bcd60e51b81526004810185905260166024820152752737ba1030baba3437b934bd32b21030bab234ba37b960511b6044820152606490fd5b506000546001600160a01b03163314611195565b600d01546001600160a01b0316331490508561118d565b346102dd5760003660031901126102dd5761135e6128b7565b611366613545565b600160ff1960025416176002557f62e78cea01bee320cd4e420270b5ea74000d11b0c9f74754ebdbfc544b05a2586020604051338152a1005b346102dd5760003660031901126102dd5760025460405160089190911c6001600160a01b03168152602090f35b346102dd5760003660031901126102dd576113e56128b7565b600080546001600160a01b0319811682556001600160a01b03167f8be0079c531659141344cd1fd0a4f28419497f9722a3daafe3b4186f6b6457e08280a3005b346102dd5760003660031901126102dd576002546040516370a0823160e01b8152306004820152906020908290602490829060081c6001600160a01b03165afa8015610b155760009061147e575b602090604051908152f35b506020813d82116114a8575b81611497602093836127c5565b810103126102dd5760209051611473565b3d915061148a565b346102dd5760203660031901126102dd576116346040516114d081612770565b6000815260006020820152600060408201526000606082015260006080820152600060a0820152600060c0820152600060e08201526101009060008282015260ff6101209260008484015261014060008185015261016090600082860152600d610180916000838801526101a0926000848901526101c0946000868a015260006101e0809a015260043560005260096020526040600020926040519a6115758c612770565b60018060a01b0398898654168d528c602060018801549101528c60408b6002890154169101528c606060038801549101528c60808b6004890154169101528c60a060058801549101528c60c060068801549101528c60e060078801549101528a6008870154161515908d01526009850154908c015288600a850154161515908b0152600b830154908a0152600c82015490890152015492831690860152828260a01c1615159085015260a81c16151590820152604051918291826127e7565b0390f35b346102dd5760203660031901126102dd576001600160a01b036116596126c6565b16600052600a602052602060ff604060002054166040519015158152f35b346102dd5760203660031901126102dd576004356000526005602052610160604060002080549060018101549060ff8260a01c1660ff8360a81c169060028301549160018060a01b0392836003860154169060048601549260058701549460068801549660ff600860078b01549a015416996040519b8c521660208b01526116fe816126a6565b60408a015261170c816126a6565b6060890152608088015260a087015260c086015260e08501526101008401526101208301521515610140820152f35b346102dd5760003660031901126102dd57602060ff600254166040519015158152f35b346102dd5760603660031901126102dd576117776126c6565b61177f6126f2565b90611788612708565b6117906128b7565b6001600160a01b039180831615158061182e575b156117f55760028054610100600160a81b03191660089290921b610100600160a81b0316919091179055600380546001600160a01b0319908116948416949094179055600480549093169116179055005b60405162461bcd60e51b8152602060048201526011602482015270496e76616c69642061646472657373657360781b6044820152606490fd5b5082841615156117a4565b346102dd576102203660031901126102dd576102003660231901126102dd5760405161186481612770565b61186c6126f2565b8152604435602082015261187e6126dc565b6040820152608435606082015260a4356001600160a01b03811681036102dd57608082015260c43560a082015260e43560c08201526101043560e08201526118c4612734565b610100820152610144356101208201526101643580151581036102dd57610140820152610184356101608201526101a4356101808201526101c4356001600160a01b03811681036102dd576101a08201526101e43515156101e435036102dd576101e4356101c082015261020435151561020435036102dd57610204356101e08201526000546001600160a01b031633148015611b5e575b15611b2a5780516001600160a01b031615611ae5576004356000526009602052600d604060002060018060a01b038351166001600160601b0360a01b9081835416178255602084015160018301556002820160018060a01b036040860151168282541617905560608401516003830155600482019060018060a01b036080860151169082541617905560a0830151600582015560c0830151600682015560e08301516007820155611a236101008401511515600883019060ff801983541691151516179055565b6101208301516009820155611a4e6101408401511515600a83019060ff801983541691151516179055565b610160830151600b820155610180830151600c8201550160018060a01b036101a08301511681549060ff60a01b6101c0850151151560a01b169060ff60a81b6101e0860151151560a81b169269ffffffffffffffffffff60b01b1617171790557fe045480a66de342c7072912d1bdc542ac70716ee7c1c277dd49e6768ccf44c6c60405180611ae060043594826127e7565b0390a2005b60405162461bcd60e51b815260206004820152601760248201527f496e76616c6964206d65726368616e742077616c6c65740000000000000000006044820152606490fd5b60405162461bcd60e51b815260206004820152600c60248201526b155b985d5d1a1bdc9a5e995960a21b6044820152606490fd5b5033600052600b60205260ff6040600020541661195c565b346102dd5760203660031901126102dd576001600160a01b03611b976126c6565b16600052600b602052602060ff604060002054166040519015158152f35b346102dd5760603660031901126102dd57610a95602435600435611bd7612708565b611bdf612e17565b33600052600b60205260ff604060002054168015611c4b575b611c01906135cb565b611c09613545565b816000805160206136c6833981519152604060018060a01b03611c36878260025460081c16873091613589565b815194600086528760208701521693a36131c9565b506000546001600160a01b03163314611bf8565b346102dd5760003660031901126102dd57611c786128b7565b60025460ff811615611cb75760ff19166002557f5db9ee0a495bf2e6ff9c91a7834c1ba4fdd244a5e8aa4e537bd38aeae4b073aa6020604051338152a1005b60405162461bcd60e51b815260206004820152601460248201527314185d5cd8589b194e881b9bdd081c185d5cd95960621b6044820152606490fd5b346102dd5760203660031901126102dd57600435600052600960205260a06040600020600c600d82015491015490600d6020526040600020546040519260ff83861c16151584526020840152604083015260ff8160a81c1615156060830152600180841b03166080820152f35b346102dd57610a95611d713661271e565b90611d7a612e17565b611d82613545565b600254611da09083903090339060081c6001600160a01b0316613589565b60405160018152826020820152816000805160206136c683398151915260403393a36131c9565b346102dd5760403660031901126102dd57611de06126c6565b7ffd79366b0051edb9404d647385b22aabe1614a4d2c90fe624ff85103e6ceec1b6020611e0b612744565b92611e146128b7565b6001600160a01b03166000818152600a835260409020805460ff191660ff861515161790559261099d565b346102dd5760603660031901126102dd5761001b611e5b6126c6565b611e636126f2565b611e6b6128b7565b6001600160a01b03611e808282161515613605565b6044359216612e6d565b346102dd5760003660031901126102dd576004546040516001600160a01b039091168152602090f35b346102dd5760203660031901126102dd57611ecc612e17565b610a956004356129d1565b346102dd576101803660031901126102dd57600435611ef46126f2565b611efc612708565b90611f056126dc565b61010435611f11612734565b91610144359384151585036102dd57610164359360078510156102dd57611f366128b7565b87156120265761200d604096611ff760098b612012978a977f60910029fe48a0a44b96bb99a56760a55d152696cb8c89400f54d805f0f43e439d8360005260086020528d600020938455600184019060018060a01b0391826001600160601b0360a01b941684825416179055816002860191168382541617905560038401921690825416179055608435600482015560a435600582015560c435600682015560e43560078201558860088201550193849060ff801983541691151516179055565b825461ff00191690151560081b61ff0016178255565b61290f565b61201e835180936128aa565b6020820152a2005b60405162461bcd60e51b815260206004820152600d60248201526c24b73b30b634b21037b93232b960991b6044820152606490fd5b346102dd57610a9561206c3661271e565b90612075612e17565b61207d613545565b60025461209b9083903090339060081c6001600160a01b0316613589565b60405160008152826020820152816000805160206136c683398151915260403393a36131c9565b346102dd576020806003193601126102dd576004356120df612e17565b806000526006825260406000208054156122c157600581019060ff82541661227c5760028101546003820154600190920180546001600160a01b03908116600090815260078852604080822095831680835295895281205591938361219a579181859361217d60008080807f3fb9f3db0b2a1ca46fae5e943a35100c1504b6487b7a27513ae2f2279fb038959b8860409c9a54165af16108e7612fb2565b600160ff198254161790555416958351928352820152a360018055005b6040516370a0823160e01b81523060048201528781602481885afa8015610b1557869160009161224b575b501061220657918185936122017f3fb9f3db0b2a1ca46fae5e943a35100c1504b6487b7a27513ae2f2279fb03895978460409896541686612e6d565b61217d565b60405162461bcd60e51b815260048101889052601a60248201527f496e73756666696369656e7420746f6b656e2062616c616e63650000000000006044820152606490fd5b809250898092503d8311612275575b61226481836127c5565b810103126102dd57859051896121c5565b503d61225a565b60405162461bcd60e51b815260048101859052601c60248201527f536574746c656d656e7420616c726561647920636f6d706c65746564000000006044820152606490fd5b60405162461bcd60e51b815260048101849052601460248201527314d95d1d1b195b595b9d081b9bdd08199bdd5b9960621b6044820152606490fd5b346102dd5760203660031901126102dd576001600160a01b0361231e6126c6565b16600052600c602052602060ff604060002054166040519015158152f35b346102dd5760203660031901126102dd57600435600052600d6020526020604060002054604051908152f35b346102dd5760803660031901126102dd576123816126c6565b600360243510156102dd576123946126dc565b9061239d6128b7565b6123b16001600160a01b03821615156130c6565b6123be604435151561310a565b7fe96fff900a6ff2a08049bfee9ccea320d64dbba6bcf81a91fc6c63360cc9f65b60e060405160208101906001600160601b03198560601b1682526124046024356126a6565b60243560f81b603482015260443560358201526001600160601b03198660601b1660558201524260698201526069815261243d8161278d565b5190209261259f60405161245081612753565b8581526001600160a01b038316602082015261246d6024356126a6565b602435604082015260006060820152604435608082015260018060a01b03871660a082015260443560c082015260008482015260006101008201524261012082015260006101408201528560005260056020526008610140604060002092805184556001840160018060a01b03602083015116906001600160601b0360a01b918282541617815561250560408401516104ee816126a6565b6060830151612513816126a6565b61251c816126a6565b815460ff60a81b191660a89190911b60ff60a81b161790556080820151600286015560a08201516003860180549092166001600160a01b039190911617905560c081015160048501558681015160058501556101008101516006850155610120810151600785015501519101805491151560ff1660ff1992909216919091179055565b6001600160a01b03818116600090815260076020908152604080832093891683529290522080546125d3906044359061296e565b9055604051946125e46024356126a6565b6024358652600060208701819052604435604088018190526001600160a01b039283166060890152608088015260a0870181905260c08701521693a3005b346102dd5760203660031901126102dd5760e09060043560005260066020526040600020805490600181015460ff8160a01c1660028301549060018060a01b03806003860154169360ff6005600488015497015416968852166020870152612689816126a6565b60408601526060850152608084015260a0830152151560c0820152f35b600311156126b057565b634e487b7160e01b600052602160045260246000fd5b600435906001600160a01b03821682036102dd57565b606435906001600160a01b03821682036102dd57565b602435906001600160a01b03821682036102dd57565b604435906001600160a01b03821682036102dd57565b60409060031901126102dd576004359060243590565b610124359081151582036102dd57565b6024359081151582036102dd57565b610160810190811067ffffffffffffffff82111761062657604052565b610200810190811067ffffffffffffffff82111761062657604052565b60a0810190811067ffffffffffffffff82111761062657604052565b6080810190811067ffffffffffffffff82111761062657604052565b90601f8019910116810190811067ffffffffffffffff82111761062657604052565b91909161020081019260018060a01b03808251168352602082015160208401528060408301511660408401526060820151606084015280608083015116608084015260a082015160a084015260c082015160c084015260e082015160e084015261010080830151151590840152610120808301519084015261014080830151151590840152610160808301519084015261018080830151908401526101a0908183015116908301526101c0808201511515908301526101e0809101511515910152565b9060078210156126b05752565b6000546001600160a01b031633036128cb57565b606460405162461bcd60e51b815260206004820152602060248201527f4f776e61626c653a2063616c6c6572206973206e6f7420746865206f776e65726044820152fd5b9060078110156126b05762ff000082549160101b169062ff00001916179055565b1561293757565b60405162461bcd60e51b815260206004820152600f60248201526e13dc99195c881b9bdd08199bdd5b99608a1b6044820152606490fd5b9190820180921161297b57565b634e487b7160e01b600052601160045260246000fd5b1561299857565b60405162461bcd60e51b815260206004820152601160248201527013dc99195c881a5cc8191a5cdc1d5d1959607a1b6044820152606490fd5b60008181526020906009825260409081812060018060a01b039081815416612ca65750848252600880855283832092612a0c84541515612930565b6009840192835460ff8160101c166007811015612c9257600303612c5c5760ff612a3991851c1615612991565b828501544210612c1857600291818354851c168015612bdd57826003541615612b99579160049593918795938260017f20ae1b8db4d925afaaf826cdcc84ac635f7e9d344a3a44014212f343a71c5ff19c9b9a0154169081151580612b8d575b612b78575b5050600586015480151580612b6a575b612b4e575b50600686015480612b08575b505060078501549182612aea575b505050506204000062ff00001982541617905501549051908152a2565b612aff93829154901c16906003541690612e6d565b38808080612acd565b8554612b33925060ff1615612b4557826003880154165b83811615612b3a575b838554871c16612e6d565b3880612abf565b508260035416612b28565b82885416612b1f565b612b6490838554871c1684868a01541690612e6d565b38612ab3565b508284880154161515612aae565b612b86918989015491612e6d565b3880612a9e565b50888801541515612a99565b875162461bcd60e51b8152600481018a9052601760248201527f5472656173757279206e6f7420636f6e666967757265640000000000000000006044820152606490fd5b875162461bcd60e51b8152600481018a90526014602482015273151bdad95b881b9bdd0818dbdb999a59dd5c995960621b6044820152606490fd5b855162461bcd60e51b815260048101889052601760248201527f5374696c6c20696e206c6f636b696e6720706572696f640000000000000000006044820152606490fd5b865162461bcd60e51b815260048101899052600f60248201526e4f72646572206e6f7420726561647960881b6044820152606490fd5b634e487b7160e01b84526021600452602484fd5b9594929084600d88969496015460ff8160a01c16612dca575b5060025483516370a0823160e01b8152306004820152928391602491839160081c165afa948515612dbf578095612d8a575b50508315612d47575050612d2f846006612d26612d1b6001612d3d9899015460038501549061296e565b60058401549061296e565b9101549061296e565b918215612d3f575b506131c9565b565b915038612d37565b60649250519062461bcd60e51b82526004820152601860248201527f4e6f2062616c616e636520746f206469737472696275746500000000000000006044820152fd5b909194508282813d8311612db8575b612da381836127c5565b81010312612db5575051923880612cf1565b80fd5b503d612d99565b8251903d90823e3d90fd5b60ff915060a81c1615612dde578238612cbf565b815162461bcd60e51b8152600481018490526012602482015271141c9bdbd9881b9bdd081d995c9a599a595960721b6044820152606490fd5b600260015414612e28576002600155565b60405162461bcd60e51b815260206004820152601f60248201527f5265656e7472616e637947756172643a207265656e7472616e742063616c6c006044820152606490fd5b60405163a9059cbb60e01b60208201526001600160a01b039092166024830152604480830193909352918152612d3d91612ea6826127a9565b60018060a01b031690604051604081019080821067ffffffffffffffff83111761062657612f18916040526020938482527f5361666545524332303a206c6f772d6c6576656c2063616c6c206661696c6564858301526000808587829751910182855af1612f12612fb2565b91612ff2565b805191821591848315612f8a575b505050905015612f335750565b6084906040519062461bcd60e51b82526004820152602a60248201527f5361666545524332303a204552433230206f7065726174696f6e20646964206e6044820152691bdd081cdd58d8d9595960b21b6064820152fd5b919381809450010312612fae57820151908115158203612db5575080388084612f26565b5080fd5b3d15612fed573d9067ffffffffffffffff82116106265760405191612fe1601f8201601f1916602001846127c5565b82523d6000602084013e565b606090565b919290156130545750815115613006575090565b3b1561300f5790565b60405162461bcd60e51b815260206004820152601d60248201527f416464726573733a2063616c6c20746f206e6f6e2d636f6e74726163740000006044820152606490fd5b8251909150156130675750805190602001fd5b6040519062461bcd60e51b82528160208060048301528251908160248401526000935b8285106130ad575050604492506000838284010152601f80199101168101030190fd5b848101820151868601604401529381019385935061308a565b156130cd57565b60405162461bcd60e51b8152602060048201526015602482015274496e76616c6964207061796565206164647265737360581b6044820152606490fd5b1561311157565b60405162461bcd60e51b815260206004820152601d60248201527f416d6f756e74206d7573742062652067726561746572207468616e20300000006044820152606490fd5b90613160816126a6565b815460ff60a01b191660a09190911b60ff60a01b16179055565b1561318157565b60405162461bcd60e51b8152602060048201526013602482015272115512081d1c985b9cd9995c8819985a5b1959606a1b6044820152606490fd5b9190820391821161297b57565b600090808252602092600984526040938484209460018060a01b0394858754169182158015906135085761320460ff600a8b01541615612991565b6009890154806134b8575b506002805483516370a0823160e01b815230600482015260089691871c8b16908881602481855afa9081156134ae57908a918891613479575b501061343557927fb47ba55cbb72a0e3b06f3cb944f334db1aa0a610ce470c96aeb042e458ead4c5989694928c92879560a09a989380613428575b61340b575b50508b60038401968754801515806133fd575b6133d3575b50600585019687549081613380575b50506006850194855480613355575b5060070180548061332b575b5050838a11613305575b505050506001600b8c01549a8c54169b015490549254935494825196875286015284015260608301526080820152a4565b613312613322948b6131bc565b9254901c168c6003541690612e6d565b38808b816132d4565b9061334661334d939692858754891c16866003541690612e6d565b549061296e565b9238806132ca565b6007919561337161337992868854871c16876003541690612e6d565b87549061296e565b94906132be565b8295916133719160ff6133b6958a01541690506000146133c957846004890154165b858116156133be575b858754891c16612e6d565b9238806132af565b5084600354166133ab565b84600454166133a2565b936133ee6133f69295848654881c1685878a01541690612e6d565b88549061296e565b92386132a0565b50828487015416151561329b565b61341f919293506001850192835491612e6d565b54903880613288565b5060018501541515613283565b845162461bcd60e51b815260048101899052601960248201527f496e73756666696369656e7420555344432062616c616e6365000000000000006044820152606490fd5b8092508a8092503d83116134a7575b61349281836127c5565b810103126134a35789905138613248565b8680fd5b503d613488565b86513d89823e3d90fd5b42106134c4573861320f565b815162461bcd60e51b815260048101869052601b60248201527f536574746c656d656e742074696d65206e6f74207265616368656400000000006044820152606490fd5b815162461bcd60e51b815260048101869052601660248201527513dc99195c8818dbdb999a59c81b9bdd08199bdd5b9960521b6044820152606490fd5b60ff6002541661355157565b60405162461bcd60e51b815260206004820152601060248201526f14185d5cd8589b194e881c185d5cd95960821b6044820152606490fd5b6040516323b872dd60e01b60208201526001600160a01b039283166024820152929091166044830152606480830193909352918152612d3d91612ea68261278d565b156135d257565b60405162461bcd60e51b815260206004820152600b60248201526a2737ba103932b630bcb2b960a91b6044820152606490fd5b1561360c57565b60405162461bcd60e51b8152602060048201526011602482015270125b9d985b1a59081c9958da5c1a595b9d607a1b6044820152606490fd5b1561364c57565b60405162461bcd60e51b8152602060048201526012602482015271141c9bdbd9881b9bdd081c995c5d5a5c995960721b6044820152606490fd5b1561368d57565b60405162461bcd60e51b815260206004820152601060248201526f105b1c9958591e481d995c9a599a595960821b6044820152606490fdfe92defc681899e982c1113166ca033c2e48195784a6b8074395d558c2a3cb6316a26469706673582212201840f5134692f40bc8a5dcf5f4d31f3e3eaef256ccf3596298c1706eb744311264736f6c63430008140033",
  "linkReferences": {},
  "deployedLinkReferences": {}
}