{
  "_format": "hh-sol-artifact-1",
  "contractName": "AttestationRegistry",
  "sourceName": "contracts/AttestationRegistry.sol",
  "abi": [
    {
      "inputs": [
        {
          "internalType": "address",
          "name": "_admin",
          "type": "address"
        },
        {
          "internalType": "address",
          "name": "_bondToken",
          "type": "address"
        },
        {
          "internalType": "uint256",
          "name": "_minBondAmount",
          "type": "uint256"
        },
        {
          "internalType": "uint256",
          "name": "_challengePeriod",
          "type": "uint256"
        },
        {
          "internalType": "uint256",
          "name": "_slashPercentage",
          "type": "uint256"
        }
      ],
      "stateMutability": "nonpayable",
      "type": "constructor"
    },
    {
      "inputs": [],
      "name": "AccessControlBadConfirmation",
      "type": "error"
    },
    {
      "inputs": [
        {
          "internalType": "address",
          "name": "account",
          "type": "address"
        },
        {
          "internalType": "bytes32",
          "name": "neededRole",
          "type": "bytes32"
        }
      ],
      "name": "AccessControlUnauthorizedAccount",
      "type": "error"
    },
    {
      "inputs": [
        {
          "internalType": "address",
          "name": "token",
          "type": "address"
        }
      ],
      "name": "SafeERC20FailedOperation",
      "type": "error"
    },
    {
      "anonymous": false,
      "inputs": [
        {
          "indexed": true,
          "internalType": "bytes32",
          "name": "attestationId",
          "type": "bytes32"
        },
        {
          "indexed": true,
          "internalType": "address",
          "name": "challenger",
          "type": "address"
        },
        {
          "indexed": false,
          "internalType": "bytes32",
          "name": "challengeReason",
          "type": "bytes32"
        }
      ],
      "name": "AttestationChallenged",
      "type": "event"
    },
    {
      "anonymous": false,
      "inputs": [
        {
          "indexed": true,
          "internalType": "bytes32",
          "name": "attestationId",
          "type": "bytes32"
        },
        {
          "indexed": true,
          "internalType": "address",
          "name": "challenger",
          "type": "address"
        },
        {
          "indexed": false,
          "internalType": "uint256",
          "name": "slashAmount",
          "type": "uint256"
        }
      ],
      "name": "AttestationSlashed",
      "type": "event"
    },
    {
      "anonymous": false,
      "inputs": [
        {
          "indexed": true,
          "internalType": "bytes32",
          "name": "attestationId",
          "type": "bytes32"
        },
        {
          "indexed": true,
          "internalType": "address",
          "name": "attester",
          "type": "address"
        },
        {
          "indexed": false,
          "internalType": "bytes32",
          "name": "contentHash",
          "type": "bytes32"
        },
        {
          "indexed": false,
          "internalType": "uint256",
          "name": "bondAmount",
          "type": "uint256"
        },
        {
          "indexed": false,
          "internalType": "uint256",
          "name": "challengeDeadline",
          "type": "uint256"
        }
      ],
      "name": "AttestationSubmitted",
      "type": "event"
    },
    {
      "anonymous": false,
      "inputs": [
        {
          "indexed": true,
          "internalType": "bytes32",
          "name": "attestationId",
          "type": "bytes32"
        }
      ],
      "name": "AttestationValidated",
      "type": "event"
    },
    {
      "anonymous": false,
      "inputs": [
        {
          "indexed": true,
          "internalType": "bytes32",
          "name": "attestationId",
          "type": "bytes32"
        },
        {
          "indexed": true,
          "internalType": "address",
          "name": "attester",
          "type": "address"
        },
        {
          "indexed": false,
          "internalType": "uint256",
          "name": "amount",
          "type": "uint256"
        }
      ],
      "name": "BondWithdrawn",
      "type": "event"
    },
    {
      "anonymous": false,
      "inputs": [
        {
          "indexed": true,
          "internalType": "bytes32",
          "name": "role",
          "type": "bytes32"
        },
        {
          "indexed": true,
          "internalType": "bytes32",
          "name": "previousAdminRole",
          "type": "bytes32"
        },
        {
          "indexed": true,
          "internalType": "bytes32",
          "name": "newAdminRole",
          "type": "bytes32"
        }
      ],
      "name": "RoleAdminChanged",
      "type": "event"
    },
    {
      "anonymous": false,
      "inputs": [
        {
          "indexed": true,
          "internalType": "bytes32",
          "name": "role",
          "type": "bytes32"
        },
        {
          "indexed": true,
          "internalType": "address",
          "name": "account",
          "type": "address"
        },
        {
          "indexed": true,
          "internalType": "address",
          "name": "sender",
          "type": "address"
        }
      ],
      "name": "RoleGranted",
      "type": "event"
    },
    {
      "anonymous": false,
      "inputs": [
        {
          "indexed": true,
          "internalType": "bytes32",
          "name": "role",
          "type": "bytes32"
        },
        {
          "indexed": true,
          "internalType": "address",
          "name": "account",
          "type": "address"
        },
        {
          "indexed": true,
          "internalType": "address",
          "name": "sender",
          "type": "address"
        }
      ],
      "name": "RoleRevoked",
      "type": "event"
    },
    {
      "inputs": [],
      "name": "ARBITER_ROLE",
      "outputs": [
        {
          "internalType": "bytes32",
          "name": "",
          "type": "bytes32"
        }
      ],
      "stateMutability": "view",
      "type": "function"
    },
    {
      "inputs": [],
      "name": "DEFAULT_ADMIN_ROLE",
      "outputs": [
        {
          "internalType": "bytes32",
          "name": "",
          "type": "bytes32"
        }
      ],
      "stateMutability": "view",
      "type": "function"
    },
    {
      "inputs": [
        {
          "internalType": "bytes32",
          "name": "attestationId",
          "type": "bytes32"
        },
        {
          "internalType": "bool",
          "name": "challengeSucceeded",
          "type": "bool"
        }
      ],
      "name": "arbitrate",
      "outputs": [],
      "stateMutability": "nonpayable",
      "type": "function"
    },
    {
      "inputs": [
        {
          "internalType": "uint256",
          "name": "",
          "type": "uint256"
        }
      ],
      "name": "attestationIds",
      "outputs": [
        {
          "internalType": "bytes32",
          "name": "",
          "type": "bytes32"
        }
      ],
      "stateMutability": "view",
      "type": "function"
    },
    {
      "inputs": [
        {
          "internalType": "bytes32",
          "name": "",
          "type": "bytes32"
        }
      ],
      "name": "attestations",
      "outputs": [
        {
          "internalType": "address",
          "name": "attester",
          "type": "address"
        },
        {
          "internalType": "bytes32",
          "name": "contentHash",
          "type": "bytes32"
        },
        {
          "internalType": "uint256",
          "name": "bondAmount",
          "type": "uint256"
        },
        {
          "internalType": "uint256",
          "name": "timestamp",
          "type": "uint256"
        },
        {
          "internalType": "uint256",
          "name": "challengeDeadline",
          "type": "uint256"
        },
        {
          "internalType": "enum AttestationRegistry.AttestationStatus",
          "name": "status",
          "type": "uint8"
        },
        {
          "internalType": "address",
          "name": "challenger",
          "type": "address"
        },
        {
          "internalType": "bytes32",
          "name": "challengeReason",
          "type": "bytes32"
        }
      ],
      "stateMutability": "view",
      "type": "function"
    },
    {
      "inputs": [
        {
          "internalType": "address",
          "name": "",
          "type": "address"
        }
      ],
      "name": "attesterSlashCount",
      "outputs": [
        {
          "internalType": "uint256",
          "name": "",
          "type": "uint256"
        }
      ],
      "stateMutability": "view",
      "type": "function"
    },
    {
      "inputs": [
        {
          "internalType": "address",
          "name": "",
          "type": "address"
        }
      ],
      "name": "attesterValidCount",
      "outputs": [
        {
          "internalType": "uint256",
          "name": "",
          "type": "uint256"
        }
      ],
      "stateMutability": "view",
      "type": "function"
    },
    {
      "inputs": [],
      "name": "bondToken",
      "outputs": [
        {
          "internalType": "address",
          "name": "",
          "type": "address"
        }
      ],
      "stateMutability": "view",
      "type": "function"
    },
    {
      "inputs": [
        {
          "internalType": "bytes32",
          "name": "attestationId",
          "type": "bytes32"
        },
        {
          "internalType": "bytes32",
          "name": "reason",
          "type": "bytes32"
        }
      ],
      "name": "challenge",
      "outputs": [],
      "stateMutability": "nonpayable",
      "type": "function"
    },
    {
      "inputs": [],
      "name": "challengePeriod",
      "outputs": [
        {
          "internalType": "uint256",
          "name": "",
          "type": "uint256"
        }
      ],
      "stateMutability": "view",
      "type": "function"
    },
    {
      "inputs": [
        {
          "internalType": "address",
          "name": "",
          "type": "address"
        }
      ],
      "name": "challengerWinCount",
      "outputs": [
        {
          "internalType": "uint256",
          "name": "",
          "type": "uint256"
        }
      ],
      "stateMutability": "view",
      "type": "function"
    },
    {
      "inputs": [
        {
          "internalType": "bytes32",
          "name": "attestationId",
          "type": "bytes32"
        }
      ],
      "name": "getAttestation",
      "outputs": [
        {
          "components": [
            {
              "internalType": "address",
              "name": "attester",
              "type": "address"
            },
            {
              "internalType": "bytes32",
              "name": "contentHash",
              "type": "bytes32"
            },
            {
              "internalType": "uint256",
              "name": "bondAmount",
              "type": "uint256"
            },
            {
              "internalType": "uint256",
              "name": "timestamp",
              "type": "uint256"
            },
            {
              "internalType": "uint256",
              "name": "challengeDeadline",
              "type": "uint256"
            },
            {
              "internalType": "enum AttestationRegistry.AttestationStatus",
              "name": "status",
              "type": "uint8"
            },
            {
              "internalType": "address",
              "name": "challenger",
              "type": "address"
            },
            {
              "internalType": "bytes32",
              "name": "challengeReason",
              "type": "bytes32"
            }
          ],
          "internalType": "struct AttestationRegistry.Attestation",
          "name": "",
          "type": "tuple"
        }
      ],
      "stateMutability": "view",
      "type": "function"
    },
    {
      "inputs": [
        {
          "internalType": "address",
          "name": "attester",
          "type": "address"
        }
      ],
      "name": "getAttesterStats",
      "outputs": [
        {
          "internalType": "uint256",
          "name": "validCount",
          "type": "uint256"
        },
        {
          "internalType": "uint256",
          "name": "slashCount",
          "type": "uint256"
        }
      ],
      "stateMutability": "view",
      "type": "function"
    },
    {
      "inputs": [
        {
          "internalType": "bytes32",
          "name": "role",
          "type": "bytes32"
        }
      ],
      "name": "getRoleAdmin",
      "outputs": [
        {
          "internalType": "bytes32",
          "name": "",
          "type": "bytes32"
        }
      ],
      "stateMutability": "view",
      "type": "function"
    },
    {
      "inputs": [],
      "name": "getTotalAttestations",
      "outputs": [
        {
          "internalType": "uint256",
          "name": "",
          "type": "uint256"
        }
      ],
      "stateMutability": "view",
      "type": "function"
    },
    {
      "inputs": [
        {
          "internalType": "bytes32",
          "name": "role",
          "type": "bytes32"
        },
        {
          "internalType": "address",
          "name": "account",
          "type": "address"
        }
      ],
      "name": "grantRole",
      "outputs": [],
      "stateMutability": "nonpayable",
      "type": "function"
    },
    {
      "inputs": [
        {
          "internalType": "bytes32",
          "name": "role",
          "type": "bytes32"
        },
        {
          "internalType": "address",
          "name": "account",
          "type": "address"
        }
      ],
      "name": "hasRole",
      "outputs": [
        {
          "internalType": "bool",
          "name": "",
          "type": "bool"
        }
      ],
      "stateMutability": "view",
      "type": "function"
    },
    {
      "inputs": [],
      "name": "minBondAmount",
      "outputs": [
        {
          "internalType": "uint256",
          "name": "",
          "type": "uint256"
        }
      ],
      "stateMutability": "view",
      "type": "function"
    },
    {
      "inputs": [
        {
          "internalType": "bytes32",
          "name": "role",
          "type": "bytes32"
        },
        {
          "internalType": "address",
          "name": "callerConfirmation",
          "type": "address"
        }
      ],
      "name": "renounceRole",
      "outputs": [],
      "stateMutability": "nonpayable",
      "type": "function"
    },
    {
      "inputs": [
        {
          "internalType": "bytes32",
          "name": "role",
          "type": "bytes32"
        },
        {
          "internalType": "address",
          "name": "account",
          "type": "address"
        }
      ],
      "name": "revokeRole",
      "outputs": [],
      "stateMutability": "nonpayable",
      "type": "function"
    },
    {
      "inputs": [
        {
          "internalType": "uint256",
          "name": "_period",
          "type": "uint256"
        }
      ],
      "name": "setChallengePeriod",
      "outputs": [],
      "stateMutability": "nonpayable",
      "type": "function"
    },
    {
      "inputs": [
        {
          "internalType": "uint256",
          "name": "_amount",
          "type": "uint256"
        }
      ],
      "name": "setMinBondAmount",
      "outputs": [],
      "stateMutability": "nonpayable",
      "type": "function"
    },
    {
      "inputs": [
        {
          "internalType": "uint256",
          "name": "_percentage",
          "type": "uint256"
        }
      ],
      "name": "setSlashPercentage",
      "outputs": [],
      "stateMutability": "nonpayable",
      "type": "function"
    },
    {
      "inputs": [],
      "name": "slashPercentage",
      "outputs": [
        {
          "internalType": "uint256",
          "name": "",
          "type": "uint256"
        }
      ],
      "stateMutability": "view",
      "type": "function"
    },
    {
      "inputs": [
        {
          "internalType": "bytes32",
          "name": "contentHash",
          "type": "bytes32"
        },
        {
          "internalType": "uint256",
          "name": "bondAmount",
          "type": "uint256"
        }
      ],
      "name": "submitAttestation",
      "outputs": [
        {
          "internalType": "bytes32",
          "name": "",
          "type": "bytes32"
        }
      ],
      "stateMutability": "nonpayable",
      "type": "function"
    },
    {
      "inputs": [
        {
          "internalType": "bytes4",
          "name": "interfaceId",
          "type": "bytes4"
        }
      ],
      "name": "supportsInterface",
      "outputs": [
        {
          "internalType": "bool",
          "name": "",
          "type": "bool"
        }
      ],
      "stateMutability": "view",
      "type": "function"
    },
    {
      "inputs": [
        {
          "internalType": "bytes32",
          "name": "attestationId",
          "type": "bytes32"
        }
      ],
      "name": "validate",
      "outputs": [],
      "stateMutability": "nonpayable",
      "type": "function"
    },
    {
      "inputs": [
        {
          "internalType": "bytes32",
          "name": "attestationId",
          "type": "bytes32"
        }
      ],
      "name": "withdrawBond",
      "outputs": [],
      "stateMutability": "nonpayable",
      "type": "function"
    }
  ],
  "bytecode": "0x60806040523480156200001157600080fd5b50604051620032fc380380620032fc8339818101604052810190620000379190620003b5565b600073ffffffffffffffffffffffffffffffffffffffff168473ffffffffffffffffffffffffffffffffffffffff1603620000a9576040517f08c379a0000000000000000000000000000000000000000000000000000000008152600401620000a0906200049e565b60405180910390fd5b612710811115620000f1576040517f08c379a0000000000000000000000000000000000000000000000000000000008152600401620000e89062000510565b60405180910390fd5b620001066000801b866200019b60201b60201c565b50620001397fbb08418a67729a078f87bbc8d02a770929bb68f5bfdf134ae2ead6ed38e2f4ae866200019b60201b60201c565b5083600160006101000a81548173ffffffffffffffffffffffffffffffffffffffff021916908373ffffffffffffffffffffffffffffffffffffffff160217905550826002819055508160038190555080600481905550505050505062000532565b6000620001af83836200029e60201b60201c565b6200029357600160008085815260200190815260200160002060000160008473ffffffffffffffffffffffffffffffffffffffff1673ffffffffffffffffffffffffffffffffffffffff16815260200190815260200160002060006101000a81548160ff0219169083151502179055506200022f6200030860201b60201c565b73ffffffffffffffffffffffffffffffffffffffff168273ffffffffffffffffffffffffffffffffffffffff16847f2f8788117e7eff1d82e926ec794901d17c78024a50270940304540a733656f0d60405160405180910390a46001905062000298565b600090505b92915050565b600080600084815260200190815260200160002060000160008373ffffffffffffffffffffffffffffffffffffffff1673ffffffffffffffffffffffffffffffffffffffff16815260200190815260200160002060009054906101000a900460ff16905092915050565b600033905090565b600080fd5b600073ffffffffffffffffffffffffffffffffffffffff82169050919050565b6000620003428262000315565b9050919050565b620003548162000335565b81146200036057600080fd5b50565b600081519050620003748162000349565b92915050565b6000819050919050565b6200038f816200037a565b81146200039b57600080fd5b50565b600081519050620003af8162000384565b92915050565b600080600080600060a08688031215620003d457620003d362000310565b5b6000620003e48882890162000363565b9550506020620003f78882890162000363565b94505060406200040a888289016200039e565b93505060606200041d888289016200039e565b925050608062000430888289016200039e565b9150509295509295909350565b600082825260208201905092915050565b7f496e76616c696420626f6e6420746f6b656e0000000000000000000000000000600082015250565b6000620004866012836200043d565b915062000493826200044e565b602082019050919050565b60006020820190508181036000830152620004b98162000477565b9050919050565b7f496e76616c696420736c6173682070657263656e746167650000000000000000600082015250565b6000620004f86018836200043d565b91506200050582620004c0565b602082019050919050565b600060208201905081810360008301526200052b81620004e9565b9050919050565b612dba80620005426000396000f3fe608060405234801561001057600080fd5b50600436106101c45760003560e01c806391d14854116100f9578063c28f439211610097578063d547741f11610071578063d547741f14610542578063d8af27651461055e578063e9342f271461058f578063f3f480d9146105ad576101c4565b8063c28f4392146104c4578063c8542187146104e2578063cdc0256b14610512576101c4565b8063a3112a64116100d3578063a3112a641461042a578063ada3a7641461045a578063b0aaf03f14610476578063bd58199a146104a6576101c4565b806391d14854146103a5578063940992a3146103d5578063a217fddf1461040c576101c4565b8063393ebbf8116101665780635d475fdd116101405780635d475fdd14610335578063696d987c146103515780637285e1ac1461036d5780638c08667e14610389576101c4565b8063393ebbf8146102cb5780633a65d1a0146102e75780634d104adf14610317576101c4565b80632f2ff15d116101a25780632f2ff15d1461024557806333fdcacf1461026157806336568abe146102915780633912f71f146102ad576101c4565b806301ffc9a7146101c9578063248a9ca3146101f95780632e01269814610229575b600080fd5b6101e360048036038101906101de9190611efc565b6105cb565b6040516101f09190611f44565b60405180910390f35b610213600480360381019061020e9190611f95565b610645565b6040516102209190611fd1565b60405180910390f35b610243600480360381019061023e9190611f95565b610664565b005b61025f600480360381019061025a919061204a565b610810565b005b61027b6004803603810190610276919061208a565b610832565b60405161028891906120d0565b60405180910390f35b6102ab60048036038101906102a6919061204a565b61084a565b005b6102b56108c5565b6040516102c291906120d0565b60405180910390f35b6102e560048036038101906102e09190612117565b6108cb565b005b61030160048036038101906102fc9190612144565b610928565b60405161030e9190611fd1565b60405180910390f35b61031f610cb3565b60405161032c9190611fd1565b60405180910390f35b61034f600480360381019061034a9190612117565b610cd7565b005b61036b60048036038101906103669190612117565b610cef565b005b61038760048036038101906103829190611f95565b610d07565b005b6103a3600480360381019061039e91906121b0565b610f50565b005b6103bf60048036038101906103ba919061204a565b6113af565b6040516103cc9190611f44565b60405180910390f35b6103ef60048036038101906103ea9190611f95565b611419565b604051610403989796959493929190612276565b60405180910390f35b6104146114ae565b6040516104219190611fd1565b60405180910390f35b610444600480360381019061043f9190611f95565b6114b5565b60405161045191906123d2565b60405180910390f35b610474600480360381019061046f91906123ee565b6115fc565b005b610490600480360381019061048b9190612117565b611878565b60405161049d9190611fd1565b60405180910390f35b6104ae61189c565b6040516104bb91906120d0565b60405180910390f35b6104cc6118a2565b6040516104d9919061242e565b60405180910390f35b6104fc60048036038101906104f7919061208a565b6118c8565b60405161050991906120d0565b60405180910390f35b61052c6004803603810190610527919061208a565b6118e0565b60405161053991906120d0565b60405180910390f35b61055c6004803603810190610557919061204a565b6118f8565b005b6105786004803603810190610573919061208a565b61191a565b604051610586929190612449565b60405180910390f35b6105976119a6565b6040516105a491906120d0565b60405180910390f35b6105b56119b3565b6040516105c291906120d0565b60405180910390f35b60007f7965db0b000000000000000000000000000000000000000000000000000000007bffffffffffffffffffffffffffffffffffffffffffffffffffffffff1916827bffffffffffffffffffffffffffffffffffffffffffffffffffffffff1916148061063e575061063d826119b9565b5b9050919050565b6000806000838152602001908152602001600020600101549050919050565b60006005600083815260200190815260200160002090506000600481111561068f5761068e6121ff565b5b8160050160009054906101000a900460ff1660048111156106b3576106b26121ff565b5b146106f3576040517f08c379a00000000000000000000000000000000000000000000000000000000081526004016106ea906124cf565b60405180910390fd5b80600401544211610739576040517f08c379a00000000000000000000000000000000000000000000000000000000081526004016107309061253b565b60405180910390fd5b60018160050160006101000a81548160ff02191690836004811115610761576107606121ff565b5b0217905550600760008260000160009054906101000a900473ffffffffffffffffffffffffffffffffffffffff1673ffffffffffffffffffffffffffffffffffffffff1673ffffffffffffffffffffffffffffffffffffffff16815260200190815260200160002060008154809291906107da9061258a565b9190505550817fc0fb06e314a6f4b7cccecc91fdfb48bf5cb8a18e682cabf75a6fb9c2a4e96ef560405160405180910390a25050565b61081982610645565b61082281611a23565b61082c8383611a37565b50505050565b60076020528060005260406000206000915090505481565b610852611b28565b73ffffffffffffffffffffffffffffffffffffffff168173ffffffffffffffffffffffffffffffffffffffff16146108b6576040517f6697b23200000000000000000000000000000000000000000000000000000000815260040160405180910390fd5b6108c08282611b30565b505050565b60025481565b6000801b6108d881611a23565b61271082111561091d576040517f08c379a00000000000000000000000000000000000000000000000000000000081526004016109149061261e565b60405180910390fd5b816004819055505050565b60008060001b830361096f576040517f08c379a00000000000000000000000000000000000000000000000000000000081526004016109669061268a565b60405180910390fd5b6000338442436040516020016109889493929190612734565b60405160208183030381529060405280519060200120905060006005600083815260200190815260200160002060030154146109f9576040517f08c379a00000000000000000000000000000000000000000000000000000000081526004016109f0906127ce565b60405180910390fd5b6000831115610a9757600254831015610a47576040517f08c379a0000000000000000000000000000000000000000000000000000000008152600401610a3e9061283a565b60405180910390fd5b610a96333085600160009054906101000a900473ffffffffffffffffffffffffffffffffffffffff1673ffffffffffffffffffffffffffffffffffffffff16611c22909392919063ffffffff16565b5b600060035442610aa7919061285a565b90506040518061010001604052803373ffffffffffffffffffffffffffffffffffffffff16815260200186815260200185815260200142815260200182815260200160006004811115610afd57610afc6121ff565b5b8152602001600073ffffffffffffffffffffffffffffffffffffffff1681526020016000801b8152506005600084815260200190815260200160002060008201518160000160006101000a81548173ffffffffffffffffffffffffffffffffffffffff021916908373ffffffffffffffffffffffffffffffffffffffff1602179055506020820151816001015560408201518160020155606082015181600301556080820151816004015560a08201518160050160006101000a81548160ff02191690836004811115610bd357610bd26121ff565b5b021790555060c08201518160050160016101000a81548173ffffffffffffffffffffffffffffffffffffffff021916908373ffffffffffffffffffffffffffffffffffffffff16021790555060e0820151816006015590505060068290806001815401808255809150506001900390600052602060002001600090919091909150553373ffffffffffffffffffffffffffffffffffffffff16827f1f1562158663bd8a8095880002a8cf8453144f61b480ac40796f7999c540b4ef878785604051610ca09392919061288e565b60405180910390a3819250505092915050565b7fbb08418a67729a078f87bbc8d02a770929bb68f5bfdf134ae2ead6ed38e2f4ae81565b6000801b610ce481611a23565b816003819055505050565b6000801b610cfc81611a23565b816002819055505050565b60006005600083815260200190815260200160002090508060000160009054906101000a900473ffffffffffffffffffffffffffffffffffffffff1673ffffffffffffffffffffffffffffffffffffffff163373ffffffffffffffffffffffffffffffffffffffff1614610db0576040517f08c379a0000000000000000000000000000000000000000000000000000000008152600401610da790612911565b60405180910390fd5b60016004811115610dc457610dc36121ff565b5b8160050160009054906101000a900460ff166004811115610de857610de76121ff565b5b14610e28576040517f08c379a0000000000000000000000000000000000000000000000000000000008152600401610e1f9061297d565b60405180910390fd5b6000816002015411610e6f576040517f08c379a0000000000000000000000000000000000000000000000000000000008152600401610e66906129e9565b60405180910390fd5b6000816002015490506000826002018190555060048260050160006101000a81548160ff02191690836004811115610eaa57610ea96121ff565b5b0217905550610efc3382600160009054906101000a900473ffffffffffffffffffffffffffffffffffffffff1673ffffffffffffffffffffffffffffffffffffffff16611ca49092919063ffffffff16565b3373ffffffffffffffffffffffffffffffffffffffff16837f25ea4793db0032b8cdaaca90cfb1a94c62132a3aa5194c98958659c26fe2672e83604051610f4391906120d0565b60405180910390a3505050565b7fbb08418a67729a078f87bbc8d02a770929bb68f5bfdf134ae2ead6ed38e2f4ae610f7a81611a23565b600060056000858152602001908152602001600020905060026004811115610fa557610fa46121ff565b5b8160050160009054906101000a900460ff166004811115610fc957610fc86121ff565b5b14611009576040517f08c379a000000000000000000000000000000000000000000000000000000000815260040161100090612a55565b60405180910390fd5b82156112d55760038160050160006101000a81548160ff02191690836004811115611037576110366121ff565b5b0217905550600860008260000160009054906101000a900473ffffffffffffffffffffffffffffffffffffffff1673ffffffffffffffffffffffffffffffffffffffff1673ffffffffffffffffffffffffffffffffffffffff16815260200190815260200160002060008154809291906110b09061258a565b9190505550600960008260050160019054906101000a900473ffffffffffffffffffffffffffffffffffffffff1673ffffffffffffffffffffffffffffffffffffffff1673ffffffffffffffffffffffffffffffffffffffff16815260200190815260200160002060008154809291906111299061258a565b9190505550600061271060045483600201546111459190612a75565b61114f9190612ae6565b905060008183600201546111639190612b17565b905060008211156111e0576111df8360050160019054906101000a900473ffffffffffffffffffffffffffffffffffffffff1683600160009054906101000a900473ffffffffffffffffffffffffffffffffffffffff1673ffffffffffffffffffffffffffffffffffffffff16611ca49092919063ffffffff16565b5b600081111561125b5761125a8360000160009054906101000a900473ffffffffffffffffffffffffffffffffffffffff1682600160009054906101000a900473ffffffffffffffffffffffffffffffffffffffff1673ffffffffffffffffffffffffffffffffffffffff16611ca49092919063ffffffff16565b5b8260050160019054906101000a900473ffffffffffffffffffffffffffffffffffffffff1673ffffffffffffffffffffffffffffffffffffffff16867f9004e6e0bfc2e5e29114a244a503160812cdfd789ece47ee1025c69f24d867be846040516112c691906120d0565b60405180910390a350506113a9565b60018160050160006101000a81548160ff021916908360048111156112fd576112fc6121ff565b5b0217905550600760008260000160009054906101000a900473ffffffffffffffffffffffffffffffffffffffff1673ffffffffffffffffffffffffffffffffffffffff1673ffffffffffffffffffffffffffffffffffffffff16815260200190815260200160002060008154809291906113769061258a565b9190505550837fc0fb06e314a6f4b7cccecc91fdfb48bf5cb8a18e682cabf75a6fb9c2a4e96ef560405160405180910390a25b50505050565b600080600084815260200190815260200160002060000160008373ffffffffffffffffffffffffffffffffffffffff1673ffffffffffffffffffffffffffffffffffffffff16815260200190815260200160002060009054906101000a900460ff16905092915050565b60056020528060005260406000206000915090508060000160009054906101000a900473ffffffffffffffffffffffffffffffffffffffff16908060010154908060020154908060030154908060040154908060050160009054906101000a900460ff16908060050160019054906101000a900473ffffffffffffffffffffffffffffffffffffffff16908060060154905088565b6000801b81565b6114bd611e16565b60056000838152602001908152602001600020604051806101000160405290816000820160009054906101000a900473ffffffffffffffffffffffffffffffffffffffff1673ffffffffffffffffffffffffffffffffffffffff1673ffffffffffffffffffffffffffffffffffffffff168152602001600182015481526020016002820154815260200160038201548152602001600482015481526020016005820160009054906101000a900460ff16600481111561157f5761157e6121ff565b5b6004811115611591576115906121ff565b5b81526020016005820160019054906101000a900473ffffffffffffffffffffffffffffffffffffffff1673ffffffffffffffffffffffffffffffffffffffff1673ffffffffffffffffffffffffffffffffffffffff1681526020016006820154815250509050919050565b6000600560008481526020019081526020016000209050600081600301540361165a576040517f08c379a000000000000000000000000000000000000000000000000000000000815260040161165190612b97565b60405180910390fd5b6000600481111561166e5761166d6121ff565b5b8160050160009054906101000a900460ff166004811115611692576116916121ff565b5b146116d2576040517f08c379a00000000000000000000000000000000000000000000000000000000081526004016116c990612c03565b60405180910390fd5b8060040154421115611719576040517f08c379a000000000000000000000000000000000000000000000000000000000815260040161171090612c6f565b60405180910390fd5b8060000160009054906101000a900473ffffffffffffffffffffffffffffffffffffffff1673ffffffffffffffffffffffffffffffffffffffff163373ffffffffffffffffffffffffffffffffffffffff16036117ab576040517f08c379a00000000000000000000000000000000000000000000000000000000081526004016117a290612cdb565b60405180910390fd5b60028160050160006101000a81548160ff021916908360048111156117d3576117d26121ff565b5b0217905550338160050160016101000a81548173ffffffffffffffffffffffffffffffffffffffff021916908373ffffffffffffffffffffffffffffffffffffffff1602179055508181600601819055503373ffffffffffffffffffffffffffffffffffffffff16837fefcd430426aa22569311f65fe413a98aed63bc92403642cff73cf0b72b49705a8460405161186b9190611fd1565b60405180910390a3505050565b6006818154811061188857600080fd5b906000526020600020016000915090505481565b60045481565b600160009054906101000a900473ffffffffffffffffffffffffffffffffffffffff1681565b60086020528060005260406000206000915090505481565b60096020528060005260406000206000915090505481565b61190182610645565b61190a81611a23565b6119148383611b30565b50505050565b600080600760008473ffffffffffffffffffffffffffffffffffffffff1673ffffffffffffffffffffffffffffffffffffffff16815260200190815260200160002054600860008573ffffffffffffffffffffffffffffffffffffffff1673ffffffffffffffffffffffffffffffffffffffff1681526020019081526020016000205491509150915091565b6000600680549050905090565b60035481565b60007f01ffc9a7000000000000000000000000000000000000000000000000000000007bffffffffffffffffffffffffffffffffffffffffffffffffffffffff1916827bffffffffffffffffffffffffffffffffffffffffffffffffffffffff1916149050919050565b611a3481611a2f611b28565b611d23565b50565b6000611a4383836113af565b611b1d57600160008085815260200190815260200160002060000160008473ffffffffffffffffffffffffffffffffffffffff1673ffffffffffffffffffffffffffffffffffffffff16815260200190815260200160002060006101000a81548160ff021916908315150217905550611aba611b28565b73ffffffffffffffffffffffffffffffffffffffff168273ffffffffffffffffffffffffffffffffffffffff16847f2f8788117e7eff1d82e926ec794901d17c78024a50270940304540a733656f0d60405160405180910390a460019050611b22565b600090505b92915050565b600033905090565b6000611b3c83836113af565b15611c1757600080600085815260200190815260200160002060000160008473ffffffffffffffffffffffffffffffffffffffff1673ffffffffffffffffffffffffffffffffffffffff16815260200190815260200160002060006101000a81548160ff021916908315150217905550611bb4611b28565b73ffffffffffffffffffffffffffffffffffffffff168273ffffffffffffffffffffffffffffffffffffffff16847ff6391f5c32d9c69d2a47ea670b442974b53935d1edc7fd64eb21e047a839171b60405160405180910390a460019050611c1c565b600090505b92915050565b611c9e848573ffffffffffffffffffffffffffffffffffffffff166323b872dd868686604051602401611c5793929190612cfb565b604051602081830303815290604052915060e01b6020820180517bffffffffffffffffffffffffffffffffffffffffffffffffffffffff8381831617835250505050611d74565b50505050565b611d1e838473ffffffffffffffffffffffffffffffffffffffff1663a9059cbb8585604051602401611cd7929190612d32565b604051602081830303815290604052915060e01b6020820180517bffffffffffffffffffffffffffffffffffffffffffffffffffffffff8381831617835250505050611d74565b505050565b611d2d82826113af565b611d705780826040517fe2517d3f000000000000000000000000000000000000000000000000000000008152600401611d67929190612d5b565b60405180910390fd5b5050565b600080602060008451602086016000885af180611d97576040513d6000823e3d81fd5b3d925060005191505060008214611db2576001811415611dce565b60008473ffffffffffffffffffffffffffffffffffffffff163b145b15611e1057836040517f5274afe7000000000000000000000000000000000000000000000000000000008152600401611e07919061242e565b60405180910390fd5b50505050565b604051806101000160405280600073ffffffffffffffffffffffffffffffffffffffff1681526020016000801916815260200160008152602001600081526020016000815260200160006004811115611e7257611e716121ff565b5b8152602001600073ffffffffffffffffffffffffffffffffffffffff168152602001600080191681525090565b600080fd5b60007fffffffff0000000000000000000000000000000000000000000000000000000082169050919050565b611ed981611ea4565b8114611ee457600080fd5b50565b600081359050611ef681611ed0565b92915050565b600060208284031215611f1257611f11611e9f565b5b6000611f2084828501611ee7565b91505092915050565b60008115159050919050565b611f3e81611f29565b82525050565b6000602082019050611f596000830184611f35565b92915050565b6000819050919050565b611f7281611f5f565b8114611f7d57600080fd5b50565b600081359050611f8f81611f69565b92915050565b600060208284031215611fab57611faa611e9f565b5b6000611fb984828501611f80565b91505092915050565b611fcb81611f5f565b82525050565b6000602082019050611fe66000830184611fc2565b92915050565b600073ffffffffffffffffffffffffffffffffffffffff82169050919050565b600061201782611fec565b9050919050565b6120278161200c565b811461203257600080fd5b50565b6000813590506120448161201e565b92915050565b6000806040838503121561206157612060611e9f565b5b600061206f85828601611f80565b925050602061208085828601612035565b9150509250929050565b6000602082840312156120a05761209f611e9f565b5b60006120ae84828501612035565b91505092915050565b6000819050919050565b6120ca816120b7565b82525050565b60006020820190506120e560008301846120c1565b92915050565b6120f4816120b7565b81146120ff57600080fd5b50565b600081359050612111816120eb565b92915050565b60006020828403121561212d5761212c611e9f565b5b600061213b84828501612102565b91505092915050565b6000806040838503121561215b5761215a611e9f565b5b600061216985828601611f80565b925050602061217a85828601612102565b9150509250929050565b61218d81611f29565b811461219857600080fd5b50565b6000813590506121aa81612184565b92915050565b600080604083850312156121c7576121c6611e9f565b5b60006121d585828601611f80565b92505060206121e68582860161219b565b9150509250929050565b6121f98161200c565b82525050565b7f4e487b7100000000000000000000000000000000000000000000000000000000600052602160045260246000fd5b6005811061223f5761223e6121ff565b5b50565b60008190506122508261222e565b919050565b600061226082612242565b9050919050565b61227081612255565b82525050565b60006101008201905061228c600083018b6121f0565b612299602083018a611fc2565b6122a660408301896120c1565b6122b360608301886120c1565b6122c060808301876120c1565b6122cd60a0830186612267565b6122da60c08301856121f0565b6122e760e0830184611fc2565b9998505050505050505050565b6122fd8161200c565b82525050565b61230c81611f5f565b82525050565b61231b816120b7565b82525050565b61232a81612255565b82525050565b6101008201600082015161234760008501826122f4565b50602082015161235a6020850182612303565b50604082015161236d6040850182612312565b5060608201516123806060850182612312565b5060808201516123936080850182612312565b5060a08201516123a660a0850182612321565b5060c08201516123b960c08501826122f4565b5060e08201516123cc60e0850182612303565b50505050565b6000610100820190506123e86000830184612330565b92915050565b6000806040838503121561240557612404611e9f565b5b600061241385828601611f80565b925050602061242485828601611f80565b9150509250929050565b600060208201905061244360008301846121f0565b92915050565b600060408201905061245e60008301856120c1565b61246b60208301846120c1565b9392505050565b600082825260208201905092915050565b7f4e6f742070656e64696e67000000000000000000000000000000000000000000600082015250565b60006124b9600b83612472565b91506124c482612483565b602082019050919050565b600060208201905081810360008301526124e8816124ac565b9050919050565b7f4368616c6c656e676520706572696f64206e6f7420656e646564000000000000600082015250565b6000612525601a83612472565b9150612530826124ef565b602082019050919050565b6000602082019050818103600083015261255481612518565b9050919050565b7f4e487b7100000000000000000000000000000000000000000000000000000000600052601160045260246000fd5b6000612595826120b7565b91507fffffffffffffffffffffffffffffffffffffffffffffffffffffffffffffffff82036125c7576125c661255b565b5b600182019050919050565b7f496e76616c69642070657263656e746167650000000000000000000000000000600082015250565b6000612608601283612472565b9150612613826125d2565b602082019050919050565b60006020820190508181036000830152612637816125fb565b9050919050565b7f496e76616c696420636f6e74656e742068617368000000000000000000000000600082015250565b6000612674601483612472565b915061267f8261263e565b602082019050919050565b600060208201905081810360008301526126a381612667565b9050919050565b60008160601b9050919050565b60006126c2826126aa565b9050919050565b60006126d4826126b7565b9050919050565b6126ec6126e78261200c565b6126c9565b82525050565b6000819050919050565b61270d61270882611f5f565b6126f2565b82525050565b6000819050919050565b61272e612729826120b7565b612713565b82525050565b600061274082876126db565b60148201915061275082866126fc565b602082019150612760828561271d565b602082019150612770828461271d565b60208201915081905095945050505050565b7f4174746573746174696f6e206578697374730000000000000000000000000000600082015250565b60006127b8601283612472565b91506127c382612782565b602082019050919050565b600060208201905081810360008301526127e7816127ab565b9050919050565b7f426f6e6420746f6f206c6f770000000000000000000000000000000000000000600082015250565b6000612824600c83612472565b915061282f826127ee565b602082019050919050565b6000602082019050818103600083015261285381612817565b9050919050565b6000612865826120b7565b9150612870836120b7565b92508282019050808211156128885761288761255b565b5b92915050565b60006060820190506128a36000830186611fc2565b6128b060208301856120c1565b6128bd60408301846120c1565b949350505050565b7f4e6f742061747465737465720000000000000000000000000000000000000000600082015250565b60006128fb600c83612472565b9150612906826128c5565b602082019050919050565b6000602082019050818103600083015261292a816128ee565b9050919050565b7f4e6f742076616c69646174656400000000000000000000000000000000000000600082015250565b6000612967600d83612472565b915061297282612931565b602082019050919050565b600060208201905081810360008301526129968161295a565b9050919050565b7f4e6f20626f6e6400000000000000000000000000000000000000000000000000600082015250565b60006129d3600783612472565b91506129de8261299d565b602082019050919050565b60006020820190508181036000830152612a02816129c6565b9050919050565b7f4e6f7420696e206368616c6c656e676500000000000000000000000000000000600082015250565b6000612a3f601083612472565b9150612a4a82612a09565b602082019050919050565b60006020820190508181036000830152612a6e81612a32565b9050919050565b6000612a80826120b7565b9150612a8b836120b7565b9250828202612a99816120b7565b91508282048414831517612ab057612aaf61255b565b5b5092915050565b7f4e487b7100000000000000000000000000000000000000000000000000000000600052601260045260246000fd5b6000612af1826120b7565b9150612afc836120b7565b925082612b0c57612b0b612ab7565b5b828204905092915050565b6000612b22826120b7565b9150612b2d836120b7565b9250828203905081811115612b4557612b4461255b565b5b92915050565b7f4174746573746174696f6e206e6f7420666f756e640000000000000000000000600082015250565b6000612b81601583612472565b9150612b8c82612b4b565b602082019050919050565b60006020820190508181036000830152612bb081612b74565b9050919050565b7f4e6f74206368616c6c656e676561626c65000000000000000000000000000000600082015250565b6000612bed601183612472565b9150612bf882612bb7565b602082019050919050565b60006020820190508181036000830152612c1c81612be0565b9050919050565b7f4368616c6c656e676520706572696f6420656e64656400000000000000000000600082015250565b6000612c59601683612472565b9150612c6482612c23565b602082019050919050565b60006020820190508181036000830152612c8881612c4c565b9050919050565b7f43616e6e6f742073656c662d6368616c6c656e67650000000000000000000000600082015250565b6000612cc5601583612472565b9150612cd082612c8f565b602082019050919050565b60006020820190508181036000830152612cf481612cb8565b9050919050565b6000606082019050612d1060008301866121f0565b612d1d60208301856121f0565b612d2a60408301846120c1565b949350505050565b6000604082019050612d4760008301856121f0565b612d5460208301846120c1565b9392505050565b6000604082019050612d7060008301856121f0565b612d7d6020830184611fc2565b939250505056fea2646970667358221220a4781e1da2f911de7ecd45cfcaaa7bd530c09ea71c139d51ca3fad833dea4ea564736f6c63430008140033",
  "linkReferences": {},
  "deployedLinkReferences": {}
}