{
  "_format": "hh-sol-artifact-1",
  "contractName": "ReceiptRegistry",
  "sourceName": "contracts/ReceiptRegistry.sol",
  "abi": [
    {
      "inputs": [
        {
          "internalType": "address",
          "name": "_admin",
          "type": "address"
        }
      ],
      "stateMutability": "nonpayable",
      "type": "constructor"
    },
    {
      "inputs": [],
      "name": "AccessControlBadConfirmation",
      "type": "error"
    },
    {
      "inputs": [
        {
          "internalType": "address",
          "name": "account",
          "type": "address"
        },
        {
          "internalType": "bytes32",
          "name": "neededRole",
          "type": "bytes32"
        }
      ],
      "name": "AccessControlUnauthorizedAccount",
      "type": "error"
    },
    {
      "anonymous": false,
      "inputs": [
        {
          "indexed": true,
          "internalType": "uint256",
          "name": "epochId",
          "type": "uint256"
        },
        {
          "indexed": false,
          "internalType": "uint256",
          "name": "totalReceipts",
          "type": "uint256"
        },
        {
          "indexed": false,
          "internalType": "uint256",
          "name": "totalVolume",
          "type": "uint256"
        },
        {
          "indexed": false,
          "internalType": "uint256",
          "name": "totalFees",
          "type": "uint256"
        }
      ],
      "name": "EpochFinalized",
      "type": "event"
    },
    {
      "anonymous": false,
      "inputs": [
        {
          "indexed": true,
          "internalType": "bytes32",
          "name": "paymentId",
          "type": "bytes32"
        },
        {
          "indexed": true,
          "internalType": "address",
          "name": "payer",
          "type": "address"
        },
        {
          "indexed": true,
          "internalType": "address",
          "name": "merchant",
          "type": "address"
        },
        {
          "indexed": false,
          "internalType": "address",
          "name": "agent",
          "type": "address"
        },
        {
          "indexed": false,
          "internalType": "address",
          "name": "token",
          "type": "address"
        },
        {
          "indexed": false,
          "internalType": "uint256",
          "name": "amount",
          "type": "uint256"
        },
        {
          "indexed": false,
          "internalType": "uint256",
          "name": "protocolFee",
          "type": "uint256"
        },
        {
          "indexed": false,
          "internalType": "uint256",
          "name": "epochId",
          "type": "uint256"
        },
        {
          "indexed": false,
          "internalType": "bytes32",
          "name": "routeRefHash",
          "type": "bytes32"
        }
      ],
      "name": "ReceiptCreated",
      "type": "event"
    },
    {
      "anonymous": false,
      "inputs": [
        {
          "indexed": true,
          "internalType": "bytes32",
          "name": "role",
          "type": "bytes32"
        },
        {
          "indexed": true,
          "internalType": "bytes32",
          "name": "previousAdminRole",
          "type": "bytes32"
        },
        {
          "indexed": true,
          "internalType": "bytes32",
          "name": "newAdminRole",
          "type": "bytes32"
        }
      ],
      "name": "RoleAdminChanged",
      "type": "event"
    },
    {
      "anonymous": false,
      "inputs": [
        {
          "indexed": true,
          "internalType": "bytes32",
          "name": "role",
          "type": "bytes32"
        },
        {
          "indexed": true,
          "internalType": "address",
          "name": "account",
          "type": "address"
        },
        {
          "indexed": true,
          "internalType": "address",
          "name": "sender",
          "type": "address"
        }
      ],
      "name": "RoleGranted",
      "type": "event"
    },
    {
      "anonymous": false,
      "inputs": [
        {
          "indexed": true,
          "internalType": "bytes32",
          "name": "role",
          "type": "bytes32"
        },
        {
          "indexed": true,
          "internalType": "address",
          "name": "account",
          "type": "address"
        },
        {
          "indexed": true,
          "internalType": "address",
          "name": "sender",
          "type": "address"
        }
      ],
      "name": "RoleRevoked",
      "type": "event"
    },
    {
      "inputs": [],
      "name": "DEFAULT_ADMIN_ROLE",
      "outputs": [
        {
          "internalType": "bytes32",
          "name": "",
          "type": "bytes32"
        }
      ],
      "stateMutability": "view",
      "type": "function"
    },
    {
      "inputs": [],
      "name": "EMITTER_ROLE",
      "outputs": [
        {
          "internalType": "bytes32",
          "name": "",
          "type": "bytes32"
        }
      ],
      "stateMutability": "view",
      "type": "function"
    },
    {
      "inputs": [
        {
          "internalType": "uint256",
          "name": "",
          "type": "uint256"
        },
        {
          "internalType": "uint256",
          "name": "",
          "type": "uint256"
        }
      ],
      "name": "epochReceipts",
      "outputs": [
        {
          "internalType": "bytes32",
          "name": "",
          "type": "bytes32"
        }
      ],
      "stateMutability": "view",
      "type": "function"
    },
    {
      "inputs": [
        {
          "internalType": "uint256",
          "name": "",
          "type": "uint256"
        }
      ],
      "name": "epochTotalFees",
      "outputs": [
        {
          "internalType": "uint256",
          "name": "",
          "type": "uint256"
        }
      ],
      "stateMutability": "view",
      "type": "function"
    },
    {
      "inputs": [
        {
          "internalType": "uint256",
          "name": "",
          "type": "uint256"
        }
      ],
      "name": "epochTotalVolume",
      "outputs": [
        {
          "internalType": "uint256",
          "name": "",
          "type": "uint256"
        }
      ],
      "stateMutability": "view",
      "type": "function"
    },
    {
      "inputs": [
        {
          "internalType": "uint256",
          "name": "epochId",
          "type": "uint256"
        }
      ],
      "name": "getEpochReceiptIds",
      "outputs": [
        {
          "internalType": "bytes32[]",
          "name": "",
          "type": "bytes32[]"
        }
      ],
      "stateMutability": "view",
      "type": "function"
    },
    {
      "inputs": [
        {
          "internalType": "uint256",
          "name": "epochId",
          "type": "uint256"
        }
      ],
      "name": "getEpochStats",
      "outputs": [
        {
          "internalType": "uint256",
          "name": "totalReceipts",
          "type": "uint256"
        },
        {
          "internalType": "uint256",
          "name": "totalVolume",
          "type": "uint256"
        },
        {
          "internalType": "uint256",
          "name": "totalFees",
          "type": "uint256"
        }
      ],
      "stateMutability": "view",
      "type": "function"
    },
    {
      "inputs": [
        {
          "internalType": "bytes32",
          "name": "paymentId",
          "type": "bytes32"
        }
      ],
      "name": "getReceipt",
      "outputs": [
        {
          "components": [
            {
              "internalType": "bytes32",
              "name": "paymentId",
              "type": "bytes32"
            },
            {
              "internalType": "address",
              "name": "payer",
              "type": "address"
            },
            {
              "internalType": "address",
              "name": "merchant",
              "type": "address"
            },
            {
              "internalType": "address",
              "name": "agent",
              "type": "address"
            },
            {
              "internalType": "address",
              "name": "token",
              "type": "address"
            },
            {
              "internalType": "uint256",
              "name": "amount",
              "type": "uint256"
            },
            {
              "internalType": "uint256",
              "name": "protocolFee",
              "type": "uint256"
            },
            {
              "internalType": "uint256",
              "name": "timestamp",
              "type": "uint256"
            },
            {
              "internalType": "uint256",
              "name": "epochId",
              "type": "uint256"
            },
            {
              "internalType": "bytes32",
              "name": "routeRefHash",
              "type": "bytes32"
            }
          ],
          "internalType": "struct ReceiptRegistry.Receipt",
          "name": "",
          "type": "tuple"
        }
      ],
      "stateMutability": "view",
      "type": "function"
    },
    {
      "inputs": [
        {
          "internalType": "bytes32",
          "name": "role",
          "type": "bytes32"
        }
      ],
      "name": "getRoleAdmin",
      "outputs": [
        {
          "internalType": "bytes32",
          "name": "",
          "type": "bytes32"
        }
      ],
      "stateMutability": "view",
      "type": "function"
    },
    {
      "inputs": [],
      "name": "getTotalReceipts",
      "outputs": [
        {
          "internalType": "uint256",
          "name": "",
          "type": "uint256"
        }
      ],
      "stateMutability": "view",
      "type": "function"
    },
    {
      "inputs": [
        {
          "internalType": "bytes32",
          "name": "role",
          "type": "bytes32"
        },
        {
          "internalType": "address",
          "name": "account",
          "type": "address"
        }
      ],
      "name": "grantRole",
      "outputs": [],
      "stateMutability": "nonpayable",
      "type": "function"
    },
    {
      "inputs": [
        {
          "internalType": "bytes32",
          "name": "role",
          "type": "bytes32"
        },
        {
          "internalType": "address",
          "name": "account",
          "type": "address"
        }
      ],
      "name": "hasRole",
      "outputs": [
        {
          "internalType": "bool",
          "name": "",
          "type": "bool"
        }
      ],
      "stateMutability": "view",
      "type": "function"
    },
    {
      "inputs": [
        {
          "internalType": "uint256",
          "name": "",
          "type": "uint256"
        }
      ],
      "name": "receiptIds",
      "outputs": [
        {
          "internalType": "bytes32",
          "name": "",
          "type": "bytes32"
        }
      ],
      "stateMutability": "view",
      "type": "function"
    },
    {
      "inputs": [
        {
          "internalType": "bytes32",
          "name": "",
          "type": "bytes32"
        }
      ],
      "name": "receipts",
      "outputs": [
        {
          "internalType": "bytes32",
          "name": "paymentId",
          "type": "bytes32"
        },
        {
          "internalType": "address",
          "name": "payer",
          "type": "address"
        },
        {
          "internalType": "address",
          "name": "merchant",
          "type": "address"
        },
        {
          "internalType": "address",
          "name": "agent",
          "type": "address"
        },
        {
          "internalType": "address",
          "name": "token",
          "type": "address"
        },
        {
          "internalType": "uint256",
          "name": "amount",
          "type": "uint256"
        },
        {
          "internalType": "uint256",
          "name": "protocolFee",
          "type": "uint256"
        },
        {
          "internalType": "uint256",
          "name": "timestamp",
          "type": "uint256"
        },
        {
          "internalType": "uint256",
          "name": "epochId",
          "type": "uint256"
        },
        {
          "internalType": "bytes32",
          "name": "routeRefHash",
          "type": "bytes32"
        }
      ],
      "stateMutability": "view",
      "type": "function"
    },
    {
      "inputs": [
        {
          "internalType": "bytes32",
          "name": "paymentId",
          "type": "bytes32"
        },
        {
          "internalType": "address",
          "name": "payer",
          "type": "address"
        },
        {
          "internalType": "address",
          "name": "merchant",
          "type": "address"
        },
        {
          "internalType": "address",
          "name": "agent",
          "type": "address"
        },
        {
          "internalType": "address",
          "name": "token",
          "type": "address"
        },
        {
          "internalType": "uint256",
          "name": "amount",
          "type": "uint256"
        },
        {
          "internalType": "uint256",
          "name": "protocolFee",
          "type": "uint256"
        },
        {
          "internalType": "uint256",
          "name": "epochId",
          "type": "uint256"
        },
        {
          "internalType": "bytes32",
          "name": "routeRefHash",
          "type": "bytes32"
        }
      ],
      "name": "recordReceipt",
      "outputs": [],
      "stateMutability": "nonpayable",
      "type": "function"
    },
    {
      "inputs": [
        {
          "internalType": "bytes32",
          "name": "role",
          "type": "bytes32"
        },
        {
          "internalType": "address",
          "name": "callerConfirmation",
          "type": "address"
        }
      ],
      "name": "renounceRole",
      "outputs": [],
      "stateMutability": "nonpayable",
      "type": "function"
    },
    {
      "inputs": [
        {
          "internalType": "bytes32",
          "name": "role",
          "type": "bytes32"
        },
        {
          "internalType": "address",
          "name": "account",
          "type": "address"
        }
      ],
      "name": "revokeRole",
      "outputs": [],
      "stateMutability": "nonpayable",
      "type": "function"
    },
    {
      "inputs": [
        {
          "internalType": "bytes4",
          "name": "interfaceId",
          "type": "bytes4"
        }
      ],
      "name": "supportsInterface",
      "outputs": [
        {
          "internalType": "bool",
          "name": "",
          "type": "bool"
        }
      ],
      "stateMutability": "view",
      "type": "function"
    }
  ],
  "bytecode": "0x60806040523480156200001157600080fd5b5060405162001b9238038062001b92833981810160405281019062000037919062000266565b6200004c6000801b826200008760201b60201c565b506200007f7f4b0ad04e4cfd06668c08542d3af105a3fa4b1a2813040bbb694bfecf2e5f5240826200008760201b60201c565b505062000298565b60006200009b83836200018a60201b60201c565b6200017f57600160008085815260200190815260200160002060000160008473ffffffffffffffffffffffffffffffffffffffff1673ffffffffffffffffffffffffffffffffffffffff16815260200190815260200160002060006101000a81548160ff0219169083151502179055506200011b620001f460201b60201c565b73ffffffffffffffffffffffffffffffffffffffff168273ffffffffffffffffffffffffffffffffffffffff16847f2f8788117e7eff1d82e926ec794901d17c78024a50270940304540a733656f0d60405160405180910390a46001905062000184565b600090505b92915050565b600080600084815260200190815260200160002060000160008373ffffffffffffffffffffffffffffffffffffffff1673ffffffffffffffffffffffffffffffffffffffff16815260200190815260200160002060009054906101000a900460ff16905092915050565b600033905090565b600080fd5b600073ffffffffffffffffffffffffffffffffffffffff82169050919050565b60006200022e8262000201565b9050919050565b620002408162000221565b81146200024c57600080fd5b50565b600081519050620002608162000235565b92915050565b6000602082840312156200027f576200027e620001fc565b5b60006200028f848285016200024f565b91505092915050565b6118ea80620002a86000396000f3fe608060405234801561001057600080fd5b50600436106101165760003560e01c806391d14854116100a2578063d0bdb29211610071578063d0bdb2921461032d578063d213182d1461035f578063d547741f1461037b578063ef6cf04d14610397578063fcecbb61146103d057610116565b806391d148541461027f5780639a915260146102af5780639b9318c4146102df578063a217fddf1461030f57610116565b80632f2ff15d116100e95780632f2ff15d146101b757806336568abe146101d35780634258260e146101ef5780635e1e521c1461021f57806360bcf5aa1461024f57610116565b806301ffc9a71461011b5780630478460f1461014b57806318004b3914610169578063248a9ca314610187575b600080fd5b6101356004803603810190610130919061115d565b610400565b60405161014291906111a5565b60405180910390f35b61015361047a565b60405161016091906111d9565b60405180910390f35b610171610487565b60405161017e919061120d565b60405180910390f35b6101a1600480360381019061019c9190611254565b6104ab565b6040516101ae919061120d565b60405180910390f35b6101d160048036038101906101cc91906112df565b6104ca565b005b6101ed60048036038101906101e891906112df565b6104ec565b005b6102096004803603810190610204919061134b565b610567565b6040516102169190611436565b60405180910390f35b6102396004803603810190610234919061134b565b6105d2565b60405161024691906111d9565b60405180910390f35b6102696004803603810190610264919061134b565b6105ea565b604051610276919061120d565b60405180910390f35b610299600480360381019061029491906112df565b61060e565b6040516102a691906111a5565b60405180910390f35b6102c960048036038101906102c49190611458565b610678565b6040516102d6919061120d565b60405180910390f35b6102f960048036038101906102f4919061134b565b6106a9565b60405161030691906111d9565b60405180910390f35b6103176106c1565b604051610324919061120d565b60405180910390f35b6103476004803603810190610342919061134b565b6106c8565b60405161035693929190611498565b60405180910390f35b610379600480360381019061037491906114cf565b610719565b005b610395600480360381019061039091906112df565b610add565b005b6103b160048036038101906103ac9190611254565b610aff565b6040516103c79a999897969594939291906115a8565b60405180910390f35b6103ea60048036038101906103e59190611254565b610bd3565b6040516103f7919061172e565b60405180910390f35b60007f7965db0b000000000000000000000000000000000000000000000000000000007bffffffffffffffffffffffffffffffffffffffffffffffffffffffff1916827bffffffffffffffffffffffffffffffffffffffffffffffffffffffff19161480610473575061047282610d95565b5b9050919050565b6000600280549050905090565b7f4b0ad04e4cfd06668c08542d3af105a3fa4b1a2813040bbb694bfecf2e5f524081565b6000806000838152602001908152602001600020600101549050919050565b6104d3826104ab565b6104dc81610dff565b6104e68383610e13565b50505050565b6104f4610f04565b73ffffffffffffffffffffffffffffffffffffffff168173ffffffffffffffffffffffffffffffffffffffff1614610558576040517f6697b23200000000000000000000000000000000000000000000000000000000815260040160405180910390fd5b6105628282610f0c565b505050565b6060600360008381526020019081526020016000208054806020026020016040519081016040528092919081815260200182805480156105c657602002820191906000526020600020905b8154815260200190600101908083116105b2575b50505050509050919050565b60056020528060005260406000206000915090505481565b600281815481106105fa57600080fd5b906000526020600020016000915090505481565b600080600084815260200190815260200160002060000160008373ffffffffffffffffffffffffffffffffffffffff1673ffffffffffffffffffffffffffffffffffffffff16815260200190815260200160002060009054906101000a900460ff16905092915050565b6003602052816000526040600020818154811061069457600080fd5b90600052602060002001600091509150505481565b60046020528060005260406000206000915090505481565b6000801b81565b60008060006003600085815260200190815260200160002080549050600460008681526020019081526020016000205460056000878152602001908152602001600020549250925092509193909250565b7f4b0ad04e4cfd06668c08542d3af105a3fa4b1a2813040bbb694bfecf2e5f524061074381610dff565b6000600160008c8152602001908152602001600020600701541461079c576040517f08c379a0000000000000000000000000000000000000000000000000000000008152600401610793906117a7565b60405180910390fd5b6040518061014001604052808b81526020018a73ffffffffffffffffffffffffffffffffffffffff1681526020018973ffffffffffffffffffffffffffffffffffffffff1681526020018873ffffffffffffffffffffffffffffffffffffffff1681526020018773ffffffffffffffffffffffffffffffffffffffff16815260200186815260200185815260200142815260200184815260200183815250600160008c81526020019081526020016000206000820151816000015560208201518160010160006101000a81548173ffffffffffffffffffffffffffffffffffffffff021916908373ffffffffffffffffffffffffffffffffffffffff16021790555060408201518160020160006101000a81548173ffffffffffffffffffffffffffffffffffffffff021916908373ffffffffffffffffffffffffffffffffffffffff16021790555060608201518160030160006101000a81548173ffffffffffffffffffffffffffffffffffffffff021916908373ffffffffffffffffffffffffffffffffffffffff16021790555060808201518160040160006101000a81548173ffffffffffffffffffffffffffffffffffffffff021916908373ffffffffffffffffffffffffffffffffffffffff16021790555060a0820151816005015560c0820151816006015560e082015181600701556101008201518160080155610120820151816009015590505060028a9080600181540180825580915050600190039060005260206000200160009091909190915055600360008481526020019081526020016000208a908060018154018082558091505060019003906000526020600020016000909190919091505584600460008581526020019081526020016000206000828254610a3091906117f6565b9250508190555083600560008581526020019081526020016000206000828254610a5a91906117f6565b925050819055508773ffffffffffffffffffffffffffffffffffffffff168973ffffffffffffffffffffffffffffffffffffffff168b7f287d678de1bc3bd576415921576fe69e1a6fc282298b6c10c982b0535c1c8e138a8a8a8a8a8a604051610ac99695949392919061182a565b60405180910390a450505050505050505050565b610ae6826104ab565b610aef81610dff565b610af98383610f0c565b50505050565b60016020528060005260406000206000915090508060000154908060010160009054906101000a900473ffffffffffffffffffffffffffffffffffffffff16908060020160009054906101000a900473ffffffffffffffffffffffffffffffffffffffff16908060030160009054906101000a900473ffffffffffffffffffffffffffffffffffffffff16908060040160009054906101000a900473ffffffffffffffffffffffffffffffffffffffff1690806005015490806006015490806007015490806008015490806009015490508a565b610bdb61104f565b6001600083815260200190815260200160002060405180610140016040529081600082015481526020016001820160009054906101000a900473ffffffffffffffffffffffffffffffffffffffff1673ffffffffffffffffffffffffffffffffffffffff1673ffffffffffffffffffffffffffffffffffffffff1681526020016002820160009054906101000a900473ffffffffffffffffffffffffffffffffffffffff1673ffffffffffffffffffffffffffffffffffffffff1673ffffffffffffffffffffffffffffffffffffffff1681526020016003820160009054906101000a900473ffffffffffffffffffffffffffffffffffffffff1673ffffffffffffffffffffffffffffffffffffffff1673ffffffffffffffffffffffffffffffffffffffff1681526020016004820160009054906101000a900473ffffffffffffffffffffffffffffffffffffffff1673ffffffffffffffffffffffffffffffffffffffff1673ffffffffffffffffffffffffffffffffffffffff168152602001600582015481526020016006820154815260200160078201548152602001600882015481526020016009820154815250509050919050565b60007f01ffc9a7000000000000000000000000000000000000000000000000000000007bffffffffffffffffffffffffffffffffffffffffffffffffffffffff1916827bffffffffffffffffffffffffffffffffffffffffffffffffffffffff1916149050919050565b610e1081610e0b610f04565b610ffe565b50565b6000610e1f838361060e565b610ef957600160008085815260200190815260200160002060000160008473ffffffffffffffffffffffffffffffffffffffff1673ffffffffffffffffffffffffffffffffffffffff16815260200190815260200160002060006101000a81548160ff021916908315150217905550610e96610f04565b73ffffffffffffffffffffffffffffffffffffffff168273ffffffffffffffffffffffffffffffffffffffff16847f2f8788117e7eff1d82e926ec794901d17c78024a50270940304540a733656f0d60405160405180910390a460019050610efe565b600090505b92915050565b600033905090565b6000610f18838361060e565b15610ff357600080600085815260200190815260200160002060000160008473ffffffffffffffffffffffffffffffffffffffff1673ffffffffffffffffffffffffffffffffffffffff16815260200190815260200160002060006101000a81548160ff021916908315150217905550610f90610f04565b73ffffffffffffffffffffffffffffffffffffffff168273ffffffffffffffffffffffffffffffffffffffff16847ff6391f5c32d9c69d2a47ea670b442974b53935d1edc7fd64eb21e047a839171b60405160405180910390a460019050610ff8565b600090505b92915050565b611008828261060e565b61104b5780826040517fe2517d3f00000000000000000000000000000000000000000000000000000000815260040161104292919061188b565b60405180910390fd5b5050565b60405180610140016040528060008019168152602001600073ffffffffffffffffffffffffffffffffffffffff168152602001600073ffffffffffffffffffffffffffffffffffffffff168152602001600073ffffffffffffffffffffffffffffffffffffffff168152602001600073ffffffffffffffffffffffffffffffffffffffff16815260200160008152602001600081526020016000815260200160008152602001600080191681525090565b600080fd5b60007fffffffff0000000000000000000000000000000000000000000000000000000082169050919050565b61113a81611105565b811461114557600080fd5b50565b60008135905061115781611131565b92915050565b60006020828403121561117357611172611100565b5b600061118184828501611148565b91505092915050565b60008115159050919050565b61119f8161118a565b82525050565b60006020820190506111ba6000830184611196565b92915050565b6000819050919050565b6111d3816111c0565b82525050565b60006020820190506111ee60008301846111ca565b92915050565b6000819050919050565b611207816111f4565b82525050565b600060208201905061122260008301846111fe565b92915050565b611231816111f4565b811461123c57600080fd5b50565b60008135905061124e81611228565b92915050565b60006020828403121561126a57611269611100565b5b60006112788482850161123f565b91505092915050565b600073ffffffffffffffffffffffffffffffffffffffff82169050919050565b60006112ac82611281565b9050919050565b6112bc816112a1565b81146112c757600080fd5b50565b6000813590506112d9816112b3565b92915050565b600080604083850312156112f6576112f5611100565b5b60006113048582860161123f565b9250506020611315858286016112ca565b9150509250929050565b611328816111c0565b811461133357600080fd5b50565b6000813590506113458161131f565b92915050565b60006020828403121561136157611360611100565b5b600061136f84828501611336565b91505092915050565b600081519050919050565b600082825260208201905092915050565b6000819050602082019050919050565b6113ad816111f4565b82525050565b60006113bf83836113a4565b60208301905092915050565b6000602082019050919050565b60006113e382611378565b6113ed8185611383565b93506113f883611394565b8060005b8381101561142957815161141088826113b3565b975061141b836113cb565b9250506001810190506113fc565b5085935050505092915050565b6000602082019050818103600083015261145081846113d8565b905092915050565b6000806040838503121561146f5761146e611100565b5b600061147d85828601611336565b925050602061148e85828601611336565b9150509250929050565b60006060820190506114ad60008301866111ca565b6114ba60208301856111ca565b6114c760408301846111ca565b949350505050565b60008060008060008060008060006101208a8c0312156114f2576114f1611100565b5b60006115008c828d0161123f565b99505060206115118c828d016112ca565b98505060406115228c828d016112ca565b97505060606115338c828d016112ca565b96505060806115448c828d016112ca565b95505060a06115558c828d01611336565b94505060c06115668c828d01611336565b93505060e06115778c828d01611336565b9250506101006115898c828d0161123f565b9150509295985092959850929598565b6115a2816112a1565b82525050565b6000610140820190506115be600083018d6111fe565b6115cb602083018c611599565b6115d8604083018b611599565b6115e5606083018a611599565b6115f26080830189611599565b6115ff60a08301886111ca565b61160c60c08301876111ca565b61161960e08301866111ca565b6116276101008301856111ca565b6116356101208301846111fe565b9b9a5050505050505050505050565b61164d816112a1565b82525050565b61165c816111c0565b82525050565b6101408201600082015161167960008501826113a4565b50602082015161168c6020850182611644565b50604082015161169f6040850182611644565b5060608201516116b26060850182611644565b5060808201516116c56080850182611644565b5060a08201516116d860a0850182611653565b5060c08201516116eb60c0850182611653565b5060e08201516116fe60e0850182611653565b50610100820151611713610100850182611653565b506101208201516117286101208501826113a4565b50505050565b6000610140820190506117446000830184611662565b92915050565b600082825260208201905092915050565b7f5265636569707420616c72656164792065786973747300000000000000000000600082015250565b600061179160168361174a565b915061179c8261175b565b602082019050919050565b600060208201905081810360008301526117c081611784565b9050919050565b7f4e487b7100000000000000000000000000000000000000000000000000000000600052601160045260246000fd5b6000611801826111c0565b915061180c836111c0565b9250828201905080821115611824576118236117c7565b5b92915050565b600060c08201905061183f6000830189611599565b61184c6020830188611599565b61185960408301876111ca565b61186660608301866111ca565b61187360808301856111ca565b61188060a08301846111fe565b979650505050505050565b60006040820190506118a06000830185611599565b6118ad60208301846111fe565b939250505056fea264697066735822122062b9c5f8f4acc8bc9099d3bee0118dc2488c75a96147f0886ac165206d49546764736f6c63430008140033",
  "linkReferences": {},
  "deployedLinkReferences": {}
}