{
  "_format": "hh-sol-artifact-1",
  "contractName": "X402Adapter",
  "sourceName": "contracts/X402Adapter.sol",
  "abi": [
    {
      "inputs": [
        {
          "internalType": "address payable",
          "name": "_paymentRouter",
          "type": "address"
        }
      ],
      "stateMutability": "nonpayable",
      "type": "constructor"
    },
    {
      "inputs": [],
      "name": "InvalidShortString",
      "type": "error"
    },
    {
      "inputs": [
        {
          "internalType": "string",
          "name": "str",
          "type": "string"
        }
      ],
      "name": "StringTooLong",
      "type": "error"
    },
    {
      "anonymous": false,
      "inputs": [],
      "name": "EIP712DomainChanged",
      "type": "event"
    },
    {
      "anonymous": false,
      "inputs": [
        {
          "indexed": true,
          "internalType": "address",
          "name": "previousOwner",
          "type": "address"
        },
        {
          "indexed": true,
          "internalType": "address",
          "name": "newOwner",
          "type": "address"
        }
      ],
      "name": "OwnershipTransferred",
      "type": "event"
    },
    {
      "anonymous": false,
      "inputs": [
        {
          "indexed": false,
          "internalType": "address",
          "name": "account",
          "type": "address"
        }
      ],
      "name": "Paused",
      "type": "event"
    },
    {
      "anonymous": false,
      "inputs": [
        {
          "indexed": false,
          "internalType": "address",
          "name": "account",
          "type": "address"
        }
      ],
      "name": "Unpaused",
      "type": "event"
    },
    {
      "anonymous": false,
      "inputs": [
        {
          "indexed": true,
          "internalType": "bytes32",
          "name": "sessionId",
          "type": "bytes32"
        },
        {
          "indexed": true,
          "internalType": "bytes32",
          "name": "paymentId",
          "type": "bytes32"
        },
        {
          "indexed": true,
          "internalType": "address",
          "name": "recipient",
          "type": "address"
        },
        {
          "indexed": false,
          "internalType": "uint256",
          "name": "amount",
          "type": "uint256"
        },
        {
          "indexed": false,
          "internalType": "uint256",
          "name": "gasSaved",
          "type": "uint256"
        }
      ],
      "name": "X402PaymentExecuted",
      "type": "event"
    },
    {
      "anonymous": false,
      "inputs": [
        {
          "indexed": true,
          "internalType": "bytes32",
          "name": "sessionId",
          "type": "bytes32"
        },
        {
          "indexed": true,
          "internalType": "bytes32",
          "name": "paymentId",
          "type": "bytes32"
        },
        {
          "indexed": true,
          "internalType": "address",
          "name": "payer",
          "type": "address"
        },
        {
          "indexed": false,
          "internalType": "uint256",
          "name": "amount",
          "type": "uint256"
        }
      ],
      "name": "X402SessionCreated",
      "type": "event"
    },
    {
      "inputs": [],
      "name": "DEFAULT_GAS_SAVED",
      "outputs": [
        {
          "internalType": "uint256",
          "name": "",
          "type": "uint256"
        }
      ],
      "stateMutability": "view",
      "type": "function"
    },
    {
      "inputs": [],
      "name": "PAYMENT_TYPEHASH",
      "outputs": [
        {
          "internalType": "bytes32",
          "name": "",
          "type": "bytes32"
        }
      ],
      "stateMutability": "view",
      "type": "function"
    },
    {
      "inputs": [
        {
          "internalType": "bytes32",
          "name": "paymentId",
          "type": "bytes32"
        },
        {
          "internalType": "address",
          "name": "recipient",
          "type": "address"
        },
        {
          "internalType": "uint256",
          "name": "amount",
          "type": "uint256"
        },
        {
          "internalType": "bytes",
          "name": "compressedData",
          "type": "bytes"
        },
        {
          "internalType": "uint256",
          "name": "expiresAt",
          "type": "uint256"
        }
      ],
      "name": "createSession",
      "outputs": [
        {
          "internalType": "bytes32",
          "name": "",
          "type": "bytes32"
        }
      ],
      "stateMutability": "nonpayable",
      "type": "function"
    },
    {
      "inputs": [],
      "name": "eip712Domain",
      "outputs": [
        {
          "internalType": "bytes1",
          "name": "fields",
          "type": "bytes1"
        },
        {
          "internalType": "string",
          "name": "name",
          "type": "string"
        },
        {
          "internalType": "string",
          "name": "version",
          "type": "string"
        },
        {
          "internalType": "uint256",
          "name": "chainId",
          "type": "uint256"
        },
        {
          "internalType": "address",
          "name": "verifyingContract",
          "type": "address"
        },
        {
          "internalType": "bytes32",
          "name": "salt",
          "type": "bytes32"
        },
        {
          "internalType": "uint256[]",
          "name": "extensions",
          "type": "uint256[]"
        }
      ],
      "stateMutability": "view",
      "type": "function"
    },
    {
      "inputs": [
        {
          "internalType": "address",
          "name": "to",
          "type": "address"
        },
        {
          "internalType": "uint256",
          "name": "amount",
          "type": "uint256"
        }
      ],
      "name": "emergencyWithdraw",
      "outputs": [],
      "stateMutability": "nonpayable",
      "type": "function"
    },
    {
      "inputs": [
        {
          "internalType": "bytes32",
          "name": "sessionId",
          "type": "bytes32"
        },
        {
          "internalType": "bytes",
          "name": "signature",
          "type": "bytes"
        }
      ],
      "name": "executePayment",
      "outputs": [],
      "stateMutability": "nonpayable",
      "type": "function"
    },
    {
      "inputs": [],
      "name": "getDomainSeparator",
      "outputs": [
        {
          "internalType": "bytes32",
          "name": "",
          "type": "bytes32"
        }
      ],
      "stateMutability": "view",
      "type": "function"
    },
    {
      "inputs": [
        {
          "internalType": "bytes32",
          "name": "sessionId",
          "type": "bytes32"
        }
      ],
      "name": "getSession",
      "outputs": [
        {
          "components": [
            {
              "internalType": "bytes32",
              "name": "sessionId",
              "type": "bytes32"
            },
            {
              "internalType": "bytes32",
              "name": "paymentId",
              "type": "bytes32"
            },
            {
              "internalType": "address",
              "name": "payer",
              "type": "address"
            },
            {
              "internalType": "address",
              "name": "recipient",
              "type": "address"
            },
            {
              "internalType": "uint256",
              "name": "amount",
              "type": "uint256"
            },
            {
              "internalType": "bytes",
              "name": "compressedData",
              "type": "bytes"
            },
            {
              "internalType": "bool",
              "name": "executed",
              "type": "bool"
            },
            {
              "internalType": "uint256",
              "name": "createdAt",
              "type": "uint256"
            },
            {
              "internalType": "uint256",
              "name": "expiresAt",
              "type": "uint256"
            }
          ],
          "internalType": "struct X402Adapter.X402Session",
          "name": "",
          "type": "tuple"
        }
      ],
      "stateMutability": "view",
      "type": "function"
    },
    {
      "inputs": [],
      "name": "owner",
      "outputs": [
        {
          "internalType": "address",
          "name": "",
          "type": "address"
        }
      ],
      "stateMutability": "view",
      "type": "function"
    },
    {
      "inputs": [],
      "name": "pause",
      "outputs": [],
      "stateMutability": "nonpayable",
      "type": "function"
    },
    {
      "inputs": [],
      "name": "paused",
      "outputs": [
        {
          "internalType": "bool",
          "name": "",
          "type": "bool"
        }
      ],
      "stateMutability": "view",
      "type": "function"
    },
    {
      "inputs": [],
      "name": "paymentRouter",
      "outputs": [
        {
          "internalType": "contract PaymentRouter",
          "name": "",
          "type": "address"
        }
      ],
      "stateMutability": "view",
      "type": "function"
    },
    {
      "inputs": [],
      "name": "relayer",
      "outputs": [
        {
          "internalType": "address",
          "name": "",
          "type": "address"
        }
      ],
      "stateMutability": "view",
      "type": "function"
    },
    {
      "inputs": [],
      "name": "renounceOwnership",
      "outputs": [],
      "stateMutability": "nonpayable",
      "type": "function"
    },
    {
      "inputs": [
        {
          "internalType": "bytes32",
          "name": "",
          "type": "bytes32"
        }
      ],
      "name": "sessions",
      "outputs": [
        {
          "internalType": "bytes32",
          "name": "sessionId",
          "type": "bytes32"
        },
        {
          "internalType": "bytes32",
          "name": "paymentId",
          "type": "bytes32"
        },
        {
          "internalType": "address",
          "name": "payer",
          "type": "address"
        },
        {
          "internalType": "address",
          "name": "recipient",
          "type": "address"
        },
        {
          "internalType": "uint256",
          "name": "amount",
          "type": "uint256"
        },
        {
          "internalType": "bytes",
          "name": "compressedData",
          "type": "bytes"
        },
        {
          "internalType": "bool",
          "name": "executed",
          "type": "bool"
        },
        {
          "internalType": "uint256",
          "name": "createdAt",
          "type": "uint256"
        },
        {
          "internalType": "uint256",
          "name": "expiresAt",
          "type": "uint256"
        }
      ],
      "stateMutability": "view",
      "type": "function"
    },
    {
      "inputs": [
        {
          "internalType": "address",
          "name": "_relayer",
          "type": "address"
        }
      ],
      "name": "setRelayer",
      "outputs": [],
      "stateMutability": "nonpayable",
      "type": "function"
    },
    {
      "inputs": [
        {
          "internalType": "address",
          "name": "newOwner",
          "type": "address"
        }
      ],
      "name": "transferOwnership",
      "outputs": [],
      "stateMutability": "nonpayable",
      "type": "function"
    },
    {
      "inputs": [],
      "name": "unpause",
      "outputs": [],
      "stateMutability": "nonpayable",
      "type": "function"
    },
    {
      "stateMutability": "payable",
      "type": "receive"
    }
  ],
  "bytecode": "0x61016034620001ed57601f62001d8438819003918201601f19168301926001600160401b0392909183851183861017620001f2578160209284926040978852833981010312620001ed57516001600160a01b0380821691829003620001ed578351916200006c8362000208565b600b835260208301916a2c1a181920b230b83a32b960a91b83528551620000938162000208565b600181526020810196603160f81b8852600097885460018060a01b03199433868316178b553391167f8be0079c531659141344cd1fd0a4f28419497f9722a3daafe3b4186f6b6457e08b80a36001805560ff1960025416600255620000f88762000224565b956101209687526200010a84620003fe565b97610140988952519020928360e0525190209061010098828a524660a05281519260208401947f8b73c3c69bb8fe3d512ecc4cf759cc79239f7b179b0ffacaa9a75d522b39400f86528385015260608401524660808401523060a084015260a0835260c0830198838a10908a1117620001d957508790525190206080523060c05260065416176006556117ba9384620005ca8539608051846116a3015260a0518461175e015260c0518461166d015260e051846116f201525183611718015251826102c6015251816102f00152f35b634e487b7160e01b81526041600452602490fd5b600080fd5b634e487b7160e01b600052604160045260246000fd5b604081019081106001600160401b03821117620001f257604052565b80516020919082811015620002c3575090601f8251116200026257808251920151908083106200025357501790565b82600019910360031b1b161790565b90604051809263305a27a960e01b82528060048301528251908160248401526000935b828510620002a9575050604492506000838284010152601f80199101168101030190fd5b848101820151868601604401529381019385935062000285565b6001600160401b038111620001f2576003928354926001938481811c91168015620003f3575b83821014620003dd57601f8111620003a4575b5081601f84116001146200033b57509282939183926000946200032f575b50501b9160001990841b1c191617905560ff90565b0151925038806200031a565b919083601f1981168760005284600020946000905b8883831062000389575050501062000370575b505050811b01905560ff90565b015160001983861b60f8161c1916905538808062000363565b85870151885590960195948501948793509081019062000350565b8560005284601f84600020920160051c820191601f860160051c015b828110620003d0575050620002fc565b60008155018590620003c0565b634e487b7160e01b600052602260045260246000fd5b90607f1690620002e9565b805160209190828110156200048e575090601f8251116200042d57808251920151908083106200025357501790565b90604051809263305a27a960e01b82528060048301528251908160248401526000935b82851062000474575050604492506000838284010152601f80199101168101030190fd5b848101820151868601604401529381019385935062000450565b6001600160401b038111620001f2576004928354926001938481811c91168015620005be575b83821014620005a957601f811162000570575b5081601f8411600114620005075750928293918392600094620004fb575b50501b916000199060031b1c191617905560ff90565b015192503880620004e5565b919083601f1981168760005284600020946000905b888383106200055557505050106200053b57505050811b01905560ff90565b015160001960f88460031b161c1916905538808062000363565b8587015188559096019594850194879350908101906200051c565b8560005284601f84600020920160051c820191601f860160051c015b8281106200059c575050620004c7565b600081550185906200058c565b602286634e487b7160e01b6000525260246000fd5b90607f1690620004b456fe608080604052600436101561001d575b50361561001b57600080fd5b005b600090813560e01c90816329a1403e14610f895750806339b240bd14610e345780633f4ba83a14610d9f5780635c975abb14610d7c5780636548e9bc14610cfe5780636d3298cb14610cc3578063715018a614610c6957806371df5a2b1461098f578063724f16de1461050f5780637dbd2832146104555780638406c0791461042c5780638456cb59146103d157806384b0196e146102b05780638da5cb5b1461028957806395ccea6714610200578063ed24911d146101dd578063f2fde38b146101175763ff781bbf0361000f57346101145780600319360112610114576006546040516001600160a01b039091168152602090f35b80fd5b503461011457602036600319011261011457610131610fe6565b610139611176565b6001600160a01b0390811690811561018957600054826001600160601b0360a01b821617600055167f8be0079c531659141344cd1fd0a4f28419497f9722a3daafe3b4186f6b6457e0600080a380f35b60405162461bcd60e51b815260206004820152602660248201527f4f776e61626c653a206e6577206f776e657220697320746865207a65726f206160448201526564647265737360d01b6064820152608490fd5b503461011457806003193601126101145760206101f861166a565b604051908152f35b50346101145760403660031901126101145761021a610fe6565b610222611176565b6001600160a01b03168015610250578180808061024d94602435905af16102476113d7565b50611407565b80f35b60405162461bcd60e51b8152602060048201526011602482015270125b9d985b1a59081c9958da5c1a595b9d607a1b6044820152606490fd5b5034610114578060031936011261011457546040516001600160a01b039091168152602090f35b50346101145780600319360112610114576102ea7f00000000000000000000000000000000000000000000000000000000000000006111ce565b906103147f00000000000000000000000000000000000000000000000000000000000000006112ca565b90604051906020908183019383851067ffffffffffffffff8611176103bb5792828593610371889661036398604052858552604051988998600f60f81b8a5260e0858b015260e08a0190610fa6565b9088820360408a0152610fa6565b924660608801523060808801528460a088015286840360c088015251928381520193925b8281106103a457505050500390f35b835185528695509381019392810192600101610395565b634e487b7160e01b600052604160045260246000fd5b50346101145780600319360112610114576103ea611176565b6103f2611445565b600160ff1960025416176002557f62e78cea01bee320cd4e420270b5ea74000d11b0c9f74754ebdbfc544b05a2586020604051338152a180f35b50346101145780600319360112610114576007546040516001600160a01b039091168152602090f35b5034610114576020366003190112610114576040906004358152600560205220805460018201549160018060a01b038060028301541690600383015416916104f86004820154604051906104b7826104b08160058801611069565b0383611154565b60ff600685015416956008600786015495015495604051998a998a5260208a01526040890152606088015260808701526101208060a0880152860190610fa6565b92151560c085015260e08401526101008301520390f35b50346101145760403660031901126101145760243567ffffffffffffffff811161098b57610541903690600401611001565b60019160028354146109465760028355610559611445565b6004358452600560205260408420805490811561090d5760ff6006820154166108c857600881015491824211610891576007546001600160a01b0316330361084c57604185036108075785820192835495600384019560018060a01b038754169360048601988954946040519160208301937f18af71ea01519dae87a4560df102eb0b2ed2bd9ee86826bb1d97a93e0c8102ee8552604084015260608301528660808301528560a083015260c08201524660e082015260e08152610100810181811067ffffffffffffffff8211176107f35792604261067795936106699361066f9660405251902061064961166a565b906040519161190160f01b835260028301526022820152209236916113a0565b906115a3565b919091611489565b60028401546001600160a01b039081169116036107ba5780471061077e5787808080936106a8955af16102476113d7565b6006908101805460ff19168617905554815486916001600160a01b0316803b1561077a576024839260405194859384926347ca8a8b60e01b845260048401525af1801561076f5761073f575b50549060018060a01b039054169154604051908152620186a060208201527f96e4db812578f5ab89327d345d351d8d3ee58b65746ae8eef5e3ff0f6b93bbf7604060043592a4805580f35b67ffffffffffffffff819692961161075b5760405293386106f4565b634e487b7160e01b82526041600452602482fd5b6040513d88823e3d90fd5b8280fd5b60405162461bcd60e51b8152602060048201526014602482015273496e73756666696369656e742062616c616e636560601b6044820152606490fd5b60405162461bcd60e51b8152602060048201526011602482015270496e76616c6964207369676e617475726560781b6044820152606490fd5b634e487b7160e01b8d52604160045260248dfd5b60405162461bcd60e51b815260206004820152601860248201527f496e76616c6964207369676e6174757265206c656e67746800000000000000006044820152606490fd5b60405162461bcd60e51b815260206004820152601860248201527f4f6e6c792072656c617965722063616e206578656375746500000000000000006044820152606490fd5b60405162461bcd60e51b815260206004820152600f60248201526e14d95cdcda5bdb88195e1c1a5c9959608a1b6044820152606490fd5b60405162461bcd60e51b815260206004820152601860248201527f5061796d656e7420616c726561647920657865637574656400000000000000006044820152606490fd5b60405162461bcd60e51b815260206004820152601160248201527014d95cdcda5bdb881b9bdd08199bdd5b99607a1b6044820152606490fd5b60405162461bcd60e51b815260206004820152601f60248201527f5265656e7472616e637947756172643a207265656e7472616e742063616c6c006044820152606490fd5b5080fd5b50346101145760a0366003190112610114576024356001600160a01b03811680820361077a5760643567ffffffffffffffff8111610c65576109d5903690600401611001565b9092604051602081019160043583523360601b60408301526001600160601b03199060601b166054820152604435606882015242608882015260888152610a1b8161111c565b5190209260405191610a2c836110ff565b84835260208301936004358552610a5c6040850193338552606086019283526080860193604435855236916113a0565b60a0850190815260c085018890524260e0860152608435610100860152868852600560205260408820855181559551600187015592516002860180546001600160a01b03199081166001600160a01b0393841617909155915160038701805490931691161790555160048401555180519067ffffffffffffffff8211610c5157610ae9600585015461102f565b601f8111610c09575b50946020958691601f8411600114610b9857926008949281926101009592610b8d575b50508160011b916000199060031b1c19161760058501555b6006840160c0820151151560ff8019835416911617905560e08101516007850155015191015560405160443581523390827fa23a57dc5eb67a50f2daedc010fc35f9d2bcee06d0f5f8686fd0164891dfd76e8560043593a4604051908152f35b015190503880610b15565b9190600586018352878320925b601f1985168110610bf2575092600894926001926101009583601f19811610610bd9575b505050811b016005850155610b2d565b015160001960f88460031b161c19169055388080610bc9565b919288600181928685015181550194019201610ba5565b60058501875260208720601f840160051c81019160208510610c47575b601f0160051c01905b818110610c3c5750610af2565b878155600101610c2f565b9091508190610c26565b634e487b7160e01b86526041600452602486fd5b8380fd5b5034610114578060031936011261011457610c82611176565b80546001600160a01b03198116825581906001600160a01b03167f8be0079c531659141344cd1fd0a4f28419497f9722a3daafe3b4186f6b6457e08280a380f35b503461011457806003193601126101145760206040517f18af71ea01519dae87a4560df102eb0b2ed2bd9ee86826bb1d97a93e0c8102ee8152f35b503461011457602036600319011261011457610d18610fe6565b610d20611176565b6001600160a01b03168015610d45576001600160601b0360a01b600754161760075580f35b60405162461bcd60e51b815260206004820152600f60248201526e24b73b30b634b2103932b630bcb2b960891b6044820152606490fd5b5034610114578060031936011261011457602060ff600254166040519015158152f35b5034610114578060031936011261011457610db8611176565b60025460ff811615610df85760ff19166002557f5db9ee0a495bf2e6ff9c91a7834c1ba4fdd244a5e8aa4e537bd38aeae4b073aa6020604051338152a180f35b60405162461bcd60e51b815260206004820152601460248201527314185d5cd8589b194e881b9bdd081c185d5cd95960621b6044820152606490fd5b50346101145760208060031936011261098b576040805192610e55846110ff565b80845280838501528082850152806060850152806080850152606060a08501528060c08501528060e08501528061010080950152600435815260058352206040518093610ea1826110ff565b82548252600183015490848301918252600560018060a01b0380600287015416906040860191825280600388015416606087019081528160048901549360808901948552610f008a610ef96040518099819301611069565b0387611154565b60a08901958652600860ff60068c0154169a60c08b019b15158c5260e060078201549b019a8b52015497878d019889528b6040519d8e9d8e5251908d01525160408c0152511660608a0152511660808801525160a08701525192610f72610120948560c0890152610140880190610fa6565b9451151560e0870152519085015251908301520390f35b90503461098b578160031936011261098b5780620186a060209252f35b919082519283825260005b848110610fd2575050826000602080949584010152601f8019910116010190565b602081830181015184830182015201610fb1565b600435906001600160a01b0382168203610ffc57565b600080fd5b9181601f84011215610ffc5782359167ffffffffffffffff8311610ffc5760208381860195010111610ffc57565b90600182811c9216801561105f575b602083101461104957565b634e487b7160e01b600052602260045260246000fd5b91607f169161103e565b906000929180549161107a8361102f565b9182825260019384811690816000146110dc575060011461109c575b50505050565b90919394506000526020928360002092846000945b8386106110c8575050505001019038808080611096565b8054858701830152940193859082016110b1565b9294505050602093945060ff191683830152151560051b01019038808080611096565b610120810190811067ffffffffffffffff8211176103bb57604052565b60c0810190811067ffffffffffffffff8211176103bb57604052565b6040810190811067ffffffffffffffff8211176103bb57604052565b90601f8019910116810190811067ffffffffffffffff8211176103bb57604052565b6000546001600160a01b0316330361118a57565b606460405162461bcd60e51b815260206004820152602060248201527f4f776e61626c653a2063616c6c6572206973206e6f7420746865206f776e65726044820152fd5b60ff811461120c5760ff811690601f82116111fa57604051916111f083611138565b8252602082015290565b604051632cd44ac360e21b8152600490fd5b5060405160035481600061121f8361102f565b808352926001908181169081156112a85750600114611249575b5061124692500382611154565b90565b6003600090815291507fc2575a0e9e593c00f959f8c92f12db2869c3395a3b0502d05e2516446f71f85b5b84831061128d5750611246935050810160200138611239565b81935090816020925483858901015201910190918492611274565b90506020925061124694915060ff191682840152151560051b82010138611239565b60ff81146112ec5760ff811690601f82116111fa57604051916111f083611138565b506040516004548160006112ff8361102f565b808352926001908181169081156112a85750600114611325575061124692500382611154565b6004600090815291507f8a35acfbc15ff81a39ae7d344fd709f28e8600b4aa8c65c6b64bfe7fe36bd19b5b8483106113695750611246935050810160200138611239565b81935090816020925483858901015201910190918492611350565b67ffffffffffffffff81116103bb57601f01601f191660200190565b9291926113ac82611384565b916113ba6040519384611154565b829481845281830111610ffc578281602093846000960137010152565b3d15611402573d906113e882611384565b916113f66040519384611154565b82523d6000602084013e565b606090565b1561140e57565b60405162461bcd60e51b815260206004820152600f60248201526e151c985b9cd9995c8819985a5b1959608a1b6044820152606490fd5b60ff6002541661145157565b60405162461bcd60e51b815260206004820152601060248201526f14185d5cd8589b194e881c185d5cd95960821b6044820152606490fd5b600581101561158d578061149a5750565b600181036114e75760405162461bcd60e51b815260206004820152601860248201527f45434453413a20696e76616c6964207369676e617475726500000000000000006044820152606490fd5b600281036115345760405162461bcd60e51b815260206004820152601f60248201527f45434453413a20696e76616c6964207369676e6174757265206c656e677468006044820152606490fd5b60031461153d57565b60405162461bcd60e51b815260206004820152602260248201527f45434453413a20696e76616c6964207369676e6174757265202773272076616c604482015261756560f01b6064820152608490fd5b634e487b7160e01b600052602160045260246000fd5b9060418151146000146115d1576115cd916020820151906060604084015193015160001a906115db565b9091565b5050600090600290565b9291907f7fffffffffffffffffffffffffffffff5d576e7357a4501ddfe92f46681b20a0831161165e5791608094939160ff602094604051948552168484015260408301526060820152600093849182805260015afa156116515781516001600160a01b0381161561164b579190565b50600190565b50604051903d90823e3d90fd5b50505050600090600390565b307f00000000000000000000000000000000000000000000000000000000000000006001600160a01b0316148061175b575b156116c5577f000000000000000000000000000000000000000000000000000000000000000090565b60405160208101907f8b73c3c69bb8fe3d512ecc4cf759cc79239f7b179b0ffacaa9a75d522b39400f82527f000000000000000000000000000000000000000000000000000000000000000060408201527f000000000000000000000000000000000000000000000000000000000000000060608201524660808201523060a082015260a081526117558161111c565b51902090565b507f0000000000000000000000000000000000000000000000000000000000000000461461169c56fea26469706673582212209854ff752e376b8e9c585067ace42c6407c3ee7d50651220ba2d8f1e92e8132a64736f6c63430008140033",
  "linkReferences": {},
  "deployedLinkReferences": {}
}