{
  "_format": "hh-sol-artifact-1",
  "contractName": "ArnTreasury",
  "sourceName": "contracts/ArnTreasury.sol",
  "abi": [
    {
      "inputs": [
        {
          "internalType": "address",
          "name": "_admin",
          "type": "address"
        }
      ],
      "stateMutability": "nonpayable",
      "type": "constructor"
    },
    {
      "inputs": [],
      "name": "AccessControlBadConfirmation",
      "type": "error"
    },
    {
      "inputs": [
        {
          "internalType": "address",
          "name": "account",
          "type": "address"
        },
        {
          "internalType": "bytes32",
          "name": "neededRole",
          "type": "bytes32"
        }
      ],
      "name": "AccessControlUnauthorizedAccount",
      "type": "error"
    },
    {
      "inputs": [
        {
          "internalType": "address",
          "name": "token",
          "type": "address"
        }
      ],
      "name": "SafeERC20FailedOperation",
      "type": "error"
    },
    {
      "anonymous": false,
      "inputs": [
        {
          "indexed": false,
          "internalType": "address",
          "name": "watcher",
          "type": "address"
        },
        {
          "indexed": false,
          "internalType": "address",
          "name": "operator",
          "type": "address"
        },
        {
          "indexed": false,
          "internalType": "address",
          "name": "publicGoods",
          "type": "address"
        },
        {
          "indexed": false,
          "internalType": "address",
          "name": "securityReserve",
          "type": "address"
        }
      ],
      "name": "DistributionUpdated",
      "type": "event"
    },
    {
      "anonymous": false,
      "inputs": [
        {
          "indexed": true,
          "internalType": "address",
          "name": "sender",
          "type": "address"
        },
        {
          "indexed": false,
          "internalType": "uint256",
          "name": "amount",
          "type": "uint256"
        }
      ],
      "name": "FundsReceived",
      "type": "event"
    },
    {
      "anonymous": false,
      "inputs": [
        {
          "indexed": true,
          "internalType": "address",
          "name": "token",
          "type": "address"
        },
        {
          "indexed": true,
          "internalType": "address",
          "name": "to",
          "type": "address"
        },
        {
          "indexed": false,
          "internalType": "uint256",
          "name": "amount",
          "type": "uint256"
        },
        {
          "indexed": false,
          "internalType": "string",
          "name": "reason",
          "type": "string"
        }
      ],
      "name": "FundsWithdrawn",
      "type": "event"
    },
    {
      "anonymous": false,
      "inputs": [
        {
          "indexed": true,
          "internalType": "address",
          "name": "token",
          "type": "address"
        },
        {
          "indexed": false,
          "internalType": "uint256",
          "name": "totalAmount",
          "type": "uint256"
        }
      ],
      "name": "RewardsDistributed",
      "type": "event"
    },
    {
      "anonymous": false,
      "inputs": [
        {
          "indexed": true,
          "internalType": "bytes32",
          "name": "role",
          "type": "bytes32"
        },
        {
          "indexed": true,
          "internalType": "bytes32",
          "name": "previousAdminRole",
          "type": "bytes32"
        },
        {
          "indexed": true,
          "internalType": "bytes32",
          "name": "newAdminRole",
          "type": "bytes32"
        }
      ],
      "name": "RoleAdminChanged",
      "type": "event"
    },
    {
      "anonymous": false,
      "inputs": [
        {
          "indexed": true,
          "internalType": "bytes32",
          "name": "role",
          "type": "bytes32"
        },
        {
          "indexed": true,
          "internalType": "address",
          "name": "account",
          "type": "address"
        },
        {
          "indexed": true,
          "internalType": "address",
          "name": "sender",
          "type": "address"
        }
      ],
      "name": "RoleGranted",
      "type": "event"
    },
    {
      "anonymous": false,
      "inputs": [
        {
          "indexed": true,
          "internalType": "bytes32",
          "name": "role",
          "type": "bytes32"
        },
        {
          "indexed": true,
          "internalType": "address",
          "name": "account",
          "type": "address"
        },
        {
          "indexed": true,
          "internalType": "address",
          "name": "sender",
          "type": "address"
        }
      ],
      "name": "RoleRevoked",
      "type": "event"
    },
    {
      "inputs": [],
      "name": "DEFAULT_ADMIN_ROLE",
      "outputs": [
        {
          "internalType": "bytes32",
          "name": "",
          "type": "bytes32"
        }
      ],
      "stateMutability": "view",
      "type": "function"
    },
    {
      "inputs": [],
      "name": "DISTRIBUTOR_ROLE",
      "outputs": [
        {
          "internalType": "bytes32",
          "name": "",
          "type": "bytes32"
        }
      ],
      "stateMutability": "view",
      "type": "function"
    },
    {
      "inputs": [],
      "name": "OPERATOR_BPS",
      "outputs": [
        {
          "internalType": "uint256",
          "name": "",
          "type": "uint256"
        }
      ],
      "stateMutability": "view",
      "type": "function"
    },
    {
      "inputs": [],
      "name": "PUBLIC_GOODS_BPS",
      "outputs": [
        {
          "internalType": "uint256",
          "name": "",
          "type": "uint256"
        }
      ],
      "stateMutability": "view",
      "type": "function"
    },
    {
      "inputs": [],
      "name": "SECURITY_RESERVE_BPS",
      "outputs": [
        {
          "internalType": "uint256",
          "name": "",
          "type": "uint256"
        }
      ],
      "stateMutability": "view",
      "type": "function"
    },
    {
      "inputs": [],
      "name": "TIMELOCK_ROLE",
      "outputs": [
        {
          "internalType": "bytes32",
          "name": "",
          "type": "bytes32"
        }
      ],
      "stateMutability": "view",
      "type": "function"
    },
    {
      "inputs": [],
      "name": "WATCHER_BPS",
      "outputs": [
        {
          "internalType": "uint256",
          "name": "",
          "type": "uint256"
        }
      ],
      "stateMutability": "view",
      "type": "function"
    },
    {
      "inputs": [
        {
          "internalType": "address",
          "name": "token",
          "type": "address"
        },
        {
          "internalType": "address",
          "name": "to",
          "type": "address"
        },
        {
          "internalType": "uint256",
          "name": "amount",
          "type": "uint256"
        }
      ],
      "name": "distributeReward",
      "outputs": [],
      "stateMutability": "nonpayable",
      "type": "function"
    },
    {
      "inputs": [
        {
          "internalType": "address",
          "name": "token",
          "type": "address"
        }
      ],
      "name": "distributeRewards",
      "outputs": [],
      "stateMutability": "nonpayable",
      "type": "function"
    },
    {
      "inputs": [
        {
          "internalType": "bytes32",
          "name": "role",
          "type": "bytes32"
        }
      ],
      "name": "getRoleAdmin",
      "outputs": [
        {
          "internalType": "bytes32",
          "name": "",
          "type": "bytes32"
        }
      ],
      "stateMutability": "view",
      "type": "function"
    },
    {
      "inputs": [
        {
          "internalType": "bytes32",
          "name": "role",
          "type": "bytes32"
        },
        {
          "internalType": "address",
          "name": "account",
          "type": "address"
        }
      ],
      "name": "grantRole",
      "outputs": [],
      "stateMutability": "nonpayable",
      "type": "function"
    },
    {
      "inputs": [
        {
          "internalType": "bytes32",
          "name": "role",
          "type": "bytes32"
        },
        {
          "internalType": "address",
          "name": "account",
          "type": "address"
        }
      ],
      "name": "hasRole",
      "outputs": [
        {
          "internalType": "bool",
          "name": "",
          "type": "bool"
        }
      ],
      "stateMutability": "view",
      "type": "function"
    },
    {
      "inputs": [],
      "name": "operator",
      "outputs": [
        {
          "internalType": "address",
          "name": "",
          "type": "address"
        }
      ],
      "stateMutability": "view",
      "type": "function"
    },
    {
      "inputs": [],
      "name": "publicGoods",
      "outputs": [
        {
          "internalType": "address",
          "name": "",
          "type": "address"
        }
      ],
      "stateMutability": "view",
      "type": "function"
    },
    {
      "inputs": [
        {
          "internalType": "bytes32",
          "name": "role",
          "type": "bytes32"
        },
        {
          "internalType": "address",
          "name": "callerConfirmation",
          "type": "address"
        }
      ],
      "name": "renounceRole",
      "outputs": [],
      "stateMutability": "nonpayable",
      "type": "function"
    },
    {
      "inputs": [
        {
          "internalType": "bytes32",
          "name": "role",
          "type": "bytes32"
        },
        {
          "internalType": "address",
          "name": "account",
          "type": "address"
        }
      ],
      "name": "revokeRole",
      "outputs": [],
      "stateMutability": "nonpayable",
      "type": "function"
    },
    {
      "inputs": [],
      "name": "securityReserve",
      "outputs": [
        {
          "internalType": "address",
          "name": "",
          "type": "address"
        }
      ],
      "stateMutability": "view",
      "type": "function"
    },
    {
      "inputs": [
        {
          "internalType": "address",
          "name": "_watcher",
          "type": "address"
        },
        {
          "internalType": "address",
          "name": "_operator",
          "type": "address"
        },
        {
          "internalType": "address",
          "name": "_publicGoods",
          "type": "address"
        },
        {
          "internalType": "address",
          "name": "_securityReserve",
          "type": "address"
        }
      ],
      "name": "setDistributionAddresses",
      "outputs": [],
      "stateMutability": "nonpayable",
      "type": "function"
    },
    {
      "inputs": [
        {
          "internalType": "bytes4",
          "name": "interfaceId",
          "type": "bytes4"
        }
      ],
      "name": "supportsInterface",
      "outputs": [
        {
          "internalType": "bool",
          "name": "",
          "type": "bool"
        }
      ],
      "stateMutability": "view",
      "type": "function"
    },
    {
      "inputs": [],
      "name": "watcher",
      "outputs": [
        {
          "internalType": "address",
          "name": "",
          "type": "address"
        }
      ],
      "stateMutability": "view",
      "type": "function"
    },
    {
      "stateMutability": "payable",
      "type": "receive"
    }
  ],
  "bytecode": "0x60806040523480156200001157600080fd5b5060405162001c5738038062001c5783398181016040528101906200003791906200036a565b6200004c6000801b826200018b60201b60201c565b506200007f7ff66846415d2bf9eabda9e84793ff9c0ea96d87f50fc41e66aa16469c6a442f05826200018b60201b60201c565b5080600160006101000a81548173ffffffffffffffffffffffffffffffffffffffff021916908373ffffffffffffffffffffffffffffffffffffffff16021790555080600260006101000a81548173ffffffffffffffffffffffffffffffffffffffff021916908373ffffffffffffffffffffffffffffffffffffffff16021790555080600360006101000a81548173ffffffffffffffffffffffffffffffffffffffff021916908373ffffffffffffffffffffffffffffffffffffffff16021790555080600460006101000a81548173ffffffffffffffffffffffffffffffffffffffff021916908373ffffffffffffffffffffffffffffffffffffffff160217905550506200039c565b60006200019f83836200028e60201b60201c565b6200028357600160008085815260200190815260200160002060000160008473ffffffffffffffffffffffffffffffffffffffff1673ffffffffffffffffffffffffffffffffffffffff16815260200190815260200160002060006101000a81548160ff0219169083151502179055506200021f620002f860201b60201c565b73ffffffffffffffffffffffffffffffffffffffff168273ffffffffffffffffffffffffffffffffffffffff16847f2f8788117e7eff1d82e926ec794901d17c78024a50270940304540a733656f0d60405160405180910390a46001905062000288565b600090505b92915050565b600080600084815260200190815260200160002060000160008373ffffffffffffffffffffffffffffffffffffffff1673ffffffffffffffffffffffffffffffffffffffff16815260200190815260200160002060009054906101000a900460ff16905092915050565b600033905090565b600080fd5b600073ffffffffffffffffffffffffffffffffffffffff82169050919050565b6000620003328262000305565b9050919050565b620003448162000325565b81146200035057600080fd5b50565b600081519050620003648162000339565b92915050565b60006020828403121562000383576200038262000300565b5b6000620003938482850162000353565b91505092915050565b6118ab80620003ac6000396000f3fe6080604052600436106101235760003560e01c8063a217fddf116100a0578063e7cea7f411610064578063e7cea7f41461042e578063ef1ee73214610457578063f0bd87cc14610482578063f288a2e2146104ad578063f53507f2146104d857610178565b8063a217fddf14610359578063d547741f14610384578063d6b74865146103ad578063da595774146103d8578063e3577e7b1461040357610178565b80632f2ff15d116100e75780632f2ff15d1461027657806336568abe1461029f5780635246cacb146102c8578063570ca735146102f157806391d148541461031c57610178565b806301ffc9a71461017d578063118bfe7e146101ba5780631de9d9b6146101e5578063236d37481461020e578063248a9ca31461023957610178565b36610178573373ffffffffffffffffffffffffffffffffffffffff167f8e47b87b0ef542cdfa1659c551d88bad38aa7f452d2bbb349ab7530dfec8be8f3460405161016e9190611225565b60405180910390a2005b600080fd5b34801561018957600080fd5b506101a4600480360381019061019f919061129d565b610503565b6040516101b191906112e5565b60405180910390f35b3480156101c657600080fd5b506101cf61057d565b6040516101dc9190611341565b60405180910390f35b3480156101f157600080fd5b5061020c60048036038101906102079190611388565b6105a3565b005b34801561021a57600080fd5b50610223610858565b6040516102309190611225565b60405180910390f35b34801561024557600080fd5b50610260600480360381019061025b91906113eb565b61085e565b60405161026d9190611427565b60405180910390f35b34801561028257600080fd5b5061029d60048036038101906102989190611442565b61087d565b005b3480156102ab57600080fd5b506102c660048036038101906102c19190611442565b61089f565b005b3480156102d457600080fd5b506102ef60048036038101906102ea9190611482565b61091a565b005b3480156102fd57600080fd5b50610306610a6f565b6040516103139190611341565b60405180910390f35b34801561032857600080fd5b50610343600480360381019061033e9190611442565b610a95565b60405161035091906112e5565b60405180910390f35b34801561036557600080fd5b5061036e610aff565b60405161037b9190611427565b60405180910390f35b34801561039057600080fd5b506103ab60048036038101906103a69190611442565b610b06565b005b3480156103b957600080fd5b506103c2610b28565b6040516103cf9190611341565b60405180910390f35b3480156103e457600080fd5b506103ed610b4e565b6040516103fa9190611225565b60405180910390f35b34801561040f57600080fd5b50610418610b54565b6040516104259190611341565b60405180910390f35b34801561043a57600080fd5b5061045560048036038101906104509190611515565b610b7a565b005b34801561046357600080fd5b5061046c610cbc565b6040516104799190611225565b60405180910390f35b34801561048e57600080fd5b50610497610cc2565b6040516104a49190611427565b60405180910390f35b3480156104b957600080fd5b506104c2610ce6565b6040516104cf9190611427565b60405180910390f35b3480156104e457600080fd5b506104ed610d0a565b6040516104fa9190611225565b60405180910390f35b60007f7965db0b000000000000000000000000000000000000000000000000000000007bffffffffffffffffffffffffffffffffffffffffffffffffffffffff1916827bffffffffffffffffffffffffffffffffffffffffffffffffffffffff19161480610576575061057582610d10565b5b9050919050565b600460009054906101000a900473ffffffffffffffffffffffffffffffffffffffff1681565b7ffbd454f36a7e1a388bd6fc3ab10d434aa4578f811acbbcf33afb1c697486313c6105cd81610d7a565b60008073ffffffffffffffffffffffffffffffffffffffff168373ffffffffffffffffffffffffffffffffffffffff160361060a57479050610687565b8273ffffffffffffffffffffffffffffffffffffffff166370a08231306040518263ffffffff1660e01b81526004016106439190611341565b602060405180830381865afa158015610660573d6000803e3d6000fd5b505050506040513d601f19601f82011682018060405250810190610684919061157d565b90505b600081116106ca576040517f08c379a00000000000000000000000000000000000000000000000000000000081526004016106c190611607565b60405180910390fd5b6000612710610fa0836106dd9190611656565b6106e791906116c7565b90506000612710610bb8846106fc9190611656565b61070691906116c7565b905060006127106107d08561071b9190611656565b61072591906116c7565b905060008183858761073791906116f8565b61074191906116f8565b61074b91906116f8565b905061077a87600160009054906101000a900473ffffffffffffffffffffffffffffffffffffffff1686610d8e565b6107a787600260009054906101000a900473ffffffffffffffffffffffffffffffffffffffff1685610d8e565b6107d487600360009054906101000a900473ffffffffffffffffffffffffffffffffffffffff1684610d8e565b61080187600460009054906101000a900473ffffffffffffffffffffffffffffffffffffffff1683610d8e565b8673ffffffffffffffffffffffffffffffffffffffff167fdf29796aad820e4bb192f3a8d631b76519bcd2cbe77cc85af20e9df53cece086866040516108479190611225565b60405180910390a250505050505050565b6103e881565b6000806000838152602001908152602001600020600101549050919050565b6108868261085e565b61088f81610d7a565b6108998383610eaf565b50505050565b6108a7610fa0565b73ffffffffffffffffffffffffffffffffffffffff168173ffffffffffffffffffffffffffffffffffffffff161461090b576040517f6697b23200000000000000000000000000000000000000000000000000000000815260040160405180910390fd5b6109158282610fa8565b505050565b6000801b61092781610d7a565b84600160006101000a81548173ffffffffffffffffffffffffffffffffffffffff021916908373ffffffffffffffffffffffffffffffffffffffff16021790555083600260006101000a81548173ffffffffffffffffffffffffffffffffffffffff021916908373ffffffffffffffffffffffffffffffffffffffff16021790555082600360006101000a81548173ffffffffffffffffffffffffffffffffffffffff021916908373ffffffffffffffffffffffffffffffffffffffff16021790555081600460006101000a81548173ffffffffffffffffffffffffffffffffffffffff021916908373ffffffffffffffffffffffffffffffffffffffff1602179055507f47a5df88bad4f3b7bdcb8e0e4310e4076e128efc4216cee8cd115c1600387e7c85858585604051610a60949392919061172c565b60405180910390a15050505050565b600260009054906101000a900473ffffffffffffffffffffffffffffffffffffffff1681565b600080600084815260200190815260200160002060000160008373ffffffffffffffffffffffffffffffffffffffff1673ffffffffffffffffffffffffffffffffffffffff16815260200190815260200160002060009054906101000a900460ff16905092915050565b6000801b81565b610b0f8261085e565b610b1881610d7a565b610b228383610fa8565b50505050565b600160009054906101000a900473ffffffffffffffffffffffffffffffffffffffff1681565b6107d081565b600360009054906101000a900473ffffffffffffffffffffffffffffffffffffffff1681565b7ffbd454f36a7e1a388bd6fc3ab10d434aa4578f811acbbcf33afb1c697486313c610ba481610d7a565b600073ffffffffffffffffffffffffffffffffffffffff168473ffffffffffffffffffffffffffffffffffffffff1603610c8a5760008373ffffffffffffffffffffffffffffffffffffffff1683604051610bfe906117a2565b60006040518083038185875af1925050503d8060008114610c3b576040519150601f19603f3d011682016040523d82523d6000602084013e610c40565b606091505b5050905080610c84576040517f08c379a0000000000000000000000000000000000000000000000000000000008152600401610c7b90611803565b60405180910390fd5b50610cb6565b610cb583838673ffffffffffffffffffffffffffffffffffffffff1661109a9092919063ffffffff16565b5b50505050565b610fa081565b7ffbd454f36a7e1a388bd6fc3ab10d434aa4578f811acbbcf33afb1c697486313c81565b7ff66846415d2bf9eabda9e84793ff9c0ea96d87f50fc41e66aa16469c6a442f0581565b610bb881565b60007f01ffc9a7000000000000000000000000000000000000000000000000000000007bffffffffffffffffffffffffffffffffffffffffffffffffffffffff1916827bffffffffffffffffffffffffffffffffffffffffffffffffffffffff1916149050919050565b610d8b81610d86610fa0565b611119565b50565b6000810315610eaa57600073ffffffffffffffffffffffffffffffffffffffff168373ffffffffffffffffffffffffffffffffffffffff1603610e7d5760008273ffffffffffffffffffffffffffffffffffffffff1682604051610df1906117a2565b60006040518083038185875af1925050503d8060008114610e2e576040519150601f19603f3d011682016040523d82523d6000602084013e610e33565b606091505b5050905080610e77576040517f08c379a0000000000000000000000000000000000000000000000000000000008152600401610e6e90611803565b60405180910390fd5b50610ea9565b610ea882828573ffffffffffffffffffffffffffffffffffffffff1661109a9092919063ffffffff16565b5b5b505050565b6000610ebb8383610a95565b610f9557600160008085815260200190815260200160002060000160008473ffffffffffffffffffffffffffffffffffffffff1673ffffffffffffffffffffffffffffffffffffffff16815260200190815260200160002060006101000a81548160ff021916908315150217905550610f32610fa0565b73ffffffffffffffffffffffffffffffffffffffff168273ffffffffffffffffffffffffffffffffffffffff16847f2f8788117e7eff1d82e926ec794901d17c78024a50270940304540a733656f0d60405160405180910390a460019050610f9a565b600090505b92915050565b600033905090565b6000610fb48383610a95565b1561108f57600080600085815260200190815260200160002060000160008473ffffffffffffffffffffffffffffffffffffffff1673ffffffffffffffffffffffffffffffffffffffff16815260200190815260200160002060006101000a81548160ff02191690831515021790555061102c610fa0565b73ffffffffffffffffffffffffffffffffffffffff168273ffffffffffffffffffffffffffffffffffffffff16847ff6391f5c32d9c69d2a47ea670b442974b53935d1edc7fd64eb21e047a839171b60405160405180910390a460019050611094565b600090505b92915050565b611114838473ffffffffffffffffffffffffffffffffffffffff1663a9059cbb85856040516024016110cd929190611823565b604051602081830303815290604052915060e01b6020820180517bffffffffffffffffffffffffffffffffffffffffffffffffffffffff838183161783525050505061116a565b505050565b6111238282610a95565b6111665780826040517fe2517d3f00000000000000000000000000000000000000000000000000000000815260040161115d92919061184c565b60405180910390fd5b5050565b600080602060008451602086016000885af18061118d576040513d6000823e3d81fd5b3d9250600051915050600082146111a85760018114156111c4565b60008473ffffffffffffffffffffffffffffffffffffffff163b145b1561120657836040517f5274afe70000000000000000000000000000000000000000000000000000000081526004016111fd9190611341565b60405180910390fd5b50505050565b6000819050919050565b61121f8161120c565b82525050565b600060208201905061123a6000830184611216565b92915050565b600080fd5b60007fffffffff0000000000000000000000000000000000000000000000000000000082169050919050565b61127a81611245565b811461128557600080fd5b50565b60008135905061129781611271565b92915050565b6000602082840312156112b3576112b2611240565b5b60006112c184828501611288565b91505092915050565b60008115159050919050565b6112df816112ca565b82525050565b60006020820190506112fa60008301846112d6565b92915050565b600073ffffffffffffffffffffffffffffffffffffffff82169050919050565b600061132b82611300565b9050919050565b61133b81611320565b82525050565b60006020820190506113566000830184611332565b92915050565b61136581611320565b811461137057600080fd5b50565b6000813590506113828161135c565b92915050565b60006020828403121561139e5761139d611240565b5b60006113ac84828501611373565b91505092915050565b6000819050919050565b6113c8816113b5565b81146113d357600080fd5b50565b6000813590506113e5816113bf565b92915050565b60006020828403121561140157611400611240565b5b600061140f848285016113d6565b91505092915050565b611421816113b5565b82525050565b600060208201905061143c6000830184611418565b92915050565b6000806040838503121561145957611458611240565b5b6000611467858286016113d6565b925050602061147885828601611373565b9150509250929050565b6000806000806080858703121561149c5761149b611240565b5b60006114aa87828801611373565b94505060206114bb87828801611373565b93505060406114cc87828801611373565b92505060606114dd87828801611373565b91505092959194509250565b6114f28161120c565b81146114fd57600080fd5b50565b60008135905061150f816114e9565b92915050565b60008060006060848603121561152e5761152d611240565b5b600061153c86828701611373565b935050602061154d86828701611373565b925050604061155e86828701611500565b9150509250925092565b600081519050611577816114e9565b92915050565b60006020828403121561159357611592611240565b5b60006115a184828501611568565b91505092915050565b600082825260208201905092915050565b7f4e6f2066756e647320746f206469737472696275746500000000000000000000600082015250565b60006115f16016836115aa565b91506115fc826115bb565b602082019050919050565b60006020820190508181036000830152611620816115e4565b9050919050565b7f4e487b7100000000000000000000000000000000000000000000000000000000600052601160045260246000fd5b60006116618261120c565b915061166c8361120c565b925082820261167a8161120c565b9150828204841483151761169157611690611627565b5b5092915050565b7f4e487b7100000000000000000000000000000000000000000000000000000000600052601260045260246000fd5b60006116d28261120c565b91506116dd8361120c565b9250826116ed576116ec611698565b5b828204905092915050565b60006117038261120c565b915061170e8361120c565b925082820390508181111561172657611725611627565b5b92915050565b60006080820190506117416000830187611332565b61174e6020830186611332565b61175b6040830185611332565b6117686060830184611332565b95945050505050565b600081905092915050565b50565b600061178c600083611771565b91506117978261177c565b600082019050919050565b60006117ad8261177f565b9150819050919050565b7f5472616e73666572206661696c65640000000000000000000000000000000000600082015250565b60006117ed600f836115aa565b91506117f8826117b7565b602082019050919050565b6000602082019050818103600083015261181c816117e0565b9050919050565b60006040820190506118386000830185611332565b6118456020830184611216565b9392505050565b60006040820190506118616000830185611332565b61186e6020830184611418565b939250505056fea264697066735822122062cc8c127d1f136366c6242bd9f6de7fc1077c61b00eafb3d55d3f14923d737a64736f6c63430008140033",
  "linkReferences": {},
  "deployedLinkReferences": {}
}