{
  "_format": "hh-sol-artifact-1",
  "contractName": "CommissionV2",
  "sourceName": "contracts/CommissionV2.sol",
  "abi": [
    {
      "inputs": [
        {
          "internalType": "address",
          "name": "_settlementToken",
          "type": "address"
        },
        {
          "internalType": "address",
          "name": "_platformTreasury",
          "type": "address"
        }
      ],
      "stateMutability": "nonpayable",
      "type": "constructor"
    },
    {
      "anonymous": false,
      "inputs": [
        {
          "indexed": true,
          "internalType": "bytes32",
          "name": "executionId",
          "type": "bytes32"
        },
        {
          "indexed": true,
          "internalType": "address",
          "name": "recipient",
          "type": "address"
        },
        {
          "indexed": false,
          "internalType": "uint256",
          "name": "amount",
          "type": "uint256"
        }
      ],
      "name": "AllocationClaimed",
      "type": "event"
    },
    {
      "anonymous": false,
      "inputs": [
        {
          "indexed": false,
          "internalType": "uint16",
          "name": "onrampFeeBps",
          "type": "uint16"
        },
        {
          "indexed": false,
          "internalType": "uint16",
          "name": "offrampFeeBps",
          "type": "uint16"
        },
        {
          "indexed": false,
          "internalType": "uint16",
          "name": "splitFeeBps",
          "type": "uint16"
        },
        {
          "indexed": false,
          "internalType": "uint256",
          "name": "minSplitFee",
          "type": "uint256"
        }
      ],
      "name": "FeeConfigUpdated",
      "type": "event"
    },
    {
      "anonymous": false,
      "inputs": [
        {
          "indexed": true,
          "internalType": "address",
          "name": "operator",
          "type": "address"
        },
        {
          "indexed": false,
          "internalType": "bool",
          "name": "authorized",
          "type": "bool"
        }
      ],
      "name": "OperatorUpdated",
      "type": "event"
    },
    {
      "anonymous": false,
      "inputs": [
        {
          "indexed": true,
          "internalType": "address",
          "name": "previousOwner",
          "type": "address"
        },
        {
          "indexed": true,
          "internalType": "address",
          "name": "newOwner",
          "type": "address"
        }
      ],
      "name": "OwnershipTransferred",
      "type": "event"
    },
    {
      "anonymous": false,
      "inputs": [
        {
          "indexed": false,
          "internalType": "address",
          "name": "account",
          "type": "address"
        }
      ],
      "name": "Paused",
      "type": "event"
    },
    {
      "anonymous": false,
      "inputs": [
        {
          "indexed": true,
          "internalType": "address",
          "name": "relayer",
          "type": "address"
        },
        {
          "indexed": false,
          "internalType": "bool",
          "name": "authorized",
          "type": "bool"
        }
      ],
      "name": "RelayerUpdated",
      "type": "event"
    },
    {
      "anonymous": false,
      "inputs": [
        {
          "indexed": true,
          "internalType": "bytes32",
          "name": "executionId",
          "type": "bytes32"
        },
        {
          "indexed": true,
          "internalType": "bytes32",
          "name": "planId",
          "type": "bytes32"
        },
        {
          "indexed": true,
          "internalType": "bytes32",
          "name": "sessionId",
          "type": "bytes32"
        },
        {
          "indexed": false,
          "internalType": "uint256",
          "name": "totalAmount",
          "type": "uint256"
        },
        {
          "indexed": false,
          "internalType": "uint256",
          "name": "platformFee",
          "type": "uint256"
        },
        {
          "indexed": false,
          "internalType": "enum CommissionV2.PaymentType",
          "name": "paymentType",
          "type": "uint8"
        }
      ],
      "name": "SplitExecuted",
      "type": "event"
    },
    {
      "anonymous": false,
      "inputs": [
        {
          "indexed": true,
          "internalType": "bytes32",
          "name": "planId",
          "type": "bytes32"
        },
        {
          "indexed": true,
          "internalType": "address",
          "name": "owner",
          "type": "address"
        },
        {
          "indexed": false,
          "internalType": "string",
          "name": "name",
          "type": "string"
        },
        {
          "indexed": false,
          "internalType": "uint256",
          "name": "rulesCount",
          "type": "uint256"
        }
      ],
      "name": "SplitPlanCreated",
      "type": "event"
    },
    {
      "anonymous": false,
      "inputs": [
        {
          "indexed": true,
          "internalType": "bytes32",
          "name": "planId",
          "type": "bytes32"
        },
        {
          "indexed": true,
          "internalType": "address",
          "name": "owner",
          "type": "address"
        },
        {
          "indexed": false,
          "internalType": "bool",
          "name": "active",
          "type": "bool"
        }
      ],
      "name": "SplitPlanUpdated",
      "type": "event"
    },
    {
      "anonymous": false,
      "inputs": [
        {
          "indexed": false,
          "internalType": "address",
          "name": "account",
          "type": "address"
        }
      ],
      "name": "Unpaused",
      "type": "event"
    },
    {
      "inputs": [],
      "name": "BASIS_POINTS",
      "outputs": [
        {
          "internalType": "uint16",
          "name": "",
          "type": "uint16"
        }
      ],
      "stateMutability": "view",
      "type": "function"
    },
    {
      "inputs": [],
      "name": "MICRO_UNIT",
      "outputs": [
        {
          "internalType": "uint256",
          "name": "",
          "type": "uint256"
        }
      ],
      "stateMutability": "view",
      "type": "function"
    },
    {
      "inputs": [
        {
          "internalType": "uint256",
          "name": "",
          "type": "uint256"
        }
      ],
      "name": "allPlanIds",
      "outputs": [
        {
          "internalType": "bytes32",
          "name": "",
          "type": "bytes32"
        }
      ],
      "stateMutability": "view",
      "type": "function"
    },
    {
      "inputs": [
        {
          "internalType": "uint256",
          "name": "_amount",
          "type": "uint256"
        },
        {
          "internalType": "enum CommissionV2.PaymentType",
          "name": "_paymentType",
          "type": "uint8"
        },
        {
          "components": [
            {
              "internalType": "uint16",
              "name": "onrampFeeBps",
              "type": "uint16"
            },
            {
              "internalType": "uint16",
              "name": "offrampFeeBps",
              "type": "uint16"
            },
            {
              "internalType": "uint16",
              "name": "splitFeeBps",
              "type": "uint16"
            },
            {
              "internalType": "uint256",
              "name": "minSplitFee",
              "type": "uint256"
            }
          ],
          "internalType": "struct CommissionV2.FeeConfig",
          "name": "_config",
          "type": "tuple"
        }
      ],
      "name": "calculatePlatformFee",
      "outputs": [
        {
          "internalType": "uint256",
          "name": "fee",
          "type": "uint256"
        }
      ],
      "stateMutability": "pure",
      "type": "function"
    },
    {
      "inputs": [],
      "name": "claimAll",
      "outputs": [],
      "stateMutability": "nonpayable",
      "type": "function"
    },
    {
      "inputs": [
        {
          "internalType": "bytes32",
          "name": "_executionId",
          "type": "bytes32"
        },
        {
          "internalType": "uint256",
          "name": "_index",
          "type": "uint256"
        }
      ],
      "name": "claimAllocation",
      "outputs": [],
      "stateMutability": "nonpayable",
      "type": "function"
    },
    {
      "inputs": [
        {
          "internalType": "string",
          "name": "_name",
          "type": "string"
        },
        {
          "internalType": "address[]",
          "name": "_recipients",
          "type": "address[]"
        },
        {
          "internalType": "uint16[]",
          "name": "_shares",
          "type": "uint16[]"
        },
        {
          "internalType": "string[]",
          "name": "_roles",
          "type": "string[]"
        },
        {
          "components": [
            {
              "internalType": "uint16",
              "name": "onrampFeeBps",
              "type": "uint16"
            },
            {
              "internalType": "uint16",
              "name": "offrampFeeBps",
              "type": "uint16"
            },
            {
              "internalType": "uint16",
              "name": "splitFeeBps",
              "type": "uint16"
            },
            {
              "internalType": "uint256",
              "name": "minSplitFee",
              "type": "uint256"
            }
          ],
          "internalType": "struct CommissionV2.FeeConfig",
          "name": "_feeConfig",
          "type": "tuple"
        }
      ],
      "name": "createSplitPlan",
      "outputs": [
        {
          "internalType": "bytes32",
          "name": "planId",
          "type": "bytes32"
        }
      ],
      "stateMutability": "nonpayable",
      "type": "function"
    },
    {
      "inputs": [],
      "name": "defaultFeeConfig",
      "outputs": [
        {
          "internalType": "uint16",
          "name": "onrampFeeBps",
          "type": "uint16"
        },
        {
          "internalType": "uint16",
          "name": "offrampFeeBps",
          "type": "uint16"
        },
        {
          "internalType": "uint16",
          "name": "splitFeeBps",
          "type": "uint16"
        },
        {
          "internalType": "uint256",
          "name": "minSplitFee",
          "type": "uint256"
        }
      ],
      "stateMutability": "view",
      "type": "function"
    },
    {
      "inputs": [
        {
          "internalType": "bytes32",
          "name": "_planId",
          "type": "bytes32"
        },
        {
          "internalType": "bytes32",
          "name": "_sessionId",
          "type": "bytes32"
        },
        {
          "internalType": "uint256",
          "name": "_amount",
          "type": "uint256"
        },
        {
          "internalType": "enum CommissionV2.PaymentType",
          "name": "_paymentType",
          "type": "uint8"
        }
      ],
      "name": "executeSplit",
      "outputs": [
        {
          "internalType": "bytes32",
          "name": "executionId",
          "type": "bytes32"
        }
      ],
      "stateMutability": "nonpayable",
      "type": "function"
    },
    {
      "inputs": [
        {
          "internalType": "bytes32",
          "name": "",
          "type": "bytes32"
        },
        {
          "internalType": "uint256",
          "name": "",
          "type": "uint256"
        }
      ],
      "name": "executionAllocations",
      "outputs": [
        {
          "internalType": "address",
          "name": "recipient",
          "type": "address"
        },
        {
          "internalType": "uint256",
          "name": "amount",
          "type": "uint256"
        },
        {
          "internalType": "uint256",
          "name": "fee",
          "type": "uint256"
        },
        {
          "internalType": "bool",
          "name": "claimed",
          "type": "bool"
        }
      ],
      "stateMutability": "view",
      "type": "function"
    },
    {
      "inputs": [
        {
          "internalType": "bytes32",
          "name": "",
          "type": "bytes32"
        }
      ],
      "name": "executions",
      "outputs": [
        {
          "internalType": "bytes32",
          "name": "executionId",
          "type": "bytes32"
        },
        {
          "internalType": "bytes32",
          "name": "planId",
          "type": "bytes32"
        },
        {
          "internalType": "bytes32",
          "name": "sessionId",
          "type": "bytes32"
        },
        {
          "internalType": "uint256",
          "name": "totalAmount",
          "type": "uint256"
        },
        {
          "internalType": "uint256",
          "name": "platformFee",
          "type": "uint256"
        },
        {
          "internalType": "address",
          "name": "token",
          "type": "address"
        },
        {
          "internalType": "uint256",
          "name": "executedAt",
          "type": "uint256"
        },
        {
          "internalType": "bool",
          "name": "completed",
          "type": "bool"
        }
      ],
      "stateMutability": "view",
      "type": "function"
    },
    {
      "inputs": [],
      "name": "getAllPlanIds",
      "outputs": [
        {
          "internalType": "bytes32[]",
          "name": "",
          "type": "bytes32[]"
        }
      ],
      "stateMutability": "view",
      "type": "function"
    },
    {
      "inputs": [
        {
          "internalType": "bytes32",
          "name": "_executionId",
          "type": "bytes32"
        }
      ],
      "name": "getExecution",
      "outputs": [
        {
          "components": [
            {
              "internalType": "bytes32",
              "name": "executionId",
              "type": "bytes32"
            },
            {
              "internalType": "bytes32",
              "name": "planId",
              "type": "bytes32"
            },
            {
              "internalType": "bytes32",
              "name": "sessionId",
              "type": "bytes32"
            },
            {
              "internalType": "uint256",
              "name": "totalAmount",
              "type": "uint256"
            },
            {
              "internalType": "uint256",
              "name": "platformFee",
              "type": "uint256"
            },
            {
              "internalType": "address",
              "name": "token",
              "type": "address"
            },
            {
              "internalType": "uint256",
              "name": "executedAt",
              "type": "uint256"
            },
            {
              "internalType": "bool",
              "name": "completed",
              "type": "bool"
            }
          ],
          "internalType": "struct CommissionV2.SplitExecution",
          "name": "",
          "type": "tuple"
        }
      ],
      "stateMutability": "view",
      "type": "function"
    },
    {
      "inputs": [
        {
          "internalType": "bytes32",
          "name": "_executionId",
          "type": "bytes32"
        }
      ],
      "name": "getExecutionAllocations",
      "outputs": [
        {
          "components": [
            {
              "internalType": "address",
              "name": "recipient",
              "type": "address"
            },
            {
              "internalType": "uint256",
              "name": "amount",
              "type": "uint256"
            },
            {
              "internalType": "uint256",
              "name": "fee",
              "type": "uint256"
            },
            {
              "internalType": "bool",
              "name": "claimed",
              "type": "bool"
            }
          ],
          "internalType": "struct CommissionV2.Allocation[]",
          "name": "",
          "type": "tuple[]"
        }
      ],
      "stateMutability": "view",
      "type": "function"
    },
    {
      "inputs": [
        {
          "internalType": "address",
          "name": "_owner",
          "type": "address"
        }
      ],
      "name": "getOwnerPlans",
      "outputs": [
        {
          "internalType": "bytes32[]",
          "name": "",
          "type": "bytes32[]"
        }
      ],
      "stateMutability": "view",
      "type": "function"
    },
    {
      "inputs": [
        {
          "internalType": "address",
          "name": "_account",
          "type": "address"
        }
      ],
      "name": "getPendingBalance",
      "outputs": [
        {
          "internalType": "uint256",
          "name": "",
          "type": "uint256"
        }
      ],
      "stateMutability": "view",
      "type": "function"
    },
    {
      "inputs": [
        {
          "internalType": "bytes32",
          "name": "_planId",
          "type": "bytes32"
        }
      ],
      "name": "getSplitPlan",
      "outputs": [
        {
          "internalType": "bytes32",
          "name": "planId",
          "type": "bytes32"
        },
        {
          "internalType": "address",
          "name": "owner_",
          "type": "address"
        },
        {
          "internalType": "string",
          "name": "name",
          "type": "string"
        },
        {
          "internalType": "bool",
          "name": "active",
          "type": "bool"
        },
        {
          "internalType": "uint256",
          "name": "rulesCount",
          "type": "uint256"
        },
        {
          "components": [
            {
              "internalType": "uint16",
              "name": "onrampFeeBps",
              "type": "uint16"
            },
            {
              "internalType": "uint16",
              "name": "offrampFeeBps",
              "type": "uint16"
            },
            {
              "internalType": "uint16",
              "name": "splitFeeBps",
              "type": "uint16"
            },
            {
              "internalType": "uint256",
              "name": "minSplitFee",
              "type": "uint256"
            }
          ],
          "internalType": "struct CommissionV2.FeeConfig",
          "name": "feeConfig",
          "type": "tuple"
        },
        {
          "internalType": "uint256",
          "name": "createdAt",
          "type": "uint256"
        }
      ],
      "stateMutability": "view",
      "type": "function"
    },
    {
      "inputs": [
        {
          "internalType": "bytes32",
          "name": "_planId",
          "type": "bytes32"
        }
      ],
      "name": "getSplitRules",
      "outputs": [
        {
          "components": [
            {
              "internalType": "address",
              "name": "recipient",
              "type": "address"
            },
            {
              "internalType": "uint16",
              "name": "shareBps",
              "type": "uint16"
            },
            {
              "internalType": "string",
              "name": "role",
              "type": "string"
            }
          ],
          "internalType": "struct CommissionV2.SplitRule[]",
          "name": "",
          "type": "tuple[]"
        }
      ],
      "stateMutability": "view",
      "type": "function"
    },
    {
      "inputs": [
        {
          "internalType": "address",
          "name": "",
          "type": "address"
        }
      ],
      "name": "operators",
      "outputs": [
        {
          "internalType": "bool",
          "name": "",
          "type": "bool"
        }
      ],
      "stateMutability": "view",
      "type": "function"
    },
    {
      "inputs": [],
      "name": "owner",
      "outputs": [
        {
          "internalType": "address",
          "name": "",
          "type": "address"
        }
      ],
      "stateMutability": "view",
      "type": "function"
    },
    {
      "inputs": [
        {
          "internalType": "address",
          "name": "",
          "type": "address"
        },
        {
          "internalType": "uint256",
          "name": "",
          "type": "uint256"
        }
      ],
      "name": "ownerPlans",
      "outputs": [
        {
          "internalType": "bytes32",
          "name": "",
          "type": "bytes32"
        }
      ],
      "stateMutability": "view",
      "type": "function"
    },
    {
      "inputs": [],
      "name": "pause",
      "outputs": [],
      "stateMutability": "nonpayable",
      "type": "function"
    },
    {
      "inputs": [],
      "name": "paused",
      "outputs": [
        {
          "internalType": "bool",
          "name": "",
          "type": "bool"
        }
      ],
      "stateMutability": "view",
      "type": "function"
    },
    {
      "inputs": [
        {
          "internalType": "address",
          "name": "",
          "type": "address"
        }
      ],
      "name": "pendingBalances",
      "outputs": [
        {
          "internalType": "uint256",
          "name": "",
          "type": "uint256"
        }
      ],
      "stateMutability": "view",
      "type": "function"
    },
    {
      "inputs": [],
      "name": "platformTreasury",
      "outputs": [
        {
          "internalType": "address",
          "name": "",
          "type": "address"
        }
      ],
      "stateMutability": "view",
      "type": "function"
    },
    {
      "inputs": [
        {
          "internalType": "address",
          "name": "",
          "type": "address"
        }
      ],
      "name": "relayers",
      "outputs": [
        {
          "internalType": "bool",
          "name": "",
          "type": "bool"
        }
      ],
      "stateMutability": "view",
      "type": "function"
    },
    {
      "inputs": [],
      "name": "renounceOwnership",
      "outputs": [],
      "stateMutability": "nonpayable",
      "type": "function"
    },
    {
      "inputs": [
        {
          "internalType": "address",
          "name": "_operator",
          "type": "address"
        },
        {
          "internalType": "bool",
          "name": "_authorized",
          "type": "bool"
        }
      ],
      "name": "setOperator",
      "outputs": [],
      "stateMutability": "nonpayable",
      "type": "function"
    },
    {
      "inputs": [
        {
          "internalType": "address",
          "name": "_treasury",
          "type": "address"
        }
      ],
      "name": "setPlatformTreasury",
      "outputs": [],
      "stateMutability": "nonpayable",
      "type": "function"
    },
    {
      "inputs": [
        {
          "internalType": "address",
          "name": "_relayer",
          "type": "address"
        },
        {
          "internalType": "bool",
          "name": "_authorized",
          "type": "bool"
        }
      ],
      "name": "setRelayer",
      "outputs": [],
      "stateMutability": "nonpayable",
      "type": "function"
    },
    {
      "inputs": [
        {
          "internalType": "bytes32",
          "name": "_planId",
          "type": "bytes32"
        },
        {
          "internalType": "bool",
          "name": "_active",
          "type": "bool"
        }
      ],
      "name": "setSplitPlanActive",
      "outputs": [],
      "stateMutability": "nonpayable",
      "type": "function"
    },
    {
      "inputs": [],
      "name": "settlementToken",
      "outputs": [
        {
          "internalType": "contract IERC20",
          "name": "",
          "type": "address"
        }
      ],
      "stateMutability": "view",
      "type": "function"
    },
    {
      "inputs": [
        {
          "internalType": "bytes32",
          "name": "",
          "type": "bytes32"
        }
      ],
      "name": "splitPlans",
      "outputs": [
        {
          "internalType": "bytes32",
          "name": "planId",
          "type": "bytes32"
        },
        {
          "internalType": "address",
          "name": "owner",
          "type": "address"
        },
        {
          "internalType": "string",
          "name": "name",
          "type": "string"
        },
        {
          "components": [
            {
              "internalType": "uint16",
              "name": "onrampFeeBps",
              "type": "uint16"
            },
            {
              "internalType": "uint16",
              "name": "offrampFeeBps",
              "type": "uint16"
            },
            {
              "internalType": "uint16",
              "name": "splitFeeBps",
              "type": "uint16"
            },
            {
              "internalType": "uint256",
              "name": "minSplitFee",
              "type": "uint256"
            }
          ],
          "internalType": "struct CommissionV2.FeeConfig",
          "name": "feeConfig",
          "type": "tuple"
        },
        {
          "internalType": "bool",
          "name": "active",
          "type": "bool"
        },
        {
          "internalType": "uint256",
          "name": "createdAt",
          "type": "uint256"
        },
        {
          "internalType": "uint256",
          "name": "updatedAt",
          "type": "uint256"
        }
      ],
      "stateMutability": "view",
      "type": "function"
    },
    {
      "inputs": [
        {
          "internalType": "address",
          "name": "newOwner",
          "type": "address"
        }
      ],
      "name": "transferOwnership",
      "outputs": [],
      "stateMutability": "nonpayable",
      "type": "function"
    },
    {
      "inputs": [],
      "name": "unpause",
      "outputs": [],
      "stateMutability": "nonpayable",
      "type": "function"
    },
    {
      "inputs": [
        {
          "internalType": "uint16",
          "name": "_onrampFeeBps",
          "type": "uint16"
        },
        {
          "internalType": "uint16",
          "name": "_offrampFeeBps",
          "type": "uint16"
        },
        {
          "internalType": "uint16",
          "name": "_splitFeeBps",
          "type": "uint16"
        },
        {
          "internalType": "uint256",
          "name": "_minSplitFee",
          "type": "uint256"
        }
      ],
      "name": "updateDefaultFeeConfig",
      "outputs": [],
      "stateMutability": "nonpayable",
      "type": "function"
    }
  ],
  "bytecode": "0x608034620001bf5762002a466001600160401b03601f38839003908101601f191684019082821185831017620001c45780859160409586948552833981010312620001bf576200005d60206200005585620001da565b9401620001da565b60008054336001600160a01b03198083168217845586519397949093926001600160a01b03929083167f8be0079c531659141344cd1fd0a4f28419497f9722a3daafe3b4186f6b6457e08a80a36001805560025492828616156200018d5750169283156200015657610100600160a81b039060081b169060018060a81b03191617600255600354161760035581519060808201908282109082111762000142578252600a8082526020820152601e82820152620186a060609091018190526004805465ffffffffffff1916641e000a000a179055600555516128569081620001f08239f35b634e487b7160e01b84526041600452602484fd5b855162461bcd60e51b815260206004820152601060248201526f496e76616c696420747265617375727960801b6044820152606490fd5b62461bcd60e51b815260206004820152600d60248201526c24b73b30b634b2103a37b5b2b760991b6044820152606490fd5b600080fd5b634e487b7160e01b600052604160045260246000fd5b51906001600160a01b0382168203620001bf5756fe6080604052600436101561001257600080fd5b60e0600035811c9081630afba82814611f3b5781630fe11ab314611e3257816313e7c9d814611df35781632bb3f24114611d7b5781633f4ba83a14611ce7578163488d71dc14611c9657816351d550d2146107105781635300f84114611c57578163558a729714611bdf5781635c975abb14611bbc578163671a97bb14611ab9578163715018a614611a60578163752befa4146118ad5781637b9e618d146118805781637cd86d60146118005781638456cb59146117a657816384a718841461174e5781638da5cb5b1461172557816396150e081461169e5781639e2877b214611656578163a2d9035e14611518578163a8a348f11461144b57508063b1af9e4914611332578063ba14dee81461122d578063bbec434e1461120f578063c7be28321461118b578063d1058e59146110fa578063d58e8c5514610985578063dd604bd71461089a578063e138818c14610871578063e1f1c4a714610854578063ea6c2c35146107c9578063ecd8dc3a1461074a578063ecdae41b14610710578063ef725245146102745763f2fde38b146101ab57600080fd5b3461026f57602036600319011261026f576101c4611fec565b6101cc612271565b6001600160a01b0390811690811561021b57600054826001600160601b0360a01b821617600055167f8be0079c531659141344cd1fd0a4f28419497f9722a3daafe3b4186f6b6457e0600080a3005b60405162461bcd60e51b815260206004820152602660248201527f4f776e61626c653a206e6577206f776e657220697320746865207a65726f206160448201526564647265737360d01b6064820152608490fd5b600080fd5b3461026f57608036600319011261026f576004606435101561026f57610298612569565b6102a0612525565b33600052600d60205260ff6040600020541680156106fc575b156106c9576004356000526006602052604060002060ff60068201541615610692576044351561065c576102fd6102f260048301612208565b6064356044356123f4565b610309816044356124da565b91604051602081019060043582526024356040820152426060820152606081526103328161210b565b519020806000526009602052604060002091818355600435600184015560243560028401556044356003840155836004840155600254600584019060018060a01b039060081c166001600160601b0360a01b82541617905542600684015560ff19600784015416600784015560009260005b60038301548110156104f8576103c66103c082600386016123b8565b506124e7565b906103e76127106103df61ffff6020860151168b6123d4565b0480976123e7565b9585600052600a60205260406000209260018060a01b03815116936040519461040f8661210b565b855282602086015260006040860152600060608601528054600160401b8110156104e25761044291600182018155611fd0565b9490946104cc576104c7946003606061049b9360018060a01b038151166001600160601b0360a01b85541617845560208101516001850155604081015160028501550151151591019060ff801983541691151516179055565b516001600160a01b03166000908152600b60205260409020805490916104c0916123e7565b9055612307565b6103a4565b634e487b7160e01b600052600060045260246000fd5b634e487b7160e01b600052604160045260246000fd5b5094909193928082118061064f575b6105e2575b50505080610576575b6020926007600160ff1982840154161791015560405190604435825283820152606435604082015260243590827f7b07a03f48dd677ea1eb046d8e8ad2dd6144c1af65ead6811b2b43959030cac1606060043593a460018055604051908152f35b6002546003546040516323b872dd60e01b60208201523360248201526001600160a01b0391821660448201526064808201859052815260089290921c16939060a08101906001600160401b038211818310176104e2576020956105db926040526125bf565b9250610515565b6105f160039161061f936124da565b9285600052600a602052600161060a6040600020611fbb565b50016106178582546123e7565b905501611fbb565b50546001600160a01b03166000908152600b6020526040902080549091610645916123e7565b905583808061050c565b5060038301541515610507565b60405162461bcd60e51b815260206004820152600e60248201526d125b9d985b1a5908185b5bdd5b9d60921b6044820152606490fd5b60405162461bcd60e51b815260206004820152600f60248201526e506c616e206e6f742061637469766560881b6044820152606490fd5b60405162461bcd60e51b815260206004820152600b60248201526a2737ba103932b630bcb2b960a91b6044820152606490fd5b506000546001600160a01b031633146102b9565b3461026f57602036600319011261026f576001600160a01b03610731611fec565b16600052600b6020526020604060002054604051908152f35b3461026f57604036600319011261026f57610763611fec565b7f4b36b2e66f38ed349bec532105790177f1283bcbc094e6cd48565195d3033c43602061078e612055565b92610797612271565b6001600160a01b03166000818152600d835260409020805460ff191660ff86151516179055925b6040519015158152a2005b3461026f57600036600319011261026f57604051806008549182815260208091019260086000527ff3f7a9fe364faab93b216da50a3214154f22a0a2b415b23a84c8169e8b636ee3916000905b82821061083d576108398561082d81890382612141565b60405191829182612002565b0390f35b835486529485019460019384019390910190610816565b3461026f57600036600319011261026f5760206040516127108152f35b3461026f57600036600319011261026f576003546040516001600160a01b039091168152602090f35b3461026f57602036600319011261026f57600060606040516108bb8161210b565b828152826020820152826040820152015260043560005260066020526040600020805460018060a01b036001830154169160ff6006820154169061097b60038201549160078101549261093e61091f600461091860028601612162565b9401612208565b92604051988998895260208901526101408060408a0152880190612064565b9415156060870152608086015260a08501906060809161ffff80825116855280602083015116602086015260408201511660408501520151910152565b6101208301520390f35b3461026f5761010036600319011261026f576001600160401b036004351161026f5736602360043501121561026f576001600160401b03600435600401351161026f573660246004356004013560043501011161026f576024356001600160401b03811161026f576109fb903690600401612241565b906044356001600160401b03811161026f57610a1b903690600401612241565b916064356001600160401b03811161026f57610a3b903690600401612241565b9390608036608319011261026f57610a548287146122c9565b610a5f8587146122c9565b85156110c5576000805b838110611080575061ffff61271091160361104257600854610ac9607460405180933360601b6020830152600435600401356024600435016034840137600435600401358201904260348301526054820152036054810184520182612141565b602081519101209485600052600660205260406000209286845560018401336001600160601b0360a01b825416179055610b1960043560040135610b1060028701546120b5565b60028701612335565b6000601f6004356004013511600114610fb65760009060043560040135610fa6575b506004356004013560011b906000196004356004013560031b1c19161760028501555b60843561ffff8116810361026f57600485015461ffff60a4351660a4350361026f5761ffff60c4351660c4350361026f5761ffff65ffff0000000060c43560201b1692169065ffffffffffff19161763ffff000060a43560101b161717600485015560e435600585015560068401600160ff1982541617905542600785015542600885015560005b888110610d0b578888336000526007602052604060002091825492600160401b93848110156104e257610c1e9160018201815561203d565b81549060031b9084821b91600019901b1916179055600854928310156104e2576001830180600855831015610cf5578160209360086000527ff3f7a9fe364faab93b216da50a3214154f22a0a2b415b23a84c8169e8b636ee30155604051906040825260043560040135604083015260043560040135602460043501606084013760006060600435600401358401015283820152817fbae5ad4685513d7165d7672eebfa010285cd04734c6b39204355ae059b845d3b3392606081601f19601f6004356004013501168101030190a3604051908152f35b634e487b7160e01b600052603260045260246000fd5b6001600160a01b03610d26610d21838c8a612316565b612389565b1615610f6d57610d3a610d21828b89612316565b610d4d610d4883858b612316565b612326565b84831015610cf557601e19863603018360051b870135121561026f576001600160401b038360051b8701358701351161026f57600583901b86013586018035360360209091011361026f5761ffff9060405192610da984612126565b6001600160a01b03168352166020820152610dcd600583901b86013586013561239d565b610dda6040519182612141565b600583901b860135860180358083523691016020011161026f57600583901b8601358601803590602090810190830137600060208460051b8801358801358301015260408201526003860154600160401b8110156104e257806001610e4892016003890155600388016123b8565b9190916104cc5780518254602083015161ffff60a01b60a09190911b166001600160a01b039092166001600160b01b031990911617178255604001518051906001600160401b0382116104e257610eaf82610ea660018601546120b5565b60018601612335565b602090601f8311600114610ef9579180600192610ee9969594600092610eee575b5050600019600383901b1c191690821b17910155612307565b610be6565b015190508e80610ed0565b906001840160005260206000209160005b601f1985168110610f555750926001928392610ee997969583601f19811610610f3c575b505050811b01910155612307565b015160001960f88460031b161c191690558e8080610f2e565b91926020600181928685015181550194019201610f0a565b60405162461bcd60e51b8152602060048201526011602482015270125b9d985b1a59081c9958da5c1a595b9d607a1b6044820152606490fd5b6024915060043501013589610b3b565b6002850160005260206000209060005b600480350135601f191681106110255750600480350135601f19811610611000575b5050600160043560040135811b016002850155610b5e565b602460001960f86004356004013560031b161c19916004350101351690558880610fe8565b909160206001819260248660043501013581550193019101610fc6565b60405162461bcd60e51b8152602060048201526016602482015275536861726573206d75737420657175616c203130302560501b6044820152606490fd5b9061ffff908180611095610d4886898c612316565b169116019081116110af576110aa9091612307565b610a69565b634e487b7160e01b600052601160045260246000fd5b60405162461bcd60e51b815260206004820152600d60248201526c4e6f20726563697069656e747360981b6044820152606490fd5b3461026f57600036600319011261026f57611113612569565b33600052600b60205260406000205461112d81151561278c565b336000818152600b602052604081205560025461115791839160081c6001600160a01b03166127cb565b60405190815260007f59710a54b5aee84f813febcf6f067dcb59867806ed3b4b0560ea6bac2972a5aa60203393a360018055005b3461026f5760c036600319011261026f57602435600481101561026f57608036604319011261026f576040516111c08161210b565b6111c86120a4565b815261ffff90606435828116810361026f576020820152608435918216820361026f5760209261120792604083015260a43560608301526004356123f4565b604051908152f35b3461026f57600036600319011261026f576020604051620f42408152f35b3461026f5760208060031936011261026f57600435600052600a8152604060002090815461125a81612809565b906112686040519283612141565b8082528282018094600052836000206000915b8383106112e65760408051878152865181890181905289928201908960005b8281106112a75784840385f35b855180516001600160a01b031685528083015185840152604080820151908601526060908101511515908501529481019460809093019260010161129a565b6004866001926040516112f88161210b565b848060a01b03865416815284860154838201526002860154604082015260ff6003870154161515606082015281520192019201919061127b565b3461026f57604036600319011261026f5760043561134e612055565b90806000526006602052604060002060018060a01b0380600183015416331490811561143d575b5015611407578054156113d15761139b83600683019060ff801983541691151516179055565b60084291015560405191151582527f9dfe12343a3f4124cb740ef298574253f7313a767cc3371a0d7f71a3e1ce81cb60203393a3005b60405162461bcd60e51b815260206004820152600e60248201526d141b185b881b9bdd08199bdd5b9960921b6044820152606490fd5b60405162461bcd60e51b815260206004820152600e60248201526d139bdd08185d5d1a1bdc9a5e995960921b6044820152606490fd5b905060005416331484611375565b3461026f57602036600319011261026f576004356000908152600660205260409020805460018201546001600160a01b031692909161148c60028201612162565b9061149960048201612208565b9260ff6006830154166115026114d16008600786015495015495604051998a998a5260208a01526101408060408b0152890190612064565b9560608801906060809161ffff80825116855280602083015116602086015260408201511660408501520151910152565b1515908501526101008401526101208301520390f35b3461026f5761154761152936611fa5565b611534929192612569565b82600052600a6020526040600020611fd0565b5080546001600160a01b03919082163303611621576003810191825460ff81166115ea5760016115b6930193600185549261158384151561278c565b60ff191617905533600052600b6020526115a360406000209182546124da565b905560025460081c1682549033906127cb565b54906040519182527f59710a54b5aee84f813febcf6f067dcb59867806ed3b4b0560ea6bac2972a5aa60203393a360018055005b60405162461bcd60e51b815260206004820152600f60248201526e105b1c9958591e4818db185a5b5959608a1b6044820152606490fd5b60405162461bcd60e51b815260206004820152600d60248201526c139bdd081c9958da5c1a595b9d609a1b6044820152606490fd5b3461026f57600036600319011261026f576004546005546040805161ffff8085168252601085901c81166020808401919091529490941c909316908301526060820152608090f35b3461026f57602036600319011261026f576101009060043560005260096020526040600020908154916001810154906002810154600382015460048301549060018060a01b036005850154169260ff600760068701549601541695604051988952602089015260408801526060870152608086015260a085015260c0840152151590820152f35b3461026f57600036600319011261026f576000546040516001600160a01b039091168152602090f35b3461026f57604036600319011261026f57611767611fec565b6001600160a01b031660009081526007602052604090208054602435919082101561026f576020916117989161203d565b90546040519160031b1c8152f35b3461026f57600036600319011261026f576117bf612271565b6117c7612525565b600160ff1960025416176002557f62e78cea01bee320cd4e420270b5ea74000d11b0c9f74754ebdbfc544b05a2586020604051338152a1005b3461026f57602036600319011261026f57611819611fec565b611821612271565b6001600160a01b03168015611848576001600160601b0360a01b6003541617600355600080f35b60405162461bcd60e51b815260206004820152601060248201526f496e76616c696420747265617375727960801b6044820152606490fd5b3461026f57600036600319011261026f5760025460405160089190911c6001600160a01b03168152602090f35b3461026f57608036600319011261026f5761ffff6004358181169081810361026f57602435918383169081840361026f576118e66120a4565b9160648035966118f4612271565b818411611a27578183116119ed578416908082116119b65750918660606119b195937f3c8e502a352c679654c374ba722158f87d180a3dd0ba08613a9c2a478fd6cb789995604051916119468361210b565b8583526020830152604082015201526004549065ffff000000008360201b169165ffffffffffff19161763ffff00008760101b16171760045581600555604051948594859094939291606092608083019661ffff928380921685521660208401521660408201520152565b0390a1005b60405162461bcd60e51b81526020600482015260126024820152710a6e0d8d2e840cccaca40e8dede40d0d2ced60731b6044820152fd5b5060405162461bcd60e51b815260206004820152601460248201527309ecccce4c2dae040cccaca40e8dede40d0d2ced60631b6044820152fd5b5060405162461bcd60e51b815260206004820152601360248201527209edce4c2dae040cccaca40e8dede40d0d2ced606b1b6044820152fd5b3461026f57600036600319011261026f57611a79612271565b600080546001600160a01b0319811682556001600160a01b03167f8be0079c531659141344cd1fd0a4f28419497f9722a3daafe3b4186f6b6457e08280a3005b3461026f5760208060031936011261026f5760043560005260068152600360406000200190815491611aea83612809565b92611af86040519485612141565b8084528284018092600052836000206000915b838310611b995750505050604051918083019381845251809452604083019360408160051b85010192916000955b828710611b465785850386f35b909192938280611b89600193603f198a820301865260408951868060a01b03815116835261ffff8582015116858401520151906060908160408201520190612064565b9601920196019592919092611b39565b600286600192611bab859a999a6124e7565b815201920192019190959495611b0b565b3461026f57600036600319011261026f57602060ff600254166040519015158152f35b3461026f57604036600319011261026f57611bf8611fec565b7f966c160e1c4dbc7df8d69af4ace01e9297c3cf016397b7914971f2fbfa32672d6020611c23612055565b92611c2c612271565b6001600160a01b03166000818152600c835260409020805460ff191660ff86151516179055926107be565b3461026f57602036600319011261026f576001600160a01b03611c78611fec565b16600052600d602052602060ff604060002054166040519015158152f35b3461026f57602036600319011261026f5760043560085481101561026f5760209060086000527ff3f7a9fe364faab93b216da50a3214154f22a0a2b415b23a84c8169e8b636ee30154604051908152f35b3461026f57600036600319011261026f57611d00612271565b60025460ff811615611d3f5760ff19166002557f5db9ee0a495bf2e6ff9c91a7834c1ba4fdd244a5e8aa4e537bd38aeae4b073aa6020604051338152a1005b60405162461bcd60e51b815260206004820152601460248201527314185d5cd8589b194e881b9bdd081c185d5cd95960621b6044820152606490fd5b3461026f5760208060031936011261026f576001600160a01b03611d9d611fec565b1660005260078152604060002090604051908181845491828152019360005281600020916000905b828210611ddc576108398561082d81890382612141565b835486529485019460019384019390910190611dc5565b3461026f57602036600319011261026f576001600160a01b03611e14611fec565b16600052600c602052602060ff604060002054166040519015158152f35b3461026f57602036600319011261026f5780600061010092604051611e56816120ef565b8281528260208201528260408201528260608201528260808201528260a08201528260c082015201526004356000526009602052604060002090604051611e9c816120ef565b825492838252600181015460208301908152600282015490604084019182526003830154606085019081526004840154906080860191825260018060a01b0393846005870154169360a088019485528860ff600760068a01549960c08c019a8b5201541698019715158852604051998a525160208a0152516040890152516060880152516080870152511660a08501525160c084015251151590820152f35b3461026f57611f4936611fa5565b90600052600a6020526040600020805482101561026f57608091611f6c91611fd0565b5060018060a01b038154169060018101549060ff6003600283015492015416916040519384526020840152604083015215156060820152f35b604090600319011261026f576004359060243590565b805415610cf557600052602060002090600090565b8054821015610cf55760005260206000209060021b0190600090565b600435906001600160a01b038216820361026f57565b6020908160408183019282815285518094520193019160005b828110612029575050505090565b83518552938101939281019260010161201b565b8054821015610cf55760005260206000200190600090565b60243590811515820361026f57565b919082519283825260005b848110612090575050826000602080949584010152601f8019910116010190565b60208183018101518483018201520161206f565b6044359061ffff8216820361026f57565b90600182811c921680156120e5575b60208310146120cf57565b634e487b7160e01b600052602260045260246000fd5b91607f16916120c4565b61010081019081106001600160401b038211176104e257604052565b608081019081106001600160401b038211176104e257604052565b606081019081106001600160401b038211176104e257604052565b90601f801991011681019081106001600160401b038211176104e257604052565b9060405191826000825492612176846120b5565b9081845260019485811690816000146121e557506001146121a2575b50506121a092500383612141565b565b9093915060005260209081600020936000915b8183106121cd5750506121a093508201013880612192565b855488840185015294850194879450918301916121b5565b9150506121a094506020925060ff191682840152151560051b8201013880612192565b906040516122158161210b565b606060018294805461ffff908181168652818160101c16602087015260201c1660408501520154910152565b9181601f8401121561026f578235916001600160401b03831161026f576020808501948460051b01011161026f57565b6000546001600160a01b0316330361228557565b606460405162461bcd60e51b815260206004820152602060248201527f4f776e61626c653a2063616c6c6572206973206e6f7420746865206f776e65726044820152fd5b156122d057565b60405162461bcd60e51b815260206004820152600f60248201526e098cadccee8d040dad2e6dac2e8c6d608b1b6044820152606490fd5b60001981146110af5760010190565b9190811015610cf55760051b0190565b3561ffff8116810361026f5790565b90601f811161234357505050565b600091825260208220906020601f850160051c8301941061237f575b601f0160051c01915b82811061237457505050565b818155600101612368565b909250829061235f565b356001600160a01b038116810361026f5790565b6001600160401b0381116104e257601f01601f191660200190565b8054821015610cf55760005260206000209060011b0190600090565b818102929181159184041417156110af57565b919082018092116110af57565b9291909260048410156124915783156124d2576127109161ffff908361242083604084015116856123d4565b049560608201518088106124ca575b5060006001821480156124c0575b6124a7575b6124915760028114908115612486575b5061245e575b50505050565b9161247591602061247c96979594015116906123d4565b04906123e7565b9038808080612458565b600391501438612452565b634e487b7160e01b600052602160045260246000fd5b966124ba908661247586865116886123d4565b96612442565b506003821461243d565b96503861242f565b506000925050565b919082039182116110af57565b906040516124f481612126565b82546001600160a01b038116825260a01c61ffff16602082015291829060409061252090600101612162565b910152565b60ff6002541661253157565b60405162461bcd60e51b815260206004820152601060248201526f14185d5cd8589b194e881c185d5cd95960821b6044820152606490fd5b60026001541461257a576002600155565b60405162461bcd60e51b815260206004820152601f60248201527f5265656e7472616e637947756172643a207265656e7472616e742063616c6c006044820152606490fd5b60018060a01b03169060405160408101908082106001600160401b038311176104e25761264e916040526020938482527f5361666545524332303a206c6f772d6c6576656c2063616c6c206661696c6564858301526000808587829751910182855af13d156126eb573d916126338361239d565b926126416040519485612141565b83523d868885013e6126ef565b8051918215918483156126c0575b5050509050156126695750565b6084906040519062461bcd60e51b82526004820152602a60248201527f5361666545524332303a204552433230206f7065726174696f6e20646964206e6044820152691bdd081cdd58d8d9595960b21b6064820152fd5b9193818094500103126126e7578201519081151582036126e457508038808461265c565b80fd5b5080fd5b6060915b919290156127515750815115612703575090565b3b1561270c5790565b60405162461bcd60e51b815260206004820152601d60248201527f416464726573733a2063616c6c20746f206e6f6e2d636f6e74726163740000006044820152606490fd5b8251909150156127645750805190602001fd5b60405162461bcd60e51b815260206004820152908190612788906024830190612064565b0390fd5b1561279357565b60405162461bcd60e51b815260206004820152601060248201526f4e6f7468696e6720746f20636c61696d60801b6044820152606490fd5b60405163a9059cbb60e01b60208201526001600160a01b0390921660248301526044808301939093529181526121a0916128048261210b565b6125bf565b6001600160401b0381116104e25760051b6020019056fea26469706673582212200dc2731ce059413a30c451d43256beb4410b4acb45a5220a2d8ed6d94b0db2ac64736f6c63430008140033",
  "linkReferences": {},
  "deployedLinkReferences": {}
}