{
  "_format": "hh-sol-artifact-1",
  "contractName": "CommissionV2",
  "sourceName": "contracts/CommissionV2.sol",
  "abi": [
    {
      "inputs": [
        {
          "internalType": "address",
          "name": "_settlementToken",
          "type": "address"
        },
        {
          "internalType": "address",
          "name": "_platformTreasury",
          "type": "address"
        }
      ],
      "stateMutability": "nonpayable",
      "type": "constructor"
    },
    {
      "anonymous": false,
      "inputs": [
        {
          "indexed": true,
          "internalType": "bytes32",
          "name": "executionId",
          "type": "bytes32"
        },
        {
          "indexed": true,
          "internalType": "address",
          "name": "recipient",
          "type": "address"
        },
        {
          "indexed": false,
          "internalType": "uint256",
          "name": "amount",
          "type": "uint256"
        }
      ],
      "name": "AllocationClaimed",
      "type": "event"
    },
    {
      "anonymous": false,
      "inputs": [
        {
          "indexed": false,
          "internalType": "uint16",
          "name": "onrampFeeBps",
          "type": "uint16"
        },
        {
          "indexed": false,
          "internalType": "uint16",
          "name": "offrampFeeBps",
          "type": "uint16"
        },
        {
          "indexed": false,
          "internalType": "uint16",
          "name": "splitFeeBps",
          "type": "uint16"
        },
        {
          "indexed": false,
          "internalType": "uint256",
          "name": "minSplitFee",
          "type": "uint256"
        }
      ],
      "name": "FeeConfigUpdated",
      "type": "event"
    },
    {
      "anonymous": false,
      "inputs": [
        {
          "indexed": true,
          "internalType": "address",
          "name": "operator",
          "type": "address"
        },
        {
          "indexed": false,
          "internalType": "bool",
          "name": "authorized",
          "type": "bool"
        }
      ],
      "name": "OperatorUpdated",
      "type": "event"
    },
    {
      "anonymous": false,
      "inputs": [
        {
          "indexed": true,
          "internalType": "address",
          "name": "previousOwner",
          "type": "address"
        },
        {
          "indexed": true,
          "internalType": "address",
          "name": "newOwner",
          "type": "address"
        }
      ],
      "name": "OwnershipTransferred",
      "type": "event"
    },
    {
      "anonymous": false,
      "inputs": [
        {
          "indexed": false,
          "internalType": "address",
          "name": "account",
          "type": "address"
        }
      ],
      "name": "Paused",
      "type": "event"
    },
    {
      "anonymous": false,
      "inputs": [
        {
          "indexed": true,
          "internalType": "address",
          "name": "relayer",
          "type": "address"
        },
        {
          "indexed": false,
          "internalType": "bool",
          "name": "authorized",
          "type": "bool"
        }
      ],
      "name": "RelayerUpdated",
      "type": "event"
    },
    {
      "anonymous": false,
      "inputs": [
        {
          "indexed": true,
          "internalType": "bytes32",
          "name": "executionId",
          "type": "bytes32"
        },
        {
          "indexed": true,
          "internalType": "bytes32",
          "name": "planId",
          "type": "bytes32"
        },
        {
          "indexed": true,
          "internalType": "bytes32",
          "name": "sessionId",
          "type": "bytes32"
        },
        {
          "indexed": false,
          "internalType": "uint256",
          "name": "totalAmount",
          "type": "uint256"
        },
        {
          "indexed": false,
          "internalType": "uint256",
          "name": "platformFee",
          "type": "uint256"
        },
        {
          "indexed": false,
          "internalType": "enum CommissionV2.PaymentType",
          "name": "paymentType",
          "type": "uint8"
        }
      ],
      "name": "SplitExecuted",
      "type": "event"
    },
    {
      "anonymous": false,
      "inputs": [
        {
          "indexed": true,
          "internalType": "bytes32",
          "name": "planId",
          "type": "bytes32"
        },
        {
          "indexed": true,
          "internalType": "address",
          "name": "owner",
          "type": "address"
        },
        {
          "indexed": false,
          "internalType": "string",
          "name": "name",
          "type": "string"
        },
        {
          "indexed": false,
          "internalType": "uint256",
          "name": "rulesCount",
          "type": "uint256"
        }
      ],
      "name": "SplitPlanCreated",
      "type": "event"
    },
    {
      "anonymous": false,
      "inputs": [
        {
          "indexed": true,
          "internalType": "bytes32",
          "name": "planId",
          "type": "bytes32"
        },
        {
          "indexed": true,
          "internalType": "address",
          "name": "owner",
          "type": "address"
        },
        {
          "indexed": false,
          "internalType": "bool",
          "name": "active",
          "type": "bool"
        }
      ],
      "name": "SplitPlanUpdated",
      "type": "event"
    },
    {
      "anonymous": false,
      "inputs": [
        {
          "indexed": false,
          "internalType": "address",
          "name": "account",
          "type": "address"
        }
      ],
      "name": "Unpaused",
      "type": "event"
    },
    {
      "inputs": [],
      "name": "BASIS_POINTS",
      "outputs": [
        {
          "internalType": "uint16",
          "name": "",
          "type": "uint16"
        }
      ],
      "stateMutability": "view",
      "type": "function"
    },
    {
      "inputs": [],
      "name": "MICRO_UNIT",
      "outputs": [
        {
          "internalType": "uint256",
          "name": "",
          "type": "uint256"
        }
      ],
      "stateMutability": "view",
      "type": "function"
    },
    {
      "inputs": [
        {
          "internalType": "uint256",
          "name": "",
          "type": "uint256"
        }
      ],
      "name": "allPlanIds",
      "outputs": [
        {
          "internalType": "bytes32",
          "name": "",
          "type": "bytes32"
        }
      ],
      "stateMutability": "view",
      "type": "function"
    },
    {
      "inputs": [
        {
          "internalType": "uint256",
          "name": "_amount",
          "type": "uint256"
        },
        {
          "internalType": "enum CommissionV2.PaymentType",
          "name": "_paymentType",
          "type": "uint8"
        },
        {
          "components": [
            {
              "internalType": "uint16",
              "name": "onrampFeeBps",
              "type": "uint16"
            },
            {
              "internalType": "uint16",
              "name": "offrampFeeBps",
              "type": "uint16"
            },
            {
              "internalType": "uint16",
              "name": "splitFeeBps",
              "type": "uint16"
            },
            {
              "internalType": "uint256",
              "name": "minSplitFee",
              "type": "uint256"
            }
          ],
          "internalType": "struct CommissionV2.FeeConfig",
          "name": "_config",
          "type": "tuple"
        }
      ],
      "name": "calculatePlatformFee",
      "outputs": [
        {
          "internalType": "uint256",
          "name": "fee",
          "type": "uint256"
        }
      ],
      "stateMutability": "pure",
      "type": "function"
    },
    {
      "inputs": [],
      "name": "claimAll",
      "outputs": [],
      "stateMutability": "nonpayable",
      "type": "function"
    },
    {
      "inputs": [
        {
          "internalType": "bytes32",
          "name": "_executionId",
          "type": "bytes32"
        },
        {
          "internalType": "uint256",
          "name": "_index",
          "type": "uint256"
        }
      ],
      "name": "claimAllocation",
      "outputs": [],
      "stateMutability": "nonpayable",
      "type": "function"
    },
    {
      "inputs": [
        {
          "internalType": "string",
          "name": "_name",
          "type": "string"
        },
        {
          "internalType": "address[]",
          "name": "_recipients",
          "type": "address[]"
        },
        {
          "internalType": "uint16[]",
          "name": "_shares",
          "type": "uint16[]"
        },
        {
          "internalType": "string[]",
          "name": "_roles",
          "type": "string[]"
        },
        {
          "components": [
            {
              "internalType": "uint16",
              "name": "onrampFeeBps",
              "type": "uint16"
            },
            {
              "internalType": "uint16",
              "name": "offrampFeeBps",
              "type": "uint16"
            },
            {
              "internalType": "uint16",
              "name": "splitFeeBps",
              "type": "uint16"
            },
            {
              "internalType": "uint256",
              "name": "minSplitFee",
              "type": "uint256"
            }
          ],
          "internalType": "struct CommissionV2.FeeConfig",
          "name": "_feeConfig",
          "type": "tuple"
        }
      ],
      "name": "createSplitPlan",
      "outputs": [
        {
          "internalType": "bytes32",
          "name": "planId",
          "type": "bytes32"
        }
      ],
      "stateMutability": "nonpayable",
      "type": "function"
    },
    {
      "inputs": [],
      "name": "defaultFeeConfig",
      "outputs": [
        {
          "internalType": "uint16",
          "name": "onrampFeeBps",
          "type": "uint16"
        },
        {
          "internalType": "uint16",
          "name": "offrampFeeBps",
          "type": "uint16"
        },
        {
          "internalType": "uint16",
          "name": "splitFeeBps",
          "type": "uint16"
        },
        {
          "internalType": "uint256",
          "name": "minSplitFee",
          "type": "uint256"
        }
      ],
      "stateMutability": "view",
      "type": "function"
    },
    {
      "inputs": [
        {
          "internalType": "bytes32",
          "name": "_planId",
          "type": "bytes32"
        },
        {
          "internalType": "bytes32",
          "name": "_sessionId",
          "type": "bytes32"
        },
        {
          "internalType": "uint256",
          "name": "_amount",
          "type": "uint256"
        },
        {
          "internalType": "enum CommissionV2.PaymentType",
          "name": "_paymentType",
          "type": "uint8"
        }
      ],
      "name": "executeSplit",
      "outputs": [
        {
          "internalType": "bytes32",
          "name": "executionId",
          "type": "bytes32"
        }
      ],
      "stateMutability": "nonpayable",
      "type": "function"
    },
    {
      "inputs": [
        {
          "internalType": "bytes32",
          "name": "",
          "type": "bytes32"
        },
        {
          "internalType": "uint256",
          "name": "",
          "type": "uint256"
        }
      ],
      "name": "executionAllocations",
      "outputs": [
        {
          "internalType": "address",
          "name": "recipient",
          "type": "address"
        },
        {
          "internalType": "uint256",
          "name": "amount",
          "type": "uint256"
        },
        {
          "internalType": "uint256",
          "name": "fee",
          "type": "uint256"
        },
        {
          "internalType": "bool",
          "name": "claimed",
          "type": "bool"
        }
      ],
      "stateMutability": "view",
      "type": "function"
    },
    {
      "inputs": [
        {
          "internalType": "bytes32",
          "name": "",
          "type": "bytes32"
        }
      ],
      "name": "executions",
      "outputs": [
        {
          "internalType": "bytes32",
          "name": "executionId",
          "type": "bytes32"
        },
        {
          "internalType": "bytes32",
          "name": "planId",
          "type": "bytes32"
        },
        {
          "internalType": "bytes32",
          "name": "sessionId",
          "type": "bytes32"
        },
        {
          "internalType": "uint256",
          "name": "totalAmount",
          "type": "uint256"
        },
        {
          "internalType": "uint256",
          "name": "platformFee",
          "type": "uint256"
        },
        {
          "internalType": "address",
          "name": "token",
          "type": "address"
        },
        {
          "internalType": "uint256",
          "name": "executedAt",
          "type": "uint256"
        },
        {
          "internalType": "bool",
          "name": "completed",
          "type": "bool"
        }
      ],
      "stateMutability": "view",
      "type": "function"
    },
    {
      "inputs": [],
      "name": "getAllPlanIds",
      "outputs": [
        {
          "internalType": "bytes32[]",
          "name": "",
          "type": "bytes32[]"
        }
      ],
      "stateMutability": "view",
      "type": "function"
    },
    {
      "inputs": [
        {
          "internalType": "bytes32",
          "name": "_executionId",
          "type": "bytes32"
        }
      ],
      "name": "getExecution",
      "outputs": [
        {
          "components": [
            {
              "internalType": "bytes32",
              "name": "executionId",
              "type": "bytes32"
            },
            {
              "internalType": "bytes32",
              "name": "planId",
              "type": "bytes32"
            },
            {
              "internalType": "bytes32",
              "name": "sessionId",
              "type": "bytes32"
            },
            {
              "internalType": "uint256",
              "name": "totalAmount",
              "type": "uint256"
            },
            {
              "internalType": "uint256",
              "name": "platformFee",
              "type": "uint256"
            },
            {
              "internalType": "address",
              "name": "token",
              "type": "address"
            },
            {
              "internalType": "uint256",
              "name": "executedAt",
              "type": "uint256"
            },
            {
              "internalType": "bool",
              "name": "completed",
              "type": "bool"
            }
          ],
          "internalType": "struct CommissionV2.SplitExecution",
          "name": "",
          "type": "tuple"
        }
      ],
      "stateMutability": "view",
      "type": "function"
    },
    {
      "inputs": [
        {
          "internalType": "bytes32",
          "name": "_executionId",
          "type": "bytes32"
        }
      ],
      "name": "getExecutionAllocations",
      "outputs": [
        {
          "components": [
            {
              "internalType": "address",
              "name": "recipient",
              "type": "address"
            },
            {
              "internalType": "uint256",
              "name": "amount",
              "type": "uint256"
            },
            {
              "internalType": "uint256",
              "name": "fee",
              "type": "uint256"
            },
            {
              "internalType": "bool",
              "name": "claimed",
              "type": "bool"
            }
          ],
          "internalType": "struct CommissionV2.Allocation[]",
          "name": "",
          "type": "tuple[]"
        }
      ],
      "stateMutability": "view",
      "type": "function"
    },
    {
      "inputs": [
        {
          "internalType": "address",
          "name": "_owner",
          "type": "address"
        }
      ],
      "name": "getOwnerPlans",
      "outputs": [
        {
          "internalType": "bytes32[]",
          "name": "",
          "type": "bytes32[]"
        }
      ],
      "stateMutability": "view",
      "type": "function"
    },
    {
      "inputs": [
        {
          "internalType": "address",
          "name": "_account",
          "type": "address"
        }
      ],
      "name": "getPendingBalance",
      "outputs": [
        {
          "internalType": "uint256",
          "name": "",
          "type": "uint256"
        }
      ],
      "stateMutability": "view",
      "type": "function"
    },
    {
      "inputs": [
        {
          "internalType": "bytes32",
          "name": "_planId",
          "type": "bytes32"
        }
      ],
      "name": "getSplitPlan",
      "outputs": [
        {
          "internalType": "bytes32",
          "name": "planId",
          "type": "bytes32"
        },
        {
          "internalType": "address",
          "name": "owner_",
          "type": "address"
        },
        {
          "internalType": "string",
          "name": "name",
          "type": "string"
        },
        {
          "internalType": "bool",
          "name": "active",
          "type": "bool"
        },
        {
          "internalType": "uint256",
          "name": "rulesCount",
          "type": "uint256"
        },
        {
          "components": [
            {
              "internalType": "uint16",
              "name": "onrampFeeBps",
              "type": "uint16"
            },
            {
              "internalType": "uint16",
              "name": "offrampFeeBps",
              "type": "uint16"
            },
            {
              "internalType": "uint16",
              "name": "splitFeeBps",
              "type": "uint16"
            },
            {
              "internalType": "uint256",
              "name": "minSplitFee",
              "type": "uint256"
            }
          ],
          "internalType": "struct CommissionV2.FeeConfig",
          "name": "feeConfig",
          "type": "tuple"
        },
        {
          "internalType": "uint256",
          "name": "createdAt",
          "type": "uint256"
        }
      ],
      "stateMutability": "view",
      "type": "function"
    },
    {
      "inputs": [
        {
          "internalType": "bytes32",
          "name": "_planId",
          "type": "bytes32"
        }
      ],
      "name": "getSplitRules",
      "outputs": [
        {
          "components": [
            {
              "internalType": "address",
              "name": "recipient",
              "type": "address"
            },
            {
              "internalType": "uint16",
              "name": "shareBps",
              "type": "uint16"
            },
            {
              "internalType": "string",
              "name": "role",
              "type": "string"
            }
          ],
          "internalType": "struct CommissionV2.SplitRule[]",
          "name": "",
          "type": "tuple[]"
        }
      ],
      "stateMutability": "view",
      "type": "function"
    },
    {
      "inputs": [
        {
          "internalType": "address",
          "name": "",
          "type": "address"
        }
      ],
      "name": "operators",
      "outputs": [
        {
          "internalType": "bool",
          "name": "",
          "type": "bool"
        }
      ],
      "stateMutability": "view",
      "type": "function"
    },
    {
      "inputs": [],
      "name": "owner",
      "outputs": [
        {
          "internalType": "address",
          "name": "",
          "type": "address"
        }
      ],
      "stateMutability": "view",
      "type": "function"
    },
    {
      "inputs": [
        {
          "internalType": "address",
          "name": "",
          "type": "address"
        },
        {
          "internalType": "uint256",
          "name": "",
          "type": "uint256"
        }
      ],
      "name": "ownerPlans",
      "outputs": [
        {
          "internalType": "bytes32",
          "name": "",
          "type": "bytes32"
        }
      ],
      "stateMutability": "view",
      "type": "function"
    },
    {
      "inputs": [],
      "name": "pause",
      "outputs": [],
      "stateMutability": "nonpayable",
      "type": "function"
    },
    {
      "inputs": [],
      "name": "paused",
      "outputs": [
        {
          "internalType": "bool",
          "name": "",
          "type": "bool"
        }
      ],
      "stateMutability": "view",
      "type": "function"
    },
    {
      "inputs": [
        {
          "internalType": "address",
          "name": "",
          "type": "address"
        }
      ],
      "name": "pendingBalances",
      "outputs": [
        {
          "internalType": "uint256",
          "name": "",
          "type": "uint256"
        }
      ],
      "stateMutability": "view",
      "type": "function"
    },
    {
      "inputs": [],
      "name": "platformTreasury",
      "outputs": [
        {
          "internalType": "address",
          "name": "",
          "type": "address"
        }
      ],
      "stateMutability": "view",
      "type": "function"
    },
    {
      "inputs": [
        {
          "internalType": "address",
          "name": "",
          "type": "address"
        }
      ],
      "name": "relayers",
      "outputs": [
        {
          "internalType": "bool",
          "name": "",
          "type": "bool"
        }
      ],
      "stateMutability": "view",
      "type": "function"
    },
    {
      "inputs": [],
      "name": "renounceOwnership",
      "outputs": [],
      "stateMutability": "nonpayable",
      "type": "function"
    },
    {
      "inputs": [
        {
          "internalType": "address",
          "name": "_operator",
          "type": "address"
        },
        {
          "internalType": "bool",
          "name": "_authorized",
          "type": "bool"
        }
      ],
      "name": "setOperator",
      "outputs": [],
      "stateMutability": "nonpayable",
      "type": "function"
    },
    {
      "inputs": [
        {
          "internalType": "address",
          "name": "_treasury",
          "type": "address"
        }
      ],
      "name": "setPlatformTreasury",
      "outputs": [],
      "stateMutability": "nonpayable",
      "type": "function"
    },
    {
      "inputs": [
        {
          "internalType": "address",
          "name": "_relayer",
          "type": "address"
        },
        {
          "internalType": "bool",
          "name": "_authorized",
          "type": "bool"
        }
      ],
      "name": "setRelayer",
      "outputs": [],
      "stateMutability": "nonpayable",
      "type": "function"
    },
    {
      "inputs": [
        {
          "internalType": "bytes32",
          "name": "_planId",
          "type": "bytes32"
        },
        {
          "internalType": "bool",
          "name": "_active",
          "type": "bool"
        }
      ],
      "name": "setSplitPlanActive",
      "outputs": [],
      "stateMutability": "nonpayable",
      "type": "function"
    },
    {
      "inputs": [],
      "name": "settlementToken",
      "outputs": [
        {
          "internalType": "contract IERC20",
          "name": "",
          "type": "address"
        }
      ],
      "stateMutability": "view",
      "type": "function"
    },
    {
      "inputs": [
        {
          "internalType": "bytes32",
          "name": "",
          "type": "bytes32"
        }
      ],
      "name": "splitPlans",
      "outputs": [
        {
          "internalType": "bytes32",
          "name": "planId",
          "type": "bytes32"
        },
        {
          "internalType": "address",
          "name": "owner",
          "type": "address"
        },
        {
          "internalType": "string",
          "name": "name",
          "type": "string"
        },
        {
          "components": [
            {
              "internalType": "uint16",
              "name": "onrampFeeBps",
              "type": "uint16"
            },
            {
              "internalType": "uint16",
              "name": "offrampFeeBps",
              "type": "uint16"
            },
            {
              "internalType": "uint16",
              "name": "splitFeeBps",
              "type": "uint16"
            },
            {
              "internalType": "uint256",
              "name": "minSplitFee",
              "type": "uint256"
            }
          ],
          "internalType": "struct CommissionV2.FeeConfig",
          "name": "feeConfig",
          "type": "tuple"
        },
        {
          "internalType": "bool",
          "name": "active",
          "type": "bool"
        },
        {
          "internalType": "uint256",
          "name": "createdAt",
          "type": "uint256"
        },
        {
          "internalType": "uint256",
          "name": "updatedAt",
          "type": "uint256"
        }
      ],
      "stateMutability": "view",
      "type": "function"
    },
    {
      "inputs": [
        {
          "internalType": "address",
          "name": "newOwner",
          "type": "address"
        }
      ],
      "name": "transferOwnership",
      "outputs": [],
      "stateMutability": "nonpayable",
      "type": "function"
    },
    {
      "inputs": [],
      "name": "unpause",
      "outputs": [],
      "stateMutability": "nonpayable",
      "type": "function"
    },
    {
      "inputs": [
        {
          "internalType": "uint16",
          "name": "_onrampFeeBps",
          "type": "uint16"
        },
        {
          "internalType": "uint16",
          "name": "_offrampFeeBps",
          "type": "uint16"
        },
        {
          "internalType": "uint16",
          "name": "_splitFeeBps",
          "type": "uint16"
        },
        {
          "internalType": "uint256",
          "name": "_minSplitFee",
          "type": "uint256"
        }
      ],
      "name": "updateDefaultFeeConfig",
      "outputs": [],
      "stateMutability": "nonpayable",
      "type": "function"
    }
  ],
  "bytecode": "0x608034620001bf57620029d36001600160401b03601f38839003908101601f191684019082821185831017620001c45780859160409586948552833981010312620001bf576200005d60206200005585620001da565b9401620001da565b60008054336001600160a01b03198083168217845586519397949093926001600160a01b03929083167f8be0079c531659141344cd1fd0a4f28419497f9722a3daafe3b4186f6b6457e08a80a36001805560025492828616156200018d5750169283156200015657610100600160a81b039060081b169060018060a81b03191617600255600354161760035581519060808201908282109082111762000142578252600a8082526020820152601e82820152620186a060609091018190526004805465ffffffffffff1916641e000a000a179055600555516127e39081620001f08239f35b634e487b7160e01b84526041600452602484fd5b855162461bcd60e51b815260206004820152601060248201526f496e76616c696420747265617375727960801b6044820152606490fd5b62461bcd60e51b815260206004820152600d60248201526c24b73b30b634b2103a37b5b2b760991b6044820152606490fd5b600080fd5b634e487b7160e01b600052604160045260246000fd5b51906001600160a01b0382168203620001bf5756fe6080604052600436101561001257600080fd5b60e0600035811c9081630afba82814611e895781630fe11ab314611d8057816313e7c9d814611d415781632bb3f24114611cc95781633f4ba83a14611c35578163488d71dc14611be457816351d550d21461065e5781635300f84114611ba5578163558a729714611b2d5781635c975abb14611b0a578163671a97bb14611a07578163715018a6146119ae578163752befa4146117fb5781637b9e618d146117ce5781637cd86d601461174e5781638456cb59146116f457816384a718841461169c5781638da5cb5b1461167357816396150e08146115ec5781639e2877b2146115a4578163a2d9035e14611466578163a8a348f11461139957508063b1af9e4914611280578063ba14dee81461117b578063bbec434e1461115d578063c7be2832146110d9578063d1058e5914611048578063d58e8c55146108d3578063dd604bd7146107e8578063e138818c146107bf578063e1f1c4a7146107a2578063ea6c2c3514610717578063ecd8dc3a14610698578063ecdae41b1461065e578063ef725245146102745763f2fde38b146101ab57600080fd5b3461026f57602036600319011261026f576101c4611f25565b6101cc6121aa565b6001600160a01b0390811690811561021b57600054826001600160601b0360a01b821617600055167f8be0079c531659141344cd1fd0a4f28419497f9722a3daafe3b4186f6b6457e0600080a3005b60405162461bcd60e51b815260206004820152602660248201527f4f776e61626c653a206e6577206f776e657220697320746865207a65726f206160448201526564647265737360d01b6064820152608490fd5b600080fd5b3461026f57608036600319011261026f576004606435101561026f576102986124a2565b6102a061245e565b33600052600d60205260ff60406000205416801561064a575b15610617576004356000526006602052604060002060ff600682015416156105e057604435156105aa576102fd6102f260048301612141565b60643560443561232d565b61030981604435612413565b916040516020810190600435825260243560408201524260608201526060815261033281612044565b51902090816000526009602052604060002092828455600435600185015560243560028501556044356003850155806004850155600254600585019060018060a01b039060081c166001600160601b0360a01b82541617905542600685015560ff19600785015416600785015560005b60038301548110156104eb576103c46103be82600386016122f1565b50612420565b906127106103da61ffff6020850151168961230d565b0485600052600a60205260406000209260018060a01b03815116936040519461040286612044565b855282602086015260006040860152600060608601528054600160401b8110156104d55761043591600182018155611f09565b9490946104bf576104ba946003606061048e9360018060a01b038151166001600160601b0360a01b85541617845560208101516001850155604081015160028501550151151591019060ff801983541691151516179055565b516001600160a01b03166000908152600b60205260409020805490916104b391612320565b9055612240565b6103a2565b634e487b7160e01b600052600060045260246000fd5b634e487b7160e01b600052604160045260246000fd5b60208483878980610587575b508161055c575b6007600160ff1982840154161791015560405190604435825283820152606435604082015260243590827f7b07a03f48dd677ea1eb046d8e8ad2dd6144c1af65ead6811b2b43959030cac1606060043593a460018055604051908152f35b6002546003546105829184916001600160a01b0390811691339160089190911c166124f8565b6104fe565b6002546105a491903090339060081c6001600160a01b03166124f8565b846104f7565b60405162461bcd60e51b815260206004820152600e60248201526d125b9d985b1a5908185b5bdd5b9d60921b6044820152606490fd5b60405162461bcd60e51b815260206004820152600f60248201526e506c616e206e6f742061637469766560881b6044820152606490fd5b60405162461bcd60e51b815260206004820152600b60248201526a2737ba103932b630bcb2b960a91b6044820152606490fd5b506000546001600160a01b031633146102b9565b3461026f57602036600319011261026f576001600160a01b0361067f611f25565b16600052600b6020526020604060002054604051908152f35b3461026f57604036600319011261026f576106b1611f25565b7f4b36b2e66f38ed349bec532105790177f1283bcbc094e6cd48565195d3033c4360206106dc611f8e565b926106e56121aa565b6001600160a01b03166000818152600d835260409020805460ff191660ff86151516179055925b6040519015158152a2005b3461026f57600036600319011261026f57604051806008549182815260208091019260086000527ff3f7a9fe364faab93b216da50a3214154f22a0a2b415b23a84c8169e8b636ee3916000905b82821061078b576107878561077b8189038261207a565b60405191829182611f3b565b0390f35b835486529485019460019384019390910190610764565b3461026f57600036600319011261026f5760206040516127108152f35b3461026f57600036600319011261026f576003546040516001600160a01b039091168152602090f35b3461026f57602036600319011261026f576000606060405161080981612044565b828152826020820152826040820152015260043560005260066020526040600020805460018060a01b036001830154169160ff600682015416906108c960038201549160078101549261088c61086d60046108666002860161209b565b9401612141565b92604051988998895260208901526101408060408a0152880190611f9d565b9415156060870152608086015260a08501906060809161ffff80825116855280602083015116602086015260408201511660408501520151910152565b6101208301520390f35b3461026f5761010036600319011261026f576001600160401b036004351161026f5736602360043501121561026f576001600160401b03600435600401351161026f573660246004356004013560043501011161026f576024356001600160401b03811161026f5761094990369060040161217a565b906044356001600160401b03811161026f5761096990369060040161217a565b916064356001600160401b03811161026f5761098990369060040161217a565b9390608036608319011261026f576109a2828714612202565b6109ad858714612202565b8515611013576000805b838110610fce575061ffff612710911603610f9057600854610a17607460405180933360601b602083015260043560040135602460043501603484013760043560040135820190426034830152605482015203605481018452018261207a565b602081519101209485600052600660205260406000209286845560018401336001600160601b0360a01b825416179055610a6760043560040135610a5e6002870154611fee565b6002870161226e565b6000601f6004356004013511600114610f045760009060043560040135610ef4575b506004356004013560011b906000196004356004013560031b1c19161760028501555b60843561ffff8116810361026f57600485015461ffff60a4351660a4350361026f5761ffff60c4351660c4350361026f5761ffff65ffff0000000060c43560201b1692169065ffffffffffff19161763ffff000060a43560101b161717600485015560e435600585015560068401600160ff1982541617905542600785015542600885015560005b888110610c59578888336000526007602052604060002091825492600160401b93848110156104d557610b6c91600182018155611f76565b81549060031b9084821b91600019901b1916179055600854928310156104d5576001830180600855831015610c43578160209360086000527ff3f7a9fe364faab93b216da50a3214154f22a0a2b415b23a84c8169e8b636ee30155604051906040825260043560040135604083015260043560040135602460043501606084013760006060600435600401358401015283820152817fbae5ad4685513d7165d7672eebfa010285cd04734c6b39204355ae059b845d3b3392606081601f19601f6004356004013501168101030190a3604051908152f35b634e487b7160e01b600052603260045260246000fd5b6001600160a01b03610c74610c6f838c8a61224f565b6122c2565b1615610ebb57610c88610c6f828b8961224f565b610c9b610c9683858b61224f565b61225f565b84831015610c4357601e19863603018360051b870135121561026f576001600160401b038360051b8701358701351161026f57600583901b86013586018035360360209091011361026f5761ffff9060405192610cf78461205f565b6001600160a01b03168352166020820152610d1b600583901b8601358601356122d6565b610d28604051918261207a565b600583901b860135860180358083523691016020011161026f57600583901b8601358601803590602090810190830137600060208460051b8801358801358301015260408201526003860154600160401b8110156104d557806001610d9692016003890155600388016122f1565b9190916104bf5780518254602083015161ffff60a01b60a09190911b166001600160a01b039092166001600160b01b031990911617178255604001518051906001600160401b0382116104d557610dfd82610df46001860154611fee565b6001860161226e565b602090601f8311600114610e47579180600192610e37969594600092610e3c575b5050600019600383901b1c191690821b17910155612240565b610b34565b015190508e80610e1e565b906001840160005260206000209160005b601f1985168110610ea35750926001928392610e3797969583601f19811610610e8a575b505050811b01910155612240565b015160001960f88460031b161c191690558e8080610e7c565b91926020600181928685015181550194019201610e58565b60405162461bcd60e51b8152602060048201526011602482015270125b9d985b1a59081c9958da5c1a595b9d607a1b6044820152606490fd5b6024915060043501013589610a89565b6002850160005260206000209060005b600480350135601f19168110610f735750600480350135601f19811610610f4e575b5050600160043560040135811b016002850155610aac565b602460001960f86004356004013560031b161c19916004350101351690558880610f36565b909160206001819260248660043501013581550193019101610f14565b60405162461bcd60e51b8152602060048201526016602482015275536861726573206d75737420657175616c203130302560501b6044820152606490fd5b9061ffff908180610fe3610c9686898c61224f565b16911601908111610ffd57610ff89091612240565b6109b7565b634e487b7160e01b600052601160045260246000fd5b60405162461bcd60e51b815260206004820152600d60248201526c4e6f20726563697069656e747360981b6044820152606490fd5b3461026f57600036600319011261026f576110616124a2565b33600052600b60205260406000205461107b811515612719565b336000818152600b60205260408120556002546110a591839160081c6001600160a01b0316612758565b60405190815260007f59710a54b5aee84f813febcf6f067dcb59867806ed3b4b0560ea6bac2972a5aa60203393a360018055005b3461026f5760c036600319011261026f57602435600481101561026f57608036604319011261026f5760405161110e81612044565b611116611fdd565b815261ffff90606435828116810361026f576020820152608435918216820361026f5760209261115592604083015260a435606083015260043561232d565b604051908152f35b3461026f57600036600319011261026f576020604051620f42408152f35b3461026f5760208060031936011261026f57600435600052600a815260406000209081546111a881612796565b906111b6604051928361207a565b8082528282018094600052836000206000915b8383106112345760408051878152865181890181905289928201908960005b8281106111f55784840385f35b855180516001600160a01b03168552808301518584015260408082015190860152606090810151151590850152948101946080909301926001016111e8565b60048660019260405161124681612044565b848060a01b03865416815284860154838201526002860154604082015260ff600387015416151560608201528152019201920191906111c9565b3461026f57604036600319011261026f5760043561129c611f8e565b90806000526006602052604060002060018060a01b0380600183015416331490811561138b575b50156113555780541561131f576112e983600683019060ff801983541691151516179055565b60084291015560405191151582527f9dfe12343a3f4124cb740ef298574253f7313a767cc3371a0d7f71a3e1ce81cb60203393a3005b60405162461bcd60e51b815260206004820152600e60248201526d141b185b881b9bdd08199bdd5b9960921b6044820152606490fd5b60405162461bcd60e51b815260206004820152600e60248201526d139bdd08185d5d1a1bdc9a5e995960921b6044820152606490fd5b9050600054163314846112c3565b3461026f57602036600319011261026f576004356000908152600660205260409020805460018201546001600160a01b03169290916113da6002820161209b565b906113e760048201612141565b9260ff60068301541661145061141f6008600786015495015495604051998a998a5260208a01526101408060408b0152890190611f9d565b9560608801906060809161ffff80825116855280602083015116602086015260408201511660408501520151910152565b1515908501526101008401526101208301520390f35b3461026f5761149561147736611ef3565b6114829291926124a2565b82600052600a6020526040600020611f09565b5080546001600160a01b0391908216330361156f576003810191825460ff811661153857600161150493019360018554926114d1841515612719565b60ff191617905533600052600b6020526114f16040600020918254612413565b905560025460081c168254903390612758565b54906040519182527f59710a54b5aee84f813febcf6f067dcb59867806ed3b4b0560ea6bac2972a5aa60203393a360018055005b60405162461bcd60e51b815260206004820152600f60248201526e105b1c9958591e4818db185a5b5959608a1b6044820152606490fd5b60405162461bcd60e51b815260206004820152600d60248201526c139bdd081c9958da5c1a595b9d609a1b6044820152606490fd5b3461026f57600036600319011261026f576004546005546040805161ffff8085168252601085901c81166020808401919091529490941c909316908301526060820152608090f35b3461026f57602036600319011261026f576101009060043560005260096020526040600020908154916001810154906002810154600382015460048301549060018060a01b036005850154169260ff600760068701549601541695604051988952602089015260408801526060870152608086015260a085015260c0840152151590820152f35b3461026f57600036600319011261026f576000546040516001600160a01b039091168152602090f35b3461026f57604036600319011261026f576116b5611f25565b6001600160a01b031660009081526007602052604090208054602435919082101561026f576020916116e691611f76565b90546040519160031b1c8152f35b3461026f57600036600319011261026f5761170d6121aa565b61171561245e565b600160ff1960025416176002557f62e78cea01bee320cd4e420270b5ea74000d11b0c9f74754ebdbfc544b05a2586020604051338152a1005b3461026f57602036600319011261026f57611767611f25565b61176f6121aa565b6001600160a01b03168015611796576001600160601b0360a01b6003541617600355600080f35b60405162461bcd60e51b815260206004820152601060248201526f496e76616c696420747265617375727960801b6044820152606490fd5b3461026f57600036600319011261026f5760025460405160089190911c6001600160a01b03168152602090f35b3461026f57608036600319011261026f5761ffff6004358181169081810361026f57602435918383169081840361026f57611834611fdd565b9160648035966118426121aa565b8184116119755781831161193b578416908082116119045750918660606118ff95937f3c8e502a352c679654c374ba722158f87d180a3dd0ba08613a9c2a478fd6cb7899956040519161189483612044565b8583526020830152604082015201526004549065ffff000000008360201b169165ffffffffffff19161763ffff00008760101b16171760045581600555604051948594859094939291606092608083019661ffff928380921685521660208401521660408201520152565b0390a1005b60405162461bcd60e51b81526020600482015260126024820152710a6e0d8d2e840cccaca40e8dede40d0d2ced60731b6044820152fd5b5060405162461bcd60e51b815260206004820152601460248201527309ecccce4c2dae040cccaca40e8dede40d0d2ced60631b6044820152fd5b5060405162461bcd60e51b815260206004820152601360248201527209edce4c2dae040cccaca40e8dede40d0d2ced606b1b6044820152fd5b3461026f57600036600319011261026f576119c76121aa565b600080546001600160a01b0319811682556001600160a01b03167f8be0079c531659141344cd1fd0a4f28419497f9722a3daafe3b4186f6b6457e08280a3005b3461026f5760208060031936011261026f5760043560005260068152600360406000200190815491611a3883612796565b92611a46604051948561207a565b8084528284018092600052836000206000915b838310611ae75750505050604051918083019381845251809452604083019360408160051b85010192916000955b828710611a945785850386f35b909192938280611ad7600193603f198a820301865260408951868060a01b03815116835261ffff8582015116858401520151906060908160408201520190611f9d565b9601920196019592919092611a87565b600286600192611af9859a999a612420565b815201920192019190959495611a59565b3461026f57600036600319011261026f57602060ff600254166040519015158152f35b3461026f57604036600319011261026f57611b46611f25565b7f966c160e1c4dbc7df8d69af4ace01e9297c3cf016397b7914971f2fbfa32672d6020611b71611f8e565b92611b7a6121aa565b6001600160a01b03166000818152600c835260409020805460ff191660ff861515161790559261070c565b3461026f57602036600319011261026f576001600160a01b03611bc6611f25565b16600052600d602052602060ff604060002054166040519015158152f35b3461026f57602036600319011261026f5760043560085481101561026f5760209060086000527ff3f7a9fe364faab93b216da50a3214154f22a0a2b415b23a84c8169e8b636ee30154604051908152f35b3461026f57600036600319011261026f57611c4e6121aa565b60025460ff811615611c8d5760ff19166002557f5db9ee0a495bf2e6ff9c91a7834c1ba4fdd244a5e8aa4e537bd38aeae4b073aa6020604051338152a1005b60405162461bcd60e51b815260206004820152601460248201527314185d5cd8589b194e881b9bdd081c185d5cd95960621b6044820152606490fd5b3461026f5760208060031936011261026f576001600160a01b03611ceb611f25565b1660005260078152604060002090604051908181845491828152019360005281600020916000905b828210611d2a576107878561077b8189038261207a565b835486529485019460019384019390910190611d13565b3461026f57602036600319011261026f576001600160a01b03611d62611f25565b16600052600c602052602060ff604060002054166040519015158152f35b3461026f57602036600319011261026f5780600061010092604051611da481612028565b8281528260208201528260408201528260608201528260808201528260a08201528260c082015201526004356000526009602052604060002090604051611dea81612028565b825492838252600181015460208301908152600282015490604084019182526003830154606085019081526004840154906080860191825260018060a01b0393846005870154169360a088019485528860ff600760068a01549960c08c019a8b5201541698019715158852604051998a525160208a0152516040890152516060880152516080870152511660a08501525160c084015251151590820152f35b3461026f57611e9736611ef3565b90600052600a6020526040600020805482101561026f57608091611eba91611f09565b5060018060a01b038154169060018101549060ff6003600283015492015416916040519384526020840152604083015215156060820152f35b604090600319011261026f576004359060243590565b8054821015610c435760005260206000209060021b0190600090565b600435906001600160a01b038216820361026f57565b6020908160408183019282815285518094520193019160005b828110611f62575050505090565b835185529381019392810192600101611f54565b8054821015610c435760005260206000200190600090565b60243590811515820361026f57565b919082519283825260005b848110611fc9575050826000602080949584010152601f8019910116010190565b602081830181015184830182015201611fa8565b6044359061ffff8216820361026f57565b90600182811c9216801561201e575b602083101461200857565b634e487b7160e01b600052602260045260246000fd5b91607f1691611ffd565b61010081019081106001600160401b038211176104d557604052565b608081019081106001600160401b038211176104d557604052565b606081019081106001600160401b038211176104d557604052565b90601f801991011681019081106001600160401b038211176104d557604052565b90604051918260008254926120af84611fee565b90818452600194858116908160001461211e57506001146120db575b50506120d99250038361207a565b565b9093915060005260209081600020936000915b8183106121065750506120d9935082010138806120cb565b855488840185015294850194879450918301916120ee565b9150506120d994506020925060ff191682840152151560051b82010138806120cb565b9060405161214e81612044565b606060018294805461ffff908181168652818160101c16602087015260201c1660408501520154910152565b9181601f8401121561026f578235916001600160401b03831161026f576020808501948460051b01011161026f57565b6000546001600160a01b031633036121be57565b606460405162461bcd60e51b815260206004820152602060248201527f4f776e61626c653a2063616c6c6572206973206e6f7420746865206f776e65726044820152fd5b1561220957565b60405162461bcd60e51b815260206004820152600f60248201526e098cadccee8d040dad2e6dac2e8c6d608b1b6044820152606490fd5b6000198114610ffd5760010190565b9190811015610c435760051b0190565b3561ffff8116810361026f5790565b90601f811161227c57505050565b600091825260208220906020601f850160051c830194106122b8575b601f0160051c01915b8281106122ad57505050565b8181556001016122a1565b9092508290612298565b356001600160a01b038116810361026f5790565b6001600160401b0381116104d557601f01601f191660200190565b8054821015610c435760005260206000209060011b0190600090565b81810292918115918404141715610ffd57565b91908201809211610ffd57565b9291909260048410156123ca57831561240b576127109161ffff9083612359836040840151168561230d565b04956060820151808810612403575b5060006001821480156123f9575b6123e0575b6123ca57600281149081156123bf575b50612397575b50505050565b916123ae9160206123b5969795940151169061230d565b0490612320565b9038808080612391565b60039150143861238b565b634e487b7160e01b600052602160045260246000fd5b966123f390866123ae868651168861230d565b9661237b565b5060038214612376565b965038612368565b506000925050565b91908203918211610ffd57565b9060405161242d8161205f565b82546001600160a01b038116825260a01c61ffff1660208201529182906040906124599060010161209b565b910152565b60ff6002541661246a57565b60405162461bcd60e51b815260206004820152601060248201526f14185d5cd8589b194e881c185d5cd95960821b6044820152606490fd5b6002600154146124b3576002600155565b60405162461bcd60e51b815260206004820152601f60248201527f5265656e7472616e637947756172643a207265656e7472616e742063616c6c006044820152606490fd5b6040516323b872dd60e01b60208201526001600160a01b03928316602482015292909116604483015260648083019390935291815260a08101918183106001600160401b038411176104d5576120d9926040525b60018060a01b03169060405160408101908082106001600160401b038311176104d5576125db916040526020938482527f5361666545524332303a206c6f772d6c6576656c2063616c6c206661696c6564858301526000808587829751910182855af13d15612678573d916125c0836122d6565b926125ce604051948561207a565b83523d868885013e61267c565b80519182159184831561264d575b5050509050156125f65750565b6084906040519062461bcd60e51b82526004820152602a60248201527f5361666545524332303a204552433230206f7065726174696f6e20646964206e6044820152691bdd081cdd58d8d9595960b21b6064820152fd5b919381809450010312612674578201519081151582036126715750803880846125e9565b80fd5b5080fd5b6060915b919290156126de5750815115612690575090565b3b156126995790565b60405162461bcd60e51b815260206004820152601d60248201527f416464726573733a2063616c6c20746f206e6f6e2d636f6e74726163740000006044820152606490fd5b8251909150156126f15750805190602001fd5b60405162461bcd60e51b815260206004820152908190612715906024830190611f9d565b0390fd5b1561272057565b60405162461bcd60e51b815260206004820152601060248201526f4e6f7468696e6720746f20636c61696d60801b6044820152606490fd5b60405163a9059cbb60e01b60208201526001600160a01b0390921660248301526044808301939093529181526120d99161279182612044565b61254c565b6001600160401b0381116104d55760051b6020019056fea26469706673582212208ed7445e1884368a80f29d10172339407b77c7f4beb6c4c4eb8f7ba961b81c9764736f6c63430008140033",
  "linkReferences": {},
  "deployedLinkReferences": {}
}