{"contracts/AutoPay.sol":{"AutoPay":{"abi":[{"anonymous":false,"inputs":[{"indexed":true,"internalType":"bytes32","name":"paymentId","type":"bytes32"},{"indexed":true,"internalType":"address","name":"user","type":"address"},{"indexed":true,"internalType":"address","name":"agent","type":"address"},{"indexed":false,"internalType":"address","name":"recipient","type":"address"},{"indexed":false,"internalType":"uint256","name":"amount","type":"uint256"}],"name":"AutoPaymentExecuted","type":"event"},{"anonymous":false,"inputs":[{"indexed":true,"internalType":"address","name":"user","type":"address"},{"indexed":true,"internalType":"address","name":"agent","type":"address"},{"indexed":false,"internalType":"uint256","name":"singleLimit","type":"uint256"},{"indexed":false,"internalType":"uint256","name":"dailyLimit","type":"uint256"},{"indexed":false,"internalType":"uint256","name":"expiresAt","type":"uint256"}],"name":"GrantCreated","type":"event"},{"anonymous":false,"inputs":[{"indexed":true,"internalType":"address","name":"user","type":"address"},{"indexed":true,"internalType":"address","name":"agent","type":"address"}],"name":"GrantRevoked","type":"event"},{"anonymous":false,"inputs":[{"indexed":true,"internalType":"address","name":"previousOwner","type":"address"},{"indexed":true,"internalType":"address","name":"newOwner","type":"address"}],"name":"OwnershipTransferred","type":"event"},{"anonymous":false,"inputs":[{"indexed":false,"internalType":"address","name":"account","type":"address"}],"name":"Paused","type":"event"},{"anonymous":false,"inputs":[{"indexed":false,"internalType":"address","name":"account","type":"address"}],"name":"Unpaused","type":"event"},{"inputs":[{"internalType":"bytes32","name":"","type":"bytes32"}],"name":"autoPayments","outputs":[{"internalType":"bytes32","name":"paymentId","type":"bytes32"},{"internalType":"address","name":"user","type":"address"},{"internalType":"address","name":"agent","type":"address"},{"internalType":"address","name":"recipient","type":"address"},{"internalType":"uint256","name":"amount","type":"uint256"},{"internalType":"uint256","name":"timestamp","type":"uint256"},{"internalType":"bool","name":"executed","type":"bool"}],"stateMutability":"view","type":"function"},{"inputs":[],"name":"commissionContract","outputs":[{"internalType":"contract ICommission","name":"","type":"address"}],"stateMutability":"view","type":"function"},{"inputs":[{"internalType":"address","name":"agent","type":"address"},{"internalType":"uint256","name":"singleLimit","type":"uint256"},{"internalType":"uint256","name":"dailyLimit","type":"uint256"},{"internalType":"uint256","name":"duration","type":"uint256"}],"name":"createGrant","outputs":[],"stateMutability":"nonpayable","type":"function"},{"inputs":[{"internalType":"address","name":"token","type":"address"},{"internalType":"address","name":"to","type":"address"},{"internalType":"uint256","name":"amount","type":"uint256"}],"name":"emergencyWithdraw","outputs":[],"stateMutability":"nonpayable","type":"function"},{"inputs":[{"internalType":"bytes32","name":"paymentId","type":"bytes32"},{"internalType":"address","name":"user","type":"address"},{"internalType":"address","name":"recipient","type":"address"},{"internalType":"uint256","name":"amount","type":"uint256"}],"name":"executeAutoPayment","outputs":[],"stateMutability":"nonpayable","type":"function"},{"inputs":[{"internalType":"bytes32","name":"paymentId","type":"bytes32"}],"name":"getAutoPayment","outputs":[{"components":[{"internalType":"bytes32","name":"paymentId","type":"bytes32"},{"internalType":"address","name":"user","type":"address"},{"internalType":"address","name":"agent","type":"address"},{"internalType":"address","name":"recipient","type":"address"},{"internalType":"uint256","name":"amount","type":"uint256"},{"internalType":"uint256","name":"timestamp","type":"uint256"},{"internalType":"bool","name":"executed","type":"bool"}],"internalType":"struct AutoPay.AutoPayment","name":"","type":"tuple"}],"stateMutability":"view","type":"function"},{"inputs":[{"internalType":"address","name":"user","type":"address"},{"internalType":"address","name":"agent","type":"address"}],"name":"getGrant","outputs":[{"components":[{"internalType":"address","name":"user","type":"address"},{"internalType":"address","name":"agent","type":"address"},{"internalType":"uint256","name":"singleLimit","type":"uint256"},{"internalType":"uint256","name":"dailyLimit","type":"uint256"},{"internalType":"uint256","name":"usedToday","type":"uint256"},{"internalType":"uint256","name":"lastResetDate","type":"uint256"},{"internalType":"uint256","name":"expiresAt","type":"uint256"},{"internalType":"bool","name":"isActive","type":"bool"}],"internalType":"struct AutoPay.Grant","name":"","type":"tuple"}],"stateMutability":"view","type":"function"},{"inputs":[{"internalType":"address","name":"","type":"address"},{"internalType":"address","name":"","type":"address"}],"name":"grants","outputs":[{"internalType":"address","name":"user","type":"address"},{"internalType":"address","name":"agent","type":"address"},{"internalType":"uint256","name":"singleLimit","type":"uint256"},{"internalType":"uint256","name":"dailyLimit","type":"uint256"},{"internalType":"uint256","name":"usedToday","type":"uint256"},{"internalType":"uint256","name":"lastResetDate","type":"uint256"},{"internalType":"uint256","name":"expiresAt","type":"uint256"},{"internalType":"bool","name":"isActive","type":"bool"}],"stateMutability":"view","type":"function"},{"inputs":[],"name":"owner","outputs":[{"internalType":"address","name":"","type":"address"}],"stateMutability":"view","type":"function"},{"inputs":[],"name":"pause","outputs":[],"stateMutability":"nonpayable","type":"function"},{"inputs":[],"name":"paused","outputs":[{"internalType":"bool","name":"","type":"bool"}],"stateMutability":"view","type":"function"},{"inputs":[],"name":"paymentToken","outputs":[{"internalType":"contract IERC20","name":"","type":"address"}],"stateMutability":"view","type":"function"},{"inputs":[],"name":"renounceOwnership","outputs":[],"stateMutability":"nonpayable","type":"function"},{"inputs":[{"internalType":"address","name":"agent","type":"address"}],"name":"revokeGrant","outputs":[],"stateMutability":"nonpayable","type":"function"},{"inputs":[{"internalType":"address","name":"_commission","type":"address"}],"name":"setCommissionContract","outputs":[],"stateMutability":"nonpayable","type":"function"},{"inputs":[{"internalType":"address","name":"_token","type":"address"}],"name":"setPaymentToken","outputs":[],"stateMutability":"nonpayable","type":"function"},{"inputs":[{"internalType":"bool","name":"_enabled","type":"bool"}],"name":"setSplitModeEnabled","outputs":[],"stateMutability":"nonpayable","type":"function"},{"inputs":[],"name":"splitModeEnabled","outputs":[{"internalType":"bool","name":"","type":"bool"}],"stateMutability":"view","type":"function"},{"inputs":[{"internalType":"address","name":"newOwner","type":"address"}],"name":"transferOwnership","outputs":[],"stateMutability":"nonpayable","type":"function"},{"inputs":[],"name":"unpause","outputs":[],"stateMutability":"nonpayable","type":"function"}],"evm":{"bytecode":{"linkReferences":{},"object":"608080604052346100695760008054336001600160a01b0319821681178355916001600160a01b03909116907f8be0079c531659141344cd1fd0a4f28419497f9722a3daafe3b4186f6b6457e09080a36001805560ff196002541660025561146c908161006f8239f35b600080fdfe6080604081815260048036101561001557600080fd5b60009260e08435811c91826316140b7a14610e94575081631817c5a714610dc55781633013ce2914610d975781633f4ba83a14610d015781635c975abb14610cdc5781635d48dbcf14610cb45781636a326ab114610c1c5781636d1319eb14610afa578163715018a614610aa057816377fc1906146109b05781638456cb59146109545781638da5cb5b1461092b5781639c278efa1461088b5781639e136ec1146107fd578163ba7af008146107b7578163c6ed3be11461073b57508063da8909e514610712578063e63ea40814610655578063ebd99dc6146101cb5763f2fde38b1461010157600080fd5b346101c75760203660031901126101c75761011a6110b1565b906101236110e2565b6001600160a01b03918216928315610175575050600054826001600160601b0360a01b821617600055167f8be0079c531659141344cd1fd0a4f28419497f9722a3daafe3b4186f6b6457e0600080a380f35b906020608492519162461bcd60e51b8352820152602660248201527f4f776e61626c653a206e6577206f776e657220697320746865207a65726f206160448201526564647265737360d01b6064820152fd5b8280fd5b5090346101c75760803660031901126101c7578135916101e96110cc565b9260448035936001600160a01b03808616949092908587036106515760649182359460029760019a898c541461060f57898c556102246111ce565b828a5460081c16156105d55790828d9216998a83528760209387855281812033825285522060ff600782015416156105a1576006810154421161057057818101548a1161052f578e62015180420490600583019081548311610522575b5050508681019081549060036102978d8461113a565b910154106104e1578f9695949392918f8d8f8e878f95928a8c8f95976006986102c3876103619d61113a565b90558951998a976102d389611190565b8989528489019586526005828a019533875260608b0198895260808b01998a5260c060a08c019b428d52019b858d528352522099518a558901925116916001600160601b0360a01b92838254161790558c8a8901915116828254161790558b6003880192511690825416179055518c85015551600584015551151591019060ff801983541691151516179055565b6003548460ff8260a01c1691826104d5575b505015610444575050506003541693843b156101c757889183875196879485936369c5eaeb60e11b85528c898601528b60248601528401525af1801561043a57610408575b50507fe653f9a47a7f3faeee2a31c16138aa1e9428d9938f2f2f4696d9f64dbe5b6ee991610400915b516001600160a01b039096168652602086015233949081906040820190565b0390a4805580f35b67ffffffffffffffff82999399116104275750875295816104006103b8565b634e487b7160e01b835260419052602482fd5b83513d8b823e3d90fd5b90929196939594505460081c16938651956323b872dd60e01b908701528960248701528501528581850152835260a083019083821067ffffffffffffffff8311176104c257507fe653f9a47a7f3faeee2a31c16138aa1e9428d9938f2f2f4696d9f64dbe5b6ee9949284926104bd926104009652611212565b6103e1565b634e487b7160e01b8b526041905260248afd5b16151590508438610373565b895162461bcd60e51b8152808901869052601a60248201527f416d6f756e742065786365656473206461696c79206c696d6974000000000000818901528990fd5b8984015555388f80610281565b885162461bcd60e51b8152808801859052601b60248201527f416d6f756e7420657863656564732073696e676c65206c696d69740000000000818801528890fd5b885162461bcd60e51b8152808801859052600d60248201526c11dc985b9d08195e1c1a5c9959609a1b818801528890fd5b885162461bcd60e51b8152808801859052601060248201526f4772616e74206e6f742061637469766560801b818801528890fd5b5050507414185e5b595b9d081d1bdad95b881b9bdd081cd95d605a1b90602085519362461bcd60e51b855284015260156024840152820152fd5b5050507f5265656e7472616e637947756172643a207265656e7472616e742063616c6c0090602085519362461bcd60e51b8552840152601f6024840152820152fd5b8880fd5b5082903461070e57606036600319011261070e576106716110b1565b6106796110cc565b6106816110e2565b6001600160a01b0392818416156106d75750845163a9059cbb60e01b60208201526001600160a01b03919091166024820152604480358183015281526106d49290916106ce6064846111ac565b16611212565b80f35b606490602087519162461bcd60e51b83528201526011602482015270125b9d985b1a59081c9958da5c1a595b9d607a1b6044820152fd5b5080fd5b50503461070e578160031936011261070e5760035490516001600160a01b039091168152602090f35b939050346107b45760203660031901126107b45782908235815260056020522080549260018060a01b039283600184015416938060028501541690600385015416918401549260ff600660058701549601541695815197885260208801528601526060850152608084015260a0830152151560c0820152f35b80fd5b84833461070e57602036600319011261070e573580151580910361070e576107dd6110e2565b6003805460ff60a01b191660a09290921b60ff60a01b1691909117905580f35b5050346101c75760203660031901126101c7576108186110b1565b6108206110e2565b6001600160a01b03169182156108485750506001600160601b0360a01b600354161760035580f35b906020606492519162461bcd60e51b8352820152601a60248201527f496e76616c696420636f6d6d697373696f6e20616464726573730000000000006044820152fd5b90508391346101c757836003193601126101c75783610100946108ac6110b1565b946108b56110cc565b60018060a01b03809716825284602052868383209116825260205220908482541694600183015416926002830154906003840154908401549160058501549360ff6007600688015497015416968151998a5260208a01528801526060870152608086015260a085015260c0840152151590820152f35b5050503461070e578160031936011261070e57905490516001600160a01b039091168152602090f35b5050503461070e578160031936011261070e5760207f62e78cea01bee320cd4e420270b5ea74000d11b0c9f74754ebdbfc544b05a258916109936110e2565b61099b6111ce565b600160ff19600254161760025551338152a180f35b828486346107b45760203660031901126107b45780829160c083516109d481611190565b82815282602082015282858201528260608201528260808201528260a0820152015283358152600560205220908051918291610a0f83611190565b81549485845260018060a01b039182806001860154166020870190815281806002880154169184890192835260c060ff60068460038c0154169860608d01998a528b01549a60808d019b8c5260a060058201549d019c8d520154169a019915158a5284519a8b52511660208a0152511690870152511660608501525160808401525160a083015251151560c0820152f35b84346107b457806003193601126107b457610ab96110e2565b80546001600160a01b03198116825581906001600160a01b03167f8be0079c531659141344cd1fd0a4f28419497f9722a3daafe3b4186f6b6457e08280a380f35b9192905034610c185780600319360112610c1857928361010094610b1c6110b1565b92610b256110cc565b81868451610b328161115d565b82815282602082015282868201528260608201528260808201528260a08201528260c0820152015260018060a01b0380951682528660205284838320911682526020522090805192610b838461115d565b8083541695868552816001850154169260208601938452600285015481870190815260038601549260608801938452860154936080880194855260058701549560a089019687528960ff600760068b01549a60c08d019b8c520154169901981515895283519a8b52511660208a015251908801525160608701525160808601525160a08501525160c084015251151590820152f35b8380fd5b5050346101c75760203660031901126101c757610c376110b1565b91610c406110e2565b6001600160a01b03831615610c7957505060028054610100600160a81b03191660089290921b610100600160a81b031691909117905580f35b906020606492519162461bcd60e51b83528201526015602482015274496e76616c696420746f6b656e206164647265737360581b6044820152fd5b5050503461070e578160031936011261070e5760209060ff60035460a01c1690519015158152f35b5050503461070e578160031936011261070e5760209060ff6002541690519015158152f35b5050346101c757826003193601126101c757610d1b6110e2565b6002549060ff821615610d5d575060ff1916600255513381527f5db9ee0a495bf2e6ff9c91a7834c1ba4fdd244a5e8aa4e537bd38aeae4b073aa90602090a180f35b606490602084519162461bcd60e51b8352820152601460248201527314185d5cd8589b194e881b9bdd081c185d5cd95960621b6044820152fd5b5050503461070e578160031936011261070e57600254905160089190911c6001600160a01b03168152602090f35b505090346101c757602080600319360112610c1857610de26110b1565b3385528382528285206001600160a01b039091168086529082528285206007015490939060ff1615610e535733808652908252828520848652909152908320600701805460ff191690557fd11acd754bb26b1c2c614f5d846fe7e88fe5218cf98a37555939f62cda0a83f68380a380f35b915162461bcd60e51b815291820152601b60248201527f4772616e74206e6f7420666f756e64206f7220696e61637469766500000000006044820152606490fd5b85918486346110ad5760803660031901126110ad57610eb16110b1565b6001600160a01b039081169460243594604435946064359392909190881561107457508615158061106b575b1561103757858711610ff457916007888a87610fb79588978b8d610f04610fbd9c4261113a565b958986519a8b97610f148961115d565b33895260208901938b8552818a0195865260608a0196875260808a019781895260a08b019a6201518042048c5260c081019c8d52019b60018d5233825289602052828220908252602052209b5116906001600160601b0360a01b91828d5416178c5560018c0192511690825416179055516002890155516003880155519086015551600585015551600684015551151591019060ff801983541691151516179055565b4261113a565b91815193845260208401528201527f457a71784c401c8b696add5f23143a8501ff8825c51bc8fa793a5f90496c962e60603392a380f35b845162461bcd60e51b8152602081840181905260248201527f53696e676c65206c696d69742065786365656473206461696c79206c696d69746044820152606490fd5b845162461bcd60e51b8152602081840152600e60248201526d496e76616c6964206c696d69747360901b6044820152606490fd5b50851515610edd565b62461bcd60e51b81526020838201526015602482015274496e76616c6964206167656e74206164647265737360581b6044820152606490fd5b8480fd5b600435906001600160a01b03821682036110c757565b600080fd5b602435906001600160a01b03821682036110c757565b6000546001600160a01b031633036110f657565b606460405162461bcd60e51b815260206004820152602060248201527f4f776e61626c653a2063616c6c6572206973206e6f7420746865206f776e65726044820152fd5b9190820180921161114757565b634e487b7160e01b600052601160045260246000fd5b610100810190811067ffffffffffffffff82111761117a57604052565b634e487b7160e01b600052604160045260246000fd5b60e0810190811067ffffffffffffffff82111761117a57604052565b90601f8019910116810190811067ffffffffffffffff82111761117a57604052565b60ff600254166111da57565b60405162461bcd60e51b815260206004820152601060248201526f14185d5cd8589b194e881c185d5cd95960821b6044820152606490fd5b60018060a01b0316906040516040810167ffffffffffffffff908281108282111761117a576040526020938483527f5361666545524332303a206c6f772d6c6576656c2063616c6c206661696c6564858401526000808587829751910182855af1903d15611357573d92831161134357906112ad939291604051926112a088601f19601f84011601856111ac565b83523d868885013e611362565b80519182159184831561131f575b5050509050156112c85750565b6084906040519062461bcd60e51b82526004820152602a60248201527f5361666545524332303a204552433230206f7065726174696f6e20646964206e6044820152691bdd081cdd58d8d9595960b21b6064820152fd5b91938180945001031261070e578201519081151582036107b45750803880846112bb565b634e487b7160e01b85526041600452602485fd5b906112ad9392506060915b919290156113c45750815115611376575090565b3b1561137f5790565b60405162461bcd60e51b815260206004820152601d60248201527f416464726573733a2063616c6c20746f206e6f6e2d636f6e74726163740000006044820152606490fd5b8251909150156113d75750805190602001fd5b6040519062461bcd60e51b82528160208060048301528251908160248401526000935b82851061141d575050604492506000838284010152601f80199101168101030190fd5b84810182015186860160440152938101938593506113fa56fea26469706673582212209506d065a1f8749f36ba97eb1defdafa3094df57640b35b82bf9f5b3f9683e3964736f6c63430008140033","opcodes":"PUSH1 0x80 DUP1 PUSH1 0x40 MSTORE CALLVALUE PUSH2 0x69 JUMPI PUSH1 0x0 DUP1 SLOAD CALLER PUSH1 0x1 PUSH1 0x1 PUSH1 0xA0 SHL SUB NOT DUP3 AND DUP2 OR DUP4 SSTORE SWAP2 PUSH1 0x1 PUSH1 0x1 PUSH1 0xA0 SHL SUB SWAP1 SWAP2 AND SWAP1 PUSH32 0x8BE0079C531659141344CD1FD0A4F28419497F9722A3DAAFE3B4186F6B6457E0 SWAP1 DUP1 LOG3 PUSH1 0x1 DUP1 SSTORE PUSH1 0xFF NOT PUSH1 0x2 SLOAD AND PUSH1 0x2 SSTORE PUSH2 0x146C SWAP1 DUP2 PUSH2 0x6F DUP3 CODECOPY RETURN JUMPDEST PUSH1 0x0 DUP1 REVERT INVALID PUSH1 0x80 PUSH1 0x40 DUP2 DUP2 MSTORE PUSH1 0x4 DUP1 CALLDATASIZE LT ISZERO PUSH2 0x15 JUMPI PUSH1 0x0 DUP1 REVERT JUMPDEST PUSH1 0x0 SWAP3 PUSH1 0xE0 DUP5 CALLDATALOAD DUP2 SHR SWAP2 DUP3 PUSH4 0x16140B7A EQ PUSH2 0xE94 JUMPI POP DUP2 PUSH4 0x1817C5A7 EQ PUSH2 0xDC5 JUMPI DUP2 PUSH4 0x3013CE29 EQ PUSH2 0xD97 JUMPI DUP2 PUSH4 0x3F4BA83A EQ PUSH2 0xD01 JUMPI DUP2 PUSH4 0x5C975ABB EQ PUSH2 0xCDC JUMPI DUP2 PUSH4 0x5D48DBCF EQ PUSH2 0xCB4 JUMPI DUP2 PUSH4 0x6A326AB1 EQ PUSH2 0xC1C JUMPI DUP2 PUSH4 0x6D1319EB EQ PUSH2 0xAFA JUMPI DUP2 PUSH4 0x715018A6 EQ PUSH2 0xAA0 JUMPI DUP2 PUSH4 0x77FC1906 EQ PUSH2 0x9B0 JUMPI DUP2 PUSH4 0x8456CB59 EQ PUSH2 0x954 JUMPI DUP2 PUSH4 0x8DA5CB5B EQ PUSH2 0x92B JUMPI DUP2 PUSH4 0x9C278EFA EQ PUSH2 0x88B JUMPI DUP2 PUSH4 0x9E136EC1 EQ PUSH2 0x7FD JUMPI DUP2 PUSH4 0xBA7AF008 EQ PUSH2 0x7B7 JUMPI DUP2 PUSH4 0xC6ED3BE1 EQ PUSH2 0x73B JUMPI POP DUP1 PUSH4 0xDA8909E5 EQ PUSH2 0x712 JUMPI DUP1 PUSH4 0xE63EA408 EQ PUSH2 0x655 JUMPI DUP1 PUSH4 0xEBD99DC6 EQ PUSH2 0x1CB JUMPI PUSH4 0xF2FDE38B EQ PUSH2 0x101 JUMPI PUSH1 0x0 DUP1 REVERT JUMPDEST CALLVALUE PUSH2 0x1C7 JUMPI PUSH1 0x20 CALLDATASIZE PUSH1 0x3 NOT ADD SLT PUSH2 0x1C7 JUMPI PUSH2 0x11A PUSH2 0x10B1 JUMP JUMPDEST SWAP1 PUSH2 0x123 PUSH2 0x10E2 JUMP JUMPDEST PUSH1 0x1 PUSH1 0x1 PUSH1 0xA0 SHL SUB SWAP2 DUP3 AND SWAP3 DUP4 ISZERO PUSH2 0x175 JUMPI POP POP PUSH1 0x0 SLOAD DUP3 PUSH1 0x1 PUSH1 0x1 PUSH1 0x60 SHL SUB PUSH1 0xA0 SHL DUP3 AND OR PUSH1 0x0 SSTORE AND PUSH32 0x8BE0079C531659141344CD1FD0A4F28419497F9722A3DAAFE3B4186F6B6457E0 PUSH1 0x0 DUP1 LOG3 DUP1 RETURN JUMPDEST SWAP1 PUSH1 0x20 PUSH1 0x84 SWAP3 MLOAD SWAP2 PUSH3 0x461BCD PUSH1 0xE5 SHL DUP4 MSTORE DUP3 ADD MSTORE PUSH1 0x26 PUSH1 0x24 DUP3 ADD MSTORE PUSH32 0x4F776E61626C653A206E6577206F776E657220697320746865207A65726F2061 PUSH1 0x44 DUP3 ADD MSTORE PUSH6 0x646472657373 PUSH1 0xD0 SHL PUSH1 0x64 DUP3 ADD MSTORE REVERT JUMPDEST DUP3 DUP1 REVERT JUMPDEST POP SWAP1 CALLVALUE PUSH2 0x1C7 JUMPI PUSH1 0x80 CALLDATASIZE PUSH1 0x3 NOT ADD SLT PUSH2 0x1C7 JUMPI DUP2 CALLDATALOAD SWAP2 PUSH2 0x1E9 PUSH2 0x10CC JUMP JUMPDEST SWAP3 PUSH1 0x44 DUP1 CALLDATALOAD SWAP4 PUSH1 0x1 PUSH1 0x1 PUSH1 0xA0 SHL SUB DUP1 DUP7 AND SWAP5 SWAP1 SWAP3 SWAP1 DUP6 DUP8 SUB PUSH2 0x651 JUMPI PUSH1 0x64 SWAP2 DUP3 CALLDATALOAD SWAP5 PUSH1 0x2 SWAP8 PUSH1 0x1 SWAP11 DUP10 DUP13 SLOAD EQ PUSH2 0x60F JUMPI DUP10 DUP13 SSTORE PUSH2 0x224 PUSH2 0x11CE JUMP JUMPDEST DUP3 DUP11 SLOAD PUSH1 0x8 SHR AND ISZERO PUSH2 0x5D5 JUMPI SWAP1 DUP3 DUP14 SWAP3 AND SWAP10 DUP11 DUP4 MSTORE DUP8 PUSH1 0x20 SWAP4 DUP8 DUP6 MSTORE DUP2 DUP2 KECCAK256 CALLER DUP3 MSTORE DUP6 MSTORE KECCAK256 PUSH1 0xFF PUSH1 0x7 DUP3 ADD SLOAD AND ISZERO PUSH2 0x5A1 JUMPI PUSH1 0x6 DUP2 ADD SLOAD TIMESTAMP GT PUSH2 0x570 JUMPI DUP2 DUP2 ADD SLOAD DUP11 GT PUSH2 0x52F JUMPI DUP15 PUSH3 0x15180 TIMESTAMP DIV SWAP1 PUSH1 0x5 DUP4 ADD SWAP1 DUP2 SLOAD DUP4 GT PUSH2 0x522 JUMPI JUMPDEST POP POP POP DUP7 DUP2 ADD SWAP1 DUP2 SLOAD SWAP1 PUSH1 0x3 PUSH2 0x297 DUP14 DUP5 PUSH2 0x113A JUMP JUMPDEST SWAP2 ADD SLOAD LT PUSH2 0x4E1 JUMPI DUP16 SWAP7 SWAP6 SWAP5 SWAP4 SWAP3 SWAP2 DUP16 DUP14 DUP16 DUP15 DUP8 DUP16 SWAP6 SWAP3 DUP11 DUP13 DUP16 SWAP6 SWAP8 PUSH1 0x6 SWAP9 PUSH2 0x2C3 DUP8 PUSH2 0x361 SWAP14 PUSH2 0x113A JUMP JUMPDEST SWAP1 SSTORE DUP10 MLOAD SWAP10 DUP11 SWAP8 PUSH2 0x2D3 DUP10 PUSH2 0x1190 JUMP JUMPDEST DUP10 DUP10 MSTORE DUP5 DUP10 ADD SWAP6 DUP7 MSTORE PUSH1 0x5 DUP3 DUP11 ADD SWAP6 CALLER DUP8 MSTORE PUSH1 0x60 DUP12 ADD SWAP9 DUP10 MSTORE PUSH1 0x80 DUP12 ADD SWAP10 DUP11 MSTORE PUSH1 0xC0 PUSH1 0xA0 DUP13 ADD SWAP12 TIMESTAMP DUP14 MSTORE ADD SWAP12 DUP6 DUP14 MSTORE DUP4 MSTORE MSTORE KECCAK256 SWAP10 MLOAD DUP11 SSTORE DUP10 ADD SWAP3 MLOAD AND SWAP2 PUSH1 0x1 PUSH1 0x1 PUSH1 0x60 SHL SUB PUSH1 0xA0 SHL SWAP3 DUP4 DUP3 SLOAD AND OR SWAP1 SSTORE DUP13 DUP11 DUP10 ADD SWAP2 MLOAD AND DUP3 DUP3 SLOAD AND OR SWAP1 SSTORE DUP12 PUSH1 0x3 DUP9 ADD SWAP3 MLOAD AND SWAP1 DUP3 SLOAD AND OR SWAP1 SSTORE MLOAD DUP13 DUP6 ADD SSTORE MLOAD PUSH1 0x5 DUP5 ADD SSTORE MLOAD ISZERO ISZERO SWAP2 ADD SWAP1 PUSH1 0xFF DUP1 NOT DUP4 SLOAD AND SWAP2 ISZERO ISZERO AND OR SWAP1 SSTORE JUMP JUMPDEST PUSH1 0x3 SLOAD DUP5 PUSH1 0xFF DUP3 PUSH1 0xA0 SHR AND SWAP2 DUP3 PUSH2 0x4D5 JUMPI JUMPDEST POP POP ISZERO PUSH2 0x444 JUMPI POP POP POP PUSH1 0x3 SLOAD AND SWAP4 DUP5 EXTCODESIZE ISZERO PUSH2 0x1C7 JUMPI DUP9 SWAP2 DUP4 DUP8 MLOAD SWAP7 DUP8 SWAP5 DUP6 SWAP4 PUSH4 0x69C5EAEB PUSH1 0xE1 SHL DUP6 MSTORE DUP13 DUP10 DUP7 ADD MSTORE DUP12 PUSH1 0x24 DUP7 ADD MSTORE DUP5 ADD MSTORE GAS CALL DUP1 ISZERO PUSH2 0x43A JUMPI PUSH2 0x408 JUMPI JUMPDEST POP POP PUSH32 0xE653F9A47A7F3FAEEE2A31C16138AA1E9428D9938F2F2F4696D9F64DBE5B6EE9 SWAP2 PUSH2 0x400 SWAP2 JUMPDEST MLOAD PUSH1 0x1 PUSH1 0x1 PUSH1 0xA0 SHL SUB SWAP1 SWAP7 AND DUP7 MSTORE PUSH1 0x20 DUP7 ADD MSTORE CALLER SWAP5 SWAP1 DUP2 SWAP1 PUSH1 0x40 DUP3 ADD SWAP1 JUMP JUMPDEST SUB SWAP1 LOG4 DUP1 SSTORE DUP1 RETURN JUMPDEST PUSH8 0xFFFFFFFFFFFFFFFF DUP3 SWAP10 SWAP4 SWAP10 GT PUSH2 0x427 JUMPI POP DUP8 MSTORE SWAP6 DUP2 PUSH2 0x400 PUSH2 0x3B8 JUMP JUMPDEST PUSH4 0x4E487B71 PUSH1 0xE0 SHL DUP4 MSTORE PUSH1 0x41 SWAP1 MSTORE PUSH1 0x24 DUP3 REVERT JUMPDEST DUP4 MLOAD RETURNDATASIZE DUP12 DUP3 RETURNDATACOPY RETURNDATASIZE SWAP1 REVERT JUMPDEST SWAP1 SWAP3 SWAP2 SWAP7 SWAP4 SWAP6 SWAP5 POP SLOAD PUSH1 0x8 SHR AND SWAP4 DUP7 MLOAD SWAP6 PUSH4 0x23B872DD PUSH1 0xE0 SHL SWAP1 DUP8 ADD MSTORE DUP10 PUSH1 0x24 DUP8 ADD MSTORE DUP6 ADD MSTORE DUP6 DUP2 DUP6 ADD MSTORE DUP4 MSTORE PUSH1 0xA0 DUP4 ADD SWAP1 DUP4 DUP3 LT PUSH8 0xFFFFFFFFFFFFFFFF DUP4 GT OR PUSH2 0x4C2 JUMPI POP PUSH32 0xE653F9A47A7F3FAEEE2A31C16138AA1E9428D9938F2F2F4696D9F64DBE5B6EE9 SWAP5 SWAP3 DUP5 SWAP3 PUSH2 0x4BD SWAP3 PUSH2 0x400 SWAP7 MSTORE PUSH2 0x1212 JUMP JUMPDEST PUSH2 0x3E1 JUMP JUMPDEST PUSH4 0x4E487B71 PUSH1 0xE0 SHL DUP12 MSTORE PUSH1 0x41 SWAP1 MSTORE PUSH1 0x24 DUP11 REVERT JUMPDEST AND ISZERO ISZERO SWAP1 POP DUP5 CODESIZE PUSH2 0x373 JUMP JUMPDEST DUP10 MLOAD PUSH3 0x461BCD PUSH1 0xE5 SHL DUP2 MSTORE DUP1 DUP10 ADD DUP7 SWAP1 MSTORE PUSH1 0x1A PUSH1 0x24 DUP3 ADD MSTORE PUSH32 0x416D6F756E742065786365656473206461696C79206C696D6974000000000000 DUP2 DUP10 ADD MSTORE DUP10 SWAP1 REVERT JUMPDEST DUP10 DUP5 ADD SSTORE SSTORE CODESIZE DUP16 DUP1 PUSH2 0x281 JUMP JUMPDEST DUP9 MLOAD PUSH3 0x461BCD PUSH1 0xE5 SHL DUP2 MSTORE DUP1 DUP9 ADD DUP6 SWAP1 MSTORE PUSH1 0x1B PUSH1 0x24 DUP3 ADD MSTORE PUSH32 0x416D6F756E7420657863656564732073696E676C65206C696D69740000000000 DUP2 DUP9 ADD MSTORE DUP9 SWAP1 REVERT JUMPDEST DUP9 MLOAD PUSH3 0x461BCD PUSH1 0xE5 SHL DUP2 MSTORE DUP1 DUP9 ADD DUP6 SWAP1 MSTORE PUSH1 0xD PUSH1 0x24 DUP3 ADD MSTORE PUSH13 0x11DC985B9D08195E1C1A5C9959 PUSH1 0x9A SHL DUP2 DUP9 ADD MSTORE DUP9 SWAP1 REVERT JUMPDEST DUP9 MLOAD PUSH3 0x461BCD PUSH1 0xE5 SHL DUP2 MSTORE DUP1 DUP9 ADD DUP6 SWAP1 MSTORE PUSH1 0x10 PUSH1 0x24 DUP3 ADD MSTORE PUSH16 0x4772616E74206E6F7420616374697665 PUSH1 0x80 SHL DUP2 DUP9 ADD MSTORE DUP9 SWAP1 REVERT JUMPDEST POP POP POP PUSH21 0x14185E5B595B9D081D1BDAD95B881B9BDD081CD95D PUSH1 0x5A SHL SWAP1 PUSH1 0x20 DUP6 MLOAD SWAP4 PUSH3 0x461BCD PUSH1 0xE5 SHL DUP6 MSTORE DUP5 ADD MSTORE PUSH1 0x15 PUSH1 0x24 DUP5 ADD MSTORE DUP3 ADD MSTORE REVERT JUMPDEST POP POP POP PUSH32 0x5265656E7472616E637947756172643A207265656E7472616E742063616C6C00 SWAP1 PUSH1 0x20 DUP6 MLOAD SWAP4 PUSH3 0x461BCD PUSH1 0xE5 SHL DUP6 MSTORE DUP5 ADD MSTORE PUSH1 0x1F PUSH1 0x24 DUP5 ADD MSTORE DUP3 ADD MSTORE REVERT JUMPDEST DUP9 DUP1 REVERT JUMPDEST POP DUP3 SWAP1 CALLVALUE PUSH2 0x70E JUMPI PUSH1 0x60 CALLDATASIZE PUSH1 0x3 NOT ADD SLT PUSH2 0x70E JUMPI PUSH2 0x671 PUSH2 0x10B1 JUMP JUMPDEST PUSH2 0x679 PUSH2 0x10CC JUMP JUMPDEST PUSH2 0x681 PUSH2 0x10E2 JUMP JUMPDEST PUSH1 0x1 PUSH1 0x1 PUSH1 0xA0 SHL SUB SWAP3 DUP2 DUP5 AND ISZERO PUSH2 0x6D7 JUMPI POP DUP5 MLOAD PUSH4 0xA9059CBB PUSH1 0xE0 SHL PUSH1 0x20 DUP3 ADD MSTORE PUSH1 0x1 PUSH1 0x1 PUSH1 0xA0 SHL SUB SWAP2 SWAP1 SWAP2 AND PUSH1 0x24 DUP3 ADD MSTORE PUSH1 0x44 DUP1 CALLDATALOAD DUP2 DUP4 ADD MSTORE DUP2 MSTORE PUSH2 0x6D4 SWAP3 SWAP1 SWAP2 PUSH2 0x6CE PUSH1 0x64 DUP5 PUSH2 0x11AC JUMP JUMPDEST AND PUSH2 0x1212 JUMP JUMPDEST DUP1 RETURN JUMPDEST PUSH1 0x64 SWAP1 PUSH1 0x20 DUP8 MLOAD SWAP2 PUSH3 0x461BCD PUSH1 0xE5 SHL DUP4 MSTORE DUP3 ADD MSTORE PUSH1 0x11 PUSH1 0x24 DUP3 ADD MSTORE PUSH17 0x125B9D985B1A59081C9958DA5C1A595B9D PUSH1 0x7A SHL PUSH1 0x44 DUP3 ADD MSTORE REVERT JUMPDEST POP DUP1 REVERT JUMPDEST POP POP CALLVALUE PUSH2 0x70E JUMPI DUP2 PUSH1 0x3 NOT CALLDATASIZE ADD SLT PUSH2 0x70E JUMPI PUSH1 0x3 SLOAD SWAP1 MLOAD PUSH1 0x1 PUSH1 0x1 PUSH1 0xA0 SHL SUB SWAP1 SWAP2 AND DUP2 MSTORE PUSH1 0x20 SWAP1 RETURN JUMPDEST SWAP4 SWAP1 POP CALLVALUE PUSH2 0x7B4 JUMPI PUSH1 0x20 CALLDATASIZE PUSH1 0x3 NOT ADD SLT PUSH2 0x7B4 JUMPI DUP3 SWAP1 DUP3 CALLDATALOAD DUP2 MSTORE PUSH1 0x5 PUSH1 0x20 MSTORE KECCAK256 DUP1 SLOAD SWAP3 PUSH1 0x1 DUP1 PUSH1 0xA0 SHL SUB SWAP3 DUP4 PUSH1 0x1 DUP5 ADD SLOAD AND SWAP4 DUP1 PUSH1 0x2 DUP6 ADD SLOAD AND SWAP1 PUSH1 0x3 DUP6 ADD SLOAD AND SWAP2 DUP5 ADD SLOAD SWAP3 PUSH1 0xFF PUSH1 0x6 PUSH1 0x5 DUP8 ADD SLOAD SWAP7 ADD SLOAD AND SWAP6 DUP2 MLOAD SWAP8 DUP9 MSTORE PUSH1 0x20 DUP9 ADD MSTORE DUP7 ADD MSTORE PUSH1 0x60 DUP6 ADD MSTORE PUSH1 0x80 DUP5 ADD MSTORE PUSH1 0xA0 DUP4 ADD MSTORE ISZERO ISZERO PUSH1 0xC0 DUP3 ADD MSTORE RETURN JUMPDEST DUP1 REVERT JUMPDEST DUP5 DUP4 CALLVALUE PUSH2 0x70E JUMPI PUSH1 0x20 CALLDATASIZE PUSH1 0x3 NOT ADD SLT PUSH2 0x70E JUMPI CALLDATALOAD DUP1 ISZERO ISZERO DUP1 SWAP2 SUB PUSH2 0x70E JUMPI PUSH2 0x7DD PUSH2 0x10E2 JUMP JUMPDEST PUSH1 0x3 DUP1 SLOAD PUSH1 0xFF PUSH1 0xA0 SHL NOT AND PUSH1 0xA0 SWAP3 SWAP1 SWAP3 SHL PUSH1 0xFF PUSH1 0xA0 SHL AND SWAP2 SWAP1 SWAP2 OR SWAP1 SSTORE DUP1 RETURN JUMPDEST POP POP CALLVALUE PUSH2 0x1C7 JUMPI PUSH1 0x20 CALLDATASIZE PUSH1 0x3 NOT ADD SLT PUSH2 0x1C7 JUMPI PUSH2 0x818 PUSH2 0x10B1 JUMP JUMPDEST PUSH2 0x820 PUSH2 0x10E2 JUMP JUMPDEST PUSH1 0x1 PUSH1 0x1 PUSH1 0xA0 SHL SUB AND SWAP2 DUP3 ISZERO PUSH2 0x848 JUMPI POP POP PUSH1 0x1 PUSH1 0x1 PUSH1 0x60 SHL SUB PUSH1 0xA0 SHL PUSH1 0x3 SLOAD AND OR PUSH1 0x3 SSTORE DUP1 RETURN JUMPDEST SWAP1 PUSH1 0x20 PUSH1 0x64 SWAP3 MLOAD SWAP2 PUSH3 0x461BCD PUSH1 0xE5 SHL DUP4 MSTORE DUP3 ADD MSTORE PUSH1 0x1A PUSH1 0x24 DUP3 ADD MSTORE PUSH32 0x496E76616C696420636F6D6D697373696F6E2061646472657373000000000000 PUSH1 0x44 DUP3 ADD MSTORE REVERT JUMPDEST SWAP1 POP DUP4 SWAP2 CALLVALUE PUSH2 0x1C7 JUMPI DUP4 PUSH1 0x3 NOT CALLDATASIZE ADD SLT PUSH2 0x1C7 JUMPI DUP4 PUSH2 0x100 SWAP5 PUSH2 0x8AC PUSH2 0x10B1 JUMP JUMPDEST SWAP5 PUSH2 0x8B5 PUSH2 0x10CC JUMP JUMPDEST PUSH1 0x1 DUP1 PUSH1 0xA0 SHL SUB DUP1 SWAP8 AND DUP3 MSTORE DUP5 PUSH1 0x20 MSTORE DUP7 DUP4 DUP4 KECCAK256 SWAP2 AND DUP3 MSTORE PUSH1 0x20 MSTORE KECCAK256 SWAP1 DUP5 DUP3 SLOAD AND SWAP5 PUSH1 0x1 DUP4 ADD SLOAD AND SWAP3 PUSH1 0x2 DUP4 ADD SLOAD SWAP1 PUSH1 0x3 DUP5 ADD SLOAD SWAP1 DUP5 ADD SLOAD SWAP2 PUSH1 0x5 DUP6 ADD SLOAD SWAP4 PUSH1 0xFF PUSH1 0x7 PUSH1 0x6 DUP9 ADD SLOAD SWAP8 ADD SLOAD AND SWAP7 DUP2 MLOAD SWAP10 DUP11 MSTORE PUSH1 0x20 DUP11 ADD MSTORE DUP9 ADD MSTORE PUSH1 0x60 DUP8 ADD MSTORE PUSH1 0x80 DUP7 ADD MSTORE PUSH1 0xA0 DUP6 ADD MSTORE PUSH1 0xC0 DUP5 ADD MSTORE ISZERO ISZERO SWAP1 DUP3 ADD MSTORE RETURN JUMPDEST POP POP POP CALLVALUE PUSH2 0x70E JUMPI DUP2 PUSH1 0x3 NOT CALLDATASIZE ADD SLT PUSH2 0x70E JUMPI SWAP1 SLOAD SWAP1 MLOAD PUSH1 0x1 PUSH1 0x1 PUSH1 0xA0 SHL SUB SWAP1 SWAP2 AND DUP2 MSTORE PUSH1 0x20 SWAP1 RETURN JUMPDEST POP POP POP CALLVALUE PUSH2 0x70E JUMPI DUP2 PUSH1 0x3 NOT CALLDATASIZE ADD SLT PUSH2 0x70E JUMPI PUSH1 0x20 PUSH32 0x62E78CEA01BEE320CD4E420270B5EA74000D11B0C9F74754EBDBFC544B05A258 SWAP2 PUSH2 0x993 PUSH2 0x10E2 JUMP JUMPDEST PUSH2 0x99B PUSH2 0x11CE JUMP JUMPDEST PUSH1 0x1 PUSH1 0xFF NOT PUSH1 0x2 SLOAD AND OR PUSH1 0x2 SSTORE MLOAD CALLER DUP2 MSTORE LOG1 DUP1 RETURN JUMPDEST DUP3 DUP5 DUP7 CALLVALUE PUSH2 0x7B4 JUMPI PUSH1 0x20 CALLDATASIZE PUSH1 0x3 NOT ADD SLT PUSH2 0x7B4 JUMPI DUP1 DUP3 SWAP2 PUSH1 0xC0 DUP4 MLOAD PUSH2 0x9D4 DUP2 PUSH2 0x1190 JUMP JUMPDEST DUP3 DUP2 MSTORE DUP3 PUSH1 0x20 DUP3 ADD MSTORE DUP3 DUP6 DUP3 ADD MSTORE DUP3 PUSH1 0x60 DUP3 ADD MSTORE DUP3 PUSH1 0x80 DUP3 ADD MSTORE DUP3 PUSH1 0xA0 DUP3 ADD MSTORE ADD MSTORE DUP4 CALLDATALOAD DUP2 MSTORE PUSH1 0x5 PUSH1 0x20 MSTORE KECCAK256 SWAP1 DUP1 MLOAD SWAP2 DUP3 SWAP2 PUSH2 0xA0F DUP4 PUSH2 0x1190 JUMP JUMPDEST DUP2 SLOAD SWAP5 DUP6 DUP5 MSTORE PUSH1 0x1 DUP1 PUSH1 0xA0 SHL SUB SWAP2 DUP3 DUP1 PUSH1 0x1 DUP7 ADD SLOAD AND PUSH1 0x20 DUP8 ADD SWAP1 DUP2 MSTORE DUP2 DUP1 PUSH1 0x2 DUP9 ADD SLOAD AND SWAP2 DUP5 DUP10 ADD SWAP3 DUP4 MSTORE PUSH1 0xC0 PUSH1 0xFF PUSH1 0x6 DUP5 PUSH1 0x3 DUP13 ADD SLOAD AND SWAP9 PUSH1 0x60 DUP14 ADD SWAP10 DUP11 MSTORE DUP12 ADD SLOAD SWAP11 PUSH1 0x80 DUP14 ADD SWAP12 DUP13 MSTORE PUSH1 0xA0 PUSH1 0x5 DUP3 ADD SLOAD SWAP14 ADD SWAP13 DUP14 MSTORE ADD SLOAD AND SWAP11 ADD SWAP10 ISZERO ISZERO DUP11 MSTORE DUP5 MLOAD SWAP11 DUP12 MSTORE MLOAD AND PUSH1 0x20 DUP11 ADD MSTORE MLOAD AND SWAP1 DUP8 ADD MSTORE MLOAD AND PUSH1 0x60 DUP6 ADD MSTORE MLOAD PUSH1 0x80 DUP5 ADD MSTORE MLOAD PUSH1 0xA0 DUP4 ADD MSTORE MLOAD ISZERO ISZERO PUSH1 0xC0 DUP3 ADD MSTORE RETURN JUMPDEST DUP5 CALLVALUE PUSH2 0x7B4 JUMPI DUP1 PUSH1 0x3 NOT CALLDATASIZE ADD SLT PUSH2 0x7B4 JUMPI PUSH2 0xAB9 PUSH2 0x10E2 JUMP JUMPDEST DUP1 SLOAD PUSH1 0x1 PUSH1 0x1 PUSH1 0xA0 SHL SUB NOT DUP2 AND DUP3 SSTORE DUP2 SWAP1 PUSH1 0x1 PUSH1 0x1 PUSH1 0xA0 SHL SUB AND PUSH32 0x8BE0079C531659141344CD1FD0A4F28419497F9722A3DAAFE3B4186F6B6457E0 DUP3 DUP1 LOG3 DUP1 RETURN JUMPDEST SWAP2 SWAP3 SWAP1 POP CALLVALUE PUSH2 0xC18 JUMPI DUP1 PUSH1 0x3 NOT CALLDATASIZE ADD SLT PUSH2 0xC18 JUMPI SWAP3 DUP4 PUSH2 0x100 SWAP5 PUSH2 0xB1C PUSH2 0x10B1 JUMP JUMPDEST SWAP3 PUSH2 0xB25 PUSH2 0x10CC JUMP JUMPDEST DUP2 DUP7 DUP5 MLOAD PUSH2 0xB32 DUP2 PUSH2 0x115D JUMP JUMPDEST DUP3 DUP2 MSTORE DUP3 PUSH1 0x20 DUP3 ADD MSTORE DUP3 DUP7 DUP3 ADD MSTORE DUP3 PUSH1 0x60 DUP3 ADD MSTORE DUP3 PUSH1 0x80 DUP3 ADD MSTORE DUP3 PUSH1 0xA0 DUP3 ADD MSTORE DUP3 PUSH1 0xC0 DUP3 ADD MSTORE ADD MSTORE PUSH1 0x1 DUP1 PUSH1 0xA0 SHL SUB DUP1 SWAP6 AND DUP3 MSTORE DUP7 PUSH1 0x20 MSTORE DUP5 DUP4 DUP4 KECCAK256 SWAP2 AND DUP3 MSTORE PUSH1 0x20 MSTORE KECCAK256 SWAP1 DUP1 MLOAD SWAP3 PUSH2 0xB83 DUP5 PUSH2 0x115D JUMP JUMPDEST DUP1 DUP4 SLOAD AND SWAP6 DUP7 DUP6 MSTORE DUP2 PUSH1 0x1 DUP6 ADD SLOAD AND SWAP3 PUSH1 0x20 DUP7 ADD SWAP4 DUP5 MSTORE PUSH1 0x2 DUP6 ADD SLOAD DUP2 DUP8 ADD SWAP1 DUP2 MSTORE PUSH1 0x3 DUP7 ADD SLOAD SWAP3 PUSH1 0x60 DUP9 ADD SWAP4 DUP5 MSTORE DUP7 ADD SLOAD SWAP4 PUSH1 0x80 DUP9 ADD SWAP5 DUP6 MSTORE PUSH1 0x5 DUP8 ADD SLOAD SWAP6 PUSH1 0xA0 DUP10 ADD SWAP7 DUP8 MSTORE DUP10 PUSH1 0xFF PUSH1 0x7 PUSH1 0x6 DUP12 ADD SLOAD SWAP11 PUSH1 0xC0 DUP14 ADD SWAP12 DUP13 MSTORE ADD SLOAD AND SWAP10 ADD SWAP9 ISZERO ISZERO DUP10 MSTORE DUP4 MLOAD SWAP11 DUP12 MSTORE MLOAD AND PUSH1 0x20 DUP11 ADD MSTORE MLOAD SWAP1 DUP9 ADD MSTORE MLOAD PUSH1 0x60 DUP8 ADD MSTORE MLOAD PUSH1 0x80 DUP7 ADD MSTORE MLOAD PUSH1 0xA0 DUP6 ADD MSTORE MLOAD PUSH1 0xC0 DUP5 ADD MSTORE MLOAD ISZERO ISZERO SWAP1 DUP3 ADD MSTORE RETURN JUMPDEST DUP4 DUP1 REVERT JUMPDEST POP POP CALLVALUE PUSH2 0x1C7 JUMPI PUSH1 0x20 CALLDATASIZE PUSH1 0x3 NOT ADD SLT PUSH2 0x1C7 JUMPI PUSH2 0xC37 PUSH2 0x10B1 JUMP JUMPDEST SWAP2 PUSH2 0xC40 PUSH2 0x10E2 JUMP JUMPDEST PUSH1 0x1 PUSH1 0x1 PUSH1 0xA0 SHL SUB DUP4 AND ISZERO PUSH2 0xC79 JUMPI POP POP PUSH1 0x2 DUP1 SLOAD PUSH2 0x100 PUSH1 0x1 PUSH1 0xA8 SHL SUB NOT AND PUSH1 0x8 SWAP3 SWAP1 SWAP3 SHL PUSH2 0x100 PUSH1 0x1 PUSH1 0xA8 SHL SUB AND SWAP2 SWAP1 SWAP2 OR SWAP1 SSTORE DUP1 RETURN JUMPDEST SWAP1 PUSH1 0x20 PUSH1 0x64 SWAP3 MLOAD SWAP2 PUSH3 0x461BCD PUSH1 0xE5 SHL DUP4 MSTORE DUP3 ADD MSTORE PUSH1 0x15 PUSH1 0x24 DUP3 ADD MSTORE PUSH21 0x496E76616C696420746F6B656E2061646472657373 PUSH1 0x58 SHL PUSH1 0x44 DUP3 ADD MSTORE REVERT JUMPDEST POP POP POP CALLVALUE PUSH2 0x70E JUMPI DUP2 PUSH1 0x3 NOT CALLDATASIZE ADD SLT PUSH2 0x70E JUMPI PUSH1 0x20 SWAP1 PUSH1 0xFF PUSH1 0x3 SLOAD PUSH1 0xA0 SHR AND SWAP1 MLOAD SWAP1 ISZERO ISZERO DUP2 MSTORE RETURN JUMPDEST POP POP POP CALLVALUE PUSH2 0x70E JUMPI DUP2 PUSH1 0x3 NOT CALLDATASIZE ADD SLT PUSH2 0x70E JUMPI PUSH1 0x20 SWAP1 PUSH1 0xFF PUSH1 0x2 SLOAD AND SWAP1 MLOAD SWAP1 ISZERO ISZERO DUP2 MSTORE RETURN JUMPDEST POP POP CALLVALUE PUSH2 0x1C7 JUMPI DUP3 PUSH1 0x3 NOT CALLDATASIZE ADD SLT PUSH2 0x1C7 JUMPI PUSH2 0xD1B PUSH2 0x10E2 JUMP JUMPDEST PUSH1 0x2 SLOAD SWAP1 PUSH1 0xFF DUP3 AND ISZERO PUSH2 0xD5D JUMPI POP PUSH1 0xFF NOT AND PUSH1 0x2 SSTORE MLOAD CALLER DUP2 MSTORE PUSH32 0x5DB9EE0A495BF2E6FF9C91A7834C1BA4FDD244A5E8AA4E537BD38AEAE4B073AA SWAP1 PUSH1 0x20 SWAP1 LOG1 DUP1 RETURN JUMPDEST PUSH1 0x64 SWAP1 PUSH1 0x20 DUP5 MLOAD SWAP2 PUSH3 0x461BCD PUSH1 0xE5 SHL DUP4 MSTORE DUP3 ADD MSTORE PUSH1 0x14 PUSH1 0x24 DUP3 ADD MSTORE PUSH20 0x14185D5CD8589B194E881B9BDD081C185D5CD959 PUSH1 0x62 SHL PUSH1 0x44 DUP3 ADD MSTORE REVERT JUMPDEST POP POP POP CALLVALUE PUSH2 0x70E JUMPI DUP2 PUSH1 0x3 NOT CALLDATASIZE ADD SLT PUSH2 0x70E JUMPI PUSH1 0x2 SLOAD SWAP1 MLOAD PUSH1 0x8 SWAP2 SWAP1 SWAP2 SHR PUSH1 0x1 PUSH1 0x1 PUSH1 0xA0 SHL SUB AND DUP2 MSTORE PUSH1 0x20 SWAP1 RETURN JUMPDEST POP POP SWAP1 CALLVALUE PUSH2 0x1C7 JUMPI PUSH1 0x20 DUP1 PUSH1 0x3 NOT CALLDATASIZE ADD SLT PUSH2 0xC18 JUMPI PUSH2 0xDE2 PUSH2 0x10B1 JUMP JUMPDEST CALLER DUP6 MSTORE DUP4 DUP3 MSTORE DUP3 DUP6 KECCAK256 PUSH1 0x1 PUSH1 0x1 PUSH1 0xA0 SHL SUB SWAP1 SWAP2 AND DUP1 DUP7 MSTORE SWAP1 DUP3 MSTORE DUP3 DUP6 KECCAK256 PUSH1 0x7 ADD SLOAD SWAP1 SWAP4 SWAP1 PUSH1 0xFF AND ISZERO PUSH2 0xE53 JUMPI CALLER DUP1 DUP7 MSTORE SWAP1 DUP3 MSTORE DUP3 DUP6 KECCAK256 DUP5 DUP7 MSTORE SWAP1 SWAP2 MSTORE SWAP1 DUP4 KECCAK256 PUSH1 0x7 ADD DUP1 SLOAD PUSH1 0xFF NOT AND SWAP1 SSTORE PUSH32 0xD11ACD754BB26B1C2C614F5D846FE7E88FE5218CF98A37555939F62CDA0A83F6 DUP4 DUP1 LOG3 DUP1 RETURN JUMPDEST SWAP2 MLOAD PUSH3 0x461BCD PUSH1 0xE5 SHL DUP2 MSTORE SWAP2 DUP3 ADD MSTORE PUSH1 0x1B PUSH1 0x24 DUP3 ADD MSTORE PUSH32 0x4772616E74206E6F7420666F756E64206F7220696E6163746976650000000000 PUSH1 0x44 DUP3 ADD MSTORE PUSH1 0x64 SWAP1 REVERT JUMPDEST DUP6 SWAP2 DUP5 DUP7 CALLVALUE PUSH2 0x10AD JUMPI PUSH1 0x80 CALLDATASIZE PUSH1 0x3 NOT ADD SLT PUSH2 0x10AD JUMPI PUSH2 0xEB1 PUSH2 0x10B1 JUMP JUMPDEST PUSH1 0x1 PUSH1 0x1 PUSH1 0xA0 SHL SUB SWAP1 DUP2 AND SWAP5 PUSH1 0x24 CALLDATALOAD SWAP5 PUSH1 0x44 CALLDATALOAD SWAP5 PUSH1 0x64 CALLDATALOAD SWAP4 SWAP3 SWAP1 SWAP2 SWAP1 DUP9 ISZERO PUSH2 0x1074 JUMPI POP DUP7 ISZERO ISZERO DUP1 PUSH2 0x106B JUMPI JUMPDEST ISZERO PUSH2 0x1037 JUMPI DUP6 DUP8 GT PUSH2 0xFF4 JUMPI SWAP2 PUSH1 0x7 DUP9 DUP11 DUP8 PUSH2 0xFB7 SWAP6 DUP9 SWAP8 DUP12 DUP14 PUSH2 0xF04 PUSH2 0xFBD SWAP13 TIMESTAMP PUSH2 0x113A JUMP JUMPDEST SWAP6 DUP10 DUP7 MLOAD SWAP11 DUP12 SWAP8 PUSH2 0xF14 DUP10 PUSH2 0x115D JUMP JUMPDEST CALLER DUP10 MSTORE PUSH1 0x20 DUP10 ADD SWAP4 DUP12 DUP6 MSTORE DUP2 DUP11 ADD SWAP6 DUP7 MSTORE PUSH1 0x60 DUP11 ADD SWAP7 DUP8 MSTORE PUSH1 0x80 DUP11 ADD SWAP8 DUP2 DUP10 MSTORE PUSH1 0xA0 DUP12 ADD SWAP11 PUSH3 0x15180 TIMESTAMP DIV DUP13 MSTORE PUSH1 0xC0 DUP2 ADD SWAP13 DUP14 MSTORE ADD SWAP12 PUSH1 0x1 DUP14 MSTORE CALLER DUP3 MSTORE DUP10 PUSH1 0x20 MSTORE DUP3 DUP3 KECCAK256 SWAP1 DUP3 MSTORE PUSH1 0x20 MSTORE KECCAK256 SWAP12 MLOAD AND SWAP1 PUSH1 0x1 PUSH1 0x1 PUSH1 0x60 SHL SUB PUSH1 0xA0 SHL SWAP2 DUP3 DUP14 SLOAD AND OR DUP13 SSTORE PUSH1 0x1 DUP13 ADD SWAP3 MLOAD AND SWAP1 DUP3 SLOAD AND OR SWAP1 SSTORE MLOAD PUSH1 0x2 DUP10 ADD SSTORE MLOAD PUSH1 0x3 DUP9 ADD SSTORE MLOAD SWAP1 DUP7 ADD SSTORE MLOAD PUSH1 0x5 DUP6 ADD SSTORE MLOAD PUSH1 0x6 DUP5 ADD SSTORE MLOAD ISZERO ISZERO SWAP2 ADD SWAP1 PUSH1 0xFF DUP1 NOT DUP4 SLOAD AND SWAP2 ISZERO ISZERO AND OR SWAP1 SSTORE JUMP JUMPDEST TIMESTAMP PUSH2 0x113A JUMP JUMPDEST SWAP2 DUP2 MLOAD SWAP4 DUP5 MSTORE PUSH1 0x20 DUP5 ADD MSTORE DUP3 ADD MSTORE PUSH32 0x457A71784C401C8B696ADD5F23143A8501FF8825C51BC8FA793A5F90496C962E PUSH1 0x60 CALLER SWAP3 LOG3 DUP1 RETURN JUMPDEST DUP5 MLOAD PUSH3 0x461BCD PUSH1 0xE5 SHL DUP2 MSTORE PUSH1 0x20 DUP2 DUP5 ADD DUP2 SWAP1 MSTORE PUSH1 0x24 DUP3 ADD MSTORE PUSH32 0x53696E676C65206C696D69742065786365656473206461696C79206C696D6974 PUSH1 0x44 DUP3 ADD MSTORE PUSH1 0x64 SWAP1 REVERT JUMPDEST DUP5 MLOAD PUSH3 0x461BCD PUSH1 0xE5 SHL DUP2 MSTORE PUSH1 0x20 DUP2 DUP5 ADD MSTORE PUSH1 0xE PUSH1 0x24 DUP3 ADD MSTORE PUSH14 0x496E76616C6964206C696D697473 PUSH1 0x90 SHL PUSH1 0x44 DUP3 ADD MSTORE PUSH1 0x64 SWAP1 REVERT JUMPDEST POP DUP6 ISZERO ISZERO PUSH2 0xEDD JUMP JUMPDEST PUSH3 0x461BCD PUSH1 0xE5 SHL DUP2 MSTORE PUSH1 0x20 DUP4 DUP3 ADD MSTORE PUSH1 0x15 PUSH1 0x24 DUP3 ADD MSTORE PUSH21 0x496E76616C6964206167656E742061646472657373 PUSH1 0x58 SHL PUSH1 0x44 DUP3 ADD MSTORE PUSH1 0x64 SWAP1 REVERT JUMPDEST DUP5 DUP1 REVERT JUMPDEST PUSH1 0x4 CALLDATALOAD SWAP1 PUSH1 0x1 PUSH1 0x1 PUSH1 0xA0 SHL SUB DUP3 AND DUP3 SUB PUSH2 0x10C7 JUMPI JUMP JUMPDEST PUSH1 0x0 DUP1 REVERT JUMPDEST PUSH1 0x24 CALLDATALOAD SWAP1 PUSH1 0x1 PUSH1 0x1 PUSH1 0xA0 SHL SUB DUP3 AND DUP3 SUB PUSH2 0x10C7 JUMPI JUMP JUMPDEST PUSH1 0x0 SLOAD PUSH1 0x1 PUSH1 0x1 PUSH1 0xA0 SHL SUB AND CALLER SUB PUSH2 0x10F6 JUMPI JUMP JUMPDEST PUSH1 0x64 PUSH1 0x40 MLOAD PUSH3 0x461BCD PUSH1 0xE5 SHL DUP2 MSTORE PUSH1 0x20 PUSH1 0x4 DUP3 ADD MSTORE PUSH1 0x20 PUSH1 0x24 DUP3 ADD MSTORE PUSH32 0x4F776E61626C653A2063616C6C6572206973206E6F7420746865206F776E6572 PUSH1 0x44 DUP3 ADD MSTORE REVERT JUMPDEST SWAP2 SWAP1 DUP3 ADD DUP1 SWAP3 GT PUSH2 0x1147 JUMPI JUMP JUMPDEST PUSH4 0x4E487B71 PUSH1 0xE0 SHL PUSH1 0x0 MSTORE PUSH1 0x11 PUSH1 0x4 MSTORE PUSH1 0x24 PUSH1 0x0 REVERT JUMPDEST PUSH2 0x100 DUP2 ADD SWAP1 DUP2 LT PUSH8 0xFFFFFFFFFFFFFFFF DUP3 GT OR PUSH2 0x117A JUMPI PUSH1 0x40 MSTORE JUMP JUMPDEST PUSH4 0x4E487B71 PUSH1 0xE0 SHL PUSH1 0x0 MSTORE PUSH1 0x41 PUSH1 0x4 MSTORE PUSH1 0x24 PUSH1 0x0 REVERT JUMPDEST PUSH1 0xE0 DUP2 ADD SWAP1 DUP2 LT PUSH8 0xFFFFFFFFFFFFFFFF DUP3 GT OR PUSH2 0x117A JUMPI PUSH1 0x40 MSTORE JUMP JUMPDEST SWAP1 PUSH1 0x1F DUP1 NOT SWAP2 ADD AND DUP2 ADD SWAP1 DUP2 LT PUSH8 0xFFFFFFFFFFFFFFFF DUP3 GT OR PUSH2 0x117A JUMPI PUSH1 0x40 MSTORE JUMP JUMPDEST PUSH1 0xFF PUSH1 0x2 SLOAD AND PUSH2 0x11DA JUMPI JUMP JUMPDEST PUSH1 0x40 MLOAD PUSH3 0x461BCD PUSH1 0xE5 SHL DUP2 MSTORE PUSH1 0x20 PUSH1 0x4 DUP3 ADD MSTORE PUSH1 0x10 PUSH1 0x24 DUP3 ADD MSTORE PUSH16 0x14185D5CD8589B194E881C185D5CD959 PUSH1 0x82 SHL PUSH1 0x44 DUP3 ADD MSTORE PUSH1 0x64 SWAP1 REVERT JUMPDEST PUSH1 0x1 DUP1 PUSH1 0xA0 SHL SUB AND SWAP1 PUSH1 0x40 MLOAD PUSH1 0x40 DUP2 ADD PUSH8 0xFFFFFFFFFFFFFFFF SWAP1 DUP3 DUP2 LT DUP3 DUP3 GT OR PUSH2 0x117A JUMPI PUSH1 0x40 MSTORE PUSH1 0x20 SWAP4 DUP5 DUP4 MSTORE PUSH32 0x5361666545524332303A206C6F772D6C6576656C2063616C6C206661696C6564 DUP6 DUP5 ADD MSTORE PUSH1 0x0 DUP1 DUP6 DUP8 DUP3 SWAP8 MLOAD SWAP2 ADD DUP3 DUP6 GAS CALL SWAP1 RETURNDATASIZE ISZERO PUSH2 0x1357 JUMPI RETURNDATASIZE SWAP3 DUP4 GT PUSH2 0x1343 JUMPI SWAP1 PUSH2 0x12AD SWAP4 SWAP3 SWAP2 PUSH1 0x40 MLOAD SWAP3 PUSH2 0x12A0 DUP9 PUSH1 0x1F NOT PUSH1 0x1F DUP5 ADD AND ADD DUP6 PUSH2 0x11AC JUMP JUMPDEST DUP4 MSTORE RETURNDATASIZE DUP7 DUP9 DUP6 ADD RETURNDATACOPY PUSH2 0x1362 JUMP JUMPDEST DUP1 MLOAD SWAP2 DUP3 ISZERO SWAP2 DUP5 DUP4 ISZERO PUSH2 0x131F JUMPI JUMPDEST POP POP POP SWAP1 POP ISZERO PUSH2 0x12C8 JUMPI POP JUMP JUMPDEST PUSH1 0x84 SWAP1 PUSH1 0x40 MLOAD SWAP1 PUSH3 0x461BCD PUSH1 0xE5 SHL DUP3 MSTORE PUSH1 0x4 DUP3 ADD MSTORE PUSH1 0x2A PUSH1 0x24 DUP3 ADD MSTORE PUSH32 0x5361666545524332303A204552433230206F7065726174696F6E20646964206E PUSH1 0x44 DUP3 ADD MSTORE PUSH10 0x1BDD081CDD58D8D95959 PUSH1 0xB2 SHL PUSH1 0x64 DUP3 ADD MSTORE REVERT JUMPDEST SWAP2 SWAP4 DUP2 DUP1 SWAP5 POP ADD SUB SLT PUSH2 0x70E JUMPI DUP3 ADD MLOAD SWAP1 DUP2 ISZERO ISZERO DUP3 SUB PUSH2 0x7B4 JUMPI POP DUP1 CODESIZE DUP1 DUP5 PUSH2 0x12BB JUMP JUMPDEST PUSH4 0x4E487B71 PUSH1 0xE0 SHL DUP6 MSTORE PUSH1 0x41 PUSH1 0x4 MSTORE PUSH1 0x24 DUP6 REVERT JUMPDEST SWAP1 PUSH2 0x12AD SWAP4 SWAP3 POP PUSH1 0x60 SWAP2 JUMPDEST SWAP2 SWAP3 SWAP1 ISZERO PUSH2 0x13C4 JUMPI POP DUP2 MLOAD ISZERO PUSH2 0x1376 JUMPI POP SWAP1 JUMP JUMPDEST EXTCODESIZE ISZERO PUSH2 0x137F JUMPI SWAP1 JUMP JUMPDEST PUSH1 0x40 MLOAD PUSH3 0x461BCD PUSH1 0xE5 SHL DUP2 MSTORE PUSH1 0x20 PUSH1 0x4 DUP3 ADD MSTORE PUSH1 0x1D PUSH1 0x24 DUP3 ADD MSTORE PUSH32 0x416464726573733A2063616C6C20746F206E6F6E2D636F6E7472616374000000 PUSH1 0x44 DUP3 ADD MSTORE PUSH1 0x64 SWAP1 REVERT JUMPDEST DUP3 MLOAD SWAP1 SWAP2 POP ISZERO PUSH2 0x13D7 JUMPI POP DUP1 MLOAD SWAP1 PUSH1 0x20 ADD REVERT JUMPDEST PUSH1 0x40 MLOAD SWAP1 PUSH3 0x461BCD PUSH1 0xE5 SHL DUP3 MSTORE DUP2 PUSH1 0x20 DUP1 PUSH1 0x4 DUP4 ADD MSTORE DUP3 MLOAD SWAP1 DUP2 PUSH1 0x24 DUP5 ADD MSTORE PUSH1 0x0 SWAP4 JUMPDEST DUP3 DUP6 LT PUSH2 0x141D JUMPI POP POP PUSH1 0x44 SWAP3 POP PUSH1 0x0 DUP4 DUP3 DUP5 ADD ADD MSTORE PUSH1 0x1F DUP1 NOT SWAP2 ADD AND DUP2 ADD SUB ADD SWAP1 REVERT JUMPDEST DUP5 DUP2 ADD DUP3 ADD MLOAD DUP7 DUP7 ADD PUSH1 0x44 ADD MSTORE SWAP4 DUP2 ADD SWAP4 DUP6 SWAP4 POP PUSH2 0x13FA JUMP INVALID LOG2 PUSH5 0x6970667358 0x22 SLT KECCAK256 SWAP6 MOD 0xD0 PUSH6 0xA1F8749F36BA SWAP8 0xEB SAR 0xEF 0xDA STATICCALL ADDRESS SWAP5 0xDF JUMPI PUSH5 0xB35B82BF9 CREATE2 0xB3 0xF9 PUSH9 0x3E3964736F6C634300 ADDMOD EQ STOP CALLER "},"methodIdentifiers":{"autoPayments(bytes32)":"c6ed3be1","commissionContract()":"da8909e5","createGrant(address,uint256,uint256,uint256)":"16140b7a","emergencyWithdraw(address,address,uint256)":"e63ea408","executeAutoPayment(bytes32,address,address,uint256)":"ebd99dc6","getAutoPayment(bytes32)":"77fc1906","getGrant(address,address)":"6d1319eb","grants(address,address)":"9c278efa","owner()":"8da5cb5b","pause()":"8456cb59","paused()":"5c975abb","paymentToken()":"3013ce29","renounceOwnership()":"715018a6","revokeGrant(address)":"1817c5a7","setCommissionContract(address)":"9e136ec1","setPaymentToken(address)":"6a326ab1","setSplitModeEnabled(bool)":"ba7af008","splitModeEnabled()":"5d48dbcf","transferOwnership(address)":"f2fde38b","unpause()":"3f4ba83a"}}}}}