{"contracts/AutoPay.sol":{"AutoPay":{"abi":[{"anonymous":false,"inputs":[{"indexed":true,"internalType":"bytes32","name":"paymentId","type":"bytes32"},{"indexed":true,"internalType":"address","name":"user","type":"address"},{"indexed":true,"internalType":"address","name":"agent","type":"address"},{"indexed":false,"internalType":"address","name":"recipient","type":"address"},{"indexed":false,"internalType":"uint256","name":"amount","type":"uint256"}],"name":"AutoPaymentExecuted","type":"event"},{"anonymous":false,"inputs":[{"indexed":true,"internalType":"address","name":"user","type":"address"},{"indexed":true,"internalType":"address","name":"agent","type":"address"},{"indexed":false,"internalType":"uint256","name":"singleLimit","type":"uint256"},{"indexed":false,"internalType":"uint256","name":"dailyLimit","type":"uint256"},{"indexed":false,"internalType":"uint256","name":"expiresAt","type":"uint256"}],"name":"GrantCreated","type":"event"},{"anonymous":false,"inputs":[{"indexed":true,"internalType":"address","name":"user","type":"address"},{"indexed":true,"internalType":"address","name":"agent","type":"address"}],"name":"GrantRevoked","type":"event"},{"anonymous":false,"inputs":[{"indexed":true,"internalType":"address","name":"previousOwner","type":"address"},{"indexed":true,"internalType":"address","name":"newOwner","type":"address"}],"name":"OwnershipTransferred","type":"event"},{"anonymous":false,"inputs":[{"indexed":false,"internalType":"address","name":"account","type":"address"}],"name":"Paused","type":"event"},{"anonymous":false,"inputs":[{"indexed":false,"internalType":"address","name":"account","type":"address"}],"name":"Unpaused","type":"event"},{"inputs":[{"internalType":"bytes32","name":"","type":"bytes32"}],"name":"autoPayments","outputs":[{"internalType":"bytes32","name":"paymentId","type":"bytes32"},{"internalType":"address","name":"user","type":"address"},{"internalType":"address","name":"agent","type":"address"},{"internalType":"address","name":"recipient","type":"address"},{"internalType":"uint256","name":"amount","type":"uint256"},{"internalType":"uint256","name":"timestamp","type":"uint256"},{"internalType":"bool","name":"executed","type":"bool"}],"stateMutability":"view","type":"function"},{"inputs":[{"internalType":"address","name":"agent","type":"address"},{"internalType":"uint256","name":"singleLimit","type":"uint256"},{"internalType":"uint256","name":"dailyLimit","type":"uint256"},{"internalType":"uint256","name":"duration","type":"uint256"}],"name":"createGrant","outputs":[],"stateMutability":"nonpayable","type":"function"},{"inputs":[{"internalType":"address","name":"token","type":"address"},{"internalType":"address","name":"to","type":"address"},{"internalType":"uint256","name":"amount","type":"uint256"}],"name":"emergencyWithdraw","outputs":[],"stateMutability":"nonpayable","type":"function"},{"inputs":[{"internalType":"bytes32","name":"paymentId","type":"bytes32"},{"internalType":"address","name":"user","type":"address"},{"internalType":"address","name":"recipient","type":"address"},{"internalType":"uint256","name":"amount","type":"uint256"}],"name":"executeAutoPayment","outputs":[],"stateMutability":"nonpayable","type":"function"},{"inputs":[{"internalType":"bytes32","name":"paymentId","type":"bytes32"}],"name":"getAutoPayment","outputs":[{"components":[{"internalType":"bytes32","name":"paymentId","type":"bytes32"},{"internalType":"address","name":"user","type":"address"},{"internalType":"address","name":"agent","type":"address"},{"internalType":"address","name":"recipient","type":"address"},{"internalType":"uint256","name":"amount","type":"uint256"},{"internalType":"uint256","name":"timestamp","type":"uint256"},{"internalType":"bool","name":"executed","type":"bool"}],"internalType":"struct AutoPay.AutoPayment","name":"","type":"tuple"}],"stateMutability":"view","type":"function"},{"inputs":[{"internalType":"address","name":"user","type":"address"},{"internalType":"address","name":"agent","type":"address"}],"name":"getGrant","outputs":[{"components":[{"internalType":"address","name":"user","type":"address"},{"internalType":"address","name":"agent","type":"address"},{"internalType":"uint256","name":"singleLimit","type":"uint256"},{"internalType":"uint256","name":"dailyLimit","type":"uint256"},{"internalType":"uint256","name":"usedToday","type":"uint256"},{"internalType":"uint256","name":"lastResetDate","type":"uint256"},{"internalType":"uint256","name":"expiresAt","type":"uint256"},{"internalType":"bool","name":"isActive","type":"bool"}],"internalType":"struct AutoPay.Grant","name":"","type":"tuple"}],"stateMutability":"view","type":"function"},{"inputs":[{"internalType":"address","name":"","type":"address"},{"internalType":"address","name":"","type":"address"}],"name":"grants","outputs":[{"internalType":"address","name":"user","type":"address"},{"internalType":"address","name":"agent","type":"address"},{"internalType":"uint256","name":"singleLimit","type":"uint256"},{"internalType":"uint256","name":"dailyLimit","type":"uint256"},{"internalType":"uint256","name":"usedToday","type":"uint256"},{"internalType":"uint256","name":"lastResetDate","type":"uint256"},{"internalType":"uint256","name":"expiresAt","type":"uint256"},{"internalType":"bool","name":"isActive","type":"bool"}],"stateMutability":"view","type":"function"},{"inputs":[],"name":"owner","outputs":[{"internalType":"address","name":"","type":"address"}],"stateMutability":"view","type":"function"},{"inputs":[],"name":"pause","outputs":[],"stateMutability":"nonpayable","type":"function"},{"inputs":[],"name":"paused","outputs":[{"internalType":"bool","name":"","type":"bool"}],"stateMutability":"view","type":"function"},{"inputs":[],"name":"paymentToken","outputs":[{"internalType":"contract IERC20","name":"","type":"address"}],"stateMutability":"view","type":"function"},{"inputs":[],"name":"renounceOwnership","outputs":[],"stateMutability":"nonpayable","type":"function"},{"inputs":[{"internalType":"address","name":"agent","type":"address"}],"name":"revokeGrant","outputs":[],"stateMutability":"nonpayable","type":"function"},{"inputs":[{"internalType":"address","name":"_token","type":"address"}],"name":"setPaymentToken","outputs":[],"stateMutability":"nonpayable","type":"function"},{"inputs":[{"internalType":"address","name":"newOwner","type":"address"}],"name":"transferOwnership","outputs":[],"stateMutability":"nonpayable","type":"function"},{"inputs":[],"name":"unpause","outputs":[],"stateMutability":"nonpayable","type":"function"}],"evm":{"bytecode":{"linkReferences":{},"object":"608080604052346100695760008054336001600160a01b0319821681178355916001600160a01b03909116907f8be0079c531659141344cd1fd0a4f28419497f9722a3daafe3b4186f6b6457e09080a36001805560ff196002541660025561124a908161006f8239f35b600080fdfe6080604081815260048036101561001557600080fd5b60009260e08435811c91826316140b7a14610c6c575081631817c5a714610b9a5781633013ce2914610b6c5781633f4ba83a14610ad65781635c975abb14610ab15781636a326ab114610a195781636d1319eb146108f6578163715018a61461089c57816377fc1906146107ad5781638456cb59146107515781638da5cb5b146107285781639c278efa14610687578163c6ed3be11461060c57508063e63ea4081461054f578063ebd99dc61461019a5763f2fde38b146100d557600080fd5b34610196576020366003190112610196576100ee610e8f565b906100f7610ec0565b6001600160a01b0391821692831561014457505082546001600160a01b0319811683178455167f8be0079c531659141344cd1fd0a4f28419497f9722a3daafe3b4186f6b6457e08380a380f35b906020608492519162461bcd60e51b8352820152602660248201527f4f776e61626c653a206e6577206f776e657220697320746865207a65726f206160448201526564647265737360d01b6064820152fd5b8280fd5b509034610196576080366003190112610196578135916101b8610eaa565b9260448035936001600160a01b0393848616929083870361054b57606480359460029760019a898c541461050a57898c556101f1610fac565b818a5460081c16156104d15790808d969594939216998a8752876020976003895281812033825289522060ff6007820154161561049d576006810154421161046c57818101548a1161042b578e6201518042049060058301908154831161041e575b5050508581019081549060036102698d84610f18565b910154106103dd578f908f888f8f928f918f8f908c938c916103329b6102918860069c610f18565b905580519a8b986102a18a610f6e565b8a8a52858a01968752828a019533875260608b0198895260808b01998a5260c060a08c019b428d52019b858d528352522099518a558901925116916bffffffffffffffffffffffff60a01b92838254161790558a8a890191511682825416179055896003880192511690825416179055518a85015551600584015551151591019060ff801983541691151516179055565b5460081c16938651956323b872dd60e01b908701528960248701528501528581850152835260a083019083821067ffffffffffffffff8311176103ca57507fe653f9a47a7f3faeee2a31c16138aa1e9428d9938f2f2f4696d9f64dbe5b6ee9949284926103a3926103c29652610ff0565b516001600160a01b039096168652602086015233949081906040820190565b0390a4805580f35b634e487b7160e01b8b526041905260248afd5b895162461bcd60e51b81528088018a9052601a60248201527f416d6f756e742065786365656473206461696c79206c696d6974000000000000818a01528690fd5b8884015555388f80610253565b885162461bcd60e51b8152808701899052601b60248201527f416d6f756e7420657863656564732073696e676c65206c696d69740000000000818901528590fd5b885162461bcd60e51b8152808701899052600d60248201526c11dc985b9d08195e1c1a5c9959609a1b818901528590fd5b885162461bcd60e51b8152808701899052601060248201526f4772616e74206e6f742061637469766560801b818901528590fd5b865162461bcd60e51b8152602081870152601560248201527414185e5b595b9d081d1bdad95b881b9bdd081cd95d605a1b818801528490fd5b865162461bcd60e51b8152602081870152601f60248201527f5265656e7472616e637947756172643a207265656e7472616e742063616c6c00818801528490fd5b8880fd5b508290346106085760603660031901126106085761056b610e8f565b610573610eaa565b61057b610ec0565b6001600160a01b0392818416156105d15750845163a9059cbb60e01b60208201526001600160a01b03919091166024820152604480358183015281526105ce9290916105c8606484610f8a565b16610ff0565b80f35b606490602087519162461bcd60e51b83528201526011602482015270125b9d985b1a59081c9958da5c1a595b9d607a1b6044820152fd5b5080fd5b9390503461068457602036600319011261068457829082358152826020522080549260018060a01b039283600184015416938060028501541690600385015416918401549260ff600660058701549601541695815197885260208801528601526060850152608084015260a0830152151560c0820152f35b80fd5b905083913461019657836003193601126101965783610100946106a8610e8f565b946106b1610eaa565b60018060a01b0380971682526003602052868383209116825260205220908482541694600183015416926002830154906003840154908401549160058501549360ff6007600688015497015416968151998a5260208a01528801526060870152608086015260a085015260c0840152151590820152f35b50505034610608578160031936011261060857905490516001600160a01b039091168152602090f35b5050503461060857816003193601126106085760207f62e78cea01bee320cd4e420270b5ea74000d11b0c9f74754ebdbfc544b05a25891610790610ec0565b610798610fac565b600160ff19600254161760025551338152a180f35b828486346106845760203660031901126106845780829160c083516107d181610f6e565b82815282602082015282858201528260608201528260808201528260a0820152015283358152836020522090805191829161080b83610f6e565b81549485845260018060a01b039182806001860154166020870190815281806002880154169184890192835260c060ff60068460038c0154169860608d01998a528b01549a60808d019b8c5260a060058201549d019c8d520154169a019915158a5284519a8b52511660208a0152511690870152511660608501525160808401525160a083015251151560c0820152f35b84346106845780600319360112610684576108b5610ec0565b80546001600160a01b03198116825581906001600160a01b03167f8be0079c531659141344cd1fd0a4f28419497f9722a3daafe3b4186f6b6457e08280a380f35b9192905034610a155780600319360112610a1557928361010094610918610e8f565b92610921610eaa565b8186845161092e81610f3b565b82815282602082015282868201528260608201528260808201528260a08201528260c0820152015260018060a01b03809516825260036020528483832091168252602052209080519261098084610f3b565b8083541695868552816001850154169260208601938452600285015481870190815260038601549260608801938452860154936080880194855260058701549560a089019687528960ff600760068b01549a60c08d019b8c520154169901981515895283519a8b52511660208a015251908801525160608701525160808601525160a08501525160c084015251151590820152f35b8380fd5b50503461019657602036600319011261019657610a34610e8f565b91610a3d610ec0565b6001600160a01b03831615610a7657505060028054610100600160a81b03191660089290921b610100600160a81b031691909117905580f35b906020606492519162461bcd60e51b83528201526015602482015274496e76616c696420746f6b656e206164647265737360581b6044820152fd5b5050503461060857816003193601126106085760209060ff6002541690519015158152f35b505034610196578260031936011261019657610af0610ec0565b6002549060ff821615610b32575060ff1916600255513381527f5db9ee0a495bf2e6ff9c91a7834c1ba4fdd244a5e8aa4e537bd38aeae4b073aa90602090a180f35b606490602084519162461bcd60e51b8352820152601460248201527314185d5cd8589b194e881b9bdd081c185d5cd95960621b6044820152fd5b50505034610608578160031936011261060857600254905160089190911c6001600160a01b03168152602090f35b5050903461019657602080600319360112610a1557610bb7610e8f565b338552600382528285206001600160a01b039091168086529082528285206007015490939060ff1615610c2b57503380855260038252828520848652909152908320600701805460ff191690557fd11acd754bb26b1c2c614f5d846fe7e88fe5218cf98a37555939f62cda0a83f68380a380f35b915162461bcd60e51b815291820152601b60248201527f4772616e74206e6f7420666f756e64206f7220696e61637469766500000000006044820152606490fd5b8591848634610e8b576080366003190112610e8b57610c89610e8f565b6001600160a01b0390811694602435946044359460643593929091908815610e52575086151580610e49575b15610e1557858711610dd257916007888a87610d959588978b8d610cdc610d9b9c42610f18565b958986519a8b97610cec89610f3b565b33895260208901938b8552818a0195865260608a0196875260808a019781895260a08b019a6201518042048c5260c081019c8d52019b60018d523382526003602052828220908252602052209b5116906bffffffffffffffffffffffff60a01b91828d5416178c5560018c0192511690825416179055516002890155516003880155519086015551600585015551600684015551151591019060ff801983541691151516179055565b42610f18565b91815193845260208401528201527f457a71784c401c8b696add5f23143a8501ff8825c51bc8fa793a5f90496c962e60603392a380f35b845162461bcd60e51b8152602081840181905260248201527f53696e676c65206c696d69742065786365656473206461696c79206c696d69746044820152606490fd5b845162461bcd60e51b8152602081840152600e60248201526d496e76616c6964206c696d69747360901b6044820152606490fd5b50851515610cb5565b62461bcd60e51b81526020838201526015602482015274496e76616c6964206167656e74206164647265737360581b6044820152606490fd5b8480fd5b600435906001600160a01b0382168203610ea557565b600080fd5b602435906001600160a01b0382168203610ea557565b6000546001600160a01b03163303610ed457565b606460405162461bcd60e51b815260206004820152602060248201527f4f776e61626c653a2063616c6c6572206973206e6f7420746865206f776e65726044820152fd5b91908201809211610f2557565b634e487b7160e01b600052601160045260246000fd5b610100810190811067ffffffffffffffff821117610f5857604052565b634e487b7160e01b600052604160045260246000fd5b60e0810190811067ffffffffffffffff821117610f5857604052565b90601f8019910116810190811067ffffffffffffffff821117610f5857604052565b60ff60025416610fb857565b60405162461bcd60e51b815260206004820152601060248201526f14185d5cd8589b194e881c185d5cd95960821b6044820152606490fd5b60018060a01b0316906040516040810167ffffffffffffffff9082811082821117610f58576040526020938483527f5361666545524332303a206c6f772d6c6576656c2063616c6c206661696c6564858401526000808587829751910182855af1903d15611135573d928311611121579061108b9392916040519261107e88601f19601f8401160185610f8a565b83523d868885013e611140565b8051918215918483156110fd575b5050509050156110a65750565b6084906040519062461bcd60e51b82526004820152602a60248201527f5361666545524332303a204552433230206f7065726174696f6e20646964206e6044820152691bdd081cdd58d8d9595960b21b6064820152fd5b91938180945001031261060857820151908115158203610684575080388084611099565b634e487b7160e01b85526041600452602485fd5b9061108b9392506060915b919290156111a25750815115611154575090565b3b1561115d5790565b60405162461bcd60e51b815260206004820152601d60248201527f416464726573733a2063616c6c20746f206e6f6e2d636f6e74726163740000006044820152606490fd5b8251909150156111b55750805190602001fd5b6040519062461bcd60e51b82528160208060048301528251908160248401526000935b8285106111fb575050604492506000838284010152601f80199101168101030190fd5b84810182015186860160440152938101938593506111d856fea2646970667358221220201b8116680c8af4a265775df455281a401113ce83f14200d7d6b4d7e98a033b64736f6c63430008140033","opcodes":"PUSH1 0x80 DUP1 PUSH1 0x40 MSTORE CALLVALUE PUSH2 0x69 JUMPI PUSH1 0x0 DUP1 SLOAD CALLER PUSH1 0x1 PUSH1 0x1 PUSH1 0xA0 SHL SUB NOT DUP3 AND DUP2 OR DUP4 SSTORE SWAP2 PUSH1 0x1 PUSH1 0x1 PUSH1 0xA0 SHL SUB SWAP1 SWAP2 AND SWAP1 PUSH32 0x8BE0079C531659141344CD1FD0A4F28419497F9722A3DAAFE3B4186F6B6457E0 SWAP1 DUP1 LOG3 PUSH1 0x1 DUP1 SSTORE PUSH1 0xFF NOT PUSH1 0x2 SLOAD AND PUSH1 0x2 SSTORE PUSH2 0x124A SWAP1 DUP2 PUSH2 0x6F DUP3 CODECOPY RETURN JUMPDEST PUSH1 0x0 DUP1 REVERT INVALID PUSH1 0x80 PUSH1 0x40 DUP2 DUP2 MSTORE PUSH1 0x4 DUP1 CALLDATASIZE LT ISZERO PUSH2 0x15 JUMPI PUSH1 0x0 DUP1 REVERT JUMPDEST PUSH1 0x0 SWAP3 PUSH1 0xE0 DUP5 CALLDATALOAD DUP2 SHR SWAP2 DUP3 PUSH4 0x16140B7A EQ PUSH2 0xC6C JUMPI POP DUP2 PUSH4 0x1817C5A7 EQ PUSH2 0xB9A JUMPI DUP2 PUSH4 0x3013CE29 EQ PUSH2 0xB6C JUMPI DUP2 PUSH4 0x3F4BA83A EQ PUSH2 0xAD6 JUMPI DUP2 PUSH4 0x5C975ABB EQ PUSH2 0xAB1 JUMPI DUP2 PUSH4 0x6A326AB1 EQ PUSH2 0xA19 JUMPI DUP2 PUSH4 0x6D1319EB EQ PUSH2 0x8F6 JUMPI DUP2 PUSH4 0x715018A6 EQ PUSH2 0x89C JUMPI DUP2 PUSH4 0x77FC1906 EQ PUSH2 0x7AD JUMPI DUP2 PUSH4 0x8456CB59 EQ PUSH2 0x751 JUMPI DUP2 PUSH4 0x8DA5CB5B EQ PUSH2 0x728 JUMPI DUP2 PUSH4 0x9C278EFA EQ PUSH2 0x687 JUMPI DUP2 PUSH4 0xC6ED3BE1 EQ PUSH2 0x60C JUMPI POP DUP1 PUSH4 0xE63EA408 EQ PUSH2 0x54F JUMPI DUP1 PUSH4 0xEBD99DC6 EQ PUSH2 0x19A JUMPI PUSH4 0xF2FDE38B EQ PUSH2 0xD5 JUMPI PUSH1 0x0 DUP1 REVERT JUMPDEST CALLVALUE PUSH2 0x196 JUMPI PUSH1 0x20 CALLDATASIZE PUSH1 0x3 NOT ADD SLT PUSH2 0x196 JUMPI PUSH2 0xEE PUSH2 0xE8F JUMP JUMPDEST SWAP1 PUSH2 0xF7 PUSH2 0xEC0 JUMP JUMPDEST PUSH1 0x1 PUSH1 0x1 PUSH1 0xA0 SHL SUB SWAP2 DUP3 AND SWAP3 DUP4 ISZERO PUSH2 0x144 JUMPI POP POP DUP3 SLOAD PUSH1 0x1 PUSH1 0x1 PUSH1 0xA0 SHL SUB NOT DUP2 AND DUP4 OR DUP5 SSTORE AND PUSH32 0x8BE0079C531659141344CD1FD0A4F28419497F9722A3DAAFE3B4186F6B6457E0 DUP4 DUP1 LOG3 DUP1 RETURN JUMPDEST SWAP1 PUSH1 0x20 PUSH1 0x84 SWAP3 MLOAD SWAP2 PUSH3 0x461BCD PUSH1 0xE5 SHL DUP4 MSTORE DUP3 ADD MSTORE PUSH1 0x26 PUSH1 0x24 DUP3 ADD MSTORE PUSH32 0x4F776E61626C653A206E6577206F776E657220697320746865207A65726F2061 PUSH1 0x44 DUP3 ADD MSTORE PUSH6 0x646472657373 PUSH1 0xD0 SHL PUSH1 0x64 DUP3 ADD MSTORE REVERT JUMPDEST DUP3 DUP1 REVERT JUMPDEST POP SWAP1 CALLVALUE PUSH2 0x196 JUMPI PUSH1 0x80 CALLDATASIZE PUSH1 0x3 NOT ADD SLT PUSH2 0x196 JUMPI DUP2 CALLDATALOAD SWAP2 PUSH2 0x1B8 PUSH2 0xEAA JUMP JUMPDEST SWAP3 PUSH1 0x44 DUP1 CALLDATALOAD SWAP4 PUSH1 0x1 PUSH1 0x1 PUSH1 0xA0 SHL SUB SWAP4 DUP5 DUP7 AND SWAP3 SWAP1 DUP4 DUP8 SUB PUSH2 0x54B JUMPI PUSH1 0x64 DUP1 CALLDATALOAD SWAP5 PUSH1 0x2 SWAP8 PUSH1 0x1 SWAP11 DUP10 DUP13 SLOAD EQ PUSH2 0x50A JUMPI DUP10 DUP13 SSTORE PUSH2 0x1F1 PUSH2 0xFAC JUMP JUMPDEST DUP2 DUP11 SLOAD PUSH1 0x8 SHR AND ISZERO PUSH2 0x4D1 JUMPI SWAP1 DUP1 DUP14 SWAP7 SWAP6 SWAP5 SWAP4 SWAP3 AND SWAP10 DUP11 DUP8 MSTORE DUP8 PUSH1 0x20 SWAP8 PUSH1 0x3 DUP10 MSTORE DUP2 DUP2 KECCAK256 CALLER DUP3 MSTORE DUP10 MSTORE KECCAK256 PUSH1 0xFF PUSH1 0x7 DUP3 ADD SLOAD AND ISZERO PUSH2 0x49D JUMPI PUSH1 0x6 DUP2 ADD SLOAD TIMESTAMP GT PUSH2 0x46C JUMPI DUP2 DUP2 ADD SLOAD DUP11 GT PUSH2 0x42B JUMPI DUP15 PUSH3 0x15180 TIMESTAMP DIV SWAP1 PUSH1 0x5 DUP4 ADD SWAP1 DUP2 SLOAD DUP4 GT PUSH2 0x41E JUMPI JUMPDEST POP POP POP DUP6 DUP2 ADD SWAP1 DUP2 SLOAD SWAP1 PUSH1 0x3 PUSH2 0x269 DUP14 DUP5 PUSH2 0xF18 JUMP JUMPDEST SWAP2 ADD SLOAD LT PUSH2 0x3DD JUMPI DUP16 SWAP1 DUP16 DUP9 DUP16 DUP16 SWAP3 DUP16 SWAP2 DUP16 DUP16 SWAP1 DUP13 SWAP4 DUP13 SWAP2 PUSH2 0x332 SWAP12 PUSH2 0x291 DUP9 PUSH1 0x6 SWAP13 PUSH2 0xF18 JUMP JUMPDEST SWAP1 SSTORE DUP1 MLOAD SWAP11 DUP12 SWAP9 PUSH2 0x2A1 DUP11 PUSH2 0xF6E JUMP JUMPDEST DUP11 DUP11 MSTORE DUP6 DUP11 ADD SWAP7 DUP8 MSTORE DUP3 DUP11 ADD SWAP6 CALLER DUP8 MSTORE PUSH1 0x60 DUP12 ADD SWAP9 DUP10 MSTORE PUSH1 0x80 DUP12 ADD SWAP10 DUP11 MSTORE PUSH1 0xC0 PUSH1 0xA0 DUP13 ADD SWAP12 TIMESTAMP DUP14 MSTORE ADD SWAP12 DUP6 DUP14 MSTORE DUP4 MSTORE MSTORE KECCAK256 SWAP10 MLOAD DUP11 SSTORE DUP10 ADD SWAP3 MLOAD AND SWAP2 PUSH12 0xFFFFFFFFFFFFFFFFFFFFFFFF PUSH1 0xA0 SHL SWAP3 DUP4 DUP3 SLOAD AND OR SWAP1 SSTORE DUP11 DUP11 DUP10 ADD SWAP2 MLOAD AND DUP3 DUP3 SLOAD AND OR SWAP1 SSTORE DUP10 PUSH1 0x3 DUP9 ADD SWAP3 MLOAD AND SWAP1 DUP3 SLOAD AND OR SWAP1 SSTORE MLOAD DUP11 DUP6 ADD SSTORE MLOAD PUSH1 0x5 DUP5 ADD SSTORE MLOAD ISZERO ISZERO SWAP2 ADD SWAP1 PUSH1 0xFF DUP1 NOT DUP4 SLOAD AND SWAP2 ISZERO ISZERO AND OR SWAP1 SSTORE JUMP JUMPDEST SLOAD PUSH1 0x8 SHR AND SWAP4 DUP7 MLOAD SWAP6 PUSH4 0x23B872DD PUSH1 0xE0 SHL SWAP1 DUP8 ADD MSTORE DUP10 PUSH1 0x24 DUP8 ADD MSTORE DUP6 ADD MSTORE DUP6 DUP2 DUP6 ADD MSTORE DUP4 MSTORE PUSH1 0xA0 DUP4 ADD SWAP1 DUP4 DUP3 LT PUSH8 0xFFFFFFFFFFFFFFFF DUP4 GT OR PUSH2 0x3CA JUMPI POP PUSH32 0xE653F9A47A7F3FAEEE2A31C16138AA1E9428D9938F2F2F4696D9F64DBE5B6EE9 SWAP5 SWAP3 DUP5 SWAP3 PUSH2 0x3A3 SWAP3 PUSH2 0x3C2 SWAP7 MSTORE PUSH2 0xFF0 JUMP JUMPDEST MLOAD PUSH1 0x1 PUSH1 0x1 PUSH1 0xA0 SHL SUB SWAP1 SWAP7 AND DUP7 MSTORE PUSH1 0x20 DUP7 ADD MSTORE CALLER SWAP5 SWAP1 DUP2 SWAP1 PUSH1 0x40 DUP3 ADD SWAP1 JUMP JUMPDEST SUB SWAP1 LOG4 DUP1 SSTORE DUP1 RETURN JUMPDEST PUSH4 0x4E487B71 PUSH1 0xE0 SHL DUP12 MSTORE PUSH1 0x41 SWAP1 MSTORE PUSH1 0x24 DUP11 REVERT JUMPDEST DUP10 MLOAD PUSH3 0x461BCD PUSH1 0xE5 SHL DUP2 MSTORE DUP1 DUP9 ADD DUP11 SWAP1 MSTORE PUSH1 0x1A PUSH1 0x24 DUP3 ADD MSTORE PUSH32 0x416D6F756E742065786365656473206461696C79206C696D6974000000000000 DUP2 DUP11 ADD MSTORE DUP7 SWAP1 REVERT JUMPDEST DUP9 DUP5 ADD SSTORE SSTORE CODESIZE DUP16 DUP1 PUSH2 0x253 JUMP JUMPDEST DUP9 MLOAD PUSH3 0x461BCD PUSH1 0xE5 SHL DUP2 MSTORE DUP1 DUP8 ADD DUP10 SWAP1 MSTORE PUSH1 0x1B PUSH1 0x24 DUP3 ADD MSTORE PUSH32 0x416D6F756E7420657863656564732073696E676C65206C696D69740000000000 DUP2 DUP10 ADD MSTORE DUP6 SWAP1 REVERT JUMPDEST DUP9 MLOAD PUSH3 0x461BCD PUSH1 0xE5 SHL DUP2 MSTORE DUP1 DUP8 ADD DUP10 SWAP1 MSTORE PUSH1 0xD PUSH1 0x24 DUP3 ADD MSTORE PUSH13 0x11DC985B9D08195E1C1A5C9959 PUSH1 0x9A SHL DUP2 DUP10 ADD MSTORE DUP6 SWAP1 REVERT JUMPDEST DUP9 MLOAD PUSH3 0x461BCD PUSH1 0xE5 SHL DUP2 MSTORE DUP1 DUP8 ADD DUP10 SWAP1 MSTORE PUSH1 0x10 PUSH1 0x24 DUP3 ADD MSTORE PUSH16 0x4772616E74206E6F7420616374697665 PUSH1 0x80 SHL DUP2 DUP10 ADD MSTORE DUP6 SWAP1 REVERT JUMPDEST DUP7 MLOAD PUSH3 0x461BCD PUSH1 0xE5 SHL DUP2 MSTORE PUSH1 0x20 DUP2 DUP8 ADD MSTORE PUSH1 0x15 PUSH1 0x24 DUP3 ADD MSTORE PUSH21 0x14185E5B595B9D081D1BDAD95B881B9BDD081CD95D PUSH1 0x5A SHL DUP2 DUP9 ADD MSTORE DUP5 SWAP1 REVERT JUMPDEST DUP7 MLOAD PUSH3 0x461BCD PUSH1 0xE5 SHL DUP2 MSTORE PUSH1 0x20 DUP2 DUP8 ADD MSTORE PUSH1 0x1F PUSH1 0x24 DUP3 ADD MSTORE PUSH32 0x5265656E7472616E637947756172643A207265656E7472616E742063616C6C00 DUP2 DUP9 ADD MSTORE DUP5 SWAP1 REVERT JUMPDEST DUP9 DUP1 REVERT JUMPDEST POP DUP3 SWAP1 CALLVALUE PUSH2 0x608 JUMPI PUSH1 0x60 CALLDATASIZE PUSH1 0x3 NOT ADD SLT PUSH2 0x608 JUMPI PUSH2 0x56B PUSH2 0xE8F JUMP JUMPDEST PUSH2 0x573 PUSH2 0xEAA JUMP JUMPDEST PUSH2 0x57B PUSH2 0xEC0 JUMP JUMPDEST PUSH1 0x1 PUSH1 0x1 PUSH1 0xA0 SHL SUB SWAP3 DUP2 DUP5 AND ISZERO PUSH2 0x5D1 JUMPI POP DUP5 MLOAD PUSH4 0xA9059CBB PUSH1 0xE0 SHL PUSH1 0x20 DUP3 ADD MSTORE PUSH1 0x1 PUSH1 0x1 PUSH1 0xA0 SHL SUB SWAP2 SWAP1 SWAP2 AND PUSH1 0x24 DUP3 ADD MSTORE PUSH1 0x44 DUP1 CALLDATALOAD DUP2 DUP4 ADD MSTORE DUP2 MSTORE PUSH2 0x5CE SWAP3 SWAP1 SWAP2 PUSH2 0x5C8 PUSH1 0x64 DUP5 PUSH2 0xF8A JUMP JUMPDEST AND PUSH2 0xFF0 JUMP JUMPDEST DUP1 RETURN JUMPDEST PUSH1 0x64 SWAP1 PUSH1 0x20 DUP8 MLOAD SWAP2 PUSH3 0x461BCD PUSH1 0xE5 SHL DUP4 MSTORE DUP3 ADD MSTORE PUSH1 0x11 PUSH1 0x24 DUP3 ADD MSTORE PUSH17 0x125B9D985B1A59081C9958DA5C1A595B9D PUSH1 0x7A SHL PUSH1 0x44 DUP3 ADD MSTORE REVERT JUMPDEST POP DUP1 REVERT JUMPDEST SWAP4 SWAP1 POP CALLVALUE PUSH2 0x684 JUMPI PUSH1 0x20 CALLDATASIZE PUSH1 0x3 NOT ADD SLT PUSH2 0x684 JUMPI DUP3 SWAP1 DUP3 CALLDATALOAD DUP2 MSTORE DUP3 PUSH1 0x20 MSTORE KECCAK256 DUP1 SLOAD SWAP3 PUSH1 0x1 DUP1 PUSH1 0xA0 SHL SUB SWAP3 DUP4 PUSH1 0x1 DUP5 ADD SLOAD AND SWAP4 DUP1 PUSH1 0x2 DUP6 ADD SLOAD AND SWAP1 PUSH1 0x3 DUP6 ADD SLOAD AND SWAP2 DUP5 ADD SLOAD SWAP3 PUSH1 0xFF PUSH1 0x6 PUSH1 0x5 DUP8 ADD SLOAD SWAP7 ADD SLOAD AND SWAP6 DUP2 MLOAD SWAP8 DUP9 MSTORE PUSH1 0x20 DUP9 ADD MSTORE DUP7 ADD MSTORE PUSH1 0x60 DUP6 ADD MSTORE PUSH1 0x80 DUP5 ADD MSTORE PUSH1 0xA0 DUP4 ADD MSTORE ISZERO ISZERO PUSH1 0xC0 DUP3 ADD MSTORE RETURN JUMPDEST DUP1 REVERT JUMPDEST SWAP1 POP DUP4 SWAP2 CALLVALUE PUSH2 0x196 JUMPI DUP4 PUSH1 0x3 NOT CALLDATASIZE ADD SLT PUSH2 0x196 JUMPI DUP4 PUSH2 0x100 SWAP5 PUSH2 0x6A8 PUSH2 0xE8F JUMP JUMPDEST SWAP5 PUSH2 0x6B1 PUSH2 0xEAA JUMP JUMPDEST PUSH1 0x1 DUP1 PUSH1 0xA0 SHL SUB DUP1 SWAP8 AND DUP3 MSTORE PUSH1 0x3 PUSH1 0x20 MSTORE DUP7 DUP4 DUP4 KECCAK256 SWAP2 AND DUP3 MSTORE PUSH1 0x20 MSTORE KECCAK256 SWAP1 DUP5 DUP3 SLOAD AND SWAP5 PUSH1 0x1 DUP4 ADD SLOAD AND SWAP3 PUSH1 0x2 DUP4 ADD SLOAD SWAP1 PUSH1 0x3 DUP5 ADD SLOAD SWAP1 DUP5 ADD SLOAD SWAP2 PUSH1 0x5 DUP6 ADD SLOAD SWAP4 PUSH1 0xFF PUSH1 0x7 PUSH1 0x6 DUP9 ADD SLOAD SWAP8 ADD SLOAD AND SWAP7 DUP2 MLOAD SWAP10 DUP11 MSTORE PUSH1 0x20 DUP11 ADD MSTORE DUP9 ADD MSTORE PUSH1 0x60 DUP8 ADD MSTORE PUSH1 0x80 DUP7 ADD MSTORE PUSH1 0xA0 DUP6 ADD MSTORE PUSH1 0xC0 DUP5 ADD MSTORE ISZERO ISZERO SWAP1 DUP3 ADD MSTORE RETURN JUMPDEST POP POP POP CALLVALUE PUSH2 0x608 JUMPI DUP2 PUSH1 0x3 NOT CALLDATASIZE ADD SLT PUSH2 0x608 JUMPI SWAP1 SLOAD SWAP1 MLOAD PUSH1 0x1 PUSH1 0x1 PUSH1 0xA0 SHL SUB SWAP1 SWAP2 AND DUP2 MSTORE PUSH1 0x20 SWAP1 RETURN JUMPDEST POP POP POP CALLVALUE PUSH2 0x608 JUMPI DUP2 PUSH1 0x3 NOT CALLDATASIZE ADD SLT PUSH2 0x608 JUMPI PUSH1 0x20 PUSH32 0x62E78CEA01BEE320CD4E420270B5EA74000D11B0C9F74754EBDBFC544B05A258 SWAP2 PUSH2 0x790 PUSH2 0xEC0 JUMP JUMPDEST PUSH2 0x798 PUSH2 0xFAC JUMP JUMPDEST PUSH1 0x1 PUSH1 0xFF NOT PUSH1 0x2 SLOAD AND OR PUSH1 0x2 SSTORE MLOAD CALLER DUP2 MSTORE LOG1 DUP1 RETURN JUMPDEST DUP3 DUP5 DUP7 CALLVALUE PUSH2 0x684 JUMPI PUSH1 0x20 CALLDATASIZE PUSH1 0x3 NOT ADD SLT PUSH2 0x684 JUMPI DUP1 DUP3 SWAP2 PUSH1 0xC0 DUP4 MLOAD PUSH2 0x7D1 DUP2 PUSH2 0xF6E JUMP JUMPDEST DUP3 DUP2 MSTORE DUP3 PUSH1 0x20 DUP3 ADD MSTORE DUP3 DUP6 DUP3 ADD MSTORE DUP3 PUSH1 0x60 DUP3 ADD MSTORE DUP3 PUSH1 0x80 DUP3 ADD MSTORE DUP3 PUSH1 0xA0 DUP3 ADD MSTORE ADD MSTORE DUP4 CALLDATALOAD DUP2 MSTORE DUP4 PUSH1 0x20 MSTORE KECCAK256 SWAP1 DUP1 MLOAD SWAP2 DUP3 SWAP2 PUSH2 0x80B DUP4 PUSH2 0xF6E JUMP JUMPDEST DUP2 SLOAD SWAP5 DUP6 DUP5 MSTORE PUSH1 0x1 DUP1 PUSH1 0xA0 SHL SUB SWAP2 DUP3 DUP1 PUSH1 0x1 DUP7 ADD SLOAD AND PUSH1 0x20 DUP8 ADD SWAP1 DUP2 MSTORE DUP2 DUP1 PUSH1 0x2 DUP9 ADD SLOAD AND SWAP2 DUP5 DUP10 ADD SWAP3 DUP4 MSTORE PUSH1 0xC0 PUSH1 0xFF PUSH1 0x6 DUP5 PUSH1 0x3 DUP13 ADD SLOAD AND SWAP9 PUSH1 0x60 DUP14 ADD SWAP10 DUP11 MSTORE DUP12 ADD SLOAD SWAP11 PUSH1 0x80 DUP14 ADD SWAP12 DUP13 MSTORE PUSH1 0xA0 PUSH1 0x5 DUP3 ADD SLOAD SWAP14 ADD SWAP13 DUP14 MSTORE ADD SLOAD AND SWAP11 ADD SWAP10 ISZERO ISZERO DUP11 MSTORE DUP5 MLOAD SWAP11 DUP12 MSTORE MLOAD AND PUSH1 0x20 DUP11 ADD MSTORE MLOAD AND SWAP1 DUP8 ADD MSTORE MLOAD AND PUSH1 0x60 DUP6 ADD MSTORE MLOAD PUSH1 0x80 DUP5 ADD MSTORE MLOAD PUSH1 0xA0 DUP4 ADD MSTORE MLOAD ISZERO ISZERO PUSH1 0xC0 DUP3 ADD MSTORE RETURN JUMPDEST DUP5 CALLVALUE PUSH2 0x684 JUMPI DUP1 PUSH1 0x3 NOT CALLDATASIZE ADD SLT PUSH2 0x684 JUMPI PUSH2 0x8B5 PUSH2 0xEC0 JUMP JUMPDEST DUP1 SLOAD PUSH1 0x1 PUSH1 0x1 PUSH1 0xA0 SHL SUB NOT DUP2 AND DUP3 SSTORE DUP2 SWAP1 PUSH1 0x1 PUSH1 0x1 PUSH1 0xA0 SHL SUB AND PUSH32 0x8BE0079C531659141344CD1FD0A4F28419497F9722A3DAAFE3B4186F6B6457E0 DUP3 DUP1 LOG3 DUP1 RETURN JUMPDEST SWAP2 SWAP3 SWAP1 POP CALLVALUE PUSH2 0xA15 JUMPI DUP1 PUSH1 0x3 NOT CALLDATASIZE ADD SLT PUSH2 0xA15 JUMPI SWAP3 DUP4 PUSH2 0x100 SWAP5 PUSH2 0x918 PUSH2 0xE8F JUMP JUMPDEST SWAP3 PUSH2 0x921 PUSH2 0xEAA JUMP JUMPDEST DUP2 DUP7 DUP5 MLOAD PUSH2 0x92E DUP2 PUSH2 0xF3B JUMP JUMPDEST DUP3 DUP2 MSTORE DUP3 PUSH1 0x20 DUP3 ADD MSTORE DUP3 DUP7 DUP3 ADD MSTORE DUP3 PUSH1 0x60 DUP3 ADD MSTORE DUP3 PUSH1 0x80 DUP3 ADD MSTORE DUP3 PUSH1 0xA0 DUP3 ADD MSTORE DUP3 PUSH1 0xC0 DUP3 ADD MSTORE ADD MSTORE PUSH1 0x1 DUP1 PUSH1 0xA0 SHL SUB DUP1 SWAP6 AND DUP3 MSTORE PUSH1 0x3 PUSH1 0x20 MSTORE DUP5 DUP4 DUP4 KECCAK256 SWAP2 AND DUP3 MSTORE PUSH1 0x20 MSTORE KECCAK256 SWAP1 DUP1 MLOAD SWAP3 PUSH2 0x980 DUP5 PUSH2 0xF3B JUMP JUMPDEST DUP1 DUP4 SLOAD AND SWAP6 DUP7 DUP6 MSTORE DUP2 PUSH1 0x1 DUP6 ADD SLOAD AND SWAP3 PUSH1 0x20 DUP7 ADD SWAP4 DUP5 MSTORE PUSH1 0x2 DUP6 ADD SLOAD DUP2 DUP8 ADD SWAP1 DUP2 MSTORE PUSH1 0x3 DUP7 ADD SLOAD SWAP3 PUSH1 0x60 DUP9 ADD SWAP4 DUP5 MSTORE DUP7 ADD SLOAD SWAP4 PUSH1 0x80 DUP9 ADD SWAP5 DUP6 MSTORE PUSH1 0x5 DUP8 ADD SLOAD SWAP6 PUSH1 0xA0 DUP10 ADD SWAP7 DUP8 MSTORE DUP10 PUSH1 0xFF PUSH1 0x7 PUSH1 0x6 DUP12 ADD SLOAD SWAP11 PUSH1 0xC0 DUP14 ADD SWAP12 DUP13 MSTORE ADD SLOAD AND SWAP10 ADD SWAP9 ISZERO ISZERO DUP10 MSTORE DUP4 MLOAD SWAP11 DUP12 MSTORE MLOAD AND PUSH1 0x20 DUP11 ADD MSTORE MLOAD SWAP1 DUP9 ADD MSTORE MLOAD PUSH1 0x60 DUP8 ADD MSTORE MLOAD PUSH1 0x80 DUP7 ADD MSTORE MLOAD PUSH1 0xA0 DUP6 ADD MSTORE MLOAD PUSH1 0xC0 DUP5 ADD MSTORE MLOAD ISZERO ISZERO SWAP1 DUP3 ADD MSTORE RETURN JUMPDEST DUP4 DUP1 REVERT JUMPDEST POP POP CALLVALUE PUSH2 0x196 JUMPI PUSH1 0x20 CALLDATASIZE PUSH1 0x3 NOT ADD SLT PUSH2 0x196 JUMPI PUSH2 0xA34 PUSH2 0xE8F JUMP JUMPDEST SWAP2 PUSH2 0xA3D PUSH2 0xEC0 JUMP JUMPDEST PUSH1 0x1 PUSH1 0x1 PUSH1 0xA0 SHL SUB DUP4 AND ISZERO PUSH2 0xA76 JUMPI POP POP PUSH1 0x2 DUP1 SLOAD PUSH2 0x100 PUSH1 0x1 PUSH1 0xA8 SHL SUB NOT AND PUSH1 0x8 SWAP3 SWAP1 SWAP3 SHL PUSH2 0x100 PUSH1 0x1 PUSH1 0xA8 SHL SUB AND SWAP2 SWAP1 SWAP2 OR SWAP1 SSTORE DUP1 RETURN JUMPDEST SWAP1 PUSH1 0x20 PUSH1 0x64 SWAP3 MLOAD SWAP2 PUSH3 0x461BCD PUSH1 0xE5 SHL DUP4 MSTORE DUP3 ADD MSTORE PUSH1 0x15 PUSH1 0x24 DUP3 ADD MSTORE PUSH21 0x496E76616C696420746F6B656E2061646472657373 PUSH1 0x58 SHL PUSH1 0x44 DUP3 ADD MSTORE REVERT JUMPDEST POP POP POP CALLVALUE PUSH2 0x608 JUMPI DUP2 PUSH1 0x3 NOT CALLDATASIZE ADD SLT PUSH2 0x608 JUMPI PUSH1 0x20 SWAP1 PUSH1 0xFF PUSH1 0x2 SLOAD AND SWAP1 MLOAD SWAP1 ISZERO ISZERO DUP2 MSTORE RETURN JUMPDEST POP POP CALLVALUE PUSH2 0x196 JUMPI DUP3 PUSH1 0x3 NOT CALLDATASIZE ADD SLT PUSH2 0x196 JUMPI PUSH2 0xAF0 PUSH2 0xEC0 JUMP JUMPDEST PUSH1 0x2 SLOAD SWAP1 PUSH1 0xFF DUP3 AND ISZERO PUSH2 0xB32 JUMPI POP PUSH1 0xFF NOT AND PUSH1 0x2 SSTORE MLOAD CALLER DUP2 MSTORE PUSH32 0x5DB9EE0A495BF2E6FF9C91A7834C1BA4FDD244A5E8AA4E537BD38AEAE4B073AA SWAP1 PUSH1 0x20 SWAP1 LOG1 DUP1 RETURN JUMPDEST PUSH1 0x64 SWAP1 PUSH1 0x20 DUP5 MLOAD SWAP2 PUSH3 0x461BCD PUSH1 0xE5 SHL DUP4 MSTORE DUP3 ADD MSTORE PUSH1 0x14 PUSH1 0x24 DUP3 ADD MSTORE PUSH20 0x14185D5CD8589B194E881B9BDD081C185D5CD959 PUSH1 0x62 SHL PUSH1 0x44 DUP3 ADD MSTORE REVERT JUMPDEST POP POP POP CALLVALUE PUSH2 0x608 JUMPI DUP2 PUSH1 0x3 NOT CALLDATASIZE ADD SLT PUSH2 0x608 JUMPI PUSH1 0x2 SLOAD SWAP1 MLOAD PUSH1 0x8 SWAP2 SWAP1 SWAP2 SHR PUSH1 0x1 PUSH1 0x1 PUSH1 0xA0 SHL SUB AND DUP2 MSTORE PUSH1 0x20 SWAP1 RETURN JUMPDEST POP POP SWAP1 CALLVALUE PUSH2 0x196 JUMPI PUSH1 0x20 DUP1 PUSH1 0x3 NOT CALLDATASIZE ADD SLT PUSH2 0xA15 JUMPI PUSH2 0xBB7 PUSH2 0xE8F JUMP JUMPDEST CALLER DUP6 MSTORE PUSH1 0x3 DUP3 MSTORE DUP3 DUP6 KECCAK256 PUSH1 0x1 PUSH1 0x1 PUSH1 0xA0 SHL SUB SWAP1 SWAP2 AND DUP1 DUP7 MSTORE SWAP1 DUP3 MSTORE DUP3 DUP6 KECCAK256 PUSH1 0x7 ADD SLOAD SWAP1 SWAP4 SWAP1 PUSH1 0xFF AND ISZERO PUSH2 0xC2B JUMPI POP CALLER DUP1 DUP6 MSTORE PUSH1 0x3 DUP3 MSTORE DUP3 DUP6 KECCAK256 DUP5 DUP7 MSTORE SWAP1 SWAP2 MSTORE SWAP1 DUP4 KECCAK256 PUSH1 0x7 ADD DUP1 SLOAD PUSH1 0xFF NOT AND SWAP1 SSTORE PUSH32 0xD11ACD754BB26B1C2C614F5D846FE7E88FE5218CF98A37555939F62CDA0A83F6 DUP4 DUP1 LOG3 DUP1 RETURN JUMPDEST SWAP2 MLOAD PUSH3 0x461BCD PUSH1 0xE5 SHL DUP2 MSTORE SWAP2 DUP3 ADD MSTORE PUSH1 0x1B PUSH1 0x24 DUP3 ADD MSTORE PUSH32 0x4772616E74206E6F7420666F756E64206F7220696E6163746976650000000000 PUSH1 0x44 DUP3 ADD MSTORE PUSH1 0x64 SWAP1 REVERT JUMPDEST DUP6 SWAP2 DUP5 DUP7 CALLVALUE PUSH2 0xE8B JUMPI PUSH1 0x80 CALLDATASIZE PUSH1 0x3 NOT ADD SLT PUSH2 0xE8B JUMPI PUSH2 0xC89 PUSH2 0xE8F JUMP JUMPDEST PUSH1 0x1 PUSH1 0x1 PUSH1 0xA0 SHL SUB SWAP1 DUP2 AND SWAP5 PUSH1 0x24 CALLDATALOAD SWAP5 PUSH1 0x44 CALLDATALOAD SWAP5 PUSH1 0x64 CALLDATALOAD SWAP4 SWAP3 SWAP1 SWAP2 SWAP1 DUP9 ISZERO PUSH2 0xE52 JUMPI POP DUP7 ISZERO ISZERO DUP1 PUSH2 0xE49 JUMPI JUMPDEST ISZERO PUSH2 0xE15 JUMPI DUP6 DUP8 GT PUSH2 0xDD2 JUMPI SWAP2 PUSH1 0x7 DUP9 DUP11 DUP8 PUSH2 0xD95 SWAP6 DUP9 SWAP8 DUP12 DUP14 PUSH2 0xCDC PUSH2 0xD9B SWAP13 TIMESTAMP PUSH2 0xF18 JUMP JUMPDEST SWAP6 DUP10 DUP7 MLOAD SWAP11 DUP12 SWAP8 PUSH2 0xCEC DUP10 PUSH2 0xF3B JUMP JUMPDEST CALLER DUP10 MSTORE PUSH1 0x20 DUP10 ADD SWAP4 DUP12 DUP6 MSTORE DUP2 DUP11 ADD SWAP6 DUP7 MSTORE PUSH1 0x60 DUP11 ADD SWAP7 DUP8 MSTORE PUSH1 0x80 DUP11 ADD SWAP8 DUP2 DUP10 MSTORE PUSH1 0xA0 DUP12 ADD SWAP11 PUSH3 0x15180 TIMESTAMP DIV DUP13 MSTORE PUSH1 0xC0 DUP2 ADD SWAP13 DUP14 MSTORE ADD SWAP12 PUSH1 0x1 DUP14 MSTORE CALLER DUP3 MSTORE PUSH1 0x3 PUSH1 0x20 MSTORE DUP3 DUP3 KECCAK256 SWAP1 DUP3 MSTORE PUSH1 0x20 MSTORE KECCAK256 SWAP12 MLOAD AND SWAP1 PUSH12 0xFFFFFFFFFFFFFFFFFFFFFFFF PUSH1 0xA0 SHL SWAP2 DUP3 DUP14 SLOAD AND OR DUP13 SSTORE PUSH1 0x1 DUP13 ADD SWAP3 MLOAD AND SWAP1 DUP3 SLOAD AND OR SWAP1 SSTORE MLOAD PUSH1 0x2 DUP10 ADD SSTORE MLOAD PUSH1 0x3 DUP9 ADD SSTORE MLOAD SWAP1 DUP7 ADD SSTORE MLOAD PUSH1 0x5 DUP6 ADD SSTORE MLOAD PUSH1 0x6 DUP5 ADD SSTORE MLOAD ISZERO ISZERO SWAP2 ADD SWAP1 PUSH1 0xFF DUP1 NOT DUP4 SLOAD AND SWAP2 ISZERO ISZERO AND OR SWAP1 SSTORE JUMP JUMPDEST TIMESTAMP PUSH2 0xF18 JUMP JUMPDEST SWAP2 DUP2 MLOAD SWAP4 DUP5 MSTORE PUSH1 0x20 DUP5 ADD MSTORE DUP3 ADD MSTORE PUSH32 0x457A71784C401C8B696ADD5F23143A8501FF8825C51BC8FA793A5F90496C962E PUSH1 0x60 CALLER SWAP3 LOG3 DUP1 RETURN JUMPDEST DUP5 MLOAD PUSH3 0x461BCD PUSH1 0xE5 SHL DUP2 MSTORE PUSH1 0x20 DUP2 DUP5 ADD DUP2 SWAP1 MSTORE PUSH1 0x24 DUP3 ADD MSTORE PUSH32 0x53696E676C65206C696D69742065786365656473206461696C79206C696D6974 PUSH1 0x44 DUP3 ADD MSTORE PUSH1 0x64 SWAP1 REVERT JUMPDEST DUP5 MLOAD PUSH3 0x461BCD PUSH1 0xE5 SHL DUP2 MSTORE PUSH1 0x20 DUP2 DUP5 ADD MSTORE PUSH1 0xE PUSH1 0x24 DUP3 ADD MSTORE PUSH14 0x496E76616C6964206C696D697473 PUSH1 0x90 SHL PUSH1 0x44 DUP3 ADD MSTORE PUSH1 0x64 SWAP1 REVERT JUMPDEST POP DUP6 ISZERO ISZERO PUSH2 0xCB5 JUMP JUMPDEST PUSH3 0x461BCD PUSH1 0xE5 SHL DUP2 MSTORE PUSH1 0x20 DUP4 DUP3 ADD MSTORE PUSH1 0x15 PUSH1 0x24 DUP3 ADD MSTORE PUSH21 0x496E76616C6964206167656E742061646472657373 PUSH1 0x58 SHL PUSH1 0x44 DUP3 ADD MSTORE PUSH1 0x64 SWAP1 REVERT JUMPDEST DUP5 DUP1 REVERT JUMPDEST PUSH1 0x4 CALLDATALOAD SWAP1 PUSH1 0x1 PUSH1 0x1 PUSH1 0xA0 SHL SUB DUP3 AND DUP3 SUB PUSH2 0xEA5 JUMPI JUMP JUMPDEST PUSH1 0x0 DUP1 REVERT JUMPDEST PUSH1 0x24 CALLDATALOAD SWAP1 PUSH1 0x1 PUSH1 0x1 PUSH1 0xA0 SHL SUB DUP3 AND DUP3 SUB PUSH2 0xEA5 JUMPI JUMP JUMPDEST PUSH1 0x0 SLOAD PUSH1 0x1 PUSH1 0x1 PUSH1 0xA0 SHL SUB AND CALLER SUB PUSH2 0xED4 JUMPI JUMP JUMPDEST PUSH1 0x64 PUSH1 0x40 MLOAD PUSH3 0x461BCD PUSH1 0xE5 SHL DUP2 MSTORE PUSH1 0x20 PUSH1 0x4 DUP3 ADD MSTORE PUSH1 0x20 PUSH1 0x24 DUP3 ADD MSTORE PUSH32 0x4F776E61626C653A2063616C6C6572206973206E6F7420746865206F776E6572 PUSH1 0x44 DUP3 ADD MSTORE REVERT JUMPDEST SWAP2 SWAP1 DUP3 ADD DUP1 SWAP3 GT PUSH2 0xF25 JUMPI JUMP JUMPDEST PUSH4 0x4E487B71 PUSH1 0xE0 SHL PUSH1 0x0 MSTORE PUSH1 0x11 PUSH1 0x4 MSTORE PUSH1 0x24 PUSH1 0x0 REVERT JUMPDEST PUSH2 0x100 DUP2 ADD SWAP1 DUP2 LT PUSH8 0xFFFFFFFFFFFFFFFF DUP3 GT OR PUSH2 0xF58 JUMPI PUSH1 0x40 MSTORE JUMP JUMPDEST PUSH4 0x4E487B71 PUSH1 0xE0 SHL PUSH1 0x0 MSTORE PUSH1 0x41 PUSH1 0x4 MSTORE PUSH1 0x24 PUSH1 0x0 REVERT JUMPDEST PUSH1 0xE0 DUP2 ADD SWAP1 DUP2 LT PUSH8 0xFFFFFFFFFFFFFFFF DUP3 GT OR PUSH2 0xF58 JUMPI PUSH1 0x40 MSTORE JUMP JUMPDEST SWAP1 PUSH1 0x1F DUP1 NOT SWAP2 ADD AND DUP2 ADD SWAP1 DUP2 LT PUSH8 0xFFFFFFFFFFFFFFFF DUP3 GT OR PUSH2 0xF58 JUMPI PUSH1 0x40 MSTORE JUMP JUMPDEST PUSH1 0xFF PUSH1 0x2 SLOAD AND PUSH2 0xFB8 JUMPI JUMP JUMPDEST PUSH1 0x40 MLOAD PUSH3 0x461BCD PUSH1 0xE5 SHL DUP2 MSTORE PUSH1 0x20 PUSH1 0x4 DUP3 ADD MSTORE PUSH1 0x10 PUSH1 0x24 DUP3 ADD MSTORE PUSH16 0x14185D5CD8589B194E881C185D5CD959 PUSH1 0x82 SHL PUSH1 0x44 DUP3 ADD MSTORE PUSH1 0x64 SWAP1 REVERT JUMPDEST PUSH1 0x1 DUP1 PUSH1 0xA0 SHL SUB AND SWAP1 PUSH1 0x40 MLOAD PUSH1 0x40 DUP2 ADD PUSH8 0xFFFFFFFFFFFFFFFF SWAP1 DUP3 DUP2 LT DUP3 DUP3 GT OR PUSH2 0xF58 JUMPI PUSH1 0x40 MSTORE PUSH1 0x20 SWAP4 DUP5 DUP4 MSTORE PUSH32 0x5361666545524332303A206C6F772D6C6576656C2063616C6C206661696C6564 DUP6 DUP5 ADD MSTORE PUSH1 0x0 DUP1 DUP6 DUP8 DUP3 SWAP8 MLOAD SWAP2 ADD DUP3 DUP6 GAS CALL SWAP1 RETURNDATASIZE ISZERO PUSH2 0x1135 JUMPI RETURNDATASIZE SWAP3 DUP4 GT PUSH2 0x1121 JUMPI SWAP1 PUSH2 0x108B SWAP4 SWAP3 SWAP2 PUSH1 0x40 MLOAD SWAP3 PUSH2 0x107E DUP9 PUSH1 0x1F NOT PUSH1 0x1F DUP5 ADD AND ADD DUP6 PUSH2 0xF8A JUMP JUMPDEST DUP4 MSTORE RETURNDATASIZE DUP7 DUP9 DUP6 ADD RETURNDATACOPY PUSH2 0x1140 JUMP JUMPDEST DUP1 MLOAD SWAP2 DUP3 ISZERO SWAP2 DUP5 DUP4 ISZERO PUSH2 0x10FD JUMPI JUMPDEST POP POP POP SWAP1 POP ISZERO PUSH2 0x10A6 JUMPI POP JUMP JUMPDEST PUSH1 0x84 SWAP1 PUSH1 0x40 MLOAD SWAP1 PUSH3 0x461BCD PUSH1 0xE5 SHL DUP3 MSTORE PUSH1 0x4 DUP3 ADD MSTORE PUSH1 0x2A PUSH1 0x24 DUP3 ADD MSTORE PUSH32 0x5361666545524332303A204552433230206F7065726174696F6E20646964206E PUSH1 0x44 DUP3 ADD MSTORE PUSH10 0x1BDD081CDD58D8D95959 PUSH1 0xB2 SHL PUSH1 0x64 DUP3 ADD MSTORE REVERT JUMPDEST SWAP2 SWAP4 DUP2 DUP1 SWAP5 POP ADD SUB SLT PUSH2 0x608 JUMPI DUP3 ADD MLOAD SWAP1 DUP2 ISZERO ISZERO DUP3 SUB PUSH2 0x684 JUMPI POP DUP1 CODESIZE DUP1 DUP5 PUSH2 0x1099 JUMP JUMPDEST PUSH4 0x4E487B71 PUSH1 0xE0 SHL DUP6 MSTORE PUSH1 0x41 PUSH1 0x4 MSTORE PUSH1 0x24 DUP6 REVERT JUMPDEST SWAP1 PUSH2 0x108B SWAP4 SWAP3 POP PUSH1 0x60 SWAP2 JUMPDEST SWAP2 SWAP3 SWAP1 ISZERO PUSH2 0x11A2 JUMPI POP DUP2 MLOAD ISZERO PUSH2 0x1154 JUMPI POP SWAP1 JUMP JUMPDEST EXTCODESIZE ISZERO PUSH2 0x115D JUMPI SWAP1 JUMP JUMPDEST PUSH1 0x40 MLOAD PUSH3 0x461BCD PUSH1 0xE5 SHL DUP2 MSTORE PUSH1 0x20 PUSH1 0x4 DUP3 ADD MSTORE PUSH1 0x1D PUSH1 0x24 DUP3 ADD MSTORE PUSH32 0x416464726573733A2063616C6C20746F206E6F6E2D636F6E7472616374000000 PUSH1 0x44 DUP3 ADD MSTORE PUSH1 0x64 SWAP1 REVERT JUMPDEST DUP3 MLOAD SWAP1 SWAP2 POP ISZERO PUSH2 0x11B5 JUMPI POP DUP1 MLOAD SWAP1 PUSH1 0x20 ADD REVERT JUMPDEST PUSH1 0x40 MLOAD SWAP1 PUSH3 0x461BCD PUSH1 0xE5 SHL DUP3 MSTORE DUP2 PUSH1 0x20 DUP1 PUSH1 0x4 DUP4 ADD MSTORE DUP3 MLOAD SWAP1 DUP2 PUSH1 0x24 DUP5 ADD MSTORE PUSH1 0x0 SWAP4 JUMPDEST DUP3 DUP6 LT PUSH2 0x11FB JUMPI POP POP PUSH1 0x44 SWAP3 POP PUSH1 0x0 DUP4 DUP3 DUP5 ADD ADD MSTORE PUSH1 0x1F DUP1 NOT SWAP2 ADD AND DUP2 ADD SUB ADD SWAP1 REVERT JUMPDEST DUP5 DUP2 ADD DUP3 ADD MLOAD DUP7 DUP7 ADD PUSH1 0x44 ADD MSTORE SWAP4 DUP2 ADD SWAP4 DUP6 SWAP4 POP PUSH2 0x11D8 JUMP INVALID LOG2 PUSH5 0x6970667358 0x22 SLT KECCAK256 KECCAK256 SHL DUP2 AND PUSH9 0xC8AF4A265775DF455 0x28 BYTE BLOCKHASH GT SGT 0xCE DUP4 CALL TIMESTAMP STOP 0xD7 0xD6 0xB4 0xD7 0xE9 DUP11 SUB EXTCODESIZE PUSH5 0x736F6C6343 STOP ADDMOD EQ STOP CALLER "},"methodIdentifiers":{"autoPayments(bytes32)":"c6ed3be1","createGrant(address,uint256,uint256,uint256)":"16140b7a","emergencyWithdraw(address,address,uint256)":"e63ea408","executeAutoPayment(bytes32,address,address,uint256)":"ebd99dc6","getAutoPayment(bytes32)":"77fc1906","getGrant(address,address)":"6d1319eb","grants(address,address)":"9c278efa","owner()":"8da5cb5b","pause()":"8456cb59","paused()":"5c975abb","paymentToken()":"3013ce29","renounceOwnership()":"715018a6","revokeGrant(address)":"1817c5a7","setPaymentToken(address)":"6a326ab1","transferOwnership(address)":"f2fde38b","unpause()":"3f4ba83a"}}}}}