{"contracts/ERC8004SessionManager.sol":{"ERC8004SessionManager":{"abi":[{"inputs":[{"internalType":"address","name":"_usdcToken","type":"address"}],"stateMutability":"nonpayable","type":"constructor"},{"anonymous":false,"inputs":[{"indexed":true,"internalType":"bytes32","name":"sessionId","type":"bytes32"},{"indexed":false,"internalType":"uint256","name":"newDate","type":"uint256"}],"name":"DailyLimitReset","type":"event"},{"anonymous":false,"inputs":[{"indexed":true,"internalType":"address","name":"previousOwner","type":"address"},{"indexed":true,"internalType":"address","name":"newOwner","type":"address"}],"name":"OwnershipTransferred","type":"event"},{"anonymous":false,"inputs":[{"indexed":false,"internalType":"address","name":"account","type":"address"}],"name":"Paused","type":"event"},{"anonymous":false,"inputs":[{"indexed":true,"internalType":"bytes32","name":"sessionId","type":"bytes32"},{"indexed":true,"internalType":"address","name":"to","type":"address"},{"indexed":false,"internalType":"uint256","name":"amount","type":"uint256"},{"indexed":true,"internalType":"bytes32","name":"paymentId","type":"bytes32"}],"name":"PaymentExecuted","type":"event"},{"anonymous":false,"inputs":[{"indexed":true,"internalType":"bytes32","name":"sessionId","type":"bytes32"},{"indexed":true,"internalType":"address","name":"owner","type":"address"},{"indexed":true,"internalType":"address","name":"signer","type":"address"},{"indexed":false,"internalType":"uint256","name":"singleLimit","type":"uint256"},{"indexed":false,"internalType":"uint256","name":"dailyLimit","type":"uint256"},{"indexed":false,"internalType":"uint256","name":"expiry","type":"uint256"}],"name":"SessionCreated","type":"event"},{"anonymous":false,"inputs":[{"indexed":true,"internalType":"bytes32","name":"sessionId","type":"bytes32"},{"indexed":true,"internalType":"address","name":"owner","type":"address"}],"name":"SessionRevoked","type":"event"},{"anonymous":false,"inputs":[{"indexed":false,"internalType":"address","name":"account","type":"address"}],"name":"Unpaused","type":"event"},{"inputs":[{"internalType":"address","name":"signer","type":"address"},{"internalType":"uint256","name":"singleLimit","type":"uint256"},{"internalType":"uint256","name":"dailyLimit","type":"uint256"},{"internalType":"uint256","name":"expiry","type":"uint256"}],"name":"createSession","outputs":[{"internalType":"bytes32","name":"sessionId","type":"bytes32"}],"stateMutability":"nonpayable","type":"function"},{"inputs":[{"internalType":"address","name":"token","type":"address"},{"internalType":"address","name":"to","type":"address"},{"internalType":"uint256","name":"amount","type":"uint256"}],"name":"emergencyWithdraw","outputs":[],"stateMutability":"nonpayable","type":"function"},{"inputs":[{"internalType":"bytes32[]","name":"sessionIds","type":"bytes32[]"},{"internalType":"address[]","name":"recipients","type":"address[]"},{"internalType":"uint256[]","name":"amounts","type":"uint256[]"},{"internalType":"bytes32[]","name":"paymentIds","type":"bytes32[]"},{"internalType":"bytes[]","name":"signatures","type":"bytes[]"}],"name":"executeBatchWithSession","outputs":[],"stateMutability":"nonpayable","type":"function"},{"inputs":[{"internalType":"bytes32","name":"sessionId","type":"bytes32"},{"internalType":"address","name":"to","type":"address"},{"internalType":"uint256","name":"amount","type":"uint256"},{"internalType":"bytes32","name":"paymentId","type":"bytes32"},{"internalType":"bytes","name":"signature","type":"bytes"}],"name":"executeWithSession","outputs":[],"stateMutability":"nonpayable","type":"function"},{"inputs":[{"internalType":"bytes32","name":"sessionId","type":"bytes32"}],"name":"getSession","outputs":[{"components":[{"internalType":"address","name":"signer","type":"address"},{"internalType":"address","name":"owner","type":"address"},{"internalType":"uint256","name":"singleLimit","type":"uint256"},{"internalType":"uint256","name":"dailyLimit","type":"uint256"},{"internalType":"uint256","name":"usedToday","type":"uint256"},{"internalType":"uint256","name":"expiry","type":"uint256"},{"internalType":"uint256","name":"lastResetDate","type":"uint256"},{"internalType":"bool","name":"isActive","type":"bool"}],"internalType":"struct ERC8004SessionManager.Session","name":"","type":"tuple"}],"stateMutability":"view","type":"function"},{"inputs":[{"internalType":"address","name":"user","type":"address"}],"name":"getUserSessions","outputs":[{"internalType":"bytes32[]","name":"","type":"bytes32[]"}],"stateMutability":"view","type":"function"},{"inputs":[{"internalType":"address","name":"user","type":"address"}],"name":"getUserTokenAllowance","outputs":[{"internalType":"uint256","name":"allowance","type":"uint256"},{"internalType":"address","name":"tokenAddress","type":"address"},{"internalType":"bool","name":"isAuthorized","type":"bool"}],"stateMutability":"view","type":"function"},{"inputs":[],"name":"owner","outputs":[{"internalType":"address","name":"","type":"address"}],"stateMutability":"view","type":"function"},{"inputs":[],"name":"pause","outputs":[],"stateMutability":"nonpayable","type":"function"},{"inputs":[],"name":"paused","outputs":[{"internalType":"bool","name":"","type":"bool"}],"stateMutability":"view","type":"function"},{"inputs":[],"name":"relayer","outputs":[{"internalType":"address","name":"","type":"address"}],"stateMutability":"view","type":"function"},{"inputs":[],"name":"renounceOwnership","outputs":[],"stateMutability":"nonpayable","type":"function"},{"inputs":[{"internalType":"bytes32","name":"sessionId","type":"bytes32"}],"name":"revokeSession","outputs":[],"stateMutability":"nonpayable","type":"function"},{"inputs":[{"internalType":"bytes32","name":"","type":"bytes32"}],"name":"sessions","outputs":[{"internalType":"address","name":"signer","type":"address"},{"internalType":"address","name":"owner","type":"address"},{"internalType":"uint256","name":"singleLimit","type":"uint256"},{"internalType":"uint256","name":"dailyLimit","type":"uint256"},{"internalType":"uint256","name":"usedToday","type":"uint256"},{"internalType":"uint256","name":"expiry","type":"uint256"},{"internalType":"uint256","name":"lastResetDate","type":"uint256"},{"internalType":"bool","name":"isActive","type":"bool"}],"stateMutability":"view","type":"function"},{"inputs":[{"internalType":"address","name":"_relayer","type":"address"}],"name":"setRelayer","outputs":[],"stateMutability":"nonpayable","type":"function"},{"inputs":[{"internalType":"address","name":"newOwner","type":"address"}],"name":"transferOwnership","outputs":[],"stateMutability":"nonpayable","type":"function"},{"inputs":[],"name":"unpause","outputs":[],"stateMutability":"nonpayable","type":"function"},{"inputs":[],"name":"usdcToken","outputs":[{"internalType":"address","name":"","type":"address"}],"stateMutability":"view","type":"function"},{"inputs":[{"internalType":"address","name":"","type":"address"},{"internalType":"uint256","name":"","type":"uint256"}],"name":"userSessions","outputs":[{"internalType":"bytes32","name":"","type":"bytes32"}],"stateMutability":"view","type":"function"}],"evm":{"bytecode":{"linkReferences":{},"object":"60803461010157601f611df238819003918201601f19168301916001600160401b038311848410176101065780849260209460405283398101031261010157516001600160a01b0380821691829003610101576000549060018060a01b0319913383821617600055604051913391167f8be0079c531659141344cd1fd0a4f28419497f9722a3daafe3b4186f6b6457e0600080a36001805560ff196002541660025582156100bf57506005541617600555604051611cd5908161011d8239f35b62461bcd60e51b815260206004820152601460248201527f496e76616c6964205553444320616464726573730000000000000000000000006044820152606490fd5b600080fd5b634e487b7160e01b600052604160045260246000fdfe6080604052600436101561001257600080fd5b60003560e01c806311eac8551461014757806314f8192414610142578063223715dd1461013d57806339b240bd146101385780633f4ba83a1461013357806345ba64f41461012e5780635c975abb146101295780636548e9bc146101245780636d597d131461011f578063715018a61461011a5780637dbd2832146101155780637f93faa3146101105780638406c0791461010b5780638456cb59146101065780638da5cb5b1461010157806391170e47146100fc578063a7fed385146100f7578063e63ea408146100f25763f2fde38b146100ed57600080fd5b610c3a565b610b89565b610aca565b610a5d565b610a34565b6109da565b6109b1565b6108e8565b61084f565b6107f1565b610795565b6106da565b6106b7565b610614565b61054f565b61041a565b610394565b610186565b34610170576000366003190112610170576005546040516001600160a01b039091168152602090f35b600080fd5b6001600160a01b0381160361017057565b34610170576080366003190112610170576103556103136004356101a981610175565b6001600160a01b03811690602435907f172d7ccba1f3184e217ab083748b845fd9db3cbe7fd8da1b1c94ae2837379a186064356044356101ea861515610d59565b6101f5851515610d96565b61020185821015610dd9565b61020c428311610e24565b61021543610e77565b60405133606090811b6bffffffffffffffffffffffff19908116602084019081529188901b1660348301524260488301524360688301529140608880830191909152815261026460a882610efb565b5190209687946102a96102a361029760016102898a6000526003602052604060002090565b01546001600160a01b031690565b6001600160a01b031690565b15610f1d565b6102c36102b4610f80565b6001600160a01b039092168252565b336020820152866040820152826060820152600060808201528360a082015262015180420460c08201526102fa60e0820160019052565b61030e866000526003602052604060002090565b610f8f565b33600090815260046020526040902061032d908590611016565b6040805195865260208601919091528401523392606090a46040519081529081906020820190565b0390f35b6020908160408183019282815285518094520193019160005b828110610380575050505090565b835185529381019392810192600101610372565b3461017057602080600319360112610170576004356103b281610175565b6001600160a01b03166000908152600482526040808220905181548082529183528383208185019491939092915b82821061040357610355856103f781890382610efb565b60405191829182610359565b8354865294850194600193840193909101906103e0565b3461017057602036600319011261017057610355604060e0815161043d81610ea1565b600091818380935282602082015282858201528260608201528260808201528260a08201528260c0820152015260043581526003602052206104e96104e06007610485610f80565b84546001600160a01b031681529360018101546001600160a01b03166020860152600281015460408601526003810154606086015260048101546080860152600581015460a0860152600681015460c0860152015460ff1690565b151560e0830152565b6040519182918291909160e08061010083019460018060a01b03808251168552602082015116602085015260408101516040850152606081015160608501526080810151608085015260a081015160a085015260c081015160c085015201511515910152565b3461017057600036600319011261017057610568610d01565b60025460ff8116156105a75760ff19166002557f5db9ee0a495bf2e6ff9c91a7834c1ba4fdd244a5e8aa4e537bd38aeae4b073aa6020604051338152a1005b60405162461bcd60e51b815260206004820152601460248201527314185d5cd8589b194e881b9bdd081c185d5cd95960621b6044820152606490fd5b9181601f840112156101705782359167ffffffffffffffff8311610170576020808501948460051b01011161017057565b346101705760a036600319011261017057600467ffffffffffffffff81358181116101705761064690369084016105e3565b916024358181116101705761065e90369086016105e3565b6044929192358281116101705761067890369088016105e3565b91606435848111610170576106909036908a016105e3565b959094608435908111610170576106b5996106ad913691016105e3565b989097611904565b005b3461017057600036600319011261017057602060ff600254166040519015158152f35b34610170576020366003190112610170576004356106f781610175565b6106ff610d01565b6001600160a01b0316801561072b576bffffffffffffffffffffffff60a01b6006541617600655600080f35b60405162461bcd60e51b815260206004820152600f60248201526e24b73b30b634b2103932b630bcb2b960891b6044820152606490fd5b634e487b7160e01b600052603260045260246000fd5b80548210156107905760005260206000200190600090565b610762565b34610170576040366003190112610170576004356107b281610175565b6001600160a01b0316600090815260046020526040902080546024359190821015610170576020916107e391610778565b90546040519160031b1c8152f35b346101705760008060031936011261084c5761080b610d01565b80546001600160a01b03198116825581906001600160a01b03167f8be0079c531659141344cd1fd0a4f28419497f9722a3daafe3b4186f6b6457e08280a380f35b80fd5b34610170576020366003190112610170576004803560009081526003602081815260409283902080546001820154600283015494830154968301546005840154600685015460079095015488516001600160a01b0395861681529490931695840195909552958201949094526060810195909552608085019390935260a084015260c083019190915260ff16151560e082015261010090f35b346101705760203660031901126101705761094060043561090881610175565b600554604051636eb1769f60e11b81526001600160a01b03928316600482015230602482015292911690602090839081906044820190565b0381845afa9182156109ac5760009261097c575b50604080518381526001600160a01b0392909216602083015291151591810191909152606090f35b61099e91925060203d81116109a5575b6109968183610efb565b810190611b93565b9038610954565b503d61098c565b6113ab565b34610170576000366003190112610170576006546040516001600160a01b039091168152602090f35b34610170576000366003190112610170576109f3610d01565b6109fb6111d3565b600160ff1960025416176002557f62e78cea01bee320cd4e420270b5ea74000d11b0c9f74754ebdbfc544b05a2586020604051338152a1005b34610170576000366003190112610170576000546040516001600160a01b039091168152602090f35b346101705760a036600319011261017057602435610a7a81610175565b6084359067ffffffffffffffff9081831161017057366023840112156101705782600401359182116101705736602483850101116101705760246106b5930190606435906044359060043561109c565b3461017057602036600319011261017057600435600081815260036020526040812060018101549192916001600160a01b03163303610b50576007610b279101610b1d610b18825460ff1690565b611b47565b805460ff19169055565b33907f53c7d74d36edc91dbf6b53bb0ea80bbdb2ca5894d54f6f62beacc537701822fd8380a380f35b60405162461bcd60e51b81526020600482015260116024820152702737ba1039b2b9b9b4b7b71037bbb732b960791b6044820152606490fd5b3461017057606036600319011261017057600435610ba681610175565b602435610bb281610175565b610bba610d01565b6001600160a01b03908116908115610c01576106b5926040519263a9059cbb60e01b60208501526024840152604435604484015260448352610bfb83610ec3565b16611758565b60405162461bcd60e51b8152602060048201526011602482015270125b9d985b1a59081c9958da5c1a595b9d607a1b6044820152606490fd5b3461017057602036600319011261017057600435610c5781610175565b610c5f610d01565b6001600160a01b039081168015610cad57600080546001600160a01b03198116831782559092167f8be0079c531659141344cd1fd0a4f28419497f9722a3daafe3b4186f6b6457e08380a380f35b60405162461bcd60e51b815260206004820152602660248201527f4f776e61626c653a206e6577206f776e657220697320746865207a65726f206160448201526564647265737360d01b6064820152608490fd5b6000546001600160a01b03163303610d1557565b606460405162461bcd60e51b815260206004820152602060248201527f4f776e61626c653a2063616c6c6572206973206e6f7420746865206f776e65726044820152fd5b15610d6057565b60405162461bcd60e51b815260206004820152600e60248201526d24b73b30b634b21039b4b3b732b960911b6044820152606490fd5b15610d9d57565b60405162461bcd60e51b8152602060048201526014602482015273125b9d985b1a59081cda5b99db19481b1a5b5a5d60621b6044820152606490fd5b15610de057565b606460405162461bcd60e51b815260206004820152602060248201527f4461696c79206c696d6974206d757374203e3d2073696e676c65206c696d69746044820152fd5b15610e2b57565b60405162461bcd60e51b815260206004820152600e60248201526d496e76616c69642065787069727960901b6044820152606490fd5b634e487b7160e01b600052601160045260246000fd5b600019810191908211610e8657565b610e61565b634e487b7160e01b600052604160045260246000fd5b610100810190811067ffffffffffffffff821117610ebe57604052565b610e8b565b6080810190811067ffffffffffffffff821117610ebe57604052565b6040810190811067ffffffffffffffff821117610ebe57604052565b90601f8019910116810190811067ffffffffffffffff821117610ebe57604052565b15610f2457565b60405162461bcd60e51b815260206004820152601460248201527329b2b9b9b4b7b71024a21031b7b63634b9b4b7b760611b6044820152606490fd5b8115610f6a570490565b634e487b7160e01b600052601260045260246000fd5b60405190610f8d82610ea1565b565b815181546001600160a01b039182166001600160a01b0319918216178355602084015160018401805491909316911617905560408201516002820155606082015160038201556080820151600482015560a0820151600582015560c0820151600682015560e090910151610f8d9190600790151591019060ff801983541691151516179055565b805468010000000000000000811015610ebe5761103891600182018155610778565b819291549060031b91821b91600019901b1916179055565b1561105757565b60405162461bcd60e51b815260206004820152601860248201527f4f6e6c792072656c617965722063616e206578656375746500000000000000006044820152606490fd5b9061110e95949392916110f9600560018060a01b036110c081600654163314611050565b8360005260036020526110df6040600020916001830154161515611114565b6110ef60ff600783015416611154565b0154421115611195565b611101611217565b6111096111d3565b6113ff565b60018055565b1561111b57565b60405162461bcd60e51b815260206004820152601160248201527014d95cdcda5bdb881b9bdd08199bdd5b99607a1b6044820152606490fd5b1561115b57565b60405162461bcd60e51b815260206004820152601260248201527153657373696f6e206e6f742061637469766560701b6044820152606490fd5b1561119c57565b60405162461bcd60e51b815260206004820152600f60248201526e14d95cdcda5bdb88195e1c1a5c9959608a1b6044820152606490fd5b60ff600254166111df57565b60405162461bcd60e51b815260206004820152601060248201526f14185d5cd8589b194e881c185d5cd95960821b6044820152606490fd5b600260015414611228576002600155565b60405162461bcd60e51b815260206004820152601f60248201527f5265656e7472616e637947756172643a207265656e7472616e742063616c6c006044820152606490fd5b1561127457565b60405162461bcd60e51b8152602060048201526014602482015273115e18d959591cc81cda5b99db19481b1a5b5a5d60621b6044820152606490fd5b91908201809211610e8657565b156112c457565b60405162461bcd60e51b8152602060048201526013602482015272115e18d959591cc819185a5b1e481b1a5b5a5d606a1b6044820152606490fd5b67ffffffffffffffff8111610ebe57601f01601f191660200190565b929192611327826112ff565b916113356040519384610efb565b829481845281830111610170578281602093846000960137010152565b1561135957565b60405162461bcd60e51b8152602060048201526011602482015270496e76616c6964207369676e617475726560781b6044820152606490fd5b90816020910312610170575160ff811681036101705790565b6040513d6000823e3d90fd5b60ff166006039060ff8211610e8657565b60ff6005199116019060ff8211610e8657565b60ff16604d8111610e8657600a0a90565b81810292918115918404141715610e8657565b9294919390611418846000526003602052604060002090565b92846201518042046006860180548211611662575b50505060028401548611156114419061126d565b600484019081549361145388866112b0565b60038701541015611463906112bd565b60408051602081018981526bffffffffffffffffffffffff19606088901b1692820192909252605481018a9052607481018b9052466094808301919091528152601f1991906114b360b482610efb565b51902090604051908160208101936114f59085603c917f19457468657265756d205369676e6564204d6573736167653a0a3332000000008252601c8201520190565b0390810182526115059082610efb565b5190209136906115149261131b565b61151d91611bb4565b84546001600160a01b039491889161153a91871690871614611352565b611543916112b0565b90556005546001600160a01b03166001600160a01b03169260405163313ce56760e01b815280808587165a92600491602094fa9081156109ac577f756ad05355eaee75b04e423ae52915105c02d4a3fc70eaddf2d437bbe24a0fd2956115d3938592600094611632575b50899360ff8116600681036115e1575b5050600101546001600160a01b03165b906116a0565b6040519485521692602090a4565b6115cd929550906006600192116000146116175761160961160461160f926113c8565b6113db565b8c6113ec565b945b916115bd565b61162661160461162c926113b7565b8c610f60565b94611611565b61165491945060203d811161165b575b61164c8183610efb565b810190611392565b92386115ad565b503d611642565b600060048801558190556040519081527fc4a881808fe11209c7fd9fa8f3bb044229bd1de8bb80de1f0475be1c2d0d14bb90602090a284388061142d565b6040516323b872dd60e01b60208201526001600160a01b03928316602482015292909116604483015260648083019390935291815260a081019181831067ffffffffffffffff841117610ebe57610f8d92604052611758565b1561170057565b60405162461bcd60e51b815260206004820152602a60248201527f5361666545524332303a204552433230206f7065726174696f6e20646964206e6044820152691bdd081cdd58d8d9595960b21b6064820152608490fd5b60018060a01b0316906117d560405161177081610edf565b6020938482527f5361666545524332303a206c6f772d6c6576656c2063616c6c206661696c6564858301526000808587829751910182855af13d1561181b573d916117ba836112ff565b926117c86040519485610efb565b83523d868885013e61186f565b9081519283159283156117f0575b505050610f8d91506116f9565b8193508092948101031261181757015190811515820361084c5750610f8d903880806117e3565b8280fd5b60609161186f565b1561182a57565b60405162461bcd60e51b815260206004820152601d60248201527f416464726573733a2063616c6c20746f206e6f6e2d636f6e74726163740000006044820152606490fd5b919290156118925750815115611883575090565b61188f903b1515611823565b90565b8251909150156118a55750805190602001fd5b6040519062461bcd60e51b82528160208060048301528251908160248401526000935b8285106118eb575050604492506000838284010152601f80199101168101030190fd5b84810182015186860160440152938101938593506118c8565b9894969793919095929561192360018060a01b03600654163314611050565b61192b611217565b6119336111d3565b86811480611a4e575b80611a45575b80611a3c575b61195190611a57565b80151580611a31575b61196390611a9b565b60005b818110611981575050505050505050505050610f8d60018055565b808061198e81858f611aeb565b358c8c8c846119a7856000526003602052604060002090565b60018101546119c0906001600160a01b03161515611114565b600781015460ff166119d190611154565b600501544211156119e190611195565b6119eb918a611aeb565b6119f490611afb565b936119ff918a611aeb565b3593611a0b918a611aeb565b35611a17858c8c611b05565b93611a239591936113ff565b611a2c90611adc565b611966565b50603281111561195a565b50888614611948565b50888814611942565b5087871461193c565b15611a5e57565b60405162461bcd60e51b8152602060048201526015602482015274082e4e4c2f240d8cadccee8d040dad2e6dac2e8c6d605b1b6044820152606490fd5b15611aa257565b60405162461bcd60e51b8152602060048201526012602482015271496e76616c69642062617463682073697a6560701b6044820152606490fd5b6000198114610e865760010190565b91908110156107905760051b0190565b3561188f81610175565b91908110156107905760051b81013590601e198136030182121561017057019081359167ffffffffffffffff8311610170576020018236038113610170579190565b15611b4e57565b60405162461bcd60e51b815260206004820152601760248201527f53657373696f6e20616c7265616479207265766f6b65640000000000000000006044820152606490fd5b90816020910312610170575190565b60ff601b9116019060ff8211610e8657565b6041825103611c5a576020916000918291848101519260606040830151920151901a92601b8410611c43575b90611c2491611bfe60ff8616601b8114908115611c38575b50611352565b604051948594859094939260ff6060936080840197845216602083015260408201520152565b838052039060015afa156109ac5760005190565b601c91501438611bf8565b9290611c51611c2492611ba2565b93909150611be0565b60405162461bcd60e51b815260206004820152601860248201527f496e76616c6964207369676e6174757265206c656e67746800000000000000006044820152606490fdfea264697066735822122025187a8ea56781b76a97a5f601615eddf036d4cd2db1070b9660810cbe6199f164736f6c63430008140033","opcodes":"PUSH1 0x80 CALLVALUE PUSH2 0x101 JUMPI PUSH1 0x1F PUSH2 0x1DF2 CODESIZE DUP2 SWAP1 SUB SWAP2 DUP3 ADD PUSH1 0x1F NOT AND DUP4 ADD SWAP2 PUSH1 0x1 PUSH1 0x1 PUSH1 0x40 SHL SUB DUP4 GT DUP5 DUP5 LT OR PUSH2 0x106 JUMPI DUP1 DUP5 SWAP3 PUSH1 0x20 SWAP5 PUSH1 0x40 MSTORE DUP4 CODECOPY DUP2 ADD SUB SLT PUSH2 0x101 JUMPI MLOAD PUSH1 0x1 PUSH1 0x1 PUSH1 0xA0 SHL SUB DUP1 DUP3 AND SWAP2 DUP3 SWAP1 SUB PUSH2 0x101 JUMPI PUSH1 0x0 SLOAD SWAP1 PUSH1 0x1 DUP1 PUSH1 0xA0 SHL SUB NOT SWAP2 CALLER DUP4 DUP3 AND OR PUSH1 0x0 SSTORE PUSH1 0x40 MLOAD SWAP2 CALLER SWAP2 AND PUSH32 0x8BE0079C531659141344CD1FD0A4F28419497F9722A3DAAFE3B4186F6B6457E0 PUSH1 0x0 DUP1 LOG3 PUSH1 0x1 DUP1 SSTORE PUSH1 0xFF NOT PUSH1 0x2 SLOAD AND PUSH1 0x2 SSTORE DUP3 ISZERO PUSH2 0xBF JUMPI POP PUSH1 0x5 SLOAD AND OR PUSH1 0x5 SSTORE PUSH1 0x40 MLOAD PUSH2 0x1CD5 SWAP1 DUP2 PUSH2 0x11D DUP3 CODECOPY RETURN JUMPDEST PUSH3 0x461BCD PUSH1 0xE5 SHL DUP2 MSTORE PUSH1 0x20 PUSH1 0x4 DUP3 ADD MSTORE PUSH1 0x14 PUSH1 0x24 DUP3 ADD MSTORE PUSH32 0x496E76616C696420555344432061646472657373000000000000000000000000 PUSH1 0x44 DUP3 ADD MSTORE PUSH1 0x64 SWAP1 REVERT JUMPDEST PUSH1 0x0 DUP1 REVERT JUMPDEST PUSH4 0x4E487B71 PUSH1 0xE0 SHL PUSH1 0x0 MSTORE PUSH1 0x41 PUSH1 0x4 MSTORE PUSH1 0x24 PUSH1 0x0 REVERT INVALID PUSH1 0x80 PUSH1 0x40 MSTORE PUSH1 0x4 CALLDATASIZE LT ISZERO PUSH2 0x12 JUMPI PUSH1 0x0 DUP1 REVERT JUMPDEST PUSH1 0x0 CALLDATALOAD PUSH1 0xE0 SHR DUP1 PUSH4 0x11EAC855 EQ PUSH2 0x147 JUMPI DUP1 PUSH4 0x14F81924 EQ PUSH2 0x142 JUMPI DUP1 PUSH4 0x223715DD EQ PUSH2 0x13D JUMPI DUP1 PUSH4 0x39B240BD EQ PUSH2 0x138 JUMPI DUP1 PUSH4 0x3F4BA83A EQ PUSH2 0x133 JUMPI DUP1 PUSH4 0x45BA64F4 EQ PUSH2 0x12E JUMPI DUP1 PUSH4 0x5C975ABB EQ PUSH2 0x129 JUMPI DUP1 PUSH4 0x6548E9BC EQ PUSH2 0x124 JUMPI DUP1 PUSH4 0x6D597D13 EQ PUSH2 0x11F JUMPI DUP1 PUSH4 0x715018A6 EQ PUSH2 0x11A JUMPI DUP1 PUSH4 0x7DBD2832 EQ PUSH2 0x115 JUMPI DUP1 PUSH4 0x7F93FAA3 EQ PUSH2 0x110 JUMPI DUP1 PUSH4 0x8406C079 EQ PUSH2 0x10B JUMPI DUP1 PUSH4 0x8456CB59 EQ PUSH2 0x106 JUMPI DUP1 PUSH4 0x8DA5CB5B EQ PUSH2 0x101 JUMPI DUP1 PUSH4 0x91170E47 EQ PUSH2 0xFC JUMPI DUP1 PUSH4 0xA7FED385 EQ PUSH2 0xF7 JUMPI DUP1 PUSH4 0xE63EA408 EQ PUSH2 0xF2 JUMPI PUSH4 0xF2FDE38B EQ PUSH2 0xED JUMPI PUSH1 0x0 DUP1 REVERT JUMPDEST PUSH2 0xC3A JUMP JUMPDEST PUSH2 0xB89 JUMP JUMPDEST PUSH2 0xACA JUMP JUMPDEST PUSH2 0xA5D JUMP JUMPDEST PUSH2 0xA34 JUMP JUMPDEST PUSH2 0x9DA JUMP JUMPDEST PUSH2 0x9B1 JUMP JUMPDEST PUSH2 0x8E8 JUMP JUMPDEST PUSH2 0x84F JUMP JUMPDEST PUSH2 0x7F1 JUMP JUMPDEST PUSH2 0x795 JUMP JUMPDEST PUSH2 0x6DA JUMP JUMPDEST PUSH2 0x6B7 JUMP JUMPDEST PUSH2 0x614 JUMP JUMPDEST PUSH2 0x54F JUMP JUMPDEST PUSH2 0x41A JUMP JUMPDEST PUSH2 0x394 JUMP JUMPDEST PUSH2 0x186 JUMP JUMPDEST CALLVALUE PUSH2 0x170 JUMPI PUSH1 0x0 CALLDATASIZE PUSH1 0x3 NOT ADD SLT PUSH2 0x170 JUMPI PUSH1 0x5 SLOAD PUSH1 0x40 MLOAD PUSH1 0x1 PUSH1 0x1 PUSH1 0xA0 SHL SUB SWAP1 SWAP2 AND DUP2 MSTORE PUSH1 0x20 SWAP1 RETURN JUMPDEST PUSH1 0x0 DUP1 REVERT JUMPDEST PUSH1 0x1 PUSH1 0x1 PUSH1 0xA0 SHL SUB DUP2 AND SUB PUSH2 0x170 JUMPI JUMP JUMPDEST CALLVALUE PUSH2 0x170 JUMPI PUSH1 0x80 CALLDATASIZE PUSH1 0x3 NOT ADD SLT PUSH2 0x170 JUMPI PUSH2 0x355 PUSH2 0x313 PUSH1 0x4 CALLDATALOAD PUSH2 0x1A9 DUP2 PUSH2 0x175 JUMP JUMPDEST PUSH1 0x1 PUSH1 0x1 PUSH1 0xA0 SHL SUB DUP2 AND SWAP1 PUSH1 0x24 CALLDATALOAD SWAP1 PUSH32 0x172D7CCBA1F3184E217AB083748B845FD9DB3CBE7FD8DA1B1C94AE2837379A18 PUSH1 0x64 CALLDATALOAD PUSH1 0x44 CALLDATALOAD PUSH2 0x1EA DUP7 ISZERO ISZERO PUSH2 0xD59 JUMP JUMPDEST PUSH2 0x1F5 DUP6 ISZERO ISZERO PUSH2 0xD96 JUMP JUMPDEST PUSH2 0x201 DUP6 DUP3 LT ISZERO PUSH2 0xDD9 JUMP JUMPDEST PUSH2 0x20C TIMESTAMP DUP4 GT PUSH2 0xE24 JUMP JUMPDEST PUSH2 0x215 NUMBER PUSH2 0xE77 JUMP JUMPDEST PUSH1 0x40 MLOAD CALLER PUSH1 0x60 SWAP1 DUP2 SHL PUSH12 0xFFFFFFFFFFFFFFFFFFFFFFFF NOT SWAP1 DUP2 AND PUSH1 0x20 DUP5 ADD SWAP1 DUP2 MSTORE SWAP2 DUP9 SWAP1 SHL AND PUSH1 0x34 DUP4 ADD MSTORE TIMESTAMP PUSH1 0x48 DUP4 ADD MSTORE NUMBER PUSH1 0x68 DUP4 ADD MSTORE SWAP2 BLOCKHASH PUSH1 0x88 DUP1 DUP4 ADD SWAP2 SWAP1 SWAP2 MSTORE DUP2 MSTORE PUSH2 0x264 PUSH1 0xA8 DUP3 PUSH2 0xEFB JUMP JUMPDEST MLOAD SWAP1 KECCAK256 SWAP7 DUP8 SWAP5 PUSH2 0x2A9 PUSH2 0x2A3 PUSH2 0x297 PUSH1 0x1 PUSH2 0x289 DUP11 PUSH1 0x0 MSTORE PUSH1 0x3 PUSH1 0x20 MSTORE PUSH1 0x40 PUSH1 0x0 KECCAK256 SWAP1 JUMP JUMPDEST ADD SLOAD PUSH1 0x1 PUSH1 0x1 PUSH1 0xA0 SHL SUB AND SWAP1 JUMP JUMPDEST PUSH1 0x1 PUSH1 0x1 PUSH1 0xA0 SHL SUB AND SWAP1 JUMP JUMPDEST ISZERO PUSH2 0xF1D JUMP JUMPDEST PUSH2 0x2C3 PUSH2 0x2B4 PUSH2 0xF80 JUMP JUMPDEST PUSH1 0x1 PUSH1 0x1 PUSH1 0xA0 SHL SUB SWAP1 SWAP3 AND DUP3 MSTORE JUMP JUMPDEST CALLER PUSH1 0x20 DUP3 ADD MSTORE DUP7 PUSH1 0x40 DUP3 ADD MSTORE DUP3 PUSH1 0x60 DUP3 ADD MSTORE PUSH1 0x0 PUSH1 0x80 DUP3 ADD MSTORE DUP4 PUSH1 0xA0 DUP3 ADD MSTORE PUSH3 0x15180 TIMESTAMP DIV PUSH1 0xC0 DUP3 ADD MSTORE PUSH2 0x2FA PUSH1 0xE0 DUP3 ADD PUSH1 0x1 SWAP1 MSTORE JUMP JUMPDEST PUSH2 0x30E DUP7 PUSH1 0x0 MSTORE PUSH1 0x3 PUSH1 0x20 MSTORE PUSH1 0x40 PUSH1 0x0 KECCAK256 SWAP1 JUMP JUMPDEST PUSH2 0xF8F JUMP JUMPDEST CALLER PUSH1 0x0 SWAP1 DUP2 MSTORE PUSH1 0x4 PUSH1 0x20 MSTORE PUSH1 0x40 SWAP1 KECCAK256 PUSH2 0x32D SWAP1 DUP6 SWAP1 PUSH2 0x1016 JUMP JUMPDEST PUSH1 0x40 DUP1 MLOAD SWAP6 DUP7 MSTORE PUSH1 0x20 DUP7 ADD SWAP2 SWAP1 SWAP2 MSTORE DUP5 ADD MSTORE CALLER SWAP3 PUSH1 0x60 SWAP1 LOG4 PUSH1 0x40 MLOAD SWAP1 DUP2 MSTORE SWAP1 DUP2 SWAP1 PUSH1 0x20 DUP3 ADD SWAP1 JUMP JUMPDEST SUB SWAP1 RETURN JUMPDEST PUSH1 0x20 SWAP1 DUP2 PUSH1 0x40 DUP2 DUP4 ADD SWAP3 DUP3 DUP2 MSTORE DUP6 MLOAD DUP1 SWAP5 MSTORE ADD SWAP4 ADD SWAP2 PUSH1 0x0 JUMPDEST DUP3 DUP2 LT PUSH2 0x380 JUMPI POP POP POP POP SWAP1 JUMP JUMPDEST DUP4 MLOAD DUP6 MSTORE SWAP4 DUP2 ADD SWAP4 SWAP3 DUP2 ADD SWAP3 PUSH1 0x1 ADD PUSH2 0x372 JUMP JUMPDEST CALLVALUE PUSH2 0x170 JUMPI PUSH1 0x20 DUP1 PUSH1 0x3 NOT CALLDATASIZE ADD SLT PUSH2 0x170 JUMPI PUSH1 0x4 CALLDATALOAD PUSH2 0x3B2 DUP2 PUSH2 0x175 JUMP JUMPDEST PUSH1 0x1 PUSH1 0x1 PUSH1 0xA0 SHL SUB AND PUSH1 0x0 SWAP1 DUP2 MSTORE PUSH1 0x4 DUP3 MSTORE PUSH1 0x40 DUP1 DUP3 KECCAK256 SWAP1 MLOAD DUP2 SLOAD DUP1 DUP3 MSTORE SWAP2 DUP4 MSTORE DUP4 DUP4 KECCAK256 DUP2 DUP6 ADD SWAP5 SWAP2 SWAP4 SWAP1 SWAP3 SWAP2 JUMPDEST DUP3 DUP3 LT PUSH2 0x403 JUMPI PUSH2 0x355 DUP6 PUSH2 0x3F7 DUP2 DUP10 SUB DUP3 PUSH2 0xEFB JUMP JUMPDEST PUSH1 0x40 MLOAD SWAP2 DUP3 SWAP2 DUP3 PUSH2 0x359 JUMP JUMPDEST DUP4 SLOAD DUP7 MSTORE SWAP5 DUP6 ADD SWAP5 PUSH1 0x1 SWAP4 DUP5 ADD SWAP4 SWAP1 SWAP2 ADD SWAP1 PUSH2 0x3E0 JUMP JUMPDEST CALLVALUE PUSH2 0x170 JUMPI PUSH1 0x20 CALLDATASIZE PUSH1 0x3 NOT ADD SLT PUSH2 0x170 JUMPI PUSH2 0x355 PUSH1 0x40 PUSH1 0xE0 DUP2 MLOAD PUSH2 0x43D DUP2 PUSH2 0xEA1 JUMP JUMPDEST PUSH1 0x0 SWAP2 DUP2 DUP4 DUP1 SWAP4 MSTORE DUP3 PUSH1 0x20 DUP3 ADD MSTORE DUP3 DUP6 DUP3 ADD MSTORE DUP3 PUSH1 0x60 DUP3 ADD MSTORE DUP3 PUSH1 0x80 DUP3 ADD MSTORE DUP3 PUSH1 0xA0 DUP3 ADD MSTORE DUP3 PUSH1 0xC0 DUP3 ADD MSTORE ADD MSTORE PUSH1 0x4 CALLDATALOAD DUP2 MSTORE PUSH1 0x3 PUSH1 0x20 MSTORE KECCAK256 PUSH2 0x4E9 PUSH2 0x4E0 PUSH1 0x7 PUSH2 0x485 PUSH2 0xF80 JUMP JUMPDEST DUP5 SLOAD PUSH1 0x1 PUSH1 0x1 PUSH1 0xA0 SHL SUB AND DUP2 MSTORE SWAP4 PUSH1 0x1 DUP2 ADD SLOAD PUSH1 0x1 PUSH1 0x1 PUSH1 0xA0 SHL SUB AND PUSH1 0x20 DUP7 ADD MSTORE PUSH1 0x2 DUP2 ADD SLOAD PUSH1 0x40 DUP7 ADD MSTORE PUSH1 0x3 DUP2 ADD SLOAD PUSH1 0x60 DUP7 ADD MSTORE PUSH1 0x4 DUP2 ADD SLOAD PUSH1 0x80 DUP7 ADD MSTORE PUSH1 0x5 DUP2 ADD SLOAD PUSH1 0xA0 DUP7 ADD MSTORE PUSH1 0x6 DUP2 ADD SLOAD PUSH1 0xC0 DUP7 ADD MSTORE ADD SLOAD PUSH1 0xFF AND SWAP1 JUMP JUMPDEST ISZERO ISZERO PUSH1 0xE0 DUP4 ADD MSTORE JUMP JUMPDEST PUSH1 0x40 MLOAD SWAP2 DUP3 SWAP2 DUP3 SWAP2 SWAP1 SWAP2 PUSH1 0xE0 DUP1 PUSH2 0x100 DUP4 ADD SWAP5 PUSH1 0x1 DUP1 PUSH1 0xA0 SHL SUB DUP1 DUP3 MLOAD AND DUP6 MSTORE PUSH1 0x20 DUP3 ADD MLOAD AND PUSH1 0x20 DUP6 ADD MSTORE PUSH1 0x40 DUP2 ADD MLOAD PUSH1 0x40 DUP6 ADD MSTORE PUSH1 0x60 DUP2 ADD MLOAD PUSH1 0x60 DUP6 ADD MSTORE PUSH1 0x80 DUP2 ADD MLOAD PUSH1 0x80 DUP6 ADD MSTORE PUSH1 0xA0 DUP2 ADD MLOAD PUSH1 0xA0 DUP6 ADD MSTORE PUSH1 0xC0 DUP2 ADD MLOAD PUSH1 0xC0 DUP6 ADD MSTORE ADD MLOAD ISZERO ISZERO SWAP2 ADD MSTORE JUMP JUMPDEST CALLVALUE PUSH2 0x170 JUMPI PUSH1 0x0 CALLDATASIZE PUSH1 0x3 NOT ADD SLT PUSH2 0x170 JUMPI PUSH2 0x568 PUSH2 0xD01 JUMP JUMPDEST PUSH1 0x2 SLOAD PUSH1 0xFF DUP2 AND ISZERO PUSH2 0x5A7 JUMPI PUSH1 0xFF NOT AND PUSH1 0x2 SSTORE PUSH32 0x5DB9EE0A495BF2E6FF9C91A7834C1BA4FDD244A5E8AA4E537BD38AEAE4B073AA PUSH1 0x20 PUSH1 0x40 MLOAD CALLER DUP2 MSTORE LOG1 STOP JUMPDEST PUSH1 0x40 MLOAD PUSH3 0x461BCD PUSH1 0xE5 SHL DUP2 MSTORE PUSH1 0x20 PUSH1 0x4 DUP3 ADD MSTORE PUSH1 0x14 PUSH1 0x24 DUP3 ADD MSTORE PUSH20 0x14185D5CD8589B194E881B9BDD081C185D5CD959 PUSH1 0x62 SHL PUSH1 0x44 DUP3 ADD MSTORE PUSH1 0x64 SWAP1 REVERT JUMPDEST SWAP2 DUP2 PUSH1 0x1F DUP5 ADD SLT ISZERO PUSH2 0x170 JUMPI DUP3 CALLDATALOAD SWAP2 PUSH8 0xFFFFFFFFFFFFFFFF DUP4 GT PUSH2 0x170 JUMPI PUSH1 0x20 DUP1 DUP6 ADD SWAP5 DUP5 PUSH1 0x5 SHL ADD ADD GT PUSH2 0x170 JUMPI JUMP JUMPDEST CALLVALUE PUSH2 0x170 JUMPI PUSH1 0xA0 CALLDATASIZE PUSH1 0x3 NOT ADD SLT PUSH2 0x170 JUMPI PUSH1 0x4 PUSH8 0xFFFFFFFFFFFFFFFF DUP2 CALLDATALOAD DUP2 DUP2 GT PUSH2 0x170 JUMPI PUSH2 0x646 SWAP1 CALLDATASIZE SWAP1 DUP5 ADD PUSH2 0x5E3 JUMP JUMPDEST SWAP2 PUSH1 0x24 CALLDATALOAD DUP2 DUP2 GT PUSH2 0x170 JUMPI PUSH2 0x65E SWAP1 CALLDATASIZE SWAP1 DUP7 ADD PUSH2 0x5E3 JUMP JUMPDEST PUSH1 0x44 SWAP3 SWAP2 SWAP3 CALLDATALOAD DUP3 DUP2 GT PUSH2 0x170 JUMPI PUSH2 0x678 SWAP1 CALLDATASIZE SWAP1 DUP9 ADD PUSH2 0x5E3 JUMP JUMPDEST SWAP2 PUSH1 0x64 CALLDATALOAD DUP5 DUP2 GT PUSH2 0x170 JUMPI PUSH2 0x690 SWAP1 CALLDATASIZE SWAP1 DUP11 ADD PUSH2 0x5E3 JUMP JUMPDEST SWAP6 SWAP1 SWAP5 PUSH1 0x84 CALLDATALOAD SWAP1 DUP2 GT PUSH2 0x170 JUMPI PUSH2 0x6B5 SWAP10 PUSH2 0x6AD SWAP2 CALLDATASIZE SWAP2 ADD PUSH2 0x5E3 JUMP JUMPDEST SWAP9 SWAP1 SWAP8 PUSH2 0x1904 JUMP JUMPDEST STOP JUMPDEST CALLVALUE PUSH2 0x170 JUMPI PUSH1 0x0 CALLDATASIZE PUSH1 0x3 NOT ADD SLT PUSH2 0x170 JUMPI PUSH1 0x20 PUSH1 0xFF PUSH1 0x2 SLOAD AND PUSH1 0x40 MLOAD SWAP1 ISZERO ISZERO DUP2 MSTORE RETURN JUMPDEST CALLVALUE PUSH2 0x170 JUMPI PUSH1 0x20 CALLDATASIZE PUSH1 0x3 NOT ADD SLT PUSH2 0x170 JUMPI PUSH1 0x4 CALLDATALOAD PUSH2 0x6F7 DUP2 PUSH2 0x175 JUMP JUMPDEST PUSH2 0x6FF PUSH2 0xD01 JUMP JUMPDEST PUSH1 0x1 PUSH1 0x1 PUSH1 0xA0 SHL SUB AND DUP1 ISZERO PUSH2 0x72B JUMPI PUSH12 0xFFFFFFFFFFFFFFFFFFFFFFFF PUSH1 0xA0 SHL PUSH1 0x6 SLOAD AND OR PUSH1 0x6 SSTORE PUSH1 0x0 DUP1 RETURN JUMPDEST PUSH1 0x40 MLOAD PUSH3 0x461BCD PUSH1 0xE5 SHL DUP2 MSTORE PUSH1 0x20 PUSH1 0x4 DUP3 ADD MSTORE PUSH1 0xF PUSH1 0x24 DUP3 ADD MSTORE PUSH15 0x24B73B30B634B2103932B630BCB2B9 PUSH1 0x89 SHL PUSH1 0x44 DUP3 ADD MSTORE PUSH1 0x64 SWAP1 REVERT JUMPDEST PUSH4 0x4E487B71 PUSH1 0xE0 SHL PUSH1 0x0 MSTORE PUSH1 0x32 PUSH1 0x4 MSTORE PUSH1 0x24 PUSH1 0x0 REVERT JUMPDEST DUP1 SLOAD DUP3 LT ISZERO PUSH2 0x790 JUMPI PUSH1 0x0 MSTORE PUSH1 0x20 PUSH1 0x0 KECCAK256 ADD SWAP1 PUSH1 0x0 SWAP1 JUMP JUMPDEST PUSH2 0x762 JUMP JUMPDEST CALLVALUE PUSH2 0x170 JUMPI PUSH1 0x40 CALLDATASIZE PUSH1 0x3 NOT ADD SLT PUSH2 0x170 JUMPI PUSH1 0x4 CALLDATALOAD PUSH2 0x7B2 DUP2 PUSH2 0x175 JUMP JUMPDEST PUSH1 0x1 PUSH1 0x1 PUSH1 0xA0 SHL SUB AND PUSH1 0x0 SWAP1 DUP2 MSTORE PUSH1 0x4 PUSH1 0x20 MSTORE PUSH1 0x40 SWAP1 KECCAK256 DUP1 SLOAD PUSH1 0x24 CALLDATALOAD SWAP2 SWAP1 DUP3 LT ISZERO PUSH2 0x170 JUMPI PUSH1 0x20 SWAP2 PUSH2 0x7E3 SWAP2 PUSH2 0x778 JUMP JUMPDEST SWAP1 SLOAD PUSH1 0x40 MLOAD SWAP2 PUSH1 0x3 SHL SHR DUP2 MSTORE RETURN JUMPDEST CALLVALUE PUSH2 0x170 JUMPI PUSH1 0x0 DUP1 PUSH1 0x3 NOT CALLDATASIZE ADD SLT PUSH2 0x84C JUMPI PUSH2 0x80B PUSH2 0xD01 JUMP JUMPDEST DUP1 SLOAD PUSH1 0x1 PUSH1 0x1 PUSH1 0xA0 SHL SUB NOT DUP2 AND DUP3 SSTORE DUP2 SWAP1 PUSH1 0x1 PUSH1 0x1 PUSH1 0xA0 SHL SUB AND PUSH32 0x8BE0079C531659141344CD1FD0A4F28419497F9722A3DAAFE3B4186F6B6457E0 DUP3 DUP1 LOG3 DUP1 RETURN JUMPDEST DUP1 REVERT JUMPDEST CALLVALUE PUSH2 0x170 JUMPI PUSH1 0x20 CALLDATASIZE PUSH1 0x3 NOT ADD SLT PUSH2 0x170 JUMPI PUSH1 0x4 DUP1 CALLDATALOAD PUSH1 0x0 SWAP1 DUP2 MSTORE PUSH1 0x3 PUSH1 0x20 DUP2 DUP2 MSTORE PUSH1 0x40 SWAP3 DUP4 SWAP1 KECCAK256 DUP1 SLOAD PUSH1 0x1 DUP3 ADD SLOAD PUSH1 0x2 DUP4 ADD SLOAD SWAP5 DUP4 ADD SLOAD SWAP7 DUP4 ADD SLOAD PUSH1 0x5 DUP5 ADD SLOAD PUSH1 0x6 DUP6 ADD SLOAD PUSH1 0x7 SWAP1 SWAP6 ADD SLOAD DUP9 MLOAD PUSH1 0x1 PUSH1 0x1 PUSH1 0xA0 SHL SUB SWAP6 DUP7 AND DUP2 MSTORE SWAP5 SWAP1 SWAP4 AND SWAP6 DUP5 ADD SWAP6 SWAP1 SWAP6 MSTORE SWAP6 DUP3 ADD SWAP5 SWAP1 SWAP5 MSTORE PUSH1 0x60 DUP2 ADD SWAP6 SWAP1 SWAP6 MSTORE PUSH1 0x80 DUP6 ADD SWAP4 SWAP1 SWAP4 MSTORE PUSH1 0xA0 DUP5 ADD MSTORE PUSH1 0xC0 DUP4 ADD SWAP2 SWAP1 SWAP2 MSTORE PUSH1 0xFF AND ISZERO ISZERO PUSH1 0xE0 DUP3 ADD MSTORE PUSH2 0x100 SWAP1 RETURN JUMPDEST CALLVALUE PUSH2 0x170 JUMPI PUSH1 0x20 CALLDATASIZE PUSH1 0x3 NOT ADD SLT PUSH2 0x170 JUMPI PUSH2 0x940 PUSH1 0x4 CALLDATALOAD PUSH2 0x908 DUP2 PUSH2 0x175 JUMP JUMPDEST PUSH1 0x5 SLOAD PUSH1 0x40 MLOAD PUSH4 0x6EB1769F PUSH1 0xE1 SHL DUP2 MSTORE PUSH1 0x1 PUSH1 0x1 PUSH1 0xA0 SHL SUB SWAP3 DUP4 AND PUSH1 0x4 DUP3 ADD MSTORE ADDRESS PUSH1 0x24 DUP3 ADD MSTORE SWAP3 SWAP2 AND SWAP1 PUSH1 0x20 SWAP1 DUP4 SWAP1 DUP2 SWAP1 PUSH1 0x44 DUP3 ADD SWAP1 JUMP JUMPDEST SUB DUP2 DUP5 GAS STATICCALL SWAP2 DUP3 ISZERO PUSH2 0x9AC JUMPI PUSH1 0x0 SWAP3 PUSH2 0x97C JUMPI JUMPDEST POP PUSH1 0x40 DUP1 MLOAD DUP4 DUP2 MSTORE PUSH1 0x1 PUSH1 0x1 PUSH1 0xA0 SHL SUB SWAP3 SWAP1 SWAP3 AND PUSH1 0x20 DUP4 ADD MSTORE SWAP2 ISZERO ISZERO SWAP2 DUP2 ADD SWAP2 SWAP1 SWAP2 MSTORE PUSH1 0x60 SWAP1 RETURN JUMPDEST PUSH2 0x99E SWAP2 SWAP3 POP PUSH1 0x20 RETURNDATASIZE DUP2 GT PUSH2 0x9A5 JUMPI JUMPDEST PUSH2 0x996 DUP2 DUP4 PUSH2 0xEFB JUMP JUMPDEST DUP2 ADD SWAP1 PUSH2 0x1B93 JUMP JUMPDEST SWAP1 CODESIZE PUSH2 0x954 JUMP JUMPDEST POP RETURNDATASIZE PUSH2 0x98C JUMP JUMPDEST PUSH2 0x13AB JUMP JUMPDEST CALLVALUE PUSH2 0x170 JUMPI PUSH1 0x0 CALLDATASIZE PUSH1 0x3 NOT ADD SLT PUSH2 0x170 JUMPI PUSH1 0x6 SLOAD PUSH1 0x40 MLOAD PUSH1 0x1 PUSH1 0x1 PUSH1 0xA0 SHL SUB SWAP1 SWAP2 AND DUP2 MSTORE PUSH1 0x20 SWAP1 RETURN JUMPDEST CALLVALUE PUSH2 0x170 JUMPI PUSH1 0x0 CALLDATASIZE PUSH1 0x3 NOT ADD SLT PUSH2 0x170 JUMPI PUSH2 0x9F3 PUSH2 0xD01 JUMP JUMPDEST PUSH2 0x9FB PUSH2 0x11D3 JUMP JUMPDEST PUSH1 0x1 PUSH1 0xFF NOT PUSH1 0x2 SLOAD AND OR PUSH1 0x2 SSTORE PUSH32 0x62E78CEA01BEE320CD4E420270B5EA74000D11B0C9F74754EBDBFC544B05A258 PUSH1 0x20 PUSH1 0x40 MLOAD CALLER DUP2 MSTORE LOG1 STOP JUMPDEST CALLVALUE PUSH2 0x170 JUMPI PUSH1 0x0 CALLDATASIZE PUSH1 0x3 NOT ADD SLT PUSH2 0x170 JUMPI PUSH1 0x0 SLOAD PUSH1 0x40 MLOAD PUSH1 0x1 PUSH1 0x1 PUSH1 0xA0 SHL SUB SWAP1 SWAP2 AND DUP2 MSTORE PUSH1 0x20 SWAP1 RETURN JUMPDEST CALLVALUE PUSH2 0x170 JUMPI PUSH1 0xA0 CALLDATASIZE PUSH1 0x3 NOT ADD SLT PUSH2 0x170 JUMPI PUSH1 0x24 CALLDATALOAD PUSH2 0xA7A DUP2 PUSH2 0x175 JUMP JUMPDEST PUSH1 0x84 CALLDATALOAD SWAP1 PUSH8 0xFFFFFFFFFFFFFFFF SWAP1 DUP2 DUP4 GT PUSH2 0x170 JUMPI CALLDATASIZE PUSH1 0x23 DUP5 ADD SLT ISZERO PUSH2 0x170 JUMPI DUP3 PUSH1 0x4 ADD CALLDATALOAD SWAP2 DUP3 GT PUSH2 0x170 JUMPI CALLDATASIZE PUSH1 0x24 DUP4 DUP6 ADD ADD GT PUSH2 0x170 JUMPI PUSH1 0x24 PUSH2 0x6B5 SWAP4 ADD SWAP1 PUSH1 0x64 CALLDATALOAD SWAP1 PUSH1 0x44 CALLDATALOAD SWAP1 PUSH1 0x4 CALLDATALOAD PUSH2 0x109C JUMP JUMPDEST CALLVALUE PUSH2 0x170 JUMPI PUSH1 0x20 CALLDATASIZE PUSH1 0x3 NOT ADD SLT PUSH2 0x170 JUMPI PUSH1 0x4 CALLDATALOAD PUSH1 0x0 DUP2 DUP2 MSTORE PUSH1 0x3 PUSH1 0x20 MSTORE PUSH1 0x40 DUP2 KECCAK256 PUSH1 0x1 DUP2 ADD SLOAD SWAP2 SWAP3 SWAP2 PUSH1 0x1 PUSH1 0x1 PUSH1 0xA0 SHL SUB AND CALLER SUB PUSH2 0xB50 JUMPI PUSH1 0x7 PUSH2 0xB27 SWAP2 ADD PUSH2 0xB1D PUSH2 0xB18 DUP3 SLOAD PUSH1 0xFF AND SWAP1 JUMP JUMPDEST PUSH2 0x1B47 JUMP JUMPDEST DUP1 SLOAD PUSH1 0xFF NOT AND SWAP1 SSTORE JUMP JUMPDEST CALLER SWAP1 PUSH32 0x53C7D74D36EDC91DBF6B53BB0EA80BBDB2CA5894D54F6F62BEACC537701822FD DUP4 DUP1 LOG3 DUP1 RETURN JUMPDEST PUSH1 0x40 MLOAD PUSH3 0x461BCD PUSH1 0xE5 SHL DUP2 MSTORE PUSH1 0x20 PUSH1 0x4 DUP3 ADD MSTORE PUSH1 0x11 PUSH1 0x24 DUP3 ADD MSTORE PUSH17 0x2737BA1039B2B9B9B4B7B71037BBB732B9 PUSH1 0x79 SHL PUSH1 0x44 DUP3 ADD MSTORE PUSH1 0x64 SWAP1 REVERT JUMPDEST CALLVALUE PUSH2 0x170 JUMPI PUSH1 0x60 CALLDATASIZE PUSH1 0x3 NOT ADD SLT PUSH2 0x170 JUMPI PUSH1 0x4 CALLDATALOAD PUSH2 0xBA6 DUP2 PUSH2 0x175 JUMP JUMPDEST PUSH1 0x24 CALLDATALOAD PUSH2 0xBB2 DUP2 PUSH2 0x175 JUMP JUMPDEST PUSH2 0xBBA PUSH2 0xD01 JUMP JUMPDEST PUSH1 0x1 PUSH1 0x1 PUSH1 0xA0 SHL SUB SWAP1 DUP2 AND SWAP1 DUP2 ISZERO PUSH2 0xC01 JUMPI PUSH2 0x6B5 SWAP3 PUSH1 0x40 MLOAD SWAP3 PUSH4 0xA9059CBB PUSH1 0xE0 SHL PUSH1 0x20 DUP6 ADD MSTORE PUSH1 0x24 DUP5 ADD MSTORE PUSH1 0x44 CALLDATALOAD PUSH1 0x44 DUP5 ADD MSTORE PUSH1 0x44 DUP4 MSTORE PUSH2 0xBFB DUP4 PUSH2 0xEC3 JUMP JUMPDEST AND PUSH2 0x1758 JUMP JUMPDEST PUSH1 0x40 MLOAD PUSH3 0x461BCD PUSH1 0xE5 SHL DUP2 MSTORE PUSH1 0x20 PUSH1 0x4 DUP3 ADD MSTORE PUSH1 0x11 PUSH1 0x24 DUP3 ADD MSTORE PUSH17 0x125B9D985B1A59081C9958DA5C1A595B9D PUSH1 0x7A SHL PUSH1 0x44 DUP3 ADD MSTORE PUSH1 0x64 SWAP1 REVERT JUMPDEST CALLVALUE PUSH2 0x170 JUMPI PUSH1 0x20 CALLDATASIZE PUSH1 0x3 NOT ADD SLT PUSH2 0x170 JUMPI PUSH1 0x4 CALLDATALOAD PUSH2 0xC57 DUP2 PUSH2 0x175 JUMP JUMPDEST PUSH2 0xC5F PUSH2 0xD01 JUMP JUMPDEST PUSH1 0x1 PUSH1 0x1 PUSH1 0xA0 SHL SUB SWAP1 DUP2 AND DUP1 ISZERO PUSH2 0xCAD JUMPI PUSH1 0x0 DUP1 SLOAD PUSH1 0x1 PUSH1 0x1 PUSH1 0xA0 SHL SUB NOT DUP2 AND DUP4 OR DUP3 SSTORE SWAP1 SWAP3 AND PUSH32 0x8BE0079C531659141344CD1FD0A4F28419497F9722A3DAAFE3B4186F6B6457E0 DUP4 DUP1 LOG3 DUP1 RETURN JUMPDEST PUSH1 0x40 MLOAD PUSH3 0x461BCD PUSH1 0xE5 SHL DUP2 MSTORE PUSH1 0x20 PUSH1 0x4 DUP3 ADD MSTORE PUSH1 0x26 PUSH1 0x24 DUP3 ADD MSTORE PUSH32 0x4F776E61626C653A206E6577206F776E657220697320746865207A65726F2061 PUSH1 0x44 DUP3 ADD MSTORE PUSH6 0x646472657373 PUSH1 0xD0 SHL PUSH1 0x64 DUP3 ADD MSTORE PUSH1 0x84 SWAP1 REVERT JUMPDEST PUSH1 0x0 SLOAD PUSH1 0x1 PUSH1 0x1 PUSH1 0xA0 SHL SUB AND CALLER SUB PUSH2 0xD15 JUMPI JUMP JUMPDEST PUSH1 0x64 PUSH1 0x40 MLOAD PUSH3 0x461BCD PUSH1 0xE5 SHL DUP2 MSTORE PUSH1 0x20 PUSH1 0x4 DUP3 ADD MSTORE PUSH1 0x20 PUSH1 0x24 DUP3 ADD MSTORE PUSH32 0x4F776E61626C653A2063616C6C6572206973206E6F7420746865206F776E6572 PUSH1 0x44 DUP3 ADD MSTORE REVERT JUMPDEST ISZERO PUSH2 0xD60 JUMPI JUMP JUMPDEST PUSH1 0x40 MLOAD PUSH3 0x461BCD PUSH1 0xE5 SHL DUP2 MSTORE PUSH1 0x20 PUSH1 0x4 DUP3 ADD MSTORE PUSH1 0xE PUSH1 0x24 DUP3 ADD MSTORE PUSH14 0x24B73B30B634B21039B4B3B732B9 PUSH1 0x91 SHL PUSH1 0x44 DUP3 ADD MSTORE PUSH1 0x64 SWAP1 REVERT JUMPDEST ISZERO PUSH2 0xD9D JUMPI JUMP JUMPDEST PUSH1 0x40 MLOAD PUSH3 0x461BCD PUSH1 0xE5 SHL DUP2 MSTORE PUSH1 0x20 PUSH1 0x4 DUP3 ADD MSTORE PUSH1 0x14 PUSH1 0x24 DUP3 ADD MSTORE PUSH20 0x125B9D985B1A59081CDA5B99DB19481B1A5B5A5D PUSH1 0x62 SHL PUSH1 0x44 DUP3 ADD MSTORE PUSH1 0x64 SWAP1 REVERT JUMPDEST ISZERO PUSH2 0xDE0 JUMPI JUMP JUMPDEST PUSH1 0x64 PUSH1 0x40 MLOAD PUSH3 0x461BCD PUSH1 0xE5 SHL DUP2 MSTORE PUSH1 0x20 PUSH1 0x4 DUP3 ADD MSTORE PUSH1 0x20 PUSH1 0x24 DUP3 ADD MSTORE PUSH32 0x4461696C79206C696D6974206D757374203E3D2073696E676C65206C696D6974 PUSH1 0x44 DUP3 ADD MSTORE REVERT JUMPDEST ISZERO PUSH2 0xE2B JUMPI JUMP JUMPDEST PUSH1 0x40 MLOAD PUSH3 0x461BCD PUSH1 0xE5 SHL DUP2 MSTORE PUSH1 0x20 PUSH1 0x4 DUP3 ADD MSTORE PUSH1 0xE PUSH1 0x24 DUP3 ADD MSTORE PUSH14 0x496E76616C696420657870697279 PUSH1 0x90 SHL PUSH1 0x44 DUP3 ADD MSTORE PUSH1 0x64 SWAP1 REVERT JUMPDEST PUSH4 0x4E487B71 PUSH1 0xE0 SHL PUSH1 0x0 MSTORE PUSH1 0x11 PUSH1 0x4 MSTORE PUSH1 0x24 PUSH1 0x0 REVERT JUMPDEST PUSH1 0x0 NOT DUP2 ADD SWAP2 SWAP1 DUP3 GT PUSH2 0xE86 JUMPI JUMP JUMPDEST PUSH2 0xE61 JUMP JUMPDEST PUSH4 0x4E487B71 PUSH1 0xE0 SHL PUSH1 0x0 MSTORE PUSH1 0x41 PUSH1 0x4 MSTORE PUSH1 0x24 PUSH1 0x0 REVERT JUMPDEST PUSH2 0x100 DUP2 ADD SWAP1 DUP2 LT PUSH8 0xFFFFFFFFFFFFFFFF DUP3 GT OR PUSH2 0xEBE JUMPI PUSH1 0x40 MSTORE JUMP JUMPDEST PUSH2 0xE8B JUMP JUMPDEST PUSH1 0x80 DUP2 ADD SWAP1 DUP2 LT PUSH8 0xFFFFFFFFFFFFFFFF DUP3 GT OR PUSH2 0xEBE JUMPI PUSH1 0x40 MSTORE JUMP JUMPDEST PUSH1 0x40 DUP2 ADD SWAP1 DUP2 LT PUSH8 0xFFFFFFFFFFFFFFFF DUP3 GT OR PUSH2 0xEBE JUMPI PUSH1 0x40 MSTORE JUMP JUMPDEST SWAP1 PUSH1 0x1F DUP1 NOT SWAP2 ADD AND DUP2 ADD SWAP1 DUP2 LT PUSH8 0xFFFFFFFFFFFFFFFF DUP3 GT OR PUSH2 0xEBE JUMPI PUSH1 0x40 MSTORE JUMP JUMPDEST ISZERO PUSH2 0xF24 JUMPI JUMP JUMPDEST PUSH1 0x40 MLOAD PUSH3 0x461BCD PUSH1 0xE5 SHL DUP2 MSTORE PUSH1 0x20 PUSH1 0x4 DUP3 ADD MSTORE PUSH1 0x14 PUSH1 0x24 DUP3 ADD MSTORE PUSH20 0x29B2B9B9B4B7B71024A21031B7B63634B9B4B7B7 PUSH1 0x61 SHL PUSH1 0x44 DUP3 ADD MSTORE PUSH1 0x64 SWAP1 REVERT JUMPDEST DUP2 ISZERO PUSH2 0xF6A JUMPI DIV SWAP1 JUMP JUMPDEST PUSH4 0x4E487B71 PUSH1 0xE0 SHL PUSH1 0x0 MSTORE PUSH1 0x12 PUSH1 0x4 MSTORE PUSH1 0x24 PUSH1 0x0 REVERT JUMPDEST PUSH1 0x40 MLOAD SWAP1 PUSH2 0xF8D DUP3 PUSH2 0xEA1 JUMP JUMPDEST JUMP JUMPDEST DUP2 MLOAD DUP2 SLOAD PUSH1 0x1 PUSH1 0x1 PUSH1 0xA0 SHL SUB SWAP2 DUP3 AND PUSH1 0x1 PUSH1 0x1 PUSH1 0xA0 SHL SUB NOT SWAP2 DUP3 AND OR DUP4 SSTORE PUSH1 0x20 DUP5 ADD MLOAD PUSH1 0x1 DUP5 ADD DUP1 SLOAD SWAP2 SWAP1 SWAP4 AND SWAP2 AND OR SWAP1 SSTORE PUSH1 0x40 DUP3 ADD MLOAD PUSH1 0x2 DUP3 ADD SSTORE PUSH1 0x60 DUP3 ADD MLOAD PUSH1 0x3 DUP3 ADD SSTORE PUSH1 0x80 DUP3 ADD MLOAD PUSH1 0x4 DUP3 ADD SSTORE PUSH1 0xA0 DUP3 ADD MLOAD PUSH1 0x5 DUP3 ADD SSTORE PUSH1 0xC0 DUP3 ADD MLOAD PUSH1 0x6 DUP3 ADD SSTORE PUSH1 0xE0 SWAP1 SWAP2 ADD MLOAD PUSH2 0xF8D SWAP2 SWAP1 PUSH1 0x7 SWAP1 ISZERO ISZERO SWAP2 ADD SWAP1 PUSH1 0xFF DUP1 NOT DUP4 SLOAD AND SWAP2 ISZERO ISZERO AND OR SWAP1 SSTORE JUMP JUMPDEST DUP1 SLOAD PUSH9 0x10000000000000000 DUP2 LT ISZERO PUSH2 0xEBE JUMPI PUSH2 0x1038 SWAP2 PUSH1 0x1 DUP3 ADD DUP2 SSTORE PUSH2 0x778 JUMP JUMPDEST DUP2 SWAP3 SWAP2 SLOAD SWAP1 PUSH1 0x3 SHL SWAP2 DUP3 SHL SWAP2 PUSH1 0x0 NOT SWAP1 SHL NOT AND OR SWAP1 SSTORE JUMP JUMPDEST ISZERO PUSH2 0x1057 JUMPI JUMP JUMPDEST PUSH1 0x40 MLOAD PUSH3 0x461BCD PUSH1 0xE5 SHL DUP2 MSTORE PUSH1 0x20 PUSH1 0x4 DUP3 ADD MSTORE PUSH1 0x18 PUSH1 0x24 DUP3 ADD MSTORE PUSH32 0x4F6E6C792072656C617965722063616E20657865637574650000000000000000 PUSH1 0x44 DUP3 ADD MSTORE PUSH1 0x64 SWAP1 REVERT JUMPDEST SWAP1 PUSH2 0x110E SWAP6 SWAP5 SWAP4 SWAP3 SWAP2 PUSH2 0x10F9 PUSH1 0x5 PUSH1 0x1 DUP1 PUSH1 0xA0 SHL SUB PUSH2 0x10C0 DUP2 PUSH1 0x6 SLOAD AND CALLER EQ PUSH2 0x1050 JUMP JUMPDEST DUP4 PUSH1 0x0 MSTORE PUSH1 0x3 PUSH1 0x20 MSTORE PUSH2 0x10DF PUSH1 0x40 PUSH1 0x0 KECCAK256 SWAP2 PUSH1 0x1 DUP4 ADD SLOAD AND ISZERO ISZERO PUSH2 0x1114 JUMP JUMPDEST PUSH2 0x10EF PUSH1 0xFF PUSH1 0x7 DUP4 ADD SLOAD AND PUSH2 0x1154 JUMP JUMPDEST ADD SLOAD TIMESTAMP GT ISZERO PUSH2 0x1195 JUMP JUMPDEST PUSH2 0x1101 PUSH2 0x1217 JUMP JUMPDEST PUSH2 0x1109 PUSH2 0x11D3 JUMP JUMPDEST PUSH2 0x13FF JUMP JUMPDEST PUSH1 0x1 DUP1 SSTORE JUMP JUMPDEST ISZERO PUSH2 0x111B JUMPI JUMP JUMPDEST PUSH1 0x40 MLOAD PUSH3 0x461BCD PUSH1 0xE5 SHL DUP2 MSTORE PUSH1 0x20 PUSH1 0x4 DUP3 ADD MSTORE PUSH1 0x11 PUSH1 0x24 DUP3 ADD MSTORE PUSH17 0x14D95CDCDA5BDB881B9BDD08199BDD5B99 PUSH1 0x7A SHL PUSH1 0x44 DUP3 ADD MSTORE PUSH1 0x64 SWAP1 REVERT JUMPDEST ISZERO PUSH2 0x115B JUMPI JUMP JUMPDEST PUSH1 0x40 MLOAD PUSH3 0x461BCD PUSH1 0xE5 SHL DUP2 MSTORE PUSH1 0x20 PUSH1 0x4 DUP3 ADD MSTORE PUSH1 0x12 PUSH1 0x24 DUP3 ADD MSTORE PUSH18 0x53657373696F6E206E6F7420616374697665 PUSH1 0x70 SHL PUSH1 0x44 DUP3 ADD MSTORE PUSH1 0x64 SWAP1 REVERT JUMPDEST ISZERO PUSH2 0x119C JUMPI JUMP JUMPDEST PUSH1 0x40 MLOAD PUSH3 0x461BCD PUSH1 0xE5 SHL DUP2 MSTORE PUSH1 0x20 PUSH1 0x4 DUP3 ADD MSTORE PUSH1 0xF PUSH1 0x24 DUP3 ADD MSTORE PUSH15 0x14D95CDCDA5BDB88195E1C1A5C9959 PUSH1 0x8A SHL PUSH1 0x44 DUP3 ADD MSTORE PUSH1 0x64 SWAP1 REVERT JUMPDEST PUSH1 0xFF PUSH1 0x2 SLOAD AND PUSH2 0x11DF JUMPI JUMP JUMPDEST PUSH1 0x40 MLOAD PUSH3 0x461BCD PUSH1 0xE5 SHL DUP2 MSTORE PUSH1 0x20 PUSH1 0x4 DUP3 ADD MSTORE PUSH1 0x10 PUSH1 0x24 DUP3 ADD MSTORE PUSH16 0x14185D5CD8589B194E881C185D5CD959 PUSH1 0x82 SHL PUSH1 0x44 DUP3 ADD MSTORE PUSH1 0x64 SWAP1 REVERT JUMPDEST PUSH1 0x2 PUSH1 0x1 SLOAD EQ PUSH2 0x1228 JUMPI PUSH1 0x2 PUSH1 0x1 SSTORE JUMP JUMPDEST PUSH1 0x40 MLOAD PUSH3 0x461BCD PUSH1 0xE5 SHL DUP2 MSTORE PUSH1 0x20 PUSH1 0x4 DUP3 ADD MSTORE PUSH1 0x1F PUSH1 0x24 DUP3 ADD MSTORE PUSH32 0x5265656E7472616E637947756172643A207265656E7472616E742063616C6C00 PUSH1 0x44 DUP3 ADD MSTORE PUSH1 0x64 SWAP1 REVERT JUMPDEST ISZERO PUSH2 0x1274 JUMPI JUMP JUMPDEST PUSH1 0x40 MLOAD PUSH3 0x461BCD PUSH1 0xE5 SHL DUP2 MSTORE PUSH1 0x20 PUSH1 0x4 DUP3 ADD MSTORE PUSH1 0x14 PUSH1 0x24 DUP3 ADD MSTORE PUSH20 0x115E18D959591CC81CDA5B99DB19481B1A5B5A5D PUSH1 0x62 SHL PUSH1 0x44 DUP3 ADD MSTORE PUSH1 0x64 SWAP1 REVERT JUMPDEST SWAP2 SWAP1 DUP3 ADD DUP1 SWAP3 GT PUSH2 0xE86 JUMPI JUMP JUMPDEST ISZERO PUSH2 0x12C4 JUMPI JUMP JUMPDEST PUSH1 0x40 MLOAD PUSH3 0x461BCD PUSH1 0xE5 SHL DUP2 MSTORE PUSH1 0x20 PUSH1 0x4 DUP3 ADD MSTORE PUSH1 0x13 PUSH1 0x24 DUP3 ADD MSTORE PUSH19 0x115E18D959591CC819185A5B1E481B1A5B5A5D PUSH1 0x6A SHL PUSH1 0x44 DUP3 ADD MSTORE PUSH1 0x64 SWAP1 REVERT JUMPDEST PUSH8 0xFFFFFFFFFFFFFFFF DUP2 GT PUSH2 0xEBE JUMPI PUSH1 0x1F ADD PUSH1 0x1F NOT AND PUSH1 0x20 ADD SWAP1 JUMP JUMPDEST SWAP3 SWAP2 SWAP3 PUSH2 0x1327 DUP3 PUSH2 0x12FF JUMP JUMPDEST SWAP2 PUSH2 0x1335 PUSH1 0x40 MLOAD SWAP4 DUP5 PUSH2 0xEFB JUMP JUMPDEST DUP3 SWAP5 DUP2 DUP5 MSTORE DUP2 DUP4 ADD GT PUSH2 0x170 JUMPI DUP3 DUP2 PUSH1 0x20 SWAP4 DUP5 PUSH1 0x0 SWAP7 ADD CALLDATACOPY ADD ADD MSTORE JUMP JUMPDEST ISZERO PUSH2 0x1359 JUMPI JUMP JUMPDEST PUSH1 0x40 MLOAD PUSH3 0x461BCD PUSH1 0xE5 SHL DUP2 MSTORE PUSH1 0x20 PUSH1 0x4 DUP3 ADD MSTORE PUSH1 0x11 PUSH1 0x24 DUP3 ADD MSTORE PUSH17 0x496E76616C6964207369676E6174757265 PUSH1 0x78 SHL PUSH1 0x44 DUP3 ADD MSTORE PUSH1 0x64 SWAP1 REVERT JUMPDEST SWAP1 DUP2 PUSH1 0x20 SWAP2 SUB SLT PUSH2 0x170 JUMPI MLOAD PUSH1 0xFF DUP2 AND DUP2 SUB PUSH2 0x170 JUMPI SWAP1 JUMP JUMPDEST PUSH1 0x40 MLOAD RETURNDATASIZE PUSH1 0x0 DUP3 RETURNDATACOPY RETURNDATASIZE SWAP1 REVERT JUMPDEST PUSH1 0xFF AND PUSH1 0x6 SUB SWAP1 PUSH1 0xFF DUP3 GT PUSH2 0xE86 JUMPI JUMP JUMPDEST PUSH1 0xFF PUSH1 0x5 NOT SWAP2 AND ADD SWAP1 PUSH1 0xFF DUP3 GT PUSH2 0xE86 JUMPI JUMP JUMPDEST PUSH1 0xFF AND PUSH1 0x4D DUP2 GT PUSH2 0xE86 JUMPI PUSH1 0xA EXP SWAP1 JUMP JUMPDEST DUP2 DUP2 MUL SWAP3 SWAP2 DUP2 ISZERO SWAP2 DUP5 DIV EQ OR ISZERO PUSH2 0xE86 JUMPI JUMP JUMPDEST SWAP3 SWAP5 SWAP2 SWAP4 SWAP1 PUSH2 0x1418 DUP5 PUSH1 0x0 MSTORE PUSH1 0x3 PUSH1 0x20 MSTORE PUSH1 0x40 PUSH1 0x0 KECCAK256 SWAP1 JUMP JUMPDEST SWAP3 DUP5 PUSH3 0x15180 TIMESTAMP DIV PUSH1 0x6 DUP7 ADD DUP1 SLOAD DUP3 GT PUSH2 0x1662 JUMPI JUMPDEST POP POP POP PUSH1 0x2 DUP5 ADD SLOAD DUP7 GT ISZERO PUSH2 0x1441 SWAP1 PUSH2 0x126D JUMP JUMPDEST PUSH1 0x4 DUP5 ADD SWAP1 DUP2 SLOAD SWAP4 PUSH2 0x1453 DUP9 DUP7 PUSH2 0x12B0 JUMP JUMPDEST PUSH1 0x3 DUP8 ADD SLOAD LT ISZERO PUSH2 0x1463 SWAP1 PUSH2 0x12BD JUMP JUMPDEST PUSH1 0x40 DUP1 MLOAD PUSH1 0x20 DUP2 ADD DUP10 DUP2 MSTORE PUSH12 0xFFFFFFFFFFFFFFFFFFFFFFFF NOT PUSH1 0x60 DUP9 SWAP1 SHL AND SWAP3 DUP3 ADD SWAP3 SWAP1 SWAP3 MSTORE PUSH1 0x54 DUP2 ADD DUP11 SWAP1 MSTORE PUSH1 0x74 DUP2 ADD DUP12 SWAP1 MSTORE CHAINID PUSH1 0x94 DUP1 DUP4 ADD SWAP2 SWAP1 SWAP2 MSTORE DUP2 MSTORE PUSH1 0x1F NOT SWAP2 SWAP1 PUSH2 0x14B3 PUSH1 0xB4 DUP3 PUSH2 0xEFB JUMP JUMPDEST MLOAD SWAP1 KECCAK256 SWAP1 PUSH1 0x40 MLOAD SWAP1 DUP2 PUSH1 0x20 DUP2 ADD SWAP4 PUSH2 0x14F5 SWAP1 DUP6 PUSH1 0x3C SWAP2 PUSH32 0x19457468657265756D205369676E6564204D6573736167653A0A333200000000 DUP3 MSTORE PUSH1 0x1C DUP3 ADD MSTORE ADD SWAP1 JUMP JUMPDEST SUB SWAP1 DUP2 ADD DUP3 MSTORE PUSH2 0x1505 SWAP1 DUP3 PUSH2 0xEFB JUMP JUMPDEST MLOAD SWAP1 KECCAK256 SWAP2 CALLDATASIZE SWAP1 PUSH2 0x1514 SWAP3 PUSH2 0x131B JUMP JUMPDEST PUSH2 0x151D SWAP2 PUSH2 0x1BB4 JUMP JUMPDEST DUP5 SLOAD PUSH1 0x1 PUSH1 0x1 PUSH1 0xA0 SHL SUB SWAP5 SWAP2 DUP9 SWAP2 PUSH2 0x153A SWAP2 DUP8 AND SWAP1 DUP8 AND EQ PUSH2 0x1352 JUMP JUMPDEST PUSH2 0x1543 SWAP2 PUSH2 0x12B0 JUMP JUMPDEST SWAP1 SSTORE PUSH1 0x5 SLOAD PUSH1 0x1 PUSH1 0x1 PUSH1 0xA0 SHL SUB AND PUSH1 0x1 PUSH1 0x1 PUSH1 0xA0 SHL SUB AND SWAP3 PUSH1 0x40 MLOAD PUSH4 0x313CE567 PUSH1 0xE0 SHL DUP2 MSTORE DUP1 DUP1 DUP6 DUP8 AND GAS SWAP3 PUSH1 0x4 SWAP2 PUSH1 0x20 SWAP5 STATICCALL SWAP1 DUP2 ISZERO PUSH2 0x9AC JUMPI PUSH32 0x756AD05355EAEE75B04E423AE52915105C02D4A3FC70EADDF2D437BBE24A0FD2 SWAP6 PUSH2 0x15D3 SWAP4 DUP6 SWAP3 PUSH1 0x0 SWAP5 PUSH2 0x1632 JUMPI JUMPDEST POP DUP10 SWAP4 PUSH1 0xFF DUP2 AND PUSH1 0x6 DUP2 SUB PUSH2 0x15E1 JUMPI JUMPDEST POP POP PUSH1 0x1 ADD SLOAD PUSH1 0x1 PUSH1 0x1 PUSH1 0xA0 SHL SUB AND JUMPDEST SWAP1 PUSH2 0x16A0 JUMP JUMPDEST PUSH1 0x40 MLOAD SWAP5 DUP6 MSTORE AND SWAP3 PUSH1 0x20 SWAP1 LOG4 JUMP JUMPDEST PUSH2 0x15CD SWAP3 SWAP6 POP SWAP1 PUSH1 0x6 PUSH1 0x1 SWAP3 GT PUSH1 0x0 EQ PUSH2 0x1617 JUMPI PUSH2 0x1609 PUSH2 0x1604 PUSH2 0x160F SWAP3 PUSH2 0x13C8 JUMP JUMPDEST PUSH2 0x13DB JUMP JUMPDEST DUP13 PUSH2 0x13EC JUMP JUMPDEST SWAP5 JUMPDEST SWAP2 PUSH2 0x15BD JUMP JUMPDEST PUSH2 0x1626 PUSH2 0x1604 PUSH2 0x162C SWAP3 PUSH2 0x13B7 JUMP JUMPDEST DUP13 PUSH2 0xF60 JUMP JUMPDEST SWAP5 PUSH2 0x1611 JUMP JUMPDEST PUSH2 0x1654 SWAP2 SWAP5 POP PUSH1 0x20 RETURNDATASIZE DUP2 GT PUSH2 0x165B JUMPI JUMPDEST PUSH2 0x164C DUP2 DUP4 PUSH2 0xEFB JUMP JUMPDEST DUP2 ADD SWAP1 PUSH2 0x1392 JUMP JUMPDEST SWAP3 CODESIZE PUSH2 0x15AD JUMP JUMPDEST POP RETURNDATASIZE PUSH2 0x1642 JUMP JUMPDEST PUSH1 0x0 PUSH1 0x4 DUP9 ADD SSTORE DUP2 SWAP1 SSTORE PUSH1 0x40 MLOAD SWAP1 DUP2 MSTORE PUSH32 0xC4A881808FE11209C7FD9FA8F3BB044229BD1DE8BB80DE1F0475BE1C2D0D14BB SWAP1 PUSH1 0x20 SWAP1 LOG2 DUP5 CODESIZE DUP1 PUSH2 0x142D JUMP JUMPDEST PUSH1 0x40 MLOAD PUSH4 0x23B872DD PUSH1 0xE0 SHL PUSH1 0x20 DUP3 ADD MSTORE PUSH1 0x1 PUSH1 0x1 PUSH1 0xA0 SHL SUB SWAP3 DUP4 AND PUSH1 0x24 DUP3 ADD MSTORE SWAP3 SWAP1 SWAP2 AND PUSH1 0x44 DUP4 ADD MSTORE PUSH1 0x64 DUP1 DUP4 ADD SWAP4 SWAP1 SWAP4 MSTORE SWAP2 DUP2 MSTORE PUSH1 0xA0 DUP2 ADD SWAP2 DUP2 DUP4 LT PUSH8 0xFFFFFFFFFFFFFFFF DUP5 GT OR PUSH2 0xEBE JUMPI PUSH2 0xF8D SWAP3 PUSH1 0x40 MSTORE PUSH2 0x1758 JUMP JUMPDEST ISZERO PUSH2 0x1700 JUMPI JUMP JUMPDEST PUSH1 0x40 MLOAD PUSH3 0x461BCD PUSH1 0xE5 SHL DUP2 MSTORE PUSH1 0x20 PUSH1 0x4 DUP3 ADD MSTORE PUSH1 0x2A PUSH1 0x24 DUP3 ADD MSTORE PUSH32 0x5361666545524332303A204552433230206F7065726174696F6E20646964206E PUSH1 0x44 DUP3 ADD MSTORE PUSH10 0x1BDD081CDD58D8D95959 PUSH1 0xB2 SHL PUSH1 0x64 DUP3 ADD MSTORE PUSH1 0x84 SWAP1 REVERT JUMPDEST PUSH1 0x1 DUP1 PUSH1 0xA0 SHL SUB AND SWAP1 PUSH2 0x17D5 PUSH1 0x40 MLOAD PUSH2 0x1770 DUP2 PUSH2 0xEDF JUMP JUMPDEST PUSH1 0x20 SWAP4 DUP5 DUP3 MSTORE PUSH32 0x5361666545524332303A206C6F772D6C6576656C2063616C6C206661696C6564 DUP6 DUP4 ADD MSTORE PUSH1 0x0 DUP1 DUP6 DUP8 DUP3 SWAP8 MLOAD SWAP2 ADD DUP3 DUP6 GAS CALL RETURNDATASIZE ISZERO PUSH2 0x181B JUMPI RETURNDATASIZE SWAP2 PUSH2 0x17BA DUP4 PUSH2 0x12FF JUMP JUMPDEST SWAP3 PUSH2 0x17C8 PUSH1 0x40 MLOAD SWAP5 DUP6 PUSH2 0xEFB JUMP JUMPDEST DUP4 MSTORE RETURNDATASIZE DUP7 DUP9 DUP6 ADD RETURNDATACOPY PUSH2 0x186F JUMP JUMPDEST SWAP1 DUP2 MLOAD SWAP3 DUP4 ISZERO SWAP3 DUP4 ISZERO PUSH2 0x17F0 JUMPI JUMPDEST POP POP POP PUSH2 0xF8D SWAP2 POP PUSH2 0x16F9 JUMP JUMPDEST DUP2 SWAP4 POP DUP1 SWAP3 SWAP5 DUP2 ADD SUB SLT PUSH2 0x1817 JUMPI ADD MLOAD SWAP1 DUP2 ISZERO ISZERO DUP3 SUB PUSH2 0x84C JUMPI POP PUSH2 0xF8D SWAP1 CODESIZE DUP1 DUP1 PUSH2 0x17E3 JUMP JUMPDEST DUP3 DUP1 REVERT JUMPDEST PUSH1 0x60 SWAP2 PUSH2 0x186F JUMP JUMPDEST ISZERO PUSH2 0x182A JUMPI JUMP JUMPDEST PUSH1 0x40 MLOAD PUSH3 0x461BCD PUSH1 0xE5 SHL DUP2 MSTORE PUSH1 0x20 PUSH1 0x4 DUP3 ADD MSTORE PUSH1 0x1D PUSH1 0x24 DUP3 ADD MSTORE PUSH32 0x416464726573733A2063616C6C20746F206E6F6E2D636F6E7472616374000000 PUSH1 0x44 DUP3 ADD MSTORE PUSH1 0x64 SWAP1 REVERT JUMPDEST SWAP2 SWAP3 SWAP1 ISZERO PUSH2 0x1892 JUMPI POP DUP2 MLOAD ISZERO PUSH2 0x1883 JUMPI POP SWAP1 JUMP JUMPDEST PUSH2 0x188F SWAP1 EXTCODESIZE ISZERO ISZERO PUSH2 0x1823 JUMP JUMPDEST SWAP1 JUMP JUMPDEST DUP3 MLOAD SWAP1 SWAP2 POP ISZERO PUSH2 0x18A5 JUMPI POP DUP1 MLOAD SWAP1 PUSH1 0x20 ADD REVERT JUMPDEST PUSH1 0x40 MLOAD SWAP1 PUSH3 0x461BCD PUSH1 0xE5 SHL DUP3 MSTORE DUP2 PUSH1 0x20 DUP1 PUSH1 0x4 DUP4 ADD MSTORE DUP3 MLOAD SWAP1 DUP2 PUSH1 0x24 DUP5 ADD MSTORE PUSH1 0x0 SWAP4 JUMPDEST DUP3 DUP6 LT PUSH2 0x18EB JUMPI POP POP PUSH1 0x44 SWAP3 POP PUSH1 0x0 DUP4 DUP3 DUP5 ADD ADD MSTORE PUSH1 0x1F DUP1 NOT SWAP2 ADD AND DUP2 ADD SUB ADD SWAP1 REVERT JUMPDEST DUP5 DUP2 ADD DUP3 ADD MLOAD DUP7 DUP7 ADD PUSH1 0x44 ADD MSTORE SWAP4 DUP2 ADD SWAP4 DUP6 SWAP4 POP PUSH2 0x18C8 JUMP JUMPDEST SWAP9 SWAP5 SWAP7 SWAP8 SWAP4 SWAP2 SWAP1 SWAP6 SWAP3 SWAP6 PUSH2 0x1923 PUSH1 0x1 DUP1 PUSH1 0xA0 SHL SUB PUSH1 0x6 SLOAD AND CALLER EQ PUSH2 0x1050 JUMP JUMPDEST PUSH2 0x192B PUSH2 0x1217 JUMP JUMPDEST PUSH2 0x1933 PUSH2 0x11D3 JUMP JUMPDEST DUP7 DUP2 EQ DUP1 PUSH2 0x1A4E JUMPI JUMPDEST DUP1 PUSH2 0x1A45 JUMPI JUMPDEST DUP1 PUSH2 0x1A3C JUMPI JUMPDEST PUSH2 0x1951 SWAP1 PUSH2 0x1A57 JUMP JUMPDEST DUP1 ISZERO ISZERO DUP1 PUSH2 0x1A31 JUMPI JUMPDEST PUSH2 0x1963 SWAP1 PUSH2 0x1A9B JUMP JUMPDEST PUSH1 0x0 JUMPDEST DUP2 DUP2 LT PUSH2 0x1981 JUMPI POP POP POP POP POP POP POP POP POP POP POP PUSH2 0xF8D PUSH1 0x1 DUP1 SSTORE JUMP JUMPDEST DUP1 DUP1 PUSH2 0x198E DUP2 DUP6 DUP16 PUSH2 0x1AEB JUMP JUMPDEST CALLDATALOAD DUP13 DUP13 DUP13 DUP5 PUSH2 0x19A7 DUP6 PUSH1 0x0 MSTORE PUSH1 0x3 PUSH1 0x20 MSTORE PUSH1 0x40 PUSH1 0x0 KECCAK256 SWAP1 JUMP JUMPDEST PUSH1 0x1 DUP2 ADD SLOAD PUSH2 0x19C0 SWAP1 PUSH1 0x1 PUSH1 0x1 PUSH1 0xA0 SHL SUB AND ISZERO ISZERO PUSH2 0x1114 JUMP JUMPDEST PUSH1 0x7 DUP2 ADD SLOAD PUSH1 0xFF AND PUSH2 0x19D1 SWAP1 PUSH2 0x1154 JUMP JUMPDEST PUSH1 0x5 ADD SLOAD TIMESTAMP GT ISZERO PUSH2 0x19E1 SWAP1 PUSH2 0x1195 JUMP JUMPDEST PUSH2 0x19EB SWAP2 DUP11 PUSH2 0x1AEB JUMP JUMPDEST PUSH2 0x19F4 SWAP1 PUSH2 0x1AFB JUMP JUMPDEST SWAP4 PUSH2 0x19FF SWAP2 DUP11 PUSH2 0x1AEB JUMP JUMPDEST CALLDATALOAD SWAP4 PUSH2 0x1A0B SWAP2 DUP11 PUSH2 0x1AEB JUMP JUMPDEST CALLDATALOAD PUSH2 0x1A17 DUP6 DUP13 DUP13 PUSH2 0x1B05 JUMP JUMPDEST SWAP4 PUSH2 0x1A23 SWAP6 SWAP2 SWAP4 PUSH2 0x13FF JUMP JUMPDEST PUSH2 0x1A2C SWAP1 PUSH2 0x1ADC JUMP JUMPDEST PUSH2 0x1966 JUMP JUMPDEST POP PUSH1 0x32 DUP2 GT ISZERO PUSH2 0x195A JUMP JUMPDEST POP DUP9 DUP7 EQ PUSH2 0x1948 JUMP JUMPDEST POP DUP9 DUP9 EQ PUSH2 0x1942 JUMP JUMPDEST POP DUP8 DUP8 EQ PUSH2 0x193C JUMP JUMPDEST ISZERO PUSH2 0x1A5E JUMPI JUMP JUMPDEST PUSH1 0x40 MLOAD PUSH3 0x461BCD PUSH1 0xE5 SHL DUP2 MSTORE PUSH1 0x20 PUSH1 0x4 DUP3 ADD MSTORE PUSH1 0x15 PUSH1 0x24 DUP3 ADD MSTORE PUSH21 0x82E4E4C2F240D8CADCCEE8D040DAD2E6DAC2E8C6D PUSH1 0x5B SHL PUSH1 0x44 DUP3 ADD MSTORE PUSH1 0x64 SWAP1 REVERT JUMPDEST ISZERO PUSH2 0x1AA2 JUMPI JUMP JUMPDEST PUSH1 0x40 MLOAD PUSH3 0x461BCD PUSH1 0xE5 SHL DUP2 MSTORE PUSH1 0x20 PUSH1 0x4 DUP3 ADD MSTORE PUSH1 0x12 PUSH1 0x24 DUP3 ADD MSTORE PUSH18 0x496E76616C69642062617463682073697A65 PUSH1 0x70 SHL PUSH1 0x44 DUP3 ADD MSTORE PUSH1 0x64 SWAP1 REVERT JUMPDEST PUSH1 0x0 NOT DUP2 EQ PUSH2 0xE86 JUMPI PUSH1 0x1 ADD SWAP1 JUMP JUMPDEST SWAP2 SWAP1 DUP2 LT ISZERO PUSH2 0x790 JUMPI PUSH1 0x5 SHL ADD SWAP1 JUMP JUMPDEST CALLDATALOAD PUSH2 0x188F DUP2 PUSH2 0x175 JUMP JUMPDEST SWAP2 SWAP1 DUP2 LT ISZERO PUSH2 0x790 JUMPI PUSH1 0x5 SHL DUP2 ADD CALLDATALOAD SWAP1 PUSH1 0x1E NOT DUP2 CALLDATASIZE SUB ADD DUP3 SLT ISZERO PUSH2 0x170 JUMPI ADD SWAP1 DUP2 CALLDATALOAD SWAP2 PUSH8 0xFFFFFFFFFFFFFFFF DUP4 GT PUSH2 0x170 JUMPI PUSH1 0x20 ADD DUP3 CALLDATASIZE SUB DUP2 SGT PUSH2 0x170 JUMPI SWAP2 SWAP1 JUMP JUMPDEST ISZERO PUSH2 0x1B4E JUMPI JUMP JUMPDEST PUSH1 0x40 MLOAD PUSH3 0x461BCD PUSH1 0xE5 SHL DUP2 MSTORE PUSH1 0x20 PUSH1 0x4 DUP3 ADD MSTORE PUSH1 0x17 PUSH1 0x24 DUP3 ADD MSTORE PUSH32 0x53657373696F6E20616C7265616479207265766F6B6564000000000000000000 PUSH1 0x44 DUP3 ADD MSTORE PUSH1 0x64 SWAP1 REVERT JUMPDEST SWAP1 DUP2 PUSH1 0x20 SWAP2 SUB SLT PUSH2 0x170 JUMPI MLOAD SWAP1 JUMP JUMPDEST PUSH1 0xFF PUSH1 0x1B SWAP2 AND ADD SWAP1 PUSH1 0xFF DUP3 GT PUSH2 0xE86 JUMPI JUMP JUMPDEST PUSH1 0x41 DUP3 MLOAD SUB PUSH2 0x1C5A JUMPI PUSH1 0x20 SWAP2 PUSH1 0x0 SWAP2 DUP3 SWAP2 DUP5 DUP2 ADD MLOAD SWAP3 PUSH1 0x60 PUSH1 0x40 DUP4 ADD MLOAD SWAP3 ADD MLOAD SWAP1 BYTE SWAP3 PUSH1 0x1B DUP5 LT PUSH2 0x1C43 JUMPI JUMPDEST SWAP1 PUSH2 0x1C24 SWAP2 PUSH2 0x1BFE PUSH1 0xFF DUP7 AND PUSH1 0x1B DUP2 EQ SWAP1 DUP2 ISZERO PUSH2 0x1C38 JUMPI JUMPDEST POP PUSH2 0x1352 JUMP JUMPDEST PUSH1 0x40 MLOAD SWAP5 DUP6 SWAP5 DUP6 SWAP1 SWAP5 SWAP4 SWAP3 PUSH1 0xFF PUSH1 0x60 SWAP4 PUSH1 0x80 DUP5 ADD SWAP8 DUP5 MSTORE AND PUSH1 0x20 DUP4 ADD MSTORE PUSH1 0x40 DUP3 ADD MSTORE ADD MSTORE JUMP JUMPDEST DUP4 DUP1 MSTORE SUB SWAP1 PUSH1 0x1 GAS STATICCALL ISZERO PUSH2 0x9AC JUMPI PUSH1 0x0 MLOAD SWAP1 JUMP JUMPDEST PUSH1 0x1C SWAP2 POP EQ CODESIZE PUSH2 0x1BF8 JUMP JUMPDEST SWAP3 SWAP1 PUSH2 0x1C51 PUSH2 0x1C24 SWAP3 PUSH2 0x1BA2 JUMP JUMPDEST SWAP4 SWAP1 SWAP2 POP PUSH2 0x1BE0 JUMP JUMPDEST PUSH1 0x40 MLOAD PUSH3 0x461BCD PUSH1 0xE5 SHL DUP2 MSTORE PUSH1 0x20 PUSH1 0x4 DUP3 ADD MSTORE PUSH1 0x18 PUSH1 0x24 DUP3 ADD MSTORE PUSH32 0x496E76616C6964207369676E6174757265206C656E6774680000000000000000 PUSH1 0x44 DUP3 ADD MSTORE PUSH1 0x64 SWAP1 REVERT INVALID LOG2 PUSH5 0x6970667358 0x22 SLT KECCAK256 0x25 XOR PUSH27 0x8EA56781B76A97A5F601615EDDF036D4CD2DB1070B9660810CBE61 SWAP10 CALL PUSH5 0x736F6C6343 STOP ADDMOD EQ STOP CALLER "},"methodIdentifiers":{"createSession(address,uint256,uint256,uint256)":"14f81924","emergencyWithdraw(address,address,uint256)":"e63ea408","executeBatchWithSession(bytes32[],address[],uint256[],bytes32[],bytes[])":"45ba64f4","executeWithSession(bytes32,address,uint256,bytes32,bytes)":"91170e47","getSession(bytes32)":"39b240bd","getUserSessions(address)":"223715dd","getUserTokenAllowance(address)":"7f93faa3","owner()":"8da5cb5b","pause()":"8456cb59","paused()":"5c975abb","relayer()":"8406c079","renounceOwnership()":"715018a6","revokeSession(bytes32)":"a7fed385","sessions(bytes32)":"7dbd2832","setRelayer(address)":"6548e9bc","transferOwnership(address)":"f2fde38b","unpause()":"3f4ba83a","usdcToken()":"11eac855","userSessions(address,uint256)":"6d597d13"}}}}}