{"contracts/PaymentRouter.sol":{"PaymentRouter":{"abi":[{"anonymous":false,"inputs":[{"indexed":true,"internalType":"address","name":"previousOwner","type":"address"},{"indexed":true,"internalType":"address","name":"newOwner","type":"address"}],"name":"OwnershipTransferred","type":"event"},{"anonymous":false,"inputs":[{"indexed":false,"internalType":"address","name":"account","type":"address"}],"name":"Paused","type":"event"},{"anonymous":false,"inputs":[{"indexed":true,"internalType":"bytes32","name":"paymentId","type":"bytes32"},{"indexed":true,"internalType":"address","name":"recipient","type":"address"},{"indexed":false,"internalType":"uint256","name":"amount","type":"uint256"}],"name":"PaymentCompleted","type":"event"},{"anonymous":false,"inputs":[{"indexed":true,"internalType":"bytes32","name":"paymentId","type":"bytes32"},{"indexed":true,"internalType":"address","name":"payer","type":"address"},{"indexed":true,"internalType":"address","name":"recipient","type":"address"},{"indexed":false,"internalType":"uint256","name":"amount","type":"uint256"},{"indexed":false,"internalType":"enum PaymentRouter.PaymentMethod","name":"method","type":"uint8"},{"indexed":false,"internalType":"bytes32","name":"sessionId","type":"bytes32"},{"indexed":false,"internalType":"uint256","name":"merchantPrice","type":"uint256"},{"indexed":false,"internalType":"uint256","name":"channelFee","type":"uint256"}],"name":"PaymentRouted","type":"event"},{"anonymous":false,"inputs":[{"indexed":false,"internalType":"address","name":"account","type":"address"}],"name":"Unpaused","type":"event"},{"inputs":[{"internalType":"address","name":"","type":"address"}],"name":"balances","outputs":[{"internalType":"uint256","name":"","type":"uint256"}],"stateMutability":"view","type":"function"},{"inputs":[{"internalType":"bytes32","name":"paymentId","type":"bytes32"}],"name":"completePayment","outputs":[],"stateMutability":"nonpayable","type":"function"},{"inputs":[{"internalType":"address","name":"to","type":"address"},{"internalType":"uint256","name":"amount","type":"uint256"}],"name":"emergencyWithdraw","outputs":[],"stateMutability":"nonpayable","type":"function"},{"inputs":[{"internalType":"bytes32","name":"paymentId","type":"bytes32"}],"name":"getPayment","outputs":[{"components":[{"internalType":"bytes32","name":"paymentId","type":"bytes32"},{"internalType":"address","name":"payer","type":"address"},{"internalType":"address","name":"recipient","type":"address"},{"internalType":"uint256","name":"amount","type":"uint256"},{"internalType":"enum PaymentRouter.PaymentMethod","name":"method","type":"uint8"},{"internalType":"bytes32","name":"sessionId","type":"bytes32"},{"internalType":"uint256","name":"merchantPrice","type":"uint256"},{"internalType":"uint256","name":"channelFee","type":"uint256"},{"internalType":"bool","name":"completed","type":"bool"},{"internalType":"uint256","name":"timestamp","type":"uint256"}],"internalType":"struct PaymentRouter.PaymentRecord","name":"","type":"tuple"}],"stateMutability":"view","type":"function"},{"inputs":[],"name":"owner","outputs":[{"internalType":"address","name":"","type":"address"}],"stateMutability":"view","type":"function"},{"inputs":[],"name":"pause","outputs":[],"stateMutability":"nonpayable","type":"function"},{"inputs":[],"name":"paused","outputs":[{"internalType":"bool","name":"","type":"bool"}],"stateMutability":"view","type":"function"},{"inputs":[{"internalType":"enum PaymentRouter.PaymentMethod","name":"","type":"uint8"}],"name":"paymentChannels","outputs":[{"internalType":"address","name":"channelAddress","type":"address"},{"internalType":"bool","name":"isActive","type":"bool"},{"internalType":"uint256","name":"priority","type":"uint256"},{"internalType":"uint256","name":"minAmount","type":"uint256"},{"internalType":"uint256","name":"maxAmount","type":"uint256"}],"stateMutability":"view","type":"function"},{"inputs":[{"internalType":"bytes32","name":"","type":"bytes32"}],"name":"payments","outputs":[{"internalType":"bytes32","name":"paymentId","type":"bytes32"},{"internalType":"address","name":"payer","type":"address"},{"internalType":"address","name":"recipient","type":"address"},{"internalType":"uint256","name":"amount","type":"uint256"},{"internalType":"enum PaymentRouter.PaymentMethod","name":"method","type":"uint8"},{"internalType":"bytes32","name":"sessionId","type":"bytes32"},{"internalType":"uint256","name":"merchantPrice","type":"uint256"},{"internalType":"uint256","name":"channelFee","type":"uint256"},{"internalType":"bool","name":"completed","type":"bool"},{"internalType":"uint256","name":"timestamp","type":"uint256"}],"stateMutability":"view","type":"function"},{"inputs":[],"name":"renounceOwnership","outputs":[],"stateMutability":"nonpayable","type":"function"},{"inputs":[{"internalType":"bytes32","name":"paymentId","type":"bytes32"},{"internalType":"address","name":"recipient","type":"address"},{"internalType":"uint256","name":"amount","type":"uint256"},{"internalType":"enum PaymentRouter.PaymentMethod","name":"method","type":"uint8"},{"internalType":"bytes32","name":"sessionId","type":"bytes32"},{"internalType":"uint256","name":"merchantPrice","type":"uint256"},{"internalType":"uint256","name":"channelFee","type":"uint256"}],"name":"routePayment","outputs":[],"stateMutability":"payable","type":"function"},{"inputs":[{"internalType":"bytes32","name":"paymentId","type":"bytes32"},{"internalType":"address","name":"recipient","type":"address"},{"internalType":"uint256","name":"amount","type":"uint256"},{"internalType":"enum PaymentRouter.PaymentMethod","name":"method","type":"uint8"}],"name":"routePaymentLegacy","outputs":[],"stateMutability":"payable","type":"function"},{"inputs":[{"internalType":"enum PaymentRouter.PaymentMethod","name":"method","type":"uint8"},{"internalType":"address","name":"channelAddress","type":"address"},{"internalType":"bool","name":"isActive","type":"bool"},{"internalType":"uint256","name":"priority","type":"uint256"},{"internalType":"uint256","name":"minAmount","type":"uint256"},{"internalType":"uint256","name":"maxAmount","type":"uint256"}],"name":"setPaymentChannel","outputs":[],"stateMutability":"nonpayable","type":"function"},{"inputs":[{"internalType":"address","name":"newOwner","type":"address"}],"name":"transferOwnership","outputs":[],"stateMutability":"nonpayable","type":"function"},{"inputs":[],"name":"unpause","outputs":[],"stateMutability":"nonpayable","type":"function"},{"inputs":[{"internalType":"uint256","name":"amount","type":"uint256"}],"name":"withdraw","outputs":[],"stateMutability":"nonpayable","type":"function"},{"stateMutability":"payable","type":"receive"}],"evm":{"bytecode":{"linkReferences":{},"object":"608080604052346100695760008054336001600160a01b0319821681178355916001600160a01b03909116907f8be0079c531659141344cd1fd0a4f28419497f9722a3daafe3b4186f6b6457e09080a36001805560ff1960025416600255611217908161006f8239f35b600080fdfe608080604052600436101561001d575b50361561001b57600080fd5b005b60003560e01c9081630716326d14610d93575080631893fa0a14610cb057806327e235e314610c765780632e1a7d4d14610bf85780633f4ba83a14610b6457806347ca8a8b14610a30578063532796c1146107c55780635c975abb146107a25780636ff0095c146104b6578063715018a61461045d5780638456cb59146104035780638da5cb5b146103da57806395ccea671461037d578063e0db06c514610316578063e66eefc8146101a85763f2fde38b146100da573861000f565b346101a35760203660031901126101a3576100f3610e5d565b6100fb610e8c565b6001600160a01b0390811690811561014f57600054826bffffffffffffffffffffffff60a01b821617600055167f8be0079c531659141344cd1fd0a4f28419497f9722a3daafe3b4186f6b6457e0600080a3005b60405162461bcd60e51b815260206004820152602660248201527f4f776e61626c653a206e6577206f776e657220697320746865207a65726f206160448201526564647265737360d01b6064820152608490fd5b600080fd5b346101a35760203660031901126101a35760006101206101c6610ffe565b8281528260208201528260408201528260608201528260808201528260a08201528260c08201528260e0820152826101008201520152600435600052600460205261014060406000206009610219610ffe565b8254815260018301546001600160a01b039081166020830152600284015416604082015260038301546060820152600483015490929061025f9060ff166080850161101f565b600581015460a0840152600681015460c0840152600781015460e084015260ff60088201541615156101008401520154610120820152610120604051918051835260018060a01b03602082015116602084015260018060a01b036040820151166040840152606081015160608401526102e060808201516080850190610e3a565b60a081015160a084015260c081015160c084015260e081015160e084015261010081015115156101008401520151610120820152f35b346101a35760203660031901126101a35760043560048110156101a35761033e60a091610e73565b805490600181015490600360028201549101549160ff60405194600180881b0381168652861c1615156020850152604084015260608301526080820152f35b346101a35760403660031901126101a35761001b600080808061039e610e5d565b602435906103aa610e8c565b6001600160a01b03166103be811515610ee4565b6103ca82471015611115565b5af16103d4611158565b506111a3565b346101a35760003660031901126101a3576000546040516001600160a01b039091168152602090f35b346101a35760003660031901126101a35761041c610e8c565b61042461107b565b600160ff1960025416176002557f62e78cea01bee320cd4e420270b5ea74000d11b0c9f74754ebdbfc544b05a2586020604051338152a1005b346101a35760003660031901126101a357610476610e8c565b600080546001600160a01b0319811682556001600160a01b03167f8be0079c531659141344cd1fd0a4f28419497f9722a3daafe3b4186f6b6457e08280a3005b60e03660031901126101a3576104ca610e47565b600460643510156101a3576104dd6110bf565b6104e561107b565b6104f96001600160a01b0382161515610ee4565b6105066044351515610f24565b61052060ff610516606435610e73565b5460a01c16610f70565b600261052d606435610e73565b0154604435101580610783575b61054390610fbc565b61054b610ffe565b60043581523360208201526001600160a01b0382166040820152604435606082015261057c6064356080830161101f565b60843560a082015260a43560c082015260c43560e08201526000610100820181905242610120830152600480358252602081815260409283902084518155908401516001820180546001600160a01b03199081166001600160a01b039384161790915593850151600283018054909516911617909255606083015160038301556080830151929083101561076d576101206009916004840160ff199560ff87835416911617905560a0810151600585015560c0810151600685015560e081015160078501556106616101008201511515600886019060ff801983541691151516179055565b0151910155604051604435815261067d60208201606435610e3a565b608435604082015260a435606082015260c43560808201526001600160a01b038316903390600435907fe48accf3cf242ef139d88c03dddd8f8b3c40c61fba1da3e864cc19b6280950269060a090a46001606435146106dd575b60018055005b6106eb60443534101561102b565b60018060a01b0382166000526005602052604060002061070e604435825461106e565b90556004356000526004602052600160086040600020019182541617905560405190604435825260018060a01b0316907fa7b31f0f3731da4b3c94c7d84acb277ee788cda12f626e14c6baa74670dc5a07602060043592a380806106d7565b634e487b7160e01b600052602160045260246000fd5b506105436003610794606435610e73565b01546044351115905061053a565b346101a35760003660031901126101a357602060ff600254166040519015158152f35b60803660031901126101a3576004356107dc610e47565b906044359160643560048110156101a3576107f56110bf565b6107fd61107b565b6001600160a01b0391821693610814851515610ee4565b61081f811515610f24565b61082d60ff61051684610e73565b600261083883610e73565b015481101580610a15575b61084c90610fbc565b610854610ffe565b8481526020928382019133835260408101958887528760608301948686526080840192610881868561101f565b60a08501966000885260c086019a898c5260e0870193600085526101008801936000855261012089019642885260005260048d526040600020985189558060018a01925116916bffffffffffffffffffffffff60a01b9283825416179055600289019251169082541617905551600386015560048501935191600483101561076d5760ff9a600198600996610946958e199e8f8354169116179055516005880155516006870155516007860155511515600885019060ff801983541691151516179055565b519101558660405184815261095d86820184610e3a565b6000604082015284606082015260006080820152877fe48accf3cf242ef139d88c03dddd8f8b3c40c61fba1da3e864cc19b62809502660a03393a4146109a35760018055005b7fa7b31f0f3731da4b3c94c7d84acb277ee788cda12f626e14c6baa74670dc5a07926109d18234101561102b565b856000526005835260406000206109e983825461106e565b905584600052600483526001600860406000200191825416179055604051908152a380808080806106d7565b5061084c6003610a2484610e73565b01548211159050610843565b346101a3576020806003193601126101a3576004358060005260048252604060002090600882019283549360ff8516610b1f5760048401546001600160a01b0391908290610a809060ff16610e73565b54163303610aeb5760017fa7b31f0f3731da4b3c94c7d84acb277ee788cda12f626e14c6baa74670dc5a0794959660ff19161790556003850194600286549101908282541660005260058452610adc604060002091825461106e565b905554169354604051908152a3005b60405162461bcd60e51b815260048101849052600c60248201526b155b985d5d1a1bdc9a5e995960a21b6044820152606490fd5b60405162461bcd60e51b815260048101839052601960248201527f5061796d656e7420616c726561647920636f6d706c65746564000000000000006044820152606490fd5b346101a35760003660031901126101a357610b7d610e8c565b60025460ff811615610bbc5760ff19166002557f5db9ee0a495bf2e6ff9c91a7834c1ba4fdd244a5e8aa4e537bd38aeae4b073aa6020604051338152a1005b60405162461bcd60e51b815260206004820152601460248201527314185d5cd8589b194e881b9bdd081c185d5cd95960621b6044820152606490fd5b346101a35760203660031901126101a357600435610c146110bf565b336000526005602052610c2e816040600020541015611115565b3360005260056020526040600020805491808303928311610c6057600080808093866106d79655335af16103d4611158565b634e487b7160e01b600052601160045260246000fd5b346101a35760203660031901126101a3576001600160a01b03610c97610e5d565b1660005260056020526020604060002054604051908152f35b346101a35760c03660031901126101a35760043560048110156101a357610cd5610e47565b90604435908115158092036101a357610cec610e8c565b6040519260a084019284841067ffffffffffffffff851117610d7d5760039360405260018060a01b038092168552602085019081526040850190606435825260608601926084358452610d47608088019560a4358752610e73565b9651875492516001600160a81b031990931691161790151560a01b60ff60a01b1617855551600185015551600284015551910155005b634e487b7160e01b600052604160045260246000fd5b346101a35760203660031901126101a357610140906004356000526004602052604060002080549060018060a01b0380600183015416906002830154166003830154610e1b60ff600486015416600586015492600687015494600788015496600960ff60088b015416990154998b5260208b015260408a015260608901526080880190610e3a565b60a086015260c085015260e08401521515610100830152610120820152f35b90600482101561076d5752565b602435906001600160a01b03821682036101a357565b600435906001600160a01b03821682036101a357565b600481101561076d576000526003602052604060002090565b6000546001600160a01b03163303610ea057565b606460405162461bcd60e51b815260206004820152602060248201527f4f776e61626c653a2063616c6c6572206973206e6f7420746865206f776e65726044820152fd5b15610eeb57565b60405162461bcd60e51b8152602060048201526011602482015270125b9d985b1a59081c9958da5c1a595b9d607a1b6044820152606490fd5b15610f2b57565b60405162461bcd60e51b815260206004820152601d60248201527f416d6f756e74206d7573742062652067726561746572207468616e20300000006044820152606490fd5b15610f7757565b60405162461bcd60e51b815260206004820152601a60248201527f5061796d656e74206368616e6e656c206e6f74206163746976650000000000006044820152606490fd5b15610fc357565b60405162461bcd60e51b8152602060048201526013602482015272416d6f756e74206f7574206f662072616e676560681b6044820152606490fd5b60405190610140820182811067ffffffffffffffff821117610d7d57604052565b600482101561076d5752565b1561103257565b60405162461bcd60e51b8152602060048201526014602482015273125b9cdd59999a58da595b9d081c185e5b595b9d60621b6044820152606490fd5b91908201809211610c6057565b60ff6002541661108757565b60405162461bcd60e51b815260206004820152601060248201526f14185d5cd8589b194e881c185d5cd95960821b6044820152606490fd5b6002600154146110d0576002600155565b60405162461bcd60e51b815260206004820152601f60248201527f5265656e7472616e637947756172643a207265656e7472616e742063616c6c006044820152606490fd5b1561111c57565b60405162461bcd60e51b8152602060048201526014602482015273496e73756666696369656e742062616c616e636560601b6044820152606490fd5b3d1561119e5767ffffffffffffffff903d828111610d7d5760405192601f8201601f19908116603f0116840190811184821017610d7d5760405282523d6000602084013e565b606090565b156111aa57565b60405162461bcd60e51b815260206004820152600f60248201526e151c985b9cd9995c8819985a5b1959608a1b6044820152606490fdfea26469706673582212207ee76f0d2125a7ea39d09bbc40d30120006dcaca498fd8e0bd54cb544dc7f77a64736f6c63430008140033","opcodes":"PUSH1 0x80 DUP1 PUSH1 0x40 MSTORE CALLVALUE PUSH2 0x69 JUMPI PUSH1 0x0 DUP1 SLOAD CALLER PUSH1 0x1 PUSH1 0x1 PUSH1 0xA0 SHL SUB NOT DUP3 AND DUP2 OR DUP4 SSTORE SWAP2 PUSH1 0x1 PUSH1 0x1 PUSH1 0xA0 SHL SUB SWAP1 SWAP2 AND SWAP1 PUSH32 0x8BE0079C531659141344CD1FD0A4F28419497F9722A3DAAFE3B4186F6B6457E0 SWAP1 DUP1 LOG3 PUSH1 0x1 DUP1 SSTORE PUSH1 0xFF NOT PUSH1 0x2 SLOAD AND PUSH1 0x2 SSTORE PUSH2 0x1217 SWAP1 DUP2 PUSH2 0x6F DUP3 CODECOPY RETURN JUMPDEST PUSH1 0x0 DUP1 REVERT INVALID PUSH1 0x80 DUP1 PUSH1 0x40 MSTORE PUSH1 0x4 CALLDATASIZE LT ISZERO PUSH2 0x1D JUMPI JUMPDEST POP CALLDATASIZE ISZERO PUSH2 0x1B JUMPI PUSH1 0x0 DUP1 REVERT JUMPDEST STOP JUMPDEST PUSH1 0x0 CALLDATALOAD PUSH1 0xE0 SHR SWAP1 DUP2 PUSH4 0x716326D EQ PUSH2 0xD93 JUMPI POP DUP1 PUSH4 0x1893FA0A EQ PUSH2 0xCB0 JUMPI DUP1 PUSH4 0x27E235E3 EQ PUSH2 0xC76 JUMPI DUP1 PUSH4 0x2E1A7D4D EQ PUSH2 0xBF8 JUMPI DUP1 PUSH4 0x3F4BA83A EQ PUSH2 0xB64 JUMPI DUP1 PUSH4 0x47CA8A8B EQ PUSH2 0xA30 JUMPI DUP1 PUSH4 0x532796C1 EQ PUSH2 0x7C5 JUMPI DUP1 PUSH4 0x5C975ABB EQ PUSH2 0x7A2 JUMPI DUP1 PUSH4 0x6FF0095C EQ PUSH2 0x4B6 JUMPI DUP1 PUSH4 0x715018A6 EQ PUSH2 0x45D JUMPI DUP1 PUSH4 0x8456CB59 EQ PUSH2 0x403 JUMPI DUP1 PUSH4 0x8DA5CB5B EQ PUSH2 0x3DA JUMPI DUP1 PUSH4 0x95CCEA67 EQ PUSH2 0x37D JUMPI DUP1 PUSH4 0xE0DB06C5 EQ PUSH2 0x316 JUMPI DUP1 PUSH4 0xE66EEFC8 EQ PUSH2 0x1A8 JUMPI PUSH4 0xF2FDE38B EQ PUSH2 0xDA JUMPI CODESIZE PUSH2 0xF JUMP JUMPDEST CALLVALUE PUSH2 0x1A3 JUMPI PUSH1 0x20 CALLDATASIZE PUSH1 0x3 NOT ADD SLT PUSH2 0x1A3 JUMPI PUSH2 0xF3 PUSH2 0xE5D JUMP JUMPDEST PUSH2 0xFB PUSH2 0xE8C JUMP JUMPDEST PUSH1 0x1 PUSH1 0x1 PUSH1 0xA0 SHL SUB SWAP1 DUP2 AND SWAP1 DUP2 ISZERO PUSH2 0x14F JUMPI PUSH1 0x0 SLOAD DUP3 PUSH12 0xFFFFFFFFFFFFFFFFFFFFFFFF PUSH1 0xA0 SHL DUP3 AND OR PUSH1 0x0 SSTORE AND PUSH32 0x8BE0079C531659141344CD1FD0A4F28419497F9722A3DAAFE3B4186F6B6457E0 PUSH1 0x0 DUP1 LOG3 STOP JUMPDEST PUSH1 0x40 MLOAD PUSH3 0x461BCD PUSH1 0xE5 SHL DUP2 MSTORE PUSH1 0x20 PUSH1 0x4 DUP3 ADD MSTORE PUSH1 0x26 PUSH1 0x24 DUP3 ADD MSTORE PUSH32 0x4F776E61626C653A206E6577206F776E657220697320746865207A65726F2061 PUSH1 0x44 DUP3 ADD MSTORE PUSH6 0x646472657373 PUSH1 0xD0 SHL PUSH1 0x64 DUP3 ADD MSTORE PUSH1 0x84 SWAP1 REVERT JUMPDEST PUSH1 0x0 DUP1 REVERT JUMPDEST CALLVALUE PUSH2 0x1A3 JUMPI PUSH1 0x20 CALLDATASIZE PUSH1 0x3 NOT ADD SLT PUSH2 0x1A3 JUMPI PUSH1 0x0 PUSH2 0x120 PUSH2 0x1C6 PUSH2 0xFFE JUMP JUMPDEST DUP3 DUP2 MSTORE DUP3 PUSH1 0x20 DUP3 ADD MSTORE DUP3 PUSH1 0x40 DUP3 ADD MSTORE DUP3 PUSH1 0x60 DUP3 ADD MSTORE DUP3 PUSH1 0x80 DUP3 ADD MSTORE DUP3 PUSH1 0xA0 DUP3 ADD MSTORE DUP3 PUSH1 0xC0 DUP3 ADD MSTORE DUP3 PUSH1 0xE0 DUP3 ADD MSTORE DUP3 PUSH2 0x100 DUP3 ADD MSTORE ADD MSTORE PUSH1 0x4 CALLDATALOAD PUSH1 0x0 MSTORE PUSH1 0x4 PUSH1 0x20 MSTORE PUSH2 0x140 PUSH1 0x40 PUSH1 0x0 KECCAK256 PUSH1 0x9 PUSH2 0x219 PUSH2 0xFFE JUMP JUMPDEST DUP3 SLOAD DUP2 MSTORE PUSH1 0x1 DUP4 ADD SLOAD PUSH1 0x1 PUSH1 0x1 PUSH1 0xA0 SHL SUB SWAP1 DUP2 AND PUSH1 0x20 DUP4 ADD MSTORE PUSH1 0x2 DUP5 ADD SLOAD AND PUSH1 0x40 DUP3 ADD MSTORE PUSH1 0x3 DUP4 ADD SLOAD PUSH1 0x60 DUP3 ADD MSTORE PUSH1 0x4 DUP4 ADD SLOAD SWAP1 SWAP3 SWAP1 PUSH2 0x25F SWAP1 PUSH1 0xFF AND PUSH1 0x80 DUP6 ADD PUSH2 0x101F JUMP JUMPDEST PUSH1 0x5 DUP2 ADD SLOAD PUSH1 0xA0 DUP5 ADD MSTORE PUSH1 0x6 DUP2 ADD SLOAD PUSH1 0xC0 DUP5 ADD MSTORE PUSH1 0x7 DUP2 ADD SLOAD PUSH1 0xE0 DUP5 ADD MSTORE PUSH1 0xFF PUSH1 0x8 DUP3 ADD SLOAD AND ISZERO ISZERO PUSH2 0x100 DUP5 ADD MSTORE ADD SLOAD PUSH2 0x120 DUP3 ADD MSTORE PUSH2 0x120 PUSH1 0x40 MLOAD SWAP2 DUP1 MLOAD DUP4 MSTORE PUSH1 0x1 DUP1 PUSH1 0xA0 SHL SUB PUSH1 0x20 DUP3 ADD MLOAD AND PUSH1 0x20 DUP5 ADD MSTORE PUSH1 0x1 DUP1 PUSH1 0xA0 SHL SUB PUSH1 0x40 DUP3 ADD MLOAD AND PUSH1 0x40 DUP5 ADD MSTORE PUSH1 0x60 DUP2 ADD MLOAD PUSH1 0x60 DUP5 ADD MSTORE PUSH2 0x2E0 PUSH1 0x80 DUP3 ADD MLOAD PUSH1 0x80 DUP6 ADD SWAP1 PUSH2 0xE3A JUMP JUMPDEST PUSH1 0xA0 DUP2 ADD MLOAD PUSH1 0xA0 DUP5 ADD MSTORE PUSH1 0xC0 DUP2 ADD MLOAD PUSH1 0xC0 DUP5 ADD MSTORE PUSH1 0xE0 DUP2 ADD MLOAD PUSH1 0xE0 DUP5 ADD MSTORE PUSH2 0x100 DUP2 ADD MLOAD ISZERO ISZERO PUSH2 0x100 DUP5 ADD MSTORE ADD MLOAD PUSH2 0x120 DUP3 ADD MSTORE RETURN JUMPDEST CALLVALUE PUSH2 0x1A3 JUMPI PUSH1 0x20 CALLDATASIZE PUSH1 0x3 NOT ADD SLT PUSH2 0x1A3 JUMPI PUSH1 0x4 CALLDATALOAD PUSH1 0x4 DUP2 LT ISZERO PUSH2 0x1A3 JUMPI PUSH2 0x33E PUSH1 0xA0 SWAP2 PUSH2 0xE73 JUMP JUMPDEST DUP1 SLOAD SWAP1 PUSH1 0x1 DUP2 ADD SLOAD SWAP1 PUSH1 0x3 PUSH1 0x2 DUP3 ADD SLOAD SWAP2 ADD SLOAD SWAP2 PUSH1 0xFF PUSH1 0x40 MLOAD SWAP5 PUSH1 0x1 DUP1 DUP9 SHL SUB DUP2 AND DUP7 MSTORE DUP7 SHR AND ISZERO ISZERO PUSH1 0x20 DUP6 ADD MSTORE PUSH1 0x40 DUP5 ADD MSTORE PUSH1 0x60 DUP4 ADD MSTORE PUSH1 0x80 DUP3 ADD MSTORE RETURN JUMPDEST CALLVALUE PUSH2 0x1A3 JUMPI PUSH1 0x40 CALLDATASIZE PUSH1 0x3 NOT ADD SLT PUSH2 0x1A3 JUMPI PUSH2 0x1B PUSH1 0x0 DUP1 DUP1 DUP1 PUSH2 0x39E PUSH2 0xE5D JUMP JUMPDEST PUSH1 0x24 CALLDATALOAD SWAP1 PUSH2 0x3AA PUSH2 0xE8C JUMP JUMPDEST PUSH1 0x1 PUSH1 0x1 PUSH1 0xA0 SHL SUB AND PUSH2 0x3BE DUP2 ISZERO ISZERO PUSH2 0xEE4 JUMP JUMPDEST PUSH2 0x3CA DUP3 SELFBALANCE LT ISZERO PUSH2 0x1115 JUMP JUMPDEST GAS CALL PUSH2 0x3D4 PUSH2 0x1158 JUMP JUMPDEST POP PUSH2 0x11A3 JUMP JUMPDEST CALLVALUE PUSH2 0x1A3 JUMPI PUSH1 0x0 CALLDATASIZE PUSH1 0x3 NOT ADD SLT PUSH2 0x1A3 JUMPI PUSH1 0x0 SLOAD PUSH1 0x40 MLOAD PUSH1 0x1 PUSH1 0x1 PUSH1 0xA0 SHL SUB SWAP1 SWAP2 AND DUP2 MSTORE PUSH1 0x20 SWAP1 RETURN JUMPDEST CALLVALUE PUSH2 0x1A3 JUMPI PUSH1 0x0 CALLDATASIZE PUSH1 0x3 NOT ADD SLT PUSH2 0x1A3 JUMPI PUSH2 0x41C PUSH2 0xE8C JUMP JUMPDEST PUSH2 0x424 PUSH2 0x107B JUMP JUMPDEST PUSH1 0x1 PUSH1 0xFF NOT PUSH1 0x2 SLOAD AND OR PUSH1 0x2 SSTORE PUSH32 0x62E78CEA01BEE320CD4E420270B5EA74000D11B0C9F74754EBDBFC544B05A258 PUSH1 0x20 PUSH1 0x40 MLOAD CALLER DUP2 MSTORE LOG1 STOP JUMPDEST CALLVALUE PUSH2 0x1A3 JUMPI PUSH1 0x0 CALLDATASIZE PUSH1 0x3 NOT ADD SLT PUSH2 0x1A3 JUMPI PUSH2 0x476 PUSH2 0xE8C JUMP JUMPDEST PUSH1 0x0 DUP1 SLOAD PUSH1 0x1 PUSH1 0x1 PUSH1 0xA0 SHL SUB NOT DUP2 AND DUP3 SSTORE PUSH1 0x1 PUSH1 0x1 PUSH1 0xA0 SHL SUB AND PUSH32 0x8BE0079C531659141344CD1FD0A4F28419497F9722A3DAAFE3B4186F6B6457E0 DUP3 DUP1 LOG3 STOP JUMPDEST PUSH1 0xE0 CALLDATASIZE PUSH1 0x3 NOT ADD SLT PUSH2 0x1A3 JUMPI PUSH2 0x4CA PUSH2 0xE47 JUMP JUMPDEST PUSH1 0x4 PUSH1 0x64 CALLDATALOAD LT ISZERO PUSH2 0x1A3 JUMPI PUSH2 0x4DD PUSH2 0x10BF JUMP JUMPDEST PUSH2 0x4E5 PUSH2 0x107B JUMP JUMPDEST PUSH2 0x4F9 PUSH1 0x1 PUSH1 0x1 PUSH1 0xA0 SHL SUB DUP3 AND ISZERO ISZERO PUSH2 0xEE4 JUMP JUMPDEST PUSH2 0x506 PUSH1 0x44 CALLDATALOAD ISZERO ISZERO PUSH2 0xF24 JUMP JUMPDEST PUSH2 0x520 PUSH1 0xFF PUSH2 0x516 PUSH1 0x64 CALLDATALOAD PUSH2 0xE73 JUMP JUMPDEST SLOAD PUSH1 0xA0 SHR AND PUSH2 0xF70 JUMP JUMPDEST PUSH1 0x2 PUSH2 0x52D PUSH1 0x64 CALLDATALOAD PUSH2 0xE73 JUMP JUMPDEST ADD SLOAD PUSH1 0x44 CALLDATALOAD LT ISZERO DUP1 PUSH2 0x783 JUMPI JUMPDEST PUSH2 0x543 SWAP1 PUSH2 0xFBC JUMP JUMPDEST PUSH2 0x54B PUSH2 0xFFE JUMP JUMPDEST PUSH1 0x4 CALLDATALOAD DUP2 MSTORE CALLER PUSH1 0x20 DUP3 ADD MSTORE PUSH1 0x1 PUSH1 0x1 PUSH1 0xA0 SHL SUB DUP3 AND PUSH1 0x40 DUP3 ADD MSTORE PUSH1 0x44 CALLDATALOAD PUSH1 0x60 DUP3 ADD MSTORE PUSH2 0x57C PUSH1 0x64 CALLDATALOAD PUSH1 0x80 DUP4 ADD PUSH2 0x101F JUMP JUMPDEST PUSH1 0x84 CALLDATALOAD PUSH1 0xA0 DUP3 ADD MSTORE PUSH1 0xA4 CALLDATALOAD PUSH1 0xC0 DUP3 ADD MSTORE PUSH1 0xC4 CALLDATALOAD PUSH1 0xE0 DUP3 ADD MSTORE PUSH1 0x0 PUSH2 0x100 DUP3 ADD DUP2 SWAP1 MSTORE TIMESTAMP PUSH2 0x120 DUP4 ADD MSTORE PUSH1 0x4 DUP1 CALLDATALOAD DUP3 MSTORE PUSH1 0x20 DUP2 DUP2 MSTORE PUSH1 0x40 SWAP3 DUP4 SWAP1 KECCAK256 DUP5 MLOAD DUP2 SSTORE SWAP1 DUP5 ADD MLOAD PUSH1 0x1 DUP3 ADD DUP1 SLOAD PUSH1 0x1 PUSH1 0x1 PUSH1 0xA0 SHL SUB NOT SWAP1 DUP2 AND PUSH1 0x1 PUSH1 0x1 PUSH1 0xA0 SHL SUB SWAP4 DUP5 AND OR SWAP1 SWAP2 SSTORE SWAP4 DUP6 ADD MLOAD PUSH1 0x2 DUP4 ADD DUP1 SLOAD SWAP1 SWAP6 AND SWAP2 AND OR SWAP1 SWAP3 SSTORE PUSH1 0x60 DUP4 ADD MLOAD PUSH1 0x3 DUP4 ADD SSTORE PUSH1 0x80 DUP4 ADD MLOAD SWAP3 SWAP1 DUP4 LT ISZERO PUSH2 0x76D JUMPI PUSH2 0x120 PUSH1 0x9 SWAP2 PUSH1 0x4 DUP5 ADD PUSH1 0xFF NOT SWAP6 PUSH1 0xFF DUP8 DUP4 SLOAD AND SWAP2 AND OR SWAP1 SSTORE PUSH1 0xA0 DUP2 ADD MLOAD PUSH1 0x5 DUP6 ADD SSTORE PUSH1 0xC0 DUP2 ADD MLOAD PUSH1 0x6 DUP6 ADD SSTORE PUSH1 0xE0 DUP2 ADD MLOAD PUSH1 0x7 DUP6 ADD SSTORE PUSH2 0x661 PUSH2 0x100 DUP3 ADD MLOAD ISZERO ISZERO PUSH1 0x8 DUP7 ADD SWAP1 PUSH1 0xFF DUP1 NOT DUP4 SLOAD AND SWAP2 ISZERO ISZERO AND OR SWAP1 SSTORE JUMP JUMPDEST ADD MLOAD SWAP2 ADD SSTORE PUSH1 0x40 MLOAD PUSH1 0x44 CALLDATALOAD DUP2 MSTORE PUSH2 0x67D PUSH1 0x20 DUP3 ADD PUSH1 0x64 CALLDATALOAD PUSH2 0xE3A JUMP JUMPDEST PUSH1 0x84 CALLDATALOAD PUSH1 0x40 DUP3 ADD MSTORE PUSH1 0xA4 CALLDATALOAD PUSH1 0x60 DUP3 ADD MSTORE PUSH1 0xC4 CALLDATALOAD PUSH1 0x80 DUP3 ADD MSTORE PUSH1 0x1 PUSH1 0x1 PUSH1 0xA0 SHL SUB DUP4 AND SWAP1 CALLER SWAP1 PUSH1 0x4 CALLDATALOAD SWAP1 PUSH32 0xE48ACCF3CF242EF139D88C03DDDD8F8B3C40C61FBA1DA3E864CC19B628095026 SWAP1 PUSH1 0xA0 SWAP1 LOG4 PUSH1 0x1 PUSH1 0x64 CALLDATALOAD EQ PUSH2 0x6DD JUMPI JUMPDEST PUSH1 0x1 DUP1 SSTORE STOP JUMPDEST PUSH2 0x6EB PUSH1 0x44 CALLDATALOAD CALLVALUE LT ISZERO PUSH2 0x102B JUMP JUMPDEST PUSH1 0x1 DUP1 PUSH1 0xA0 SHL SUB DUP3 AND PUSH1 0x0 MSTORE PUSH1 0x5 PUSH1 0x20 MSTORE PUSH1 0x40 PUSH1 0x0 KECCAK256 PUSH2 0x70E PUSH1 0x44 CALLDATALOAD DUP3 SLOAD PUSH2 0x106E JUMP JUMPDEST SWAP1 SSTORE PUSH1 0x4 CALLDATALOAD PUSH1 0x0 MSTORE PUSH1 0x4 PUSH1 0x20 MSTORE PUSH1 0x1 PUSH1 0x8 PUSH1 0x40 PUSH1 0x0 KECCAK256 ADD SWAP2 DUP3 SLOAD AND OR SWAP1 SSTORE PUSH1 0x40 MLOAD SWAP1 PUSH1 0x44 CALLDATALOAD DUP3 MSTORE PUSH1 0x1 DUP1 PUSH1 0xA0 SHL SUB AND SWAP1 PUSH32 0xA7B31F0F3731DA4B3C94C7D84ACB277EE788CDA12F626E14C6BAA74670DC5A07 PUSH1 0x20 PUSH1 0x4 CALLDATALOAD SWAP3 LOG3 DUP1 DUP1 PUSH2 0x6D7 JUMP JUMPDEST PUSH4 0x4E487B71 PUSH1 0xE0 SHL PUSH1 0x0 MSTORE PUSH1 0x21 PUSH1 0x4 MSTORE PUSH1 0x24 PUSH1 0x0 REVERT JUMPDEST POP PUSH2 0x543 PUSH1 0x3 PUSH2 0x794 PUSH1 0x64 CALLDATALOAD PUSH2 0xE73 JUMP JUMPDEST ADD SLOAD PUSH1 0x44 CALLDATALOAD GT ISZERO SWAP1 POP PUSH2 0x53A JUMP JUMPDEST CALLVALUE PUSH2 0x1A3 JUMPI PUSH1 0x0 CALLDATASIZE PUSH1 0x3 NOT ADD SLT PUSH2 0x1A3 JUMPI PUSH1 0x20 PUSH1 0xFF PUSH1 0x2 SLOAD AND PUSH1 0x40 MLOAD SWAP1 ISZERO ISZERO DUP2 MSTORE RETURN JUMPDEST PUSH1 0x80 CALLDATASIZE PUSH1 0x3 NOT ADD SLT PUSH2 0x1A3 JUMPI PUSH1 0x4 CALLDATALOAD PUSH2 0x7DC PUSH2 0xE47 JUMP JUMPDEST SWAP1 PUSH1 0x44 CALLDATALOAD SWAP2 PUSH1 0x64 CALLDATALOAD PUSH1 0x4 DUP2 LT ISZERO PUSH2 0x1A3 JUMPI PUSH2 0x7F5 PUSH2 0x10BF JUMP JUMPDEST PUSH2 0x7FD PUSH2 0x107B JUMP JUMPDEST PUSH1 0x1 PUSH1 0x1 PUSH1 0xA0 SHL SUB SWAP2 DUP3 AND SWAP4 PUSH2 0x814 DUP6 ISZERO ISZERO PUSH2 0xEE4 JUMP JUMPDEST PUSH2 0x81F DUP2 ISZERO ISZERO PUSH2 0xF24 JUMP JUMPDEST PUSH2 0x82D PUSH1 0xFF PUSH2 0x516 DUP5 PUSH2 0xE73 JUMP JUMPDEST PUSH1 0x2 PUSH2 0x838 DUP4 PUSH2 0xE73 JUMP JUMPDEST ADD SLOAD DUP2 LT ISZERO DUP1 PUSH2 0xA15 JUMPI JUMPDEST PUSH2 0x84C SWAP1 PUSH2 0xFBC JUMP JUMPDEST PUSH2 0x854 PUSH2 0xFFE JUMP JUMPDEST DUP5 DUP2 MSTORE PUSH1 0x20 SWAP3 DUP4 DUP3 ADD SWAP2 CALLER DUP4 MSTORE PUSH1 0x40 DUP2 ADD SWAP6 DUP9 DUP8 MSTORE DUP8 PUSH1 0x60 DUP4 ADD SWAP5 DUP7 DUP7 MSTORE PUSH1 0x80 DUP5 ADD SWAP3 PUSH2 0x881 DUP7 DUP6 PUSH2 0x101F JUMP JUMPDEST PUSH1 0xA0 DUP6 ADD SWAP7 PUSH1 0x0 DUP9 MSTORE PUSH1 0xC0 DUP7 ADD SWAP11 DUP10 DUP13 MSTORE PUSH1 0xE0 DUP8 ADD SWAP4 PUSH1 0x0 DUP6 MSTORE PUSH2 0x100 DUP9 ADD SWAP4 PUSH1 0x0 DUP6 MSTORE PUSH2 0x120 DUP10 ADD SWAP7 TIMESTAMP DUP9 MSTORE PUSH1 0x0 MSTORE PUSH1 0x4 DUP14 MSTORE PUSH1 0x40 PUSH1 0x0 KECCAK256 SWAP9 MLOAD DUP10 SSTORE DUP1 PUSH1 0x1 DUP11 ADD SWAP3 MLOAD AND SWAP2 PUSH12 0xFFFFFFFFFFFFFFFFFFFFFFFF PUSH1 0xA0 SHL SWAP3 DUP4 DUP3 SLOAD AND OR SWAP1 SSTORE PUSH1 0x2 DUP10 ADD SWAP3 MLOAD AND SWAP1 DUP3 SLOAD AND OR SWAP1 SSTORE MLOAD PUSH1 0x3 DUP7 ADD SSTORE PUSH1 0x4 DUP6 ADD SWAP4 MLOAD SWAP2 PUSH1 0x4 DUP4 LT ISZERO PUSH2 0x76D JUMPI PUSH1 0xFF SWAP11 PUSH1 0x1 SWAP9 PUSH1 0x9 SWAP7 PUSH2 0x946 SWAP6 DUP15 NOT SWAP15 DUP16 DUP4 SLOAD AND SWAP2 AND OR SWAP1 SSTORE MLOAD PUSH1 0x5 DUP9 ADD SSTORE MLOAD PUSH1 0x6 DUP8 ADD SSTORE MLOAD PUSH1 0x7 DUP7 ADD SSTORE MLOAD ISZERO ISZERO PUSH1 0x8 DUP6 ADD SWAP1 PUSH1 0xFF DUP1 NOT DUP4 SLOAD AND SWAP2 ISZERO ISZERO AND OR SWAP1 SSTORE JUMP JUMPDEST MLOAD SWAP2 ADD SSTORE DUP7 PUSH1 0x40 MLOAD DUP5 DUP2 MSTORE PUSH2 0x95D DUP7 DUP3 ADD DUP5 PUSH2 0xE3A JUMP JUMPDEST PUSH1 0x0 PUSH1 0x40 DUP3 ADD MSTORE DUP5 PUSH1 0x60 DUP3 ADD MSTORE PUSH1 0x0 PUSH1 0x80 DUP3 ADD MSTORE DUP8 PUSH32 0xE48ACCF3CF242EF139D88C03DDDD8F8B3C40C61FBA1DA3E864CC19B628095026 PUSH1 0xA0 CALLER SWAP4 LOG4 EQ PUSH2 0x9A3 JUMPI PUSH1 0x1 DUP1 SSTORE STOP JUMPDEST PUSH32 0xA7B31F0F3731DA4B3C94C7D84ACB277EE788CDA12F626E14C6BAA74670DC5A07 SWAP3 PUSH2 0x9D1 DUP3 CALLVALUE LT ISZERO PUSH2 0x102B JUMP JUMPDEST DUP6 PUSH1 0x0 MSTORE PUSH1 0x5 DUP4 MSTORE PUSH1 0x40 PUSH1 0x0 KECCAK256 PUSH2 0x9E9 DUP4 DUP3 SLOAD PUSH2 0x106E JUMP JUMPDEST SWAP1 SSTORE DUP5 PUSH1 0x0 MSTORE PUSH1 0x4 DUP4 MSTORE PUSH1 0x1 PUSH1 0x8 PUSH1 0x40 PUSH1 0x0 KECCAK256 ADD SWAP2 DUP3 SLOAD AND OR SWAP1 SSTORE PUSH1 0x40 MLOAD SWAP1 DUP2 MSTORE LOG3 DUP1 DUP1 DUP1 DUP1 DUP1 PUSH2 0x6D7 JUMP JUMPDEST POP PUSH2 0x84C PUSH1 0x3 PUSH2 0xA24 DUP5 PUSH2 0xE73 JUMP JUMPDEST ADD SLOAD DUP3 GT ISZERO SWAP1 POP PUSH2 0x843 JUMP JUMPDEST CALLVALUE PUSH2 0x1A3 JUMPI PUSH1 0x20 DUP1 PUSH1 0x3 NOT CALLDATASIZE ADD SLT PUSH2 0x1A3 JUMPI PUSH1 0x4 CALLDATALOAD DUP1 PUSH1 0x0 MSTORE PUSH1 0x4 DUP3 MSTORE PUSH1 0x40 PUSH1 0x0 KECCAK256 SWAP1 PUSH1 0x8 DUP3 ADD SWAP3 DUP4 SLOAD SWAP4 PUSH1 0xFF DUP6 AND PUSH2 0xB1F JUMPI PUSH1 0x4 DUP5 ADD SLOAD PUSH1 0x1 PUSH1 0x1 PUSH1 0xA0 SHL SUB SWAP2 SWAP1 DUP3 SWAP1 PUSH2 0xA80 SWAP1 PUSH1 0xFF AND PUSH2 0xE73 JUMP JUMPDEST SLOAD AND CALLER SUB PUSH2 0xAEB JUMPI PUSH1 0x1 PUSH32 0xA7B31F0F3731DA4B3C94C7D84ACB277EE788CDA12F626E14C6BAA74670DC5A07 SWAP5 SWAP6 SWAP7 PUSH1 0xFF NOT AND OR SWAP1 SSTORE PUSH1 0x3 DUP6 ADD SWAP5 PUSH1 0x2 DUP7 SLOAD SWAP2 ADD SWAP1 DUP3 DUP3 SLOAD AND PUSH1 0x0 MSTORE PUSH1 0x5 DUP5 MSTORE PUSH2 0xADC PUSH1 0x40 PUSH1 0x0 KECCAK256 SWAP2 DUP3 SLOAD PUSH2 0x106E JUMP JUMPDEST SWAP1 SSTORE SLOAD AND SWAP4 SLOAD PUSH1 0x40 MLOAD SWAP1 DUP2 MSTORE LOG3 STOP JUMPDEST PUSH1 0x40 MLOAD PUSH3 0x461BCD PUSH1 0xE5 SHL DUP2 MSTORE PUSH1 0x4 DUP2 ADD DUP5 SWAP1 MSTORE PUSH1 0xC PUSH1 0x24 DUP3 ADD MSTORE PUSH12 0x155B985D5D1A1BDC9A5E9959 PUSH1 0xA2 SHL PUSH1 0x44 DUP3 ADD MSTORE PUSH1 0x64 SWAP1 REVERT JUMPDEST PUSH1 0x40 MLOAD PUSH3 0x461BCD PUSH1 0xE5 SHL DUP2 MSTORE PUSH1 0x4 DUP2 ADD DUP4 SWAP1 MSTORE PUSH1 0x19 PUSH1 0x24 DUP3 ADD MSTORE PUSH32 0x5061796D656E7420616C726561647920636F6D706C6574656400000000000000 PUSH1 0x44 DUP3 ADD MSTORE PUSH1 0x64 SWAP1 REVERT JUMPDEST CALLVALUE PUSH2 0x1A3 JUMPI PUSH1 0x0 CALLDATASIZE PUSH1 0x3 NOT ADD SLT PUSH2 0x1A3 JUMPI PUSH2 0xB7D PUSH2 0xE8C JUMP JUMPDEST PUSH1 0x2 SLOAD PUSH1 0xFF DUP2 AND ISZERO PUSH2 0xBBC JUMPI PUSH1 0xFF NOT AND PUSH1 0x2 SSTORE PUSH32 0x5DB9EE0A495BF2E6FF9C91A7834C1BA4FDD244A5E8AA4E537BD38AEAE4B073AA PUSH1 0x20 PUSH1 0x40 MLOAD CALLER DUP2 MSTORE LOG1 STOP JUMPDEST PUSH1 0x40 MLOAD PUSH3 0x461BCD PUSH1 0xE5 SHL DUP2 MSTORE PUSH1 0x20 PUSH1 0x4 DUP3 ADD MSTORE PUSH1 0x14 PUSH1 0x24 DUP3 ADD MSTORE PUSH20 0x14185D5CD8589B194E881B9BDD081C185D5CD959 PUSH1 0x62 SHL PUSH1 0x44 DUP3 ADD MSTORE PUSH1 0x64 SWAP1 REVERT JUMPDEST CALLVALUE PUSH2 0x1A3 JUMPI PUSH1 0x20 CALLDATASIZE PUSH1 0x3 NOT ADD SLT PUSH2 0x1A3 JUMPI PUSH1 0x4 CALLDATALOAD PUSH2 0xC14 PUSH2 0x10BF JUMP JUMPDEST CALLER PUSH1 0x0 MSTORE PUSH1 0x5 PUSH1 0x20 MSTORE PUSH2 0xC2E DUP2 PUSH1 0x40 PUSH1 0x0 KECCAK256 SLOAD LT ISZERO PUSH2 0x1115 JUMP JUMPDEST CALLER PUSH1 0x0 MSTORE PUSH1 0x5 PUSH1 0x20 MSTORE PUSH1 0x40 PUSH1 0x0 KECCAK256 DUP1 SLOAD SWAP2 DUP1 DUP4 SUB SWAP3 DUP4 GT PUSH2 0xC60 JUMPI PUSH1 0x0 DUP1 DUP1 DUP1 SWAP4 DUP7 PUSH2 0x6D7 SWAP7 SSTORE CALLER GAS CALL PUSH2 0x3D4 PUSH2 0x1158 JUMP JUMPDEST PUSH4 0x4E487B71 PUSH1 0xE0 SHL PUSH1 0x0 MSTORE PUSH1 0x11 PUSH1 0x4 MSTORE PUSH1 0x24 PUSH1 0x0 REVERT JUMPDEST CALLVALUE PUSH2 0x1A3 JUMPI PUSH1 0x20 CALLDATASIZE PUSH1 0x3 NOT ADD SLT PUSH2 0x1A3 JUMPI PUSH1 0x1 PUSH1 0x1 PUSH1 0xA0 SHL SUB PUSH2 0xC97 PUSH2 0xE5D JUMP JUMPDEST AND PUSH1 0x0 MSTORE PUSH1 0x5 PUSH1 0x20 MSTORE PUSH1 0x20 PUSH1 0x40 PUSH1 0x0 KECCAK256 SLOAD PUSH1 0x40 MLOAD SWAP1 DUP2 MSTORE RETURN JUMPDEST CALLVALUE PUSH2 0x1A3 JUMPI PUSH1 0xC0 CALLDATASIZE PUSH1 0x3 NOT ADD SLT PUSH2 0x1A3 JUMPI PUSH1 0x4 CALLDATALOAD PUSH1 0x4 DUP2 LT ISZERO PUSH2 0x1A3 JUMPI PUSH2 0xCD5 PUSH2 0xE47 JUMP JUMPDEST SWAP1 PUSH1 0x44 CALLDATALOAD SWAP1 DUP2 ISZERO ISZERO DUP1 SWAP3 SUB PUSH2 0x1A3 JUMPI PUSH2 0xCEC PUSH2 0xE8C JUMP JUMPDEST PUSH1 0x40 MLOAD SWAP3 PUSH1 0xA0 DUP5 ADD SWAP3 DUP5 DUP5 LT PUSH8 0xFFFFFFFFFFFFFFFF DUP6 GT OR PUSH2 0xD7D JUMPI PUSH1 0x3 SWAP4 PUSH1 0x40 MSTORE PUSH1 0x1 DUP1 PUSH1 0xA0 SHL SUB DUP1 SWAP3 AND DUP6 MSTORE PUSH1 0x20 DUP6 ADD SWAP1 DUP2 MSTORE PUSH1 0x40 DUP6 ADD SWAP1 PUSH1 0x64 CALLDATALOAD DUP3 MSTORE PUSH1 0x60 DUP7 ADD SWAP3 PUSH1 0x84 CALLDATALOAD DUP5 MSTORE PUSH2 0xD47 PUSH1 0x80 DUP9 ADD SWAP6 PUSH1 0xA4 CALLDATALOAD DUP8 MSTORE PUSH2 0xE73 JUMP JUMPDEST SWAP7 MLOAD DUP8 SLOAD SWAP3 MLOAD PUSH1 0x1 PUSH1 0x1 PUSH1 0xA8 SHL SUB NOT SWAP1 SWAP4 AND SWAP2 AND OR SWAP1 ISZERO ISZERO PUSH1 0xA0 SHL PUSH1 0xFF PUSH1 0xA0 SHL AND OR DUP6 SSTORE MLOAD PUSH1 0x1 DUP6 ADD SSTORE MLOAD PUSH1 0x2 DUP5 ADD SSTORE MLOAD SWAP2 ADD SSTORE STOP JUMPDEST PUSH4 0x4E487B71 PUSH1 0xE0 SHL PUSH1 0x0 MSTORE PUSH1 0x41 PUSH1 0x4 MSTORE PUSH1 0x24 PUSH1 0x0 REVERT JUMPDEST CALLVALUE PUSH2 0x1A3 JUMPI PUSH1 0x20 CALLDATASIZE PUSH1 0x3 NOT ADD SLT PUSH2 0x1A3 JUMPI PUSH2 0x140 SWAP1 PUSH1 0x4 CALLDATALOAD PUSH1 0x0 MSTORE PUSH1 0x4 PUSH1 0x20 MSTORE PUSH1 0x40 PUSH1 0x0 KECCAK256 DUP1 SLOAD SWAP1 PUSH1 0x1 DUP1 PUSH1 0xA0 SHL SUB DUP1 PUSH1 0x1 DUP4 ADD SLOAD AND SWAP1 PUSH1 0x2 DUP4 ADD SLOAD AND PUSH1 0x3 DUP4 ADD SLOAD PUSH2 0xE1B PUSH1 0xFF PUSH1 0x4 DUP7 ADD SLOAD AND PUSH1 0x5 DUP7 ADD SLOAD SWAP3 PUSH1 0x6 DUP8 ADD SLOAD SWAP5 PUSH1 0x7 DUP9 ADD SLOAD SWAP7 PUSH1 0x9 PUSH1 0xFF PUSH1 0x8 DUP12 ADD SLOAD AND SWAP10 ADD SLOAD SWAP10 DUP12 MSTORE PUSH1 0x20 DUP12 ADD MSTORE PUSH1 0x40 DUP11 ADD MSTORE PUSH1 0x60 DUP10 ADD MSTORE PUSH1 0x80 DUP9 ADD SWAP1 PUSH2 0xE3A JUMP JUMPDEST PUSH1 0xA0 DUP7 ADD MSTORE PUSH1 0xC0 DUP6 ADD MSTORE PUSH1 0xE0 DUP5 ADD MSTORE ISZERO ISZERO PUSH2 0x100 DUP4 ADD MSTORE PUSH2 0x120 DUP3 ADD MSTORE RETURN JUMPDEST SWAP1 PUSH1 0x4 DUP3 LT ISZERO PUSH2 0x76D JUMPI MSTORE JUMP JUMPDEST PUSH1 0x24 CALLDATALOAD SWAP1 PUSH1 0x1 PUSH1 0x1 PUSH1 0xA0 SHL SUB DUP3 AND DUP3 SUB PUSH2 0x1A3 JUMPI JUMP JUMPDEST PUSH1 0x4 CALLDATALOAD SWAP1 PUSH1 0x1 PUSH1 0x1 PUSH1 0xA0 SHL SUB DUP3 AND DUP3 SUB PUSH2 0x1A3 JUMPI JUMP JUMPDEST PUSH1 0x4 DUP2 LT ISZERO PUSH2 0x76D JUMPI PUSH1 0x0 MSTORE PUSH1 0x3 PUSH1 0x20 MSTORE PUSH1 0x40 PUSH1 0x0 KECCAK256 SWAP1 JUMP JUMPDEST PUSH1 0x0 SLOAD PUSH1 0x1 PUSH1 0x1 PUSH1 0xA0 SHL SUB AND CALLER SUB PUSH2 0xEA0 JUMPI JUMP JUMPDEST PUSH1 0x64 PUSH1 0x40 MLOAD PUSH3 0x461BCD PUSH1 0xE5 SHL DUP2 MSTORE PUSH1 0x20 PUSH1 0x4 DUP3 ADD MSTORE PUSH1 0x20 PUSH1 0x24 DUP3 ADD MSTORE PUSH32 0x4F776E61626C653A2063616C6C6572206973206E6F7420746865206F776E6572 PUSH1 0x44 DUP3 ADD MSTORE REVERT JUMPDEST ISZERO PUSH2 0xEEB JUMPI JUMP JUMPDEST PUSH1 0x40 MLOAD PUSH3 0x461BCD PUSH1 0xE5 SHL DUP2 MSTORE PUSH1 0x20 PUSH1 0x4 DUP3 ADD MSTORE PUSH1 0x11 PUSH1 0x24 DUP3 ADD MSTORE PUSH17 0x125B9D985B1A59081C9958DA5C1A595B9D PUSH1 0x7A SHL PUSH1 0x44 DUP3 ADD MSTORE PUSH1 0x64 SWAP1 REVERT JUMPDEST ISZERO PUSH2 0xF2B JUMPI JUMP JUMPDEST PUSH1 0x40 MLOAD PUSH3 0x461BCD PUSH1 0xE5 SHL DUP2 MSTORE PUSH1 0x20 PUSH1 0x4 DUP3 ADD MSTORE PUSH1 0x1D PUSH1 0x24 DUP3 ADD MSTORE PUSH32 0x416D6F756E74206D7573742062652067726561746572207468616E2030000000 PUSH1 0x44 DUP3 ADD MSTORE PUSH1 0x64 SWAP1 REVERT JUMPDEST ISZERO PUSH2 0xF77 JUMPI JUMP JUMPDEST PUSH1 0x40 MLOAD PUSH3 0x461BCD PUSH1 0xE5 SHL DUP2 MSTORE PUSH1 0x20 PUSH1 0x4 DUP3 ADD MSTORE PUSH1 0x1A PUSH1 0x24 DUP3 ADD MSTORE PUSH32 0x5061796D656E74206368616E6E656C206E6F7420616374697665000000000000 PUSH1 0x44 DUP3 ADD MSTORE PUSH1 0x64 SWAP1 REVERT JUMPDEST ISZERO PUSH2 0xFC3 JUMPI JUMP JUMPDEST PUSH1 0x40 MLOAD PUSH3 0x461BCD PUSH1 0xE5 SHL DUP2 MSTORE PUSH1 0x20 PUSH1 0x4 DUP3 ADD MSTORE PUSH1 0x13 PUSH1 0x24 DUP3 ADD MSTORE PUSH19 0x416D6F756E74206F7574206F662072616E6765 PUSH1 0x68 SHL PUSH1 0x44 DUP3 ADD MSTORE PUSH1 0x64 SWAP1 REVERT JUMPDEST PUSH1 0x40 MLOAD SWAP1 PUSH2 0x140 DUP3 ADD DUP3 DUP2 LT PUSH8 0xFFFFFFFFFFFFFFFF DUP3 GT OR PUSH2 0xD7D JUMPI PUSH1 0x40 MSTORE JUMP JUMPDEST PUSH1 0x4 DUP3 LT ISZERO PUSH2 0x76D JUMPI MSTORE JUMP JUMPDEST ISZERO PUSH2 0x1032 JUMPI JUMP JUMPDEST PUSH1 0x40 MLOAD PUSH3 0x461BCD PUSH1 0xE5 SHL DUP2 MSTORE PUSH1 0x20 PUSH1 0x4 DUP3 ADD MSTORE PUSH1 0x14 PUSH1 0x24 DUP3 ADD MSTORE PUSH20 0x125B9CDD59999A58DA595B9D081C185E5B595B9D PUSH1 0x62 SHL PUSH1 0x44 DUP3 ADD MSTORE PUSH1 0x64 SWAP1 REVERT JUMPDEST SWAP2 SWAP1 DUP3 ADD DUP1 SWAP3 GT PUSH2 0xC60 JUMPI JUMP JUMPDEST PUSH1 0xFF PUSH1 0x2 SLOAD AND PUSH2 0x1087 JUMPI JUMP JUMPDEST PUSH1 0x40 MLOAD PUSH3 0x461BCD PUSH1 0xE5 SHL DUP2 MSTORE PUSH1 0x20 PUSH1 0x4 DUP3 ADD MSTORE PUSH1 0x10 PUSH1 0x24 DUP3 ADD MSTORE PUSH16 0x14185D5CD8589B194E881C185D5CD959 PUSH1 0x82 SHL PUSH1 0x44 DUP3 ADD MSTORE PUSH1 0x64 SWAP1 REVERT JUMPDEST PUSH1 0x2 PUSH1 0x1 SLOAD EQ PUSH2 0x10D0 JUMPI PUSH1 0x2 PUSH1 0x1 SSTORE JUMP JUMPDEST PUSH1 0x40 MLOAD PUSH3 0x461BCD PUSH1 0xE5 SHL DUP2 MSTORE PUSH1 0x20 PUSH1 0x4 DUP3 ADD MSTORE PUSH1 0x1F PUSH1 0x24 DUP3 ADD MSTORE PUSH32 0x5265656E7472616E637947756172643A207265656E7472616E742063616C6C00 PUSH1 0x44 DUP3 ADD MSTORE PUSH1 0x64 SWAP1 REVERT JUMPDEST ISZERO PUSH2 0x111C JUMPI JUMP JUMPDEST PUSH1 0x40 MLOAD PUSH3 0x461BCD PUSH1 0xE5 SHL DUP2 MSTORE PUSH1 0x20 PUSH1 0x4 DUP3 ADD MSTORE PUSH1 0x14 PUSH1 0x24 DUP3 ADD MSTORE PUSH20 0x496E73756666696369656E742062616C616E6365 PUSH1 0x60 SHL PUSH1 0x44 DUP3 ADD MSTORE PUSH1 0x64 SWAP1 REVERT JUMPDEST RETURNDATASIZE ISZERO PUSH2 0x119E JUMPI PUSH8 0xFFFFFFFFFFFFFFFF SWAP1 RETURNDATASIZE DUP3 DUP2 GT PUSH2 0xD7D JUMPI PUSH1 0x40 MLOAD SWAP3 PUSH1 0x1F DUP3 ADD PUSH1 0x1F NOT SWAP1 DUP2 AND PUSH1 0x3F ADD AND DUP5 ADD SWAP1 DUP2 GT DUP5 DUP3 LT OR PUSH2 0xD7D JUMPI PUSH1 0x40 MSTORE DUP3 MSTORE RETURNDATASIZE PUSH1 0x0 PUSH1 0x20 DUP5 ADD RETURNDATACOPY JUMP JUMPDEST PUSH1 0x60 SWAP1 JUMP JUMPDEST ISZERO PUSH2 0x11AA JUMPI JUMP JUMPDEST PUSH1 0x40 MLOAD PUSH3 0x461BCD PUSH1 0xE5 SHL DUP2 MSTORE PUSH1 0x20 PUSH1 0x4 DUP3 ADD MSTORE PUSH1 0xF PUSH1 0x24 DUP3 ADD MSTORE PUSH15 0x151C985B9CD9995C8819985A5B1959 PUSH1 0x8A SHL PUSH1 0x44 DUP3 ADD MSTORE PUSH1 0x64 SWAP1 REVERT INVALID LOG2 PUSH5 0x6970667358 0x22 SLT KECCAK256 PUSH31 0xE76F0D2125A7EA39D09BBC40D30120006DCACA498FD8E0BD54CB544DC7F77A PUSH5 0x736F6C6343 STOP ADDMOD EQ STOP CALLER "},"methodIdentifiers":{"balances(address)":"27e235e3","completePayment(bytes32)":"47ca8a8b","emergencyWithdraw(address,uint256)":"95ccea67","getPayment(bytes32)":"e66eefc8","owner()":"8da5cb5b","pause()":"8456cb59","paused()":"5c975abb","paymentChannels(uint8)":"e0db06c5","payments(bytes32)":"0716326d","renounceOwnership()":"715018a6","routePayment(bytes32,address,uint256,uint8,bytes32,uint256,uint256)":"6ff0095c","routePaymentLegacy(bytes32,address,uint256,uint8)":"532796c1","setPaymentChannel(uint8,address,bool,uint256,uint256,uint256)":"1893fa0a","transferOwnership(address)":"f2fde38b","unpause()":"3f4ba83a","withdraw(uint256)":"2e1a7d4d"}}}}}