{"contracts/X402Adapter.sol":{"X402Adapter":{"abi":[{"inputs":[{"internalType":"address payable","name":"_paymentRouter","type":"address"}],"stateMutability":"nonpayable","type":"constructor"},{"inputs":[],"name":"InvalidShortString","type":"error"},{"inputs":[{"internalType":"string","name":"str","type":"string"}],"name":"StringTooLong","type":"error"},{"anonymous":false,"inputs":[],"name":"EIP712DomainChanged","type":"event"},{"anonymous":false,"inputs":[{"indexed":true,"internalType":"address","name":"previousOwner","type":"address"},{"indexed":true,"internalType":"address","name":"newOwner","type":"address"}],"name":"OwnershipTransferred","type":"event"},{"anonymous":false,"inputs":[{"indexed":false,"internalType":"address","name":"account","type":"address"}],"name":"Paused","type":"event"},{"anonymous":false,"inputs":[{"indexed":false,"internalType":"address","name":"account","type":"address"}],"name":"Unpaused","type":"event"},{"anonymous":false,"inputs":[{"indexed":true,"internalType":"bytes32","name":"sessionId","type":"bytes32"},{"indexed":true,"internalType":"bytes32","name":"paymentId","type":"bytes32"},{"indexed":true,"internalType":"address","name":"recipient","type":"address"},{"indexed":false,"internalType":"uint256","name":"amount","type":"uint256"},{"indexed":false,"internalType":"uint256","name":"gasSaved","type":"uint256"}],"name":"X402PaymentExecuted","type":"event"},{"anonymous":false,"inputs":[{"indexed":true,"internalType":"bytes32","name":"sessionId","type":"bytes32"},{"indexed":true,"internalType":"bytes32","name":"paymentId","type":"bytes32"},{"indexed":true,"internalType":"address","name":"payer","type":"address"},{"indexed":false,"internalType":"uint256","name":"amount","type":"uint256"}],"name":"X402SessionCreated","type":"event"},{"inputs":[],"name":"DEFAULT_GAS_SAVED","outputs":[{"internalType":"uint256","name":"","type":"uint256"}],"stateMutability":"view","type":"function"},{"inputs":[],"name":"PAYMENT_TYPEHASH","outputs":[{"internalType":"bytes32","name":"","type":"bytes32"}],"stateMutability":"view","type":"function"},{"inputs":[{"internalType":"bytes32","name":"paymentId","type":"bytes32"},{"internalType":"address","name":"recipient","type":"address"},{"internalType":"uint256","name":"amount","type":"uint256"},{"internalType":"bytes","name":"compressedData","type":"bytes"},{"internalType":"uint256","name":"expiresAt","type":"uint256"}],"name":"createSession","outputs":[{"internalType":"bytes32","name":"","type":"bytes32"}],"stateMutability":"nonpayable","type":"function"},{"inputs":[],"name":"eip712Domain","outputs":[{"internalType":"bytes1","name":"fields","type":"bytes1"},{"internalType":"string","name":"name","type":"string"},{"internalType":"string","name":"version","type":"string"},{"internalType":"uint256","name":"chainId","type":"uint256"},{"internalType":"address","name":"verifyingContract","type":"address"},{"internalType":"bytes32","name":"salt","type":"bytes32"},{"internalType":"uint256[]","name":"extensions","type":"uint256[]"}],"stateMutability":"view","type":"function"},{"inputs":[{"internalType":"address","name":"to","type":"address"},{"internalType":"uint256","name":"amount","type":"uint256"}],"name":"emergencyWithdraw","outputs":[],"stateMutability":"nonpayable","type":"function"},{"inputs":[{"internalType":"bytes32","name":"sessionId","type":"bytes32"},{"internalType":"bytes","name":"signature","type":"bytes"}],"name":"executePayment","outputs":[],"stateMutability":"nonpayable","type":"function"},{"inputs":[],"name":"getDomainSeparator","outputs":[{"internalType":"bytes32","name":"","type":"bytes32"}],"stateMutability":"view","type":"function"},{"inputs":[{"internalType":"bytes32","name":"sessionId","type":"bytes32"}],"name":"getSession","outputs":[{"components":[{"internalType":"bytes32","name":"sessionId","type":"bytes32"},{"internalType":"bytes32","name":"paymentId","type":"bytes32"},{"internalType":"address","name":"payer","type":"address"},{"internalType":"address","name":"recipient","type":"address"},{"internalType":"uint256","name":"amount","type":"uint256"},{"internalType":"bytes","name":"compressedData","type":"bytes"},{"internalType":"bool","name":"executed","type":"bool"},{"internalType":"uint256","name":"createdAt","type":"uint256"},{"internalType":"uint256","name":"expiresAt","type":"uint256"}],"internalType":"struct X402Adapter.X402Session","name":"","type":"tuple"}],"stateMutability":"view","type":"function"},{"inputs":[],"name":"owner","outputs":[{"internalType":"address","name":"","type":"address"}],"stateMutability":"view","type":"function"},{"inputs":[],"name":"pause","outputs":[],"stateMutability":"nonpayable","type":"function"},{"inputs":[],"name":"paused","outputs":[{"internalType":"bool","name":"","type":"bool"}],"stateMutability":"view","type":"function"},{"inputs":[],"name":"paymentRouter","outputs":[{"internalType":"contract PaymentRouter","name":"","type":"address"}],"stateMutability":"view","type":"function"},{"inputs":[],"name":"relayer","outputs":[{"internalType":"address","name":"","type":"address"}],"stateMutability":"view","type":"function"},{"inputs":[],"name":"renounceOwnership","outputs":[],"stateMutability":"nonpayable","type":"function"},{"inputs":[{"internalType":"bytes32","name":"","type":"bytes32"}],"name":"sessions","outputs":[{"internalType":"bytes32","name":"sessionId","type":"bytes32"},{"internalType":"bytes32","name":"paymentId","type":"bytes32"},{"internalType":"address","name":"payer","type":"address"},{"internalType":"address","name":"recipient","type":"address"},{"internalType":"uint256","name":"amount","type":"uint256"},{"internalType":"bytes","name":"compressedData","type":"bytes"},{"internalType":"bool","name":"executed","type":"bool"},{"internalType":"uint256","name":"createdAt","type":"uint256"},{"internalType":"uint256","name":"expiresAt","type":"uint256"}],"stateMutability":"view","type":"function"},{"inputs":[{"internalType":"address","name":"_relayer","type":"address"}],"name":"setRelayer","outputs":[],"stateMutability":"nonpayable","type":"function"},{"inputs":[{"internalType":"address","name":"newOwner","type":"address"}],"name":"transferOwnership","outputs":[],"stateMutability":"nonpayable","type":"function"},{"inputs":[],"name":"unpause","outputs":[],"stateMutability":"nonpayable","type":"function"},{"stateMutability":"payable","type":"receive"}],"evm":{"bytecode":{"linkReferences":{},"object":"61016034620001ed57601f62001d8438819003918201601f19168301926001600160401b0392909183851183861017620001f2578160209284926040978852833981010312620001ed57516001600160a01b0380821691829003620001ed578351916200006c8362000208565b600b835260208301916a2c1a181920b230b83a32b960a91b83528551620000938162000208565b600181526020810196603160f81b8852600097885460018060a01b03199433868316178b553391167f8be0079c531659141344cd1fd0a4f28419497f9722a3daafe3b4186f6b6457e08b80a36001805560ff1960025416600255620000f88762000224565b956101209687526200010a84620003fe565b97610140988952519020928360e0525190209061010098828a524660a05281519260208401947f8b73c3c69bb8fe3d512ecc4cf759cc79239f7b179b0ffacaa9a75d522b39400f86528385015260608401524660808401523060a084015260a0835260c0830198838a10908a1117620001d957508790525190206080523060c05260065416176006556117ba9384620005ca8539608051846116a3015260a0518461175e015260c0518461166d015260e051846116f201525183611718015251826102c6015251816102f00152f35b634e487b7160e01b81526041600452602490fd5b600080fd5b634e487b7160e01b600052604160045260246000fd5b604081019081106001600160401b03821117620001f257604052565b80516020919082811015620002c3575090601f8251116200026257808251920151908083106200025357501790565b82600019910360031b1b161790565b90604051809263305a27a960e01b82528060048301528251908160248401526000935b828510620002a9575050604492506000838284010152601f80199101168101030190fd5b848101820151868601604401529381019385935062000285565b6001600160401b038111620001f2576003928354926001938481811c91168015620003f3575b83821014620003dd57601f8111620003a4575b5081601f84116001146200033b57509282939183926000946200032f575b50501b9160001990841b1c191617905560ff90565b0151925038806200031a565b919083601f1981168760005284600020946000905b8883831062000389575050501062000370575b505050811b01905560ff90565b015160001983861b60f8161c1916905538808062000363565b85870151885590960195948501948793509081019062000350565b8560005284601f84600020920160051c820191601f860160051c015b828110620003d0575050620002fc565b60008155018590620003c0565b634e487b7160e01b600052602260045260246000fd5b90607f1690620002e9565b805160209190828110156200048e575090601f8251116200042d57808251920151908083106200025357501790565b90604051809263305a27a960e01b82528060048301528251908160248401526000935b82851062000474575050604492506000838284010152601f80199101168101030190fd5b848101820151868601604401529381019385935062000450565b6001600160401b038111620001f2576004928354926001938481811c91168015620005be575b83821014620005a957601f811162000570575b5081601f8411600114620005075750928293918392600094620004fb575b50501b916000199060031b1c191617905560ff90565b015192503880620004e5565b919083601f1981168760005284600020946000905b888383106200055557505050106200053b57505050811b01905560ff90565b015160001960f88460031b161c1916905538808062000363565b8587015188559096019594850194879350908101906200051c565b8560005284601f84600020920160051c820191601f860160051c015b8281106200059c575050620004c7565b600081550185906200058c565b602286634e487b7160e01b6000525260246000fd5b90607f1690620004b456fe608080604052600436101561001d575b50361561001b57600080fd5b005b600090813560e01c90816329a1403e14610f895750806339b240bd14610e345780633f4ba83a14610d9f5780635c975abb14610d7c5780636548e9bc14610cfe5780636d3298cb14610cc3578063715018a614610c6957806371df5a2b1461098f578063724f16de1461050f5780637dbd2832146104555780638406c0791461042c5780638456cb59146103d157806384b0196e146102b05780638da5cb5b1461028957806395ccea6714610200578063ed24911d146101dd578063f2fde38b146101175763ff781bbf0361000f57346101145780600319360112610114576006546040516001600160a01b039091168152602090f35b80fd5b503461011457602036600319011261011457610131610fe6565b610139611176565b6001600160a01b0390811690811561018957600054826001600160601b0360a01b821617600055167f8be0079c531659141344cd1fd0a4f28419497f9722a3daafe3b4186f6b6457e0600080a380f35b60405162461bcd60e51b815260206004820152602660248201527f4f776e61626c653a206e6577206f776e657220697320746865207a65726f206160448201526564647265737360d01b6064820152608490fd5b503461011457806003193601126101145760206101f861166a565b604051908152f35b50346101145760403660031901126101145761021a610fe6565b610222611176565b6001600160a01b03168015610250578180808061024d94602435905af16102476113d7565b50611407565b80f35b60405162461bcd60e51b8152602060048201526011602482015270125b9d985b1a59081c9958da5c1a595b9d607a1b6044820152606490fd5b5034610114578060031936011261011457546040516001600160a01b039091168152602090f35b50346101145780600319360112610114576102ea7f00000000000000000000000000000000000000000000000000000000000000006111ce565b906103147f00000000000000000000000000000000000000000000000000000000000000006112ca565b90604051906020908183019383851067ffffffffffffffff8611176103bb5792828593610371889661036398604052858552604051988998600f60f81b8a5260e0858b015260e08a0190610fa6565b9088820360408a0152610fa6565b924660608801523060808801528460a088015286840360c088015251928381520193925b8281106103a457505050500390f35b835185528695509381019392810192600101610395565b634e487b7160e01b600052604160045260246000fd5b50346101145780600319360112610114576103ea611176565b6103f2611445565b600160ff1960025416176002557f62e78cea01bee320cd4e420270b5ea74000d11b0c9f74754ebdbfc544b05a2586020604051338152a180f35b50346101145780600319360112610114576007546040516001600160a01b039091168152602090f35b5034610114576020366003190112610114576040906004358152600560205220805460018201549160018060a01b038060028301541690600383015416916104f86004820154604051906104b7826104b08160058801611069565b0383611154565b60ff600685015416956008600786015495015495604051998a998a5260208a01526040890152606088015260808701526101208060a0880152860190610fa6565b92151560c085015260e08401526101008301520390f35b50346101145760403660031901126101145760243567ffffffffffffffff811161098b57610541903690600401611001565b60019160028354146109465760028355610559611445565b6004358452600560205260408420805490811561090d5760ff6006820154166108c857600881015491824211610891576007546001600160a01b0316330361084c57604185036108075785820192835495600384019560018060a01b038754169360048601988954946040519160208301937f18af71ea01519dae87a4560df102eb0b2ed2bd9ee86826bb1d97a93e0c8102ee8552604084015260608301528660808301528560a083015260c08201524660e082015260e08152610100810181811067ffffffffffffffff8211176107f35792604261067795936106699361066f9660405251902061064961166a565b906040519161190160f01b835260028301526022820152209236916113a0565b906115a3565b919091611489565b60028401546001600160a01b039081169116036107ba5780471061077e5787808080936106a8955af16102476113d7565b6006908101805460ff19168617905554815486916001600160a01b0316803b1561077a576024839260405194859384926347ca8a8b60e01b845260048401525af1801561076f5761073f575b50549060018060a01b039054169154604051908152620186a060208201527f96e4db812578f5ab89327d345d351d8d3ee58b65746ae8eef5e3ff0f6b93bbf7604060043592a4805580f35b67ffffffffffffffff819692961161075b5760405293386106f4565b634e487b7160e01b82526041600452602482fd5b6040513d88823e3d90fd5b8280fd5b60405162461bcd60e51b8152602060048201526014602482015273496e73756666696369656e742062616c616e636560601b6044820152606490fd5b60405162461bcd60e51b8152602060048201526011602482015270496e76616c6964207369676e617475726560781b6044820152606490fd5b634e487b7160e01b8d52604160045260248dfd5b60405162461bcd60e51b815260206004820152601860248201527f496e76616c6964207369676e6174757265206c656e67746800000000000000006044820152606490fd5b60405162461bcd60e51b815260206004820152601860248201527f4f6e6c792072656c617965722063616e206578656375746500000000000000006044820152606490fd5b60405162461bcd60e51b815260206004820152600f60248201526e14d95cdcda5bdb88195e1c1a5c9959608a1b6044820152606490fd5b60405162461bcd60e51b815260206004820152601860248201527f5061796d656e7420616c726561647920657865637574656400000000000000006044820152606490fd5b60405162461bcd60e51b815260206004820152601160248201527014d95cdcda5bdb881b9bdd08199bdd5b99607a1b6044820152606490fd5b60405162461bcd60e51b815260206004820152601f60248201527f5265656e7472616e637947756172643a207265656e7472616e742063616c6c006044820152606490fd5b5080fd5b50346101145760a0366003190112610114576024356001600160a01b03811680820361077a5760643567ffffffffffffffff8111610c65576109d5903690600401611001565b9092604051602081019160043583523360601b60408301526001600160601b03199060601b166054820152604435606882015242608882015260888152610a1b8161111c565b5190209260405191610a2c836110ff565b84835260208301936004358552610a5c6040850193338552606086019283526080860193604435855236916113a0565b60a0850190815260c085018890524260e0860152608435610100860152868852600560205260408820855181559551600187015592516002860180546001600160a01b03199081166001600160a01b0393841617909155915160038701805490931691161790555160048401555180519067ffffffffffffffff8211610c5157610ae9600585015461102f565b601f8111610c09575b50946020958691601f8411600114610b9857926008949281926101009592610b8d575b50508160011b916000199060031b1c19161760058501555b6006840160c0820151151560ff8019835416911617905560e08101516007850155015191015560405160443581523390827fa23a57dc5eb67a50f2daedc010fc35f9d2bcee06d0f5f8686fd0164891dfd76e8560043593a4604051908152f35b015190503880610b15565b9190600586018352878320925b601f1985168110610bf2575092600894926001926101009583601f19811610610bd9575b505050811b016005850155610b2d565b015160001960f88460031b161c19169055388080610bc9565b919288600181928685015181550194019201610ba5565b60058501875260208720601f840160051c81019160208510610c47575b601f0160051c01905b818110610c3c5750610af2565b878155600101610c2f565b9091508190610c26565b634e487b7160e01b86526041600452602486fd5b8380fd5b5034610114578060031936011261011457610c82611176565b80546001600160a01b03198116825581906001600160a01b03167f8be0079c531659141344cd1fd0a4f28419497f9722a3daafe3b4186f6b6457e08280a380f35b503461011457806003193601126101145760206040517f18af71ea01519dae87a4560df102eb0b2ed2bd9ee86826bb1d97a93e0c8102ee8152f35b503461011457602036600319011261011457610d18610fe6565b610d20611176565b6001600160a01b03168015610d45576001600160601b0360a01b600754161760075580f35b60405162461bcd60e51b815260206004820152600f60248201526e24b73b30b634b2103932b630bcb2b960891b6044820152606490fd5b5034610114578060031936011261011457602060ff600254166040519015158152f35b5034610114578060031936011261011457610db8611176565b60025460ff811615610df85760ff19166002557f5db9ee0a495bf2e6ff9c91a7834c1ba4fdd244a5e8aa4e537bd38aeae4b073aa6020604051338152a180f35b60405162461bcd60e51b815260206004820152601460248201527314185d5cd8589b194e881b9bdd081c185d5cd95960621b6044820152606490fd5b50346101145760208060031936011261098b576040805192610e55846110ff565b80845280838501528082850152806060850152806080850152606060a08501528060c08501528060e08501528061010080950152600435815260058352206040518093610ea1826110ff565b82548252600183015490848301918252600560018060a01b0380600287015416906040860191825280600388015416606087019081528160048901549360808901948552610f008a610ef96040518099819301611069565b0387611154565b60a08901958652600860ff60068c0154169a60c08b019b15158c5260e060078201549b019a8b52015497878d019889528b6040519d8e9d8e5251908d01525160408c0152511660608a0152511660808801525160a08701525192610f72610120948560c0890152610140880190610fa6565b9451151560e0870152519085015251908301520390f35b90503461098b578160031936011261098b5780620186a060209252f35b919082519283825260005b848110610fd2575050826000602080949584010152601f8019910116010190565b602081830181015184830182015201610fb1565b600435906001600160a01b0382168203610ffc57565b600080fd5b9181601f84011215610ffc5782359167ffffffffffffffff8311610ffc5760208381860195010111610ffc57565b90600182811c9216801561105f575b602083101461104957565b634e487b7160e01b600052602260045260246000fd5b91607f169161103e565b906000929180549161107a8361102f565b9182825260019384811690816000146110dc575060011461109c575b50505050565b90919394506000526020928360002092846000945b8386106110c8575050505001019038808080611096565b8054858701830152940193859082016110b1565b9294505050602093945060ff191683830152151560051b01019038808080611096565b610120810190811067ffffffffffffffff8211176103bb57604052565b60c0810190811067ffffffffffffffff8211176103bb57604052565b6040810190811067ffffffffffffffff8211176103bb57604052565b90601f8019910116810190811067ffffffffffffffff8211176103bb57604052565b6000546001600160a01b0316330361118a57565b606460405162461bcd60e51b815260206004820152602060248201527f4f776e61626c653a2063616c6c6572206973206e6f7420746865206f776e65726044820152fd5b60ff811461120c5760ff811690601f82116111fa57604051916111f083611138565b8252602082015290565b604051632cd44ac360e21b8152600490fd5b5060405160035481600061121f8361102f565b808352926001908181169081156112a85750600114611249575b5061124692500382611154565b90565b6003600090815291507fc2575a0e9e593c00f959f8c92f12db2869c3395a3b0502d05e2516446f71f85b5b84831061128d5750611246935050810160200138611239565b81935090816020925483858901015201910190918492611274565b90506020925061124694915060ff191682840152151560051b82010138611239565b60ff81146112ec5760ff811690601f82116111fa57604051916111f083611138565b506040516004548160006112ff8361102f565b808352926001908181169081156112a85750600114611325575061124692500382611154565b6004600090815291507f8a35acfbc15ff81a39ae7d344fd709f28e8600b4aa8c65c6b64bfe7fe36bd19b5b8483106113695750611246935050810160200138611239565b81935090816020925483858901015201910190918492611350565b67ffffffffffffffff81116103bb57601f01601f191660200190565b9291926113ac82611384565b916113ba6040519384611154565b829481845281830111610ffc578281602093846000960137010152565b3d15611402573d906113e882611384565b916113f66040519384611154565b82523d6000602084013e565b606090565b1561140e57565b60405162461bcd60e51b815260206004820152600f60248201526e151c985b9cd9995c8819985a5b1959608a1b6044820152606490fd5b60ff6002541661145157565b60405162461bcd60e51b815260206004820152601060248201526f14185d5cd8589b194e881c185d5cd95960821b6044820152606490fd5b600581101561158d578061149a5750565b600181036114e75760405162461bcd60e51b815260206004820152601860248201527f45434453413a20696e76616c6964207369676e617475726500000000000000006044820152606490fd5b600281036115345760405162461bcd60e51b815260206004820152601f60248201527f45434453413a20696e76616c6964207369676e6174757265206c656e677468006044820152606490fd5b60031461153d57565b60405162461bcd60e51b815260206004820152602260248201527f45434453413a20696e76616c6964207369676e6174757265202773272076616c604482015261756560f01b6064820152608490fd5b634e487b7160e01b600052602160045260246000fd5b9060418151146000146115d1576115cd916020820151906060604084015193015160001a906115db565b9091565b5050600090600290565b9291907f7fffffffffffffffffffffffffffffff5d576e7357a4501ddfe92f46681b20a0831161165e5791608094939160ff602094604051948552168484015260408301526060820152600093849182805260015afa156116515781516001600160a01b0381161561164b579190565b50600190565b50604051903d90823e3d90fd5b50505050600090600390565b307f00000000000000000000000000000000000000000000000000000000000000006001600160a01b0316148061175b575b156116c5577f000000000000000000000000000000000000000000000000000000000000000090565b60405160208101907f8b73c3c69bb8fe3d512ecc4cf759cc79239f7b179b0ffacaa9a75d522b39400f82527f000000000000000000000000000000000000000000000000000000000000000060408201527f000000000000000000000000000000000000000000000000000000000000000060608201524660808201523060a082015260a081526117558161111c565b51902090565b507f0000000000000000000000000000000000000000000000000000000000000000461461169c56fea26469706673582212209854ff752e376b8e9c585067ace42c6407c3ee7d50651220ba2d8f1e92e8132a64736f6c63430008140033","opcodes":"PUSH2 0x160 CALLVALUE PUSH3 0x1ED JUMPI PUSH1 0x1F PUSH3 0x1D84 CODESIZE DUP2 SWAP1 SUB SWAP2 DUP3 ADD PUSH1 0x1F NOT AND DUP4 ADD SWAP3 PUSH1 0x1 PUSH1 0x1 PUSH1 0x40 SHL SUB SWAP3 SWAP1 SWAP2 DUP4 DUP6 GT DUP4 DUP7 LT OR PUSH3 0x1F2 JUMPI DUP2 PUSH1 0x20 SWAP3 DUP5 SWAP3 PUSH1 0x40 SWAP8 DUP9 MSTORE DUP4 CODECOPY DUP2 ADD SUB SLT PUSH3 0x1ED JUMPI MLOAD PUSH1 0x1 PUSH1 0x1 PUSH1 0xA0 SHL SUB DUP1 DUP3 AND SWAP2 DUP3 SWAP1 SUB PUSH3 0x1ED JUMPI DUP4 MLOAD SWAP2 PUSH3 0x6C DUP4 PUSH3 0x208 JUMP JUMPDEST PUSH1 0xB DUP4 MSTORE PUSH1 0x20 DUP4 ADD SWAP2 PUSH11 0x2C1A181920B230B83A32B9 PUSH1 0xA9 SHL DUP4 MSTORE DUP6 MLOAD PUSH3 0x93 DUP2 PUSH3 0x208 JUMP JUMPDEST PUSH1 0x1 DUP2 MSTORE PUSH1 0x20 DUP2 ADD SWAP7 PUSH1 0x31 PUSH1 0xF8 SHL DUP9 MSTORE PUSH1 0x0 SWAP8 DUP9 SLOAD PUSH1 0x1 DUP1 PUSH1 0xA0 SHL SUB NOT SWAP5 CALLER DUP7 DUP4 AND OR DUP12 SSTORE CALLER SWAP2 AND PUSH32 0x8BE0079C531659141344CD1FD0A4F28419497F9722A3DAAFE3B4186F6B6457E0 DUP12 DUP1 LOG3 PUSH1 0x1 DUP1 SSTORE PUSH1 0xFF NOT PUSH1 0x2 SLOAD AND PUSH1 0x2 SSTORE PUSH3 0xF8 DUP8 PUSH3 0x224 JUMP JUMPDEST SWAP6 PUSH2 0x120 SWAP7 DUP8 MSTORE PUSH3 0x10A DUP5 PUSH3 0x3FE JUMP JUMPDEST SWAP8 PUSH2 0x140 SWAP9 DUP10 MSTORE MLOAD SWAP1 KECCAK256 SWAP3 DUP4 PUSH1 0xE0 MSTORE MLOAD SWAP1 KECCAK256 SWAP1 PUSH2 0x100 SWAP9 DUP3 DUP11 MSTORE CHAINID PUSH1 0xA0 MSTORE DUP2 MLOAD SWAP3 PUSH1 0x20 DUP5 ADD SWAP5 PUSH32 0x8B73C3C69BB8FE3D512ECC4CF759CC79239F7B179B0FFACAA9A75D522B39400F DUP7 MSTORE DUP4 DUP6 ADD MSTORE PUSH1 0x60 DUP5 ADD MSTORE CHAINID PUSH1 0x80 DUP5 ADD MSTORE ADDRESS PUSH1 0xA0 DUP5 ADD MSTORE PUSH1 0xA0 DUP4 MSTORE PUSH1 0xC0 DUP4 ADD SWAP9 DUP4 DUP11 LT SWAP1 DUP11 GT OR PUSH3 0x1D9 JUMPI POP DUP8 SWAP1 MSTORE MLOAD SWAP1 KECCAK256 PUSH1 0x80 MSTORE ADDRESS PUSH1 0xC0 MSTORE PUSH1 0x6 SLOAD AND OR PUSH1 0x6 SSTORE PUSH2 0x17BA SWAP4 DUP5 PUSH3 0x5CA DUP6 CODECOPY PUSH1 0x80 MLOAD DUP5 PUSH2 0x16A3 ADD MSTORE PUSH1 0xA0 MLOAD DUP5 PUSH2 0x175E ADD MSTORE PUSH1 0xC0 MLOAD DUP5 PUSH2 0x166D ADD MSTORE PUSH1 0xE0 MLOAD DUP5 PUSH2 0x16F2 ADD MSTORE MLOAD DUP4 PUSH2 0x1718 ADD MSTORE MLOAD DUP3 PUSH2 0x2C6 ADD MSTORE MLOAD DUP2 PUSH2 0x2F0 ADD MSTORE RETURN JUMPDEST PUSH4 0x4E487B71 PUSH1 0xE0 SHL DUP2 MSTORE PUSH1 0x41 PUSH1 0x4 MSTORE PUSH1 0x24 SWAP1 REVERT JUMPDEST PUSH1 0x0 DUP1 REVERT JUMPDEST PUSH4 0x4E487B71 PUSH1 0xE0 SHL PUSH1 0x0 MSTORE PUSH1 0x41 PUSH1 0x4 MSTORE PUSH1 0x24 PUSH1 0x0 REVERT JUMPDEST PUSH1 0x40 DUP2 ADD SWAP1 DUP2 LT PUSH1 0x1 PUSH1 0x1 PUSH1 0x40 SHL SUB DUP3 GT OR PUSH3 0x1F2 JUMPI PUSH1 0x40 MSTORE JUMP JUMPDEST DUP1 MLOAD PUSH1 0x20 SWAP2 SWAP1 DUP3 DUP2 LT ISZERO PUSH3 0x2C3 JUMPI POP SWAP1 PUSH1 0x1F DUP3 MLOAD GT PUSH3 0x262 JUMPI DUP1 DUP3 MLOAD SWAP3 ADD MLOAD SWAP1 DUP1 DUP4 LT PUSH3 0x253 JUMPI POP OR SWAP1 JUMP JUMPDEST DUP3 PUSH1 0x0 NOT SWAP2 SUB PUSH1 0x3 SHL SHL AND OR SWAP1 JUMP JUMPDEST SWAP1 PUSH1 0x40 MLOAD DUP1 SWAP3 PUSH4 0x305A27A9 PUSH1 0xE0 SHL DUP3 MSTORE DUP1 PUSH1 0x4 DUP4 ADD MSTORE DUP3 MLOAD SWAP1 DUP2 PUSH1 0x24 DUP5 ADD MSTORE PUSH1 0x0 SWAP4 JUMPDEST DUP3 DUP6 LT PUSH3 0x2A9 JUMPI POP POP PUSH1 0x44 SWAP3 POP PUSH1 0x0 DUP4 DUP3 DUP5 ADD ADD MSTORE PUSH1 0x1F DUP1 NOT SWAP2 ADD AND DUP2 ADD SUB ADD SWAP1 REVERT JUMPDEST DUP5 DUP2 ADD DUP3 ADD MLOAD DUP7 DUP7 ADD PUSH1 0x44 ADD MSTORE SWAP4 DUP2 ADD SWAP4 DUP6 SWAP4 POP PUSH3 0x285 JUMP JUMPDEST PUSH1 0x1 PUSH1 0x1 PUSH1 0x40 SHL SUB DUP2 GT PUSH3 0x1F2 JUMPI PUSH1 0x3 SWAP3 DUP4 SLOAD SWAP3 PUSH1 0x1 SWAP4 DUP5 DUP2 DUP2 SHR SWAP2 AND DUP1 ISZERO PUSH3 0x3F3 JUMPI JUMPDEST DUP4 DUP3 LT EQ PUSH3 0x3DD JUMPI PUSH1 0x1F DUP2 GT PUSH3 0x3A4 JUMPI JUMPDEST POP DUP2 PUSH1 0x1F DUP5 GT PUSH1 0x1 EQ PUSH3 0x33B JUMPI POP SWAP3 DUP3 SWAP4 SWAP2 DUP4 SWAP3 PUSH1 0x0 SWAP5 PUSH3 0x32F JUMPI JUMPDEST POP POP SHL SWAP2 PUSH1 0x0 NOT SWAP1 DUP5 SHL SHR NOT AND OR SWAP1 SSTORE PUSH1 0xFF SWAP1 JUMP JUMPDEST ADD MLOAD SWAP3 POP CODESIZE DUP1 PUSH3 0x31A JUMP JUMPDEST SWAP2 SWAP1 DUP4 PUSH1 0x1F NOT DUP2 AND DUP8 PUSH1 0x0 MSTORE DUP5 PUSH1 0x0 KECCAK256 SWAP5 PUSH1 0x0 SWAP1 JUMPDEST DUP9 DUP4 DUP4 LT PUSH3 0x389 JUMPI POP POP POP LT PUSH3 0x370 JUMPI JUMPDEST POP POP POP DUP2 SHL ADD SWAP1 SSTORE PUSH1 0xFF SWAP1 JUMP JUMPDEST ADD MLOAD PUSH1 0x0 NOT DUP4 DUP7 SHL PUSH1 0xF8 AND SHR NOT AND SWAP1 SSTORE CODESIZE DUP1 DUP1 PUSH3 0x363 JUMP JUMPDEST DUP6 DUP8 ADD MLOAD DUP9 SSTORE SWAP1 SWAP7 ADD SWAP6 SWAP5 DUP6 ADD SWAP5 DUP8 SWAP4 POP SWAP1 DUP2 ADD SWAP1 PUSH3 0x350 JUMP JUMPDEST DUP6 PUSH1 0x0 MSTORE DUP5 PUSH1 0x1F DUP5 PUSH1 0x0 KECCAK256 SWAP3 ADD PUSH1 0x5 SHR DUP3 ADD SWAP2 PUSH1 0x1F DUP7 ADD PUSH1 0x5 SHR ADD JUMPDEST DUP3 DUP2 LT PUSH3 0x3D0 JUMPI POP POP PUSH3 0x2FC JUMP JUMPDEST PUSH1 0x0 DUP2 SSTORE ADD DUP6 SWAP1 PUSH3 0x3C0 JUMP JUMPDEST PUSH4 0x4E487B71 PUSH1 0xE0 SHL PUSH1 0x0 MSTORE PUSH1 0x22 PUSH1 0x4 MSTORE PUSH1 0x24 PUSH1 0x0 REVERT JUMPDEST SWAP1 PUSH1 0x7F AND SWAP1 PUSH3 0x2E9 JUMP JUMPDEST DUP1 MLOAD PUSH1 0x20 SWAP2 SWAP1 DUP3 DUP2 LT ISZERO PUSH3 0x48E JUMPI POP SWAP1 PUSH1 0x1F DUP3 MLOAD GT PUSH3 0x42D JUMPI DUP1 DUP3 MLOAD SWAP3 ADD MLOAD SWAP1 DUP1 DUP4 LT PUSH3 0x253 JUMPI POP OR SWAP1 JUMP JUMPDEST SWAP1 PUSH1 0x40 MLOAD DUP1 SWAP3 PUSH4 0x305A27A9 PUSH1 0xE0 SHL DUP3 MSTORE DUP1 PUSH1 0x4 DUP4 ADD MSTORE DUP3 MLOAD SWAP1 DUP2 PUSH1 0x24 DUP5 ADD MSTORE PUSH1 0x0 SWAP4 JUMPDEST DUP3 DUP6 LT PUSH3 0x474 JUMPI POP POP PUSH1 0x44 SWAP3 POP PUSH1 0x0 DUP4 DUP3 DUP5 ADD ADD MSTORE PUSH1 0x1F DUP1 NOT SWAP2 ADD AND DUP2 ADD SUB ADD SWAP1 REVERT JUMPDEST DUP5 DUP2 ADD DUP3 ADD MLOAD DUP7 DUP7 ADD PUSH1 0x44 ADD MSTORE SWAP4 DUP2 ADD SWAP4 DUP6 SWAP4 POP PUSH3 0x450 JUMP JUMPDEST PUSH1 0x1 PUSH1 0x1 PUSH1 0x40 SHL SUB DUP2 GT PUSH3 0x1F2 JUMPI PUSH1 0x4 SWAP3 DUP4 SLOAD SWAP3 PUSH1 0x1 SWAP4 DUP5 DUP2 DUP2 SHR SWAP2 AND DUP1 ISZERO PUSH3 0x5BE JUMPI JUMPDEST DUP4 DUP3 LT EQ PUSH3 0x5A9 JUMPI PUSH1 0x1F DUP2 GT PUSH3 0x570 JUMPI JUMPDEST POP DUP2 PUSH1 0x1F DUP5 GT PUSH1 0x1 EQ PUSH3 0x507 JUMPI POP SWAP3 DUP3 SWAP4 SWAP2 DUP4 SWAP3 PUSH1 0x0 SWAP5 PUSH3 0x4FB JUMPI JUMPDEST POP POP SHL SWAP2 PUSH1 0x0 NOT SWAP1 PUSH1 0x3 SHL SHR NOT AND OR SWAP1 SSTORE PUSH1 0xFF SWAP1 JUMP JUMPDEST ADD MLOAD SWAP3 POP CODESIZE DUP1 PUSH3 0x4E5 JUMP JUMPDEST SWAP2 SWAP1 DUP4 PUSH1 0x1F NOT DUP2 AND DUP8 PUSH1 0x0 MSTORE DUP5 PUSH1 0x0 KECCAK256 SWAP5 PUSH1 0x0 SWAP1 JUMPDEST DUP9 DUP4 DUP4 LT PUSH3 0x555 JUMPI POP POP POP LT PUSH3 0x53B JUMPI POP POP POP DUP2 SHL ADD SWAP1 SSTORE PUSH1 0xFF SWAP1 JUMP JUMPDEST ADD MLOAD PUSH1 0x0 NOT PUSH1 0xF8 DUP5 PUSH1 0x3 SHL AND SHR NOT AND SWAP1 SSTORE CODESIZE DUP1 DUP1 PUSH3 0x363 JUMP JUMPDEST DUP6 DUP8 ADD MLOAD DUP9 SSTORE SWAP1 SWAP7 ADD SWAP6 SWAP5 DUP6 ADD SWAP5 DUP8 SWAP4 POP SWAP1 DUP2 ADD SWAP1 PUSH3 0x51C JUMP JUMPDEST DUP6 PUSH1 0x0 MSTORE DUP5 PUSH1 0x1F DUP5 PUSH1 0x0 KECCAK256 SWAP3 ADD PUSH1 0x5 SHR DUP3 ADD SWAP2 PUSH1 0x1F DUP7 ADD PUSH1 0x5 SHR ADD JUMPDEST DUP3 DUP2 LT PUSH3 0x59C JUMPI POP POP PUSH3 0x4C7 JUMP JUMPDEST PUSH1 0x0 DUP2 SSTORE ADD DUP6 SWAP1 PUSH3 0x58C JUMP JUMPDEST PUSH1 0x22 DUP7 PUSH4 0x4E487B71 PUSH1 0xE0 SHL PUSH1 0x0 MSTORE MSTORE PUSH1 0x24 PUSH1 0x0 REVERT JUMPDEST SWAP1 PUSH1 0x7F AND SWAP1 PUSH3 0x4B4 JUMP INVALID PUSH1 0x80 DUP1 PUSH1 0x40 MSTORE PUSH1 0x4 CALLDATASIZE LT ISZERO PUSH2 0x1D JUMPI JUMPDEST POP CALLDATASIZE ISZERO PUSH2 0x1B JUMPI PUSH1 0x0 DUP1 REVERT JUMPDEST STOP JUMPDEST PUSH1 0x0 SWAP1 DUP2 CALLDATALOAD PUSH1 0xE0 SHR SWAP1 DUP2 PUSH4 0x29A1403E EQ PUSH2 0xF89 JUMPI POP DUP1 PUSH4 0x39B240BD EQ PUSH2 0xE34 JUMPI DUP1 PUSH4 0x3F4BA83A EQ PUSH2 0xD9F JUMPI DUP1 PUSH4 0x5C975ABB EQ PUSH2 0xD7C JUMPI DUP1 PUSH4 0x6548E9BC EQ PUSH2 0xCFE JUMPI DUP1 PUSH4 0x6D3298CB EQ PUSH2 0xCC3 JUMPI DUP1 PUSH4 0x715018A6 EQ PUSH2 0xC69 JUMPI DUP1 PUSH4 0x71DF5A2B EQ PUSH2 0x98F JUMPI DUP1 PUSH4 0x724F16DE EQ PUSH2 0x50F JUMPI DUP1 PUSH4 0x7DBD2832 EQ PUSH2 0x455 JUMPI DUP1 PUSH4 0x8406C079 EQ PUSH2 0x42C JUMPI DUP1 PUSH4 0x8456CB59 EQ PUSH2 0x3D1 JUMPI DUP1 PUSH4 0x84B0196E EQ PUSH2 0x2B0 JUMPI DUP1 PUSH4 0x8DA5CB5B EQ PUSH2 0x289 JUMPI DUP1 PUSH4 0x95CCEA67 EQ PUSH2 0x200 JUMPI DUP1 PUSH4 0xED24911D EQ PUSH2 0x1DD JUMPI DUP1 PUSH4 0xF2FDE38B EQ PUSH2 0x117 JUMPI PUSH4 0xFF781BBF SUB PUSH2 0xF JUMPI CALLVALUE PUSH2 0x114 JUMPI DUP1 PUSH1 0x3 NOT CALLDATASIZE ADD SLT PUSH2 0x114 JUMPI PUSH1 0x6 SLOAD PUSH1 0x40 MLOAD PUSH1 0x1 PUSH1 0x1 PUSH1 0xA0 SHL SUB SWAP1 SWAP2 AND DUP2 MSTORE PUSH1 0x20 SWAP1 RETURN JUMPDEST DUP1 REVERT JUMPDEST POP CALLVALUE PUSH2 0x114 JUMPI PUSH1 0x20 CALLDATASIZE PUSH1 0x3 NOT ADD SLT PUSH2 0x114 JUMPI PUSH2 0x131 PUSH2 0xFE6 JUMP JUMPDEST PUSH2 0x139 PUSH2 0x1176 JUMP JUMPDEST PUSH1 0x1 PUSH1 0x1 PUSH1 0xA0 SHL SUB SWAP1 DUP2 AND SWAP1 DUP2 ISZERO PUSH2 0x189 JUMPI PUSH1 0x0 SLOAD DUP3 PUSH1 0x1 PUSH1 0x1 PUSH1 0x60 SHL SUB PUSH1 0xA0 SHL DUP3 AND OR PUSH1 0x0 SSTORE AND PUSH32 0x8BE0079C531659141344CD1FD0A4F28419497F9722A3DAAFE3B4186F6B6457E0 PUSH1 0x0 DUP1 LOG3 DUP1 RETURN JUMPDEST PUSH1 0x40 MLOAD PUSH3 0x461BCD PUSH1 0xE5 SHL DUP2 MSTORE PUSH1 0x20 PUSH1 0x4 DUP3 ADD MSTORE PUSH1 0x26 PUSH1 0x24 DUP3 ADD MSTORE PUSH32 0x4F776E61626C653A206E6577206F776E657220697320746865207A65726F2061 PUSH1 0x44 DUP3 ADD MSTORE PUSH6 0x646472657373 PUSH1 0xD0 SHL PUSH1 0x64 DUP3 ADD MSTORE PUSH1 0x84 SWAP1 REVERT JUMPDEST POP CALLVALUE PUSH2 0x114 JUMPI DUP1 PUSH1 0x3 NOT CALLDATASIZE ADD SLT PUSH2 0x114 JUMPI PUSH1 0x20 PUSH2 0x1F8 PUSH2 0x166A JUMP JUMPDEST PUSH1 0x40 MLOAD SWAP1 DUP2 MSTORE RETURN JUMPDEST POP CALLVALUE PUSH2 0x114 JUMPI PUSH1 0x40 CALLDATASIZE PUSH1 0x3 NOT ADD SLT PUSH2 0x114 JUMPI PUSH2 0x21A PUSH2 0xFE6 JUMP JUMPDEST PUSH2 0x222 PUSH2 0x1176 JUMP JUMPDEST PUSH1 0x1 PUSH1 0x1 PUSH1 0xA0 SHL SUB AND DUP1 ISZERO PUSH2 0x250 JUMPI DUP2 DUP1 DUP1 DUP1 PUSH2 0x24D SWAP5 PUSH1 0x24 CALLDATALOAD SWAP1 GAS CALL PUSH2 0x247 PUSH2 0x13D7 JUMP JUMPDEST POP PUSH2 0x1407 JUMP JUMPDEST DUP1 RETURN JUMPDEST PUSH1 0x40 MLOAD PUSH3 0x461BCD PUSH1 0xE5 SHL DUP2 MSTORE PUSH1 0x20 PUSH1 0x4 DUP3 ADD MSTORE PUSH1 0x11 PUSH1 0x24 DUP3 ADD MSTORE PUSH17 0x125B9D985B1A59081C9958DA5C1A595B9D PUSH1 0x7A SHL PUSH1 0x44 DUP3 ADD MSTORE PUSH1 0x64 SWAP1 REVERT JUMPDEST POP CALLVALUE PUSH2 0x114 JUMPI DUP1 PUSH1 0x3 NOT CALLDATASIZE ADD SLT PUSH2 0x114 JUMPI SLOAD PUSH1 0x40 MLOAD PUSH1 0x1 PUSH1 0x1 PUSH1 0xA0 SHL SUB SWAP1 SWAP2 AND DUP2 MSTORE PUSH1 0x20 SWAP1 RETURN JUMPDEST POP CALLVALUE PUSH2 0x114 JUMPI DUP1 PUSH1 0x3 NOT CALLDATASIZE ADD SLT PUSH2 0x114 JUMPI PUSH2 0x2EA PUSH32 0x0 PUSH2 0x11CE JUMP JUMPDEST SWAP1 PUSH2 0x314 PUSH32 0x0 PUSH2 0x12CA JUMP JUMPDEST SWAP1 PUSH1 0x40 MLOAD SWAP1 PUSH1 0x20 SWAP1 DUP2 DUP4 ADD SWAP4 DUP4 DUP6 LT PUSH8 0xFFFFFFFFFFFFFFFF DUP7 GT OR PUSH2 0x3BB JUMPI SWAP3 DUP3 DUP6 SWAP4 PUSH2 0x371 DUP9 SWAP7 PUSH2 0x363 SWAP9 PUSH1 0x40 MSTORE DUP6 DUP6 MSTORE PUSH1 0x40 MLOAD SWAP9 DUP10 SWAP9 PUSH1 0xF PUSH1 0xF8 SHL DUP11 MSTORE PUSH1 0xE0 DUP6 DUP12 ADD MSTORE PUSH1 0xE0 DUP11 ADD SWAP1 PUSH2 0xFA6 JUMP JUMPDEST SWAP1 DUP9 DUP3 SUB PUSH1 0x40 DUP11 ADD MSTORE PUSH2 0xFA6 JUMP JUMPDEST SWAP3 CHAINID PUSH1 0x60 DUP9 ADD MSTORE ADDRESS PUSH1 0x80 DUP9 ADD MSTORE DUP5 PUSH1 0xA0 DUP9 ADD MSTORE DUP7 DUP5 SUB PUSH1 0xC0 DUP9 ADD MSTORE MLOAD SWAP3 DUP4 DUP2 MSTORE ADD SWAP4 SWAP3 JUMPDEST DUP3 DUP2 LT PUSH2 0x3A4 JUMPI POP POP POP POP SUB SWAP1 RETURN JUMPDEST DUP4 MLOAD DUP6 MSTORE DUP7 SWAP6 POP SWAP4 DUP2 ADD SWAP4 SWAP3 DUP2 ADD SWAP3 PUSH1 0x1 ADD PUSH2 0x395 JUMP JUMPDEST PUSH4 0x4E487B71 PUSH1 0xE0 SHL PUSH1 0x0 MSTORE PUSH1 0x41 PUSH1 0x4 MSTORE PUSH1 0x24 PUSH1 0x0 REVERT JUMPDEST POP CALLVALUE PUSH2 0x114 JUMPI DUP1 PUSH1 0x3 NOT CALLDATASIZE ADD SLT PUSH2 0x114 JUMPI PUSH2 0x3EA PUSH2 0x1176 JUMP JUMPDEST PUSH2 0x3F2 PUSH2 0x1445 JUMP JUMPDEST PUSH1 0x1 PUSH1 0xFF NOT PUSH1 0x2 SLOAD AND OR PUSH1 0x2 SSTORE PUSH32 0x62E78CEA01BEE320CD4E420270B5EA74000D11B0C9F74754EBDBFC544B05A258 PUSH1 0x20 PUSH1 0x40 MLOAD CALLER DUP2 MSTORE LOG1 DUP1 RETURN JUMPDEST POP CALLVALUE PUSH2 0x114 JUMPI DUP1 PUSH1 0x3 NOT CALLDATASIZE ADD SLT PUSH2 0x114 JUMPI PUSH1 0x7 SLOAD PUSH1 0x40 MLOAD PUSH1 0x1 PUSH1 0x1 PUSH1 0xA0 SHL SUB SWAP1 SWAP2 AND DUP2 MSTORE PUSH1 0x20 SWAP1 RETURN JUMPDEST POP CALLVALUE PUSH2 0x114 JUMPI PUSH1 0x20 CALLDATASIZE PUSH1 0x3 NOT ADD SLT PUSH2 0x114 JUMPI PUSH1 0x40 SWAP1 PUSH1 0x4 CALLDATALOAD DUP2 MSTORE PUSH1 0x5 PUSH1 0x20 MSTORE KECCAK256 DUP1 SLOAD PUSH1 0x1 DUP3 ADD SLOAD SWAP2 PUSH1 0x1 DUP1 PUSH1 0xA0 SHL SUB DUP1 PUSH1 0x2 DUP4 ADD SLOAD AND SWAP1 PUSH1 0x3 DUP4 ADD SLOAD AND SWAP2 PUSH2 0x4F8 PUSH1 0x4 DUP3 ADD SLOAD PUSH1 0x40 MLOAD SWAP1 PUSH2 0x4B7 DUP3 PUSH2 0x4B0 DUP2 PUSH1 0x5 DUP9 ADD PUSH2 0x1069 JUMP JUMPDEST SUB DUP4 PUSH2 0x1154 JUMP JUMPDEST PUSH1 0xFF PUSH1 0x6 DUP6 ADD SLOAD AND SWAP6 PUSH1 0x8 PUSH1 0x7 DUP7 ADD SLOAD SWAP6 ADD SLOAD SWAP6 PUSH1 0x40 MLOAD SWAP10 DUP11 SWAP10 DUP11 MSTORE PUSH1 0x20 DUP11 ADD MSTORE PUSH1 0x40 DUP10 ADD MSTORE PUSH1 0x60 DUP9 ADD MSTORE PUSH1 0x80 DUP8 ADD MSTORE PUSH2 0x120 DUP1 PUSH1 0xA0 DUP9 ADD MSTORE DUP7 ADD SWAP1 PUSH2 0xFA6 JUMP JUMPDEST SWAP3 ISZERO ISZERO PUSH1 0xC0 DUP6 ADD MSTORE PUSH1 0xE0 DUP5 ADD MSTORE PUSH2 0x100 DUP4 ADD MSTORE SUB SWAP1 RETURN JUMPDEST POP CALLVALUE PUSH2 0x114 JUMPI PUSH1 0x40 CALLDATASIZE PUSH1 0x3 NOT ADD SLT PUSH2 0x114 JUMPI PUSH1 0x24 CALLDATALOAD PUSH8 0xFFFFFFFFFFFFFFFF DUP2 GT PUSH2 0x98B JUMPI PUSH2 0x541 SWAP1 CALLDATASIZE SWAP1 PUSH1 0x4 ADD PUSH2 0x1001 JUMP JUMPDEST PUSH1 0x1 SWAP2 PUSH1 0x2 DUP4 SLOAD EQ PUSH2 0x946 JUMPI PUSH1 0x2 DUP4 SSTORE PUSH2 0x559 PUSH2 0x1445 JUMP JUMPDEST PUSH1 0x4 CALLDATALOAD DUP5 MSTORE PUSH1 0x5 PUSH1 0x20 MSTORE PUSH1 0x40 DUP5 KECCAK256 DUP1 SLOAD SWAP1 DUP2 ISZERO PUSH2 0x90D JUMPI PUSH1 0xFF PUSH1 0x6 DUP3 ADD SLOAD AND PUSH2 0x8C8 JUMPI PUSH1 0x8 DUP2 ADD SLOAD SWAP2 DUP3 TIMESTAMP GT PUSH2 0x891 JUMPI PUSH1 0x7 SLOAD PUSH1 0x1 PUSH1 0x1 PUSH1 0xA0 SHL SUB AND CALLER SUB PUSH2 0x84C JUMPI PUSH1 0x41 DUP6 SUB PUSH2 0x807 JUMPI DUP6 DUP3 ADD SWAP3 DUP4 SLOAD SWAP6 PUSH1 0x3 DUP5 ADD SWAP6 PUSH1 0x1 DUP1 PUSH1 0xA0 SHL SUB DUP8 SLOAD AND SWAP4 PUSH1 0x4 DUP7 ADD SWAP9 DUP10 SLOAD SWAP5 PUSH1 0x40 MLOAD SWAP2 PUSH1 0x20 DUP4 ADD SWAP4 PUSH32 0x18AF71EA01519DAE87A4560DF102EB0B2ED2BD9EE86826BB1D97A93E0C8102EE DUP6 MSTORE PUSH1 0x40 DUP5 ADD MSTORE PUSH1 0x60 DUP4 ADD MSTORE DUP7 PUSH1 0x80 DUP4 ADD MSTORE DUP6 PUSH1 0xA0 DUP4 ADD MSTORE PUSH1 0xC0 DUP3 ADD MSTORE CHAINID PUSH1 0xE0 DUP3 ADD MSTORE PUSH1 0xE0 DUP2 MSTORE PUSH2 0x100 DUP2 ADD DUP2 DUP2 LT PUSH8 0xFFFFFFFFFFFFFFFF DUP3 GT OR PUSH2 0x7F3 JUMPI SWAP3 PUSH1 0x42 PUSH2 0x677 SWAP6 SWAP4 PUSH2 0x669 SWAP4 PUSH2 0x66F SWAP7 PUSH1 0x40 MSTORE MLOAD SWAP1 KECCAK256 PUSH2 0x649 PUSH2 0x166A JUMP JUMPDEST SWAP1 PUSH1 0x40 MLOAD SWAP2 PUSH2 0x1901 PUSH1 0xF0 SHL DUP4 MSTORE PUSH1 0x2 DUP4 ADD MSTORE PUSH1 0x22 DUP3 ADD MSTORE KECCAK256 SWAP3 CALLDATASIZE SWAP2 PUSH2 0x13A0 JUMP JUMPDEST SWAP1 PUSH2 0x15A3 JUMP JUMPDEST SWAP2 SWAP1 SWAP2 PUSH2 0x1489 JUMP JUMPDEST PUSH1 0x2 DUP5 ADD SLOAD PUSH1 0x1 PUSH1 0x1 PUSH1 0xA0 SHL SUB SWAP1 DUP2 AND SWAP2 AND SUB PUSH2 0x7BA JUMPI DUP1 SELFBALANCE LT PUSH2 0x77E JUMPI DUP8 DUP1 DUP1 DUP1 SWAP4 PUSH2 0x6A8 SWAP6 GAS CALL PUSH2 0x247 PUSH2 0x13D7 JUMP JUMPDEST PUSH1 0x6 SWAP1 DUP2 ADD DUP1 SLOAD PUSH1 0xFF NOT AND DUP7 OR SWAP1 SSTORE SLOAD DUP2 SLOAD DUP7 SWAP2 PUSH1 0x1 PUSH1 0x1 PUSH1 0xA0 SHL SUB AND DUP1 EXTCODESIZE ISZERO PUSH2 0x77A JUMPI PUSH1 0x24 DUP4 SWAP3 PUSH1 0x40 MLOAD SWAP5 DUP6 SWAP4 DUP5 SWAP3 PUSH4 0x47CA8A8B PUSH1 0xE0 SHL DUP5 MSTORE PUSH1 0x4 DUP5 ADD MSTORE GAS CALL DUP1 ISZERO PUSH2 0x76F JUMPI PUSH2 0x73F JUMPI JUMPDEST POP SLOAD SWAP1 PUSH1 0x1 DUP1 PUSH1 0xA0 SHL SUB SWAP1 SLOAD AND SWAP2 SLOAD PUSH1 0x40 MLOAD SWAP1 DUP2 MSTORE PUSH3 0x186A0 PUSH1 0x20 DUP3 ADD MSTORE PUSH32 0x96E4DB812578F5AB89327D345D351D8D3EE58B65746AE8EEF5E3FF0F6B93BBF7 PUSH1 0x40 PUSH1 0x4 CALLDATALOAD SWAP3 LOG4 DUP1 SSTORE DUP1 RETURN JUMPDEST PUSH8 0xFFFFFFFFFFFFFFFF DUP2 SWAP7 SWAP3 SWAP7 GT PUSH2 0x75B JUMPI PUSH1 0x40 MSTORE SWAP4 CODESIZE PUSH2 0x6F4 JUMP JUMPDEST PUSH4 0x4E487B71 PUSH1 0xE0 SHL DUP3 MSTORE PUSH1 0x41 PUSH1 0x4 MSTORE PUSH1 0x24 DUP3 REVERT JUMPDEST PUSH1 0x40 MLOAD RETURNDATASIZE DUP9 DUP3 RETURNDATACOPY RETURNDATASIZE SWAP1 REVERT JUMPDEST DUP3 DUP1 REVERT JUMPDEST PUSH1 0x40 MLOAD PUSH3 0x461BCD PUSH1 0xE5 SHL DUP2 MSTORE PUSH1 0x20 PUSH1 0x4 DUP3 ADD MSTORE PUSH1 0x14 PUSH1 0x24 DUP3 ADD MSTORE PUSH20 0x496E73756666696369656E742062616C616E6365 PUSH1 0x60 SHL PUSH1 0x44 DUP3 ADD MSTORE PUSH1 0x64 SWAP1 REVERT JUMPDEST PUSH1 0x40 MLOAD PUSH3 0x461BCD PUSH1 0xE5 SHL DUP2 MSTORE PUSH1 0x20 PUSH1 0x4 DUP3 ADD MSTORE PUSH1 0x11 PUSH1 0x24 DUP3 ADD MSTORE PUSH17 0x496E76616C6964207369676E6174757265 PUSH1 0x78 SHL PUSH1 0x44 DUP3 ADD MSTORE PUSH1 0x64 SWAP1 REVERT JUMPDEST PUSH4 0x4E487B71 PUSH1 0xE0 SHL DUP14 MSTORE PUSH1 0x41 PUSH1 0x4 MSTORE PUSH1 0x24 DUP14 REVERT JUMPDEST PUSH1 0x40 MLOAD PUSH3 0x461BCD PUSH1 0xE5 SHL DUP2 MSTORE PUSH1 0x20 PUSH1 0x4 DUP3 ADD MSTORE PUSH1 0x18 PUSH1 0x24 DUP3 ADD MSTORE PUSH32 0x496E76616C6964207369676E6174757265206C656E6774680000000000000000 PUSH1 0x44 DUP3 ADD MSTORE PUSH1 0x64 SWAP1 REVERT JUMPDEST PUSH1 0x40 MLOAD PUSH3 0x461BCD PUSH1 0xE5 SHL DUP2 MSTORE PUSH1 0x20 PUSH1 0x4 DUP3 ADD MSTORE PUSH1 0x18 PUSH1 0x24 DUP3 ADD MSTORE PUSH32 0x4F6E6C792072656C617965722063616E20657865637574650000000000000000 PUSH1 0x44 DUP3 ADD MSTORE PUSH1 0x64 SWAP1 REVERT JUMPDEST PUSH1 0x40 MLOAD PUSH3 0x461BCD PUSH1 0xE5 SHL DUP2 MSTORE PUSH1 0x20 PUSH1 0x4 DUP3 ADD MSTORE PUSH1 0xF PUSH1 0x24 DUP3 ADD MSTORE PUSH15 0x14D95CDCDA5BDB88195E1C1A5C9959 PUSH1 0x8A SHL PUSH1 0x44 DUP3 ADD MSTORE PUSH1 0x64 SWAP1 REVERT JUMPDEST PUSH1 0x40 MLOAD PUSH3 0x461BCD PUSH1 0xE5 SHL DUP2 MSTORE PUSH1 0x20 PUSH1 0x4 DUP3 ADD MSTORE PUSH1 0x18 PUSH1 0x24 DUP3 ADD MSTORE PUSH32 0x5061796D656E7420616C72656164792065786563757465640000000000000000 PUSH1 0x44 DUP3 ADD MSTORE PUSH1 0x64 SWAP1 REVERT JUMPDEST PUSH1 0x40 MLOAD PUSH3 0x461BCD PUSH1 0xE5 SHL DUP2 MSTORE PUSH1 0x20 PUSH1 0x4 DUP3 ADD MSTORE PUSH1 0x11 PUSH1 0x24 DUP3 ADD MSTORE PUSH17 0x14D95CDCDA5BDB881B9BDD08199BDD5B99 PUSH1 0x7A SHL PUSH1 0x44 DUP3 ADD MSTORE PUSH1 0x64 SWAP1 REVERT JUMPDEST PUSH1 0x40 MLOAD PUSH3 0x461BCD PUSH1 0xE5 SHL DUP2 MSTORE PUSH1 0x20 PUSH1 0x4 DUP3 ADD MSTORE PUSH1 0x1F PUSH1 0x24 DUP3 ADD MSTORE PUSH32 0x5265656E7472616E637947756172643A207265656E7472616E742063616C6C00 PUSH1 0x44 DUP3 ADD MSTORE PUSH1 0x64 SWAP1 REVERT JUMPDEST POP DUP1 REVERT JUMPDEST POP CALLVALUE PUSH2 0x114 JUMPI PUSH1 0xA0 CALLDATASIZE PUSH1 0x3 NOT ADD SLT PUSH2 0x114 JUMPI PUSH1 0x24 CALLDATALOAD PUSH1 0x1 PUSH1 0x1 PUSH1 0xA0 SHL SUB DUP2 AND DUP1 DUP3 SUB PUSH2 0x77A JUMPI PUSH1 0x64 CALLDATALOAD PUSH8 0xFFFFFFFFFFFFFFFF DUP2 GT PUSH2 0xC65 JUMPI PUSH2 0x9D5 SWAP1 CALLDATASIZE SWAP1 PUSH1 0x4 ADD PUSH2 0x1001 JUMP JUMPDEST SWAP1 SWAP3 PUSH1 0x40 MLOAD PUSH1 0x20 DUP2 ADD SWAP2 PUSH1 0x4 CALLDATALOAD DUP4 MSTORE CALLER PUSH1 0x60 SHL PUSH1 0x40 DUP4 ADD MSTORE PUSH1 0x1 PUSH1 0x1 PUSH1 0x60 SHL SUB NOT SWAP1 PUSH1 0x60 SHL AND PUSH1 0x54 DUP3 ADD MSTORE PUSH1 0x44 CALLDATALOAD PUSH1 0x68 DUP3 ADD MSTORE TIMESTAMP PUSH1 0x88 DUP3 ADD MSTORE PUSH1 0x88 DUP2 MSTORE PUSH2 0xA1B DUP2 PUSH2 0x111C JUMP JUMPDEST MLOAD SWAP1 KECCAK256 SWAP3 PUSH1 0x40 MLOAD SWAP2 PUSH2 0xA2C DUP4 PUSH2 0x10FF JUMP JUMPDEST DUP5 DUP4 MSTORE PUSH1 0x20 DUP4 ADD SWAP4 PUSH1 0x4 CALLDATALOAD DUP6 MSTORE PUSH2 0xA5C PUSH1 0x40 DUP6 ADD SWAP4 CALLER DUP6 MSTORE PUSH1 0x60 DUP7 ADD SWAP3 DUP4 MSTORE PUSH1 0x80 DUP7 ADD SWAP4 PUSH1 0x44 CALLDATALOAD DUP6 MSTORE CALLDATASIZE SWAP2 PUSH2 0x13A0 JUMP JUMPDEST PUSH1 0xA0 DUP6 ADD SWAP1 DUP2 MSTORE PUSH1 0xC0 DUP6 ADD DUP9 SWAP1 MSTORE TIMESTAMP PUSH1 0xE0 DUP7 ADD MSTORE PUSH1 0x84 CALLDATALOAD PUSH2 0x100 DUP7 ADD MSTORE DUP7 DUP9 MSTORE PUSH1 0x5 PUSH1 0x20 MSTORE PUSH1 0x40 DUP9 KECCAK256 DUP6 MLOAD DUP2 SSTORE SWAP6 MLOAD PUSH1 0x1 DUP8 ADD SSTORE SWAP3 MLOAD PUSH1 0x2 DUP7 ADD DUP1 SLOAD PUSH1 0x1 PUSH1 0x1 PUSH1 0xA0 SHL SUB NOT SWAP1 DUP2 AND PUSH1 0x1 PUSH1 0x1 PUSH1 0xA0 SHL SUB SWAP4 DUP5 AND OR SWAP1 SWAP2 SSTORE SWAP2 MLOAD PUSH1 0x3 DUP8 ADD DUP1 SLOAD SWAP1 SWAP4 AND SWAP2 AND OR SWAP1 SSTORE MLOAD PUSH1 0x4 DUP5 ADD SSTORE MLOAD DUP1 MLOAD SWAP1 PUSH8 0xFFFFFFFFFFFFFFFF DUP3 GT PUSH2 0xC51 JUMPI PUSH2 0xAE9 PUSH1 0x5 DUP6 ADD SLOAD PUSH2 0x102F JUMP JUMPDEST PUSH1 0x1F DUP2 GT PUSH2 0xC09 JUMPI JUMPDEST POP SWAP5 PUSH1 0x20 SWAP6 DUP7 SWAP2 PUSH1 0x1F DUP5 GT PUSH1 0x1 EQ PUSH2 0xB98 JUMPI SWAP3 PUSH1 0x8 SWAP5 SWAP3 DUP2 SWAP3 PUSH2 0x100 SWAP6 SWAP3 PUSH2 0xB8D JUMPI JUMPDEST POP POP DUP2 PUSH1 0x1 SHL SWAP2 PUSH1 0x0 NOT SWAP1 PUSH1 0x3 SHL SHR NOT AND OR PUSH1 0x5 DUP6 ADD SSTORE JUMPDEST PUSH1 0x6 DUP5 ADD PUSH1 0xC0 DUP3 ADD MLOAD ISZERO ISZERO PUSH1 0xFF DUP1 NOT DUP4 SLOAD AND SWAP2 AND OR SWAP1 SSTORE PUSH1 0xE0 DUP2 ADD MLOAD PUSH1 0x7 DUP6 ADD SSTORE ADD MLOAD SWAP2 ADD SSTORE PUSH1 0x40 MLOAD PUSH1 0x44 CALLDATALOAD DUP2 MSTORE CALLER SWAP1 DUP3 PUSH32 0xA23A57DC5EB67A50F2DAEDC010FC35F9D2BCEE06D0F5F8686FD0164891DFD76E DUP6 PUSH1 0x4 CALLDATALOAD SWAP4 LOG4 PUSH1 0x40 MLOAD SWAP1 DUP2 MSTORE RETURN JUMPDEST ADD MLOAD SWAP1 POP CODESIZE DUP1 PUSH2 0xB15 JUMP JUMPDEST SWAP2 SWAP1 PUSH1 0x5 DUP7 ADD DUP4 MSTORE DUP8 DUP4 KECCAK256 SWAP3 JUMPDEST PUSH1 0x1F NOT DUP6 AND DUP2 LT PUSH2 0xBF2 JUMPI POP SWAP3 PUSH1 0x8 SWAP5 SWAP3 PUSH1 0x1 SWAP3 PUSH2 0x100 SWAP6 DUP4 PUSH1 0x1F NOT DUP2 AND LT PUSH2 0xBD9 JUMPI JUMPDEST POP POP POP DUP2 SHL ADD PUSH1 0x5 DUP6 ADD SSTORE PUSH2 0xB2D JUMP JUMPDEST ADD MLOAD PUSH1 0x0 NOT PUSH1 0xF8 DUP5 PUSH1 0x3 SHL AND SHR NOT AND SWAP1 SSTORE CODESIZE DUP1 DUP1 PUSH2 0xBC9 JUMP JUMPDEST SWAP2 SWAP3 DUP9 PUSH1 0x1 DUP2 SWAP3 DUP7 DUP6 ADD MLOAD DUP2 SSTORE ADD SWAP5 ADD SWAP3 ADD PUSH2 0xBA5 JUMP JUMPDEST PUSH1 0x5 DUP6 ADD DUP8 MSTORE PUSH1 0x20 DUP8 KECCAK256 PUSH1 0x1F DUP5 ADD PUSH1 0x5 SHR DUP2 ADD SWAP2 PUSH1 0x20 DUP6 LT PUSH2 0xC47 JUMPI JUMPDEST PUSH1 0x1F ADD PUSH1 0x5 SHR ADD SWAP1 JUMPDEST DUP2 DUP2 LT PUSH2 0xC3C JUMPI POP PUSH2 0xAF2 JUMP JUMPDEST DUP8 DUP2 SSTORE PUSH1 0x1 ADD PUSH2 0xC2F JUMP JUMPDEST SWAP1 SWAP2 POP DUP2 SWAP1 PUSH2 0xC26 JUMP JUMPDEST PUSH4 0x4E487B71 PUSH1 0xE0 SHL DUP7 MSTORE PUSH1 0x41 PUSH1 0x4 MSTORE PUSH1 0x24 DUP7 REVERT JUMPDEST DUP4 DUP1 REVERT JUMPDEST POP CALLVALUE PUSH2 0x114 JUMPI DUP1 PUSH1 0x3 NOT CALLDATASIZE ADD SLT PUSH2 0x114 JUMPI PUSH2 0xC82 PUSH2 0x1176 JUMP JUMPDEST DUP1 SLOAD PUSH1 0x1 PUSH1 0x1 PUSH1 0xA0 SHL SUB NOT DUP2 AND DUP3 SSTORE DUP2 SWAP1 PUSH1 0x1 PUSH1 0x1 PUSH1 0xA0 SHL SUB AND PUSH32 0x8BE0079C531659141344CD1FD0A4F28419497F9722A3DAAFE3B4186F6B6457E0 DUP3 DUP1 LOG3 DUP1 RETURN JUMPDEST POP CALLVALUE PUSH2 0x114 JUMPI DUP1 PUSH1 0x3 NOT CALLDATASIZE ADD SLT PUSH2 0x114 JUMPI PUSH1 0x20 PUSH1 0x40 MLOAD PUSH32 0x18AF71EA01519DAE87A4560DF102EB0B2ED2BD9EE86826BB1D97A93E0C8102EE DUP2 MSTORE RETURN JUMPDEST POP CALLVALUE PUSH2 0x114 JUMPI PUSH1 0x20 CALLDATASIZE PUSH1 0x3 NOT ADD SLT PUSH2 0x114 JUMPI PUSH2 0xD18 PUSH2 0xFE6 JUMP JUMPDEST PUSH2 0xD20 PUSH2 0x1176 JUMP JUMPDEST PUSH1 0x1 PUSH1 0x1 PUSH1 0xA0 SHL SUB AND DUP1 ISZERO PUSH2 0xD45 JUMPI PUSH1 0x1 PUSH1 0x1 PUSH1 0x60 SHL SUB PUSH1 0xA0 SHL PUSH1 0x7 SLOAD AND OR PUSH1 0x7 SSTORE DUP1 RETURN JUMPDEST PUSH1 0x40 MLOAD PUSH3 0x461BCD PUSH1 0xE5 SHL DUP2 MSTORE PUSH1 0x20 PUSH1 0x4 DUP3 ADD MSTORE PUSH1 0xF PUSH1 0x24 DUP3 ADD MSTORE PUSH15 0x24B73B30B634B2103932B630BCB2B9 PUSH1 0x89 SHL PUSH1 0x44 DUP3 ADD MSTORE PUSH1 0x64 SWAP1 REVERT JUMPDEST POP CALLVALUE PUSH2 0x114 JUMPI DUP1 PUSH1 0x3 NOT CALLDATASIZE ADD SLT PUSH2 0x114 JUMPI PUSH1 0x20 PUSH1 0xFF PUSH1 0x2 SLOAD AND PUSH1 0x40 MLOAD SWAP1 ISZERO ISZERO DUP2 MSTORE RETURN JUMPDEST POP CALLVALUE PUSH2 0x114 JUMPI DUP1 PUSH1 0x3 NOT CALLDATASIZE ADD SLT PUSH2 0x114 JUMPI PUSH2 0xDB8 PUSH2 0x1176 JUMP JUMPDEST PUSH1 0x2 SLOAD PUSH1 0xFF DUP2 AND ISZERO PUSH2 0xDF8 JUMPI PUSH1 0xFF NOT AND PUSH1 0x2 SSTORE PUSH32 0x5DB9EE0A495BF2E6FF9C91A7834C1BA4FDD244A5E8AA4E537BD38AEAE4B073AA PUSH1 0x20 PUSH1 0x40 MLOAD CALLER DUP2 MSTORE LOG1 DUP1 RETURN JUMPDEST PUSH1 0x40 MLOAD PUSH3 0x461BCD PUSH1 0xE5 SHL DUP2 MSTORE PUSH1 0x20 PUSH1 0x4 DUP3 ADD MSTORE PUSH1 0x14 PUSH1 0x24 DUP3 ADD MSTORE PUSH20 0x14185D5CD8589B194E881B9BDD081C185D5CD959 PUSH1 0x62 SHL PUSH1 0x44 DUP3 ADD MSTORE PUSH1 0x64 SWAP1 REVERT JUMPDEST POP CALLVALUE PUSH2 0x114 JUMPI PUSH1 0x20 DUP1 PUSH1 0x3 NOT CALLDATASIZE ADD SLT PUSH2 0x98B JUMPI PUSH1 0x40 DUP1 MLOAD SWAP3 PUSH2 0xE55 DUP5 PUSH2 0x10FF JUMP JUMPDEST DUP1 DUP5 MSTORE DUP1 DUP4 DUP6 ADD MSTORE DUP1 DUP3 DUP6 ADD MSTORE DUP1 PUSH1 0x60 DUP6 ADD MSTORE DUP1 PUSH1 0x80 DUP6 ADD MSTORE PUSH1 0x60 PUSH1 0xA0 DUP6 ADD MSTORE DUP1 PUSH1 0xC0 DUP6 ADD MSTORE DUP1 PUSH1 0xE0 DUP6 ADD MSTORE DUP1 PUSH2 0x100 DUP1 SWAP6 ADD MSTORE PUSH1 0x4 CALLDATALOAD DUP2 MSTORE PUSH1 0x5 DUP4 MSTORE KECCAK256 PUSH1 0x40 MLOAD DUP1 SWAP4 PUSH2 0xEA1 DUP3 PUSH2 0x10FF JUMP JUMPDEST DUP3 SLOAD DUP3 MSTORE PUSH1 0x1 DUP4 ADD SLOAD SWAP1 DUP5 DUP4 ADD SWAP2 DUP3 MSTORE PUSH1 0x5 PUSH1 0x1 DUP1 PUSH1 0xA0 SHL SUB DUP1 PUSH1 0x2 DUP8 ADD SLOAD AND SWAP1 PUSH1 0x40 DUP7 ADD SWAP2 DUP3 MSTORE DUP1 PUSH1 0x3 DUP9 ADD SLOAD AND PUSH1 0x60 DUP8 ADD SWAP1 DUP2 MSTORE DUP2 PUSH1 0x4 DUP10 ADD SLOAD SWAP4 PUSH1 0x80 DUP10 ADD SWAP5 DUP6 MSTORE PUSH2 0xF00 DUP11 PUSH2 0xEF9 PUSH1 0x40 MLOAD DUP1 SWAP10 DUP2 SWAP4 ADD PUSH2 0x1069 JUMP JUMPDEST SUB DUP8 PUSH2 0x1154 JUMP JUMPDEST PUSH1 0xA0 DUP10 ADD SWAP6 DUP7 MSTORE PUSH1 0x8 PUSH1 0xFF PUSH1 0x6 DUP13 ADD SLOAD AND SWAP11 PUSH1 0xC0 DUP12 ADD SWAP12 ISZERO ISZERO DUP13 MSTORE PUSH1 0xE0 PUSH1 0x7 DUP3 ADD SLOAD SWAP12 ADD SWAP11 DUP12 MSTORE ADD SLOAD SWAP8 DUP8 DUP14 ADD SWAP9 DUP10 MSTORE DUP12 PUSH1 0x40 MLOAD SWAP14 DUP15 SWAP14 DUP15 MSTORE MLOAD SWAP1 DUP14 ADD MSTORE MLOAD PUSH1 0x40 DUP13 ADD MSTORE MLOAD AND PUSH1 0x60 DUP11 ADD MSTORE MLOAD AND PUSH1 0x80 DUP9 ADD MSTORE MLOAD PUSH1 0xA0 DUP8 ADD MSTORE MLOAD SWAP3 PUSH2 0xF72 PUSH2 0x120 SWAP5 DUP6 PUSH1 0xC0 DUP10 ADD MSTORE PUSH2 0x140 DUP9 ADD SWAP1 PUSH2 0xFA6 JUMP JUMPDEST SWAP5 MLOAD ISZERO ISZERO PUSH1 0xE0 DUP8 ADD MSTORE MLOAD SWAP1 DUP6 ADD MSTORE MLOAD SWAP1 DUP4 ADD MSTORE SUB SWAP1 RETURN JUMPDEST SWAP1 POP CALLVALUE PUSH2 0x98B JUMPI DUP2 PUSH1 0x3 NOT CALLDATASIZE ADD SLT PUSH2 0x98B JUMPI DUP1 PUSH3 0x186A0 PUSH1 0x20 SWAP3 MSTORE RETURN JUMPDEST SWAP2 SWAP1 DUP3 MLOAD SWAP3 DUP4 DUP3 MSTORE PUSH1 0x0 JUMPDEST DUP5 DUP2 LT PUSH2 0xFD2 JUMPI POP POP DUP3 PUSH1 0x0 PUSH1 0x20 DUP1 SWAP5 SWAP6 DUP5 ADD ADD MSTORE PUSH1 0x1F DUP1 NOT SWAP2 ADD AND ADD ADD SWAP1 JUMP JUMPDEST PUSH1 0x20 DUP2 DUP4 ADD DUP2 ADD MLOAD DUP5 DUP4 ADD DUP3 ADD MSTORE ADD PUSH2 0xFB1 JUMP JUMPDEST PUSH1 0x4 CALLDATALOAD SWAP1 PUSH1 0x1 PUSH1 0x1 PUSH1 0xA0 SHL SUB DUP3 AND DUP3 SUB PUSH2 0xFFC JUMPI JUMP JUMPDEST PUSH1 0x0 DUP1 REVERT JUMPDEST SWAP2 DUP2 PUSH1 0x1F DUP5 ADD SLT ISZERO PUSH2 0xFFC JUMPI DUP3 CALLDATALOAD SWAP2 PUSH8 0xFFFFFFFFFFFFFFFF DUP4 GT PUSH2 0xFFC JUMPI PUSH1 0x20 DUP4 DUP2 DUP7 ADD SWAP6 ADD ADD GT PUSH2 0xFFC JUMPI JUMP JUMPDEST SWAP1 PUSH1 0x1 DUP3 DUP2 SHR SWAP3 AND DUP1 ISZERO PUSH2 0x105F JUMPI JUMPDEST PUSH1 0x20 DUP4 LT EQ PUSH2 0x1049 JUMPI JUMP JUMPDEST PUSH4 0x4E487B71 PUSH1 0xE0 SHL PUSH1 0x0 MSTORE PUSH1 0x22 PUSH1 0x4 MSTORE PUSH1 0x24 PUSH1 0x0 REVERT JUMPDEST SWAP2 PUSH1 0x7F AND SWAP2 PUSH2 0x103E JUMP JUMPDEST SWAP1 PUSH1 0x0 SWAP3 SWAP2 DUP1 SLOAD SWAP2 PUSH2 0x107A DUP4 PUSH2 0x102F JUMP JUMPDEST SWAP2 DUP3 DUP3 MSTORE PUSH1 0x1 SWAP4 DUP5 DUP2 AND SWAP1 DUP2 PUSH1 0x0 EQ PUSH2 0x10DC JUMPI POP PUSH1 0x1 EQ PUSH2 0x109C JUMPI JUMPDEST POP POP POP POP JUMP JUMPDEST SWAP1 SWAP2 SWAP4 SWAP5 POP PUSH1 0x0 MSTORE PUSH1 0x20 SWAP3 DUP4 PUSH1 0x0 KECCAK256 SWAP3 DUP5 PUSH1 0x0 SWAP5 JUMPDEST DUP4 DUP7 LT PUSH2 0x10C8 JUMPI POP POP POP POP ADD ADD SWAP1 CODESIZE DUP1 DUP1 DUP1 PUSH2 0x1096 JUMP JUMPDEST DUP1 SLOAD DUP6 DUP8 ADD DUP4 ADD MSTORE SWAP5 ADD SWAP4 DUP6 SWAP1 DUP3 ADD PUSH2 0x10B1 JUMP JUMPDEST SWAP3 SWAP5 POP POP POP PUSH1 0x20 SWAP4 SWAP5 POP PUSH1 0xFF NOT AND DUP4 DUP4 ADD MSTORE ISZERO ISZERO PUSH1 0x5 SHL ADD ADD SWAP1 CODESIZE DUP1 DUP1 DUP1 PUSH2 0x1096 JUMP JUMPDEST PUSH2 0x120 DUP2 ADD SWAP1 DUP2 LT PUSH8 0xFFFFFFFFFFFFFFFF DUP3 GT OR PUSH2 0x3BB JUMPI PUSH1 0x40 MSTORE JUMP JUMPDEST PUSH1 0xC0 DUP2 ADD SWAP1 DUP2 LT PUSH8 0xFFFFFFFFFFFFFFFF DUP3 GT OR PUSH2 0x3BB JUMPI PUSH1 0x40 MSTORE JUMP JUMPDEST PUSH1 0x40 DUP2 ADD SWAP1 DUP2 LT PUSH8 0xFFFFFFFFFFFFFFFF DUP3 GT OR PUSH2 0x3BB JUMPI PUSH1 0x40 MSTORE JUMP JUMPDEST SWAP1 PUSH1 0x1F DUP1 NOT SWAP2 ADD AND DUP2 ADD SWAP1 DUP2 LT PUSH8 0xFFFFFFFFFFFFFFFF DUP3 GT OR PUSH2 0x3BB JUMPI PUSH1 0x40 MSTORE JUMP JUMPDEST PUSH1 0x0 SLOAD PUSH1 0x1 PUSH1 0x1 PUSH1 0xA0 SHL SUB AND CALLER SUB PUSH2 0x118A JUMPI JUMP JUMPDEST PUSH1 0x64 PUSH1 0x40 MLOAD PUSH3 0x461BCD PUSH1 0xE5 SHL DUP2 MSTORE PUSH1 0x20 PUSH1 0x4 DUP3 ADD MSTORE PUSH1 0x20 PUSH1 0x24 DUP3 ADD MSTORE PUSH32 0x4F776E61626C653A2063616C6C6572206973206E6F7420746865206F776E6572 PUSH1 0x44 DUP3 ADD MSTORE REVERT JUMPDEST PUSH1 0xFF DUP2 EQ PUSH2 0x120C JUMPI PUSH1 0xFF DUP2 AND SWAP1 PUSH1 0x1F DUP3 GT PUSH2 0x11FA JUMPI PUSH1 0x40 MLOAD SWAP2 PUSH2 0x11F0 DUP4 PUSH2 0x1138 JUMP JUMPDEST DUP3 MSTORE PUSH1 0x20 DUP3 ADD MSTORE SWAP1 JUMP JUMPDEST PUSH1 0x40 MLOAD PUSH4 0x2CD44AC3 PUSH1 0xE2 SHL DUP2 MSTORE PUSH1 0x4 SWAP1 REVERT JUMPDEST POP PUSH1 0x40 MLOAD PUSH1 0x3 SLOAD DUP2 PUSH1 0x0 PUSH2 0x121F DUP4 PUSH2 0x102F JUMP JUMPDEST DUP1 DUP4 MSTORE SWAP3 PUSH1 0x1 SWAP1 DUP2 DUP2 AND SWAP1 DUP2 ISZERO PUSH2 0x12A8 JUMPI POP PUSH1 0x1 EQ PUSH2 0x1249 JUMPI JUMPDEST POP PUSH2 0x1246 SWAP3 POP SUB DUP3 PUSH2 0x1154 JUMP JUMPDEST SWAP1 JUMP JUMPDEST PUSH1 0x3 PUSH1 0x0 SWAP1 DUP2 MSTORE SWAP2 POP PUSH32 0xC2575A0E9E593C00F959F8C92F12DB2869C3395A3B0502D05E2516446F71F85B JUMPDEST DUP5 DUP4 LT PUSH2 0x128D JUMPI POP PUSH2 0x1246 SWAP4 POP POP DUP2 ADD PUSH1 0x20 ADD CODESIZE PUSH2 0x1239 JUMP JUMPDEST DUP2 SWAP4 POP SWAP1 DUP2 PUSH1 0x20 SWAP3 SLOAD DUP4 DUP6 DUP10 ADD ADD MSTORE ADD SWAP2 ADD SWAP1 SWAP2 DUP5 SWAP3 PUSH2 0x1274 JUMP JUMPDEST SWAP1 POP PUSH1 0x20 SWAP3 POP PUSH2 0x1246 SWAP5 SWAP2 POP PUSH1 0xFF NOT AND DUP3 DUP5 ADD MSTORE ISZERO ISZERO PUSH1 0x5 SHL DUP3 ADD ADD CODESIZE PUSH2 0x1239 JUMP JUMPDEST PUSH1 0xFF DUP2 EQ PUSH2 0x12EC JUMPI PUSH1 0xFF DUP2 AND SWAP1 PUSH1 0x1F DUP3 GT PUSH2 0x11FA JUMPI PUSH1 0x40 MLOAD SWAP2 PUSH2 0x11F0 DUP4 PUSH2 0x1138 JUMP JUMPDEST POP PUSH1 0x40 MLOAD PUSH1 0x4 SLOAD DUP2 PUSH1 0x0 PUSH2 0x12FF DUP4 PUSH2 0x102F JUMP JUMPDEST DUP1 DUP4 MSTORE SWAP3 PUSH1 0x1 SWAP1 DUP2 DUP2 AND SWAP1 DUP2 ISZERO PUSH2 0x12A8 JUMPI POP PUSH1 0x1 EQ PUSH2 0x1325 JUMPI POP PUSH2 0x1246 SWAP3 POP SUB DUP3 PUSH2 0x1154 JUMP JUMPDEST PUSH1 0x4 PUSH1 0x0 SWAP1 DUP2 MSTORE SWAP2 POP PUSH32 0x8A35ACFBC15FF81A39AE7D344FD709F28E8600B4AA8C65C6B64BFE7FE36BD19B JUMPDEST DUP5 DUP4 LT PUSH2 0x1369 JUMPI POP PUSH2 0x1246 SWAP4 POP POP DUP2 ADD PUSH1 0x20 ADD CODESIZE PUSH2 0x1239 JUMP JUMPDEST DUP2 SWAP4 POP SWAP1 DUP2 PUSH1 0x20 SWAP3 SLOAD DUP4 DUP6 DUP10 ADD ADD MSTORE ADD SWAP2 ADD SWAP1 SWAP2 DUP5 SWAP3 PUSH2 0x1350 JUMP JUMPDEST PUSH8 0xFFFFFFFFFFFFFFFF DUP2 GT PUSH2 0x3BB JUMPI PUSH1 0x1F ADD PUSH1 0x1F NOT AND PUSH1 0x20 ADD SWAP1 JUMP JUMPDEST SWAP3 SWAP2 SWAP3 PUSH2 0x13AC DUP3 PUSH2 0x1384 JUMP JUMPDEST SWAP2 PUSH2 0x13BA PUSH1 0x40 MLOAD SWAP4 DUP5 PUSH2 0x1154 JUMP JUMPDEST DUP3 SWAP5 DUP2 DUP5 MSTORE DUP2 DUP4 ADD GT PUSH2 0xFFC JUMPI DUP3 DUP2 PUSH1 0x20 SWAP4 DUP5 PUSH1 0x0 SWAP7 ADD CALLDATACOPY ADD ADD MSTORE JUMP JUMPDEST RETURNDATASIZE ISZERO PUSH2 0x1402 JUMPI RETURNDATASIZE SWAP1 PUSH2 0x13E8 DUP3 PUSH2 0x1384 JUMP JUMPDEST SWAP2 PUSH2 0x13F6 PUSH1 0x40 MLOAD SWAP4 DUP5 PUSH2 0x1154 JUMP JUMPDEST DUP3 MSTORE RETURNDATASIZE PUSH1 0x0 PUSH1 0x20 DUP5 ADD RETURNDATACOPY JUMP JUMPDEST PUSH1 0x60 SWAP1 JUMP JUMPDEST ISZERO PUSH2 0x140E JUMPI JUMP JUMPDEST PUSH1 0x40 MLOAD PUSH3 0x461BCD PUSH1 0xE5 SHL DUP2 MSTORE PUSH1 0x20 PUSH1 0x4 DUP3 ADD MSTORE PUSH1 0xF PUSH1 0x24 DUP3 ADD MSTORE PUSH15 0x151C985B9CD9995C8819985A5B1959 PUSH1 0x8A SHL PUSH1 0x44 DUP3 ADD MSTORE PUSH1 0x64 SWAP1 REVERT JUMPDEST PUSH1 0xFF PUSH1 0x2 SLOAD AND PUSH2 0x1451 JUMPI JUMP JUMPDEST PUSH1 0x40 MLOAD PUSH3 0x461BCD PUSH1 0xE5 SHL DUP2 MSTORE PUSH1 0x20 PUSH1 0x4 DUP3 ADD MSTORE PUSH1 0x10 PUSH1 0x24 DUP3 ADD MSTORE PUSH16 0x14185D5CD8589B194E881C185D5CD959 PUSH1 0x82 SHL PUSH1 0x44 DUP3 ADD MSTORE PUSH1 0x64 SWAP1 REVERT JUMPDEST PUSH1 0x5 DUP2 LT ISZERO PUSH2 0x158D JUMPI DUP1 PUSH2 0x149A JUMPI POP JUMP JUMPDEST PUSH1 0x1 DUP2 SUB PUSH2 0x14E7 JUMPI PUSH1 0x40 MLOAD PUSH3 0x461BCD PUSH1 0xE5 SHL DUP2 MSTORE PUSH1 0x20 PUSH1 0x4 DUP3 ADD MSTORE PUSH1 0x18 PUSH1 0x24 DUP3 ADD MSTORE PUSH32 0x45434453413A20696E76616C6964207369676E61747572650000000000000000 PUSH1 0x44 DUP3 ADD MSTORE PUSH1 0x64 SWAP1 REVERT JUMPDEST PUSH1 0x2 DUP2 SUB PUSH2 0x1534 JUMPI PUSH1 0x40 MLOAD PUSH3 0x461BCD PUSH1 0xE5 SHL DUP2 MSTORE PUSH1 0x20 PUSH1 0x4 DUP3 ADD MSTORE PUSH1 0x1F PUSH1 0x24 DUP3 ADD MSTORE PUSH32 0x45434453413A20696E76616C6964207369676E6174757265206C656E67746800 PUSH1 0x44 DUP3 ADD MSTORE PUSH1 0x64 SWAP1 REVERT JUMPDEST PUSH1 0x3 EQ PUSH2 0x153D JUMPI JUMP JUMPDEST PUSH1 0x40 MLOAD PUSH3 0x461BCD PUSH1 0xE5 SHL DUP2 MSTORE PUSH1 0x20 PUSH1 0x4 DUP3 ADD MSTORE PUSH1 0x22 PUSH1 0x24 DUP3 ADD MSTORE PUSH32 0x45434453413A20696E76616C6964207369676E6174757265202773272076616C PUSH1 0x44 DUP3 ADD MSTORE PUSH2 0x7565 PUSH1 0xF0 SHL PUSH1 0x64 DUP3 ADD MSTORE PUSH1 0x84 SWAP1 REVERT JUMPDEST PUSH4 0x4E487B71 PUSH1 0xE0 SHL PUSH1 0x0 MSTORE PUSH1 0x21 PUSH1 0x4 MSTORE PUSH1 0x24 PUSH1 0x0 REVERT JUMPDEST SWAP1 PUSH1 0x41 DUP2 MLOAD EQ PUSH1 0x0 EQ PUSH2 0x15D1 JUMPI PUSH2 0x15CD SWAP2 PUSH1 0x20 DUP3 ADD MLOAD SWAP1 PUSH1 0x60 PUSH1 0x40 DUP5 ADD MLOAD SWAP4 ADD MLOAD PUSH1 0x0 BYTE SWAP1 PUSH2 0x15DB JUMP JUMPDEST SWAP1 SWAP2 JUMP JUMPDEST POP POP PUSH1 0x0 SWAP1 PUSH1 0x2 SWAP1 JUMP JUMPDEST SWAP3 SWAP2 SWAP1 PUSH32 0x7FFFFFFFFFFFFFFFFFFFFFFFFFFFFFFF5D576E7357A4501DDFE92F46681B20A0 DUP4 GT PUSH2 0x165E JUMPI SWAP2 PUSH1 0x80 SWAP5 SWAP4 SWAP2 PUSH1 0xFF PUSH1 0x20 SWAP5 PUSH1 0x40 MLOAD SWAP5 DUP6 MSTORE AND DUP5 DUP5 ADD MSTORE PUSH1 0x40 DUP4 ADD MSTORE PUSH1 0x60 DUP3 ADD MSTORE PUSH1 0x0 SWAP4 DUP5 SWAP2 DUP3 DUP1 MSTORE PUSH1 0x1 GAS STATICCALL ISZERO PUSH2 0x1651 JUMPI DUP2 MLOAD PUSH1 0x1 PUSH1 0x1 PUSH1 0xA0 SHL SUB DUP2 AND ISZERO PUSH2 0x164B JUMPI SWAP2 SWAP1 JUMP JUMPDEST POP PUSH1 0x1 SWAP1 JUMP JUMPDEST POP PUSH1 0x40 MLOAD SWAP1 RETURNDATASIZE SWAP1 DUP3 RETURNDATACOPY RETURNDATASIZE SWAP1 REVERT JUMPDEST POP POP POP POP PUSH1 0x0 SWAP1 PUSH1 0x3 SWAP1 JUMP JUMPDEST ADDRESS PUSH32 0x0 PUSH1 0x1 PUSH1 0x1 PUSH1 0xA0 SHL SUB AND EQ DUP1 PUSH2 0x175B JUMPI JUMPDEST ISZERO PUSH2 0x16C5 JUMPI PUSH32 0x0 SWAP1 JUMP JUMPDEST PUSH1 0x40 MLOAD PUSH1 0x20 DUP2 ADD SWAP1 PUSH32 0x8B73C3C69BB8FE3D512ECC4CF759CC79239F7B179B0FFACAA9A75D522B39400F DUP3 MSTORE PUSH32 0x0 PUSH1 0x40 DUP3 ADD MSTORE PUSH32 0x0 PUSH1 0x60 DUP3 ADD MSTORE CHAINID PUSH1 0x80 DUP3 ADD MSTORE ADDRESS PUSH1 0xA0 DUP3 ADD MSTORE PUSH1 0xA0 DUP2 MSTORE PUSH2 0x1755 DUP2 PUSH2 0x111C JUMP JUMPDEST MLOAD SWAP1 KECCAK256 SWAP1 JUMP JUMPDEST POP PUSH32 0x0 CHAINID EQ PUSH2 0x169C JUMP INVALID LOG2 PUSH5 0x6970667358 0x22 SLT KECCAK256 SWAP9 SLOAD SELFDESTRUCT PUSH22 0x2E376B8E9C585067ACE42C6407C3EE7D50651220BA2D DUP16 0x1E SWAP3 0xE8 SGT 0x2A PUSH5 0x736F6C6343 STOP ADDMOD EQ STOP CALLER "},"methodIdentifiers":{"DEFAULT_GAS_SAVED()":"29a1403e","PAYMENT_TYPEHASH()":"6d3298cb","createSession(bytes32,address,uint256,bytes,uint256)":"71df5a2b","eip712Domain()":"84b0196e","emergencyWithdraw(address,uint256)":"95ccea67","executePayment(bytes32,bytes)":"724f16de","getDomainSeparator()":"ed24911d","getSession(bytes32)":"39b240bd","owner()":"8da5cb5b","pause()":"8456cb59","paused()":"5c975abb","paymentRouter()":"ff781bbf","relayer()":"8406c079","renounceOwnership()":"715018a6","sessions(bytes32)":"7dbd2832","setRelayer(address)":"6548e9bc","transferOwnership(address)":"f2fde38b","unpause()":"3f4ba83a"}}}}}