{"contracts/Commission.sol":{"Commission":{"abi":[{"anonymous":false,"inputs":[{"indexed":true,"internalType":"bytes32","name":"orderId","type":"bytes32"},{"indexed":false,"internalType":"uint256","name":"merchantAmount","type":"uint256"}],"name":"CommissionDistributed","type":"event"},{"anonymous":false,"inputs":[{"indexed":true,"internalType":"bytes32","name":"recordId","type":"bytes32"},{"indexed":true,"internalType":"address","name":"payee","type":"address"},{"indexed":false,"internalType":"enum Commission.PayeeType","name":"payeeType","type":"uint8"},{"indexed":false,"internalType":"enum Commission.AgentType","name":"agentType","type":"uint8"},{"indexed":false,"internalType":"uint256","name":"amount","type":"uint256"},{"indexed":false,"internalType":"address","name":"currency","type":"address"},{"indexed":false,"internalType":"uint256","name":"commissionBase","type":"uint256"},{"indexed":false,"internalType":"uint256","name":"channelFee","type":"uint256"},{"indexed":false,"internalType":"bytes32","name":"sessionId","type":"bytes32"}],"name":"CommissionRecorded","type":"event"},{"anonymous":false,"inputs":[{"indexed":true,"internalType":"bytes32","name":"orderId","type":"bytes32"},{"indexed":false,"internalType":"enum Commission.Status","name":"status","type":"uint8"},{"indexed":false,"internalType":"uint256","name":"settlementTime","type":"uint256"}],"name":"OrderSynced","type":"event"},{"anonymous":false,"inputs":[{"indexed":true,"internalType":"address","name":"previousOwner","type":"address"},{"indexed":true,"internalType":"address","name":"newOwner","type":"address"}],"name":"OwnershipTransferred","type":"event"},{"anonymous":false,"inputs":[{"indexed":false,"internalType":"address","name":"account","type":"address"}],"name":"Paused","type":"event"},{"anonymous":false,"inputs":[{"indexed":true,"internalType":"bytes32","name":"orderId","type":"bytes32"},{"indexed":true,"internalType":"bytes32","name":"sessionId","type":"bytes32"},{"indexed":true,"internalType":"address","name":"merchantWallet","type":"address"},{"indexed":false,"internalType":"uint256","name":"totalAmount","type":"uint256"},{"indexed":false,"internalType":"uint256","name":"merchantAmount","type":"uint256"},{"indexed":false,"internalType":"uint256","name":"platformFee","type":"uint256"},{"indexed":false,"internalType":"uint256","name":"executionFee","type":"uint256"},{"indexed":false,"internalType":"uint256","name":"referralFee","type":"uint256"}],"name":"PaymentAutoSplit","type":"event"},{"anonymous":false,"inputs":[{"indexed":true,"internalType":"bytes32","name":"orderId","type":"bytes32"},{"indexed":false,"internalType":"enum Commission.PaymentScenario","name":"scenario","type":"uint8"},{"indexed":true,"internalType":"address","name":"from","type":"address"},{"indexed":false,"internalType":"uint256","name":"amount","type":"uint256"}],"name":"PaymentReceived","type":"event"},{"anonymous":false,"inputs":[{"indexed":true,"internalType":"bytes32","name":"orderId","type":"bytes32"},{"indexed":false,"internalType":"string","name":"reason","type":"string"},{"indexed":true,"internalType":"address","name":"auditor","type":"address"}],"name":"ProofRejected","type":"event"},{"anonymous":false,"inputs":[{"indexed":true,"internalType":"bytes32","name":"orderId","type":"bytes32"},{"indexed":false,"internalType":"bytes32","name":"resultHash","type":"bytes32"},{"indexed":true,"internalType":"address","name":"submitter","type":"address"}],"name":"ProofSubmitted","type":"event"},{"anonymous":false,"inputs":[{"indexed":true,"internalType":"bytes32","name":"orderId","type":"bytes32"},{"indexed":false,"internalType":"bytes32","name":"resultHash","type":"bytes32"},{"indexed":true,"internalType":"address","name":"auditor","type":"address"},{"indexed":false,"internalType":"uint256","name":"quality","type":"uint256"}],"name":"ProofVerified","type":"event"},{"anonymous":false,"inputs":[{"indexed":true,"internalType":"address","name":"provider","type":"address"},{"indexed":false,"internalType":"bool","name":"authorized","type":"bool"}],"name":"ProviderAuthorized","type":"event"},{"anonymous":false,"inputs":[{"indexed":true,"internalType":"bytes32","name":"orderId","type":"bytes32"},{"indexed":false,"internalType":"enum Commission.SkillSource","name":"source","type":"uint8"},{"indexed":false,"internalType":"uint256","name":"originalAmount","type":"uint256"},{"indexed":false,"internalType":"uint256","name":"userExtraFee","type":"uint256"},{"indexed":false,"internalType":"uint256","name":"merchantAmount","type":"uint256"}],"name":"ScannedProductPayment","type":"event"},{"anonymous":false,"inputs":[{"indexed":true,"internalType":"bytes32","name":"settlementId","type":"bytes32"},{"indexed":true,"internalType":"address","name":"payee","type":"address"},{"indexed":false,"internalType":"uint256","name":"amount","type":"uint256"},{"indexed":false,"internalType":"address","name":"currency","type":"address"}],"name":"SettlementCompleted","type":"event"},{"anonymous":false,"inputs":[{"indexed":true,"internalType":"bytes32","name":"settlementId","type":"bytes32"},{"indexed":true,"internalType":"address","name":"payee","type":"address"},{"indexed":false,"internalType":"enum Commission.PayeeType","name":"payeeType","type":"uint8"},{"indexed":false,"internalType":"uint256","name":"totalAmount","type":"uint256"},{"indexed":false,"internalType":"address","name":"currency","type":"address"}],"name":"SettlementCreated","type":"event"},{"anonymous":false,"inputs":[{"indexed":true,"internalType":"bytes32","name":"orderId","type":"bytes32"},{"components":[{"internalType":"address","name":"merchantMPCWallet","type":"address"},{"internalType":"uint256","name":"merchantAmount","type":"uint256"},{"internalType":"address","name":"referrer","type":"address"},{"internalType":"uint256","name":"referralFee","type":"uint256"},{"internalType":"address","name":"executor","type":"address"},{"internalType":"uint256","name":"executionFee","type":"uint256"},{"internalType":"uint256","name":"platformFee","type":"uint256"},{"internalType":"uint256","name":"offRampFee","type":"uint256"},{"internalType":"bool","name":"executorHasWallet","type":"bool"},{"internalType":"uint256","name":"settlementTime","type":"uint256"},{"internalType":"bool","name":"isDisputed","type":"bool"},{"internalType":"bytes32","name":"sessionId","type":"bytes32"},{"internalType":"bytes32","name":"proofHash","type":"bytes32"},{"internalType":"address","name":"auditor","type":"address"},{"internalType":"bool","name":"requiresProof","type":"bool"},{"internalType":"bool","name":"proofVerified","type":"bool"}],"indexed":false,"internalType":"struct Commission.SplitConfig","name":"config","type":"tuple"}],"name":"SplitConfigSet","type":"event"},{"anonymous":false,"inputs":[{"indexed":true,"internalType":"address","name":"auditor","type":"address"},{"indexed":false,"internalType":"bool","name":"trusted","type":"bool"}],"name":"TrustedAuditorUpdated","type":"event"},{"anonymous":false,"inputs":[{"indexed":false,"internalType":"address","name":"account","type":"address"}],"name":"Unpaused","type":"event"},{"anonymous":false,"inputs":[{"indexed":false,"internalType":"uint16","name":"oldRate","type":"uint16"},{"indexed":false,"internalType":"uint16","name":"newRate","type":"uint16"}],"name":"X402ChannelFeeRateUpdated","type":"event"},{"inputs":[],"name":"BASIS_POINTS","outputs":[{"internalType":"uint16","name":"","type":"uint16"}],"stateMutability":"view","type":"function"},{"inputs":[],"name":"EXECUTOR_SHARE","outputs":[{"internalType":"uint16","name":"","type":"uint16"}],"stateMutability":"view","type":"function"},{"inputs":[],"name":"PROMOTER_SHARE_OF_PLATFORM","outputs":[{"internalType":"uint16","name":"","type":"uint16"}],"stateMutability":"view","type":"function"},{"inputs":[],"name":"REFERRER_SHARE","outputs":[{"internalType":"uint16","name":"","type":"uint16"}],"stateMutability":"view","type":"function"},{"inputs":[{"internalType":"address","name":"","type":"address"}],"name":"authorizedProviders","outputs":[{"internalType":"bool","name":"","type":"bool"}],"stateMutability":"view","type":"function"},{"inputs":[{"internalType":"bytes32","name":"orderId","type":"bytes32"},{"internalType":"uint256","name":"amount","type":"uint256"},{"internalType":"address","name":"payer","type":"address"}],"name":"autoPaySplit","outputs":[],"stateMutability":"nonpayable","type":"function"},{"inputs":[{"internalType":"uint256","name":"amount","type":"uint256"},{"internalType":"enum Commission.SkillLayer","name":"layer","type":"uint8"},{"internalType":"bool","name":"hasReferrer","type":"bool"},{"internalType":"bool","name":"hasExecutor","type":"bool"},{"internalType":"bool","name":"executorHasWallet","type":"bool"}],"name":"calculateV5Split","outputs":[{"internalType":"uint256","name":"merchantAmount","type":"uint256"},{"internalType":"uint256","name":"platformFee","type":"uint256"},{"internalType":"uint256","name":"referrerFee","type":"uint256"},{"internalType":"uint256","name":"executorFee","type":"uint256"},{"internalType":"uint256","name":"treasuryFee","type":"uint256"}],"stateMutability":"view","type":"function"},{"inputs":[{"internalType":"bytes32","name":"","type":"bytes32"}],"name":"commissions","outputs":[{"internalType":"bytes32","name":"recordId","type":"bytes32"},{"internalType":"address","name":"payee","type":"address"},{"internalType":"enum Commission.PayeeType","name":"payeeType","type":"uint8"},{"internalType":"enum Commission.AgentType","name":"agentType","type":"uint8"},{"internalType":"uint256","name":"amount","type":"uint256"},{"internalType":"address","name":"currency","type":"address"},{"internalType":"uint256","name":"commissionBase","type":"uint256"},{"internalType":"uint256","name":"channelFee","type":"uint256"},{"internalType":"bytes32","name":"sessionId","type":"bytes32"},{"internalType":"uint256","name":"timestamp","type":"uint256"},{"internalType":"bool","name":"settled","type":"bool"}],"stateMutability":"view","type":"function"},{"inputs":[{"internalType":"address","name":"token","type":"address"},{"internalType":"address","name":"treasury","type":"address"},{"internalType":"address","name":"rebatePool","type":"address"}],"name":"configureSettlementToken","outputs":[],"stateMutability":"nonpayable","type":"function"},{"inputs":[{"internalType":"address","name":"payee","type":"address"},{"internalType":"enum Commission.PayeeType","name":"payeeType","type":"uint8"},{"internalType":"address","name":"currency","type":"address"}],"name":"createSettlement","outputs":[{"internalType":"bytes32","name":"","type":"bytes32"}],"stateMutability":"nonpayable","type":"function"},{"inputs":[{"internalType":"bytes32","name":"orderId","type":"bytes32"}],"name":"distributeCommission","outputs":[],"stateMutability":"nonpayable","type":"function"},{"inputs":[{"internalType":"address","name":"to","type":"address"},{"internalType":"uint256","name":"amount","type":"uint256"}],"name":"emergencyWithdrawETH","outputs":[],"stateMutability":"nonpayable","type":"function"},{"inputs":[{"internalType":"address","name":"token","type":"address"},{"internalType":"address","name":"to","type":"address"},{"internalType":"uint256","name":"amount","type":"uint256"}],"name":"emergencyWithdrawToken","outputs":[],"stateMutability":"nonpayable","type":"function"},{"inputs":[{"internalType":"bytes32","name":"settlementId","type":"bytes32"}],"name":"executeSettlement","outputs":[],"stateMutability":"nonpayable","type":"function"},{"inputs":[],"name":"getContractBalance","outputs":[{"internalType":"uint256","name":"","type":"uint256"}],"stateMutability":"view","type":"function"},{"inputs":[{"internalType":"address","name":"payee","type":"address"},{"internalType":"address","name":"currency","type":"address"}],"name":"getPendingBalance","outputs":[{"internalType":"uint256","name":"","type":"uint256"}],"stateMutability":"view","type":"function"},{"inputs":[{"internalType":"bytes32","name":"orderId","type":"bytes32"}],"name":"getProofStatus","outputs":[{"internalType":"bool","name":"requiresProof","type":"bool"},{"internalType":"bytes32","name":"expectedHash","type":"bytes32"},{"internalType":"bytes32","name":"submittedHash","type":"bytes32"},{"internalType":"bool","name":"verified","type":"bool"},{"internalType":"address","name":"auditor","type":"address"}],"stateMutability":"view","type":"function"},{"inputs":[{"internalType":"bytes32","name":"orderId","type":"bytes32"}],"name":"getSplitConfig","outputs":[{"components":[{"internalType":"address","name":"merchantMPCWallet","type":"address"},{"internalType":"uint256","name":"merchantAmount","type":"uint256"},{"internalType":"address","name":"referrer","type":"address"},{"internalType":"uint256","name":"referralFee","type":"uint256"},{"internalType":"address","name":"executor","type":"address"},{"internalType":"uint256","name":"executionFee","type":"uint256"},{"internalType":"uint256","name":"platformFee","type":"uint256"},{"internalType":"uint256","name":"offRampFee","type":"uint256"},{"internalType":"bool","name":"executorHasWallet","type":"bool"},{"internalType":"uint256","name":"settlementTime","type":"uint256"},{"internalType":"bool","name":"isDisputed","type":"bool"},{"internalType":"bytes32","name":"sessionId","type":"bytes32"},{"internalType":"bytes32","name":"proofHash","type":"bytes32"},{"internalType":"address","name":"auditor","type":"address"},{"internalType":"bool","name":"requiresProof","type":"bool"},{"internalType":"bool","name":"proofVerified","type":"bool"}],"internalType":"struct Commission.SplitConfig","name":"","type":"tuple"}],"stateMutability":"view","type":"function"},{"inputs":[],"name":"initializeV5Rates","outputs":[],"stateMutability":"nonpayable","type":"function"},{"inputs":[{"internalType":"enum Commission.SkillLayer","name":"","type":"uint8"}],"name":"layerPlatformFees","outputs":[{"internalType":"uint16","name":"","type":"uint16"}],"stateMutability":"view","type":"function"},{"inputs":[{"internalType":"enum Commission.SkillLayer","name":"","type":"uint8"}],"name":"layerPoolRates","outputs":[{"internalType":"uint16","name":"","type":"uint16"}],"stateMutability":"view","type":"function"},{"inputs":[{"internalType":"bytes32","name":"","type":"bytes32"}],"name":"orderSplitConfigs","outputs":[{"internalType":"address","name":"merchantMPCWallet","type":"address"},{"internalType":"uint256","name":"merchantAmount","type":"uint256"},{"internalType":"address","name":"referrer","type":"address"},{"internalType":"uint256","name":"referralFee","type":"uint256"},{"internalType":"address","name":"executor","type":"address"},{"internalType":"uint256","name":"executionFee","type":"uint256"},{"internalType":"uint256","name":"platformFee","type":"uint256"},{"internalType":"uint256","name":"offRampFee","type":"uint256"},{"internalType":"bool","name":"executorHasWallet","type":"bool"},{"internalType":"uint256","name":"settlementTime","type":"uint256"},{"internalType":"bool","name":"isDisputed","type":"bool"},{"internalType":"bytes32","name":"sessionId","type":"bytes32"},{"internalType":"bytes32","name":"proofHash","type":"bytes32"},{"internalType":"address","name":"auditor","type":"address"},{"internalType":"bool","name":"requiresProof","type":"bool"},{"internalType":"bool","name":"proofVerified","type":"bool"}],"stateMutability":"view","type":"function"},{"inputs":[{"internalType":"bytes32","name":"","type":"bytes32"}],"name":"orders","outputs":[{"internalType":"bytes32","name":"orderId","type":"bytes32"},{"internalType":"address","name":"merchant","type":"address"},{"internalType":"address","name":"referrer","type":"address"},{"internalType":"address","name":"executor","type":"address"},{"internalType":"uint256","name":"merchantAmount","type":"uint256"},{"internalType":"uint256","name":"referralFee","type":"uint256"},{"internalType":"uint256","name":"executionFee","type":"uint256"},{"internalType":"uint256","name":"platformFee","type":"uint256"},{"internalType":"uint256","name":"settlementTime","type":"uint256"},{"internalType":"bool","name":"executorHasWallet","type":"bool"},{"internalType":"bool","name":"isDisputed","type":"bool"},{"internalType":"enum Commission.Status","name":"status","type":"uint8"}],"stateMutability":"view","type":"function"},{"inputs":[],"name":"owner","outputs":[{"internalType":"address","name":"","type":"address"}],"stateMutability":"view","type":"function"},{"inputs":[],"name":"pause","outputs":[],"stateMutability":"nonpayable","type":"function"},{"inputs":[],"name":"paused","outputs":[{"internalType":"bool","name":"","type":"bool"}],"stateMutability":"view","type":"function"},{"inputs":[],"name":"paymindTreasury","outputs":[{"internalType":"address","name":"","type":"address"}],"stateMutability":"view","type":"function"},{"inputs":[{"internalType":"address","name":"","type":"address"},{"internalType":"address","name":"","type":"address"}],"name":"pendingBalances","outputs":[{"internalType":"uint256","name":"","type":"uint256"}],"stateMutability":"view","type":"function"},{"inputs":[{"internalType":"bytes32","name":"orderId","type":"bytes32"},{"internalType":"uint256","name":"amount","type":"uint256"}],"name":"providerFiatToCryptoSplit","outputs":[],"stateMutability":"nonpayable","type":"function"},{"inputs":[{"internalType":"bytes32","name":"orderId","type":"bytes32"},{"internalType":"uint256","name":"amount","type":"uint256"}],"name":"quickPaySplit","outputs":[],"stateMutability":"nonpayable","type":"function"},{"inputs":[{"internalType":"bytes32","name":"orderId","type":"bytes32"},{"internalType":"uint256","name":"amount","type":"uint256"},{"internalType":"address","name":"payer","type":"address"}],"name":"quickPaySplitFrom","outputs":[],"stateMutability":"nonpayable","type":"function"},{"inputs":[{"internalType":"address","name":"payee","type":"address"},{"internalType":"enum Commission.PayeeType","name":"payeeType","type":"uint8"},{"internalType":"enum Commission.AgentType","name":"agentType","type":"uint8"},{"internalType":"uint256","name":"amount","type":"uint256"},{"internalType":"address","name":"currency","type":"address"},{"internalType":"uint256","name":"commissionBase","type":"uint256"},{"internalType":"uint256","name":"channelFee","type":"uint256"},{"internalType":"bytes32","name":"sessionId","type":"bytes32"}],"name":"recordCommission","outputs":[],"stateMutability":"nonpayable","type":"function"},{"inputs":[{"internalType":"address","name":"payee","type":"address"},{"internalType":"enum Commission.PayeeType","name":"payeeType","type":"uint8"},{"internalType":"uint256","name":"amount","type":"uint256"},{"internalType":"address","name":"currency","type":"address"}],"name":"recordCommissionLegacy","outputs":[],"stateMutability":"nonpayable","type":"function"},{"inputs":[{"internalType":"address","name":"","type":"address"}],"name":"relayers","outputs":[{"internalType":"bool","name":"","type":"bool"}],"stateMutability":"view","type":"function"},{"inputs":[],"name":"renounceOwnership","outputs":[],"stateMutability":"nonpayable","type":"function"},{"inputs":[{"internalType":"enum Commission.SkillSource","name":"","type":"uint8"}],"name":"scannedFeeRates","outputs":[{"internalType":"uint16","name":"","type":"uint16"}],"stateMutability":"view","type":"function"},{"inputs":[{"internalType":"bytes32","name":"orderId","type":"bytes32"},{"internalType":"uint256","name":"originalAmount","type":"uint256"},{"internalType":"enum Commission.SkillSource","name":"source","type":"uint8"},{"internalType":"address","name":"referrer","type":"address"}],"name":"scannedProductSplit","outputs":[],"stateMutability":"nonpayable","type":"function"},{"inputs":[{"internalType":"address","name":"provider","type":"address"},{"internalType":"bool","name":"authorized","type":"bool"}],"name":"setAuthorizedProvider","outputs":[],"stateMutability":"nonpayable","type":"function"},{"inputs":[{"internalType":"bytes32","name":"orderId","type":"bytes32"},{"internalType":"bool","name":"isDisputed","type":"bool"}],"name":"setDisputeStatus","outputs":[],"stateMutability":"nonpayable","type":"function"},{"inputs":[{"internalType":"enum Commission.SkillLayer","name":"layer","type":"uint8"},{"internalType":"uint16","name":"platformFee","type":"uint16"},{"internalType":"uint16","name":"poolRate","type":"uint16"}],"name":"setLayerRates","outputs":[],"stateMutability":"nonpayable","type":"function"},{"inputs":[{"internalType":"bytes32","name":"orderId","type":"bytes32"},{"internalType":"bool","name":"disputed","type":"bool"}],"name":"setOrderDispute","outputs":[],"stateMutability":"nonpayable","type":"function"},{"inputs":[{"internalType":"bytes32","name":"orderId","type":"bytes32"},{"internalType":"bytes32","name":"proofHash","type":"bytes32"},{"internalType":"address","name":"auditor","type":"address"}],"name":"setProofRequirement","outputs":[],"stateMutability":"nonpayable","type":"function"},{"inputs":[{"internalType":"address","name":"relayer","type":"address"},{"internalType":"bool","name":"active","type":"bool"}],"name":"setRelayer","outputs":[],"stateMutability":"nonpayable","type":"function"},{"inputs":[{"internalType":"enum Commission.SkillSource","name":"source","type":"uint8"},{"internalType":"uint16","name":"rate","type":"uint16"}],"name":"setScannedFeeRate","outputs":[],"stateMutability":"nonpayable","type":"function"},{"inputs":[{"internalType":"bytes32","name":"orderId","type":"bytes32"},{"components":[{"internalType":"address","name":"merchantMPCWallet","type":"address"},{"internalType":"uint256","name":"merchantAmount","type":"uint256"},{"internalType":"address","name":"referrer","type":"address"},{"internalType":"uint256","name":"referralFee","type":"uint256"},{"internalType":"address","name":"executor","type":"address"},{"internalType":"uint256","name":"executionFee","type":"uint256"},{"internalType":"uint256","name":"platformFee","type":"uint256"},{"internalType":"uint256","name":"offRampFee","type":"uint256"},{"internalType":"bool","name":"executorHasWallet","type":"bool"},{"internalType":"uint256","name":"settlementTime","type":"uint256"},{"internalType":"bool","name":"isDisputed","type":"bool"},{"internalType":"bytes32","name":"sessionId","type":"bytes32"},{"internalType":"bytes32","name":"proofHash","type":"bytes32"},{"internalType":"address","name":"auditor","type":"address"},{"internalType":"bool","name":"requiresProof","type":"bool"},{"internalType":"bool","name":"proofVerified","type":"bool"}],"internalType":"struct Commission.SplitConfig","name":"config","type":"tuple"}],"name":"setSplitConfig","outputs":[],"stateMutability":"nonpayable","type":"function"},{"inputs":[{"internalType":"address","name":"auditor","type":"address"},{"internalType":"bool","name":"trusted","type":"bool"}],"name":"setTrustedAuditor","outputs":[],"stateMutability":"nonpayable","type":"function"},{"inputs":[{"internalType":"uint16","name":"newRate","type":"uint16"}],"name":"setX402ChannelFeeRate","outputs":[],"stateMutability":"nonpayable","type":"function"},{"inputs":[],"name":"settlementToken","outputs":[{"internalType":"contract IERC20","name":"","type":"address"}],"stateMutability":"view","type":"function"},{"inputs":[{"internalType":"bytes32","name":"","type":"bytes32"}],"name":"settlements","outputs":[{"internalType":"bytes32","name":"settlementId","type":"bytes32"},{"internalType":"address","name":"payee","type":"address"},{"internalType":"enum Commission.PayeeType","name":"payeeType","type":"uint8"},{"internalType":"uint256","name":"totalAmount","type":"uint256"},{"internalType":"address","name":"currency","type":"address"},{"internalType":"uint256","name":"settlementDate","type":"uint256"},{"internalType":"bool","name":"completed","type":"bool"}],"stateMutability":"view","type":"function"},{"inputs":[{"internalType":"bytes32","name":"orderId","type":"bytes32"},{"internalType":"bytes32","name":"resultHash","type":"bytes32"}],"name":"submitProof","outputs":[],"stateMutability":"nonpayable","type":"function"},{"inputs":[{"internalType":"bytes32","name":"","type":"bytes32"}],"name":"submittedProofs","outputs":[{"internalType":"bytes32","name":"","type":"bytes32"}],"stateMutability":"view","type":"function"},{"inputs":[{"internalType":"bytes32","name":"orderId","type":"bytes32"},{"internalType":"address","name":"merchant","type":"address"},{"internalType":"address","name":"referrer","type":"address"},{"internalType":"address","name":"executor","type":"address"},{"internalType":"uint256","name":"merchantAmount","type":"uint256"},{"internalType":"uint256","name":"referralFee","type":"uint256"},{"internalType":"uint256","name":"executionFee","type":"uint256"},{"internalType":"uint256","name":"platformFee","type":"uint256"},{"internalType":"uint256","name":"settlementTime","type":"uint256"},{"internalType":"bool","name":"executorHasWallet","type":"bool"},{"internalType":"bool","name":"isDisputed","type":"bool"},{"internalType":"enum Commission.Status","name":"status","type":"uint8"}],"name":"syncOrder","outputs":[],"stateMutability":"nonpayable","type":"function"},{"inputs":[],"name":"systemRebatePool","outputs":[{"internalType":"address","name":"","type":"address"}],"stateMutability":"view","type":"function"},{"inputs":[{"internalType":"address","name":"newOwner","type":"address"}],"name":"transferOwnership","outputs":[],"stateMutability":"nonpayable","type":"function"},{"inputs":[{"internalType":"address","name":"","type":"address"}],"name":"trustedAuditors","outputs":[{"internalType":"bool","name":"","type":"bool"}],"stateMutability":"view","type":"function"},{"inputs":[],"name":"unpause","outputs":[],"stateMutability":"nonpayable","type":"function"},{"inputs":[{"internalType":"address","name":"rebatePool","type":"address"}],"name":"updateSystemRebatePool","outputs":[],"stateMutability":"nonpayable","type":"function"},{"inputs":[{"internalType":"bytes32","name":"orderId","type":"bytes32"},{"internalType":"bool","name":"approved","type":"bool"},{"internalType":"uint256","name":"quality","type":"uint256"}],"name":"verifyProof","outputs":[],"stateMutability":"nonpayable","type":"function"},{"inputs":[{"internalType":"bytes32","name":"orderId","type":"bytes32"},{"internalType":"uint256","name":"amount","type":"uint256"}],"name":"walletSplit","outputs":[],"stateMutability":"nonpayable","type":"function"},{"inputs":[],"name":"x402ChannelFeeRate","outputs":[{"internalType":"uint16","name":"","type":"uint16"}],"stateMutability":"view","type":"function"},{"stateMutability":"payable","type":"receive"}],"evm":{"bytecode":{"linkReferences":{},"object":"608080604052346100775760008054336001600160a01b0319821681178355916001600160a01b03909116907f8be0079c531659141344cd1fd0a4f28419497f9722a3daafe3b4186f6b6457e09080a3600180556002805460ff191690556004805461ffff60a01b19169055614260908161007d8239f35b600080fdfe608080604052600436101561001d575b50361561001b57600080fd5b005b60003560e01c90816301bc95e214613051575080630431611a14612d9757806305c4678e14612d6b57806308b629c114612d4e5780630bc963a614612d0f5780630bda191e14612ad45780630dbb1d4114612ab75780630e4cbc7714612a9257806314e1327b14612a2b578063175c2f5e146128a55780631eb378f21461288157806321be11a914612858578063277327a51461280d57806327837eaf1461279557806339caec3e1461272e5780633a156950146124de5780633cced748146124715780633f4ba83a146123dd578063491abc2b146122eb57806349eabc67146122ce5780634a9d3e6a146122325780635300f841146121f357806353303cff14611eb6578063559fb87714611ddb5780635aca41f614610d7d5780635c975abb14611db85780636429b9d614611cf457806369dc3ae214611cb55780636cfe6afe14611b315780636f9fb98a14611aa6578063715018a614611a4d5780637b9e618d14611a205780638456cb59146119c65780638bf6aa45146117c55780638c5260201461179a5780638da5cb5b1461177157806391d159c41461172f578063968e72bd146115de5780639c3f1e90146115195780639e9221721461140a578063a09ae5c8146113d5578063a4c7118014611339578063a6091794146112c6578063a70817a514611261578063a7f4ad3914611032578063aa074a4914610fef578063b967024a14610fc6578063c44c913914610e2a578063cc30589d14610dce578063d3571a0214610d7d578063d38bd5d614610ce1578063d443895f14610af3578063d4f0ba1414610a74578063d79e8567146109dd578063e0f6c03a146107da578063e1f1c4a7146107bd578063e690484214610734578063ecd8dc3a146106e1578063f13177d5146103875763f2fde38b146102be573861000f565b34610382576020366003190112610382576102d76130f5565b6102df613350565b6001600160a01b0390811690811561032e57600054826001600160601b0360a01b821617600055167f8be0079c531659141344cd1fd0a4f28419497f9722a3daafe3b4186f6b6457e0600080a3005b60405162461bcd60e51b815260206004820152602660248201527f4f776e61626c653a206e6577206f776e657220697320746865207a65726f206160448201526564647265737360d01b6064820152608490fd5b600080fd5b346103825761010080600319360112610382576103a26130f5565b9060036024351015610382576003604435101561038257608435916001600160a01b0383168303610382576103d5613350565b6103e96001600160a01b0382161515613b71565b6103f66064351515613bb5565b6040519160208301916001600160601b0319808260601b16845261041b6024356130d5565b60243560f81b60348601526104316044356130d5565b60443560f81b603586015260643560368601528560601b16605685015260a435606a85015260c435608a85015260e43560aa8501524260ca85015260ca8452838281011067ffffffffffffffff83860111176106cb576106398260086102407fe96fff900a6ff2a08049bfee9ccea320d64dbba6bcf81a91fc6c63360cc9f65b9660e096890160405288519020976104ca8482016131bd565b8084018990526001600160a01b0386166101208201526104eb6024356130d5565b6024356101408201526104ff6044356130d5565b6044356101608201526064356101808201526001600160a01b038a81166101a083015260a4356101c083015260c4356101e083015260e4356102008301524261022083015260008383018190528a81526005602052604090209482015185556101208201516001860180546001600160a01b03199081169290931691909117815561014083015161059990610593816130d5565b82613c01565b6101608301516105a8816130d5565b6105b1816130d5565b815460ff60a81b191660a89190911b60ff60a81b1617905561018082015160028601556101a08201516003860180549092166001600160a01b03919091161790556101c081015160048501556101e081015160058501556102008101516006850155610220810151600785015501519101805491151560ff1660ff1992909216919091179055565b6001600160a01b038181166000908152600760209081526040808320938916835292905220805461066d9060643590613443565b90556040519461067e6024356130d5565b602435865261068e6044356130d5565b604435602087015260643560408701526001600160a01b03908116606087015260a435608087015260c43560a087015260e43560c08701521693a3005b634e487b7160e01b600052604160045260246000fd5b346103825760403660031901126103825761001b6106fd6130f5565b610705613173565b9061070e613350565b60018060a01b0316600052600b60205260406000209060ff801983541691151516179055565b346103825760203660031901126103825760043561ffff80821691828103610382577f4c921d0fab480eb4dc535e982514016e686da710c9b2adea4ac837b29cfbe28392604092610783613350565b61079161012c8311156133a8565b6004805461ffff60a01b19811660a095861b61ffff60a01b16179091558451931c1682526020820152a1005b346103825760003660031901126103825760206040516127108152f35b34610382576060366003190112610382576107f36130f5565b602435600381101561038257610807613137565b61080f613350565b60018060a01b03808416918260005260209460078652604060002091838116928360005287526040600020549182156109a35760405190888201926001600160601b0319809260601b168452610864896130d5565b8860f81b603484015260601b1660358201524260498201526049815261088981613213565b519020946040519260e084019284841067ffffffffffffffff8511176106cb576109827fc30a1924924dab37b65ff08c18bf05c3fc23520c199b08658339543f4e28643b9560058a8c819a606099604052828552818501908d825260408601906108f28b6130d5565b8a82528b870189815261095260808901948c8652600660a08b019742895260c08c019960008b5260005252604060002099518a558360018b01915116946001600160601b0360a01b9586835416178255519061094d826130d5565b613c01565b516002880155600387019251169082541617905551600484015551151591019060ff801983541691151516179055565b6040519261098f816130d5565b8352888301526040820152a3604051908152f35b60405162461bcd60e51b81526004810189905260126024820152714e6f2070656e64696e672062616c616e636560701b6044820152606490fd5b34610382576040366003190112610382576109f66130f5565b60243590610a02613350565b6001600160a01b031690610a1782151561414a565b804710610a385760008080809361001b955af1610a32613a5d565b50613c25565b60405162461bcd60e51b8152602060048201526014602482015273496e73756666696369656e742062616c616e636560601b6044820152606490fd5b3461038257604036600319011261038257610a8d6130f5565b7f01b2e3b41e74046014de2cee0271cefdbd37a03ffa73d7f1641f2fa5fa8ecacc6020610ab8613173565b92610ac1613350565b6001600160a01b03166000818152600c835260409020805460ff191660ff86151516179055925b6040519015158152a2005b3461038257610b013661314d565b610b096138c2565b610b11614021565b33600052602091600a835260ff6040600020541615610ca4576002546040516370a0823160e01b8082523060048301529160081c6001600160a01b03908116908683602481855afa928315610c605787928791600095610c6c575b5090610b7b9130903390614065565b60025460081c169260246040518095819382523060048301525afa8015610c60578492600091610c2b575b5090610bb191613c67565b10610be657610be0928260405191600283528201528160008051602061420b83398151915260403393a3613c74565b60018055005b60405162461bcd60e51b815260048101849052601860248201527f5472616e7366657220616d6f756e74206d69736d6174636800000000000000006044820152606490fd5b80929350868092503d8311610c59575b610c45818361322f565b810103126103825751839190610bb1610ba6565b503d610c3b565b6040513d6000823e3d90fd5b93849195508092503d8311610c9d575b610c86818361322f565b8101031261038257610b7b86889351949091610b6c565b503d610c7c565b60405162461bcd60e51b81526004810184905260156024820152742ab730baba3437b934bd32b210383937bb34b232b960591b6044820152606490fd5b3461038257610be0610cf236613193565b610cfd9291926138c2565b33600052600b60205260ff604060002054168015610d69575b610d1f906140a7565b610d27614021565b8160008051602061420b833981519152604060018060a01b03610d54878260025460081c16873091614065565b815194600486528760208701521693a3613c74565b506000546001600160a01b03163314610d16565b3461038257604036600319011261038257610d966130f5565b610d9e613121565b9060018060a01b038091166000526007602052604060002091166000526020526020604060002054604051908152f35b346103825760403660031901126103825761001b610dea613173565b610df2613350565b6004356000526009602052600a6040600020610e1860018060a01b038254161515613405565b019060ff801983541691151516179055565b346103825760a03660031901126103825760043560243590600482101561038257604435801515810361038257606435918215158303610382576084359384159485150361038257610ebb94610eb193600090600090610ec9600096610ec461ffff610ea181610e998b613314565b54169961332d565b541697612710809b8192856140f8565b049c8d99846140f8565b04978892613c67565b613c67565b978180610fbf575b15610f4b5750505050610ef2610f2a94610eea846140e1565b048093613c67565b905b80610f42575b610f2e575b604051958695869192608093969594919660a084019784526020840152604083015260608201520152565b0390f35b9190610f3991613443565b90600090610eff565b50811515610efa565b909192939550600014610f70575050610f6a610f2a94610eea846140e1565b92610ef4565b9092919015610fb35750610bb8808202908282041482151715610f9d57610f2a94610f6a91048092613c67565b634e487b7160e01b600052601160045260246000fd5b90610f2a945092610ef4565b5080610ed1565b34610382576000366003190112610382576003546040516001600160a01b039091168152602090f35b34610382576020366003190112610382576110086130f5565b611010613350565b600480546001600160a01b0319166001600160a01b0392909216919091179055005b346103825760003660031901126103825761104b613350565b7fe0283e559c29e31ee7f56467acc9dd307779c843a883aeeb3bf5c6128c908144805461ffff1990811660649081179092557fa1d6913cd9e08c872be3e7525cca82e4fc0fc298a783f19022be725b19be685a80548216831790557fb9bec7e2561f624fe753ff070f1599b306cbf59fafd4e8d5a8184a1ea1841bce80548216601e9081179091557f92b4482321f41ce3aa65f798bda23d0d12a60fc5f212868a548ddb00aa49de728054831690911790557ff4803e074bd026baaf6ed2e288c9515f68c72fb7216eebdd7cae1718a53ec3758054821660329081179091557f169f97de0d9a84d840042b17d3c6b9638b3d6fd9024c9eb0c7a306a17b49f88f8054831690911790557fa74ba3945261e09fde15ba3db55005b205e61eeb4ad811ac0faa2b315bffeead805482169092179091557f45f76dafbbad695564362934e24d72eedc57f9fc1a65f39bca62176cc82968288054821661012c17905560106020527f6e0956cda88cad152e89927e53611735b61a5c762d1428573c6931b0a5efcb018054821660c81790557f8c6065603763fec3f5742441d3833f3f43b982453612d76adb39a885e3006b5f8054821660fa1790557f853b2fefe141400fef543280f93d98bd49996069f632d0d20236afeeed8e46a28054821661019017905560036000527fb3edd0d534d647cffdae9f1294f11ad21f3fcf2814bea44c92bbb8d384a57d9e80549091166102bc179055005b346103825760403660031901126103825760043560078110156103825761ffff611289613182565b611291613350565b16906112a060c88311156133a8565b6112a981613346565b600052600e60205260406000209061ffff19825416179055600080f35b346103825760403660031901126103825761001b6112e2613173565b6112ea613350565b60043560005260086020526009604060002061130881541515613405565b01805461ff00191682151560081b61ff0016178155901561132b576005906133e4565b60ff815460101c16906133e4565b3461038257606036600319011261038257611352613137565b33600052600b60205260ff6040600020541680156113c1575b611374906140a7565b6004356000526009602052604060002090600d60018060a01b039261139d84825416151561410b565b602435600c8201550180546001600160b01b0319169190921617600160a01b179055005b506000546001600160a01b0316331461136b565b346103825760203660031901126103825760043560048110156103825761ffff61140060209261332d565b5416604051908152f35b346103825760203660031901126103825760043560005260096020526040600020600160a01b6001900381541690600181015490600160a01b600190036002820154166003820154600160a01b6001900360048401541660058401546006850154600786015490600887015460ff1692600988015494600a89015460ff1696600b8a015498600c8b01549a600d01549b604051809e81526020015260408d015260608c015260808b015260a08a015260c089015260e088015215156101008701526101208601521515610140850152610160840152610180830152600160a01b6001900381166101a08301528060a01c60ff1615156101c083015260a81c60ff1615156101e082015261020090f35b34610382576020366003190112610382576004356000526008602052610180604060002080549060ff60018060a01b0380600184015416928160028201541691600382015416600482015460058301546006840154916007850154936009600887015496015496888860101c16996040519b8c5260208c015260408b015260608a0152608089015260a088015260c087015260e0860152610100850152818116151561012085015260081c1615156101408301526115d681613346565b610160820152f35b3461038257604036600319011261038257600435602435908060005260096020526040600020600d81019061162860ff835461161e828260a01c1661418a565b60a81c16156141cb565b6004810154336001600160a01b0391821614908115611722575b50156116ec57600c9083600052600d60205284604060002055604051858152847ffc21f0a5b79e60806354685c8551409839f9fd3d44d61b6147dd3722b3fffbed60203393a3015480151590816116e2575b5061169b57005b805460ff60a81b1916600160a81b179055604080519283526064602084015230927f9675c67edb39d5ae53cd37192a12d34a8b4341d9955d37e70e0968c6962c32a49190a3005b9050831484611694565b60405162461bcd60e51b815260206004820152600e60248201526d139bdd08185d5d1a1bdc9a5e995960921b6044820152606490fd5b9050815416331485611642565b346103825760203660031901126103825760043560078110156103825761175581613346565b600052600e602052602061ffff60406000205416604051908152f35b34610382576000366003190112610382576000546040516001600160a01b039091168152602090f35b346103825760203660031901126103825760043560048110156103825761ffff611400602092613314565b34610382576060366003190112610382576004356117e1613173565b906044358160005260209260098452604060002033600052600c855260ff604060002054169081156119af575b50801561199b575b1561195d578260005260098452600d6040600020019081549061183e60ff8360a01c1661418a565b61184e60ff8360a81c16156141cb565b84600052600d8652604060002054156119235780611918575b156118bc57600160a81b9060ff60a81b191617905581600052600d8352604060002054926040519384528301527f9675c67edb39d5ae53cd37192a12d34a8b4341d9955d37e70e0968c6962c32a460403393a3005b50505060405191808352808301527f5175616c69747920696e73756666696369656e74206f722072656a656374656460408301527f200baebc864ec206cc88e1b582cc4ea1491b5ebf371c65e35115d0b1ab4997ae60603393a3005b50603c831015611867565b60405162461bcd60e51b8152600481018790526012602482015271139bc81c1c9bdbd9881cdd589b5a5d1d195960721b6044820152606490fd5b60405162461bcd60e51b81526004810185905260166024820152752737ba1030baba3437b934bd32b21030bab234ba37b960511b6044820152606490fd5b506000546001600160a01b03163314611816565b600d01546001600160a01b0316331490508561180e565b34610382576000366003190112610382576119df613350565b6119e7614021565b600160ff1960025416176002557f62e78cea01bee320cd4e420270b5ea74000d11b0c9f74754ebdbfc544b05a2586020604051338152a1005b346103825760003660031901126103825760025460405160089190911c6001600160a01b03168152602090f35b3461038257600036600319011261038257611a66613350565b600080546001600160a01b0319811682556001600160a01b03167f8be0079c531659141344cd1fd0a4f28419497f9722a3daafe3b4186f6b6457e08280a3005b34610382576000366003190112610382576002546040516370a0823160e01b8152306004820152906020908290602490829060081c6001600160a01b03165afa8015610c6057600090611aff575b602090604051908152f35b506020813d8211611b29575b81611b186020938361322f565b810103126103825760209051611af4565b3d9150611b0b565b3461038257602036600319011261038257610f2a604051611b51816131da565b6000815260006020820152600060408201526000606082015260006080820152600060a0820152600060c0820152600060e08201526101009060008282015260ff6101209260008484015261014060008185015261016090600082860152600d610180916000838801526101a0926000848901526101c0946000868a015260006101e0809a015260043560005260096020526040600020926040519a611bf68c6131da565b60018060a01b0398898654168d528c602060018801549101528c60408b6002890154169101528c606060038801549101528c60808b6004890154169101528c60a060058801549101528c60c060068801549101528c60e060078801549101528a6008870154161515908d01526009850154908c015288600a850154161515908b0152600b830154908a0152600c82015490890152015492831690860152828260a01c1615159085015260a81c1615159082015260405191829182613251565b34610382576020366003190112610382576001600160a01b03611cd66130f5565b16600052600a602052602060ff604060002054166040519015158152f35b34610382576020366003190112610382576004356000526005602052610160604060002080549060018101549060ff8260a01c1660ff8360a81c169060028301549160018060a01b0392836003860154169060048601549260058701549460068801549660ff600860078b01549a015416996040519b8c521660208b0152611d7b816130d5565b60408a0152611d89816130d5565b6060890152608088015260a087015260c086015260e08501526101008401526101208301521515610140820152f35b3461038257600036600319011261038257602060ff600254166040519015158152f35b3461038257606036600319011261038257611df46130f5565b611dfc613121565b90611e05613137565b611e0d613350565b6001600160a01b0391808316151580611eab575b15611e725760028054610100600160a81b03191660089290921b610100600160a81b0316919091179055600380546001600160a01b0319908116948416949094179055600480549093169116179055005b60405162461bcd60e51b8152602060048201526011602482015270496e76616c69642061646472657373657360781b6044820152606490fd5b508284161515611e21565b34610382576102203660031901126103825761020036602319011261038257604051611ee1816131da565b611ee9613121565b81526044356020820152611efb61310b565b6040820152608435606082015260a4356001600160a01b038116810361038257608082015260c43560a082015260e43560c08201526101043560e0820152611f41613163565b6101008201526101443561012082015261016435801515810361038257610140820152610184356101608201526101a4356101808201526101c4356001600160a01b0381168103610382576101a08201526101e43515156101e43503610382576101e4356101c0820152610204351515610204350361038257610204356101e08201526000546001600160a01b0316331480156121db575b156121a75780516001600160a01b031615612162576004356000526009602052600d604060002060018060a01b038351166001600160601b0360a01b9081835416178255602084015160018301556002820160018060a01b036040860151168282541617905560608401516003830155600482019060018060a01b036080860151169082541617905560a0830151600582015560c0830151600682015560e083015160078201556120a06101008401511515600883019060ff801983541691151516179055565b61012083015160098201556120cb6101408401511515600a83019060ff801983541691151516179055565b610160830151600b820155610180830151600c8201550160018060a01b036101a08301511681549060ff60a01b6101c0850151151560a01b169060ff60a81b6101e0860151151560a81b169269ffffffffffffffffffff60b01b1617171790557fe045480a66de342c7072912d1bdc542ac70716ee7c1c277dd49e6768ccf44c6c6040518061215d6004359482613251565b0390a2005b60405162461bcd60e51b815260206004820152601760248201527f496e76616c6964206d65726368616e742077616c6c65740000000000000000006044820152606490fd5b60405162461bcd60e51b815260206004820152600c60248201526b155b985d5d1a1bdc9a5e995960a21b6044820152606490fd5b5033600052600b60205260ff60406000205416611fd9565b34610382576020366003190112610382576001600160a01b036122146130f5565b16600052600b602052602060ff604060002054166040519015158152f35b3461038257610be061224336613193565b61224e9291926138c2565b33600052600b60205260ff6040600020541680156122ba575b612270906140a7565b612278614021565b8160008051602061420b833981519152604060018060a01b036122a5878260025460081c16873091614065565b815194600086528760208701521693a3613c74565b506000546001600160a01b03163314612267565b34610382576000366003190112610382576020604051610bb88152f35b3461038257606036600319011261038257600435600481101561038257612310613182565b6044359061ffff908183168093036103825761232a613350565b16916101f483116123a0576103e88211612366578061234b61235c92613314565b61ffff19948582541617905561332d565b8054909216179055005b60405162461bcd60e51b81526020600482015260126024820152710a0deded840e4c2e8ca40e8dede40d0d2ced60731b6044820152606490fd5b60405162461bcd60e51b81526020600482015260156024820152740a0d8c2e8ccdee4da40cccaca40e8dede40d0d2ced605b1b6044820152606490fd5b34610382576000366003190112610382576123f6613350565b60025460ff8116156124355760ff19166002557f5db9ee0a495bf2e6ff9c91a7834c1ba4fdd244a5e8aa4e537bd38aeae4b073aa6020604051338152a1005b60405162461bcd60e51b815260206004820152601460248201527314185d5cd8589b194e881b9bdd081c185d5cd95960621b6044820152606490fd5b3461038257602036600319011261038257600435600052600960205260a06040600020600c600d82015491015490600d6020526040600020546040519260ff83861c16151584526020840152604083015260ff8160a81c1615156060830152600180841b03166080820152f35b346103825760803660031901126103825760043560243560443560078110156103825761250961310b565b6125116138c2565b612519614021565b61252282613346565b60038214801561271b575b8015612708575b80156126f5575b156126bb5761254982613346565b81600052600e602052612710908161256a61ffff60406000205416866140f8565b04916125768386613443565b6002546001600160a01b039391612595913090339060081c8716614065565b8660005260096020526125c28684604060002054166125b581151561410b565b8560025460081c16613918565b83918382161515806126b2575b61264a575b5050917f4cfc1808aabc66ae2fd5ff884de56e832011cce608c92f39305c64759e0f00989491836080959461262c575b50506040519261261381613346565b835281602084015260408301526060820152a260018055005b816126439260025460081c16906003541690613918565b8680612604565b9493915094916107d094858302958387041483151715610f9d577f4cfc1808aabc66ae2fd5ff884de56e832011cce608c92f39305c64759e0f0098966126a06126a6926080980480928560025460081c16613918565b83613c67565b919394819396506125d4565b508415156125cf565b60405162461bcd60e51b81526020600482015260126024820152714e6f74207363616e6e656420736f7572636560701b6044820152606490fd5b506126ff82613346565b6006821461253b565b5061271282613346565b60058214612534565b5061272582613346565b6004821461252d565b3461038257610be061273f3661314d565b906127486138c2565b612750614021565b60025461276e9083903090339060081c6001600160a01b0316614065565b604051600181528260208201528160008051602061420b83398151915260403393a3613c74565b34610382576040366003190112610382576127ae6130f5565b7ffd79366b0051edb9404d647385b22aabe1614a4d2c90fe624ff85103e6ceec1b60206127d9613173565b926127e2613350565b6001600160a01b03166000818152600a835260409020805460ff191660ff8615151617905592610ae8565b346103825760603660031901126103825761001b6128296130f5565b612831613121565b612839613350565b6001600160a01b0361284e828216151561414a565b6044359216613918565b34610382576000366003190112610382576004546040516001600160a01b039091168152602090f35b346103825760203660031901126103825761289a6138c2565b610be0600435613490565b3461038257610180366003190112610382576004356128c2613121565b6128ca613137565b906128d361310b565b610104356128df613163565b9161014435938415158503610382576101643593600785101561038257612904613350565b87156129f6576129db6040966129c560098b6129e0978a977f60910029fe48a0a44b96bb99a56760a55d152696cb8c89400f54d805f0f43e439d8360005260086020528d600020938455600184019060018060a01b0391826001600160601b0360a01b941684825416179055816002860191168382541617905560038401921690825416179055608435600482015560a435600582015560c435600682015560e43560078201558860088201550193849060ff801983541691151516179055565b825461ff00191690151560081b61ff0016178255565b6133e4565b8251916129ec81613346565b82526020820152a2005b60405162461bcd60e51b815260206004820152600d60248201526c24b73b30b634b21037b93232b960991b6044820152606490fd5b3461038257610be0612a3c3661314d565b90612a456138c2565b612a4d614021565b600254612a6b9083903090339060081c6001600160a01b0316614065565b604051600081528260208201528160008051602061420b83398151915260403393a3613c74565b3461038257600036600319011261038257602061ffff60045460a01c16604051908152f35b346103825760003660031901126103825760206040516107d08152f35b346103825760208060031936011261038257600435612af16138c2565b80600052600682526040600020805415612cd357600581019060ff825416612c8e5760028101546003820154600190920180546001600160a01b039081166000908152600788526040808220958316808352958952812055919383612bac5791818593612b8f60008080807f3fb9f3db0b2a1ca46fae5e943a35100c1504b6487b7a27513ae2f2279fb038959b8860409c9a54165af1610a32613a5d565b600160ff198254161790555416958351928352820152a360018055005b6040516370a0823160e01b81523060048201528781602481885afa8015610c60578691600091612c5d575b5010612c185791818593612c137f3fb9f3db0b2a1ca46fae5e943a35100c1504b6487b7a27513ae2f2279fb03895978460409896541686613918565b612b8f565b60405162461bcd60e51b815260048101889052601a60248201527f496e73756666696369656e7420746f6b656e2062616c616e63650000000000006044820152606490fd5b809250898092503d8311612c87575b612c76818361322f565b810103126103825785905189612bd7565b503d612c6c565b60405162461bcd60e51b815260048101859052601c60248201527f536574746c656d656e7420616c726561647920636f6d706c65746564000000006044820152606490fd5b60405162461bcd60e51b815260048101849052601460248201527314d95d1d1b195b595b9d081b9bdd08199bdd5b9960621b6044820152606490fd5b34610382576020366003190112610382576001600160a01b03612d306130f5565b16600052600c602052602060ff604060002054166040519015158152f35b34610382576000366003190112610382576020604051611b588152f35b3461038257602036600319011261038257600435600052600d6020526020604060002054604051908152f35b3461038257608036600319011261038257612db06130f5565b6003602435101561038257612dc361310b565b90612dcc613350565b612de06001600160a01b0382161515613b71565b612ded6044351515613bb5565b7fe96fff900a6ff2a08049bfee9ccea320d64dbba6bcf81a91fc6c63360cc9f65b60e060405160208101906001600160601b03198560601b168252612e336024356130d5565b60243560f81b603482015260443560358201526001600160601b03198660601b16605582015242606982015260698152612e6c816131f7565b51902092612fce604051612e7f816131bd565b8581526001600160a01b0383166020820152612e9c6024356130d5565b602435604082015260006060820152604435608082015260018060a01b03871660a082015260443560c082015260008482015260006101008201524261012082015260006101408201528560005260056020526008610140604060002092805184556001840160018060a01b03602083015116906001600160601b0360a01b9182825416178155612f346040840151610593816130d5565b6060830151612f42816130d5565b612f4b816130d5565b815460ff60a81b191660a89190911b60ff60a81b161790556080820151600286015560a08201516003860180549092166001600160a01b039190911617905560c081015160048501558681015160058501556101008101516006850155610120810151600785015501519101805491151560ff1660ff1992909216919091179055565b6001600160a01b03818116600090815260076020908152604080832093891683529290522080546130029060443590613443565b9055604051946130136024356130d5565b6024358652600060208701819052604435604088018190526001600160a01b039283166060890152608088015260a0870181905260c08701521693a3005b346103825760203660031901126103825760e09060043560005260066020526040600020805490600181015460ff8160a01c1660028301549060018060a01b03806003860154169360ff60056004880154970154169688521660208701526130b8816130d5565b60408601526060850152608084015260a0830152151560c0820152f35b600311156130df57565b634e487b7160e01b600052602160045260246000fd5b600435906001600160a01b038216820361038257565b606435906001600160a01b038216820361038257565b602435906001600160a01b038216820361038257565b604435906001600160a01b038216820361038257565b6040906003190112610382576004359060243590565b6101243590811515820361038257565b60243590811515820361038257565b6024359061ffff8216820361038257565b60609060031901126103825760043590602435906044356001600160a01b03811681036103825790565b610160810190811067ffffffffffffffff8211176106cb57604052565b610200810190811067ffffffffffffffff8211176106cb57604052565b60a0810190811067ffffffffffffffff8211176106cb57604052565b6080810190811067ffffffffffffffff8211176106cb57604052565b90601f8019910116810190811067ffffffffffffffff8211176106cb57604052565b91909161020081019260018060a01b03808251168352602082015160208401528060408301511660408401526060820151606084015280608083015116608084015260a082015160a084015260c082015160c084015260e082015160e084015261010080830151151590840152610120808301519084015261014080830151151590840152610160808301519084015261018080830151908401526101a0908183015116908301526101c0808201511515908301526101e0809101511515910152565b60048110156130df57600052600f602052604060002090565b60048110156130df576000526010602052604060002090565b600711156130df57565b6000546001600160a01b0316330361336457565b606460405162461bcd60e51b815260206004820152602060248201527f4f776e61626c653a2063616c6c6572206973206e6f7420746865206f776e65726044820152fd5b156133af57565b60405162461bcd60e51b815260206004820152600d60248201526c0a4c2e8ca40e8dede40d0d2ced609b1b6044820152606490fd5b906133ee81613346565b62ff000082549160101b169062ff00001916179055565b1561340c57565b60405162461bcd60e51b815260206004820152600f60248201526e13dc99195c881b9bdd08199bdd5b99608a1b6044820152606490fd5b91908201809211610f9d57565b1561345757565b60405162461bcd60e51b815260206004820152601160248201527013dc99195c881a5cc8191a5cdc1d5d1959607a1b6044820152606490fd5b60008181526020906009825260409081812060018060a01b03908181541661375157508482526008808552838320926134cb84541515613405565b60098401928354600360ff8260101c166134e481613346565b0361371b5760ff6134f891851c1615613450565b8285015442106136d757600291818354851c16801561369c57826003541615613658579160049593918795938260017f20ae1b8db4d925afaaf826cdcc84ac635f7e9d344a3a44014212f343a71c5ff19c9b9a015416908115158061364c575b613637575b5050600586015480151580613629575b61360d575b506006860154806135c7575b5050600785015491826135a9575b505050506204000062ff00001982541617905501549051908152a2565b6135be93829154901c16906003541690613918565b3880808061358c565b85546135f2925060ff161561360457826003880154165b838116156135f9575b838554871c16613918565b388061357e565b5082600354166135e7565b828854166135de565b61362390838554871c1684868a01541690613918565b38613572565b50828488015416151561356d565b613645918989015491613918565b388061355d565b50888801541515613558565b875162461bcd60e51b8152600481018a9052601760248201527f5472656173757279206e6f7420636f6e666967757265640000000000000000006044820152606490fd5b875162461bcd60e51b8152600481018a90526014602482015273151bdad95b881b9bdd0818dbdb999a59dd5c995960621b6044820152606490fd5b855162461bcd60e51b815260048101889052601760248201527f5374696c6c20696e206c6f636b696e6720706572696f640000000000000000006044820152606490fd5b865162461bcd60e51b815260048101899052600f60248201526e4f72646572206e6f7420726561647960881b6044820152606490fd5b9594929084600d88969496015460ff8160a01c16613875575b5060025483516370a0823160e01b8152306004820152928391602491839160081c165afa94851561386a578095613835575b505083156137f25750506137da8460066137d16137c660016137e898990154600385015490613443565b600584015490613443565b91015490613443565b9182156137ea575b50613c74565b565b9150386137e2565b60649250519062461bcd60e51b82526004820152601860248201527f4e6f2062616c616e636520746f206469737472696275746500000000000000006044820152fd5b909194508282813d8311613863575b61384e818361322f565b8101031261386057505192388061379c565b80fd5b503d613844565b8251903d90823e3d90fd5b60ff915060a81c161561388957823861376a565b815162461bcd60e51b8152600481018490526012602482015271141c9bdbd9881b9bdd081d995c9a599a595960721b6044820152606490fd5b6002600154146138d3576002600155565b60405162461bcd60e51b815260206004820152601f60248201527f5265656e7472616e637947756172643a207265656e7472616e742063616c6c006044820152606490fd5b60405163a9059cbb60e01b60208201526001600160a01b0390921660248301526044808301939093529181526137e89161395182613213565b60018060a01b031690604051604081019080821067ffffffffffffffff8311176106cb576139c3916040526020938482527f5361666545524332303a206c6f772d6c6576656c2063616c6c206661696c6564858301526000808587829751910182855af16139bd613a5d565b91613a9d565b805191821591848315613a35575b5050509050156139de5750565b6084906040519062461bcd60e51b82526004820152602a60248201527f5361666545524332303a204552433230206f7065726174696f6e20646964206e6044820152691bdd081cdd58d8d9595960b21b6064820152fd5b919381809450010312613a59578201519081151582036138605750803880846139d1565b5080fd5b3d15613a98573d9067ffffffffffffffff82116106cb5760405191613a8c601f8201601f19166020018461322f565b82523d6000602084013e565b606090565b91929015613aff5750815115613ab1575090565b3b15613aba5790565b60405162461bcd60e51b815260206004820152601d60248201527f416464726573733a2063616c6c20746f206e6f6e2d636f6e74726163740000006044820152606490fd5b825190915015613b125750805190602001fd5b6040519062461bcd60e51b82528160208060048301528251908160248401526000935b828510613b58575050604492506000838284010152601f80199101168101030190fd5b8481018201518686016044015293810193859350613b35565b15613b7857565b60405162461bcd60e51b8152602060048201526015602482015274496e76616c6964207061796565206164647265737360581b6044820152606490fd5b15613bbc57565b60405162461bcd60e51b815260206004820152601d60248201527f416d6f756e74206d7573742062652067726561746572207468616e20300000006044820152606490fd5b90613c0b816130d5565b815460ff60a01b191660a09190911b60ff60a01b16179055565b15613c2c57565b60405162461bcd60e51b8152602060048201526013602482015272115512081d1c985b9cd9995c8819985a5b1959606a1b6044820152606490fd5b91908203918211610f9d57565b6000908082526020600981526040938484209460018060a01b039485875416908115801590613fe457613cae60ff600a8b01541615613450565b600989015480613f94575b5060029283549689600898891c169086516370a0823160e01b81523060048201528181602481865afa908115613f8a579089918791613f55575b5010613f125750918391613dcb95937fb47ba55cbb72a0e3b06f3cb944f334db1aa0a610ce470c96aeb042e458ead4c5999897959280613f05575b613eea575b505060038b019283548c8c8a83151580613edc575b613ead575b50506005915001928b8d8554928b84613e4b575b5050600691925001988d8a5480613e20575b50600701805480613df6575b5050838911613dd0575b505050506001600b8b0154998b54169a01549554905491549251958695869192608093969594919660a084019784526020840152604083015260608201520152565b0390a4565b613ddd613ded948a613c67565b9254901c168b6003541690613918565b38808a81613d89565b90613e11613e18939692858754891c16866003541690613918565b5490613443565b923880613d7f565b60079195613e3c613e4492868854871c16876003541690613918565b8c5490613443565b9490613d73565b91613e82939160ff613e8a97989694830154169050600014613ea157600401548116905b80821615613e95575b86548d1c16613918565b835490613443565b90388b8d828b613d61565b60035481169150613e78565b50806004541690613e6f565b91818580979593613eca95613ed29854901c169201541690613918565b845490613443565b90388c8c8a613d4d565b508185840154161515613d48565b613efd91925060018d0192835491613918565b543880613d33565b5060018d01541515613d2e565b60649087519062461bcd60e51b82526004820152601960248201527f496e73756666696369656e7420555344432062616c616e6365000000000000006044820152fd5b809250838092503d8311613f83575b613f6e818361322f565b81010312613f7f5788905138613cf3565b8580fd5b503d613f64565b88513d88823e3d90fd5b4210613fa05738613cb9565b835162461bcd60e51b815260048101879052601b60248201527f536574746c656d656e742074696d65206e6f74207265616368656400000000006044820152606490fd5b835162461bcd60e51b815260048101879052601660248201527513dc99195c8818dbdb999a59c81b9bdd08199bdd5b9960521b6044820152606490fd5b60ff6002541661402d57565b60405162461bcd60e51b815260206004820152601060248201526f14185d5cd8589b194e881c185d5cd95960821b6044820152606490fd5b6040516323b872dd60e01b60208201526001600160a01b0392831660248201529290911660448301526064808301939093529181526137e891613951826131f7565b156140ae57565b60405162461bcd60e51b815260206004820152600b60248201526a2737ba103932b630bcb2b960a91b6044820152606490fd5b90611b5891828102928184041490151715610f9d57565b81810292918115918404141715610f9d57565b1561411257565b60405162461bcd60e51b815260206004820152601060248201526f10dbdb999a59c81b9bdd08199bdd5b9960821b6044820152606490fd5b1561415157565b60405162461bcd60e51b8152602060048201526011602482015270125b9d985b1a59081c9958da5c1a595b9d607a1b6044820152606490fd5b1561419157565b60405162461bcd60e51b8152602060048201526012602482015271141c9bdbd9881b9bdd081c995c5d5a5c995960721b6044820152606490fd5b156141d257565b60405162461bcd60e51b815260206004820152601060248201526f105b1c9958591e481d995c9a599a595960821b6044820152606490fdfe92defc681899e982c1113166ca033c2e48195784a6b8074395d558c2a3cb6316a2646970667358221220385500fc4c90241a053f035407af71bd2aa49aa322aaab18471b0edfa6e4b8ed64736f6c63430008140033","opcodes":"PUSH1 0x80 DUP1 PUSH1 0x40 MSTORE CALLVALUE PUSH2 0x77 JUMPI PUSH1 0x0 DUP1 SLOAD CALLER PUSH1 0x1 PUSH1 0x1 PUSH1 0xA0 SHL SUB NOT DUP3 AND DUP2 OR DUP4 SSTORE SWAP2 PUSH1 0x1 PUSH1 0x1 PUSH1 0xA0 SHL SUB SWAP1 SWAP2 AND SWAP1 PUSH32 0x8BE0079C531659141344CD1FD0A4F28419497F9722A3DAAFE3B4186F6B6457E0 SWAP1 DUP1 LOG3 PUSH1 0x1 DUP1 SSTORE PUSH1 0x2 DUP1 SLOAD PUSH1 0xFF NOT AND SWAP1 SSTORE PUSH1 0x4 DUP1 SLOAD PUSH2 0xFFFF PUSH1 0xA0 SHL NOT AND SWAP1 SSTORE PUSH2 0x4260 SWAP1 DUP2 PUSH2 0x7D DUP3 CODECOPY RETURN JUMPDEST PUSH1 0x0 DUP1 REVERT INVALID PUSH1 0x80 DUP1 PUSH1 0x40 MSTORE PUSH1 0x4 CALLDATASIZE LT ISZERO PUSH2 0x1D JUMPI JUMPDEST POP CALLDATASIZE ISZERO PUSH2 0x1B JUMPI PUSH1 0x0 DUP1 REVERT JUMPDEST STOP JUMPDEST PUSH1 0x0 CALLDATALOAD PUSH1 0xE0 SHR SWAP1 DUP2 PUSH4 0x1BC95E2 EQ PUSH2 0x3051 JUMPI POP DUP1 PUSH4 0x431611A EQ PUSH2 0x2D97 JUMPI DUP1 PUSH4 0x5C4678E EQ PUSH2 0x2D6B JUMPI DUP1 PUSH4 0x8B629C1 EQ PUSH2 0x2D4E JUMPI DUP1 PUSH4 0xBC963A6 EQ PUSH2 0x2D0F JUMPI DUP1 PUSH4 0xBDA191E EQ PUSH2 0x2AD4 JUMPI DUP1 PUSH4 0xDBB1D41 EQ PUSH2 0x2AB7 JUMPI DUP1 PUSH4 0xE4CBC77 EQ PUSH2 0x2A92 JUMPI DUP1 PUSH4 0x14E1327B EQ PUSH2 0x2A2B JUMPI DUP1 PUSH4 0x175C2F5E EQ PUSH2 0x28A5 JUMPI DUP1 PUSH4 0x1EB378F2 EQ PUSH2 0x2881 JUMPI DUP1 PUSH4 0x21BE11A9 EQ PUSH2 0x2858 JUMPI DUP1 PUSH4 0x277327A5 EQ PUSH2 0x280D JUMPI DUP1 PUSH4 0x27837EAF EQ PUSH2 0x2795 JUMPI DUP1 PUSH4 0x39CAEC3E EQ PUSH2 0x272E JUMPI DUP1 PUSH4 0x3A156950 EQ PUSH2 0x24DE JUMPI DUP1 PUSH4 0x3CCED748 EQ PUSH2 0x2471 JUMPI DUP1 PUSH4 0x3F4BA83A EQ PUSH2 0x23DD JUMPI DUP1 PUSH4 0x491ABC2B EQ PUSH2 0x22EB JUMPI DUP1 PUSH4 0x49EABC67 EQ PUSH2 0x22CE JUMPI DUP1 PUSH4 0x4A9D3E6A EQ PUSH2 0x2232 JUMPI DUP1 PUSH4 0x5300F841 EQ PUSH2 0x21F3 JUMPI DUP1 PUSH4 0x53303CFF EQ PUSH2 0x1EB6 JUMPI DUP1 PUSH4 0x559FB877 EQ PUSH2 0x1DDB JUMPI DUP1 PUSH4 0x5ACA41F6 EQ PUSH2 0xD7D JUMPI DUP1 PUSH4 0x5C975ABB EQ PUSH2 0x1DB8 JUMPI DUP1 PUSH4 0x6429B9D6 EQ PUSH2 0x1CF4 JUMPI DUP1 PUSH4 0x69DC3AE2 EQ PUSH2 0x1CB5 JUMPI DUP1 PUSH4 0x6CFE6AFE EQ PUSH2 0x1B31 JUMPI DUP1 PUSH4 0x6F9FB98A EQ PUSH2 0x1AA6 JUMPI DUP1 PUSH4 0x715018A6 EQ PUSH2 0x1A4D JUMPI DUP1 PUSH4 0x7B9E618D EQ PUSH2 0x1A20 JUMPI DUP1 PUSH4 0x8456CB59 EQ PUSH2 0x19C6 JUMPI DUP1 PUSH4 0x8BF6AA45 EQ PUSH2 0x17C5 JUMPI DUP1 PUSH4 0x8C526020 EQ PUSH2 0x179A JUMPI DUP1 PUSH4 0x8DA5CB5B EQ PUSH2 0x1771 JUMPI DUP1 PUSH4 0x91D159C4 EQ PUSH2 0x172F JUMPI DUP1 PUSH4 0x968E72BD EQ PUSH2 0x15DE JUMPI DUP1 PUSH4 0x9C3F1E90 EQ PUSH2 0x1519 JUMPI DUP1 PUSH4 0x9E922172 EQ PUSH2 0x140A JUMPI DUP1 PUSH4 0xA09AE5C8 EQ PUSH2 0x13D5 JUMPI DUP1 PUSH4 0xA4C71180 EQ PUSH2 0x1339 JUMPI DUP1 PUSH4 0xA6091794 EQ PUSH2 0x12C6 JUMPI DUP1 PUSH4 0xA70817A5 EQ PUSH2 0x1261 JUMPI DUP1 PUSH4 0xA7F4AD39 EQ PUSH2 0x1032 JUMPI DUP1 PUSH4 0xAA074A49 EQ PUSH2 0xFEF JUMPI DUP1 PUSH4 0xB967024A EQ PUSH2 0xFC6 JUMPI DUP1 PUSH4 0xC44C9139 EQ PUSH2 0xE2A JUMPI DUP1 PUSH4 0xCC30589D EQ PUSH2 0xDCE JUMPI DUP1 PUSH4 0xD3571A02 EQ PUSH2 0xD7D JUMPI DUP1 PUSH4 0xD38BD5D6 EQ PUSH2 0xCE1 JUMPI DUP1 PUSH4 0xD443895F EQ PUSH2 0xAF3 JUMPI DUP1 PUSH4 0xD4F0BA14 EQ PUSH2 0xA74 JUMPI DUP1 PUSH4 0xD79E8567 EQ PUSH2 0x9DD JUMPI DUP1 PUSH4 0xE0F6C03A EQ PUSH2 0x7DA JUMPI DUP1 PUSH4 0xE1F1C4A7 EQ PUSH2 0x7BD JUMPI DUP1 PUSH4 0xE6904842 EQ PUSH2 0x734 JUMPI DUP1 PUSH4 0xECD8DC3A EQ PUSH2 0x6E1 JUMPI DUP1 PUSH4 0xF13177D5 EQ PUSH2 0x387 JUMPI PUSH4 0xF2FDE38B EQ PUSH2 0x2BE JUMPI CODESIZE PUSH2 0xF JUMP JUMPDEST CALLVALUE PUSH2 0x382 JUMPI PUSH1 0x20 CALLDATASIZE PUSH1 0x3 NOT ADD SLT PUSH2 0x382 JUMPI PUSH2 0x2D7 PUSH2 0x30F5 JUMP JUMPDEST PUSH2 0x2DF PUSH2 0x3350 JUMP JUMPDEST PUSH1 0x1 PUSH1 0x1 PUSH1 0xA0 SHL SUB SWAP1 DUP2 AND SWAP1 DUP2 ISZERO PUSH2 0x32E JUMPI PUSH1 0x0 SLOAD DUP3 PUSH1 0x1 PUSH1 0x1 PUSH1 0x60 SHL SUB PUSH1 0xA0 SHL DUP3 AND OR PUSH1 0x0 SSTORE AND PUSH32 0x8BE0079C531659141344CD1FD0A4F28419497F9722A3DAAFE3B4186F6B6457E0 PUSH1 0x0 DUP1 LOG3 STOP JUMPDEST PUSH1 0x40 MLOAD PUSH3 0x461BCD PUSH1 0xE5 SHL DUP2 MSTORE PUSH1 0x20 PUSH1 0x4 DUP3 ADD MSTORE PUSH1 0x26 PUSH1 0x24 DUP3 ADD MSTORE PUSH32 0x4F776E61626C653A206E6577206F776E657220697320746865207A65726F2061 PUSH1 0x44 DUP3 ADD MSTORE PUSH6 0x646472657373 PUSH1 0xD0 SHL PUSH1 0x64 DUP3 ADD MSTORE PUSH1 0x84 SWAP1 REVERT JUMPDEST PUSH1 0x0 DUP1 REVERT JUMPDEST CALLVALUE PUSH2 0x382 JUMPI PUSH2 0x100 DUP1 PUSH1 0x3 NOT CALLDATASIZE ADD SLT PUSH2 0x382 JUMPI PUSH2 0x3A2 PUSH2 0x30F5 JUMP JUMPDEST SWAP1 PUSH1 0x3 PUSH1 0x24 CALLDATALOAD LT ISZERO PUSH2 0x382 JUMPI PUSH1 0x3 PUSH1 0x44 CALLDATALOAD LT ISZERO PUSH2 0x382 JUMPI PUSH1 0x84 CALLDATALOAD SWAP2 PUSH1 0x1 PUSH1 0x1 PUSH1 0xA0 SHL SUB DUP4 AND DUP4 SUB PUSH2 0x382 JUMPI PUSH2 0x3D5 PUSH2 0x3350 JUMP JUMPDEST PUSH2 0x3E9 PUSH1 0x1 PUSH1 0x1 PUSH1 0xA0 SHL SUB DUP3 AND ISZERO ISZERO PUSH2 0x3B71 JUMP JUMPDEST PUSH2 0x3F6 PUSH1 0x64 CALLDATALOAD ISZERO ISZERO PUSH2 0x3BB5 JUMP JUMPDEST PUSH1 0x40 MLOAD SWAP2 PUSH1 0x20 DUP4 ADD SWAP2 PUSH1 0x1 PUSH1 0x1 PUSH1 0x60 SHL SUB NOT DUP1 DUP3 PUSH1 0x60 SHL AND DUP5 MSTORE PUSH2 0x41B PUSH1 0x24 CALLDATALOAD PUSH2 0x30D5 JUMP JUMPDEST PUSH1 0x24 CALLDATALOAD PUSH1 0xF8 SHL PUSH1 0x34 DUP7 ADD MSTORE PUSH2 0x431 PUSH1 0x44 CALLDATALOAD PUSH2 0x30D5 JUMP JUMPDEST PUSH1 0x44 CALLDATALOAD PUSH1 0xF8 SHL PUSH1 0x35 DUP7 ADD MSTORE PUSH1 0x64 CALLDATALOAD PUSH1 0x36 DUP7 ADD MSTORE DUP6 PUSH1 0x60 SHL AND PUSH1 0x56 DUP6 ADD MSTORE PUSH1 0xA4 CALLDATALOAD PUSH1 0x6A DUP6 ADD MSTORE PUSH1 0xC4 CALLDATALOAD PUSH1 0x8A DUP6 ADD MSTORE PUSH1 0xE4 CALLDATALOAD PUSH1 0xAA DUP6 ADD MSTORE TIMESTAMP PUSH1 0xCA DUP6 ADD MSTORE PUSH1 0xCA DUP5 MSTORE DUP4 DUP3 DUP2 ADD LT PUSH8 0xFFFFFFFFFFFFFFFF DUP4 DUP7 ADD GT OR PUSH2 0x6CB JUMPI PUSH2 0x639 DUP3 PUSH1 0x8 PUSH2 0x240 PUSH32 0xE96FFF900A6FF2A08049BFEE9CCEA320D64DBBA6BCF81A91FC6C63360CC9F65B SWAP7 PUSH1 0xE0 SWAP7 DUP10 ADD PUSH1 0x40 MSTORE DUP9 MLOAD SWAP1 KECCAK256 SWAP8 PUSH2 0x4CA DUP5 DUP3 ADD PUSH2 0x31BD JUMP JUMPDEST DUP1 DUP5 ADD DUP10 SWAP1 MSTORE PUSH1 0x1 PUSH1 0x1 PUSH1 0xA0 SHL SUB DUP7 AND PUSH2 0x120 DUP3 ADD MSTORE PUSH2 0x4EB PUSH1 0x24 CALLDATALOAD PUSH2 0x30D5 JUMP JUMPDEST PUSH1 0x24 CALLDATALOAD PUSH2 0x140 DUP3 ADD MSTORE PUSH2 0x4FF PUSH1 0x44 CALLDATALOAD PUSH2 0x30D5 JUMP JUMPDEST PUSH1 0x44 CALLDATALOAD PUSH2 0x160 DUP3 ADD MSTORE PUSH1 0x64 CALLDATALOAD PUSH2 0x180 DUP3 ADD MSTORE PUSH1 0x1 PUSH1 0x1 PUSH1 0xA0 SHL SUB DUP11 DUP2 AND PUSH2 0x1A0 DUP4 ADD MSTORE PUSH1 0xA4 CALLDATALOAD PUSH2 0x1C0 DUP4 ADD MSTORE PUSH1 0xC4 CALLDATALOAD PUSH2 0x1E0 DUP4 ADD MSTORE PUSH1 0xE4 CALLDATALOAD PUSH2 0x200 DUP4 ADD MSTORE TIMESTAMP PUSH2 0x220 DUP4 ADD MSTORE PUSH1 0x0 DUP4 DUP4 ADD DUP2 SWAP1 MSTORE DUP11 DUP2 MSTORE PUSH1 0x5 PUSH1 0x20 MSTORE PUSH1 0x40 SWAP1 KECCAK256 SWAP5 DUP3 ADD MLOAD DUP6 SSTORE PUSH2 0x120 DUP3 ADD MLOAD PUSH1 0x1 DUP7 ADD DUP1 SLOAD PUSH1 0x1 PUSH1 0x1 PUSH1 0xA0 SHL SUB NOT SWAP1 DUP2 AND SWAP3 SWAP1 SWAP4 AND SWAP2 SWAP1 SWAP2 OR DUP2 SSTORE PUSH2 0x140 DUP4 ADD MLOAD PUSH2 0x599 SWAP1 PUSH2 0x593 DUP2 PUSH2 0x30D5 JUMP JUMPDEST DUP3 PUSH2 0x3C01 JUMP JUMPDEST PUSH2 0x160 DUP4 ADD MLOAD PUSH2 0x5A8 DUP2 PUSH2 0x30D5 JUMP JUMPDEST PUSH2 0x5B1 DUP2 PUSH2 0x30D5 JUMP JUMPDEST DUP2 SLOAD PUSH1 0xFF PUSH1 0xA8 SHL NOT AND PUSH1 0xA8 SWAP2 SWAP1 SWAP2 SHL PUSH1 0xFF PUSH1 0xA8 SHL AND OR SWAP1 SSTORE PUSH2 0x180 DUP3 ADD MLOAD PUSH1 0x2 DUP7 ADD SSTORE PUSH2 0x1A0 DUP3 ADD MLOAD PUSH1 0x3 DUP7 ADD DUP1 SLOAD SWAP1 SWAP3 AND PUSH1 0x1 PUSH1 0x1 PUSH1 0xA0 SHL SUB SWAP2 SWAP1 SWAP2 AND OR SWAP1 SSTORE PUSH2 0x1C0 DUP2 ADD MLOAD PUSH1 0x4 DUP6 ADD SSTORE PUSH2 0x1E0 DUP2 ADD MLOAD PUSH1 0x5 DUP6 ADD SSTORE PUSH2 0x200 DUP2 ADD MLOAD PUSH1 0x6 DUP6 ADD SSTORE PUSH2 0x220 DUP2 ADD MLOAD PUSH1 0x7 DUP6 ADD SSTORE ADD MLOAD SWAP2 ADD DUP1 SLOAD SWAP2 ISZERO ISZERO PUSH1 0xFF AND PUSH1 0xFF NOT SWAP3 SWAP1 SWAP3 AND SWAP2 SWAP1 SWAP2 OR SWAP1 SSTORE JUMP JUMPDEST PUSH1 0x1 PUSH1 0x1 PUSH1 0xA0 SHL SUB DUP2 DUP2 AND PUSH1 0x0 SWAP1 DUP2 MSTORE PUSH1 0x7 PUSH1 0x20 SWAP1 DUP2 MSTORE PUSH1 0x40 DUP1 DUP4 KECCAK256 SWAP4 DUP10 AND DUP4 MSTORE SWAP3 SWAP1 MSTORE KECCAK256 DUP1 SLOAD PUSH2 0x66D SWAP1 PUSH1 0x64 CALLDATALOAD SWAP1 PUSH2 0x3443 JUMP JUMPDEST SWAP1 SSTORE PUSH1 0x40 MLOAD SWAP5 PUSH2 0x67E PUSH1 0x24 CALLDATALOAD PUSH2 0x30D5 JUMP JUMPDEST PUSH1 0x24 CALLDATALOAD DUP7 MSTORE PUSH2 0x68E PUSH1 0x44 CALLDATALOAD PUSH2 0x30D5 JUMP JUMPDEST PUSH1 0x44 CALLDATALOAD PUSH1 0x20 DUP8 ADD MSTORE PUSH1 0x64 CALLDATALOAD PUSH1 0x40 DUP8 ADD MSTORE PUSH1 0x1 PUSH1 0x1 PUSH1 0xA0 SHL SUB SWAP1 DUP2 AND PUSH1 0x60 DUP8 ADD MSTORE PUSH1 0xA4 CALLDATALOAD PUSH1 0x80 DUP8 ADD MSTORE PUSH1 0xC4 CALLDATALOAD PUSH1 0xA0 DUP8 ADD MSTORE PUSH1 0xE4 CALLDATALOAD PUSH1 0xC0 DUP8 ADD MSTORE AND SWAP4 LOG3 STOP JUMPDEST PUSH4 0x4E487B71 PUSH1 0xE0 SHL PUSH1 0x0 MSTORE PUSH1 0x41 PUSH1 0x4 MSTORE PUSH1 0x24 PUSH1 0x0 REVERT JUMPDEST CALLVALUE PUSH2 0x382 JUMPI PUSH1 0x40 CALLDATASIZE PUSH1 0x3 NOT ADD SLT PUSH2 0x382 JUMPI PUSH2 0x1B PUSH2 0x6FD PUSH2 0x30F5 JUMP JUMPDEST PUSH2 0x705 PUSH2 0x3173 JUMP JUMPDEST SWAP1 PUSH2 0x70E PUSH2 0x3350 JUMP JUMPDEST PUSH1 0x1 DUP1 PUSH1 0xA0 SHL SUB AND PUSH1 0x0 MSTORE PUSH1 0xB PUSH1 0x20 MSTORE PUSH1 0x40 PUSH1 0x0 KECCAK256 SWAP1 PUSH1 0xFF DUP1 NOT DUP4 SLOAD AND SWAP2 ISZERO ISZERO AND OR SWAP1 SSTORE JUMP JUMPDEST CALLVALUE PUSH2 0x382 JUMPI PUSH1 0x20 CALLDATASIZE PUSH1 0x3 NOT ADD SLT PUSH2 0x382 JUMPI PUSH1 0x4 CALLDATALOAD PUSH2 0xFFFF DUP1 DUP3 AND SWAP2 DUP3 DUP2 SUB PUSH2 0x382 JUMPI PUSH32 0x4C921D0FAB480EB4DC535E982514016E686DA710C9B2ADEA4AC837B29CFBE283 SWAP3 PUSH1 0x40 SWAP3 PUSH2 0x783 PUSH2 0x3350 JUMP JUMPDEST PUSH2 0x791 PUSH2 0x12C DUP4 GT ISZERO PUSH2 0x33A8 JUMP JUMPDEST PUSH1 0x4 DUP1 SLOAD PUSH2 0xFFFF PUSH1 0xA0 SHL NOT DUP2 AND PUSH1 0xA0 SWAP6 DUP7 SHL PUSH2 0xFFFF PUSH1 0xA0 SHL AND OR SWAP1 SWAP2 SSTORE DUP5 MLOAD SWAP4 SHR AND DUP3 MSTORE PUSH1 0x20 DUP3 ADD MSTORE LOG1 STOP JUMPDEST CALLVALUE PUSH2 0x382 JUMPI PUSH1 0x0 CALLDATASIZE PUSH1 0x3 NOT ADD SLT PUSH2 0x382 JUMPI PUSH1 0x20 PUSH1 0x40 MLOAD PUSH2 0x2710 DUP2 MSTORE RETURN JUMPDEST CALLVALUE PUSH2 0x382 JUMPI PUSH1 0x60 CALLDATASIZE PUSH1 0x3 NOT ADD SLT PUSH2 0x382 JUMPI PUSH2 0x7F3 PUSH2 0x30F5 JUMP JUMPDEST PUSH1 0x24 CALLDATALOAD PUSH1 0x3 DUP2 LT ISZERO PUSH2 0x382 JUMPI PUSH2 0x807 PUSH2 0x3137 JUMP JUMPDEST PUSH2 0x80F PUSH2 0x3350 JUMP JUMPDEST PUSH1 0x1 DUP1 PUSH1 0xA0 SHL SUB DUP1 DUP5 AND SWAP2 DUP3 PUSH1 0x0 MSTORE PUSH1 0x20 SWAP5 PUSH1 0x7 DUP7 MSTORE PUSH1 0x40 PUSH1 0x0 KECCAK256 SWAP2 DUP4 DUP2 AND SWAP3 DUP4 PUSH1 0x0 MSTORE DUP8 MSTORE PUSH1 0x40 PUSH1 0x0 KECCAK256 SLOAD SWAP2 DUP3 ISZERO PUSH2 0x9A3 JUMPI PUSH1 0x40 MLOAD SWAP1 DUP9 DUP3 ADD SWAP3 PUSH1 0x1 PUSH1 0x1 PUSH1 0x60 SHL SUB NOT DUP1 SWAP3 PUSH1 0x60 SHL AND DUP5 MSTORE PUSH2 0x864 DUP10 PUSH2 0x30D5 JUMP JUMPDEST DUP9 PUSH1 0xF8 SHL PUSH1 0x34 DUP5 ADD MSTORE PUSH1 0x60 SHL AND PUSH1 0x35 DUP3 ADD MSTORE TIMESTAMP PUSH1 0x49 DUP3 ADD MSTORE PUSH1 0x49 DUP2 MSTORE PUSH2 0x889 DUP2 PUSH2 0x3213 JUMP JUMPDEST MLOAD SWAP1 KECCAK256 SWAP5 PUSH1 0x40 MLOAD SWAP3 PUSH1 0xE0 DUP5 ADD SWAP3 DUP5 DUP5 LT PUSH8 0xFFFFFFFFFFFFFFFF DUP6 GT OR PUSH2 0x6CB JUMPI PUSH2 0x982 PUSH32 0xC30A1924924DAB37B65FF08C18BF05C3FC23520C199B08658339543F4E28643B SWAP6 PUSH1 0x5 DUP11 DUP13 DUP2 SWAP11 PUSH1 0x60 SWAP10 PUSH1 0x40 MSTORE DUP3 DUP6 MSTORE DUP2 DUP6 ADD SWAP1 DUP14 DUP3 MSTORE PUSH1 0x40 DUP7 ADD SWAP1 PUSH2 0x8F2 DUP12 PUSH2 0x30D5 JUMP JUMPDEST DUP11 DUP3 MSTORE DUP12 DUP8 ADD DUP10 DUP2 MSTORE PUSH2 0x952 PUSH1 0x80 DUP10 ADD SWAP5 DUP13 DUP7 MSTORE PUSH1 0x6 PUSH1 0xA0 DUP12 ADD SWAP8 TIMESTAMP DUP10 MSTORE PUSH1 0xC0 DUP13 ADD SWAP10 PUSH1 0x0 DUP12 MSTORE PUSH1 0x0 MSTORE MSTORE PUSH1 0x40 PUSH1 0x0 KECCAK256 SWAP10 MLOAD DUP11 SSTORE DUP4 PUSH1 0x1 DUP12 ADD SWAP2 MLOAD AND SWAP5 PUSH1 0x1 PUSH1 0x1 PUSH1 0x60 SHL SUB PUSH1 0xA0 SHL SWAP6 DUP7 DUP4 SLOAD AND OR DUP3 SSTORE MLOAD SWAP1 PUSH2 0x94D DUP3 PUSH2 0x30D5 JUMP JUMPDEST PUSH2 0x3C01 JUMP JUMPDEST MLOAD PUSH1 0x2 DUP9 ADD SSTORE PUSH1 0x3 DUP8 ADD SWAP3 MLOAD AND SWAP1 DUP3 SLOAD AND OR SWAP1 SSTORE MLOAD PUSH1 0x4 DUP5 ADD SSTORE MLOAD ISZERO ISZERO SWAP2 ADD SWAP1 PUSH1 0xFF DUP1 NOT DUP4 SLOAD AND SWAP2 ISZERO ISZERO AND OR SWAP1 SSTORE JUMP JUMPDEST PUSH1 0x40 MLOAD SWAP3 PUSH2 0x98F DUP2 PUSH2 0x30D5 JUMP JUMPDEST DUP4 MSTORE DUP9 DUP4 ADD MSTORE PUSH1 0x40 DUP3 ADD MSTORE LOG3 PUSH1 0x40 MLOAD SWAP1 DUP2 MSTORE RETURN JUMPDEST PUSH1 0x40 MLOAD PUSH3 0x461BCD PUSH1 0xE5 SHL DUP2 MSTORE PUSH1 0x4 DUP2 ADD DUP10 SWAP1 MSTORE PUSH1 0x12 PUSH1 0x24 DUP3 ADD MSTORE PUSH18 0x4E6F2070656E64696E672062616C616E6365 PUSH1 0x70 SHL PUSH1 0x44 DUP3 ADD MSTORE PUSH1 0x64 SWAP1 REVERT JUMPDEST CALLVALUE PUSH2 0x382 JUMPI PUSH1 0x40 CALLDATASIZE PUSH1 0x3 NOT ADD SLT PUSH2 0x382 JUMPI PUSH2 0x9F6 PUSH2 0x30F5 JUMP JUMPDEST PUSH1 0x24 CALLDATALOAD SWAP1 PUSH2 0xA02 PUSH2 0x3350 JUMP JUMPDEST PUSH1 0x1 PUSH1 0x1 PUSH1 0xA0 SHL SUB AND SWAP1 PUSH2 0xA17 DUP3 ISZERO ISZERO PUSH2 0x414A JUMP JUMPDEST DUP1 SELFBALANCE LT PUSH2 0xA38 JUMPI PUSH1 0x0 DUP1 DUP1 DUP1 SWAP4 PUSH2 0x1B SWAP6 GAS CALL PUSH2 0xA32 PUSH2 0x3A5D JUMP JUMPDEST POP PUSH2 0x3C25 JUMP JUMPDEST PUSH1 0x40 MLOAD PUSH3 0x461BCD PUSH1 0xE5 SHL DUP2 MSTORE PUSH1 0x20 PUSH1 0x4 DUP3 ADD MSTORE PUSH1 0x14 PUSH1 0x24 DUP3 ADD MSTORE PUSH20 0x496E73756666696369656E742062616C616E6365 PUSH1 0x60 SHL PUSH1 0x44 DUP3 ADD MSTORE PUSH1 0x64 SWAP1 REVERT JUMPDEST CALLVALUE PUSH2 0x382 JUMPI PUSH1 0x40 CALLDATASIZE PUSH1 0x3 NOT ADD SLT PUSH2 0x382 JUMPI PUSH2 0xA8D PUSH2 0x30F5 JUMP JUMPDEST PUSH32 0x1B2E3B41E74046014DE2CEE0271CEFDBD37A03FFA73D7F1641F2FA5FA8ECACC PUSH1 0x20 PUSH2 0xAB8 PUSH2 0x3173 JUMP JUMPDEST SWAP3 PUSH2 0xAC1 PUSH2 0x3350 JUMP JUMPDEST PUSH1 0x1 PUSH1 0x1 PUSH1 0xA0 SHL SUB AND PUSH1 0x0 DUP2 DUP2 MSTORE PUSH1 0xC DUP4 MSTORE PUSH1 0x40 SWAP1 KECCAK256 DUP1 SLOAD PUSH1 0xFF NOT AND PUSH1 0xFF DUP7 ISZERO ISZERO AND OR SWAP1 SSTORE SWAP3 JUMPDEST PUSH1 0x40 MLOAD SWAP1 ISZERO ISZERO DUP2 MSTORE LOG2 STOP JUMPDEST CALLVALUE PUSH2 0x382 JUMPI PUSH2 0xB01 CALLDATASIZE PUSH2 0x314D JUMP JUMPDEST PUSH2 0xB09 PUSH2 0x38C2 JUMP JUMPDEST PUSH2 0xB11 PUSH2 0x4021 JUMP JUMPDEST CALLER PUSH1 0x0 MSTORE PUSH1 0x20 SWAP2 PUSH1 0xA DUP4 MSTORE PUSH1 0xFF PUSH1 0x40 PUSH1 0x0 KECCAK256 SLOAD AND ISZERO PUSH2 0xCA4 JUMPI PUSH1 0x2 SLOAD PUSH1 0x40 MLOAD PUSH4 0x70A08231 PUSH1 0xE0 SHL DUP1 DUP3 MSTORE ADDRESS PUSH1 0x4 DUP4 ADD MSTORE SWAP2 PUSH1 0x8 SHR PUSH1 0x1 PUSH1 0x1 PUSH1 0xA0 SHL SUB SWAP1 DUP2 AND SWAP1 DUP7 DUP4 PUSH1 0x24 DUP2 DUP6 GAS STATICCALL SWAP3 DUP4 ISZERO PUSH2 0xC60 JUMPI DUP8 SWAP3 DUP8 SWAP2 PUSH1 0x0 SWAP6 PUSH2 0xC6C JUMPI JUMPDEST POP SWAP1 PUSH2 0xB7B SWAP2 ADDRESS SWAP1 CALLER SWAP1 PUSH2 0x4065 JUMP JUMPDEST PUSH1 0x2 SLOAD PUSH1 0x8 SHR AND SWAP3 PUSH1 0x24 PUSH1 0x40 MLOAD DUP1 SWAP6 DUP2 SWAP4 DUP3 MSTORE ADDRESS PUSH1 0x4 DUP4 ADD MSTORE GAS STATICCALL DUP1 ISZERO PUSH2 0xC60 JUMPI DUP5 SWAP3 PUSH1 0x0 SWAP2 PUSH2 0xC2B JUMPI JUMPDEST POP SWAP1 PUSH2 0xBB1 SWAP2 PUSH2 0x3C67 JUMP JUMPDEST LT PUSH2 0xBE6 JUMPI PUSH2 0xBE0 SWAP3 DUP3 PUSH1 0x40 MLOAD SWAP2 PUSH1 0x2 DUP4 MSTORE DUP3 ADD MSTORE DUP2 PUSH1 0x0 DUP1 MLOAD PUSH1 0x20 PUSH2 0x420B DUP4 CODECOPY DUP2 MLOAD SWAP2 MSTORE PUSH1 0x40 CALLER SWAP4 LOG3 PUSH2 0x3C74 JUMP JUMPDEST PUSH1 0x1 DUP1 SSTORE STOP JUMPDEST PUSH1 0x40 MLOAD PUSH3 0x461BCD PUSH1 0xE5 SHL DUP2 MSTORE PUSH1 0x4 DUP2 ADD DUP5 SWAP1 MSTORE PUSH1 0x18 PUSH1 0x24 DUP3 ADD MSTORE PUSH32 0x5472616E7366657220616D6F756E74206D69736D617463680000000000000000 PUSH1 0x44 DUP3 ADD MSTORE PUSH1 0x64 SWAP1 REVERT JUMPDEST DUP1 SWAP3 SWAP4 POP DUP7 DUP1 SWAP3 POP RETURNDATASIZE DUP4 GT PUSH2 0xC59 JUMPI JUMPDEST PUSH2 0xC45 DUP2 DUP4 PUSH2 0x322F JUMP JUMPDEST DUP2 ADD SUB SLT PUSH2 0x382 JUMPI MLOAD DUP4 SWAP2 SWAP1 PUSH2 0xBB1 PUSH2 0xBA6 JUMP JUMPDEST POP RETURNDATASIZE PUSH2 0xC3B JUMP JUMPDEST PUSH1 0x40 MLOAD RETURNDATASIZE PUSH1 0x0 DUP3 RETURNDATACOPY RETURNDATASIZE SWAP1 REVERT JUMPDEST SWAP4 DUP5 SWAP2 SWAP6 POP DUP1 SWAP3 POP RETURNDATASIZE DUP4 GT PUSH2 0xC9D JUMPI JUMPDEST PUSH2 0xC86 DUP2 DUP4 PUSH2 0x322F JUMP JUMPDEST DUP2 ADD SUB SLT PUSH2 0x382 JUMPI PUSH2 0xB7B DUP7 DUP9 SWAP4 MLOAD SWAP5 SWAP1 SWAP2 PUSH2 0xB6C JUMP JUMPDEST POP RETURNDATASIZE PUSH2 0xC7C JUMP JUMPDEST PUSH1 0x40 MLOAD PUSH3 0x461BCD PUSH1 0xE5 SHL DUP2 MSTORE PUSH1 0x4 DUP2 ADD DUP5 SWAP1 MSTORE PUSH1 0x15 PUSH1 0x24 DUP3 ADD MSTORE PUSH21 0x2AB730BABA3437B934BD32B210383937BB34B232B9 PUSH1 0x59 SHL PUSH1 0x44 DUP3 ADD MSTORE PUSH1 0x64 SWAP1 REVERT JUMPDEST CALLVALUE PUSH2 0x382 JUMPI PUSH2 0xBE0 PUSH2 0xCF2 CALLDATASIZE PUSH2 0x3193 JUMP JUMPDEST PUSH2 0xCFD SWAP3 SWAP2 SWAP3 PUSH2 0x38C2 JUMP JUMPDEST CALLER PUSH1 0x0 MSTORE PUSH1 0xB PUSH1 0x20 MSTORE PUSH1 0xFF PUSH1 0x40 PUSH1 0x0 KECCAK256 SLOAD AND DUP1 ISZERO PUSH2 0xD69 JUMPI JUMPDEST PUSH2 0xD1F SWAP1 PUSH2 0x40A7 JUMP JUMPDEST PUSH2 0xD27 PUSH2 0x4021 JUMP JUMPDEST DUP2 PUSH1 0x0 DUP1 MLOAD PUSH1 0x20 PUSH2 0x420B DUP4 CODECOPY DUP2 MLOAD SWAP2 MSTORE PUSH1 0x40 PUSH1 0x1 DUP1 PUSH1 0xA0 SHL SUB PUSH2 0xD54 DUP8 DUP3 PUSH1 0x2 SLOAD PUSH1 0x8 SHR AND DUP8 ADDRESS SWAP2 PUSH2 0x4065 JUMP JUMPDEST DUP2 MLOAD SWAP5 PUSH1 0x4 DUP7 MSTORE DUP8 PUSH1 0x20 DUP8 ADD MSTORE AND SWAP4 LOG3 PUSH2 0x3C74 JUMP JUMPDEST POP PUSH1 0x0 SLOAD PUSH1 0x1 PUSH1 0x1 PUSH1 0xA0 SHL SUB AND CALLER EQ PUSH2 0xD16 JUMP JUMPDEST CALLVALUE PUSH2 0x382 JUMPI PUSH1 0x40 CALLDATASIZE PUSH1 0x3 NOT ADD SLT PUSH2 0x382 JUMPI PUSH2 0xD96 PUSH2 0x30F5 JUMP JUMPDEST PUSH2 0xD9E PUSH2 0x3121 JUMP JUMPDEST SWAP1 PUSH1 0x1 DUP1 PUSH1 0xA0 SHL SUB DUP1 SWAP2 AND PUSH1 0x0 MSTORE PUSH1 0x7 PUSH1 0x20 MSTORE PUSH1 0x40 PUSH1 0x0 KECCAK256 SWAP2 AND PUSH1 0x0 MSTORE PUSH1 0x20 MSTORE PUSH1 0x20 PUSH1 0x40 PUSH1 0x0 KECCAK256 SLOAD PUSH1 0x40 MLOAD SWAP1 DUP2 MSTORE RETURN JUMPDEST CALLVALUE PUSH2 0x382 JUMPI PUSH1 0x40 CALLDATASIZE PUSH1 0x3 NOT ADD SLT PUSH2 0x382 JUMPI PUSH2 0x1B PUSH2 0xDEA PUSH2 0x3173 JUMP JUMPDEST PUSH2 0xDF2 PUSH2 0x3350 JUMP JUMPDEST PUSH1 0x4 CALLDATALOAD PUSH1 0x0 MSTORE PUSH1 0x9 PUSH1 0x20 MSTORE PUSH1 0xA PUSH1 0x40 PUSH1 0x0 KECCAK256 PUSH2 0xE18 PUSH1 0x1 DUP1 PUSH1 0xA0 SHL SUB DUP3 SLOAD AND ISZERO ISZERO PUSH2 0x3405 JUMP JUMPDEST ADD SWAP1 PUSH1 0xFF DUP1 NOT DUP4 SLOAD AND SWAP2 ISZERO ISZERO AND OR SWAP1 SSTORE JUMP JUMPDEST CALLVALUE PUSH2 0x382 JUMPI PUSH1 0xA0 CALLDATASIZE PUSH1 0x3 NOT ADD SLT PUSH2 0x382 JUMPI PUSH1 0x4 CALLDATALOAD PUSH1 0x24 CALLDATALOAD SWAP1 PUSH1 0x4 DUP3 LT ISZERO PUSH2 0x382 JUMPI PUSH1 0x44 CALLDATALOAD DUP1 ISZERO ISZERO DUP2 SUB PUSH2 0x382 JUMPI PUSH1 0x64 CALLDATALOAD SWAP2 DUP3 ISZERO ISZERO DUP4 SUB PUSH2 0x382 JUMPI PUSH1 0x84 CALLDATALOAD SWAP4 DUP5 ISZERO SWAP5 DUP6 ISZERO SUB PUSH2 0x382 JUMPI PUSH2 0xEBB SWAP5 PUSH2 0xEB1 SWAP4 PUSH1 0x0 SWAP1 PUSH1 0x0 SWAP1 PUSH2 0xEC9 PUSH1 0x0 SWAP7 PUSH2 0xEC4 PUSH2 0xFFFF PUSH2 0xEA1 DUP2 PUSH2 0xE99 DUP12 PUSH2 0x3314 JUMP JUMPDEST SLOAD AND SWAP10 PUSH2 0x332D JUMP JUMPDEST SLOAD AND SWAP8 PUSH2 0x2710 DUP1 SWAP12 DUP2 SWAP3 DUP6 PUSH2 0x40F8 JUMP JUMPDEST DIV SWAP13 DUP14 SWAP10 DUP5 PUSH2 0x40F8 JUMP JUMPDEST DIV SWAP8 DUP9 SWAP3 PUSH2 0x3C67 JUMP JUMPDEST PUSH2 0x3C67 JUMP JUMPDEST SWAP8 DUP2 DUP1 PUSH2 0xFBF JUMPI JUMPDEST ISZERO PUSH2 0xF4B JUMPI POP POP POP POP PUSH2 0xEF2 PUSH2 0xF2A SWAP5 PUSH2 0xEEA DUP5 PUSH2 0x40E1 JUMP JUMPDEST DIV DUP1 SWAP4 PUSH2 0x3C67 JUMP JUMPDEST SWAP1 JUMPDEST DUP1 PUSH2 0xF42 JUMPI JUMPDEST PUSH2 0xF2E JUMPI JUMPDEST PUSH1 0x40 MLOAD SWAP6 DUP7 SWAP6 DUP7 SWAP2 SWAP3 PUSH1 0x80 SWAP4 SWAP7 SWAP6 SWAP5 SWAP2 SWAP7 PUSH1 0xA0 DUP5 ADD SWAP8 DUP5 MSTORE PUSH1 0x20 DUP5 ADD MSTORE PUSH1 0x40 DUP4 ADD MSTORE PUSH1 0x60 DUP3 ADD MSTORE ADD MSTORE JUMP JUMPDEST SUB SWAP1 RETURN JUMPDEST SWAP2 SWAP1 PUSH2 0xF39 SWAP2 PUSH2 0x3443 JUMP JUMPDEST SWAP1 PUSH1 0x0 SWAP1 PUSH2 0xEFF JUMP JUMPDEST POP DUP2 ISZERO ISZERO PUSH2 0xEFA JUMP JUMPDEST SWAP1 SWAP2 SWAP3 SWAP4 SWAP6 POP PUSH1 0x0 EQ PUSH2 0xF70 JUMPI POP POP PUSH2 0xF6A PUSH2 0xF2A SWAP5 PUSH2 0xEEA DUP5 PUSH2 0x40E1 JUMP JUMPDEST SWAP3 PUSH2 0xEF4 JUMP JUMPDEST SWAP1 SWAP3 SWAP2 SWAP1 ISZERO PUSH2 0xFB3 JUMPI POP PUSH2 0xBB8 DUP1 DUP3 MUL SWAP1 DUP3 DUP3 DIV EQ DUP3 ISZERO OR ISZERO PUSH2 0xF9D JUMPI PUSH2 0xF2A SWAP5 PUSH2 0xF6A SWAP2 DIV DUP1 SWAP3 PUSH2 0x3C67 JUMP JUMPDEST PUSH4 0x4E487B71 PUSH1 0xE0 SHL PUSH1 0x0 MSTORE PUSH1 0x11 PUSH1 0x4 MSTORE PUSH1 0x24 PUSH1 0x0 REVERT JUMPDEST SWAP1 PUSH2 0xF2A SWAP5 POP SWAP3 PUSH2 0xEF4 JUMP JUMPDEST POP DUP1 PUSH2 0xED1 JUMP JUMPDEST CALLVALUE PUSH2 0x382 JUMPI PUSH1 0x0 CALLDATASIZE PUSH1 0x3 NOT ADD SLT PUSH2 0x382 JUMPI PUSH1 0x3 SLOAD PUSH1 0x40 MLOAD PUSH1 0x1 PUSH1 0x1 PUSH1 0xA0 SHL SUB SWAP1 SWAP2 AND DUP2 MSTORE PUSH1 0x20 SWAP1 RETURN JUMPDEST CALLVALUE PUSH2 0x382 JUMPI PUSH1 0x20 CALLDATASIZE PUSH1 0x3 NOT ADD SLT PUSH2 0x382 JUMPI PUSH2 0x1008 PUSH2 0x30F5 JUMP JUMPDEST PUSH2 0x1010 PUSH2 0x3350 JUMP JUMPDEST PUSH1 0x4 DUP1 SLOAD PUSH1 0x1 PUSH1 0x1 PUSH1 0xA0 SHL SUB NOT AND PUSH1 0x1 PUSH1 0x1 PUSH1 0xA0 SHL SUB SWAP3 SWAP1 SWAP3 AND SWAP2 SWAP1 SWAP2 OR SWAP1 SSTORE STOP JUMPDEST CALLVALUE PUSH2 0x382 JUMPI PUSH1 0x0 CALLDATASIZE PUSH1 0x3 NOT ADD SLT PUSH2 0x382 JUMPI PUSH2 0x104B PUSH2 0x3350 JUMP JUMPDEST PUSH32 0xE0283E559C29E31EE7F56467ACC9DD307779C843A883AEEB3BF5C6128C908144 DUP1 SLOAD PUSH2 0xFFFF NOT SWAP1 DUP2 AND PUSH1 0x64 SWAP1 DUP2 OR SWAP1 SWAP3 SSTORE PUSH32 0xA1D6913CD9E08C872BE3E7525CCA82E4FC0FC298A783F19022BE725B19BE685A DUP1 SLOAD DUP3 AND DUP4 OR SWAP1 SSTORE PUSH32 0xB9BEC7E2561F624FE753FF070F1599B306CBF59FAFD4E8D5A8184A1EA1841BCE DUP1 SLOAD DUP3 AND PUSH1 0x1E SWAP1 DUP2 OR SWAP1 SWAP2 SSTORE PUSH32 0x92B4482321F41CE3AA65F798BDA23D0D12A60FC5F212868A548DDB00AA49DE72 DUP1 SLOAD DUP4 AND SWAP1 SWAP2 OR SWAP1 SSTORE PUSH32 0xF4803E074BD026BAAF6ED2E288C9515F68C72FB7216EEBDD7CAE1718A53EC375 DUP1 SLOAD DUP3 AND PUSH1 0x32 SWAP1 DUP2 OR SWAP1 SWAP2 SSTORE PUSH32 0x169F97DE0D9A84D840042B17D3C6B9638B3D6FD9024C9EB0C7A306A17B49F88F DUP1 SLOAD DUP4 AND SWAP1 SWAP2 OR SWAP1 SSTORE PUSH32 0xA74BA3945261E09FDE15BA3DB55005B205E61EEB4AD811AC0FAA2B315BFFEEAD DUP1 SLOAD DUP3 AND SWAP1 SWAP3 OR SWAP1 SWAP2 SSTORE PUSH32 0x45F76DAFBBAD695564362934E24D72EEDC57F9FC1A65F39BCA62176CC8296828 DUP1 SLOAD DUP3 AND PUSH2 0x12C OR SWAP1 SSTORE PUSH1 0x10 PUSH1 0x20 MSTORE PUSH32 0x6E0956CDA88CAD152E89927E53611735B61A5C762D1428573C6931B0A5EFCB01 DUP1 SLOAD DUP3 AND PUSH1 0xC8 OR SWAP1 SSTORE PUSH32 0x8C6065603763FEC3F5742441D3833F3F43B982453612D76ADB39A885E3006B5F DUP1 SLOAD DUP3 AND PUSH1 0xFA OR SWAP1 SSTORE PUSH32 0x853B2FEFE141400FEF543280F93D98BD49996069F632D0D20236AFEEED8E46A2 DUP1 SLOAD DUP3 AND PUSH2 0x190 OR SWAP1 SSTORE PUSH1 0x3 PUSH1 0x0 MSTORE PUSH32 0xB3EDD0D534D647CFFDAE9F1294F11AD21F3FCF2814BEA44C92BBB8D384A57D9E DUP1 SLOAD SWAP1 SWAP2 AND PUSH2 0x2BC OR SWAP1 SSTORE STOP JUMPDEST CALLVALUE PUSH2 0x382 JUMPI PUSH1 0x40 CALLDATASIZE PUSH1 0x3 NOT ADD SLT PUSH2 0x382 JUMPI PUSH1 0x4 CALLDATALOAD PUSH1 0x7 DUP2 LT ISZERO PUSH2 0x382 JUMPI PUSH2 0xFFFF PUSH2 0x1289 PUSH2 0x3182 JUMP JUMPDEST PUSH2 0x1291 PUSH2 0x3350 JUMP JUMPDEST AND SWAP1 PUSH2 0x12A0 PUSH1 0xC8 DUP4 GT ISZERO PUSH2 0x33A8 JUMP JUMPDEST PUSH2 0x12A9 DUP2 PUSH2 0x3346 JUMP JUMPDEST PUSH1 0x0 MSTORE PUSH1 0xE PUSH1 0x20 MSTORE PUSH1 0x40 PUSH1 0x0 KECCAK256 SWAP1 PUSH2 0xFFFF NOT DUP3 SLOAD AND OR SWAP1 SSTORE PUSH1 0x0 DUP1 RETURN JUMPDEST CALLVALUE PUSH2 0x382 JUMPI PUSH1 0x40 CALLDATASIZE PUSH1 0x3 NOT ADD SLT PUSH2 0x382 JUMPI PUSH2 0x1B PUSH2 0x12E2 PUSH2 0x3173 JUMP JUMPDEST PUSH2 0x12EA PUSH2 0x3350 JUMP JUMPDEST PUSH1 0x4 CALLDATALOAD PUSH1 0x0 MSTORE PUSH1 0x8 PUSH1 0x20 MSTORE PUSH1 0x9 PUSH1 0x40 PUSH1 0x0 KECCAK256 PUSH2 0x1308 DUP2 SLOAD ISZERO ISZERO PUSH2 0x3405 JUMP JUMPDEST ADD DUP1 SLOAD PUSH2 0xFF00 NOT AND DUP3 ISZERO ISZERO PUSH1 0x8 SHL PUSH2 0xFF00 AND OR DUP2 SSTORE SWAP1 ISZERO PUSH2 0x132B JUMPI PUSH1 0x5 SWAP1 PUSH2 0x33E4 JUMP JUMPDEST PUSH1 0xFF DUP2 SLOAD PUSH1 0x10 SHR AND SWAP1 PUSH2 0x33E4 JUMP JUMPDEST CALLVALUE PUSH2 0x382 JUMPI PUSH1 0x60 CALLDATASIZE PUSH1 0x3 NOT ADD SLT PUSH2 0x382 JUMPI PUSH2 0x1352 PUSH2 0x3137 JUMP JUMPDEST CALLER PUSH1 0x0 MSTORE PUSH1 0xB PUSH1 0x20 MSTORE PUSH1 0xFF PUSH1 0x40 PUSH1 0x0 KECCAK256 SLOAD AND DUP1 ISZERO PUSH2 0x13C1 JUMPI JUMPDEST PUSH2 0x1374 SWAP1 PUSH2 0x40A7 JUMP JUMPDEST PUSH1 0x4 CALLDATALOAD PUSH1 0x0 MSTORE PUSH1 0x9 PUSH1 0x20 MSTORE PUSH1 0x40 PUSH1 0x0 KECCAK256 SWAP1 PUSH1 0xD PUSH1 0x1 DUP1 PUSH1 0xA0 SHL SUB SWAP3 PUSH2 0x139D DUP5 DUP3 SLOAD AND ISZERO ISZERO PUSH2 0x410B JUMP JUMPDEST PUSH1 0x24 CALLDATALOAD PUSH1 0xC DUP3 ADD SSTORE ADD DUP1 SLOAD PUSH1 0x1 PUSH1 0x1 PUSH1 0xB0 SHL SUB NOT AND SWAP2 SWAP1 SWAP3 AND OR PUSH1 0x1 PUSH1 0xA0 SHL OR SWAP1 SSTORE STOP JUMPDEST POP PUSH1 0x0 SLOAD PUSH1 0x1 PUSH1 0x1 PUSH1 0xA0 SHL SUB AND CALLER EQ PUSH2 0x136B JUMP JUMPDEST CALLVALUE PUSH2 0x382 JUMPI PUSH1 0x20 CALLDATASIZE PUSH1 0x3 NOT ADD SLT PUSH2 0x382 JUMPI PUSH1 0x4 CALLDATALOAD PUSH1 0x4 DUP2 LT ISZERO PUSH2 0x382 JUMPI PUSH2 0xFFFF PUSH2 0x1400 PUSH1 0x20 SWAP3 PUSH2 0x332D JUMP JUMPDEST SLOAD AND PUSH1 0x40 MLOAD SWAP1 DUP2 MSTORE RETURN JUMPDEST CALLVALUE PUSH2 0x382 JUMPI PUSH1 0x20 CALLDATASIZE PUSH1 0x3 NOT ADD SLT PUSH2 0x382 JUMPI PUSH1 0x4 CALLDATALOAD PUSH1 0x0 MSTORE PUSH1 0x9 PUSH1 0x20 MSTORE PUSH1 0x40 PUSH1 0x0 KECCAK256 PUSH1 0x1 PUSH1 0xA0 SHL PUSH1 0x1 SWAP1 SUB DUP2 SLOAD AND SWAP1 PUSH1 0x1 DUP2 ADD SLOAD SWAP1 PUSH1 0x1 PUSH1 0xA0 SHL PUSH1 0x1 SWAP1 SUB PUSH1 0x2 DUP3 ADD SLOAD AND PUSH1 0x3 DUP3 ADD SLOAD PUSH1 0x1 PUSH1 0xA0 SHL PUSH1 0x1 SWAP1 SUB PUSH1 0x4 DUP5 ADD SLOAD AND PUSH1 0x5 DUP5 ADD SLOAD PUSH1 0x6 DUP6 ADD SLOAD PUSH1 0x7 DUP7 ADD SLOAD SWAP1 PUSH1 0x8 DUP8 ADD SLOAD PUSH1 0xFF AND SWAP3 PUSH1 0x9 DUP9 ADD SLOAD SWAP5 PUSH1 0xA DUP10 ADD SLOAD PUSH1 0xFF AND SWAP7 PUSH1 0xB DUP11 ADD SLOAD SWAP9 PUSH1 0xC DUP12 ADD SLOAD SWAP11 PUSH1 0xD ADD SLOAD SWAP12 PUSH1 0x40 MLOAD DUP1 SWAP15 DUP2 MSTORE PUSH1 0x20 ADD MSTORE PUSH1 0x40 DUP14 ADD MSTORE PUSH1 0x60 DUP13 ADD MSTORE PUSH1 0x80 DUP12 ADD MSTORE PUSH1 0xA0 DUP11 ADD MSTORE PUSH1 0xC0 DUP10 ADD MSTORE PUSH1 0xE0 DUP9 ADD MSTORE ISZERO ISZERO PUSH2 0x100 DUP8 ADD MSTORE PUSH2 0x120 DUP7 ADD MSTORE ISZERO ISZERO PUSH2 0x140 DUP6 ADD MSTORE PUSH2 0x160 DUP5 ADD MSTORE PUSH2 0x180 DUP4 ADD MSTORE PUSH1 0x1 PUSH1 0xA0 SHL PUSH1 0x1 SWAP1 SUB DUP2 AND PUSH2 0x1A0 DUP4 ADD MSTORE DUP1 PUSH1 0xA0 SHR PUSH1 0xFF AND ISZERO ISZERO PUSH2 0x1C0 DUP4 ADD MSTORE PUSH1 0xA8 SHR PUSH1 0xFF AND ISZERO ISZERO PUSH2 0x1E0 DUP3 ADD MSTORE PUSH2 0x200 SWAP1 RETURN JUMPDEST CALLVALUE PUSH2 0x382 JUMPI PUSH1 0x20 CALLDATASIZE PUSH1 0x3 NOT ADD SLT PUSH2 0x382 JUMPI PUSH1 0x4 CALLDATALOAD PUSH1 0x0 MSTORE PUSH1 0x8 PUSH1 0x20 MSTORE PUSH2 0x180 PUSH1 0x40 PUSH1 0x0 KECCAK256 DUP1 SLOAD SWAP1 PUSH1 0xFF PUSH1 0x1 DUP1 PUSH1 0xA0 SHL SUB DUP1 PUSH1 0x1 DUP5 ADD SLOAD AND SWAP3 DUP2 PUSH1 0x2 DUP3 ADD SLOAD AND SWAP2 PUSH1 0x3 DUP3 ADD SLOAD AND PUSH1 0x4 DUP3 ADD SLOAD PUSH1 0x5 DUP4 ADD SLOAD PUSH1 0x6 DUP5 ADD SLOAD SWAP2 PUSH1 0x7 DUP6 ADD SLOAD SWAP4 PUSH1 0x9 PUSH1 0x8 DUP8 ADD SLOAD SWAP7 ADD SLOAD SWAP7 DUP9 DUP9 PUSH1 0x10 SHR AND SWAP10 PUSH1 0x40 MLOAD SWAP12 DUP13 MSTORE PUSH1 0x20 DUP13 ADD MSTORE PUSH1 0x40 DUP12 ADD MSTORE PUSH1 0x60 DUP11 ADD MSTORE PUSH1 0x80 DUP10 ADD MSTORE PUSH1 0xA0 DUP9 ADD MSTORE PUSH1 0xC0 DUP8 ADD MSTORE PUSH1 0xE0 DUP7 ADD MSTORE PUSH2 0x100 DUP6 ADD MSTORE DUP2 DUP2 AND ISZERO ISZERO PUSH2 0x120 DUP6 ADD MSTORE PUSH1 0x8 SHR AND ISZERO ISZERO PUSH2 0x140 DUP4 ADD MSTORE PUSH2 0x15D6 DUP2 PUSH2 0x3346 JUMP JUMPDEST PUSH2 0x160 DUP3 ADD MSTORE RETURN JUMPDEST CALLVALUE PUSH2 0x382 JUMPI PUSH1 0x40 CALLDATASIZE PUSH1 0x3 NOT ADD SLT PUSH2 0x382 JUMPI PUSH1 0x4 CALLDATALOAD PUSH1 0x24 CALLDATALOAD SWAP1 DUP1 PUSH1 0x0 MSTORE PUSH1 0x9 PUSH1 0x20 MSTORE PUSH1 0x40 PUSH1 0x0 KECCAK256 PUSH1 0xD DUP2 ADD SWAP1 PUSH2 0x1628 PUSH1 0xFF DUP4 SLOAD PUSH2 0x161E DUP3 DUP3 PUSH1 0xA0 SHR AND PUSH2 0x418A JUMP JUMPDEST PUSH1 0xA8 SHR AND ISZERO PUSH2 0x41CB JUMP JUMPDEST PUSH1 0x4 DUP2 ADD SLOAD CALLER PUSH1 0x1 PUSH1 0x1 PUSH1 0xA0 SHL SUB SWAP2 DUP3 AND EQ SWAP1 DUP2 ISZERO PUSH2 0x1722 JUMPI JUMPDEST POP ISZERO PUSH2 0x16EC JUMPI PUSH1 0xC SWAP1 DUP4 PUSH1 0x0 MSTORE PUSH1 0xD PUSH1 0x20 MSTORE DUP5 PUSH1 0x40 PUSH1 0x0 KECCAK256 SSTORE PUSH1 0x40 MLOAD DUP6 DUP2 MSTORE DUP5 PUSH32 0xFC21F0A5B79E60806354685C8551409839F9FD3D44D61B6147DD3722B3FFFBED PUSH1 0x20 CALLER SWAP4 LOG3 ADD SLOAD DUP1 ISZERO ISZERO SWAP1 DUP2 PUSH2 0x16E2 JUMPI JUMPDEST POP PUSH2 0x169B JUMPI STOP JUMPDEST DUP1 SLOAD PUSH1 0xFF PUSH1 0xA8 SHL NOT AND PUSH1 0x1 PUSH1 0xA8 SHL OR SWAP1 SSTORE PUSH1 0x40 DUP1 MLOAD SWAP3 DUP4 MSTORE PUSH1 0x64 PUSH1 0x20 DUP5 ADD MSTORE ADDRESS SWAP3 PUSH32 0x9675C67EDB39D5AE53CD37192A12D34A8B4341D9955D37E70E0968C6962C32A4 SWAP2 SWAP1 LOG3 STOP JUMPDEST SWAP1 POP DUP4 EQ DUP5 PUSH2 0x1694 JUMP JUMPDEST PUSH1 0x40 MLOAD PUSH3 0x461BCD PUSH1 0xE5 SHL DUP2 MSTORE PUSH1 0x20 PUSH1 0x4 DUP3 ADD MSTORE PUSH1 0xE PUSH1 0x24 DUP3 ADD MSTORE PUSH14 0x139BDD08185D5D1A1BDC9A5E9959 PUSH1 0x92 SHL PUSH1 0x44 DUP3 ADD MSTORE PUSH1 0x64 SWAP1 REVERT JUMPDEST SWAP1 POP DUP2 SLOAD AND CALLER EQ DUP6 PUSH2 0x1642 JUMP JUMPDEST CALLVALUE PUSH2 0x382 JUMPI PUSH1 0x20 CALLDATASIZE PUSH1 0x3 NOT ADD SLT PUSH2 0x382 JUMPI PUSH1 0x4 CALLDATALOAD PUSH1 0x7 DUP2 LT ISZERO PUSH2 0x382 JUMPI PUSH2 0x1755 DUP2 PUSH2 0x3346 JUMP JUMPDEST PUSH1 0x0 MSTORE PUSH1 0xE PUSH1 0x20 MSTORE PUSH1 0x20 PUSH2 0xFFFF PUSH1 0x40 PUSH1 0x0 KECCAK256 SLOAD AND PUSH1 0x40 MLOAD SWAP1 DUP2 MSTORE RETURN JUMPDEST CALLVALUE PUSH2 0x382 JUMPI PUSH1 0x0 CALLDATASIZE PUSH1 0x3 NOT ADD SLT PUSH2 0x382 JUMPI PUSH1 0x0 SLOAD PUSH1 0x40 MLOAD PUSH1 0x1 PUSH1 0x1 PUSH1 0xA0 SHL SUB SWAP1 SWAP2 AND DUP2 MSTORE PUSH1 0x20 SWAP1 RETURN JUMPDEST CALLVALUE PUSH2 0x382 JUMPI PUSH1 0x20 CALLDATASIZE PUSH1 0x3 NOT ADD SLT PUSH2 0x382 JUMPI PUSH1 0x4 CALLDATALOAD PUSH1 0x4 DUP2 LT ISZERO PUSH2 0x382 JUMPI PUSH2 0xFFFF PUSH2 0x1400 PUSH1 0x20 SWAP3 PUSH2 0x3314 JUMP JUMPDEST CALLVALUE PUSH2 0x382 JUMPI PUSH1 0x60 CALLDATASIZE PUSH1 0x3 NOT ADD SLT PUSH2 0x382 JUMPI PUSH1 0x4 CALLDATALOAD PUSH2 0x17E1 PUSH2 0x3173 JUMP JUMPDEST SWAP1 PUSH1 0x44 CALLDATALOAD DUP2 PUSH1 0x0 MSTORE PUSH1 0x20 SWAP3 PUSH1 0x9 DUP5 MSTORE PUSH1 0x40 PUSH1 0x0 KECCAK256 CALLER PUSH1 0x0 MSTORE PUSH1 0xC DUP6 MSTORE PUSH1 0xFF PUSH1 0x40 PUSH1 0x0 KECCAK256 SLOAD AND SWAP1 DUP2 ISZERO PUSH2 0x19AF JUMPI JUMPDEST POP DUP1 ISZERO PUSH2 0x199B JUMPI JUMPDEST ISZERO PUSH2 0x195D JUMPI DUP3 PUSH1 0x0 MSTORE PUSH1 0x9 DUP5 MSTORE PUSH1 0xD PUSH1 0x40 PUSH1 0x0 KECCAK256 ADD SWAP1 DUP2 SLOAD SWAP1 PUSH2 0x183E PUSH1 0xFF DUP4 PUSH1 0xA0 SHR AND PUSH2 0x418A JUMP JUMPDEST PUSH2 0x184E PUSH1 0xFF DUP4 PUSH1 0xA8 SHR AND ISZERO PUSH2 0x41CB JUMP JUMPDEST DUP5 PUSH1 0x0 MSTORE PUSH1 0xD DUP7 MSTORE PUSH1 0x40 PUSH1 0x0 KECCAK256 SLOAD ISZERO PUSH2 0x1923 JUMPI DUP1 PUSH2 0x1918 JUMPI JUMPDEST ISZERO PUSH2 0x18BC JUMPI PUSH1 0x1 PUSH1 0xA8 SHL SWAP1 PUSH1 0xFF PUSH1 0xA8 SHL NOT AND OR SWAP1 SSTORE DUP2 PUSH1 0x0 MSTORE PUSH1 0xD DUP4 MSTORE PUSH1 0x40 PUSH1 0x0 KECCAK256 SLOAD SWAP3 PUSH1 0x40 MLOAD SWAP4 DUP5 MSTORE DUP4 ADD MSTORE PUSH32 0x9675C67EDB39D5AE53CD37192A12D34A8B4341D9955D37E70E0968C6962C32A4 PUSH1 0x40 CALLER SWAP4 LOG3 STOP JUMPDEST POP POP POP PUSH1 0x40 MLOAD SWAP2 DUP1 DUP4 MSTORE DUP1 DUP4 ADD MSTORE PUSH32 0x5175616C69747920696E73756666696369656E74206F722072656A6563746564 PUSH1 0x40 DUP4 ADD MSTORE PUSH32 0x200BAEBC864EC206CC88E1B582CC4EA1491B5EBF371C65E35115D0B1AB4997AE PUSH1 0x60 CALLER SWAP4 LOG3 STOP JUMPDEST POP PUSH1 0x3C DUP4 LT ISZERO PUSH2 0x1867 JUMP JUMPDEST PUSH1 0x40 MLOAD PUSH3 0x461BCD PUSH1 0xE5 SHL DUP2 MSTORE PUSH1 0x4 DUP2 ADD DUP8 SWAP1 MSTORE PUSH1 0x12 PUSH1 0x24 DUP3 ADD MSTORE PUSH18 0x139BC81C1C9BDBD9881CDD589B5A5D1D1959 PUSH1 0x72 SHL PUSH1 0x44 DUP3 ADD MSTORE PUSH1 0x64 SWAP1 REVERT JUMPDEST PUSH1 0x40 MLOAD PUSH3 0x461BCD PUSH1 0xE5 SHL DUP2 MSTORE PUSH1 0x4 DUP2 ADD DUP6 SWAP1 MSTORE PUSH1 0x16 PUSH1 0x24 DUP3 ADD MSTORE PUSH22 0x2737BA1030BABA3437B934BD32B21030BAB234BA37B9 PUSH1 0x51 SHL PUSH1 0x44 DUP3 ADD MSTORE PUSH1 0x64 SWAP1 REVERT JUMPDEST POP PUSH1 0x0 SLOAD PUSH1 0x1 PUSH1 0x1 PUSH1 0xA0 SHL SUB AND CALLER EQ PUSH2 0x1816 JUMP JUMPDEST PUSH1 0xD ADD SLOAD PUSH1 0x1 PUSH1 0x1 PUSH1 0xA0 SHL SUB AND CALLER EQ SWAP1 POP DUP6 PUSH2 0x180E JUMP JUMPDEST CALLVALUE PUSH2 0x382 JUMPI PUSH1 0x0 CALLDATASIZE PUSH1 0x3 NOT ADD SLT PUSH2 0x382 JUMPI PUSH2 0x19DF PUSH2 0x3350 JUMP JUMPDEST PUSH2 0x19E7 PUSH2 0x4021 JUMP JUMPDEST PUSH1 0x1 PUSH1 0xFF NOT PUSH1 0x2 SLOAD AND OR PUSH1 0x2 SSTORE PUSH32 0x62E78CEA01BEE320CD4E420270B5EA74000D11B0C9F74754EBDBFC544B05A258 PUSH1 0x20 PUSH1 0x40 MLOAD CALLER DUP2 MSTORE LOG1 STOP JUMPDEST CALLVALUE PUSH2 0x382 JUMPI PUSH1 0x0 CALLDATASIZE PUSH1 0x3 NOT ADD SLT PUSH2 0x382 JUMPI PUSH1 0x2 SLOAD PUSH1 0x40 MLOAD PUSH1 0x8 SWAP2 SWAP1 SWAP2 SHR PUSH1 0x1 PUSH1 0x1 PUSH1 0xA0 SHL SUB AND DUP2 MSTORE PUSH1 0x20 SWAP1 RETURN JUMPDEST CALLVALUE PUSH2 0x382 JUMPI PUSH1 0x0 CALLDATASIZE PUSH1 0x3 NOT ADD SLT PUSH2 0x382 JUMPI PUSH2 0x1A66 PUSH2 0x3350 JUMP JUMPDEST PUSH1 0x0 DUP1 SLOAD PUSH1 0x1 PUSH1 0x1 PUSH1 0xA0 SHL SUB NOT DUP2 AND DUP3 SSTORE PUSH1 0x1 PUSH1 0x1 PUSH1 0xA0 SHL SUB AND PUSH32 0x8BE0079C531659141344CD1FD0A4F28419497F9722A3DAAFE3B4186F6B6457E0 DUP3 DUP1 LOG3 STOP JUMPDEST CALLVALUE PUSH2 0x382 JUMPI PUSH1 0x0 CALLDATASIZE PUSH1 0x3 NOT ADD SLT PUSH2 0x382 JUMPI PUSH1 0x2 SLOAD PUSH1 0x40 MLOAD PUSH4 0x70A08231 PUSH1 0xE0 SHL DUP2 MSTORE ADDRESS PUSH1 0x4 DUP3 ADD MSTORE SWAP1 PUSH1 0x20 SWAP1 DUP3 SWAP1 PUSH1 0x24 SWAP1 DUP3 SWAP1 PUSH1 0x8 SHR PUSH1 0x1 PUSH1 0x1 PUSH1 0xA0 SHL SUB AND GAS STATICCALL DUP1 ISZERO PUSH2 0xC60 JUMPI PUSH1 0x0 SWAP1 PUSH2 0x1AFF JUMPI JUMPDEST PUSH1 0x20 SWAP1 PUSH1 0x40 MLOAD SWAP1 DUP2 MSTORE RETURN JUMPDEST POP PUSH1 0x20 DUP2 RETURNDATASIZE DUP3 GT PUSH2 0x1B29 JUMPI JUMPDEST DUP2 PUSH2 0x1B18 PUSH1 0x20 SWAP4 DUP4 PUSH2 0x322F JUMP JUMPDEST DUP2 ADD SUB SLT PUSH2 0x382 JUMPI PUSH1 0x20 SWAP1 MLOAD PUSH2 0x1AF4 JUMP JUMPDEST RETURNDATASIZE SWAP2 POP PUSH2 0x1B0B JUMP JUMPDEST CALLVALUE PUSH2 0x382 JUMPI PUSH1 0x20 CALLDATASIZE PUSH1 0x3 NOT ADD SLT PUSH2 0x382 JUMPI PUSH2 0xF2A PUSH1 0x40 MLOAD PUSH2 0x1B51 DUP2 PUSH2 0x31DA JUMP JUMPDEST PUSH1 0x0 DUP2 MSTORE PUSH1 0x0 PUSH1 0x20 DUP3 ADD MSTORE PUSH1 0x0 PUSH1 0x40 DUP3 ADD MSTORE PUSH1 0x0 PUSH1 0x60 DUP3 ADD MSTORE PUSH1 0x0 PUSH1 0x80 DUP3 ADD MSTORE PUSH1 0x0 PUSH1 0xA0 DUP3 ADD MSTORE PUSH1 0x0 PUSH1 0xC0 DUP3 ADD MSTORE PUSH1 0x0 PUSH1 0xE0 DUP3 ADD MSTORE PUSH2 0x100 SWAP1 PUSH1 0x0 DUP3 DUP3 ADD MSTORE PUSH1 0xFF PUSH2 0x120 SWAP3 PUSH1 0x0 DUP5 DUP5 ADD MSTORE PUSH2 0x140 PUSH1 0x0 DUP2 DUP6 ADD MSTORE PUSH2 0x160 SWAP1 PUSH1 0x0 DUP3 DUP7 ADD MSTORE PUSH1 0xD PUSH2 0x180 SWAP2 PUSH1 0x0 DUP4 DUP9 ADD MSTORE PUSH2 0x1A0 SWAP3 PUSH1 0x0 DUP5 DUP10 ADD MSTORE PUSH2 0x1C0 SWAP5 PUSH1 0x0 DUP7 DUP11 ADD MSTORE PUSH1 0x0 PUSH2 0x1E0 DUP1 SWAP11 ADD MSTORE PUSH1 0x4 CALLDATALOAD PUSH1 0x0 MSTORE PUSH1 0x9 PUSH1 0x20 MSTORE PUSH1 0x40 PUSH1 0x0 KECCAK256 SWAP3 PUSH1 0x40 MLOAD SWAP11 PUSH2 0x1BF6 DUP13 PUSH2 0x31DA JUMP JUMPDEST PUSH1 0x1 DUP1 PUSH1 0xA0 SHL SUB SWAP9 DUP10 DUP7 SLOAD AND DUP14 MSTORE DUP13 PUSH1 0x20 PUSH1 0x1 DUP9 ADD SLOAD SWAP2 ADD MSTORE DUP13 PUSH1 0x40 DUP12 PUSH1 0x2 DUP10 ADD SLOAD AND SWAP2 ADD MSTORE DUP13 PUSH1 0x60 PUSH1 0x3 DUP9 ADD SLOAD SWAP2 ADD MSTORE DUP13 PUSH1 0x80 DUP12 PUSH1 0x4 DUP10 ADD SLOAD AND SWAP2 ADD MSTORE DUP13 PUSH1 0xA0 PUSH1 0x5 DUP9 ADD SLOAD SWAP2 ADD MSTORE DUP13 PUSH1 0xC0 PUSH1 0x6 DUP9 ADD SLOAD SWAP2 ADD MSTORE DUP13 PUSH1 0xE0 PUSH1 0x7 DUP9 ADD SLOAD SWAP2 ADD MSTORE DUP11 PUSH1 0x8 DUP8 ADD SLOAD AND ISZERO ISZERO SWAP1 DUP14 ADD MSTORE PUSH1 0x9 DUP6 ADD SLOAD SWAP1 DUP13 ADD MSTORE DUP9 PUSH1 0xA DUP6 ADD SLOAD AND ISZERO ISZERO SWAP1 DUP12 ADD MSTORE PUSH1 0xB DUP4 ADD SLOAD SWAP1 DUP11 ADD MSTORE PUSH1 0xC DUP3 ADD SLOAD SWAP1 DUP10 ADD MSTORE ADD SLOAD SWAP3 DUP4 AND SWAP1 DUP7 ADD MSTORE DUP3 DUP3 PUSH1 0xA0 SHR AND ISZERO ISZERO SWAP1 DUP6 ADD MSTORE PUSH1 0xA8 SHR AND ISZERO ISZERO SWAP1 DUP3 ADD MSTORE PUSH1 0x40 MLOAD SWAP2 DUP3 SWAP2 DUP3 PUSH2 0x3251 JUMP JUMPDEST CALLVALUE PUSH2 0x382 JUMPI PUSH1 0x20 CALLDATASIZE PUSH1 0x3 NOT ADD SLT PUSH2 0x382 JUMPI PUSH1 0x1 PUSH1 0x1 PUSH1 0xA0 SHL SUB PUSH2 0x1CD6 PUSH2 0x30F5 JUMP JUMPDEST AND PUSH1 0x0 MSTORE PUSH1 0xA PUSH1 0x20 MSTORE PUSH1 0x20 PUSH1 0xFF PUSH1 0x40 PUSH1 0x0 KECCAK256 SLOAD AND PUSH1 0x40 MLOAD SWAP1 ISZERO ISZERO DUP2 MSTORE RETURN JUMPDEST CALLVALUE PUSH2 0x382 JUMPI PUSH1 0x20 CALLDATASIZE PUSH1 0x3 NOT ADD SLT PUSH2 0x382 JUMPI PUSH1 0x4 CALLDATALOAD PUSH1 0x0 MSTORE PUSH1 0x5 PUSH1 0x20 MSTORE PUSH2 0x160 PUSH1 0x40 PUSH1 0x0 KECCAK256 DUP1 SLOAD SWAP1 PUSH1 0x1 DUP2 ADD SLOAD SWAP1 PUSH1 0xFF DUP3 PUSH1 0xA0 SHR AND PUSH1 0xFF DUP4 PUSH1 0xA8 SHR AND SWAP1 PUSH1 0x2 DUP4 ADD SLOAD SWAP2 PUSH1 0x1 DUP1 PUSH1 0xA0 SHL SUB SWAP3 DUP4 PUSH1 0x3 DUP7 ADD SLOAD AND SWAP1 PUSH1 0x4 DUP7 ADD SLOAD SWAP3 PUSH1 0x5 DUP8 ADD SLOAD SWAP5 PUSH1 0x6 DUP9 ADD SLOAD SWAP7 PUSH1 0xFF PUSH1 0x8 PUSH1 0x7 DUP12 ADD SLOAD SWAP11 ADD SLOAD AND SWAP10 PUSH1 0x40 MLOAD SWAP12 DUP13 MSTORE AND PUSH1 0x20 DUP12 ADD MSTORE PUSH2 0x1D7B DUP2 PUSH2 0x30D5 JUMP JUMPDEST PUSH1 0x40 DUP11 ADD MSTORE PUSH2 0x1D89 DUP2 PUSH2 0x30D5 JUMP JUMPDEST PUSH1 0x60 DUP10 ADD MSTORE PUSH1 0x80 DUP9 ADD MSTORE PUSH1 0xA0 DUP8 ADD MSTORE PUSH1 0xC0 DUP7 ADD MSTORE PUSH1 0xE0 DUP6 ADD MSTORE PUSH2 0x100 DUP5 ADD MSTORE PUSH2 0x120 DUP4 ADD MSTORE ISZERO ISZERO PUSH2 0x140 DUP3 ADD MSTORE RETURN JUMPDEST CALLVALUE PUSH2 0x382 JUMPI PUSH1 0x0 CALLDATASIZE PUSH1 0x3 NOT ADD SLT PUSH2 0x382 JUMPI PUSH1 0x20 PUSH1 0xFF PUSH1 0x2 SLOAD AND PUSH1 0x40 MLOAD SWAP1 ISZERO ISZERO DUP2 MSTORE RETURN JUMPDEST CALLVALUE PUSH2 0x382 JUMPI PUSH1 0x60 CALLDATASIZE PUSH1 0x3 NOT ADD SLT PUSH2 0x382 JUMPI PUSH2 0x1DF4 PUSH2 0x30F5 JUMP JUMPDEST PUSH2 0x1DFC PUSH2 0x3121 JUMP JUMPDEST SWAP1 PUSH2 0x1E05 PUSH2 0x3137 JUMP JUMPDEST PUSH2 0x1E0D PUSH2 0x3350 JUMP JUMPDEST PUSH1 0x1 PUSH1 0x1 PUSH1 0xA0 SHL SUB SWAP2 DUP1 DUP4 AND ISZERO ISZERO DUP1 PUSH2 0x1EAB JUMPI JUMPDEST ISZERO PUSH2 0x1E72 JUMPI PUSH1 0x2 DUP1 SLOAD PUSH2 0x100 PUSH1 0x1 PUSH1 0xA8 SHL SUB NOT AND PUSH1 0x8 SWAP3 SWAP1 SWAP3 SHL PUSH2 0x100 PUSH1 0x1 PUSH1 0xA8 SHL SUB AND SWAP2 SWAP1 SWAP2 OR SWAP1 SSTORE PUSH1 0x3 DUP1 SLOAD PUSH1 0x1 PUSH1 0x1 PUSH1 0xA0 SHL SUB NOT SWAP1 DUP2 AND SWAP5 DUP5 AND SWAP5 SWAP1 SWAP5 OR SWAP1 SSTORE PUSH1 0x4 DUP1 SLOAD SWAP1 SWAP4 AND SWAP2 AND OR SWAP1 SSTORE STOP JUMPDEST PUSH1 0x40 MLOAD PUSH3 0x461BCD PUSH1 0xE5 SHL DUP2 MSTORE PUSH1 0x20 PUSH1 0x4 DUP3 ADD MSTORE PUSH1 0x11 PUSH1 0x24 DUP3 ADD MSTORE PUSH17 0x496E76616C696420616464726573736573 PUSH1 0x78 SHL PUSH1 0x44 DUP3 ADD MSTORE PUSH1 0x64 SWAP1 REVERT JUMPDEST POP DUP3 DUP5 AND ISZERO ISZERO PUSH2 0x1E21 JUMP JUMPDEST CALLVALUE PUSH2 0x382 JUMPI PUSH2 0x220 CALLDATASIZE PUSH1 0x3 NOT ADD SLT PUSH2 0x382 JUMPI PUSH2 0x200 CALLDATASIZE PUSH1 0x23 NOT ADD SLT PUSH2 0x382 JUMPI PUSH1 0x40 MLOAD PUSH2 0x1EE1 DUP2 PUSH2 0x31DA JUMP JUMPDEST PUSH2 0x1EE9 PUSH2 0x3121 JUMP JUMPDEST DUP2 MSTORE PUSH1 0x44 CALLDATALOAD PUSH1 0x20 DUP3 ADD MSTORE PUSH2 0x1EFB PUSH2 0x310B JUMP JUMPDEST PUSH1 0x40 DUP3 ADD MSTORE PUSH1 0x84 CALLDATALOAD PUSH1 0x60 DUP3 ADD MSTORE PUSH1 0xA4 CALLDATALOAD PUSH1 0x1 PUSH1 0x1 PUSH1 0xA0 SHL SUB DUP2 AND DUP2 SUB PUSH2 0x382 JUMPI PUSH1 0x80 DUP3 ADD MSTORE PUSH1 0xC4 CALLDATALOAD PUSH1 0xA0 DUP3 ADD MSTORE PUSH1 0xE4 CALLDATALOAD PUSH1 0xC0 DUP3 ADD MSTORE PUSH2 0x104 CALLDATALOAD PUSH1 0xE0 DUP3 ADD MSTORE PUSH2 0x1F41 PUSH2 0x3163 JUMP JUMPDEST PUSH2 0x100 DUP3 ADD MSTORE PUSH2 0x144 CALLDATALOAD PUSH2 0x120 DUP3 ADD MSTORE PUSH2 0x164 CALLDATALOAD DUP1 ISZERO ISZERO DUP2 SUB PUSH2 0x382 JUMPI PUSH2 0x140 DUP3 ADD MSTORE PUSH2 0x184 CALLDATALOAD PUSH2 0x160 DUP3 ADD MSTORE PUSH2 0x1A4 CALLDATALOAD PUSH2 0x180 DUP3 ADD MSTORE PUSH2 0x1C4 CALLDATALOAD PUSH1 0x1 PUSH1 0x1 PUSH1 0xA0 SHL SUB DUP2 AND DUP2 SUB PUSH2 0x382 JUMPI PUSH2 0x1A0 DUP3 ADD MSTORE PUSH2 0x1E4 CALLDATALOAD ISZERO ISZERO PUSH2 0x1E4 CALLDATALOAD SUB PUSH2 0x382 JUMPI PUSH2 0x1E4 CALLDATALOAD PUSH2 0x1C0 DUP3 ADD MSTORE PUSH2 0x204 CALLDATALOAD ISZERO ISZERO PUSH2 0x204 CALLDATALOAD SUB PUSH2 0x382 JUMPI PUSH2 0x204 CALLDATALOAD PUSH2 0x1E0 DUP3 ADD MSTORE PUSH1 0x0 SLOAD PUSH1 0x1 PUSH1 0x1 PUSH1 0xA0 SHL SUB AND CALLER EQ DUP1 ISZERO PUSH2 0x21DB JUMPI JUMPDEST ISZERO PUSH2 0x21A7 JUMPI DUP1 MLOAD PUSH1 0x1 PUSH1 0x1 PUSH1 0xA0 SHL SUB AND ISZERO PUSH2 0x2162 JUMPI PUSH1 0x4 CALLDATALOAD PUSH1 0x0 MSTORE PUSH1 0x9 PUSH1 0x20 MSTORE PUSH1 0xD PUSH1 0x40 PUSH1 0x0 KECCAK256 PUSH1 0x1 DUP1 PUSH1 0xA0 SHL SUB DUP4 MLOAD AND PUSH1 0x1 PUSH1 0x1 PUSH1 0x60 SHL SUB PUSH1 0xA0 SHL SWAP1 DUP2 DUP4 SLOAD AND OR DUP3 SSTORE PUSH1 0x20 DUP5 ADD MLOAD PUSH1 0x1 DUP4 ADD SSTORE PUSH1 0x2 DUP3 ADD PUSH1 0x1 DUP1 PUSH1 0xA0 SHL SUB PUSH1 0x40 DUP7 ADD MLOAD AND DUP3 DUP3 SLOAD AND OR SWAP1 SSTORE PUSH1 0x60 DUP5 ADD MLOAD PUSH1 0x3 DUP4 ADD SSTORE PUSH1 0x4 DUP3 ADD SWAP1 PUSH1 0x1 DUP1 PUSH1 0xA0 SHL SUB PUSH1 0x80 DUP7 ADD MLOAD AND SWAP1 DUP3 SLOAD AND OR SWAP1 SSTORE PUSH1 0xA0 DUP4 ADD MLOAD PUSH1 0x5 DUP3 ADD SSTORE PUSH1 0xC0 DUP4 ADD MLOAD PUSH1 0x6 DUP3 ADD SSTORE PUSH1 0xE0 DUP4 ADD MLOAD PUSH1 0x7 DUP3 ADD SSTORE PUSH2 0x20A0 PUSH2 0x100 DUP5 ADD MLOAD ISZERO ISZERO PUSH1 0x8 DUP4 ADD SWAP1 PUSH1 0xFF DUP1 NOT DUP4 SLOAD AND SWAP2 ISZERO ISZERO AND OR SWAP1 SSTORE JUMP JUMPDEST PUSH2 0x120 DUP4 ADD MLOAD PUSH1 0x9 DUP3 ADD SSTORE PUSH2 0x20CB PUSH2 0x140 DUP5 ADD MLOAD ISZERO ISZERO PUSH1 0xA DUP4 ADD SWAP1 PUSH1 0xFF DUP1 NOT DUP4 SLOAD AND SWAP2 ISZERO ISZERO AND OR SWAP1 SSTORE JUMP JUMPDEST PUSH2 0x160 DUP4 ADD MLOAD PUSH1 0xB DUP3 ADD SSTORE PUSH2 0x180 DUP4 ADD MLOAD PUSH1 0xC DUP3 ADD SSTORE ADD PUSH1 0x1 DUP1 PUSH1 0xA0 SHL SUB PUSH2 0x1A0 DUP4 ADD MLOAD AND DUP2 SLOAD SWAP1 PUSH1 0xFF PUSH1 0xA0 SHL PUSH2 0x1C0 DUP6 ADD MLOAD ISZERO ISZERO PUSH1 0xA0 SHL AND SWAP1 PUSH1 0xFF PUSH1 0xA8 SHL PUSH2 0x1E0 DUP7 ADD MLOAD ISZERO ISZERO PUSH1 0xA8 SHL AND SWAP3 PUSH10 0xFFFFFFFFFFFFFFFFFFFF PUSH1 0xB0 SHL AND OR OR OR SWAP1 SSTORE PUSH32 0xE045480A66DE342C7072912D1BDC542AC70716EE7C1C277DD49E6768CCF44C6C PUSH1 0x40 MLOAD DUP1 PUSH2 0x215D PUSH1 0x4 CALLDATALOAD SWAP5 DUP3 PUSH2 0x3251 JUMP JUMPDEST SUB SWAP1 LOG2 STOP JUMPDEST PUSH1 0x40 MLOAD PUSH3 0x461BCD PUSH1 0xE5 SHL DUP2 MSTORE PUSH1 0x20 PUSH1 0x4 DUP3 ADD MSTORE PUSH1 0x17 PUSH1 0x24 DUP3 ADD MSTORE PUSH32 0x496E76616C6964206D65726368616E742077616C6C6574000000000000000000 PUSH1 0x44 DUP3 ADD MSTORE PUSH1 0x64 SWAP1 REVERT JUMPDEST PUSH1 0x40 MLOAD PUSH3 0x461BCD PUSH1 0xE5 SHL DUP2 MSTORE PUSH1 0x20 PUSH1 0x4 DUP3 ADD MSTORE PUSH1 0xC PUSH1 0x24 DUP3 ADD MSTORE PUSH12 0x155B985D5D1A1BDC9A5E9959 PUSH1 0xA2 SHL PUSH1 0x44 DUP3 ADD MSTORE PUSH1 0x64 SWAP1 REVERT JUMPDEST POP CALLER PUSH1 0x0 MSTORE PUSH1 0xB PUSH1 0x20 MSTORE PUSH1 0xFF PUSH1 0x40 PUSH1 0x0 KECCAK256 SLOAD AND PUSH2 0x1FD9 JUMP JUMPDEST CALLVALUE PUSH2 0x382 JUMPI PUSH1 0x20 CALLDATASIZE PUSH1 0x3 NOT ADD SLT PUSH2 0x382 JUMPI PUSH1 0x1 PUSH1 0x1 PUSH1 0xA0 SHL SUB PUSH2 0x2214 PUSH2 0x30F5 JUMP JUMPDEST AND PUSH1 0x0 MSTORE PUSH1 0xB PUSH1 0x20 MSTORE PUSH1 0x20 PUSH1 0xFF PUSH1 0x40 PUSH1 0x0 KECCAK256 SLOAD AND PUSH1 0x40 MLOAD SWAP1 ISZERO ISZERO DUP2 MSTORE RETURN JUMPDEST CALLVALUE PUSH2 0x382 JUMPI PUSH2 0xBE0 PUSH2 0x2243 CALLDATASIZE PUSH2 0x3193 JUMP JUMPDEST PUSH2 0x224E SWAP3 SWAP2 SWAP3 PUSH2 0x38C2 JUMP JUMPDEST CALLER PUSH1 0x0 MSTORE PUSH1 0xB PUSH1 0x20 MSTORE PUSH1 0xFF PUSH1 0x40 PUSH1 0x0 KECCAK256 SLOAD AND DUP1 ISZERO PUSH2 0x22BA JUMPI JUMPDEST PUSH2 0x2270 SWAP1 PUSH2 0x40A7 JUMP JUMPDEST PUSH2 0x2278 PUSH2 0x4021 JUMP JUMPDEST DUP2 PUSH1 0x0 DUP1 MLOAD PUSH1 0x20 PUSH2 0x420B DUP4 CODECOPY DUP2 MLOAD SWAP2 MSTORE PUSH1 0x40 PUSH1 0x1 DUP1 PUSH1 0xA0 SHL SUB PUSH2 0x22A5 DUP8 DUP3 PUSH1 0x2 SLOAD PUSH1 0x8 SHR AND DUP8 ADDRESS SWAP2 PUSH2 0x4065 JUMP JUMPDEST DUP2 MLOAD SWAP5 PUSH1 0x0 DUP7 MSTORE DUP8 PUSH1 0x20 DUP8 ADD MSTORE AND SWAP4 LOG3 PUSH2 0x3C74 JUMP JUMPDEST POP PUSH1 0x0 SLOAD PUSH1 0x1 PUSH1 0x1 PUSH1 0xA0 SHL SUB AND CALLER EQ PUSH2 0x2267 JUMP JUMPDEST CALLVALUE PUSH2 0x382 JUMPI PUSH1 0x0 CALLDATASIZE PUSH1 0x3 NOT ADD SLT PUSH2 0x382 JUMPI PUSH1 0x20 PUSH1 0x40 MLOAD PUSH2 0xBB8 DUP2 MSTORE RETURN JUMPDEST CALLVALUE PUSH2 0x382 JUMPI PUSH1 0x60 CALLDATASIZE PUSH1 0x3 NOT ADD SLT PUSH2 0x382 JUMPI PUSH1 0x4 CALLDATALOAD PUSH1 0x4 DUP2 LT ISZERO PUSH2 0x382 JUMPI PUSH2 0x2310 PUSH2 0x3182 JUMP JUMPDEST PUSH1 0x44 CALLDATALOAD SWAP1 PUSH2 0xFFFF SWAP1 DUP2 DUP4 AND DUP1 SWAP4 SUB PUSH2 0x382 JUMPI PUSH2 0x232A PUSH2 0x3350 JUMP JUMPDEST AND SWAP2 PUSH2 0x1F4 DUP4 GT PUSH2 0x23A0 JUMPI PUSH2 0x3E8 DUP3 GT PUSH2 0x2366 JUMPI DUP1 PUSH2 0x234B PUSH2 0x235C SWAP3 PUSH2 0x3314 JUMP JUMPDEST PUSH2 0xFFFF NOT SWAP5 DUP6 DUP3 SLOAD AND OR SWAP1 SSTORE PUSH2 0x332D JUMP JUMPDEST DUP1 SLOAD SWAP1 SWAP3 AND OR SWAP1 SSTORE STOP JUMPDEST PUSH1 0x40 MLOAD PUSH3 0x461BCD PUSH1 0xE5 SHL DUP2 MSTORE PUSH1 0x20 PUSH1 0x4 DUP3 ADD MSTORE PUSH1 0x12 PUSH1 0x24 DUP3 ADD MSTORE PUSH18 0xA0DEDED840E4C2E8CA40E8DEDE40D0D2CED PUSH1 0x73 SHL PUSH1 0x44 DUP3 ADD MSTORE PUSH1 0x64 SWAP1 REVERT JUMPDEST PUSH1 0x40 MLOAD PUSH3 0x461BCD PUSH1 0xE5 SHL DUP2 MSTORE PUSH1 0x20 PUSH1 0x4 DUP3 ADD MSTORE PUSH1 0x15 PUSH1 0x24 DUP3 ADD MSTORE PUSH21 0xA0D8C2E8CCDEE4DA40CCCACA40E8DEDE40D0D2CED PUSH1 0x5B SHL PUSH1 0x44 DUP3 ADD MSTORE PUSH1 0x64 SWAP1 REVERT JUMPDEST CALLVALUE PUSH2 0x382 JUMPI PUSH1 0x0 CALLDATASIZE PUSH1 0x3 NOT ADD SLT PUSH2 0x382 JUMPI PUSH2 0x23F6 PUSH2 0x3350 JUMP JUMPDEST PUSH1 0x2 SLOAD PUSH1 0xFF DUP2 AND ISZERO PUSH2 0x2435 JUMPI PUSH1 0xFF NOT AND PUSH1 0x2 SSTORE PUSH32 0x5DB9EE0A495BF2E6FF9C91A7834C1BA4FDD244A5E8AA4E537BD38AEAE4B073AA PUSH1 0x20 PUSH1 0x40 MLOAD CALLER DUP2 MSTORE LOG1 STOP JUMPDEST PUSH1 0x40 MLOAD PUSH3 0x461BCD PUSH1 0xE5 SHL DUP2 MSTORE PUSH1 0x20 PUSH1 0x4 DUP3 ADD MSTORE PUSH1 0x14 PUSH1 0x24 DUP3 ADD MSTORE PUSH20 0x14185D5CD8589B194E881B9BDD081C185D5CD959 PUSH1 0x62 SHL PUSH1 0x44 DUP3 ADD MSTORE PUSH1 0x64 SWAP1 REVERT JUMPDEST CALLVALUE PUSH2 0x382 JUMPI PUSH1 0x20 CALLDATASIZE PUSH1 0x3 NOT ADD SLT PUSH2 0x382 JUMPI PUSH1 0x4 CALLDATALOAD PUSH1 0x0 MSTORE PUSH1 0x9 PUSH1 0x20 MSTORE PUSH1 0xA0 PUSH1 0x40 PUSH1 0x0 KECCAK256 PUSH1 0xC PUSH1 0xD DUP3 ADD SLOAD SWAP2 ADD SLOAD SWAP1 PUSH1 0xD PUSH1 0x20 MSTORE PUSH1 0x40 PUSH1 0x0 KECCAK256 SLOAD PUSH1 0x40 MLOAD SWAP3 PUSH1 0xFF DUP4 DUP7 SHR AND ISZERO ISZERO DUP5 MSTORE PUSH1 0x20 DUP5 ADD MSTORE PUSH1 0x40 DUP4 ADD MSTORE PUSH1 0xFF DUP2 PUSH1 0xA8 SHR AND ISZERO ISZERO PUSH1 0x60 DUP4 ADD MSTORE PUSH1 0x1 DUP1 DUP5 SHL SUB AND PUSH1 0x80 DUP3 ADD MSTORE RETURN JUMPDEST CALLVALUE PUSH2 0x382 JUMPI PUSH1 0x80 CALLDATASIZE PUSH1 0x3 NOT ADD SLT PUSH2 0x382 JUMPI PUSH1 0x4 CALLDATALOAD PUSH1 0x24 CALLDATALOAD PUSH1 0x44 CALLDATALOAD PUSH1 0x7 DUP2 LT ISZERO PUSH2 0x382 JUMPI PUSH2 0x2509 PUSH2 0x310B JUMP JUMPDEST PUSH2 0x2511 PUSH2 0x38C2 JUMP JUMPDEST PUSH2 0x2519 PUSH2 0x4021 JUMP JUMPDEST PUSH2 0x2522 DUP3 PUSH2 0x3346 JUMP JUMPDEST PUSH1 0x3 DUP3 EQ DUP1 ISZERO PUSH2 0x271B JUMPI JUMPDEST DUP1 ISZERO PUSH2 0x2708 JUMPI JUMPDEST DUP1 ISZERO PUSH2 0x26F5 JUMPI JUMPDEST ISZERO PUSH2 0x26BB JUMPI PUSH2 0x2549 DUP3 PUSH2 0x3346 JUMP JUMPDEST DUP2 PUSH1 0x0 MSTORE PUSH1 0xE PUSH1 0x20 MSTORE PUSH2 0x2710 SWAP1 DUP2 PUSH2 0x256A PUSH2 0xFFFF PUSH1 0x40 PUSH1 0x0 KECCAK256 SLOAD AND DUP7 PUSH2 0x40F8 JUMP JUMPDEST DIV SWAP2 PUSH2 0x2576 DUP4 DUP7 PUSH2 0x3443 JUMP JUMPDEST PUSH1 0x2 SLOAD PUSH1 0x1 PUSH1 0x1 PUSH1 0xA0 SHL SUB SWAP4 SWAP2 PUSH2 0x2595 SWAP2 ADDRESS SWAP1 CALLER SWAP1 PUSH1 0x8 SHR DUP8 AND PUSH2 0x4065 JUMP JUMPDEST DUP7 PUSH1 0x0 MSTORE PUSH1 0x9 PUSH1 0x20 MSTORE PUSH2 0x25C2 DUP7 DUP5 PUSH1 0x40 PUSH1 0x0 KECCAK256 SLOAD AND PUSH2 0x25B5 DUP2 ISZERO ISZERO PUSH2 0x410B JUMP JUMPDEST DUP6 PUSH1 0x2 SLOAD PUSH1 0x8 SHR AND PUSH2 0x3918 JUMP JUMPDEST DUP4 SWAP2 DUP4 DUP3 AND ISZERO ISZERO DUP1 PUSH2 0x26B2 JUMPI JUMPDEST PUSH2 0x264A JUMPI JUMPDEST POP POP SWAP2 PUSH32 0x4CFC1808AABC66AE2FD5FF884DE56E832011CCE608C92F39305C64759E0F0098 SWAP5 SWAP2 DUP4 PUSH1 0x80 SWAP6 SWAP5 PUSH2 0x262C JUMPI JUMPDEST POP POP PUSH1 0x40 MLOAD SWAP3 PUSH2 0x2613 DUP2 PUSH2 0x3346 JUMP JUMPDEST DUP4 MSTORE DUP2 PUSH1 0x20 DUP5 ADD MSTORE PUSH1 0x40 DUP4 ADD MSTORE PUSH1 0x60 DUP3 ADD MSTORE LOG2 PUSH1 0x1 DUP1 SSTORE STOP JUMPDEST DUP2 PUSH2 0x2643 SWAP3 PUSH1 0x2 SLOAD PUSH1 0x8 SHR AND SWAP1 PUSH1 0x3 SLOAD AND SWAP1 PUSH2 0x3918 JUMP JUMPDEST DUP7 DUP1 PUSH2 0x2604 JUMP JUMPDEST SWAP5 SWAP4 SWAP2 POP SWAP5 SWAP2 PUSH2 0x7D0 SWAP5 DUP6 DUP4 MUL SWAP6 DUP4 DUP8 DIV EQ DUP4 ISZERO OR ISZERO PUSH2 0xF9D JUMPI PUSH32 0x4CFC1808AABC66AE2FD5FF884DE56E832011CCE608C92F39305C64759E0F0098 SWAP7 PUSH2 0x26A0 PUSH2 0x26A6 SWAP3 PUSH1 0x80 SWAP9 DIV DUP1 SWAP3 DUP6 PUSH1 0x2 SLOAD PUSH1 0x8 SHR AND PUSH2 0x3918 JUMP JUMPDEST DUP4 PUSH2 0x3C67 JUMP JUMPDEST SWAP2 SWAP4 SWAP5 DUP2 SWAP4 SWAP7 POP PUSH2 0x25D4 JUMP JUMPDEST POP DUP5 ISZERO ISZERO PUSH2 0x25CF JUMP JUMPDEST PUSH1 0x40 MLOAD PUSH3 0x461BCD PUSH1 0xE5 SHL DUP2 MSTORE PUSH1 0x20 PUSH1 0x4 DUP3 ADD MSTORE PUSH1 0x12 PUSH1 0x24 DUP3 ADD MSTORE PUSH18 0x4E6F74207363616E6E656420736F75726365 PUSH1 0x70 SHL PUSH1 0x44 DUP3 ADD MSTORE PUSH1 0x64 SWAP1 REVERT JUMPDEST POP PUSH2 0x26FF DUP3 PUSH2 0x3346 JUMP JUMPDEST PUSH1 0x6 DUP3 EQ PUSH2 0x253B JUMP JUMPDEST POP PUSH2 0x2712 DUP3 PUSH2 0x3346 JUMP JUMPDEST PUSH1 0x5 DUP3 EQ PUSH2 0x2534 JUMP JUMPDEST POP PUSH2 0x2725 DUP3 PUSH2 0x3346 JUMP JUMPDEST PUSH1 0x4 DUP3 EQ PUSH2 0x252D JUMP JUMPDEST CALLVALUE PUSH2 0x382 JUMPI PUSH2 0xBE0 PUSH2 0x273F CALLDATASIZE PUSH2 0x314D JUMP JUMPDEST SWAP1 PUSH2 0x2748 PUSH2 0x38C2 JUMP JUMPDEST PUSH2 0x2750 PUSH2 0x4021 JUMP JUMPDEST PUSH1 0x2 SLOAD PUSH2 0x276E SWAP1 DUP4 SWAP1 ADDRESS SWAP1 CALLER SWAP1 PUSH1 0x8 SHR PUSH1 0x1 PUSH1 0x1 PUSH1 0xA0 SHL SUB AND PUSH2 0x4065 JUMP JUMPDEST PUSH1 0x40 MLOAD PUSH1 0x1 DUP2 MSTORE DUP3 PUSH1 0x20 DUP3 ADD MSTORE DUP2 PUSH1 0x0 DUP1 MLOAD PUSH1 0x20 PUSH2 0x420B DUP4 CODECOPY DUP2 MLOAD SWAP2 MSTORE PUSH1 0x40 CALLER SWAP4 LOG3 PUSH2 0x3C74 JUMP JUMPDEST CALLVALUE PUSH2 0x382 JUMPI PUSH1 0x40 CALLDATASIZE PUSH1 0x3 NOT ADD SLT PUSH2 0x382 JUMPI PUSH2 0x27AE PUSH2 0x30F5 JUMP JUMPDEST PUSH32 0xFD79366B0051EDB9404D647385B22AABE1614A4D2C90FE624FF85103E6CEEC1B PUSH1 0x20 PUSH2 0x27D9 PUSH2 0x3173 JUMP JUMPDEST SWAP3 PUSH2 0x27E2 PUSH2 0x3350 JUMP JUMPDEST PUSH1 0x1 PUSH1 0x1 PUSH1 0xA0 SHL SUB AND PUSH1 0x0 DUP2 DUP2 MSTORE PUSH1 0xA DUP4 MSTORE PUSH1 0x40 SWAP1 KECCAK256 DUP1 SLOAD PUSH1 0xFF NOT AND PUSH1 0xFF DUP7 ISZERO ISZERO AND OR SWAP1 SSTORE SWAP3 PUSH2 0xAE8 JUMP JUMPDEST CALLVALUE PUSH2 0x382 JUMPI PUSH1 0x60 CALLDATASIZE PUSH1 0x3 NOT ADD SLT PUSH2 0x382 JUMPI PUSH2 0x1B PUSH2 0x2829 PUSH2 0x30F5 JUMP JUMPDEST PUSH2 0x2831 PUSH2 0x3121 JUMP JUMPDEST PUSH2 0x2839 PUSH2 0x3350 JUMP JUMPDEST PUSH1 0x1 PUSH1 0x1 PUSH1 0xA0 SHL SUB PUSH2 0x284E DUP3 DUP3 AND ISZERO ISZERO PUSH2 0x414A JUMP JUMPDEST PUSH1 0x44 CALLDATALOAD SWAP3 AND PUSH2 0x3918 JUMP JUMPDEST CALLVALUE PUSH2 0x382 JUMPI PUSH1 0x0 CALLDATASIZE PUSH1 0x3 NOT ADD SLT PUSH2 0x382 JUMPI PUSH1 0x4 SLOAD PUSH1 0x40 MLOAD PUSH1 0x1 PUSH1 0x1 PUSH1 0xA0 SHL SUB SWAP1 SWAP2 AND DUP2 MSTORE PUSH1 0x20 SWAP1 RETURN JUMPDEST CALLVALUE PUSH2 0x382 JUMPI PUSH1 0x20 CALLDATASIZE PUSH1 0x3 NOT ADD SLT PUSH2 0x382 JUMPI PUSH2 0x289A PUSH2 0x38C2 JUMP JUMPDEST PUSH2 0xBE0 PUSH1 0x4 CALLDATALOAD PUSH2 0x3490 JUMP JUMPDEST CALLVALUE PUSH2 0x382 JUMPI PUSH2 0x180 CALLDATASIZE PUSH1 0x3 NOT ADD SLT PUSH2 0x382 JUMPI PUSH1 0x4 CALLDATALOAD PUSH2 0x28C2 PUSH2 0x3121 JUMP JUMPDEST PUSH2 0x28CA PUSH2 0x3137 JUMP JUMPDEST SWAP1 PUSH2 0x28D3 PUSH2 0x310B JUMP JUMPDEST PUSH2 0x104 CALLDATALOAD PUSH2 0x28DF PUSH2 0x3163 JUMP JUMPDEST SWAP2 PUSH2 0x144 CALLDATALOAD SWAP4 DUP5 ISZERO ISZERO DUP6 SUB PUSH2 0x382 JUMPI PUSH2 0x164 CALLDATALOAD SWAP4 PUSH1 0x7 DUP6 LT ISZERO PUSH2 0x382 JUMPI PUSH2 0x2904 PUSH2 0x3350 JUMP JUMPDEST DUP8 ISZERO PUSH2 0x29F6 JUMPI PUSH2 0x29DB PUSH1 0x40 SWAP7 PUSH2 0x29C5 PUSH1 0x9 DUP12 PUSH2 0x29E0 SWAP8 DUP11 SWAP8 PUSH32 0x60910029FE48A0A44B96BB99A56760A55D152696CB8C89400F54D805F0F43E43 SWAP14 DUP4 PUSH1 0x0 MSTORE PUSH1 0x8 PUSH1 0x20 MSTORE DUP14 PUSH1 0x0 KECCAK256 SWAP4 DUP5 SSTORE PUSH1 0x1 DUP5 ADD SWAP1 PUSH1 0x1 DUP1 PUSH1 0xA0 SHL SUB SWAP2 DUP3 PUSH1 0x1 PUSH1 0x1 PUSH1 0x60 SHL SUB PUSH1 0xA0 SHL SWAP5 AND DUP5 DUP3 SLOAD AND OR SWAP1 SSTORE DUP2 PUSH1 0x2 DUP7 ADD SWAP2 AND DUP4 DUP3 SLOAD AND OR SWAP1 SSTORE PUSH1 0x3 DUP5 ADD SWAP3 AND SWAP1 DUP3 SLOAD AND OR SWAP1 SSTORE PUSH1 0x84 CALLDATALOAD PUSH1 0x4 DUP3 ADD SSTORE PUSH1 0xA4 CALLDATALOAD PUSH1 0x5 DUP3 ADD SSTORE PUSH1 0xC4 CALLDATALOAD PUSH1 0x6 DUP3 ADD SSTORE PUSH1 0xE4 CALLDATALOAD PUSH1 0x7 DUP3 ADD SSTORE DUP9 PUSH1 0x8 DUP3 ADD SSTORE ADD SWAP4 DUP5 SWAP1 PUSH1 0xFF DUP1 NOT DUP4 SLOAD AND SWAP2 ISZERO ISZERO AND OR SWAP1 SSTORE JUMP JUMPDEST DUP3 SLOAD PUSH2 0xFF00 NOT AND SWAP1 ISZERO ISZERO PUSH1 0x8 SHL PUSH2 0xFF00 AND OR DUP3 SSTORE JUMP JUMPDEST PUSH2 0x33E4 JUMP JUMPDEST DUP3 MLOAD SWAP2 PUSH2 0x29EC DUP2 PUSH2 0x3346 JUMP JUMPDEST DUP3 MSTORE PUSH1 0x20 DUP3 ADD MSTORE LOG2 STOP JUMPDEST PUSH1 0x40 MLOAD PUSH3 0x461BCD PUSH1 0xE5 SHL DUP2 MSTORE PUSH1 0x20 PUSH1 0x4 DUP3 ADD MSTORE PUSH1 0xD PUSH1 0x24 DUP3 ADD MSTORE PUSH13 0x24B73B30B634B21037B93232B9 PUSH1 0x99 SHL PUSH1 0x44 DUP3 ADD MSTORE PUSH1 0x64 SWAP1 REVERT JUMPDEST CALLVALUE PUSH2 0x382 JUMPI PUSH2 0xBE0 PUSH2 0x2A3C CALLDATASIZE PUSH2 0x314D JUMP JUMPDEST SWAP1 PUSH2 0x2A45 PUSH2 0x38C2 JUMP JUMPDEST PUSH2 0x2A4D PUSH2 0x4021 JUMP JUMPDEST PUSH1 0x2 SLOAD PUSH2 0x2A6B SWAP1 DUP4 SWAP1 ADDRESS SWAP1 CALLER SWAP1 PUSH1 0x8 SHR PUSH1 0x1 PUSH1 0x1 PUSH1 0xA0 SHL SUB AND PUSH2 0x4065 JUMP JUMPDEST PUSH1 0x40 MLOAD PUSH1 0x0 DUP2 MSTORE DUP3 PUSH1 0x20 DUP3 ADD MSTORE DUP2 PUSH1 0x0 DUP1 MLOAD PUSH1 0x20 PUSH2 0x420B DUP4 CODECOPY DUP2 MLOAD SWAP2 MSTORE PUSH1 0x40 CALLER SWAP4 LOG3 PUSH2 0x3C74 JUMP JUMPDEST CALLVALUE PUSH2 0x382 JUMPI PUSH1 0x0 CALLDATASIZE PUSH1 0x3 NOT ADD SLT PUSH2 0x382 JUMPI PUSH1 0x20 PUSH2 0xFFFF PUSH1 0x4 SLOAD PUSH1 0xA0 SHR AND PUSH1 0x40 MLOAD SWAP1 DUP2 MSTORE RETURN JUMPDEST CALLVALUE PUSH2 0x382 JUMPI PUSH1 0x0 CALLDATASIZE PUSH1 0x3 NOT ADD SLT PUSH2 0x382 JUMPI PUSH1 0x20 PUSH1 0x40 MLOAD PUSH2 0x7D0 DUP2 MSTORE RETURN JUMPDEST CALLVALUE PUSH2 0x382 JUMPI PUSH1 0x20 DUP1 PUSH1 0x3 NOT CALLDATASIZE ADD SLT PUSH2 0x382 JUMPI PUSH1 0x4 CALLDATALOAD PUSH2 0x2AF1 PUSH2 0x38C2 JUMP JUMPDEST DUP1 PUSH1 0x0 MSTORE PUSH1 0x6 DUP3 MSTORE PUSH1 0x40 PUSH1 0x0 KECCAK256 DUP1 SLOAD ISZERO PUSH2 0x2CD3 JUMPI PUSH1 0x5 DUP2 ADD SWAP1 PUSH1 0xFF DUP3 SLOAD AND PUSH2 0x2C8E JUMPI PUSH1 0x2 DUP2 ADD SLOAD PUSH1 0x3 DUP3 ADD SLOAD PUSH1 0x1 SWAP1 SWAP3 ADD DUP1 SLOAD PUSH1 0x1 PUSH1 0x1 PUSH1 0xA0 SHL SUB SWAP1 DUP2 AND PUSH1 0x0 SWAP1 DUP2 MSTORE PUSH1 0x7 DUP9 MSTORE PUSH1 0x40 DUP1 DUP3 KECCAK256 SWAP6 DUP4 AND DUP1 DUP4 MSTORE SWAP6 DUP10 MSTORE DUP2 KECCAK256 SSTORE SWAP2 SWAP4 DUP4 PUSH2 0x2BAC JUMPI SWAP2 DUP2 DUP6 SWAP4 PUSH2 0x2B8F PUSH1 0x0 DUP1 DUP1 DUP1 PUSH32 0x3FB9F3DB0B2A1CA46FAE5E943A35100C1504B6487B7A27513AE2F2279FB03895 SWAP12 DUP9 PUSH1 0x40 SWAP13 SWAP11 SLOAD AND GAS CALL PUSH2 0xA32 PUSH2 0x3A5D JUMP JUMPDEST PUSH1 0x1 PUSH1 0xFF NOT DUP3 SLOAD AND OR SWAP1 SSTORE SLOAD AND SWAP6 DUP4 MLOAD SWAP3 DUP4 MSTORE DUP3 ADD MSTORE LOG3 PUSH1 0x1 DUP1 SSTORE STOP JUMPDEST PUSH1 0x40 MLOAD PUSH4 0x70A08231 PUSH1 0xE0 SHL DUP2 MSTORE ADDRESS PUSH1 0x4 DUP3 ADD MSTORE DUP8 DUP2 PUSH1 0x24 DUP2 DUP9 GAS STATICCALL DUP1 ISZERO PUSH2 0xC60 JUMPI DUP7 SWAP2 PUSH1 0x0 SWAP2 PUSH2 0x2C5D JUMPI JUMPDEST POP LT PUSH2 0x2C18 JUMPI SWAP2 DUP2 DUP6 SWAP4 PUSH2 0x2C13 PUSH32 0x3FB9F3DB0B2A1CA46FAE5E943A35100C1504B6487B7A27513AE2F2279FB03895 SWAP8 DUP5 PUSH1 0x40 SWAP9 SWAP7 SLOAD AND DUP7 PUSH2 0x3918 JUMP JUMPDEST PUSH2 0x2B8F JUMP JUMPDEST PUSH1 0x40 MLOAD PUSH3 0x461BCD PUSH1 0xE5 SHL DUP2 MSTORE PUSH1 0x4 DUP2 ADD DUP9 SWAP1 MSTORE PUSH1 0x1A PUSH1 0x24 DUP3 ADD MSTORE PUSH32 0x496E73756666696369656E7420746F6B656E2062616C616E6365000000000000 PUSH1 0x44 DUP3 ADD MSTORE PUSH1 0x64 SWAP1 REVERT JUMPDEST DUP1 SWAP3 POP DUP10 DUP1 SWAP3 POP RETURNDATASIZE DUP4 GT PUSH2 0x2C87 JUMPI JUMPDEST PUSH2 0x2C76 DUP2 DUP4 PUSH2 0x322F JUMP JUMPDEST DUP2 ADD SUB SLT PUSH2 0x382 JUMPI DUP6 SWAP1 MLOAD DUP10 PUSH2 0x2BD7 JUMP JUMPDEST POP RETURNDATASIZE PUSH2 0x2C6C JUMP JUMPDEST PUSH1 0x40 MLOAD PUSH3 0x461BCD PUSH1 0xE5 SHL DUP2 MSTORE PUSH1 0x4 DUP2 ADD DUP6 SWAP1 MSTORE PUSH1 0x1C PUSH1 0x24 DUP3 ADD MSTORE PUSH32 0x536574746C656D656E7420616C726561647920636F6D706C6574656400000000 PUSH1 0x44 DUP3 ADD MSTORE PUSH1 0x64 SWAP1 REVERT JUMPDEST PUSH1 0x40 MLOAD PUSH3 0x461BCD PUSH1 0xE5 SHL DUP2 MSTORE PUSH1 0x4 DUP2 ADD DUP5 SWAP1 MSTORE PUSH1 0x14 PUSH1 0x24 DUP3 ADD MSTORE PUSH20 0x14D95D1D1B195B595B9D081B9BDD08199BDD5B99 PUSH1 0x62 SHL PUSH1 0x44 DUP3 ADD MSTORE PUSH1 0x64 SWAP1 REVERT JUMPDEST CALLVALUE PUSH2 0x382 JUMPI PUSH1 0x20 CALLDATASIZE PUSH1 0x3 NOT ADD SLT PUSH2 0x382 JUMPI PUSH1 0x1 PUSH1 0x1 PUSH1 0xA0 SHL SUB PUSH2 0x2D30 PUSH2 0x30F5 JUMP JUMPDEST AND PUSH1 0x0 MSTORE PUSH1 0xC PUSH1 0x20 MSTORE PUSH1 0x20 PUSH1 0xFF PUSH1 0x40 PUSH1 0x0 KECCAK256 SLOAD AND PUSH1 0x40 MLOAD SWAP1 ISZERO ISZERO DUP2 MSTORE RETURN JUMPDEST CALLVALUE PUSH2 0x382 JUMPI PUSH1 0x0 CALLDATASIZE PUSH1 0x3 NOT ADD SLT PUSH2 0x382 JUMPI PUSH1 0x20 PUSH1 0x40 MLOAD PUSH2 0x1B58 DUP2 MSTORE RETURN JUMPDEST CALLVALUE PUSH2 0x382 JUMPI PUSH1 0x20 CALLDATASIZE PUSH1 0x3 NOT ADD SLT PUSH2 0x382 JUMPI PUSH1 0x4 CALLDATALOAD PUSH1 0x0 MSTORE PUSH1 0xD PUSH1 0x20 MSTORE PUSH1 0x20 PUSH1 0x40 PUSH1 0x0 KECCAK256 SLOAD PUSH1 0x40 MLOAD SWAP1 DUP2 MSTORE RETURN JUMPDEST CALLVALUE PUSH2 0x382 JUMPI PUSH1 0x80 CALLDATASIZE PUSH1 0x3 NOT ADD SLT PUSH2 0x382 JUMPI PUSH2 0x2DB0 PUSH2 0x30F5 JUMP JUMPDEST PUSH1 0x3 PUSH1 0x24 CALLDATALOAD LT ISZERO PUSH2 0x382 JUMPI PUSH2 0x2DC3 PUSH2 0x310B JUMP JUMPDEST SWAP1 PUSH2 0x2DCC PUSH2 0x3350 JUMP JUMPDEST PUSH2 0x2DE0 PUSH1 0x1 PUSH1 0x1 PUSH1 0xA0 SHL SUB DUP3 AND ISZERO ISZERO PUSH2 0x3B71 JUMP JUMPDEST PUSH2 0x2DED PUSH1 0x44 CALLDATALOAD ISZERO ISZERO PUSH2 0x3BB5 JUMP JUMPDEST PUSH32 0xE96FFF900A6FF2A08049BFEE9CCEA320D64DBBA6BCF81A91FC6C63360CC9F65B PUSH1 0xE0 PUSH1 0x40 MLOAD PUSH1 0x20 DUP2 ADD SWAP1 PUSH1 0x1 PUSH1 0x1 PUSH1 0x60 SHL SUB NOT DUP6 PUSH1 0x60 SHL AND DUP3 MSTORE PUSH2 0x2E33 PUSH1 0x24 CALLDATALOAD PUSH2 0x30D5 JUMP JUMPDEST PUSH1 0x24 CALLDATALOAD PUSH1 0xF8 SHL PUSH1 0x34 DUP3 ADD MSTORE PUSH1 0x44 CALLDATALOAD PUSH1 0x35 DUP3 ADD MSTORE PUSH1 0x1 PUSH1 0x1 PUSH1 0x60 SHL SUB NOT DUP7 PUSH1 0x60 SHL AND PUSH1 0x55 DUP3 ADD MSTORE TIMESTAMP PUSH1 0x69 DUP3 ADD MSTORE PUSH1 0x69 DUP2 MSTORE PUSH2 0x2E6C DUP2 PUSH2 0x31F7 JUMP JUMPDEST MLOAD SWAP1 KECCAK256 SWAP3 PUSH2 0x2FCE PUSH1 0x40 MLOAD PUSH2 0x2E7F DUP2 PUSH2 0x31BD JUMP JUMPDEST DUP6 DUP2 MSTORE PUSH1 0x1 PUSH1 0x1 PUSH1 0xA0 SHL SUB DUP4 AND PUSH1 0x20 DUP3 ADD MSTORE PUSH2 0x2E9C PUSH1 0x24 CALLDATALOAD PUSH2 0x30D5 JUMP JUMPDEST PUSH1 0x24 CALLDATALOAD PUSH1 0x40 DUP3 ADD MSTORE PUSH1 0x0 PUSH1 0x60 DUP3 ADD MSTORE PUSH1 0x44 CALLDATALOAD PUSH1 0x80 DUP3 ADD MSTORE PUSH1 0x1 DUP1 PUSH1 0xA0 SHL SUB DUP8 AND PUSH1 0xA0 DUP3 ADD MSTORE PUSH1 0x44 CALLDATALOAD PUSH1 0xC0 DUP3 ADD MSTORE PUSH1 0x0 DUP5 DUP3 ADD MSTORE PUSH1 0x0 PUSH2 0x100 DUP3 ADD MSTORE TIMESTAMP PUSH2 0x120 DUP3 ADD MSTORE PUSH1 0x0 PUSH2 0x140 DUP3 ADD MSTORE DUP6 PUSH1 0x0 MSTORE PUSH1 0x5 PUSH1 0x20 MSTORE PUSH1 0x8 PUSH2 0x140 PUSH1 0x40 PUSH1 0x0 KECCAK256 SWAP3 DUP1 MLOAD DUP5 SSTORE PUSH1 0x1 DUP5 ADD PUSH1 0x1 DUP1 PUSH1 0xA0 SHL SUB PUSH1 0x20 DUP4 ADD MLOAD AND SWAP1 PUSH1 0x1 PUSH1 0x1 PUSH1 0x60 SHL SUB PUSH1 0xA0 SHL SWAP2 DUP3 DUP3 SLOAD AND OR DUP2 SSTORE PUSH2 0x2F34 PUSH1 0x40 DUP5 ADD MLOAD PUSH2 0x593 DUP2 PUSH2 0x30D5 JUMP JUMPDEST PUSH1 0x60 DUP4 ADD MLOAD PUSH2 0x2F42 DUP2 PUSH2 0x30D5 JUMP JUMPDEST PUSH2 0x2F4B DUP2 PUSH2 0x30D5 JUMP JUMPDEST DUP2 SLOAD PUSH1 0xFF PUSH1 0xA8 SHL NOT AND PUSH1 0xA8 SWAP2 SWAP1 SWAP2 SHL PUSH1 0xFF PUSH1 0xA8 SHL AND OR SWAP1 SSTORE PUSH1 0x80 DUP3 ADD MLOAD PUSH1 0x2 DUP7 ADD SSTORE PUSH1 0xA0 DUP3 ADD MLOAD PUSH1 0x3 DUP7 ADD DUP1 SLOAD SWAP1 SWAP3 AND PUSH1 0x1 PUSH1 0x1 PUSH1 0xA0 SHL SUB SWAP2 SWAP1 SWAP2 AND OR SWAP1 SSTORE PUSH1 0xC0 DUP2 ADD MLOAD PUSH1 0x4 DUP6 ADD SSTORE DUP7 DUP2 ADD MLOAD PUSH1 0x5 DUP6 ADD SSTORE PUSH2 0x100 DUP2 ADD MLOAD PUSH1 0x6 DUP6 ADD SSTORE PUSH2 0x120 DUP2 ADD MLOAD PUSH1 0x7 DUP6 ADD SSTORE ADD MLOAD SWAP2 ADD DUP1 SLOAD SWAP2 ISZERO ISZERO PUSH1 0xFF AND PUSH1 0xFF NOT SWAP3 SWAP1 SWAP3 AND SWAP2 SWAP1 SWAP2 OR SWAP1 SSTORE JUMP JUMPDEST PUSH1 0x1 PUSH1 0x1 PUSH1 0xA0 SHL SUB DUP2 DUP2 AND PUSH1 0x0 SWAP1 DUP2 MSTORE PUSH1 0x7 PUSH1 0x20 SWAP1 DUP2 MSTORE PUSH1 0x40 DUP1 DUP4 KECCAK256 SWAP4 DUP10 AND DUP4 MSTORE SWAP3 SWAP1 MSTORE KECCAK256 DUP1 SLOAD PUSH2 0x3002 SWAP1 PUSH1 0x44 CALLDATALOAD SWAP1 PUSH2 0x3443 JUMP JUMPDEST SWAP1 SSTORE PUSH1 0x40 MLOAD SWAP5 PUSH2 0x3013 PUSH1 0x24 CALLDATALOAD PUSH2 0x30D5 JUMP JUMPDEST PUSH1 0x24 CALLDATALOAD DUP7 MSTORE PUSH1 0x0 PUSH1 0x20 DUP8 ADD DUP2 SWAP1 MSTORE PUSH1 0x44 CALLDATALOAD PUSH1 0x40 DUP9 ADD DUP2 SWAP1 MSTORE PUSH1 0x1 PUSH1 0x1 PUSH1 0xA0 SHL SUB SWAP3 DUP4 AND PUSH1 0x60 DUP10 ADD MSTORE PUSH1 0x80 DUP9 ADD MSTORE PUSH1 0xA0 DUP8 ADD DUP2 SWAP1 MSTORE PUSH1 0xC0 DUP8 ADD MSTORE AND SWAP4 LOG3 STOP JUMPDEST CALLVALUE PUSH2 0x382 JUMPI PUSH1 0x20 CALLDATASIZE PUSH1 0x3 NOT ADD SLT PUSH2 0x382 JUMPI PUSH1 0xE0 SWAP1 PUSH1 0x4 CALLDATALOAD PUSH1 0x0 MSTORE PUSH1 0x6 PUSH1 0x20 MSTORE PUSH1 0x40 PUSH1 0x0 KECCAK256 DUP1 SLOAD SWAP1 PUSH1 0x1 DUP2 ADD SLOAD PUSH1 0xFF DUP2 PUSH1 0xA0 SHR AND PUSH1 0x2 DUP4 ADD SLOAD SWAP1 PUSH1 0x1 DUP1 PUSH1 0xA0 SHL SUB DUP1 PUSH1 0x3 DUP7 ADD SLOAD AND SWAP4 PUSH1 0xFF PUSH1 0x5 PUSH1 0x4 DUP9 ADD SLOAD SWAP8 ADD SLOAD AND SWAP7 DUP9 MSTORE AND PUSH1 0x20 DUP8 ADD MSTORE PUSH2 0x30B8 DUP2 PUSH2 0x30D5 JUMP JUMPDEST PUSH1 0x40 DUP7 ADD MSTORE PUSH1 0x60 DUP6 ADD MSTORE PUSH1 0x80 DUP5 ADD MSTORE PUSH1 0xA0 DUP4 ADD MSTORE ISZERO ISZERO PUSH1 0xC0 DUP3 ADD MSTORE RETURN JUMPDEST PUSH1 0x3 GT ISZERO PUSH2 0x30DF JUMPI JUMP JUMPDEST PUSH4 0x4E487B71 PUSH1 0xE0 SHL PUSH1 0x0 MSTORE PUSH1 0x21 PUSH1 0x4 MSTORE PUSH1 0x24 PUSH1 0x0 REVERT JUMPDEST PUSH1 0x4 CALLDATALOAD SWAP1 PUSH1 0x1 PUSH1 0x1 PUSH1 0xA0 SHL SUB DUP3 AND DUP3 SUB PUSH2 0x382 JUMPI JUMP JUMPDEST PUSH1 0x64 CALLDATALOAD SWAP1 PUSH1 0x1 PUSH1 0x1 PUSH1 0xA0 SHL SUB DUP3 AND DUP3 SUB PUSH2 0x382 JUMPI JUMP JUMPDEST PUSH1 0x24 CALLDATALOAD SWAP1 PUSH1 0x1 PUSH1 0x1 PUSH1 0xA0 SHL SUB DUP3 AND DUP3 SUB PUSH2 0x382 JUMPI JUMP JUMPDEST PUSH1 0x44 CALLDATALOAD SWAP1 PUSH1 0x1 PUSH1 0x1 PUSH1 0xA0 SHL SUB DUP3 AND DUP3 SUB PUSH2 0x382 JUMPI JUMP JUMPDEST PUSH1 0x40 SWAP1 PUSH1 0x3 NOT ADD SLT PUSH2 0x382 JUMPI PUSH1 0x4 CALLDATALOAD SWAP1 PUSH1 0x24 CALLDATALOAD SWAP1 JUMP JUMPDEST PUSH2 0x124 CALLDATALOAD SWAP1 DUP2 ISZERO ISZERO DUP3 SUB PUSH2 0x382 JUMPI JUMP JUMPDEST PUSH1 0x24 CALLDATALOAD SWAP1 DUP2 ISZERO ISZERO DUP3 SUB PUSH2 0x382 JUMPI JUMP JUMPDEST PUSH1 0x24 CALLDATALOAD SWAP1 PUSH2 0xFFFF DUP3 AND DUP3 SUB PUSH2 0x382 JUMPI JUMP JUMPDEST PUSH1 0x60 SWAP1 PUSH1 0x3 NOT ADD SLT PUSH2 0x382 JUMPI PUSH1 0x4 CALLDATALOAD SWAP1 PUSH1 0x24 CALLDATALOAD SWAP1 PUSH1 0x44 CALLDATALOAD PUSH1 0x1 PUSH1 0x1 PUSH1 0xA0 SHL SUB DUP2 AND DUP2 SUB PUSH2 0x382 JUMPI SWAP1 JUMP JUMPDEST PUSH2 0x160 DUP2 ADD SWAP1 DUP2 LT PUSH8 0xFFFFFFFFFFFFFFFF DUP3 GT OR PUSH2 0x6CB JUMPI PUSH1 0x40 MSTORE JUMP JUMPDEST PUSH2 0x200 DUP2 ADD SWAP1 DUP2 LT PUSH8 0xFFFFFFFFFFFFFFFF DUP3 GT OR PUSH2 0x6CB JUMPI PUSH1 0x40 MSTORE JUMP JUMPDEST PUSH1 0xA0 DUP2 ADD SWAP1 DUP2 LT PUSH8 0xFFFFFFFFFFFFFFFF DUP3 GT OR PUSH2 0x6CB JUMPI PUSH1 0x40 MSTORE JUMP JUMPDEST PUSH1 0x80 DUP2 ADD SWAP1 DUP2 LT PUSH8 0xFFFFFFFFFFFFFFFF DUP3 GT OR PUSH2 0x6CB JUMPI PUSH1 0x40 MSTORE JUMP JUMPDEST SWAP1 PUSH1 0x1F DUP1 NOT SWAP2 ADD AND DUP2 ADD SWAP1 DUP2 LT PUSH8 0xFFFFFFFFFFFFFFFF DUP3 GT OR PUSH2 0x6CB JUMPI PUSH1 0x40 MSTORE JUMP JUMPDEST SWAP2 SWAP1 SWAP2 PUSH2 0x200 DUP2 ADD SWAP3 PUSH1 0x1 DUP1 PUSH1 0xA0 SHL SUB DUP1 DUP3 MLOAD AND DUP4 MSTORE PUSH1 0x20 DUP3 ADD MLOAD PUSH1 0x20 DUP5 ADD MSTORE DUP1 PUSH1 0x40 DUP4 ADD MLOAD AND PUSH1 0x40 DUP5 ADD MSTORE PUSH1 0x60 DUP3 ADD MLOAD PUSH1 0x60 DUP5 ADD MSTORE DUP1 PUSH1 0x80 DUP4 ADD MLOAD AND PUSH1 0x80 DUP5 ADD MSTORE PUSH1 0xA0 DUP3 ADD MLOAD PUSH1 0xA0 DUP5 ADD MSTORE PUSH1 0xC0 DUP3 ADD MLOAD PUSH1 0xC0 DUP5 ADD MSTORE PUSH1 0xE0 DUP3 ADD MLOAD PUSH1 0xE0 DUP5 ADD MSTORE PUSH2 0x100 DUP1 DUP4 ADD MLOAD ISZERO ISZERO SWAP1 DUP5 ADD MSTORE PUSH2 0x120 DUP1 DUP4 ADD MLOAD SWAP1 DUP5 ADD MSTORE PUSH2 0x140 DUP1 DUP4 ADD MLOAD ISZERO ISZERO SWAP1 DUP5 ADD MSTORE PUSH2 0x160 DUP1 DUP4 ADD MLOAD SWAP1 DUP5 ADD MSTORE PUSH2 0x180 DUP1 DUP4 ADD MLOAD SWAP1 DUP5 ADD MSTORE PUSH2 0x1A0 SWAP1 DUP2 DUP4 ADD MLOAD AND SWAP1 DUP4 ADD MSTORE PUSH2 0x1C0 DUP1 DUP3 ADD MLOAD ISZERO ISZERO SWAP1 DUP4 ADD MSTORE PUSH2 0x1E0 DUP1 SWAP2 ADD MLOAD ISZERO ISZERO SWAP2 ADD MSTORE JUMP JUMPDEST PUSH1 0x4 DUP2 LT ISZERO PUSH2 0x30DF JUMPI PUSH1 0x0 MSTORE PUSH1 0xF PUSH1 0x20 MSTORE PUSH1 0x40 PUSH1 0x0 KECCAK256 SWAP1 JUMP JUMPDEST PUSH1 0x4 DUP2 LT ISZERO PUSH2 0x30DF JUMPI PUSH1 0x0 MSTORE PUSH1 0x10 PUSH1 0x20 MSTORE PUSH1 0x40 PUSH1 0x0 KECCAK256 SWAP1 JUMP JUMPDEST PUSH1 0x7 GT ISZERO PUSH2 0x30DF JUMPI JUMP JUMPDEST PUSH1 0x0 SLOAD PUSH1 0x1 PUSH1 0x1 PUSH1 0xA0 SHL SUB AND CALLER SUB PUSH2 0x3364 JUMPI JUMP JUMPDEST PUSH1 0x64 PUSH1 0x40 MLOAD PUSH3 0x461BCD PUSH1 0xE5 SHL DUP2 MSTORE PUSH1 0x20 PUSH1 0x4 DUP3 ADD MSTORE PUSH1 0x20 PUSH1 0x24 DUP3 ADD MSTORE PUSH32 0x4F776E61626C653A2063616C6C6572206973206E6F7420746865206F776E6572 PUSH1 0x44 DUP3 ADD MSTORE REVERT JUMPDEST ISZERO PUSH2 0x33AF JUMPI JUMP JUMPDEST PUSH1 0x40 MLOAD PUSH3 0x461BCD PUSH1 0xE5 SHL DUP2 MSTORE PUSH1 0x20 PUSH1 0x4 DUP3 ADD MSTORE PUSH1 0xD PUSH1 0x24 DUP3 ADD MSTORE PUSH13 0xA4C2E8CA40E8DEDE40D0D2CED PUSH1 0x9B SHL PUSH1 0x44 DUP3 ADD MSTORE PUSH1 0x64 SWAP1 REVERT JUMPDEST SWAP1 PUSH2 0x33EE DUP2 PUSH2 0x3346 JUMP JUMPDEST PUSH3 0xFF0000 DUP3 SLOAD SWAP2 PUSH1 0x10 SHL AND SWAP1 PUSH3 0xFF0000 NOT AND OR SWAP1 SSTORE JUMP JUMPDEST ISZERO PUSH2 0x340C JUMPI JUMP JUMPDEST PUSH1 0x40 MLOAD PUSH3 0x461BCD PUSH1 0xE5 SHL DUP2 MSTORE PUSH1 0x20 PUSH1 0x4 DUP3 ADD MSTORE PUSH1 0xF PUSH1 0x24 DUP3 ADD MSTORE PUSH15 0x13DC99195C881B9BDD08199BDD5B99 PUSH1 0x8A SHL PUSH1 0x44 DUP3 ADD MSTORE PUSH1 0x64 SWAP1 REVERT JUMPDEST SWAP2 SWAP1 DUP3 ADD DUP1 SWAP3 GT PUSH2 0xF9D JUMPI JUMP JUMPDEST ISZERO PUSH2 0x3457 JUMPI JUMP JUMPDEST PUSH1 0x40 MLOAD PUSH3 0x461BCD PUSH1 0xE5 SHL DUP2 MSTORE PUSH1 0x20 PUSH1 0x4 DUP3 ADD MSTORE PUSH1 0x11 PUSH1 0x24 DUP3 ADD MSTORE PUSH17 0x13DC99195C881A5CC8191A5CDC1D5D1959 PUSH1 0x7A SHL PUSH1 0x44 DUP3 ADD MSTORE PUSH1 0x64 SWAP1 REVERT JUMPDEST PUSH1 0x0 DUP2 DUP2 MSTORE PUSH1 0x20 SWAP1 PUSH1 0x9 DUP3 MSTORE PUSH1 0x40 SWAP1 DUP2 DUP2 KECCAK256 PUSH1 0x1 DUP1 PUSH1 0xA0 SHL SUB SWAP1 DUP2 DUP2 SLOAD AND PUSH2 0x3751 JUMPI POP DUP5 DUP3 MSTORE PUSH1 0x8 DUP1 DUP6 MSTORE DUP4 DUP4 KECCAK256 SWAP3 PUSH2 0x34CB DUP5 SLOAD ISZERO ISZERO PUSH2 0x3405 JUMP JUMPDEST PUSH1 0x9 DUP5 ADD SWAP3 DUP4 SLOAD PUSH1 0x3 PUSH1 0xFF DUP3 PUSH1 0x10 SHR AND PUSH2 0x34E4 DUP2 PUSH2 0x3346 JUMP JUMPDEST SUB PUSH2 0x371B JUMPI PUSH1 0xFF PUSH2 0x34F8 SWAP2 DUP6 SHR AND ISZERO PUSH2 0x3450 JUMP JUMPDEST DUP3 DUP6 ADD SLOAD TIMESTAMP LT PUSH2 0x36D7 JUMPI PUSH1 0x2 SWAP2 DUP2 DUP4 SLOAD DUP6 SHR AND DUP1 ISZERO PUSH2 0x369C JUMPI DUP3 PUSH1 0x3 SLOAD AND ISZERO PUSH2 0x3658 JUMPI SWAP2 PUSH1 0x4 SWAP6 SWAP4 SWAP2 DUP8 SWAP6 SWAP4 DUP3 PUSH1 0x1 PUSH32 0x20AE1B8DB4D925AFAAF826CDCC84AC635F7E9D344A3A44014212F343A71C5FF1 SWAP13 SWAP12 SWAP11 ADD SLOAD AND SWAP1 DUP2 ISZERO ISZERO DUP1 PUSH2 0x364C JUMPI JUMPDEST PUSH2 0x3637 JUMPI JUMPDEST POP POP PUSH1 0x5 DUP7 ADD SLOAD DUP1 ISZERO ISZERO DUP1 PUSH2 0x3629 JUMPI JUMPDEST PUSH2 0x360D JUMPI JUMPDEST POP PUSH1 0x6 DUP7 ADD SLOAD DUP1 PUSH2 0x35C7 JUMPI JUMPDEST POP POP PUSH1 0x7 DUP6 ADD SLOAD SWAP2 DUP3 PUSH2 0x35A9 JUMPI JUMPDEST POP POP POP POP PUSH3 0x40000 PUSH3 0xFF0000 NOT DUP3 SLOAD AND OR SWAP1 SSTORE ADD SLOAD SWAP1 MLOAD SWAP1 DUP2 MSTORE LOG2 JUMP JUMPDEST PUSH2 0x35BE SWAP4 DUP3 SWAP2 SLOAD SWAP1 SHR AND SWAP1 PUSH1 0x3 SLOAD AND SWAP1 PUSH2 0x3918 JUMP JUMPDEST CODESIZE DUP1 DUP1 DUP1 PUSH2 0x358C JUMP JUMPDEST DUP6 SLOAD PUSH2 0x35F2 SWAP3 POP PUSH1 0xFF AND ISZERO PUSH2 0x3604 JUMPI DUP3 PUSH1 0x3 DUP9 ADD SLOAD AND JUMPDEST DUP4 DUP2 AND ISZERO PUSH2 0x35F9 JUMPI JUMPDEST DUP4 DUP6 SLOAD DUP8 SHR AND PUSH2 0x3918 JUMP JUMPDEST CODESIZE DUP1 PUSH2 0x357E JUMP JUMPDEST POP DUP3 PUSH1 0x3 SLOAD AND PUSH2 0x35E7 JUMP JUMPDEST DUP3 DUP9 SLOAD AND PUSH2 0x35DE JUMP JUMPDEST PUSH2 0x3623 SWAP1 DUP4 DUP6 SLOAD DUP8 SHR AND DUP5 DUP7 DUP11 ADD SLOAD AND SWAP1 PUSH2 0x3918 JUMP JUMPDEST CODESIZE PUSH2 0x3572 JUMP JUMPDEST POP DUP3 DUP5 DUP9 ADD SLOAD AND ISZERO ISZERO PUSH2 0x356D JUMP JUMPDEST PUSH2 0x3645 SWAP2 DUP10 DUP10 ADD SLOAD SWAP2 PUSH2 0x3918 JUMP JUMPDEST CODESIZE DUP1 PUSH2 0x355D JUMP JUMPDEST POP DUP9 DUP9 ADD SLOAD ISZERO ISZERO PUSH2 0x3558 JUMP JUMPDEST DUP8 MLOAD PUSH3 0x461BCD PUSH1 0xE5 SHL DUP2 MSTORE PUSH1 0x4 DUP2 ADD DUP11 SWAP1 MSTORE PUSH1 0x17 PUSH1 0x24 DUP3 ADD MSTORE PUSH32 0x5472656173757279206E6F7420636F6E66696775726564000000000000000000 PUSH1 0x44 DUP3 ADD MSTORE PUSH1 0x64 SWAP1 REVERT JUMPDEST DUP8 MLOAD PUSH3 0x461BCD PUSH1 0xE5 SHL DUP2 MSTORE PUSH1 0x4 DUP2 ADD DUP11 SWAP1 MSTORE PUSH1 0x14 PUSH1 0x24 DUP3 ADD MSTORE PUSH20 0x151BDAD95B881B9BDD0818DBDB999A59DD5C9959 PUSH1 0x62 SHL PUSH1 0x44 DUP3 ADD MSTORE PUSH1 0x64 SWAP1 REVERT JUMPDEST DUP6 MLOAD PUSH3 0x461BCD PUSH1 0xE5 SHL DUP2 MSTORE PUSH1 0x4 DUP2 ADD DUP9 SWAP1 MSTORE PUSH1 0x17 PUSH1 0x24 DUP3 ADD MSTORE PUSH32 0x5374696C6C20696E206C6F636B696E6720706572696F64000000000000000000 PUSH1 0x44 DUP3 ADD MSTORE PUSH1 0x64 SWAP1 REVERT JUMPDEST DUP7 MLOAD PUSH3 0x461BCD PUSH1 0xE5 SHL DUP2 MSTORE PUSH1 0x4 DUP2 ADD DUP10 SWAP1 MSTORE PUSH1 0xF PUSH1 0x24 DUP3 ADD MSTORE PUSH15 0x4F72646572206E6F74207265616479 PUSH1 0x88 SHL PUSH1 0x44 DUP3 ADD MSTORE PUSH1 0x64 SWAP1 REVERT JUMPDEST SWAP6 SWAP5 SWAP3 SWAP1 DUP5 PUSH1 0xD DUP9 SWAP7 SWAP5 SWAP7 ADD SLOAD PUSH1 0xFF DUP2 PUSH1 0xA0 SHR AND PUSH2 0x3875 JUMPI JUMPDEST POP PUSH1 0x2 SLOAD DUP4 MLOAD PUSH4 0x70A08231 PUSH1 0xE0 SHL DUP2 MSTORE ADDRESS PUSH1 0x4 DUP3 ADD MSTORE SWAP3 DUP4 SWAP2 PUSH1 0x24 SWAP2 DUP4 SWAP2 PUSH1 0x8 SHR AND GAS STATICCALL SWAP5 DUP6 ISZERO PUSH2 0x386A JUMPI DUP1 SWAP6 PUSH2 0x3835 JUMPI JUMPDEST POP POP DUP4 ISZERO PUSH2 0x37F2 JUMPI POP POP PUSH2 0x37DA DUP5 PUSH1 0x6 PUSH2 0x37D1 PUSH2 0x37C6 PUSH1 0x1 PUSH2 0x37E8 SWAP9 SWAP10 ADD SLOAD PUSH1 0x3 DUP6 ADD SLOAD SWAP1 PUSH2 0x3443 JUMP JUMPDEST PUSH1 0x5 DUP5 ADD SLOAD SWAP1 PUSH2 0x3443 JUMP JUMPDEST SWAP2 ADD SLOAD SWAP1 PUSH2 0x3443 JUMP JUMPDEST SWAP2 DUP3 ISZERO PUSH2 0x37EA JUMPI JUMPDEST POP PUSH2 0x3C74 JUMP JUMPDEST JUMP JUMPDEST SWAP2 POP CODESIZE PUSH2 0x37E2 JUMP JUMPDEST PUSH1 0x64 SWAP3 POP MLOAD SWAP1 PUSH3 0x461BCD PUSH1 0xE5 SHL DUP3 MSTORE PUSH1 0x4 DUP3 ADD MSTORE PUSH1 0x18 PUSH1 0x24 DUP3 ADD MSTORE PUSH32 0x4E6F2062616C616E636520746F20646973747269627574650000000000000000 PUSH1 0x44 DUP3 ADD MSTORE REVERT JUMPDEST SWAP1 SWAP2 SWAP5 POP DUP3 DUP3 DUP2 RETURNDATASIZE DUP4 GT PUSH2 0x3863 JUMPI JUMPDEST PUSH2 0x384E DUP2 DUP4 PUSH2 0x322F JUMP JUMPDEST DUP2 ADD SUB SLT PUSH2 0x3860 JUMPI POP MLOAD SWAP3 CODESIZE DUP1 PUSH2 0x379C JUMP JUMPDEST DUP1 REVERT JUMPDEST POP RETURNDATASIZE PUSH2 0x3844 JUMP JUMPDEST DUP3 MLOAD SWAP1 RETURNDATASIZE SWAP1 DUP3 RETURNDATACOPY RETURNDATASIZE SWAP1 REVERT JUMPDEST PUSH1 0xFF SWAP2 POP PUSH1 0xA8 SHR AND ISZERO PUSH2 0x3889 JUMPI DUP3 CODESIZE PUSH2 0x376A JUMP JUMPDEST DUP2 MLOAD PUSH3 0x461BCD PUSH1 0xE5 SHL DUP2 MSTORE PUSH1 0x4 DUP2 ADD DUP5 SWAP1 MSTORE PUSH1 0x12 PUSH1 0x24 DUP3 ADD MSTORE PUSH18 0x141C9BDBD9881B9BDD081D995C9A599A5959 PUSH1 0x72 SHL PUSH1 0x44 DUP3 ADD MSTORE PUSH1 0x64 SWAP1 REVERT JUMPDEST PUSH1 0x2 PUSH1 0x1 SLOAD EQ PUSH2 0x38D3 JUMPI PUSH1 0x2 PUSH1 0x1 SSTORE JUMP JUMPDEST PUSH1 0x40 MLOAD PUSH3 0x461BCD PUSH1 0xE5 SHL DUP2 MSTORE PUSH1 0x20 PUSH1 0x4 DUP3 ADD MSTORE PUSH1 0x1F PUSH1 0x24 DUP3 ADD MSTORE PUSH32 0x5265656E7472616E637947756172643A207265656E7472616E742063616C6C00 PUSH1 0x44 DUP3 ADD MSTORE PUSH1 0x64 SWAP1 REVERT JUMPDEST PUSH1 0x40 MLOAD PUSH4 0xA9059CBB PUSH1 0xE0 SHL PUSH1 0x20 DUP3 ADD MSTORE PUSH1 0x1 PUSH1 0x1 PUSH1 0xA0 SHL SUB SWAP1 SWAP3 AND PUSH1 0x24 DUP4 ADD MSTORE PUSH1 0x44 DUP1 DUP4 ADD SWAP4 SWAP1 SWAP4 MSTORE SWAP2 DUP2 MSTORE PUSH2 0x37E8 SWAP2 PUSH2 0x3951 DUP3 PUSH2 0x3213 JUMP JUMPDEST PUSH1 0x1 DUP1 PUSH1 0xA0 SHL SUB AND SWAP1 PUSH1 0x40 MLOAD PUSH1 0x40 DUP2 ADD SWAP1 DUP1 DUP3 LT PUSH8 0xFFFFFFFFFFFFFFFF DUP4 GT OR PUSH2 0x6CB JUMPI PUSH2 0x39C3 SWAP2 PUSH1 0x40 MSTORE PUSH1 0x20 SWAP4 DUP5 DUP3 MSTORE PUSH32 0x5361666545524332303A206C6F772D6C6576656C2063616C6C206661696C6564 DUP6 DUP4 ADD MSTORE PUSH1 0x0 DUP1 DUP6 DUP8 DUP3 SWAP8 MLOAD SWAP2 ADD DUP3 DUP6 GAS CALL PUSH2 0x39BD PUSH2 0x3A5D JUMP JUMPDEST SWAP2 PUSH2 0x3A9D JUMP JUMPDEST DUP1 MLOAD SWAP2 DUP3 ISZERO SWAP2 DUP5 DUP4 ISZERO PUSH2 0x3A35 JUMPI JUMPDEST POP POP POP SWAP1 POP ISZERO PUSH2 0x39DE JUMPI POP JUMP JUMPDEST PUSH1 0x84 SWAP1 PUSH1 0x40 MLOAD SWAP1 PUSH3 0x461BCD PUSH1 0xE5 SHL DUP3 MSTORE PUSH1 0x4 DUP3 ADD MSTORE PUSH1 0x2A PUSH1 0x24 DUP3 ADD MSTORE PUSH32 0x5361666545524332303A204552433230206F7065726174696F6E20646964206E PUSH1 0x44 DUP3 ADD MSTORE PUSH10 0x1BDD081CDD58D8D95959 PUSH1 0xB2 SHL PUSH1 0x64 DUP3 ADD MSTORE REVERT JUMPDEST SWAP2 SWAP4 DUP2 DUP1 SWAP5 POP ADD SUB SLT PUSH2 0x3A59 JUMPI DUP3 ADD MLOAD SWAP1 DUP2 ISZERO ISZERO DUP3 SUB PUSH2 0x3860 JUMPI POP DUP1 CODESIZE DUP1 DUP5 PUSH2 0x39D1 JUMP JUMPDEST POP DUP1 REVERT JUMPDEST RETURNDATASIZE ISZERO PUSH2 0x3A98 JUMPI RETURNDATASIZE SWAP1 PUSH8 0xFFFFFFFFFFFFFFFF DUP3 GT PUSH2 0x6CB JUMPI PUSH1 0x40 MLOAD SWAP2 PUSH2 0x3A8C PUSH1 0x1F DUP3 ADD PUSH1 0x1F NOT AND PUSH1 0x20 ADD DUP5 PUSH2 0x322F JUMP JUMPDEST DUP3 MSTORE RETURNDATASIZE PUSH1 0x0 PUSH1 0x20 DUP5 ADD RETURNDATACOPY JUMP JUMPDEST PUSH1 0x60 SWAP1 JUMP JUMPDEST SWAP2 SWAP3 SWAP1 ISZERO PUSH2 0x3AFF JUMPI POP DUP2 MLOAD ISZERO PUSH2 0x3AB1 JUMPI POP SWAP1 JUMP JUMPDEST EXTCODESIZE ISZERO PUSH2 0x3ABA JUMPI SWAP1 JUMP JUMPDEST PUSH1 0x40 MLOAD PUSH3 0x461BCD PUSH1 0xE5 SHL DUP2 MSTORE PUSH1 0x20 PUSH1 0x4 DUP3 ADD MSTORE PUSH1 0x1D PUSH1 0x24 DUP3 ADD MSTORE PUSH32 0x416464726573733A2063616C6C20746F206E6F6E2D636F6E7472616374000000 PUSH1 0x44 DUP3 ADD MSTORE PUSH1 0x64 SWAP1 REVERT JUMPDEST DUP3 MLOAD SWAP1 SWAP2 POP ISZERO PUSH2 0x3B12 JUMPI POP DUP1 MLOAD SWAP1 PUSH1 0x20 ADD REVERT JUMPDEST PUSH1 0x40 MLOAD SWAP1 PUSH3 0x461BCD PUSH1 0xE5 SHL DUP3 MSTORE DUP2 PUSH1 0x20 DUP1 PUSH1 0x4 DUP4 ADD MSTORE DUP3 MLOAD SWAP1 DUP2 PUSH1 0x24 DUP5 ADD MSTORE PUSH1 0x0 SWAP4 JUMPDEST DUP3 DUP6 LT PUSH2 0x3B58 JUMPI POP POP PUSH1 0x44 SWAP3 POP PUSH1 0x0 DUP4 DUP3 DUP5 ADD ADD MSTORE PUSH1 0x1F DUP1 NOT SWAP2 ADD AND DUP2 ADD SUB ADD SWAP1 REVERT JUMPDEST DUP5 DUP2 ADD DUP3 ADD MLOAD DUP7 DUP7 ADD PUSH1 0x44 ADD MSTORE SWAP4 DUP2 ADD SWAP4 DUP6 SWAP4 POP PUSH2 0x3B35 JUMP JUMPDEST ISZERO PUSH2 0x3B78 JUMPI JUMP JUMPDEST PUSH1 0x40 MLOAD PUSH3 0x461BCD PUSH1 0xE5 SHL DUP2 MSTORE PUSH1 0x20 PUSH1 0x4 DUP3 ADD MSTORE PUSH1 0x15 PUSH1 0x24 DUP3 ADD MSTORE PUSH21 0x496E76616C69642070617965652061646472657373 PUSH1 0x58 SHL PUSH1 0x44 DUP3 ADD MSTORE PUSH1 0x64 SWAP1 REVERT JUMPDEST ISZERO PUSH2 0x3BBC JUMPI JUMP JUMPDEST PUSH1 0x40 MLOAD PUSH3 0x461BCD PUSH1 0xE5 SHL DUP2 MSTORE PUSH1 0x20 PUSH1 0x4 DUP3 ADD MSTORE PUSH1 0x1D PUSH1 0x24 DUP3 ADD MSTORE PUSH32 0x416D6F756E74206D7573742062652067726561746572207468616E2030000000 PUSH1 0x44 DUP3 ADD MSTORE PUSH1 0x64 SWAP1 REVERT JUMPDEST SWAP1 PUSH2 0x3C0B DUP2 PUSH2 0x30D5 JUMP JUMPDEST DUP2 SLOAD PUSH1 0xFF PUSH1 0xA0 SHL NOT AND PUSH1 0xA0 SWAP2 SWAP1 SWAP2 SHL PUSH1 0xFF PUSH1 0xA0 SHL AND OR SWAP1 SSTORE JUMP JUMPDEST ISZERO PUSH2 0x3C2C JUMPI JUMP JUMPDEST PUSH1 0x40 MLOAD PUSH3 0x461BCD PUSH1 0xE5 SHL DUP2 MSTORE PUSH1 0x20 PUSH1 0x4 DUP3 ADD MSTORE PUSH1 0x13 PUSH1 0x24 DUP3 ADD MSTORE PUSH19 0x115512081D1C985B9CD9995C8819985A5B1959 PUSH1 0x6A SHL PUSH1 0x44 DUP3 ADD MSTORE PUSH1 0x64 SWAP1 REVERT JUMPDEST SWAP2 SWAP1 DUP3 SUB SWAP2 DUP3 GT PUSH2 0xF9D JUMPI JUMP JUMPDEST PUSH1 0x0 SWAP1 DUP1 DUP3 MSTORE PUSH1 0x20 PUSH1 0x9 DUP2 MSTORE PUSH1 0x40 SWAP4 DUP5 DUP5 KECCAK256 SWAP5 PUSH1 0x1 DUP1 PUSH1 0xA0 SHL SUB SWAP5 DUP6 DUP8 SLOAD AND SWAP1 DUP2 ISZERO DUP1 ISZERO SWAP1 PUSH2 0x3FE4 JUMPI PUSH2 0x3CAE PUSH1 0xFF PUSH1 0xA DUP12 ADD SLOAD AND ISZERO PUSH2 0x3450 JUMP JUMPDEST PUSH1 0x9 DUP10 ADD SLOAD DUP1 PUSH2 0x3F94 JUMPI JUMPDEST POP PUSH1 0x2 SWAP3 DUP4 SLOAD SWAP7 DUP10 PUSH1 0x8 SWAP9 DUP10 SHR AND SWAP1 DUP7 MLOAD PUSH4 0x70A08231 PUSH1 0xE0 SHL DUP2 MSTORE ADDRESS PUSH1 0x4 DUP3 ADD MSTORE DUP2 DUP2 PUSH1 0x24 DUP2 DUP7 GAS STATICCALL SWAP1 DUP2 ISZERO PUSH2 0x3F8A JUMPI SWAP1 DUP10 SWAP2 DUP8 SWAP2 PUSH2 0x3F55 JUMPI JUMPDEST POP LT PUSH2 0x3F12 JUMPI POP SWAP2 DUP4 SWAP2 PUSH2 0x3DCB SWAP6 SWAP4 PUSH32 0xB47BA55CBB72A0E3B06F3CB944F334DB1AA0A610CE470C96AEB042E458EAD4C5 SWAP10 SWAP9 SWAP8 SWAP6 SWAP3 DUP1 PUSH2 0x3F05 JUMPI JUMPDEST PUSH2 0x3EEA JUMPI JUMPDEST POP POP PUSH1 0x3 DUP12 ADD SWAP3 DUP4 SLOAD DUP13 DUP13 DUP11 DUP4 ISZERO ISZERO DUP1 PUSH2 0x3EDC JUMPI JUMPDEST PUSH2 0x3EAD JUMPI JUMPDEST POP POP PUSH1 0x5 SWAP2 POP ADD SWAP3 DUP12 DUP14 DUP6 SLOAD SWAP3 DUP12 DUP5 PUSH2 0x3E4B JUMPI JUMPDEST POP POP PUSH1 0x6 SWAP2 SWAP3 POP ADD SWAP9 DUP14 DUP11 SLOAD DUP1 PUSH2 0x3E20 JUMPI JUMPDEST POP PUSH1 0x7 ADD DUP1 SLOAD DUP1 PUSH2 0x3DF6 JUMPI JUMPDEST POP POP DUP4 DUP10 GT PUSH2 0x3DD0 JUMPI JUMPDEST POP POP POP POP PUSH1 0x1 PUSH1 0xB DUP12 ADD SLOAD SWAP10 DUP12 SLOAD AND SWAP11 ADD SLOAD SWAP6 SLOAD SWAP1 SLOAD SWAP2 SLOAD SWAP3 MLOAD SWAP6 DUP7 SWAP6 DUP7 SWAP2 SWAP3 PUSH1 0x80 SWAP4 SWAP7 SWAP6 SWAP5 SWAP2 SWAP7 PUSH1 0xA0 DUP5 ADD SWAP8 DUP5 MSTORE PUSH1 0x20 DUP5 ADD MSTORE PUSH1 0x40 DUP4 ADD MSTORE PUSH1 0x60 DUP3 ADD MSTORE ADD MSTORE JUMP JUMPDEST SUB SWAP1 LOG4 JUMP JUMPDEST PUSH2 0x3DDD PUSH2 0x3DED SWAP5 DUP11 PUSH2 0x3C67 JUMP JUMPDEST SWAP3 SLOAD SWAP1 SHR AND DUP12 PUSH1 0x3 SLOAD AND SWAP1 PUSH2 0x3918 JUMP JUMPDEST CODESIZE DUP1 DUP11 DUP2 PUSH2 0x3D89 JUMP JUMPDEST SWAP1 PUSH2 0x3E11 PUSH2 0x3E18 SWAP4 SWAP7 SWAP3 DUP6 DUP8 SLOAD DUP10 SHR AND DUP7 PUSH1 0x3 SLOAD AND SWAP1 PUSH2 0x3918 JUMP JUMPDEST SLOAD SWAP1 PUSH2 0x3443 JUMP JUMPDEST SWAP3 CODESIZE DUP1 PUSH2 0x3D7F JUMP JUMPDEST PUSH1 0x7 SWAP2 SWAP6 PUSH2 0x3E3C PUSH2 0x3E44 SWAP3 DUP7 DUP9 SLOAD DUP8 SHR AND DUP8 PUSH1 0x3 SLOAD AND SWAP1 PUSH2 0x3918 JUMP JUMPDEST DUP13 SLOAD SWAP1 PUSH2 0x3443 JUMP JUMPDEST SWAP5 SWAP1 PUSH2 0x3D73 JUMP JUMPDEST SWAP2 PUSH2 0x3E82 SWAP4 SWAP2 PUSH1 0xFF PUSH2 0x3E8A SWAP8 SWAP9 SWAP7 SWAP5 DUP4 ADD SLOAD AND SWAP1 POP PUSH1 0x0 EQ PUSH2 0x3EA1 JUMPI PUSH1 0x4 ADD SLOAD DUP2 AND SWAP1 JUMPDEST DUP1 DUP3 AND ISZERO PUSH2 0x3E95 JUMPI JUMPDEST DUP7 SLOAD DUP14 SHR AND PUSH2 0x3918 JUMP JUMPDEST DUP4 SLOAD SWAP1 PUSH2 0x3443 JUMP JUMPDEST SWAP1 CODESIZE DUP12 DUP14 DUP3 DUP12 PUSH2 0x3D61 JUMP JUMPDEST PUSH1 0x3 SLOAD DUP2 AND SWAP2 POP PUSH2 0x3E78 JUMP JUMPDEST POP DUP1 PUSH1 0x4 SLOAD AND SWAP1 PUSH2 0x3E6F JUMP JUMPDEST SWAP2 DUP2 DUP6 DUP1 SWAP8 SWAP6 SWAP4 PUSH2 0x3ECA SWAP6 PUSH2 0x3ED2 SWAP9 SLOAD SWAP1 SHR AND SWAP3 ADD SLOAD AND SWAP1 PUSH2 0x3918 JUMP JUMPDEST DUP5 SLOAD SWAP1 PUSH2 0x3443 JUMP JUMPDEST SWAP1 CODESIZE DUP13 DUP13 DUP11 PUSH2 0x3D4D JUMP JUMPDEST POP DUP2 DUP6 DUP5 ADD SLOAD AND ISZERO ISZERO PUSH2 0x3D48 JUMP JUMPDEST PUSH2 0x3EFD SWAP2 SWAP3 POP PUSH1 0x1 DUP14 ADD SWAP3 DUP4 SLOAD SWAP2 PUSH2 0x3918 JUMP JUMPDEST SLOAD CODESIZE DUP1 PUSH2 0x3D33 JUMP JUMPDEST POP PUSH1 0x1 DUP14 ADD SLOAD ISZERO ISZERO PUSH2 0x3D2E JUMP JUMPDEST PUSH1 0x64 SWAP1 DUP8 MLOAD SWAP1 PUSH3 0x461BCD PUSH1 0xE5 SHL DUP3 MSTORE PUSH1 0x4 DUP3 ADD MSTORE PUSH1 0x19 PUSH1 0x24 DUP3 ADD MSTORE PUSH32 0x496E73756666696369656E7420555344432062616C616E636500000000000000 PUSH1 0x44 DUP3 ADD MSTORE REVERT JUMPDEST DUP1 SWAP3 POP DUP4 DUP1 SWAP3 POP RETURNDATASIZE DUP4 GT PUSH2 0x3F83 JUMPI JUMPDEST PUSH2 0x3F6E DUP2 DUP4 PUSH2 0x322F JUMP JUMPDEST DUP2 ADD SUB SLT PUSH2 0x3F7F JUMPI DUP9 SWAP1 MLOAD CODESIZE PUSH2 0x3CF3 JUMP JUMPDEST DUP6 DUP1 REVERT JUMPDEST POP RETURNDATASIZE PUSH2 0x3F64 JUMP JUMPDEST DUP9 MLOAD RETURNDATASIZE DUP9 DUP3 RETURNDATACOPY RETURNDATASIZE SWAP1 REVERT JUMPDEST TIMESTAMP LT PUSH2 0x3FA0 JUMPI CODESIZE PUSH2 0x3CB9 JUMP JUMPDEST DUP4 MLOAD PUSH3 0x461BCD PUSH1 0xE5 SHL DUP2 MSTORE PUSH1 0x4 DUP2 ADD DUP8 SWAP1 MSTORE PUSH1 0x1B PUSH1 0x24 DUP3 ADD MSTORE PUSH32 0x536574746C656D656E742074696D65206E6F7420726561636865640000000000 PUSH1 0x44 DUP3 ADD MSTORE PUSH1 0x64 SWAP1 REVERT JUMPDEST DUP4 MLOAD PUSH3 0x461BCD PUSH1 0xE5 SHL DUP2 MSTORE PUSH1 0x4 DUP2 ADD DUP8 SWAP1 MSTORE PUSH1 0x16 PUSH1 0x24 DUP3 ADD MSTORE PUSH22 0x13DC99195C8818DBDB999A59C81B9BDD08199BDD5B99 PUSH1 0x52 SHL PUSH1 0x44 DUP3 ADD MSTORE PUSH1 0x64 SWAP1 REVERT JUMPDEST PUSH1 0xFF PUSH1 0x2 SLOAD AND PUSH2 0x402D JUMPI JUMP JUMPDEST PUSH1 0x40 MLOAD PUSH3 0x461BCD PUSH1 0xE5 SHL DUP2 MSTORE PUSH1 0x20 PUSH1 0x4 DUP3 ADD MSTORE PUSH1 0x10 PUSH1 0x24 DUP3 ADD MSTORE PUSH16 0x14185D5CD8589B194E881C185D5CD959 PUSH1 0x82 SHL PUSH1 0x44 DUP3 ADD MSTORE PUSH1 0x64 SWAP1 REVERT JUMPDEST PUSH1 0x40 MLOAD PUSH4 0x23B872DD PUSH1 0xE0 SHL PUSH1 0x20 DUP3 ADD MSTORE PUSH1 0x1 PUSH1 0x1 PUSH1 0xA0 SHL SUB SWAP3 DUP4 AND PUSH1 0x24 DUP3 ADD MSTORE SWAP3 SWAP1 SWAP2 AND PUSH1 0x44 DUP4 ADD MSTORE PUSH1 0x64 DUP1 DUP4 ADD SWAP4 SWAP1 SWAP4 MSTORE SWAP2 DUP2 MSTORE PUSH2 0x37E8 SWAP2 PUSH2 0x3951 DUP3 PUSH2 0x31F7 JUMP JUMPDEST ISZERO PUSH2 0x40AE JUMPI JUMP JUMPDEST PUSH1 0x40 MLOAD PUSH3 0x461BCD PUSH1 0xE5 SHL DUP2 MSTORE PUSH1 0x20 PUSH1 0x4 DUP3 ADD MSTORE PUSH1 0xB PUSH1 0x24 DUP3 ADD MSTORE PUSH11 0x2737BA103932B630BCB2B9 PUSH1 0xA9 SHL PUSH1 0x44 DUP3 ADD MSTORE PUSH1 0x64 SWAP1 REVERT JUMPDEST SWAP1 PUSH2 0x1B58 SWAP2 DUP3 DUP2 MUL SWAP3 DUP2 DUP5 DIV EQ SWAP1 ISZERO OR ISZERO PUSH2 0xF9D JUMPI JUMP JUMPDEST DUP2 DUP2 MUL SWAP3 SWAP2 DUP2 ISZERO SWAP2 DUP5 DIV EQ OR ISZERO PUSH2 0xF9D JUMPI JUMP JUMPDEST ISZERO PUSH2 0x4112 JUMPI JUMP JUMPDEST PUSH1 0x40 MLOAD PUSH3 0x461BCD PUSH1 0xE5 SHL DUP2 MSTORE PUSH1 0x20 PUSH1 0x4 DUP3 ADD MSTORE PUSH1 0x10 PUSH1 0x24 DUP3 ADD MSTORE PUSH16 0x10DBDB999A59C81B9BDD08199BDD5B99 PUSH1 0x82 SHL PUSH1 0x44 DUP3 ADD MSTORE PUSH1 0x64 SWAP1 REVERT JUMPDEST ISZERO PUSH2 0x4151 JUMPI JUMP JUMPDEST PUSH1 0x40 MLOAD PUSH3 0x461BCD PUSH1 0xE5 SHL DUP2 MSTORE PUSH1 0x20 PUSH1 0x4 DUP3 ADD MSTORE PUSH1 0x11 PUSH1 0x24 DUP3 ADD MSTORE PUSH17 0x125B9D985B1A59081C9958DA5C1A595B9D PUSH1 0x7A SHL PUSH1 0x44 DUP3 ADD MSTORE PUSH1 0x64 SWAP1 REVERT JUMPDEST ISZERO PUSH2 0x4191 JUMPI JUMP JUMPDEST PUSH1 0x40 MLOAD PUSH3 0x461BCD PUSH1 0xE5 SHL DUP2 MSTORE PUSH1 0x20 PUSH1 0x4 DUP3 ADD MSTORE PUSH1 0x12 PUSH1 0x24 DUP3 ADD MSTORE PUSH18 0x141C9BDBD9881B9BDD081C995C5D5A5C9959 PUSH1 0x72 SHL PUSH1 0x44 DUP3 ADD MSTORE PUSH1 0x64 SWAP1 REVERT JUMPDEST ISZERO PUSH2 0x41D2 JUMPI JUMP JUMPDEST PUSH1 0x40 MLOAD PUSH3 0x461BCD PUSH1 0xE5 SHL DUP2 MSTORE PUSH1 0x20 PUSH1 0x4 DUP3 ADD MSTORE PUSH1 0x10 PUSH1 0x24 DUP3 ADD MSTORE PUSH16 0x105B1C9958591E481D995C9A599A5959 PUSH1 0x82 SHL PUSH1 0x44 DUP3 ADD MSTORE PUSH1 0x64 SWAP1 REVERT INVALID SWAP3 0xDE 0xFC PUSH9 0x1899E982C1113166CA SUB EXTCODECOPY 0x2E BASEFEE NOT JUMPI DUP5 0xA6 0xB8 SMOD NUMBER SWAP6 0xD5 PC 0xC2 LOG3 0xCB PUSH4 0x16A26469 PUSH17 0x667358221220385500FC4C90241A053F03 SLOAD SMOD 0xAF PUSH18 0xBD2AA49AA322AAAB18471B0EDFA6E4B8ED64 PUSH20 0x6F6C634300081400330000000000000000000000 "},"methodIdentifiers":{"BASIS_POINTS()":"e1f1c4a7","EXECUTOR_SHARE()":"08b629c1","PROMOTER_SHARE_OF_PLATFORM()":"0dbb1d41","REFERRER_SHARE()":"49eabc67","authorizedProviders(address)":"69dc3ae2","autoPaySplit(bytes32,uint256,address)":"d38bd5d6","calculateV5Split(uint256,uint8,bool,bool,bool)":"c44c9139","commissions(bytes32)":"6429b9d6","configureSettlementToken(address,address,address)":"559fb877","createSettlement(address,uint8,address)":"e0f6c03a","distributeCommission(bytes32)":"1eb378f2","emergencyWithdrawETH(address,uint256)":"d79e8567","emergencyWithdrawToken(address,address,uint256)":"277327a5","executeSettlement(bytes32)":"0bda191e","getContractBalance()":"6f9fb98a","getPendingBalance(address,address)":"5aca41f6","getProofStatus(bytes32)":"3cced748","getSplitConfig(bytes32)":"6cfe6afe","initializeV5Rates()":"a7f4ad39","layerPlatformFees(uint8)":"8c526020","layerPoolRates(uint8)":"a09ae5c8","orderSplitConfigs(bytes32)":"9e922172","orders(bytes32)":"9c3f1e90","owner()":"8da5cb5b","pause()":"8456cb59","paused()":"5c975abb","paymindTreasury()":"b967024a","pendingBalances(address,address)":"d3571a02","providerFiatToCryptoSplit(bytes32,uint256)":"d443895f","quickPaySplit(bytes32,uint256)":"14e1327b","quickPaySplitFrom(bytes32,uint256,address)":"4a9d3e6a","recordCommission(address,uint8,uint8,uint256,address,uint256,uint256,bytes32)":"f13177d5","recordCommissionLegacy(address,uint8,uint256,address)":"0431611a","relayers(address)":"5300f841","renounceOwnership()":"715018a6","scannedFeeRates(uint8)":"91d159c4","scannedProductSplit(bytes32,uint256,uint8,address)":"3a156950","setAuthorizedProvider(address,bool)":"27837eaf","setDisputeStatus(bytes32,bool)":"cc30589d","setLayerRates(uint8,uint16,uint16)":"491abc2b","setOrderDispute(bytes32,bool)":"a6091794","setProofRequirement(bytes32,bytes32,address)":"a4c71180","setRelayer(address,bool)":"ecd8dc3a","setScannedFeeRate(uint8,uint16)":"a70817a5","setSplitConfig(bytes32,(address,uint256,address,uint256,address,uint256,uint256,uint256,bool,uint256,bool,bytes32,bytes32,address,bool,bool))":"53303cff","setTrustedAuditor(address,bool)":"d4f0ba14","setX402ChannelFeeRate(uint16)":"e6904842","settlementToken()":"7b9e618d","settlements(bytes32)":"01bc95e2","submitProof(bytes32,bytes32)":"968e72bd","submittedProofs(bytes32)":"05c4678e","syncOrder(bytes32,address,address,address,uint256,uint256,uint256,uint256,uint256,bool,bool,uint8)":"175c2f5e","systemRebatePool()":"21be11a9","transferOwnership(address)":"f2fde38b","trustedAuditors(address)":"0bc963a6","unpause()":"3f4ba83a","updateSystemRebatePool(address)":"aa074a49","verifyProof(bytes32,bool,uint256)":"8bf6aa45","walletSplit(bytes32,uint256)":"39caec3e","x402ChannelFeeRate()":"0e4cbc77"}}}}}