{"contracts/ERC8004SessionManager.sol":{"ERC8004SessionManager":{"abi":[{"inputs":[{"internalType":"address","name":"_usdcToken","type":"address"}],"stateMutability":"nonpayable","type":"constructor"},{"anonymous":false,"inputs":[{"indexed":true,"internalType":"bytes32","name":"sessionId","type":"bytes32"},{"indexed":false,"internalType":"uint256","name":"newDate","type":"uint256"}],"name":"DailyLimitReset","type":"event"},{"anonymous":false,"inputs":[{"indexed":true,"internalType":"address","name":"previousOwner","type":"address"},{"indexed":true,"internalType":"address","name":"newOwner","type":"address"}],"name":"OwnershipTransferred","type":"event"},{"anonymous":false,"inputs":[{"indexed":true,"internalType":"bytes32","name":"sessionId","type":"bytes32"},{"indexed":true,"internalType":"address","name":"to","type":"address"},{"indexed":false,"internalType":"uint256","name":"amount","type":"uint256"},{"indexed":true,"internalType":"bytes32","name":"paymentId","type":"bytes32"}],"name":"PaymentExecuted","type":"event"},{"anonymous":false,"inputs":[{"indexed":true,"internalType":"bytes32","name":"sessionId","type":"bytes32"},{"indexed":true,"internalType":"address","name":"owner","type":"address"},{"indexed":true,"internalType":"address","name":"signer","type":"address"},{"indexed":false,"internalType":"uint256","name":"singleLimit","type":"uint256"},{"indexed":false,"internalType":"uint256","name":"dailyLimit","type":"uint256"},{"indexed":false,"internalType":"uint256","name":"expiry","type":"uint256"}],"name":"SessionCreated","type":"event"},{"anonymous":false,"inputs":[{"indexed":true,"internalType":"bytes32","name":"sessionId","type":"bytes32"},{"indexed":true,"internalType":"address","name":"owner","type":"address"}],"name":"SessionRevoked","type":"event"},{"inputs":[{"internalType":"address","name":"signer","type":"address"},{"internalType":"uint256","name":"singleLimit","type":"uint256"},{"internalType":"uint256","name":"dailyLimit","type":"uint256"},{"internalType":"uint256","name":"expiry","type":"uint256"}],"name":"createSession","outputs":[{"internalType":"bytes32","name":"sessionId","type":"bytes32"}],"stateMutability":"nonpayable","type":"function"},{"inputs":[{"internalType":"bytes32[]","name":"sessionIds","type":"bytes32[]"},{"internalType":"address[]","name":"recipients","type":"address[]"},{"internalType":"uint256[]","name":"amounts","type":"uint256[]"},{"internalType":"bytes32[]","name":"paymentIds","type":"bytes32[]"},{"internalType":"bytes[]","name":"signatures","type":"bytes[]"}],"name":"executeBatchWithSession","outputs":[],"stateMutability":"nonpayable","type":"function"},{"inputs":[{"internalType":"bytes32","name":"sessionId","type":"bytes32"},{"internalType":"address","name":"to","type":"address"},{"internalType":"uint256","name":"amount","type":"uint256"},{"internalType":"bytes32","name":"paymentId","type":"bytes32"},{"internalType":"bytes","name":"signature","type":"bytes"}],"name":"executeWithSession","outputs":[],"stateMutability":"nonpayable","type":"function"},{"inputs":[{"internalType":"bytes32","name":"sessionId","type":"bytes32"}],"name":"getSession","outputs":[{"components":[{"internalType":"address","name":"signer","type":"address"},{"internalType":"address","name":"owner","type":"address"},{"internalType":"uint256","name":"singleLimit","type":"uint256"},{"internalType":"uint256","name":"dailyLimit","type":"uint256"},{"internalType":"uint256","name":"usedToday","type":"uint256"},{"internalType":"uint256","name":"expiry","type":"uint256"},{"internalType":"uint256","name":"lastResetDate","type":"uint256"},{"internalType":"bool","name":"isActive","type":"bool"}],"internalType":"struct ERC8004SessionManager.Session","name":"","type":"tuple"}],"stateMutability":"view","type":"function"},{"inputs":[{"internalType":"address","name":"user","type":"address"}],"name":"getUserSessions","outputs":[{"internalType":"bytes32[]","name":"","type":"bytes32[]"}],"stateMutability":"view","type":"function"},{"inputs":[{"internalType":"address","name":"user","type":"address"}],"name":"getUserTokenAllowance","outputs":[{"internalType":"uint256","name":"allowance","type":"uint256"},{"internalType":"address","name":"tokenAddress","type":"address"},{"internalType":"bool","name":"isAuthorized","type":"bool"}],"stateMutability":"view","type":"function"},{"inputs":[],"name":"owner","outputs":[{"internalType":"address","name":"","type":"address"}],"stateMutability":"view","type":"function"},{"inputs":[],"name":"relayer","outputs":[{"internalType":"address","name":"","type":"address"}],"stateMutability":"view","type":"function"},{"inputs":[],"name":"renounceOwnership","outputs":[],"stateMutability":"nonpayable","type":"function"},{"inputs":[{"internalType":"bytes32","name":"sessionId","type":"bytes32"}],"name":"revokeSession","outputs":[],"stateMutability":"nonpayable","type":"function"},{"inputs":[{"internalType":"bytes32","name":"","type":"bytes32"}],"name":"sessions","outputs":[{"internalType":"address","name":"signer","type":"address"},{"internalType":"address","name":"owner","type":"address"},{"internalType":"uint256","name":"singleLimit","type":"uint256"},{"internalType":"uint256","name":"dailyLimit","type":"uint256"},{"internalType":"uint256","name":"usedToday","type":"uint256"},{"internalType":"uint256","name":"expiry","type":"uint256"},{"internalType":"uint256","name":"lastResetDate","type":"uint256"},{"internalType":"bool","name":"isActive","type":"bool"}],"stateMutability":"view","type":"function"},{"inputs":[{"internalType":"address","name":"_relayer","type":"address"}],"name":"setRelayer","outputs":[],"stateMutability":"nonpayable","type":"function"},{"inputs":[{"internalType":"address","name":"newOwner","type":"address"}],"name":"transferOwnership","outputs":[],"stateMutability":"nonpayable","type":"function"},{"inputs":[],"name":"usdcToken","outputs":[{"internalType":"address","name":"","type":"address"}],"stateMutability":"view","type":"function"},{"inputs":[{"internalType":"address","name":"","type":"address"},{"internalType":"uint256","name":"","type":"uint256"}],"name":"userSessions","outputs":[{"internalType":"bytes32","name":"","type":"bytes32"}],"stateMutability":"view","type":"function"}],"evm":{"bytecode":{"linkReferences":{},"object":"6080346100f757601f611b7138819003918201601f19168301916001600160401b038311848410176100fc578084926020946040528339810103126100f757516001600160a01b03808216918290036100f7576000549060018060a01b0319913383821617600055604051913391167f8be0079c531659141344cd1fd0a4f28419497f9722a3daafe3b4186f6b6457e0600080a36001805582156100b557506004541617600455604051611a5e90816101138239f35b62461bcd60e51b815260206004820152601460248201527f496e76616c6964205553444320616464726573730000000000000000000000006044820152606490fd5b600080fd5b634e487b7160e01b600052604160045260246000fdfe6080604052600436101561001257600080fd5b60003560e01c806311eac8551461010757806314f8192414610102578063223715dd146100fd57806339b240bd146100f857806345ba64f4146100f35780636548e9bc146100ee5780636d597d13146100e9578063715018a6146100e45780637dbd2832146100df5780637f93faa3146100da5780638406c079146100d55780638da5cb5b146100d057806391170e47146100cb578063a7fed385146100c65763f2fde38b146100c157600080fd5b610a3a565b61097b565b61090e565b6108e5565b6108bc565b6107ef565b610759565b6106fb565b61069e565b6105e3565b610540565b6103da565b610354565b610146565b34610130576000366003190112610130576004546040516001600160a01b039091168152602090f35b600080fd5b6001600160a01b0381160361013057565b34610130576080366003190112610130576103156102d360043561016981610135565b6001600160a01b03811690602435907f172d7ccba1f3184e217ab083748b845fd9db3cbe7fd8da1b1c94ae2837379a186064356044356101aa861515610b59565b6101b5851515610b96565b6101c185821015610bd9565b6101cc428311610c24565b6101d543610c77565b60405133606090811b6bffffffffffffffffffffffff19908116602084019081529188901b1660348301524260488301524360688301529140608880830191909152815261022460a882610cfb565b51902096879461026961026361025760016102498a6000526002602052604060002090565b01546001600160a01b031690565b6001600160a01b031690565b15610d1d565b610283610274610d80565b6001600160a01b039092168252565b336020820152866040820152826060820152600060808201528360a082015262015180420460c08201526102ba60e0820160019052565b6102ce866000526002602052604060002090565b610d8f565b3360009081526003602052604090206102ed908590610e16565b6040805195865260208601919091528401523392606090a46040519081529081906020820190565b0390f35b6020908160408183019282815285518094520193019160005b828110610340575050505090565b835185529381019392810192600101610332565b34610130576020806003193601126101305760043561037281610135565b6001600160a01b03166000908152600382526040808220905181548082529183528383208185019491939092915b8282106103c357610315856103b781890382610cfb565b60405191829182610319565b8354865294850194600193840193909101906103a0565b3461013057602036600319011261013057610315604060e081516103fd81610ca1565b600091818380935282602082015282858201528260608201528260808201528260a08201528260c0820152015260043581526002602052206104a96104a06007610445610d80565b84546001600160a01b031681529360018101546001600160a01b03166020860152600281015460408601526003810154606086015260048101546080860152600581015460a0860152600681015460c0860152015460ff1690565b151560e0830152565b6040519182918291909160e08061010083019460018060a01b03808251168552602082015116602085015260408101516040850152606081015160608501526080810151608085015260a081015160a085015260c081015160c085015201511515910152565b9181601f840112156101305782359167ffffffffffffffff8311610130576020808501948460051b01011161013057565b346101305760a036600319011261013057600467ffffffffffffffff813581811161013057610572903690840161050f565b916024358181116101305761058a903690860161050f565b604492919235828111610130576105a4903690880161050f565b91606435848111610130576105bc9036908a0161050f565b959094608435908111610130576105e1996105d99136910161050f565b989097611694565b005b346101305760203660031901126101305760043561060081610135565b610608610b01565b6001600160a01b03168015610634576bffffffffffffffffffffffff60a01b6005541617600555600080f35b60405162461bcd60e51b815260206004820152600f60248201526e24b73b30b634b2103932b630bcb2b960891b6044820152606490fd5b634e487b7160e01b600052603260045260246000fd5b80548210156106995760005260206000200190600090565b61066b565b34610130576040366003190112610130576004356106bb81610135565b6001600160a01b0316600090815260036020526040902080546024359190821015610130576020916106ec91610681565b90549060031b1c604051908152f35b346101305760008060031936011261075657610715610b01565b80546001600160a01b03198116825581906001600160a01b03167f8be0079c531659141344cd1fd0a4f28419497f9722a3daafe3b4186f6b6457e08280a380f35b80fd5b34610130576020366003190112610130576004803560009081526002602081815260409283902080546001820154938201546003830154968301546005840154600685015460079095015488516001600160a01b0395861681529490971695840195909552958201526060810195909552608085019390935260a084015260c083019190915260ff16151560e082015261010090f35b346101305760203660031901126101305761084b60043561080f81610135565b60048054604051636eb1769f60e11b81526001600160a01b03938416928101929092523060248301529092911690602090839081906044820190565b0381845afa9182156108b757600092610887575b50604080518381526001600160a01b0392909216602083015291151591810191909152606090f35b6108a991925060203d81116108b0575b6108a18183610cfb565b81019061191c565b903861085f565b503d610897565b61115e565b34610130576000366003190112610130576005546040516001600160a01b039091168152602090f35b34610130576000366003190112610130576000546040516001600160a01b039091168152602090f35b346101305760a03660031901126101305760243561092b81610135565b6084359067ffffffffffffffff9081831161013057366023840112156101305782600401359182116101305736602483850101116101305760246105e19301906064359060443590600435610e9c565b3461013057602036600319011261013057600435600081815260026020526040812060018101549192916001600160a01b03163303610a015760076109d891016109ce6109c9825460ff1690565b6118d0565b805460ff19169055565b33907f53c7d74d36edc91dbf6b53bb0ea80bbdb2ca5894d54f6f62beacc537701822fd8380a380f35b60405162461bcd60e51b81526020600482015260116024820152702737ba1039b2b9b9b4b7b71037bbb732b960791b6044820152606490fd5b3461013057602036600319011261013057600435610a5781610135565b610a5f610b01565b6001600160a01b039081168015610aad57600080546001600160a01b03198116831782559092167f8be0079c531659141344cd1fd0a4f28419497f9722a3daafe3b4186f6b6457e08380a380f35b60405162461bcd60e51b815260206004820152602660248201527f4f776e61626c653a206e6577206f776e657220697320746865207a65726f206160448201526564647265737360d01b6064820152608490fd5b6000546001600160a01b03163303610b1557565b606460405162461bcd60e51b815260206004820152602060248201527f4f776e61626c653a2063616c6c6572206973206e6f7420746865206f776e65726044820152fd5b15610b6057565b60405162461bcd60e51b815260206004820152600e60248201526d24b73b30b634b21039b4b3b732b960911b6044820152606490fd5b15610b9d57565b60405162461bcd60e51b8152602060048201526014602482015273125b9d985b1a59081cda5b99db19481b1a5b5a5d60621b6044820152606490fd5b15610be057565b606460405162461bcd60e51b815260206004820152602060248201527f4461696c79206c696d6974206d757374203e3d2073696e676c65206c696d69746044820152fd5b15610c2b57565b60405162461bcd60e51b815260206004820152600e60248201526d496e76616c69642065787069727960901b6044820152606490fd5b634e487b7160e01b600052601160045260246000fd5b600019810191908211610c8657565b610c61565b634e487b7160e01b600052604160045260246000fd5b610100810190811067ffffffffffffffff821117610cbe57604052565b610c8b565b60a0810190811067ffffffffffffffff821117610cbe57604052565b6040810190811067ffffffffffffffff821117610cbe57604052565b90601f8019910116810190811067ffffffffffffffff821117610cbe57604052565b15610d2457565b60405162461bcd60e51b815260206004820152601460248201527329b2b9b9b4b7b71024a21031b7b63634b9b4b7b760611b6044820152606490fd5b8115610d6a570490565b634e487b7160e01b600052601260045260246000fd5b60405190610d8d82610ca1565b565b815181546001600160a01b039182166001600160a01b0319918216178355602084015160018401805491909316911617905560408201516002820155606082015160038201556080820151600482015560a0820151600582015560c0820151600682015560e090910151610d8d9190600790151591019060ff801983541691151516179055565b805468010000000000000000811015610cbe57610e3891600182018155610681565b819291549060031b91821b91600019901b1916179055565b15610e5757565b60405162461bcd60e51b815260206004820152601860248201527f4f6e6c792072656c617965722063616e206578656375746500000000000000006044820152606490fd5b90610f059594939291610ef8600560018060a01b03610ebf818354163314610e50565b836000526002602052610ede6040600020916001830154161515610f0b565b610eee60ff600783015416610f4b565b0154421115610f8c565b610f00610fca565b6111b2565b60018055565b15610f1257565b60405162461bcd60e51b815260206004820152601160248201527014d95cdcda5bdb881b9bdd08199bdd5b99607a1b6044820152606490fd5b15610f5257565b60405162461bcd60e51b815260206004820152601260248201527153657373696f6e206e6f742061637469766560701b6044820152606490fd5b15610f9357565b60405162461bcd60e51b815260206004820152600f60248201526e14d95cdcda5bdb88195e1c1a5c9959608a1b6044820152606490fd5b600260015414610fdb576002600155565b60405162461bcd60e51b815260206004820152601f60248201527f5265656e7472616e637947756172643a207265656e7472616e742063616c6c006044820152606490fd5b1561102757565b60405162461bcd60e51b8152602060048201526014602482015273115e18d959591cc81cda5b99db19481b1a5b5a5d60621b6044820152606490fd5b91908201809211610c8657565b1561107757565b60405162461bcd60e51b8152602060048201526013602482015272115e18d959591cc819185a5b1e481b1a5b5a5d606a1b6044820152606490fd5b67ffffffffffffffff8111610cbe57601f01601f191660200190565b9291926110da826110b2565b916110e86040519384610cfb565b829481845281830111610130578281602093846000960137010152565b1561110c57565b60405162461bcd60e51b8152602060048201526011602482015270496e76616c6964207369676e617475726560781b6044820152606490fd5b90816020910312610130575160ff811681036101305790565b6040513d6000823e3d90fd5b60ff166006039060ff8211610c8657565b60ff6005199116019060ff8211610c8657565b60ff16604d8111610c8657600a0a90565b81810292918115918404141715610c8657565b92949193906111cb846000526002602052604060002090565b92846201518042046006860180548211611415575b50505060028401548611156111f490611020565b60048401908154936112068886611063565b6003870154101561121690611070565b60408051602081018981526bffffffffffffffffffffffff19606088901b1692820192909252605481018a9052607481018b9052466094808301919091528152601f19919061126660b482610cfb565b51902090604051908160208101936112a89085603c917f19457468657265756d205369676e6564204d6573736167653a0a3332000000008252601c8201520190565b0390810182526112b89082610cfb565b5190209136906112c7926110ce565b6112d09161193d565b84546001600160a01b03949188916112ed91871690871614611105565b6112f691611063565b90556004546001600160a01b03166001600160a01b03169260405163313ce56760e01b815280808587165a92600491602094fa9081156108b7577f756ad05355eaee75b04e423ae52915105c02d4a3fc70eaddf2d437bbe24a0fd2956113869385926000946113e5575b50899360ff811660068103611394575b5050600101546001600160a01b03165b90611453565b6040519485521692602090a4565b611380929550906006600192116000146113ca576113bc6113b76113c29261117b565b61118e565b8c61119f565b945b91611370565b6113d96113b76113df9261116a565b8c610d60565b946113c4565b61140791945060203d811161140e575b6113ff8183610cfb565b810190611145565b9238611360565b503d6113f5565b600060048801558190556040519081527fc4a881808fe11209c7fd9fa8f3bb044229bd1de8bb80de1f0475be1c2d0d14bb90602090a28438806111e0565b61150791600080610d8d969560405194602097888701956323b872dd60e01b875260018060a01b03938480921660248a015216604488015260648701526064865261149d86610cc3565b1692604051946114ac86610cdf565b8786527f5361666545524332303a206c6f772d6c6576656c2063616c6c206661696c656488870152519082855af13d15611534573d916114eb836110b2565b926114f96040519485610cfb565b83523d60008785013e6115ff565b805191821592831561151c575b505050611554565b61152c935082018101910161153c565b388080611514565b6060916115ff565b90816020910312610130575180151581036101305790565b1561155b57565b60405162461bcd60e51b815260206004820152602a60248201527f5361666545524332303a204552433230206f7065726174696f6e20646964206e6044820152691bdd081cdd58d8d9595960b21b6064820152608490fd5b156115ba57565b60405162461bcd60e51b815260206004820152601d60248201527f416464726573733a2063616c6c20746f206e6f6e2d636f6e74726163740000006044820152606490fd5b919290156116225750815115611613575090565b61161f903b15156115b3565b90565b8251909150156116355750805190602001fd5b6040519062461bcd60e51b82528160208060048301528251908160248401526000935b82851061167b575050604492506000838284010152601f80199101168101030190fd5b8481018201518686016044015293810193859350611658565b9894969793919095926005966116b460018060a01b038954163314610e50565b6116bc610fca565b818114806117d7575b806117ce575b806117c5575b6116da906117e0565b801515806117ba575b6116ec90611824565b60005b81811061170b57505050505050505050505050610d8d60018055565b8080611719818f8690611874565b358b61172f826000526002602052604060002090565b6001810154611748906001600160a01b03161515610f0b565b600781015460ff1661175990610f4b565b015442111561176790610f8c565b8d8d61177484898b611874565b61177d90611884565b93611788918b611874565b3593611794918b611874565b356117a0858d8d61188e565b936117ac9591936111b2565b6117b590611865565b6116ef565b5060328111156116e3565b508987146116d1565b508989146116cb565b508882146116c5565b156117e757565b60405162461bcd60e51b8152602060048201526015602482015274082e4e4c2f240d8cadccee8d040dad2e6dac2e8c6d605b1b6044820152606490fd5b1561182b57565b60405162461bcd60e51b8152602060048201526012602482015271496e76616c69642062617463682073697a6560701b6044820152606490fd5b6000198114610c865760010190565b91908110156106995760051b0190565b3561161f81610135565b91908110156106995760051b81013590601e198136030182121561013057019081359167ffffffffffffffff8311610130576020018236038113610130579190565b156118d757565b60405162461bcd60e51b815260206004820152601760248201527f53657373696f6e20616c7265616479207265766f6b65640000000000000000006044820152606490fd5b90816020910312610130575190565b60ff601b9116019060ff8211610c8657565b60418251036119e3576020916000918291848101519260606040830151920151901a92601b84106119cc575b906119ad9161198760ff8616601b81149081156119c1575b50611105565b604051948594859094939260ff6060936080840197845216602083015260408201520152565b838052039060015afa156108b75760005190565b601c91501438611981565b92906119da6119ad9261192b565b93909150611969565b60405162461bcd60e51b815260206004820152601860248201527f496e76616c6964207369676e6174757265206c656e67746800000000000000006044820152606490fdfea26469706673582212201c7c79483d536bb3fb20cf3e5ed27009726b10c446f9ad9497717a1f3e9a4ac664736f6c63430008140033","opcodes":"PUSH1 0x80 CALLVALUE PUSH2 0xF7 JUMPI PUSH1 0x1F PUSH2 0x1B71 CODESIZE DUP2 SWAP1 SUB SWAP2 DUP3 ADD PUSH1 0x1F NOT AND DUP4 ADD SWAP2 PUSH1 0x1 PUSH1 0x1 PUSH1 0x40 SHL SUB DUP4 GT DUP5 DUP5 LT OR PUSH2 0xFC JUMPI DUP1 DUP5 SWAP3 PUSH1 0x20 SWAP5 PUSH1 0x40 MSTORE DUP4 CODECOPY DUP2 ADD SUB SLT PUSH2 0xF7 JUMPI MLOAD PUSH1 0x1 PUSH1 0x1 PUSH1 0xA0 SHL SUB DUP1 DUP3 AND SWAP2 DUP3 SWAP1 SUB PUSH2 0xF7 JUMPI PUSH1 0x0 SLOAD SWAP1 PUSH1 0x1 DUP1 PUSH1 0xA0 SHL SUB NOT SWAP2 CALLER DUP4 DUP3 AND OR PUSH1 0x0 SSTORE PUSH1 0x40 MLOAD SWAP2 CALLER SWAP2 AND PUSH32 0x8BE0079C531659141344CD1FD0A4F28419497F9722A3DAAFE3B4186F6B6457E0 PUSH1 0x0 DUP1 LOG3 PUSH1 0x1 DUP1 SSTORE DUP3 ISZERO PUSH2 0xB5 JUMPI POP PUSH1 0x4 SLOAD AND OR PUSH1 0x4 SSTORE PUSH1 0x40 MLOAD PUSH2 0x1A5E SWAP1 DUP2 PUSH2 0x113 DUP3 CODECOPY RETURN JUMPDEST PUSH3 0x461BCD PUSH1 0xE5 SHL DUP2 MSTORE PUSH1 0x20 PUSH1 0x4 DUP3 ADD MSTORE PUSH1 0x14 PUSH1 0x24 DUP3 ADD MSTORE PUSH32 0x496E76616C696420555344432061646472657373000000000000000000000000 PUSH1 0x44 DUP3 ADD MSTORE PUSH1 0x64 SWAP1 REVERT JUMPDEST PUSH1 0x0 DUP1 REVERT JUMPDEST PUSH4 0x4E487B71 PUSH1 0xE0 SHL PUSH1 0x0 MSTORE PUSH1 0x41 PUSH1 0x4 MSTORE PUSH1 0x24 PUSH1 0x0 REVERT INVALID PUSH1 0x80 PUSH1 0x40 MSTORE PUSH1 0x4 CALLDATASIZE LT ISZERO PUSH2 0x12 JUMPI PUSH1 0x0 DUP1 REVERT JUMPDEST PUSH1 0x0 CALLDATALOAD PUSH1 0xE0 SHR DUP1 PUSH4 0x11EAC855 EQ PUSH2 0x107 JUMPI DUP1 PUSH4 0x14F81924 EQ PUSH2 0x102 JUMPI DUP1 PUSH4 0x223715DD EQ PUSH2 0xFD JUMPI DUP1 PUSH4 0x39B240BD EQ PUSH2 0xF8 JUMPI DUP1 PUSH4 0x45BA64F4 EQ PUSH2 0xF3 JUMPI DUP1 PUSH4 0x6548E9BC EQ PUSH2 0xEE JUMPI DUP1 PUSH4 0x6D597D13 EQ PUSH2 0xE9 JUMPI DUP1 PUSH4 0x715018A6 EQ PUSH2 0xE4 JUMPI DUP1 PUSH4 0x7DBD2832 EQ PUSH2 0xDF JUMPI DUP1 PUSH4 0x7F93FAA3 EQ PUSH2 0xDA JUMPI DUP1 PUSH4 0x8406C079 EQ PUSH2 0xD5 JUMPI DUP1 PUSH4 0x8DA5CB5B EQ PUSH2 0xD0 JUMPI DUP1 PUSH4 0x91170E47 EQ PUSH2 0xCB JUMPI DUP1 PUSH4 0xA7FED385 EQ PUSH2 0xC6 JUMPI PUSH4 0xF2FDE38B EQ PUSH2 0xC1 JUMPI PUSH1 0x0 DUP1 REVERT JUMPDEST PUSH2 0xA3A JUMP JUMPDEST PUSH2 0x97B JUMP JUMPDEST PUSH2 0x90E JUMP JUMPDEST PUSH2 0x8E5 JUMP JUMPDEST PUSH2 0x8BC JUMP JUMPDEST PUSH2 0x7EF JUMP JUMPDEST PUSH2 0x759 JUMP JUMPDEST PUSH2 0x6FB JUMP JUMPDEST PUSH2 0x69E JUMP JUMPDEST PUSH2 0x5E3 JUMP JUMPDEST PUSH2 0x540 JUMP JUMPDEST PUSH2 0x3DA JUMP JUMPDEST PUSH2 0x354 JUMP JUMPDEST PUSH2 0x146 JUMP JUMPDEST CALLVALUE PUSH2 0x130 JUMPI PUSH1 0x0 CALLDATASIZE PUSH1 0x3 NOT ADD SLT PUSH2 0x130 JUMPI PUSH1 0x4 SLOAD PUSH1 0x40 MLOAD PUSH1 0x1 PUSH1 0x1 PUSH1 0xA0 SHL SUB SWAP1 SWAP2 AND DUP2 MSTORE PUSH1 0x20 SWAP1 RETURN JUMPDEST PUSH1 0x0 DUP1 REVERT JUMPDEST PUSH1 0x1 PUSH1 0x1 PUSH1 0xA0 SHL SUB DUP2 AND SUB PUSH2 0x130 JUMPI JUMP JUMPDEST CALLVALUE PUSH2 0x130 JUMPI PUSH1 0x80 CALLDATASIZE PUSH1 0x3 NOT ADD SLT PUSH2 0x130 JUMPI PUSH2 0x315 PUSH2 0x2D3 PUSH1 0x4 CALLDATALOAD PUSH2 0x169 DUP2 PUSH2 0x135 JUMP JUMPDEST PUSH1 0x1 PUSH1 0x1 PUSH1 0xA0 SHL SUB DUP2 AND SWAP1 PUSH1 0x24 CALLDATALOAD SWAP1 PUSH32 0x172D7CCBA1F3184E217AB083748B845FD9DB3CBE7FD8DA1B1C94AE2837379A18 PUSH1 0x64 CALLDATALOAD PUSH1 0x44 CALLDATALOAD PUSH2 0x1AA DUP7 ISZERO ISZERO PUSH2 0xB59 JUMP JUMPDEST PUSH2 0x1B5 DUP6 ISZERO ISZERO PUSH2 0xB96 JUMP JUMPDEST PUSH2 0x1C1 DUP6 DUP3 LT ISZERO PUSH2 0xBD9 JUMP JUMPDEST PUSH2 0x1CC TIMESTAMP DUP4 GT PUSH2 0xC24 JUMP JUMPDEST PUSH2 0x1D5 NUMBER PUSH2 0xC77 JUMP JUMPDEST PUSH1 0x40 MLOAD CALLER PUSH1 0x60 SWAP1 DUP2 SHL PUSH12 0xFFFFFFFFFFFFFFFFFFFFFFFF NOT SWAP1 DUP2 AND PUSH1 0x20 DUP5 ADD SWAP1 DUP2 MSTORE SWAP2 DUP9 SWAP1 SHL AND PUSH1 0x34 DUP4 ADD MSTORE TIMESTAMP PUSH1 0x48 DUP4 ADD MSTORE NUMBER PUSH1 0x68 DUP4 ADD MSTORE SWAP2 BLOCKHASH PUSH1 0x88 DUP1 DUP4 ADD SWAP2 SWAP1 SWAP2 MSTORE DUP2 MSTORE PUSH2 0x224 PUSH1 0xA8 DUP3 PUSH2 0xCFB JUMP JUMPDEST MLOAD SWAP1 KECCAK256 SWAP7 DUP8 SWAP5 PUSH2 0x269 PUSH2 0x263 PUSH2 0x257 PUSH1 0x1 PUSH2 0x249 DUP11 PUSH1 0x0 MSTORE PUSH1 0x2 PUSH1 0x20 MSTORE PUSH1 0x40 PUSH1 0x0 KECCAK256 SWAP1 JUMP JUMPDEST ADD SLOAD PUSH1 0x1 PUSH1 0x1 PUSH1 0xA0 SHL SUB AND SWAP1 JUMP JUMPDEST PUSH1 0x1 PUSH1 0x1 PUSH1 0xA0 SHL SUB AND SWAP1 JUMP JUMPDEST ISZERO PUSH2 0xD1D JUMP JUMPDEST PUSH2 0x283 PUSH2 0x274 PUSH2 0xD80 JUMP JUMPDEST PUSH1 0x1 PUSH1 0x1 PUSH1 0xA0 SHL SUB SWAP1 SWAP3 AND DUP3 MSTORE JUMP JUMPDEST CALLER PUSH1 0x20 DUP3 ADD MSTORE DUP7 PUSH1 0x40 DUP3 ADD MSTORE DUP3 PUSH1 0x60 DUP3 ADD MSTORE PUSH1 0x0 PUSH1 0x80 DUP3 ADD MSTORE DUP4 PUSH1 0xA0 DUP3 ADD MSTORE PUSH3 0x15180 TIMESTAMP DIV PUSH1 0xC0 DUP3 ADD MSTORE PUSH2 0x2BA PUSH1 0xE0 DUP3 ADD PUSH1 0x1 SWAP1 MSTORE JUMP JUMPDEST PUSH2 0x2CE DUP7 PUSH1 0x0 MSTORE PUSH1 0x2 PUSH1 0x20 MSTORE PUSH1 0x40 PUSH1 0x0 KECCAK256 SWAP1 JUMP JUMPDEST PUSH2 0xD8F JUMP JUMPDEST CALLER PUSH1 0x0 SWAP1 DUP2 MSTORE PUSH1 0x3 PUSH1 0x20 MSTORE PUSH1 0x40 SWAP1 KECCAK256 PUSH2 0x2ED SWAP1 DUP6 SWAP1 PUSH2 0xE16 JUMP JUMPDEST PUSH1 0x40 DUP1 MLOAD SWAP6 DUP7 MSTORE PUSH1 0x20 DUP7 ADD SWAP2 SWAP1 SWAP2 MSTORE DUP5 ADD MSTORE CALLER SWAP3 PUSH1 0x60 SWAP1 LOG4 PUSH1 0x40 MLOAD SWAP1 DUP2 MSTORE SWAP1 DUP2 SWAP1 PUSH1 0x20 DUP3 ADD SWAP1 JUMP JUMPDEST SUB SWAP1 RETURN JUMPDEST PUSH1 0x20 SWAP1 DUP2 PUSH1 0x40 DUP2 DUP4 ADD SWAP3 DUP3 DUP2 MSTORE DUP6 MLOAD DUP1 SWAP5 MSTORE ADD SWAP4 ADD SWAP2 PUSH1 0x0 JUMPDEST DUP3 DUP2 LT PUSH2 0x340 JUMPI POP POP POP POP SWAP1 JUMP JUMPDEST DUP4 MLOAD DUP6 MSTORE SWAP4 DUP2 ADD SWAP4 SWAP3 DUP2 ADD SWAP3 PUSH1 0x1 ADD PUSH2 0x332 JUMP JUMPDEST CALLVALUE PUSH2 0x130 JUMPI PUSH1 0x20 DUP1 PUSH1 0x3 NOT CALLDATASIZE ADD SLT PUSH2 0x130 JUMPI PUSH1 0x4 CALLDATALOAD PUSH2 0x372 DUP2 PUSH2 0x135 JUMP JUMPDEST PUSH1 0x1 PUSH1 0x1 PUSH1 0xA0 SHL SUB AND PUSH1 0x0 SWAP1 DUP2 MSTORE PUSH1 0x3 DUP3 MSTORE PUSH1 0x40 DUP1 DUP3 KECCAK256 SWAP1 MLOAD DUP2 SLOAD DUP1 DUP3 MSTORE SWAP2 DUP4 MSTORE DUP4 DUP4 KECCAK256 DUP2 DUP6 ADD SWAP5 SWAP2 SWAP4 SWAP1 SWAP3 SWAP2 JUMPDEST DUP3 DUP3 LT PUSH2 0x3C3 JUMPI PUSH2 0x315 DUP6 PUSH2 0x3B7 DUP2 DUP10 SUB DUP3 PUSH2 0xCFB JUMP JUMPDEST PUSH1 0x40 MLOAD SWAP2 DUP3 SWAP2 DUP3 PUSH2 0x319 JUMP JUMPDEST DUP4 SLOAD DUP7 MSTORE SWAP5 DUP6 ADD SWAP5 PUSH1 0x1 SWAP4 DUP5 ADD SWAP4 SWAP1 SWAP2 ADD SWAP1 PUSH2 0x3A0 JUMP JUMPDEST CALLVALUE PUSH2 0x130 JUMPI PUSH1 0x20 CALLDATASIZE PUSH1 0x3 NOT ADD SLT PUSH2 0x130 JUMPI PUSH2 0x315 PUSH1 0x40 PUSH1 0xE0 DUP2 MLOAD PUSH2 0x3FD DUP2 PUSH2 0xCA1 JUMP JUMPDEST PUSH1 0x0 SWAP2 DUP2 DUP4 DUP1 SWAP4 MSTORE DUP3 PUSH1 0x20 DUP3 ADD MSTORE DUP3 DUP6 DUP3 ADD MSTORE DUP3 PUSH1 0x60 DUP3 ADD MSTORE DUP3 PUSH1 0x80 DUP3 ADD MSTORE DUP3 PUSH1 0xA0 DUP3 ADD MSTORE DUP3 PUSH1 0xC0 DUP3 ADD MSTORE ADD MSTORE PUSH1 0x4 CALLDATALOAD DUP2 MSTORE PUSH1 0x2 PUSH1 0x20 MSTORE KECCAK256 PUSH2 0x4A9 PUSH2 0x4A0 PUSH1 0x7 PUSH2 0x445 PUSH2 0xD80 JUMP JUMPDEST DUP5 SLOAD PUSH1 0x1 PUSH1 0x1 PUSH1 0xA0 SHL SUB AND DUP2 MSTORE SWAP4 PUSH1 0x1 DUP2 ADD SLOAD PUSH1 0x1 PUSH1 0x1 PUSH1 0xA0 SHL SUB AND PUSH1 0x20 DUP7 ADD MSTORE PUSH1 0x2 DUP2 ADD SLOAD PUSH1 0x40 DUP7 ADD MSTORE PUSH1 0x3 DUP2 ADD SLOAD PUSH1 0x60 DUP7 ADD MSTORE PUSH1 0x4 DUP2 ADD SLOAD PUSH1 0x80 DUP7 ADD MSTORE PUSH1 0x5 DUP2 ADD SLOAD PUSH1 0xA0 DUP7 ADD MSTORE PUSH1 0x6 DUP2 ADD SLOAD PUSH1 0xC0 DUP7 ADD MSTORE ADD SLOAD PUSH1 0xFF AND SWAP1 JUMP JUMPDEST ISZERO ISZERO PUSH1 0xE0 DUP4 ADD MSTORE JUMP JUMPDEST PUSH1 0x40 MLOAD SWAP2 DUP3 SWAP2 DUP3 SWAP2 SWAP1 SWAP2 PUSH1 0xE0 DUP1 PUSH2 0x100 DUP4 ADD SWAP5 PUSH1 0x1 DUP1 PUSH1 0xA0 SHL SUB DUP1 DUP3 MLOAD AND DUP6 MSTORE PUSH1 0x20 DUP3 ADD MLOAD AND PUSH1 0x20 DUP6 ADD MSTORE PUSH1 0x40 DUP2 ADD MLOAD PUSH1 0x40 DUP6 ADD MSTORE PUSH1 0x60 DUP2 ADD MLOAD PUSH1 0x60 DUP6 ADD MSTORE PUSH1 0x80 DUP2 ADD MLOAD PUSH1 0x80 DUP6 ADD MSTORE PUSH1 0xA0 DUP2 ADD MLOAD PUSH1 0xA0 DUP6 ADD MSTORE PUSH1 0xC0 DUP2 ADD MLOAD PUSH1 0xC0 DUP6 ADD MSTORE ADD MLOAD ISZERO ISZERO SWAP2 ADD MSTORE JUMP JUMPDEST SWAP2 DUP2 PUSH1 0x1F DUP5 ADD SLT ISZERO PUSH2 0x130 JUMPI DUP3 CALLDATALOAD SWAP2 PUSH8 0xFFFFFFFFFFFFFFFF DUP4 GT PUSH2 0x130 JUMPI PUSH1 0x20 DUP1 DUP6 ADD SWAP5 DUP5 PUSH1 0x5 SHL ADD ADD GT PUSH2 0x130 JUMPI JUMP JUMPDEST CALLVALUE PUSH2 0x130 JUMPI PUSH1 0xA0 CALLDATASIZE PUSH1 0x3 NOT ADD SLT PUSH2 0x130 JUMPI PUSH1 0x4 PUSH8 0xFFFFFFFFFFFFFFFF DUP2 CALLDATALOAD DUP2 DUP2 GT PUSH2 0x130 JUMPI PUSH2 0x572 SWAP1 CALLDATASIZE SWAP1 DUP5 ADD PUSH2 0x50F JUMP JUMPDEST SWAP2 PUSH1 0x24 CALLDATALOAD DUP2 DUP2 GT PUSH2 0x130 JUMPI PUSH2 0x58A SWAP1 CALLDATASIZE SWAP1 DUP7 ADD PUSH2 0x50F JUMP JUMPDEST PUSH1 0x44 SWAP3 SWAP2 SWAP3 CALLDATALOAD DUP3 DUP2 GT PUSH2 0x130 JUMPI PUSH2 0x5A4 SWAP1 CALLDATASIZE SWAP1 DUP9 ADD PUSH2 0x50F JUMP JUMPDEST SWAP2 PUSH1 0x64 CALLDATALOAD DUP5 DUP2 GT PUSH2 0x130 JUMPI PUSH2 0x5BC SWAP1 CALLDATASIZE SWAP1 DUP11 ADD PUSH2 0x50F JUMP JUMPDEST SWAP6 SWAP1 SWAP5 PUSH1 0x84 CALLDATALOAD SWAP1 DUP2 GT PUSH2 0x130 JUMPI PUSH2 0x5E1 SWAP10 PUSH2 0x5D9 SWAP2 CALLDATASIZE SWAP2 ADD PUSH2 0x50F JUMP JUMPDEST SWAP9 SWAP1 SWAP8 PUSH2 0x1694 JUMP JUMPDEST STOP JUMPDEST CALLVALUE PUSH2 0x130 JUMPI PUSH1 0x20 CALLDATASIZE PUSH1 0x3 NOT ADD SLT PUSH2 0x130 JUMPI PUSH1 0x4 CALLDATALOAD PUSH2 0x600 DUP2 PUSH2 0x135 JUMP JUMPDEST PUSH2 0x608 PUSH2 0xB01 JUMP JUMPDEST PUSH1 0x1 PUSH1 0x1 PUSH1 0xA0 SHL SUB AND DUP1 ISZERO PUSH2 0x634 JUMPI PUSH12 0xFFFFFFFFFFFFFFFFFFFFFFFF PUSH1 0xA0 SHL PUSH1 0x5 SLOAD AND OR PUSH1 0x5 SSTORE PUSH1 0x0 DUP1 RETURN JUMPDEST PUSH1 0x40 MLOAD PUSH3 0x461BCD PUSH1 0xE5 SHL DUP2 MSTORE PUSH1 0x20 PUSH1 0x4 DUP3 ADD MSTORE PUSH1 0xF PUSH1 0x24 DUP3 ADD MSTORE PUSH15 0x24B73B30B634B2103932B630BCB2B9 PUSH1 0x89 SHL PUSH1 0x44 DUP3 ADD MSTORE PUSH1 0x64 SWAP1 REVERT JUMPDEST PUSH4 0x4E487B71 PUSH1 0xE0 SHL PUSH1 0x0 MSTORE PUSH1 0x32 PUSH1 0x4 MSTORE PUSH1 0x24 PUSH1 0x0 REVERT JUMPDEST DUP1 SLOAD DUP3 LT ISZERO PUSH2 0x699 JUMPI PUSH1 0x0 MSTORE PUSH1 0x20 PUSH1 0x0 KECCAK256 ADD SWAP1 PUSH1 0x0 SWAP1 JUMP JUMPDEST PUSH2 0x66B JUMP JUMPDEST CALLVALUE PUSH2 0x130 JUMPI PUSH1 0x40 CALLDATASIZE PUSH1 0x3 NOT ADD SLT PUSH2 0x130 JUMPI PUSH1 0x4 CALLDATALOAD PUSH2 0x6BB DUP2 PUSH2 0x135 JUMP JUMPDEST PUSH1 0x1 PUSH1 0x1 PUSH1 0xA0 SHL SUB AND PUSH1 0x0 SWAP1 DUP2 MSTORE PUSH1 0x3 PUSH1 0x20 MSTORE PUSH1 0x40 SWAP1 KECCAK256 DUP1 SLOAD PUSH1 0x24 CALLDATALOAD SWAP2 SWAP1 DUP3 LT ISZERO PUSH2 0x130 JUMPI PUSH1 0x20 SWAP2 PUSH2 0x6EC SWAP2 PUSH2 0x681 JUMP JUMPDEST SWAP1 SLOAD SWAP1 PUSH1 0x3 SHL SHR PUSH1 0x40 MLOAD SWAP1 DUP2 MSTORE RETURN JUMPDEST CALLVALUE PUSH2 0x130 JUMPI PUSH1 0x0 DUP1 PUSH1 0x3 NOT CALLDATASIZE ADD SLT PUSH2 0x756 JUMPI PUSH2 0x715 PUSH2 0xB01 JUMP JUMPDEST DUP1 SLOAD PUSH1 0x1 PUSH1 0x1 PUSH1 0xA0 SHL SUB NOT DUP2 AND DUP3 SSTORE DUP2 SWAP1 PUSH1 0x1 PUSH1 0x1 PUSH1 0xA0 SHL SUB AND PUSH32 0x8BE0079C531659141344CD1FD0A4F28419497F9722A3DAAFE3B4186F6B6457E0 DUP3 DUP1 LOG3 DUP1 RETURN JUMPDEST DUP1 REVERT JUMPDEST CALLVALUE PUSH2 0x130 JUMPI PUSH1 0x20 CALLDATASIZE PUSH1 0x3 NOT ADD SLT PUSH2 0x130 JUMPI PUSH1 0x4 DUP1 CALLDATALOAD PUSH1 0x0 SWAP1 DUP2 MSTORE PUSH1 0x2 PUSH1 0x20 DUP2 DUP2 MSTORE PUSH1 0x40 SWAP3 DUP4 SWAP1 KECCAK256 DUP1 SLOAD PUSH1 0x1 DUP3 ADD SLOAD SWAP4 DUP3 ADD SLOAD PUSH1 0x3 DUP4 ADD SLOAD SWAP7 DUP4 ADD SLOAD PUSH1 0x5 DUP5 ADD SLOAD PUSH1 0x6 DUP6 ADD SLOAD PUSH1 0x7 SWAP1 SWAP6 ADD SLOAD DUP9 MLOAD PUSH1 0x1 PUSH1 0x1 PUSH1 0xA0 SHL SUB SWAP6 DUP7 AND DUP2 MSTORE SWAP5 SWAP1 SWAP8 AND SWAP6 DUP5 ADD SWAP6 SWAP1 SWAP6 MSTORE SWAP6 DUP3 ADD MSTORE PUSH1 0x60 DUP2 ADD SWAP6 SWAP1 SWAP6 MSTORE PUSH1 0x80 DUP6 ADD SWAP4 SWAP1 SWAP4 MSTORE PUSH1 0xA0 DUP5 ADD MSTORE PUSH1 0xC0 DUP4 ADD SWAP2 SWAP1 SWAP2 MSTORE PUSH1 0xFF AND ISZERO ISZERO PUSH1 0xE0 DUP3 ADD MSTORE PUSH2 0x100 SWAP1 RETURN JUMPDEST CALLVALUE PUSH2 0x130 JUMPI PUSH1 0x20 CALLDATASIZE PUSH1 0x3 NOT ADD SLT PUSH2 0x130 JUMPI PUSH2 0x84B PUSH1 0x4 CALLDATALOAD PUSH2 0x80F DUP2 PUSH2 0x135 JUMP JUMPDEST PUSH1 0x4 DUP1 SLOAD PUSH1 0x40 MLOAD PUSH4 0x6EB1769F PUSH1 0xE1 SHL DUP2 MSTORE PUSH1 0x1 PUSH1 0x1 PUSH1 0xA0 SHL SUB SWAP4 DUP5 AND SWAP3 DUP2 ADD SWAP3 SWAP1 SWAP3 MSTORE ADDRESS PUSH1 0x24 DUP4 ADD MSTORE SWAP1 SWAP3 SWAP2 AND SWAP1 PUSH1 0x20 SWAP1 DUP4 SWAP1 DUP2 SWAP1 PUSH1 0x44 DUP3 ADD SWAP1 JUMP JUMPDEST SUB DUP2 DUP5 GAS STATICCALL SWAP2 DUP3 ISZERO PUSH2 0x8B7 JUMPI PUSH1 0x0 SWAP3 PUSH2 0x887 JUMPI JUMPDEST POP PUSH1 0x40 DUP1 MLOAD DUP4 DUP2 MSTORE PUSH1 0x1 PUSH1 0x1 PUSH1 0xA0 SHL SUB SWAP3 SWAP1 SWAP3 AND PUSH1 0x20 DUP4 ADD MSTORE SWAP2 ISZERO ISZERO SWAP2 DUP2 ADD SWAP2 SWAP1 SWAP2 MSTORE PUSH1 0x60 SWAP1 RETURN JUMPDEST PUSH2 0x8A9 SWAP2 SWAP3 POP PUSH1 0x20 RETURNDATASIZE DUP2 GT PUSH2 0x8B0 JUMPI JUMPDEST PUSH2 0x8A1 DUP2 DUP4 PUSH2 0xCFB JUMP JUMPDEST DUP2 ADD SWAP1 PUSH2 0x191C JUMP JUMPDEST SWAP1 CODESIZE PUSH2 0x85F JUMP JUMPDEST POP RETURNDATASIZE PUSH2 0x897 JUMP JUMPDEST PUSH2 0x115E JUMP JUMPDEST CALLVALUE PUSH2 0x130 JUMPI PUSH1 0x0 CALLDATASIZE PUSH1 0x3 NOT ADD SLT PUSH2 0x130 JUMPI PUSH1 0x5 SLOAD PUSH1 0x40 MLOAD PUSH1 0x1 PUSH1 0x1 PUSH1 0xA0 SHL SUB SWAP1 SWAP2 AND DUP2 MSTORE PUSH1 0x20 SWAP1 RETURN JUMPDEST CALLVALUE PUSH2 0x130 JUMPI PUSH1 0x0 CALLDATASIZE PUSH1 0x3 NOT ADD SLT PUSH2 0x130 JUMPI PUSH1 0x0 SLOAD PUSH1 0x40 MLOAD PUSH1 0x1 PUSH1 0x1 PUSH1 0xA0 SHL SUB SWAP1 SWAP2 AND DUP2 MSTORE PUSH1 0x20 SWAP1 RETURN JUMPDEST CALLVALUE PUSH2 0x130 JUMPI PUSH1 0xA0 CALLDATASIZE PUSH1 0x3 NOT ADD SLT PUSH2 0x130 JUMPI PUSH1 0x24 CALLDATALOAD PUSH2 0x92B DUP2 PUSH2 0x135 JUMP JUMPDEST PUSH1 0x84 CALLDATALOAD SWAP1 PUSH8 0xFFFFFFFFFFFFFFFF SWAP1 DUP2 DUP4 GT PUSH2 0x130 JUMPI CALLDATASIZE PUSH1 0x23 DUP5 ADD SLT ISZERO PUSH2 0x130 JUMPI DUP3 PUSH1 0x4 ADD CALLDATALOAD SWAP2 DUP3 GT PUSH2 0x130 JUMPI CALLDATASIZE PUSH1 0x24 DUP4 DUP6 ADD ADD GT PUSH2 0x130 JUMPI PUSH1 0x24 PUSH2 0x5E1 SWAP4 ADD SWAP1 PUSH1 0x64 CALLDATALOAD SWAP1 PUSH1 0x44 CALLDATALOAD SWAP1 PUSH1 0x4 CALLDATALOAD PUSH2 0xE9C JUMP JUMPDEST CALLVALUE PUSH2 0x130 JUMPI PUSH1 0x20 CALLDATASIZE PUSH1 0x3 NOT ADD SLT PUSH2 0x130 JUMPI PUSH1 0x4 CALLDATALOAD PUSH1 0x0 DUP2 DUP2 MSTORE PUSH1 0x2 PUSH1 0x20 MSTORE PUSH1 0x40 DUP2 KECCAK256 PUSH1 0x1 DUP2 ADD SLOAD SWAP2 SWAP3 SWAP2 PUSH1 0x1 PUSH1 0x1 PUSH1 0xA0 SHL SUB AND CALLER SUB PUSH2 0xA01 JUMPI PUSH1 0x7 PUSH2 0x9D8 SWAP2 ADD PUSH2 0x9CE PUSH2 0x9C9 DUP3 SLOAD PUSH1 0xFF AND SWAP1 JUMP JUMPDEST PUSH2 0x18D0 JUMP JUMPDEST DUP1 SLOAD PUSH1 0xFF NOT AND SWAP1 SSTORE JUMP JUMPDEST CALLER SWAP1 PUSH32 0x53C7D74D36EDC91DBF6B53BB0EA80BBDB2CA5894D54F6F62BEACC537701822FD DUP4 DUP1 LOG3 DUP1 RETURN JUMPDEST PUSH1 0x40 MLOAD PUSH3 0x461BCD PUSH1 0xE5 SHL DUP2 MSTORE PUSH1 0x20 PUSH1 0x4 DUP3 ADD MSTORE PUSH1 0x11 PUSH1 0x24 DUP3 ADD MSTORE PUSH17 0x2737BA1039B2B9B9B4B7B71037BBB732B9 PUSH1 0x79 SHL PUSH1 0x44 DUP3 ADD MSTORE PUSH1 0x64 SWAP1 REVERT JUMPDEST CALLVALUE PUSH2 0x130 JUMPI PUSH1 0x20 CALLDATASIZE PUSH1 0x3 NOT ADD SLT PUSH2 0x130 JUMPI PUSH1 0x4 CALLDATALOAD PUSH2 0xA57 DUP2 PUSH2 0x135 JUMP JUMPDEST PUSH2 0xA5F PUSH2 0xB01 JUMP JUMPDEST PUSH1 0x1 PUSH1 0x1 PUSH1 0xA0 SHL SUB SWAP1 DUP2 AND DUP1 ISZERO PUSH2 0xAAD JUMPI PUSH1 0x0 DUP1 SLOAD PUSH1 0x1 PUSH1 0x1 PUSH1 0xA0 SHL SUB NOT DUP2 AND DUP4 OR DUP3 SSTORE SWAP1 SWAP3 AND PUSH32 0x8BE0079C531659141344CD1FD0A4F28419497F9722A3DAAFE3B4186F6B6457E0 DUP4 DUP1 LOG3 DUP1 RETURN JUMPDEST PUSH1 0x40 MLOAD PUSH3 0x461BCD PUSH1 0xE5 SHL DUP2 MSTORE PUSH1 0x20 PUSH1 0x4 DUP3 ADD MSTORE PUSH1 0x26 PUSH1 0x24 DUP3 ADD MSTORE PUSH32 0x4F776E61626C653A206E6577206F776E657220697320746865207A65726F2061 PUSH1 0x44 DUP3 ADD MSTORE PUSH6 0x646472657373 PUSH1 0xD0 SHL PUSH1 0x64 DUP3 ADD MSTORE PUSH1 0x84 SWAP1 REVERT JUMPDEST PUSH1 0x0 SLOAD PUSH1 0x1 PUSH1 0x1 PUSH1 0xA0 SHL SUB AND CALLER SUB PUSH2 0xB15 JUMPI JUMP JUMPDEST PUSH1 0x64 PUSH1 0x40 MLOAD PUSH3 0x461BCD PUSH1 0xE5 SHL DUP2 MSTORE PUSH1 0x20 PUSH1 0x4 DUP3 ADD MSTORE PUSH1 0x20 PUSH1 0x24 DUP3 ADD MSTORE PUSH32 0x4F776E61626C653A2063616C6C6572206973206E6F7420746865206F776E6572 PUSH1 0x44 DUP3 ADD MSTORE REVERT JUMPDEST ISZERO PUSH2 0xB60 JUMPI JUMP JUMPDEST PUSH1 0x40 MLOAD PUSH3 0x461BCD PUSH1 0xE5 SHL DUP2 MSTORE PUSH1 0x20 PUSH1 0x4 DUP3 ADD MSTORE PUSH1 0xE PUSH1 0x24 DUP3 ADD MSTORE PUSH14 0x24B73B30B634B21039B4B3B732B9 PUSH1 0x91 SHL PUSH1 0x44 DUP3 ADD MSTORE PUSH1 0x64 SWAP1 REVERT JUMPDEST ISZERO PUSH2 0xB9D JUMPI JUMP JUMPDEST PUSH1 0x40 MLOAD PUSH3 0x461BCD PUSH1 0xE5 SHL DUP2 MSTORE PUSH1 0x20 PUSH1 0x4 DUP3 ADD MSTORE PUSH1 0x14 PUSH1 0x24 DUP3 ADD MSTORE PUSH20 0x125B9D985B1A59081CDA5B99DB19481B1A5B5A5D PUSH1 0x62 SHL PUSH1 0x44 DUP3 ADD MSTORE PUSH1 0x64 SWAP1 REVERT JUMPDEST ISZERO PUSH2 0xBE0 JUMPI JUMP JUMPDEST PUSH1 0x64 PUSH1 0x40 MLOAD PUSH3 0x461BCD PUSH1 0xE5 SHL DUP2 MSTORE PUSH1 0x20 PUSH1 0x4 DUP3 ADD MSTORE PUSH1 0x20 PUSH1 0x24 DUP3 ADD MSTORE PUSH32 0x4461696C79206C696D6974206D757374203E3D2073696E676C65206C696D6974 PUSH1 0x44 DUP3 ADD MSTORE REVERT JUMPDEST ISZERO PUSH2 0xC2B JUMPI JUMP JUMPDEST PUSH1 0x40 MLOAD PUSH3 0x461BCD PUSH1 0xE5 SHL DUP2 MSTORE PUSH1 0x20 PUSH1 0x4 DUP3 ADD MSTORE PUSH1 0xE PUSH1 0x24 DUP3 ADD MSTORE PUSH14 0x496E76616C696420657870697279 PUSH1 0x90 SHL PUSH1 0x44 DUP3 ADD MSTORE PUSH1 0x64 SWAP1 REVERT JUMPDEST PUSH4 0x4E487B71 PUSH1 0xE0 SHL PUSH1 0x0 MSTORE PUSH1 0x11 PUSH1 0x4 MSTORE PUSH1 0x24 PUSH1 0x0 REVERT JUMPDEST PUSH1 0x0 NOT DUP2 ADD SWAP2 SWAP1 DUP3 GT PUSH2 0xC86 JUMPI JUMP JUMPDEST PUSH2 0xC61 JUMP JUMPDEST PUSH4 0x4E487B71 PUSH1 0xE0 SHL PUSH1 0x0 MSTORE PUSH1 0x41 PUSH1 0x4 MSTORE PUSH1 0x24 PUSH1 0x0 REVERT JUMPDEST PUSH2 0x100 DUP2 ADD SWAP1 DUP2 LT PUSH8 0xFFFFFFFFFFFFFFFF DUP3 GT OR PUSH2 0xCBE JUMPI PUSH1 0x40 MSTORE JUMP JUMPDEST PUSH2 0xC8B JUMP JUMPDEST PUSH1 0xA0 DUP2 ADD SWAP1 DUP2 LT PUSH8 0xFFFFFFFFFFFFFFFF DUP3 GT OR PUSH2 0xCBE JUMPI PUSH1 0x40 MSTORE JUMP JUMPDEST PUSH1 0x40 DUP2 ADD SWAP1 DUP2 LT PUSH8 0xFFFFFFFFFFFFFFFF DUP3 GT OR PUSH2 0xCBE JUMPI PUSH1 0x40 MSTORE JUMP JUMPDEST SWAP1 PUSH1 0x1F DUP1 NOT SWAP2 ADD AND DUP2 ADD SWAP1 DUP2 LT PUSH8 0xFFFFFFFFFFFFFFFF DUP3 GT OR PUSH2 0xCBE JUMPI PUSH1 0x40 MSTORE JUMP JUMPDEST ISZERO PUSH2 0xD24 JUMPI JUMP JUMPDEST PUSH1 0x40 MLOAD PUSH3 0x461BCD PUSH1 0xE5 SHL DUP2 MSTORE PUSH1 0x20 PUSH1 0x4 DUP3 ADD MSTORE PUSH1 0x14 PUSH1 0x24 DUP3 ADD MSTORE PUSH20 0x29B2B9B9B4B7B71024A21031B7B63634B9B4B7B7 PUSH1 0x61 SHL PUSH1 0x44 DUP3 ADD MSTORE PUSH1 0x64 SWAP1 REVERT JUMPDEST DUP2 ISZERO PUSH2 0xD6A JUMPI DIV SWAP1 JUMP JUMPDEST PUSH4 0x4E487B71 PUSH1 0xE0 SHL PUSH1 0x0 MSTORE PUSH1 0x12 PUSH1 0x4 MSTORE PUSH1 0x24 PUSH1 0x0 REVERT JUMPDEST PUSH1 0x40 MLOAD SWAP1 PUSH2 0xD8D DUP3 PUSH2 0xCA1 JUMP JUMPDEST JUMP JUMPDEST DUP2 MLOAD DUP2 SLOAD PUSH1 0x1 PUSH1 0x1 PUSH1 0xA0 SHL SUB SWAP2 DUP3 AND PUSH1 0x1 PUSH1 0x1 PUSH1 0xA0 SHL SUB NOT SWAP2 DUP3 AND OR DUP4 SSTORE PUSH1 0x20 DUP5 ADD MLOAD PUSH1 0x1 DUP5 ADD DUP1 SLOAD SWAP2 SWAP1 SWAP4 AND SWAP2 AND OR SWAP1 SSTORE PUSH1 0x40 DUP3 ADD MLOAD PUSH1 0x2 DUP3 ADD SSTORE PUSH1 0x60 DUP3 ADD MLOAD PUSH1 0x3 DUP3 ADD SSTORE PUSH1 0x80 DUP3 ADD MLOAD PUSH1 0x4 DUP3 ADD SSTORE PUSH1 0xA0 DUP3 ADD MLOAD PUSH1 0x5 DUP3 ADD SSTORE PUSH1 0xC0 DUP3 ADD MLOAD PUSH1 0x6 DUP3 ADD SSTORE PUSH1 0xE0 SWAP1 SWAP2 ADD MLOAD PUSH2 0xD8D SWAP2 SWAP1 PUSH1 0x7 SWAP1 ISZERO ISZERO SWAP2 ADD SWAP1 PUSH1 0xFF DUP1 NOT DUP4 SLOAD AND SWAP2 ISZERO ISZERO AND OR SWAP1 SSTORE JUMP JUMPDEST DUP1 SLOAD PUSH9 0x10000000000000000 DUP2 LT ISZERO PUSH2 0xCBE JUMPI PUSH2 0xE38 SWAP2 PUSH1 0x1 DUP3 ADD DUP2 SSTORE PUSH2 0x681 JUMP JUMPDEST DUP2 SWAP3 SWAP2 SLOAD SWAP1 PUSH1 0x3 SHL SWAP2 DUP3 SHL SWAP2 PUSH1 0x0 NOT SWAP1 SHL NOT AND OR SWAP1 SSTORE JUMP JUMPDEST ISZERO PUSH2 0xE57 JUMPI JUMP JUMPDEST PUSH1 0x40 MLOAD PUSH3 0x461BCD PUSH1 0xE5 SHL DUP2 MSTORE PUSH1 0x20 PUSH1 0x4 DUP3 ADD MSTORE PUSH1 0x18 PUSH1 0x24 DUP3 ADD MSTORE PUSH32 0x4F6E6C792072656C617965722063616E20657865637574650000000000000000 PUSH1 0x44 DUP3 ADD MSTORE PUSH1 0x64 SWAP1 REVERT JUMPDEST SWAP1 PUSH2 0xF05 SWAP6 SWAP5 SWAP4 SWAP3 SWAP2 PUSH2 0xEF8 PUSH1 0x5 PUSH1 0x1 DUP1 PUSH1 0xA0 SHL SUB PUSH2 0xEBF DUP2 DUP4 SLOAD AND CALLER EQ PUSH2 0xE50 JUMP JUMPDEST DUP4 PUSH1 0x0 MSTORE PUSH1 0x2 PUSH1 0x20 MSTORE PUSH2 0xEDE PUSH1 0x40 PUSH1 0x0 KECCAK256 SWAP2 PUSH1 0x1 DUP4 ADD SLOAD AND ISZERO ISZERO PUSH2 0xF0B JUMP JUMPDEST PUSH2 0xEEE PUSH1 0xFF PUSH1 0x7 DUP4 ADD SLOAD AND PUSH2 0xF4B JUMP JUMPDEST ADD SLOAD TIMESTAMP GT ISZERO PUSH2 0xF8C JUMP JUMPDEST PUSH2 0xF00 PUSH2 0xFCA JUMP JUMPDEST PUSH2 0x11B2 JUMP JUMPDEST PUSH1 0x1 DUP1 SSTORE JUMP JUMPDEST ISZERO PUSH2 0xF12 JUMPI JUMP JUMPDEST PUSH1 0x40 MLOAD PUSH3 0x461BCD PUSH1 0xE5 SHL DUP2 MSTORE PUSH1 0x20 PUSH1 0x4 DUP3 ADD MSTORE PUSH1 0x11 PUSH1 0x24 DUP3 ADD MSTORE PUSH17 0x14D95CDCDA5BDB881B9BDD08199BDD5B99 PUSH1 0x7A SHL PUSH1 0x44 DUP3 ADD MSTORE PUSH1 0x64 SWAP1 REVERT JUMPDEST ISZERO PUSH2 0xF52 JUMPI JUMP JUMPDEST PUSH1 0x40 MLOAD PUSH3 0x461BCD PUSH1 0xE5 SHL DUP2 MSTORE PUSH1 0x20 PUSH1 0x4 DUP3 ADD MSTORE PUSH1 0x12 PUSH1 0x24 DUP3 ADD MSTORE PUSH18 0x53657373696F6E206E6F7420616374697665 PUSH1 0x70 SHL PUSH1 0x44 DUP3 ADD MSTORE PUSH1 0x64 SWAP1 REVERT JUMPDEST ISZERO PUSH2 0xF93 JUMPI JUMP JUMPDEST PUSH1 0x40 MLOAD PUSH3 0x461BCD PUSH1 0xE5 SHL DUP2 MSTORE PUSH1 0x20 PUSH1 0x4 DUP3 ADD MSTORE PUSH1 0xF PUSH1 0x24 DUP3 ADD MSTORE PUSH15 0x14D95CDCDA5BDB88195E1C1A5C9959 PUSH1 0x8A SHL PUSH1 0x44 DUP3 ADD MSTORE PUSH1 0x64 SWAP1 REVERT JUMPDEST PUSH1 0x2 PUSH1 0x1 SLOAD EQ PUSH2 0xFDB JUMPI PUSH1 0x2 PUSH1 0x1 SSTORE JUMP JUMPDEST PUSH1 0x40 MLOAD PUSH3 0x461BCD PUSH1 0xE5 SHL DUP2 MSTORE PUSH1 0x20 PUSH1 0x4 DUP3 ADD MSTORE PUSH1 0x1F PUSH1 0x24 DUP3 ADD MSTORE PUSH32 0x5265656E7472616E637947756172643A207265656E7472616E742063616C6C00 PUSH1 0x44 DUP3 ADD MSTORE PUSH1 0x64 SWAP1 REVERT JUMPDEST ISZERO PUSH2 0x1027 JUMPI JUMP JUMPDEST PUSH1 0x40 MLOAD PUSH3 0x461BCD PUSH1 0xE5 SHL DUP2 MSTORE PUSH1 0x20 PUSH1 0x4 DUP3 ADD MSTORE PUSH1 0x14 PUSH1 0x24 DUP3 ADD MSTORE PUSH20 0x115E18D959591CC81CDA5B99DB19481B1A5B5A5D PUSH1 0x62 SHL PUSH1 0x44 DUP3 ADD MSTORE PUSH1 0x64 SWAP1 REVERT JUMPDEST SWAP2 SWAP1 DUP3 ADD DUP1 SWAP3 GT PUSH2 0xC86 JUMPI JUMP JUMPDEST ISZERO PUSH2 0x1077 JUMPI JUMP JUMPDEST PUSH1 0x40 MLOAD PUSH3 0x461BCD PUSH1 0xE5 SHL DUP2 MSTORE PUSH1 0x20 PUSH1 0x4 DUP3 ADD MSTORE PUSH1 0x13 PUSH1 0x24 DUP3 ADD MSTORE PUSH19 0x115E18D959591CC819185A5B1E481B1A5B5A5D PUSH1 0x6A SHL PUSH1 0x44 DUP3 ADD MSTORE PUSH1 0x64 SWAP1 REVERT JUMPDEST PUSH8 0xFFFFFFFFFFFFFFFF DUP2 GT PUSH2 0xCBE JUMPI PUSH1 0x1F ADD PUSH1 0x1F NOT AND PUSH1 0x20 ADD SWAP1 JUMP JUMPDEST SWAP3 SWAP2 SWAP3 PUSH2 0x10DA DUP3 PUSH2 0x10B2 JUMP JUMPDEST SWAP2 PUSH2 0x10E8 PUSH1 0x40 MLOAD SWAP4 DUP5 PUSH2 0xCFB JUMP JUMPDEST DUP3 SWAP5 DUP2 DUP5 MSTORE DUP2 DUP4 ADD GT PUSH2 0x130 JUMPI DUP3 DUP2 PUSH1 0x20 SWAP4 DUP5 PUSH1 0x0 SWAP7 ADD CALLDATACOPY ADD ADD MSTORE JUMP JUMPDEST ISZERO PUSH2 0x110C JUMPI JUMP JUMPDEST PUSH1 0x40 MLOAD PUSH3 0x461BCD PUSH1 0xE5 SHL DUP2 MSTORE PUSH1 0x20 PUSH1 0x4 DUP3 ADD MSTORE PUSH1 0x11 PUSH1 0x24 DUP3 ADD MSTORE PUSH17 0x496E76616C6964207369676E6174757265 PUSH1 0x78 SHL PUSH1 0x44 DUP3 ADD MSTORE PUSH1 0x64 SWAP1 REVERT JUMPDEST SWAP1 DUP2 PUSH1 0x20 SWAP2 SUB SLT PUSH2 0x130 JUMPI MLOAD PUSH1 0xFF DUP2 AND DUP2 SUB PUSH2 0x130 JUMPI SWAP1 JUMP JUMPDEST PUSH1 0x40 MLOAD RETURNDATASIZE PUSH1 0x0 DUP3 RETURNDATACOPY RETURNDATASIZE SWAP1 REVERT JUMPDEST PUSH1 0xFF AND PUSH1 0x6 SUB SWAP1 PUSH1 0xFF DUP3 GT PUSH2 0xC86 JUMPI JUMP JUMPDEST PUSH1 0xFF PUSH1 0x5 NOT SWAP2 AND ADD SWAP1 PUSH1 0xFF DUP3 GT PUSH2 0xC86 JUMPI JUMP JUMPDEST PUSH1 0xFF AND PUSH1 0x4D DUP2 GT PUSH2 0xC86 JUMPI PUSH1 0xA EXP SWAP1 JUMP JUMPDEST DUP2 DUP2 MUL SWAP3 SWAP2 DUP2 ISZERO SWAP2 DUP5 DIV EQ OR ISZERO PUSH2 0xC86 JUMPI JUMP JUMPDEST SWAP3 SWAP5 SWAP2 SWAP4 SWAP1 PUSH2 0x11CB DUP5 PUSH1 0x0 MSTORE PUSH1 0x2 PUSH1 0x20 MSTORE PUSH1 0x40 PUSH1 0x0 KECCAK256 SWAP1 JUMP JUMPDEST SWAP3 DUP5 PUSH3 0x15180 TIMESTAMP DIV PUSH1 0x6 DUP7 ADD DUP1 SLOAD DUP3 GT PUSH2 0x1415 JUMPI JUMPDEST POP POP POP PUSH1 0x2 DUP5 ADD SLOAD DUP7 GT ISZERO PUSH2 0x11F4 SWAP1 PUSH2 0x1020 JUMP JUMPDEST PUSH1 0x4 DUP5 ADD SWAP1 DUP2 SLOAD SWAP4 PUSH2 0x1206 DUP9 DUP7 PUSH2 0x1063 JUMP JUMPDEST PUSH1 0x3 DUP8 ADD SLOAD LT ISZERO PUSH2 0x1216 SWAP1 PUSH2 0x1070 JUMP JUMPDEST PUSH1 0x40 DUP1 MLOAD PUSH1 0x20 DUP2 ADD DUP10 DUP2 MSTORE PUSH12 0xFFFFFFFFFFFFFFFFFFFFFFFF NOT PUSH1 0x60 DUP9 SWAP1 SHL AND SWAP3 DUP3 ADD SWAP3 SWAP1 SWAP3 MSTORE PUSH1 0x54 DUP2 ADD DUP11 SWAP1 MSTORE PUSH1 0x74 DUP2 ADD DUP12 SWAP1 MSTORE CHAINID PUSH1 0x94 DUP1 DUP4 ADD SWAP2 SWAP1 SWAP2 MSTORE DUP2 MSTORE PUSH1 0x1F NOT SWAP2 SWAP1 PUSH2 0x1266 PUSH1 0xB4 DUP3 PUSH2 0xCFB JUMP JUMPDEST MLOAD SWAP1 KECCAK256 SWAP1 PUSH1 0x40 MLOAD SWAP1 DUP2 PUSH1 0x20 DUP2 ADD SWAP4 PUSH2 0x12A8 SWAP1 DUP6 PUSH1 0x3C SWAP2 PUSH32 0x19457468657265756D205369676E6564204D6573736167653A0A333200000000 DUP3 MSTORE PUSH1 0x1C DUP3 ADD MSTORE ADD SWAP1 JUMP JUMPDEST SUB SWAP1 DUP2 ADD DUP3 MSTORE PUSH2 0x12B8 SWAP1 DUP3 PUSH2 0xCFB JUMP JUMPDEST MLOAD SWAP1 KECCAK256 SWAP2 CALLDATASIZE SWAP1 PUSH2 0x12C7 SWAP3 PUSH2 0x10CE JUMP JUMPDEST PUSH2 0x12D0 SWAP2 PUSH2 0x193D JUMP JUMPDEST DUP5 SLOAD PUSH1 0x1 PUSH1 0x1 PUSH1 0xA0 SHL SUB SWAP5 SWAP2 DUP9 SWAP2 PUSH2 0x12ED SWAP2 DUP8 AND SWAP1 DUP8 AND EQ PUSH2 0x1105 JUMP JUMPDEST PUSH2 0x12F6 SWAP2 PUSH2 0x1063 JUMP JUMPDEST SWAP1 SSTORE PUSH1 0x4 SLOAD PUSH1 0x1 PUSH1 0x1 PUSH1 0xA0 SHL SUB AND PUSH1 0x1 PUSH1 0x1 PUSH1 0xA0 SHL SUB AND SWAP3 PUSH1 0x40 MLOAD PUSH4 0x313CE567 PUSH1 0xE0 SHL DUP2 MSTORE DUP1 DUP1 DUP6 DUP8 AND GAS SWAP3 PUSH1 0x4 SWAP2 PUSH1 0x20 SWAP5 STATICCALL SWAP1 DUP2 ISZERO PUSH2 0x8B7 JUMPI PUSH32 0x756AD05355EAEE75B04E423AE52915105C02D4A3FC70EADDF2D437BBE24A0FD2 SWAP6 PUSH2 0x1386 SWAP4 DUP6 SWAP3 PUSH1 0x0 SWAP5 PUSH2 0x13E5 JUMPI JUMPDEST POP DUP10 SWAP4 PUSH1 0xFF DUP2 AND PUSH1 0x6 DUP2 SUB PUSH2 0x1394 JUMPI JUMPDEST POP POP PUSH1 0x1 ADD SLOAD PUSH1 0x1 PUSH1 0x1 PUSH1 0xA0 SHL SUB AND JUMPDEST SWAP1 PUSH2 0x1453 JUMP JUMPDEST PUSH1 0x40 MLOAD SWAP5 DUP6 MSTORE AND SWAP3 PUSH1 0x20 SWAP1 LOG4 JUMP JUMPDEST PUSH2 0x1380 SWAP3 SWAP6 POP SWAP1 PUSH1 0x6 PUSH1 0x1 SWAP3 GT PUSH1 0x0 EQ PUSH2 0x13CA JUMPI PUSH2 0x13BC PUSH2 0x13B7 PUSH2 0x13C2 SWAP3 PUSH2 0x117B JUMP JUMPDEST PUSH2 0x118E JUMP JUMPDEST DUP13 PUSH2 0x119F JUMP JUMPDEST SWAP5 JUMPDEST SWAP2 PUSH2 0x1370 JUMP JUMPDEST PUSH2 0x13D9 PUSH2 0x13B7 PUSH2 0x13DF SWAP3 PUSH2 0x116A JUMP JUMPDEST DUP13 PUSH2 0xD60 JUMP JUMPDEST SWAP5 PUSH2 0x13C4 JUMP JUMPDEST PUSH2 0x1407 SWAP2 SWAP5 POP PUSH1 0x20 RETURNDATASIZE DUP2 GT PUSH2 0x140E JUMPI JUMPDEST PUSH2 0x13FF DUP2 DUP4 PUSH2 0xCFB JUMP JUMPDEST DUP2 ADD SWAP1 PUSH2 0x1145 JUMP JUMPDEST SWAP3 CODESIZE PUSH2 0x1360 JUMP JUMPDEST POP RETURNDATASIZE PUSH2 0x13F5 JUMP JUMPDEST PUSH1 0x0 PUSH1 0x4 DUP9 ADD SSTORE DUP2 SWAP1 SSTORE PUSH1 0x40 MLOAD SWAP1 DUP2 MSTORE PUSH32 0xC4A881808FE11209C7FD9FA8F3BB044229BD1DE8BB80DE1F0475BE1C2D0D14BB SWAP1 PUSH1 0x20 SWAP1 LOG2 DUP5 CODESIZE DUP1 PUSH2 0x11E0 JUMP JUMPDEST PUSH2 0x1507 SWAP2 PUSH1 0x0 DUP1 PUSH2 0xD8D SWAP7 SWAP6 PUSH1 0x40 MLOAD SWAP5 PUSH1 0x20 SWAP8 DUP9 DUP8 ADD SWAP6 PUSH4 0x23B872DD PUSH1 0xE0 SHL DUP8 MSTORE PUSH1 0x1 DUP1 PUSH1 0xA0 SHL SUB SWAP4 DUP5 DUP1 SWAP3 AND PUSH1 0x24 DUP11 ADD MSTORE AND PUSH1 0x44 DUP9 ADD MSTORE PUSH1 0x64 DUP8 ADD MSTORE PUSH1 0x64 DUP7 MSTORE PUSH2 0x149D DUP7 PUSH2 0xCC3 JUMP JUMPDEST AND SWAP3 PUSH1 0x40 MLOAD SWAP5 PUSH2 0x14AC DUP7 PUSH2 0xCDF JUMP JUMPDEST DUP8 DUP7 MSTORE PUSH32 0x5361666545524332303A206C6F772D6C6576656C2063616C6C206661696C6564 DUP9 DUP8 ADD MSTORE MLOAD SWAP1 DUP3 DUP6 GAS CALL RETURNDATASIZE ISZERO PUSH2 0x1534 JUMPI RETURNDATASIZE SWAP2 PUSH2 0x14EB DUP4 PUSH2 0x10B2 JUMP JUMPDEST SWAP3 PUSH2 0x14F9 PUSH1 0x40 MLOAD SWAP5 DUP6 PUSH2 0xCFB JUMP JUMPDEST DUP4 MSTORE RETURNDATASIZE PUSH1 0x0 DUP8 DUP6 ADD RETURNDATACOPY PUSH2 0x15FF JUMP JUMPDEST DUP1 MLOAD SWAP2 DUP3 ISZERO SWAP3 DUP4 ISZERO PUSH2 0x151C JUMPI JUMPDEST POP POP POP PUSH2 0x1554 JUMP JUMPDEST PUSH2 0x152C SWAP4 POP DUP3 ADD DUP2 ADD SWAP2 ADD PUSH2 0x153C JUMP JUMPDEST CODESIZE DUP1 DUP1 PUSH2 0x1514 JUMP JUMPDEST PUSH1 0x60 SWAP2 PUSH2 0x15FF JUMP JUMPDEST SWAP1 DUP2 PUSH1 0x20 SWAP2 SUB SLT PUSH2 0x130 JUMPI MLOAD DUP1 ISZERO ISZERO DUP2 SUB PUSH2 0x130 JUMPI SWAP1 JUMP JUMPDEST ISZERO PUSH2 0x155B JUMPI JUMP JUMPDEST PUSH1 0x40 MLOAD PUSH3 0x461BCD PUSH1 0xE5 SHL DUP2 MSTORE PUSH1 0x20 PUSH1 0x4 DUP3 ADD MSTORE PUSH1 0x2A PUSH1 0x24 DUP3 ADD MSTORE PUSH32 0x5361666545524332303A204552433230206F7065726174696F6E20646964206E PUSH1 0x44 DUP3 ADD MSTORE PUSH10 0x1BDD081CDD58D8D95959 PUSH1 0xB2 SHL PUSH1 0x64 DUP3 ADD MSTORE PUSH1 0x84 SWAP1 REVERT JUMPDEST ISZERO PUSH2 0x15BA JUMPI JUMP JUMPDEST PUSH1 0x40 MLOAD PUSH3 0x461BCD PUSH1 0xE5 SHL DUP2 MSTORE PUSH1 0x20 PUSH1 0x4 DUP3 ADD MSTORE PUSH1 0x1D PUSH1 0x24 DUP3 ADD MSTORE PUSH32 0x416464726573733A2063616C6C20746F206E6F6E2D636F6E7472616374000000 PUSH1 0x44 DUP3 ADD MSTORE PUSH1 0x64 SWAP1 REVERT JUMPDEST SWAP2 SWAP3 SWAP1 ISZERO PUSH2 0x1622 JUMPI POP DUP2 MLOAD ISZERO PUSH2 0x1613 JUMPI POP SWAP1 JUMP JUMPDEST PUSH2 0x161F SWAP1 EXTCODESIZE ISZERO ISZERO PUSH2 0x15B3 JUMP JUMPDEST SWAP1 JUMP JUMPDEST DUP3 MLOAD SWAP1 SWAP2 POP ISZERO PUSH2 0x1635 JUMPI POP DUP1 MLOAD SWAP1 PUSH1 0x20 ADD REVERT JUMPDEST PUSH1 0x40 MLOAD SWAP1 PUSH3 0x461BCD PUSH1 0xE5 SHL DUP3 MSTORE DUP2 PUSH1 0x20 DUP1 PUSH1 0x4 DUP4 ADD MSTORE DUP3 MLOAD SWAP1 DUP2 PUSH1 0x24 DUP5 ADD MSTORE PUSH1 0x0 SWAP4 JUMPDEST DUP3 DUP6 LT PUSH2 0x167B JUMPI POP POP PUSH1 0x44 SWAP3 POP PUSH1 0x0 DUP4 DUP3 DUP5 ADD ADD MSTORE PUSH1 0x1F DUP1 NOT SWAP2 ADD AND DUP2 ADD SUB ADD SWAP1 REVERT JUMPDEST DUP5 DUP2 ADD DUP3 ADD MLOAD DUP7 DUP7 ADD PUSH1 0x44 ADD MSTORE SWAP4 DUP2 ADD SWAP4 DUP6 SWAP4 POP PUSH2 0x1658 JUMP JUMPDEST SWAP9 SWAP5 SWAP7 SWAP8 SWAP4 SWAP2 SWAP1 SWAP6 SWAP3 PUSH1 0x5 SWAP7 PUSH2 0x16B4 PUSH1 0x1 DUP1 PUSH1 0xA0 SHL SUB DUP10 SLOAD AND CALLER EQ PUSH2 0xE50 JUMP JUMPDEST PUSH2 0x16BC PUSH2 0xFCA JUMP JUMPDEST DUP2 DUP2 EQ DUP1 PUSH2 0x17D7 JUMPI JUMPDEST DUP1 PUSH2 0x17CE JUMPI JUMPDEST DUP1 PUSH2 0x17C5 JUMPI JUMPDEST PUSH2 0x16DA SWAP1 PUSH2 0x17E0 JUMP JUMPDEST DUP1 ISZERO ISZERO DUP1 PUSH2 0x17BA JUMPI JUMPDEST PUSH2 0x16EC SWAP1 PUSH2 0x1824 JUMP JUMPDEST PUSH1 0x0 JUMPDEST DUP2 DUP2 LT PUSH2 0x170B JUMPI POP POP POP POP POP POP POP POP POP POP POP POP PUSH2 0xD8D PUSH1 0x1 DUP1 SSTORE JUMP JUMPDEST DUP1 DUP1 PUSH2 0x1719 DUP2 DUP16 DUP7 SWAP1 PUSH2 0x1874 JUMP JUMPDEST CALLDATALOAD DUP12 PUSH2 0x172F DUP3 PUSH1 0x0 MSTORE PUSH1 0x2 PUSH1 0x20 MSTORE PUSH1 0x40 PUSH1 0x0 KECCAK256 SWAP1 JUMP JUMPDEST PUSH1 0x1 DUP2 ADD SLOAD PUSH2 0x1748 SWAP1 PUSH1 0x1 PUSH1 0x1 PUSH1 0xA0 SHL SUB AND ISZERO ISZERO PUSH2 0xF0B JUMP JUMPDEST PUSH1 0x7 DUP2 ADD SLOAD PUSH1 0xFF AND PUSH2 0x1759 SWAP1 PUSH2 0xF4B JUMP JUMPDEST ADD SLOAD TIMESTAMP GT ISZERO PUSH2 0x1767 SWAP1 PUSH2 0xF8C JUMP JUMPDEST DUP14 DUP14 PUSH2 0x1774 DUP5 DUP10 DUP12 PUSH2 0x1874 JUMP JUMPDEST PUSH2 0x177D SWAP1 PUSH2 0x1884 JUMP JUMPDEST SWAP4 PUSH2 0x1788 SWAP2 DUP12 PUSH2 0x1874 JUMP JUMPDEST CALLDATALOAD SWAP4 PUSH2 0x1794 SWAP2 DUP12 PUSH2 0x1874 JUMP JUMPDEST CALLDATALOAD PUSH2 0x17A0 DUP6 DUP14 DUP14 PUSH2 0x188E JUMP JUMPDEST SWAP4 PUSH2 0x17AC SWAP6 SWAP2 SWAP4 PUSH2 0x11B2 JUMP JUMPDEST PUSH2 0x17B5 SWAP1 PUSH2 0x1865 JUMP JUMPDEST PUSH2 0x16EF JUMP JUMPDEST POP PUSH1 0x32 DUP2 GT ISZERO PUSH2 0x16E3 JUMP JUMPDEST POP DUP10 DUP8 EQ PUSH2 0x16D1 JUMP JUMPDEST POP DUP10 DUP10 EQ PUSH2 0x16CB JUMP JUMPDEST POP DUP9 DUP3 EQ PUSH2 0x16C5 JUMP JUMPDEST ISZERO PUSH2 0x17E7 JUMPI JUMP JUMPDEST PUSH1 0x40 MLOAD PUSH3 0x461BCD PUSH1 0xE5 SHL DUP2 MSTORE PUSH1 0x20 PUSH1 0x4 DUP3 ADD MSTORE PUSH1 0x15 PUSH1 0x24 DUP3 ADD MSTORE PUSH21 0x82E4E4C2F240D8CADCCEE8D040DAD2E6DAC2E8C6D PUSH1 0x5B SHL PUSH1 0x44 DUP3 ADD MSTORE PUSH1 0x64 SWAP1 REVERT JUMPDEST ISZERO PUSH2 0x182B JUMPI JUMP JUMPDEST PUSH1 0x40 MLOAD PUSH3 0x461BCD PUSH1 0xE5 SHL DUP2 MSTORE PUSH1 0x20 PUSH1 0x4 DUP3 ADD MSTORE PUSH1 0x12 PUSH1 0x24 DUP3 ADD MSTORE PUSH18 0x496E76616C69642062617463682073697A65 PUSH1 0x70 SHL PUSH1 0x44 DUP3 ADD MSTORE PUSH1 0x64 SWAP1 REVERT JUMPDEST PUSH1 0x0 NOT DUP2 EQ PUSH2 0xC86 JUMPI PUSH1 0x1 ADD SWAP1 JUMP JUMPDEST SWAP2 SWAP1 DUP2 LT ISZERO PUSH2 0x699 JUMPI PUSH1 0x5 SHL ADD SWAP1 JUMP JUMPDEST CALLDATALOAD PUSH2 0x161F DUP2 PUSH2 0x135 JUMP JUMPDEST SWAP2 SWAP1 DUP2 LT ISZERO PUSH2 0x699 JUMPI PUSH1 0x5 SHL DUP2 ADD CALLDATALOAD SWAP1 PUSH1 0x1E NOT DUP2 CALLDATASIZE SUB ADD DUP3 SLT ISZERO PUSH2 0x130 JUMPI ADD SWAP1 DUP2 CALLDATALOAD SWAP2 PUSH8 0xFFFFFFFFFFFFFFFF DUP4 GT PUSH2 0x130 JUMPI PUSH1 0x20 ADD DUP3 CALLDATASIZE SUB DUP2 SGT PUSH2 0x130 JUMPI SWAP2 SWAP1 JUMP JUMPDEST ISZERO PUSH2 0x18D7 JUMPI JUMP JUMPDEST PUSH1 0x40 MLOAD PUSH3 0x461BCD PUSH1 0xE5 SHL DUP2 MSTORE PUSH1 0x20 PUSH1 0x4 DUP3 ADD MSTORE PUSH1 0x17 PUSH1 0x24 DUP3 ADD MSTORE PUSH32 0x53657373696F6E20616C7265616479207265766F6B6564000000000000000000 PUSH1 0x44 DUP3 ADD MSTORE PUSH1 0x64 SWAP1 REVERT JUMPDEST SWAP1 DUP2 PUSH1 0x20 SWAP2 SUB SLT PUSH2 0x130 JUMPI MLOAD SWAP1 JUMP JUMPDEST PUSH1 0xFF PUSH1 0x1B SWAP2 AND ADD SWAP1 PUSH1 0xFF DUP3 GT PUSH2 0xC86 JUMPI JUMP JUMPDEST PUSH1 0x41 DUP3 MLOAD SUB PUSH2 0x19E3 JUMPI PUSH1 0x20 SWAP2 PUSH1 0x0 SWAP2 DUP3 SWAP2 DUP5 DUP2 ADD MLOAD SWAP3 PUSH1 0x60 PUSH1 0x40 DUP4 ADD MLOAD SWAP3 ADD MLOAD SWAP1 BYTE SWAP3 PUSH1 0x1B DUP5 LT PUSH2 0x19CC JUMPI JUMPDEST SWAP1 PUSH2 0x19AD SWAP2 PUSH2 0x1987 PUSH1 0xFF DUP7 AND PUSH1 0x1B DUP2 EQ SWAP1 DUP2 ISZERO PUSH2 0x19C1 JUMPI JUMPDEST POP PUSH2 0x1105 JUMP JUMPDEST PUSH1 0x40 MLOAD SWAP5 DUP6 SWAP5 DUP6 SWAP1 SWAP5 SWAP4 SWAP3 PUSH1 0xFF PUSH1 0x60 SWAP4 PUSH1 0x80 DUP5 ADD SWAP8 DUP5 MSTORE AND PUSH1 0x20 DUP4 ADD MSTORE PUSH1 0x40 DUP3 ADD MSTORE ADD MSTORE JUMP JUMPDEST DUP4 DUP1 MSTORE SUB SWAP1 PUSH1 0x1 GAS STATICCALL ISZERO PUSH2 0x8B7 JUMPI PUSH1 0x0 MLOAD SWAP1 JUMP JUMPDEST PUSH1 0x1C SWAP2 POP EQ CODESIZE PUSH2 0x1981 JUMP JUMPDEST SWAP3 SWAP1 PUSH2 0x19DA PUSH2 0x19AD SWAP3 PUSH2 0x192B JUMP JUMPDEST SWAP4 SWAP1 SWAP2 POP PUSH2 0x1969 JUMP JUMPDEST PUSH1 0x40 MLOAD PUSH3 0x461BCD PUSH1 0xE5 SHL DUP2 MSTORE PUSH1 0x20 PUSH1 0x4 DUP3 ADD MSTORE PUSH1 0x18 PUSH1 0x24 DUP3 ADD MSTORE PUSH32 0x496E76616C6964207369676E6174757265206C656E6774680000000000000000 PUSH1 0x44 DUP3 ADD MSTORE PUSH1 0x64 SWAP1 REVERT INVALID LOG2 PUSH5 0x6970667358 0x22 SLT KECCAK256 SHR PUSH29 0x79483D536BB3FB20CF3E5ED27009726B10C446F9AD9497717A1F3E9A4A 0xC6 PUSH5 0x736F6C6343 STOP ADDMOD EQ STOP CALLER "},"methodIdentifiers":{"createSession(address,uint256,uint256,uint256)":"14f81924","executeBatchWithSession(bytes32[],address[],uint256[],bytes32[],bytes[])":"45ba64f4","executeWithSession(bytes32,address,uint256,bytes32,bytes)":"91170e47","getSession(bytes32)":"39b240bd","getUserSessions(address)":"223715dd","getUserTokenAllowance(address)":"7f93faa3","owner()":"8da5cb5b","relayer()":"8406c079","renounceOwnership()":"715018a6","revokeSession(bytes32)":"a7fed385","sessions(bytes32)":"7dbd2832","setRelayer(address)":"6548e9bc","transferOwnership(address)":"f2fde38b","usdcToken()":"11eac855","userSessions(address,uint256)":"6d597d13"}}}}}