{"contracts/AuditProof.sol":{"AuditProof":{"abi":[{"inputs":[{"internalType":"address","name":"_treasury","type":"address"}],"stateMutability":"nonpayable","type":"constructor"},{"inputs":[],"name":"InvalidShortString","type":"error"},{"inputs":[{"internalType":"string","name":"str","type":"string"}],"name":"StringTooLong","type":"error"},{"anonymous":false,"inputs":[{"indexed":true,"internalType":"address","name":"auditor","type":"address"},{"indexed":false,"internalType":"bool","name":"trusted","type":"bool"}],"name":"AuditorUpdated","type":"event"},{"anonymous":false,"inputs":[],"name":"EIP712DomainChanged","type":"event"},{"anonymous":false,"inputs":[{"indexed":true,"internalType":"bytes32","name":"taskId","type":"bytes32"},{"indexed":true,"internalType":"address","name":"executor","type":"address"},{"indexed":false,"internalType":"uint256","name":"amount","type":"uint256"},{"indexed":false,"internalType":"uint256","name":"platformFee","type":"uint256"}],"name":"FundsReleased","type":"event"},{"anonymous":false,"inputs":[{"indexed":true,"internalType":"address","name":"previousOwner","type":"address"},{"indexed":true,"internalType":"address","name":"newOwner","type":"address"}],"name":"OwnershipTransferred","type":"event"},{"anonymous":false,"inputs":[{"indexed":false,"internalType":"address","name":"account","type":"address"}],"name":"Paused","type":"event"},{"anonymous":false,"inputs":[{"indexed":true,"internalType":"bytes32","name":"taskId","type":"bytes32"},{"indexed":true,"internalType":"address","name":"auditor","type":"address"},{"indexed":false,"internalType":"bytes32","name":"resultHash","type":"bytes32"},{"indexed":false,"internalType":"uint256","name":"quality","type":"uint256"}],"name":"ProofVerified","type":"event"},{"anonymous":false,"inputs":[{"indexed":true,"internalType":"bytes32","name":"taskId","type":"bytes32"},{"indexed":true,"internalType":"address","name":"executor","type":"address"},{"indexed":false,"internalType":"bytes32","name":"resultHash","type":"bytes32"}],"name":"ResultSubmitted","type":"event"},{"anonymous":false,"inputs":[{"indexed":true,"internalType":"bytes32","name":"taskId","type":"bytes32"},{"indexed":true,"internalType":"address","name":"creator","type":"address"},{"indexed":true,"internalType":"address","name":"executor","type":"address"},{"indexed":false,"internalType":"uint256","name":"amount","type":"uint256"},{"indexed":false,"internalType":"enum AuditProof.VerificationMode","name":"mode","type":"uint8"}],"name":"TaskCreated","type":"event"},{"anonymous":false,"inputs":[{"indexed":true,"internalType":"bytes32","name":"taskId","type":"bytes32"},{"indexed":true,"internalType":"address","name":"disputer","type":"address"},{"indexed":false,"internalType":"string","name":"reason","type":"string"}],"name":"TaskDisputed","type":"event"},{"anonymous":false,"inputs":[{"indexed":true,"internalType":"bytes32","name":"taskId","type":"bytes32"},{"indexed":true,"internalType":"address","name":"funder","type":"address"},{"indexed":false,"internalType":"uint256","name":"amount","type":"uint256"}],"name":"TaskFunded","type":"event"},{"anonymous":false,"inputs":[{"indexed":true,"internalType":"bytes32","name":"taskId","type":"bytes32"},{"indexed":true,"internalType":"address","name":"creator","type":"address"},{"indexed":false,"internalType":"uint256","name":"amount","type":"uint256"}],"name":"TaskRefunded","type":"event"},{"anonymous":false,"inputs":[{"indexed":false,"internalType":"address","name":"account","type":"address"}],"name":"Unpaused","type":"event"},{"inputs":[],"name":"DISPUTE_WINDOW","outputs":[{"internalType":"uint256","name":"","type":"uint256"}],"stateMutability":"view","type":"function"},{"inputs":[],"name":"MAX_AUDITORS","outputs":[{"internalType":"uint256","name":"","type":"uint256"}],"stateMutability":"view","type":"function"},{"inputs":[],"name":"MIN_QUALITY_SCORE","outputs":[{"internalType":"uint256","name":"","type":"uint256"}],"stateMutability":"view","type":"function"},{"inputs":[],"name":"RELEASE_TYPEHASH","outputs":[{"internalType":"bytes32","name":"","type":"bytes32"}],"stateMutability":"view","type":"function"},{"inputs":[{"internalType":"bytes32","name":"taskId","type":"bytes32"},{"internalType":"uint256","name":"quality","type":"uint256"}],"name":"confirmRelease","outputs":[],"stateMutability":"nonpayable","type":"function"},{"inputs":[{"internalType":"bytes32","name":"taskId","type":"bytes32"},{"internalType":"address","name":"executor","type":"address"},{"internalType":"address","name":"token","type":"address"},{"internalType":"uint256","name":"amount","type":"uint256"},{"internalType":"enum AuditProof.VerificationMode","name":"mode","type":"uint8"},{"internalType":"bytes32","name":"expectedProofHash","type":"bytes32"},{"internalType":"address[]","name":"auditors","type":"address[]"},{"internalType":"uint256","name":"requiredSignatures","type":"uint256"},{"internalType":"uint256","name":"deadline","type":"uint256"}],"name":"createTask","outputs":[{"internalType":"bytes32","name":"","type":"bytes32"}],"stateMutability":"nonpayable","type":"function"},{"inputs":[],"name":"defaultPlatformFeeRate","outputs":[{"internalType":"uint256","name":"","type":"uint256"}],"stateMutability":"view","type":"function"},{"inputs":[{"internalType":"bytes32","name":"taskId","type":"bytes32"},{"internalType":"string","name":"reason","type":"string"}],"name":"disputeTask","outputs":[],"stateMutability":"nonpayable","type":"function"},{"inputs":[],"name":"eip712Domain","outputs":[{"internalType":"bytes1","name":"fields","type":"bytes1"},{"internalType":"string","name":"name","type":"string"},{"internalType":"string","name":"version","type":"string"},{"internalType":"uint256","name":"chainId","type":"uint256"},{"internalType":"address","name":"verifyingContract","type":"address"},{"internalType":"bytes32","name":"salt","type":"bytes32"},{"internalType":"uint256[]","name":"extensions","type":"uint256[]"}],"stateMutability":"view","type":"function"},{"inputs":[{"internalType":"address","name":"token","type":"address"},{"internalType":"uint256","name":"amount","type":"uint256"}],"name":"emergencyWithdraw","outputs":[],"stateMutability":"nonpayable","type":"function"},{"inputs":[{"internalType":"bytes32","name":"taskId","type":"bytes32"}],"name":"fundTask","outputs":[],"stateMutability":"payable","type":"function"},{"inputs":[{"internalType":"bytes32","name":"taskId","type":"bytes32"}],"name":"getTask","outputs":[{"components":[{"internalType":"bytes32","name":"taskId","type":"bytes32"},{"internalType":"address","name":"creator","type":"address"},{"internalType":"address","name":"executor","type":"address"},{"internalType":"address","name":"token","type":"address"},{"internalType":"uint256","name":"amount","type":"uint256"},{"internalType":"uint256","name":"platformFee","type":"uint256"},{"internalType":"enum AuditProof.VerificationMode","name":"mode","type":"uint8"},{"internalType":"bytes32","name":"expectedProofHash","type":"bytes32"},{"internalType":"uint256","name":"requiredSignatures","type":"uint256"},{"internalType":"enum AuditProof.TaskStatus","name":"status","type":"uint8"},{"internalType":"uint256","name":"createdAt","type":"uint256"},{"internalType":"uint256","name":"deadline","type":"uint256"},{"internalType":"uint256","name":"releasedAt","type":"uint256"},{"internalType":"bytes32","name":"submittedResultHash","type":"bytes32"},{"internalType":"uint256","name":"qualityScore","type":"uint256"}],"internalType":"struct AuditProof.TaskConfig","name":"","type":"tuple"}],"stateMutability":"view","type":"function"},{"inputs":[{"internalType":"bytes32","name":"taskId","type":"bytes32"}],"name":"getTaskAuditors","outputs":[{"internalType":"address[]","name":"","type":"address[]"}],"stateMutability":"view","type":"function"},{"inputs":[{"internalType":"bytes32","name":"taskId","type":"bytes32"}],"name":"getTaskSignatures","outputs":[{"components":[{"internalType":"address","name":"signer","type":"address"},{"internalType":"bytes32","name":"resultHash","type":"bytes32"},{"internalType":"uint256","name":"quality","type":"uint256"},{"internalType":"uint256","name":"timestamp","type":"uint256"}],"internalType":"struct AuditProof.SignatureRecord[]","name":"","type":"tuple[]"}],"stateMutability":"view","type":"function"},{"inputs":[{"internalType":"bytes32","name":"","type":"bytes32"},{"internalType":"address","name":"","type":"address"}],"name":"hasSignedTask","outputs":[{"internalType":"bool","name":"","type":"bool"}],"stateMutability":"view","type":"function"},{"inputs":[{"internalType":"bytes32","name":"taskId","type":"bytes32"},{"internalType":"address","name":"auditor","type":"address"}],"name":"isAuditorForTask","outputs":[{"internalType":"bool","name":"","type":"bool"}],"stateMutability":"view","type":"function"},{"inputs":[],"name":"nonce","outputs":[{"internalType":"uint256","name":"","type":"uint256"}],"stateMutability":"view","type":"function"},{"inputs":[],"name":"owner","outputs":[{"internalType":"address","name":"","type":"address"}],"stateMutability":"view","type":"function"},{"inputs":[],"name":"pause","outputs":[],"stateMutability":"nonpayable","type":"function"},{"inputs":[],"name":"paused","outputs":[{"internalType":"bool","name":"","type":"bool"}],"stateMutability":"view","type":"function"},{"inputs":[],"name":"platformTreasury","outputs":[{"internalType":"address","name":"","type":"address"}],"stateMutability":"view","type":"function"},{"inputs":[{"internalType":"bytes32","name":"taskId","type":"bytes32"}],"name":"refundExpired","outputs":[],"stateMutability":"nonpayable","type":"function"},{"inputs":[],"name":"renounceOwnership","outputs":[],"stateMutability":"nonpayable","type":"function"},{"inputs":[{"internalType":"bytes32","name":"taskId","type":"bytes32"},{"internalType":"bool","name":"releaseToExecutor","type":"bool"},{"internalType":"uint256","name":"executorShare","type":"uint256"}],"name":"resolveDispute","outputs":[],"stateMutability":"nonpayable","type":"function"},{"inputs":[{"internalType":"uint256","name":"rate","type":"uint256"}],"name":"setDefaultPlatformFeeRate","outputs":[],"stateMutability":"nonpayable","type":"function"},{"inputs":[{"internalType":"address","name":"treasury","type":"address"}],"name":"setPlatformTreasury","outputs":[],"stateMutability":"nonpayable","type":"function"},{"inputs":[{"internalType":"address","name":"auditor","type":"address"},{"internalType":"bool","name":"trusted","type":"bool"}],"name":"setTrustedAuditor","outputs":[],"stateMutability":"nonpayable","type":"function"},{"inputs":[{"internalType":"bytes32","name":"taskId","type":"bytes32"},{"internalType":"bytes32","name":"resultHash","type":"bytes32"}],"name":"submitResult","outputs":[],"stateMutability":"nonpayable","type":"function"},{"inputs":[{"internalType":"bytes32","name":"","type":"bytes32"},{"internalType":"uint256","name":"","type":"uint256"}],"name":"taskAuditors","outputs":[{"internalType":"address","name":"","type":"address"}],"stateMutability":"view","type":"function"},{"inputs":[{"internalType":"bytes32","name":"","type":"bytes32"},{"internalType":"uint256","name":"","type":"uint256"}],"name":"taskSignatures","outputs":[{"internalType":"address","name":"signer","type":"address"},{"internalType":"bytes32","name":"resultHash","type":"bytes32"},{"internalType":"uint256","name":"quality","type":"uint256"},{"internalType":"uint256","name":"timestamp","type":"uint256"}],"stateMutability":"view","type":"function"},{"inputs":[{"internalType":"bytes32","name":"","type":"bytes32"}],"name":"tasks","outputs":[{"internalType":"bytes32","name":"taskId","type":"bytes32"},{"internalType":"address","name":"creator","type":"address"},{"internalType":"address","name":"executor","type":"address"},{"internalType":"address","name":"token","type":"address"},{"internalType":"uint256","name":"amount","type":"uint256"},{"internalType":"uint256","name":"platformFee","type":"uint256"},{"internalType":"enum AuditProof.VerificationMode","name":"mode","type":"uint8"},{"internalType":"bytes32","name":"expectedProofHash","type":"bytes32"},{"internalType":"uint256","name":"requiredSignatures","type":"uint256"},{"internalType":"enum AuditProof.TaskStatus","name":"status","type":"uint8"},{"internalType":"uint256","name":"createdAt","type":"uint256"},{"internalType":"uint256","name":"deadline","type":"uint256"},{"internalType":"uint256","name":"releasedAt","type":"uint256"},{"internalType":"bytes32","name":"submittedResultHash","type":"bytes32"},{"internalType":"uint256","name":"qualityScore","type":"uint256"}],"stateMutability":"view","type":"function"},{"inputs":[{"internalType":"address","name":"newOwner","type":"address"}],"name":"transferOwnership","outputs":[],"stateMutability":"nonpayable","type":"function"},{"inputs":[{"internalType":"address","name":"","type":"address"}],"name":"trustedAuditors","outputs":[{"internalType":"bool","name":"","type":"bool"}],"stateMutability":"view","type":"function"},{"inputs":[],"name":"unpause","outputs":[],"stateMutability":"nonpayable","type":"function"},{"inputs":[{"internalType":"bytes32","name":"taskId","type":"bytes32"},{"internalType":"bytes32","name":"resultHash","type":"bytes32"},{"internalType":"uint256","name":"quality","type":"uint256"},{"internalType":"bytes","name":"signature","type":"bytes"}],"name":"verifyResult","outputs":[],"stateMutability":"nonpayable","type":"function"},{"stateMutability":"payable","type":"receive"}],"evm":{"bytecode":{"linkReferences":{},"object":"61016034620001f157601f6200380138819003918201601f19168301926001600160401b0392909183851183861017620001f6578160209284926040978852833981010312620001f157516001600160a01b0380821691829003620001f1578351916200006c836200020c565b600a835260208301916920bab234ba283937b7b360b11b8352855162000092816200020c565b600181526020810196603160f81b8852600097885460018060a01b03199433868316178b553391167f8be0079c531659141344cd1fd0a4f28419497f9722a3daafe3b4186f6b6457e08b80a36001805560ff1960025416600255620000f78762000228565b95610120968752620001098462000402565b97610140988952519020928360e0525190209061010098828a524660a05281519260208401947f8b73c3c69bb8fe3d512ecc4cf759cc79239f7b179b0ffacaa9a75d522b39400f86528385015260608401524660808401523060a084015260a0835260c0830198838a10908a1117620001dd57508790525190206080523060c0526064600b55600a541617600a556132339384620005ce853960805184613007015260a051846130c2015260c05184612fd1015260e051846130560152518361307c01525182611367015251816113900152f35b634e487b7160e01b81526041600452602490fd5b600080fd5b634e487b7160e01b600052604160045260246000fd5b604081019081106001600160401b03821117620001f657604052565b80516020919082811015620002c7575090601f8251116200026657808251920151908083106200025757501790565b82600019910360031b1b161790565b90604051809263305a27a960e01b82528060048301528251908160248401526000935b828510620002ad575050604492506000838284010152601f80199101168101030190fd5b848101820151868601604401529381019385935062000289565b6001600160401b038111620001f6576003928354926001938481811c91168015620003f7575b83821014620003e157601f8111620003a8575b5081601f84116001146200033f575092829391839260009462000333575b50501b9160001990841b1c191617905560ff90565b0151925038806200031e565b919083601f1981168760005284600020946000905b888383106200038d575050501062000374575b505050811b01905560ff90565b015160001983861b60f8161c1916905538808062000367565b85870151885590960195948501948793509081019062000354565b8560005284601f84600020920160051c820191601f860160051c015b828110620003d457505062000300565b60008155018590620003c4565b634e487b7160e01b600052602260045260246000fd5b90607f1690620002ed565b8051602091908281101562000492575090601f8251116200043157808251920151908083106200025757501790565b90604051809263305a27a960e01b82528060048301528251908160248401526000935b82851062000478575050604492506000838284010152601f80199101168101030190fd5b848101820151868601604401529381019385935062000454565b6001600160401b038111620001f6576004928354926001938481811c91168015620005c2575b83821014620005ad57601f811162000574575b5081601f84116001146200050b5750928293918392600094620004ff575b50501b916000199060031b1c191617905560ff90565b015192503880620004e9565b919083601f1981168760005284600020946000905b888383106200055957505050106200053f57505050811b01905560ff90565b015160001960f88460031b161c1916905538808062000367565b85870151885590960195948501948793509081019062000520565b8560005284601f84600020920160051c820191601f860160051c015b828110620005a0575050620004cb565b6000815501859062000590565b602286634e487b7160e01b6000525260246000fd5b90607f1690620004b856fe608080604052600436101561001d575b50361561001b57600080fd5b005b60003560e01c908162a76770146126ba5750806308ee397014611f755780630902df9114611f3a5780630bc963a614611efb57806315a2903514611cd6578063318d328c14611b535780633f4ba83a14611abf578063496a788514611a07578063499d13a3146118865780635c975abb146118635780635f150212146117fe578063715018a6146117a557806376add9ef146115345780637cd86d60146114b45780638456cb591461145a57806384b0196e14611351578063870ce73e14611321578063894562b1146112be5780638da5cb5b1461129557806395ccea671461122d5780639bb88cf214611211578063a10aa5c114611109578063a1532114146110bf578063a2d09ae8146110a3578063affed0e014611085578063bc98fdb314611038578063cc3e049b14610e52578063d4f0ba1414610dd5578063d91e924114610a92578063dac656a914610862578063e138818c14610839578063e579f50014610749578063ef25116114610291578063f2fde38b146101cd5763f585dc57146101aa573861000f565b346101c85760003660031901126101c8576020604051620151808152f35b600080fd5b346101c85760203660031901126101c8576101e6612702565b6101ee6127f7565b6001600160a01b0390811690811561023d57600054826001600160601b0360a01b821617600055167f8be0079c531659141344cd1fd0a4f28419497f9722a3daafe3b4186f6b6457e0600080a3005b60405162461bcd60e51b815260206004820152602660248201527f4f776e61626c653a206e6577206f776e657220697320746865207a65726f206160448201526564647265737360d01b6064820152608490fd5b346101c8576101203660031901126101c8576102ab612718565b6044356001600160a01b03811681036101c857600360843510156101c8576001600160401b038060c435116101c85736602360c4350112156101c85760c43560040135116101c85736602460c4356004013560051b60c4350101116101c857610312612b1a565b6004356000526005602052604060002054610716576001600160a01b038216156106de57606435156106a857426101043511156106705760006084356001036105585760a43515610523575b61271061036f600b54606435612af8565b0460043560005260056020526040600020926004358455600184016001600160601b0360a01b9033828254161790556002850160018060a01b03871682825416179055600385019160018060a01b0316908254161790556064356004840155600583015561050d576006810160ff19908181541660ff6084351617905560a435600783015560e43560088301556009820190815416905542600a820155600b6101043591015560005b60c435600401358110610480575060405190606435825261043e6020830160843561272e565b6001600160a01b0316903390600435907f66315787c10ac5c652c4db6a6870fde4cf73a97c2974b9e04763dc351d36f96190604090a460206040516004358152f35b600435600052600660205260406000209060248160051b60c43501013560018060a01b0381168091036101c857825492600160401b8410156104f757836104cf9160016104f2960181556127df565b81546001600160a01b0360039290921b91821b191692901b919091179055612b0b565b610418565b634e487b7160e01b600052604160045260246000fd5b634e487b7160e01b600052602160045260246000fd5b60405162461bcd60e51b815260206004820152600d60248201526c12185cda081c995c5d5a5c9959609a1b6044820152606490fd5b5060006084356105c55760c435600401351515806105b4575b1561057c575b61035e565b60405162461bcd60e51b815260206004820152601060248201526f496e76616c69642061756469746f727360801b6044820152606490fd5b50600a60c435600401351115610571565b50600060026084350361035e5760e4358060c435600401351061062b576105775760405162461bcd60e51b815260206004820152601960248201527f4e656564206174206c656173742031207369676e6174757265000000000000006044820152606490fd5b60405162461bcd60e51b815260206004820152601760248201527f496e76616c6964206d756c746973696720636f6e6669670000000000000000006044820152606490fd5b60405162461bcd60e51b815260206004820152601060248201526f496e76616c696420646561646c696e6560801b6044820152606490fd5b60405162461bcd60e51b815260206004820152600e60248201526d125b9d985b1a5908185b5bdd5b9d60921b6044820152606490fd5b60405162461bcd60e51b815260206004820152601060248201526f24b73b30b634b21032bc32b1baba37b960811b6044820152606490fd5b60405162461bcd60e51b815260206004820152600b60248201526a5461736b2065786973747360a81b6044820152606490fd5b346101c85760203660031901126101c857600435600052600560205260406000208054600160a01b60019003918260018201541692806002830154169060038301541660048301546005840154600685015460ff166007860154600887015491600988015460ff1693600a89015495600b8a015497600c8b015499600d8c01549b600e01549c6040519e8f91825260208201526040015260608d015260808c015260a08b015260c08a016107fc9161272e565b60e089015261010088015261012087016108159161273b565b6101408601526101608501526101808401526101a08301526101c08201526101e090f35b346101c85760003660031901126101c857600a546040516001600160a01b039091168152602090f35b346101c85761087036612748565b90610879612b1a565b806000526005602052604060002061089381541515612b5e565b60ff600960018060a01b03926108b08460018301541633146130e8565b015416600781101561050d578060026108d29214908115610a87575b50612b9b565b6108da612bf2565b816000526005602052604060002092600984019182549160ff8316600781101561050d5760048114610a4f57600614610a1757600360ff19809416178455600e860155600385018181541680156000146109d057505060008080808460028a01541660048a0154908282156109c7575bf1156109b257600080808084600a541660058a0154908282156109be575bf1156109b2576000805160206131de8339815191529260046040935b82541617905542600c860155600285015416936005600482015491015482519182526020820152a360018055005b6040513d6000823e3d90fd5b506108fc610968565b506108fc61094a565b604093610a12846000805160206131de8339815191529794610a006004958c878560028301541691015491613122565b541685600a541660058b015491613122565b610984565b60405162461bcd60e51b815260206004820152601060248201526f105b1c9958591e481c99599d5b99195960821b6044820152606490fd5b60405162461bcd60e51b815260206004820152601060248201526f105b1c9958591e481c995b19585cd95960821b6044820152606490fd5b6001915014856108cc565b346101c85760403660031901126101c857600435602490813591610ab4612b1a565b8160005260209260058452604060002090610ad182541515612b5e565b600982019081549260ff84166007811015610d2457600103610d9f5760028101546001600160a01b03939084163303610d6c57600b8201544211610d395782600d830155600260ff19809616179055604051828152867f78842de91feb7c01fdd3c6ba92ffa4a4d9992388d8718b740b16757bb47f8d5a893393a360ff6006820154166003811015610d2457600114610b6657005b6007015414610b7157005b610b79612bf2565b8360005260058552604060002090600982019384549060ff82166007811015610d0f5760048114610cd857600614610ca257508316600390811785556064600e84015582018054821680610c5c575050600080808084600287015416600487015490828215610c53575bf1156109b257600080808084600a5416600587015490828215610c4a575bf1156109b2576000805160206131de8339815191529360046040945b82541617905542600c8301556002820154169460056004830154920154908351928352820152a360018055005b506108fc610c01565b506108fc610be3565b604094610c9d846000805160206131de8339815191529894610c8b6004958360028b015416878b015491613122565b541685600a5416600588015491613122565b610c1d565b8760106064926040519262461bcd60e51b845260048401528201526f105b1c9958591e481c99599d5b99195960821b6044820152fd5b60405162461bcd60e51b8152600481018a90526010818401526f105b1c9958591e481c995b19585cd95960821b6044820152606490fd5b50634e487b7160e01b60009081526021600452fd5b85634e487b7160e01b60005260216004526000fd5b60405162461bcd60e51b815260048101899052600c818801526b15185cdac8195e1c1a5c995960a21b6044820152606490fd5b60405162461bcd60e51b815260048101899052600c818801526b2737ba1032bc32b1baba37b960a11b6044820152606490fd5b60405162461bcd60e51b815260048101889052600f818701526e15185cdac81b9bdd08199d5b991959608a1b6044820152606490fd5b346101c85760403660031901126101c857610dee612702565b7f586ddd46d982976bec1e4d9a834af85e45533be873df97fdba8c75e9e2f656726020610e19612790565b92610e226127f7565b60018060a01b031692836000526009825260406000209015159060ff1981541660ff8316179055604051908152a2005b346101c85760203660031901126101c857600435610e6e612b1a565b610e76612bf2565b806000526005602052604060002090610e9182541515612b5e565b6001820180546001600160a01b0390811693909190610eb13386146130e8565b600b81015462015180810180911161102257421115610fef57600981019485549160ff8316600781101561050d5760018114908115610fe4575b5015610faf57600381600698610f0b600489950154600584015490612bd8565b998a9660ff19161790550154168015600014610f7a57505060008080809386865416828215610f71575bf1156109b2577ff3a7ab0ccbad7f367b7892962016c155d1ce76a3e6fdd0420b5e749763acbda7916020915b541693604051908152a360018055005b506108fc610f35565b7ff3a7ab0ccbad7f367b7892962016c155d1ce76a3e6fdd0420b5e749763acbda7949260209492610faa92613122565b610f61565b60405162461bcd60e51b815260206004820152600d60248201526c10d85b9b9bdd081c99599d5b99609a1b6044820152606490fd5b600291501488610eeb565b60405162461bcd60e51b815260206004820152600b60248201526a139bdd08195e1c1a5c995960aa1b6044820152606490fd5b634e487b7160e01b600052601160045260246000fd5b346101c85760403660031901126101c857611051612718565b600435600052600860205260406000209060018060a01b0316600052602052602060ff604060002054166040519015158152f35b346101c85760003660031901126101c8576020600c54604051908152f35b346101c85760003660031901126101c8576020604051603c8152f35b346101c8576110cd36612748565b906000526006602052604060002080548210156101c8576020916110f0916127df565b905460405160039290921b1c6001600160a01b03168152f35b346101c8576020806003193601126101c8576004356000526007815260406000209081546001600160401b0381116104f7576040519061114e838260051b01836128bc565b8082528282018094600052836000206000915b8383106111ca5760408051878152865181890181905289928201908960005b82811061118d5784840385f35b855180516001600160a01b031685528083015185840152604080820151908601526060908101519085015294810194608090930192600101611180565b6004866001926040516111dc8161284f565b848060a01b03865416815284860154838201526002860154604082015260038601546060820152815201920192019190611161565b346101c85760003660031901126101c8576020604051600a8152f35b346101c85760403660031901126101c857611246612702565b602435906112526127f7565b6001600160a01b039081168061128657506000808093819382541682821561127d575bf1156109b257005b506108fc611275565b61001b92916000541690613122565b346101c85760003660031901126101c8576000546040516001600160a01b039091168152602090f35b346101c85760203660031901126101c8576004356112da6127f7565b6103e881116112e857600b55005b60405162461bcd60e51b815260206004820152601160248201527008ccaca40e4c2e8ca40e8dede40d0d2ced607b1b6044820152606490fd5b346101c85760403660031901126101c857602061134761133f612718565b600435613162565b6040519015158152f35b346101c85760003660031901126101c85761138b7f00000000000000000000000000000000000000000000000000000000000000006128dd565b6113b47f0000000000000000000000000000000000000000000000000000000000000000612a07565b6040516020808201928284106001600160401b038511176104f757918161140d85946113ff979660405260008452604051978897600f60f81b895260e0858a015260e089019061279f565b90878203604089015261279f565b91466060870152306080870152600060a087015285830360c0870152519182815201929160005b82811061144357505050500390f35b835185528695509381019392810192600101611434565b346101c85760003660031901126101c8576114736127f7565b61147b612b1a565b600160ff1960025416176002557f62e78cea01bee320cd4e420270b5ea74000d11b0c9f74754ebdbfc544b05a2586020604051338152a1005b346101c85760203660031901126101c8576114cd612702565b6114d56127f7565b6001600160a01b031680156114fc576001600160601b0360a01b600a541617600a55600080f35b60405162461bcd60e51b815260206004820152601060248201526f496e76616c696420747265617375727960801b6044820152606490fd5b346101c85760603660031901126101c85761154d612790565b6044356115586127f7565b6004356000526005602052604060002090600982019260ff845416600781101561050d57600503611771576127109081831161173c57156116ce576115ae906115a660048501549384612af8565b048092612be5565b6003830180546001600160a01b0393919084168061166c57505080158015611640575b505080158015611614575b5050600080809360058294600a54169101549082821561160b575bf1156109b2575b805460ff19166004179055005b506108fc6115f7565b6000808093819386600189015416908390611637575bf1156109b25783806115dc565b506108fc61162a565b600080809381938760028a015416908390611663575bf1156109b25784806115d1565b506108fc611656565b9061169695938592846005956116b6575b50508061169b575b50541692600a541691015491613122565b6115fe565b6116b090838354168460018801541690613122565b87611685565b6116c7918560028901541690613122565b888061167d565b50506116e36004820154600583015490612bd8565b600382015490916001600160a01b039182168061172a575060008093819360018394015416828215611721575bf16115fe576040513d6000823e3d90fd5b506108fc611710565b90916001611696949301541690613122565b60405162461bcd60e51b815260206004820152600d60248201526c496e76616c696420736861726560981b6044820152606490fd5b60405162461bcd60e51b815260206004820152600c60248201526b139bdd08191a5cdc1d5d195960a21b6044820152606490fd5b346101c85760003660031901126101c8576117be6127f7565b600080546001600160a01b0319811682556001600160a01b03167f8be0079c531659141344cd1fd0a4f28419497f9722a3daafe3b4186f6b6457e08280a3005b346101c85761180c36612748565b906000526007602052604060002080548210156101c85760809161182f9161275e565b5060018060a01b03815416906001810154906003600282015491015491604051938452602084015260408301526060820152f35b346101c85760003660031901126101c857602060ff600254166040519015158152f35b346101c85760403660031901126101c8576004356024356001600160401b0381116101c8576118b99036906004016126d5565b91906118c3612b1a565b81600052600560205260406000206118dd81541515612b5e565b6001810154336001600160a01b03918216149081156119f7575b50156119c0576009019081549160ff8316600781101561050d57600281149081156119b5575b501561197f5760057faac12699bb97ab2106984556f30519ff4e43b5ded12822c577d2371ac7b8a5cc9360ff191617905583604051916020835281602084015260408301376000604085830101526040813395601f80199101168101030190a3005b60405162461bcd60e51b815260206004820152600e60248201526d43616e6e6f74206469737075746560901b6044820152606490fd5b60039150148661191d565b60405162461bcd60e51b815260206004820152600f60248201526e139bdd081c185c9d1a58da5c185b9d608a1b6044820152606490fd5b90506002820154163314856118f7565b346101c8576020806003193601126101c85760043560005260068152604060002060405190818382549182815201908192600052846000209060005b86828210611aa2578686611a59828803836128bc565b604051928392818401908285525180915260408401929160005b828110611a8257505050500390f35b83516001600160a01b031685528695509381019392810192600101611a73565b83546001600160a01b031685529093019260019283019201611a43565b346101c85760003660031901126101c857611ad86127f7565b60025460ff811615611b175760ff19166002557f5db9ee0a495bf2e6ff9c91a7834c1ba4fdd244a5e8aa4e537bd38aeae4b073aa6020604051338152a1005b60405162461bcd60e51b815260206004820152601460248201527314185d5cd8589b194e881b9bdd081c185d5cd95960621b6044820152606490fd5b60203660031901126101c857600435611b6a612b1a565b611b72612bf2565b806000526005602052604060002090611b8d82541515612b5e565b6009820160ff815416600781101561050d57611ba99015612b9b565b611bbc6004840154600585015490612bd8565b6003909301546001600160a01b031680611c885750823410611c5057823411611c1d575b600160ff198254161790556040519182527f445261f2d48e762c283603166fc492190fa0fe097281e8169f243b94077aafcf60203393a360018055005b6000808080611c2c8734612be5565b818115611c47575b3390f1611be0576040513d6000823e3d90fd5b506108fc611c34565b60405162461bcd60e51b815260206004820152601060248201526f092dce6eaccccd2c6d2cadce8408aa8960831b6044820152606490fd5b6040516323b872dd60e01b60208201523360248201523060448201526064808201869052815260a08101916001600160401b038311828410176104f757611cd192604052612c48565b611be0565b346101c85760203660031901126101c85760006101c0604051611cf88161286a565b8281528260208201528260408201528260608201528260808201528260a08201528260c08201528260e08201528261010082015282610120820152826101408201528261016082015282610180820152826101a0820152015260043560005260056020526040600020604051611d6d8161286a565b8154815260018201546001600160a01b039081166020830152600283015481166040830152600380840154909116606083015260048301546080830152600583015460a0830152600683015460ff169081101561050d5760c0820152600782015460e0820152600882015461010082015260ff600983015416600781101561050d576101e092600e91610120840152600a810154610140840152600b810154610160840152600c810154610180840152600d8101546101a084015201546101c08201526101c0604051918051835260018060a01b03602082015116602084015260018060a01b03604082015116604084015260018060a01b0360608201511660608401526080810151608084015260a081015160a0840152611e9760c082015160c085019061272e565b60e081015160e0840152610100810151610100840152611ec161012082015161012085019061273b565b6101408101516101408401526101608101516101608401526101808101516101808401526101a08101516101a084015201516101c0820152f35b346101c85760203660031901126101c8576001600160a01b03611f1c612702565b166000526009602052602060ff604060002054166040519015158152f35b346101c85760003660031901126101c85760206040517f5bd933b273f51d3761bf0a918a4105ed3e1e97df586fbdfeea9277d229fc60078152f35b346101c85760803660031901126101c8576064356001600160401b0381116101c857611fa59036906004016126d5565b611fad612b1a565b6004356000526005602052604060002091611fca83541515612b5e565b60ff600984015416600781101561050d5760020361268557600435600052600860205260406000203360005260205260ff6040600020541661264f57606460443511612618576042600c5461201e81612b0b565b600c55604051907f5bd933b273f51d3761bf0a918a4105ed3e1e97df586fbdfeea9277d229fc6007602083015260043560408301526024356060830152604435608083015260a082015260a0815261207581612886565b60208151910120612084612fce565b906040519161190160f01b835260028301526022820152206120a583612add565b906120b360405192836128bc565b83825236848401116101c85760006020856120e1966120d9968387013784010152612f07565b919091612e03565b60006004356000526006602052604060002060ff600685015416600381101561050d57801590811561260d575b506125b1575b506001600160a01b03821660009081526009602052604090205460ff166125a9575b156125735760043560008181526008602090815260408083206001600160a01b03861684528252808320805460ff19166001179055928252600790528190209051906121818261284f565b6001600160a01b0383168252602435602083015260443560408301524260608301528054600160401b8110156104f7576121c09160018201815561275e565b91909161255d57606060039160018060a01b038151166001600160601b0360a01b85541617845560208101516001850155604081015160028501550151910155604051906024358252604435602083015260018060a01b0316907fac0b260ca42965438740b414c41f2147445dccac087c386036c4115fa9ff1b00604060043592a360ff600682015416600381101561050d57806123b8575050603c604435101561226757005b61226f612bf2565b6004356000526005602052604060002060098101805460ff8116600781101561050d5760048114610a4f57600614610a175760ff191660039081178255604435600e840155820180546001600160a01b03169081612376575050600080808060018060a01b0360028701541660048701549082821561236d575bf1156109b257600080808060018060a01b03600a5416600587015490828215612364575bf1156109b2575b600460ff1982541617905542600c82015560018060a01b03600282015416906005600482015491015460405191825260208201526000805160206131de833981519152604060043592a360018055005b506108fc61230d565b506108fc6122e9565b600284015460048501546123b393612397926001600160a01b031690613122565b54600a546005850154916001600160a01b039182169116613122565b612314565b6002146123c157005b6004356000526007602052600860406000205491015411156123df57005b6000805b6004356000526007602052604060002080548310156124245761241e91600261240f856124189461275e565b50015490612bd8565b91612b0b565b906123e3565b50905060043560005260076020526040600020549081156125475704603c81101561244b57005b612453612bf2565b60043560005260056020526040600020906009820190815460ff8116600781101561050d5760048114610a4f57600614610a175760ff191660039081178355600e840191909155820180546001600160a01b03169081612376575050600080808060018060a01b0360028701541660048701549082821561236d57f1156109b257600080808060018060a01b03600a541660058701549082821561236457f1156109b257600460ff1982541617905542600c82015560018060a01b03600282015416906005600482015491015460405191825260208201526000805160206131de833981519152604060043592a360018055005b634e487b7160e01b600052601260045260246000fd5b634e487b7160e01b600052600060045260246000fd5b60405162461bcd60e51b815260206004820152600e60248201526d24b73b30b634b21039b4b3b732b960911b6044820152606490fd5b506001612136565b8054906001600160a01b038481169160005b8481106125d4575b50505050612114565b83836125e083856127df565b90549060031b1c16146125fb576125f690612b0b565b6125c3565b505050505050600183808080806125cb565b60029150148561210e565b60405162461bcd60e51b815260206004820152600f60248201526e496e76616c6964207175616c69747960881b6044820152606490fd5b60405162461bcd60e51b815260206004820152600e60248201526d105b1c9958591e481cda59db995960921b6044820152606490fd5b60405162461bcd60e51b815260206004820152600d60248201526c139bdd081cdd589b5a5d1d1959609a1b6044820152606490fd5b346101c85760003660031901126101c857602090600b548152f35b9181601f840112156101c8578235916001600160401b0383116101c857602083818601950101116101c857565b600435906001600160a01b03821682036101c857565b602435906001600160a01b03821682036101c857565b90600382101561050d5752565b90600782101561050d5752565b60409060031901126101c8576004359060243590565b805482101561277a5760005260206000209060021b0190600090565b634e487b7160e01b600052603260045260246000fd5b6024359081151582036101c857565b919082519283825260005b8481106127cb575050826000602080949584010152601f8019910116010190565b6020818301810151848301820152016127aa565b805482101561277a5760005260206000200190600090565b6000546001600160a01b0316330361280b57565b606460405162461bcd60e51b815260206004820152602060248201527f4f776e61626c653a2063616c6c6572206973206e6f7420746865206f776e65726044820152fd5b608081019081106001600160401b038211176104f757604052565b6101e081019081106001600160401b038211176104f757604052565b60c081019081106001600160401b038211176104f757604052565b604081019081106001600160401b038211176104f757604052565b90601f801991011681019081106001600160401b038211176104f757604052565b60ff811461291b5760ff811690601f821161290957604051916128ff836128a1565b8252602082015290565b604051632cd44ac360e21b8152600490fd5b50604051600060035490600182811c908084169384156129fd575b60209485841081146129e957838752869493929181156129c9575060011461296a575b5050612967925003826128bc565b90565b9093915060036000527fc2575a0e9e593c00f959f8c92f12db2869c3395a3b0502d05e2516446f71f85b936000915b8183106129b157505061296793508201013880612959565b85548784018501529485019486945091830191612999565b91505061296794925060ff191682840152151560051b8201013880612959565b634e487b7160e01b85526022600452602485fd5b91607f1691612936565b60ff8114612a295760ff811690601f821161290957604051916128ff836128a1565b50604051600060045490600182811c90808416938415612ad3575b60209485841081146129e957838752869493929181156129c95750600114612a74575050612967925003826128bc565b9093915060046000527f8a35acfbc15ff81a39ae7d344fd709f28e8600b4aa8c65c6b64bfe7fe36bd19b936000915b818310612abb57505061296793508201013880612959565b85548784018501529485019486945091830191612aa3565b91607f1691612a44565b6001600160401b0381116104f757601f01601f191660200190565b8181029291811591840414171561102257565b60001981146110225760010190565b60ff60025416612b2657565b60405162461bcd60e51b815260206004820152601060248201526f14185d5cd8589b194e881c185d5cd95960821b6044820152606490fd5b15612b6557565b60405162461bcd60e51b815260206004820152600e60248201526d15185cdac81b9bdd08199bdd5b9960921b6044820152606490fd5b15612ba257565b60405162461bcd60e51b815260206004820152600e60248201526d496e76616c69642073746174757360901b6044820152606490fd5b9190820180921161102257565b9190820391821161102257565b600260015414612c03576002600155565b60405162461bcd60e51b815260206004820152601f60248201527f5265656e7472616e637947756172643a207265656e7472616e742063616c6c006044820152606490fd5b60018060a01b031690612cc5604051612c60816128a1565b6020938482527f5361666545524332303a206c6f772d6c6576656c2063616c6c206661696c6564858301526000808587829751910182855af13d15612d62573d91612caa83612add565b92612cb860405194856128bc565b83523d868885013e612d66565b805191821591848315612d37575b505050905015612ce05750565b6084906040519062461bcd60e51b82526004820152602a60248201527f5361666545524332303a204552433230206f7065726174696f6e20646964206e6044820152691bdd081cdd58d8d9595960b21b6064820152fd5b919381809450010312612d5e57820151908115158203612d5b575080388084612cd3565b80fd5b5080fd5b6060915b91929015612dc85750815115612d7a575090565b3b15612d835790565b60405162461bcd60e51b815260206004820152601d60248201527f416464726573733a2063616c6c20746f206e6f6e2d636f6e74726163740000006044820152606490fd5b825190915015612ddb5750805190602001fd5b60405162461bcd60e51b815260206004820152908190612dff90602483019061279f565b0390fd5b600581101561050d5780612e145750565b60018103612e615760405162461bcd60e51b815260206004820152601860248201527f45434453413a20696e76616c6964207369676e617475726500000000000000006044820152606490fd5b60028103612eae5760405162461bcd60e51b815260206004820152601f60248201527f45434453413a20696e76616c6964207369676e6174757265206c656e677468006044820152606490fd5b600314612eb757565b60405162461bcd60e51b815260206004820152602260248201527f45434453413a20696e76616c6964207369676e6174757265202773272076616c604482015261756560f01b6064820152608490fd5b906041815114600014612f3557612f31916020820151906060604084015193015160001a90612f3f565b9091565b5050600090600290565b9291907f7fffffffffffffffffffffffffffffff5d576e7357a4501ddfe92f46681b20a08311612fc25791608094939160ff602094604051948552168484015260408301526060820152600093849182805260015afa15612fb55781516001600160a01b03811615612faf579190565b50600190565b50604051903d90823e3d90fd5b50505050600090600390565b307f00000000000000000000000000000000000000000000000000000000000000006001600160a01b031614806130bf575b15613029577f000000000000000000000000000000000000000000000000000000000000000090565b60405160208101907f8b73c3c69bb8fe3d512ecc4cf759cc79239f7b179b0ffacaa9a75d522b39400f82527f000000000000000000000000000000000000000000000000000000000000000060408201527f000000000000000000000000000000000000000000000000000000000000000060608201524660808201523060a082015260a081526130b981612886565b51902090565b507f00000000000000000000000000000000000000000000000000000000000000004614613000565b156130ef57565b60405162461bcd60e51b815260206004820152600b60248201526a2737ba1031b932b0ba37b960a91b6044820152606490fd5b60405163a9059cbb60e01b60208201526001600160a01b0390921660248301526044808301939093529181526131609161315b8261284f565b612c48565b565b60005260066020526040600020906000918054925b8381106131a05750506001600160a01b031660009081526009602052604090205460ff16919050565b6131aa81836127df565b905460039190911b1c6001600160a01b03908116908416146131d4576131cf90612b0b565b613177565b5050505060019056fe06823cbbe3d86b8d3bc32f4679210e4ff0a8b1bf495ca5889fffc53b19c6add4a264697066735822122062cbda102f1611ad1bfd4174c4a0147fd9a7364ef48935b5d716aeaa948cfdf664736f6c63430008140033","opcodes":"PUSH2 0x160 CALLVALUE PUSH3 0x1F1 JUMPI PUSH1 0x1F PUSH3 0x3801 CODESIZE DUP2 SWAP1 SUB SWAP2 DUP3 ADD PUSH1 0x1F NOT AND DUP4 ADD SWAP3 PUSH1 0x1 PUSH1 0x1 PUSH1 0x40 SHL SUB SWAP3 SWAP1 SWAP2 DUP4 DUP6 GT DUP4 DUP7 LT OR PUSH3 0x1F6 JUMPI DUP2 PUSH1 0x20 SWAP3 DUP5 SWAP3 PUSH1 0x40 SWAP8 DUP9 MSTORE DUP4 CODECOPY DUP2 ADD SUB SLT PUSH3 0x1F1 JUMPI MLOAD PUSH1 0x1 PUSH1 0x1 PUSH1 0xA0 SHL SUB DUP1 DUP3 AND SWAP2 DUP3 SWAP1 SUB PUSH3 0x1F1 JUMPI DUP4 MLOAD SWAP2 PUSH3 0x6C DUP4 PUSH3 0x20C JUMP JUMPDEST PUSH1 0xA DUP4 MSTORE PUSH1 0x20 DUP4 ADD SWAP2 PUSH10 0x20BAB234BA283937B7B3 PUSH1 0xB1 SHL DUP4 MSTORE DUP6 MLOAD PUSH3 0x92 DUP2 PUSH3 0x20C JUMP JUMPDEST PUSH1 0x1 DUP2 MSTORE PUSH1 0x20 DUP2 ADD SWAP7 PUSH1 0x31 PUSH1 0xF8 SHL DUP9 MSTORE PUSH1 0x0 SWAP8 DUP9 SLOAD PUSH1 0x1 DUP1 PUSH1 0xA0 SHL SUB NOT SWAP5 CALLER DUP7 DUP4 AND OR DUP12 SSTORE CALLER SWAP2 AND PUSH32 0x8BE0079C531659141344CD1FD0A4F28419497F9722A3DAAFE3B4186F6B6457E0 DUP12 DUP1 LOG3 PUSH1 0x1 DUP1 SSTORE PUSH1 0xFF NOT PUSH1 0x2 SLOAD AND PUSH1 0x2 SSTORE PUSH3 0xF7 DUP8 PUSH3 0x228 JUMP JUMPDEST SWAP6 PUSH2 0x120 SWAP7 DUP8 MSTORE PUSH3 0x109 DUP5 PUSH3 0x402 JUMP JUMPDEST SWAP8 PUSH2 0x140 SWAP9 DUP10 MSTORE MLOAD SWAP1 KECCAK256 SWAP3 DUP4 PUSH1 0xE0 MSTORE MLOAD SWAP1 KECCAK256 SWAP1 PUSH2 0x100 SWAP9 DUP3 DUP11 MSTORE CHAINID PUSH1 0xA0 MSTORE DUP2 MLOAD SWAP3 PUSH1 0x20 DUP5 ADD SWAP5 PUSH32 0x8B73C3C69BB8FE3D512ECC4CF759CC79239F7B179B0FFACAA9A75D522B39400F DUP7 MSTORE DUP4 DUP6 ADD MSTORE PUSH1 0x60 DUP5 ADD MSTORE CHAINID PUSH1 0x80 DUP5 ADD MSTORE ADDRESS PUSH1 0xA0 DUP5 ADD MSTORE PUSH1 0xA0 DUP4 MSTORE PUSH1 0xC0 DUP4 ADD SWAP9 DUP4 DUP11 LT SWAP1 DUP11 GT OR PUSH3 0x1DD JUMPI POP DUP8 SWAP1 MSTORE MLOAD SWAP1 KECCAK256 PUSH1 0x80 MSTORE ADDRESS PUSH1 0xC0 MSTORE PUSH1 0x64 PUSH1 0xB SSTORE PUSH1 0xA SLOAD AND OR PUSH1 0xA SSTORE PUSH2 0x3233 SWAP4 DUP5 PUSH3 0x5CE DUP6 CODECOPY PUSH1 0x80 MLOAD DUP5 PUSH2 0x3007 ADD MSTORE PUSH1 0xA0 MLOAD DUP5 PUSH2 0x30C2 ADD MSTORE PUSH1 0xC0 MLOAD DUP5 PUSH2 0x2FD1 ADD MSTORE PUSH1 0xE0 MLOAD DUP5 PUSH2 0x3056 ADD MSTORE MLOAD DUP4 PUSH2 0x307C ADD MSTORE MLOAD DUP3 PUSH2 0x1367 ADD MSTORE MLOAD DUP2 PUSH2 0x1390 ADD MSTORE RETURN JUMPDEST PUSH4 0x4E487B71 PUSH1 0xE0 SHL DUP2 MSTORE PUSH1 0x41 PUSH1 0x4 MSTORE PUSH1 0x24 SWAP1 REVERT JUMPDEST PUSH1 0x0 DUP1 REVERT JUMPDEST PUSH4 0x4E487B71 PUSH1 0xE0 SHL PUSH1 0x0 MSTORE PUSH1 0x41 PUSH1 0x4 MSTORE PUSH1 0x24 PUSH1 0x0 REVERT JUMPDEST PUSH1 0x40 DUP2 ADD SWAP1 DUP2 LT PUSH1 0x1 PUSH1 0x1 PUSH1 0x40 SHL SUB DUP3 GT OR PUSH3 0x1F6 JUMPI PUSH1 0x40 MSTORE JUMP JUMPDEST DUP1 MLOAD PUSH1 0x20 SWAP2 SWAP1 DUP3 DUP2 LT ISZERO PUSH3 0x2C7 JUMPI POP SWAP1 PUSH1 0x1F DUP3 MLOAD GT PUSH3 0x266 JUMPI DUP1 DUP3 MLOAD SWAP3 ADD MLOAD SWAP1 DUP1 DUP4 LT PUSH3 0x257 JUMPI POP OR SWAP1 JUMP JUMPDEST DUP3 PUSH1 0x0 NOT SWAP2 SUB PUSH1 0x3 SHL SHL AND OR SWAP1 JUMP JUMPDEST SWAP1 PUSH1 0x40 MLOAD DUP1 SWAP3 PUSH4 0x305A27A9 PUSH1 0xE0 SHL DUP3 MSTORE DUP1 PUSH1 0x4 DUP4 ADD MSTORE DUP3 MLOAD SWAP1 DUP2 PUSH1 0x24 DUP5 ADD MSTORE PUSH1 0x0 SWAP4 JUMPDEST DUP3 DUP6 LT PUSH3 0x2AD JUMPI POP POP PUSH1 0x44 SWAP3 POP PUSH1 0x0 DUP4 DUP3 DUP5 ADD ADD MSTORE PUSH1 0x1F DUP1 NOT SWAP2 ADD AND DUP2 ADD SUB ADD SWAP1 REVERT JUMPDEST DUP5 DUP2 ADD DUP3 ADD MLOAD DUP7 DUP7 ADD PUSH1 0x44 ADD MSTORE SWAP4 DUP2 ADD SWAP4 DUP6 SWAP4 POP PUSH3 0x289 JUMP JUMPDEST PUSH1 0x1 PUSH1 0x1 PUSH1 0x40 SHL SUB DUP2 GT PUSH3 0x1F6 JUMPI PUSH1 0x3 SWAP3 DUP4 SLOAD SWAP3 PUSH1 0x1 SWAP4 DUP5 DUP2 DUP2 SHR SWAP2 AND DUP1 ISZERO PUSH3 0x3F7 JUMPI JUMPDEST DUP4 DUP3 LT EQ PUSH3 0x3E1 JUMPI PUSH1 0x1F DUP2 GT PUSH3 0x3A8 JUMPI JUMPDEST POP DUP2 PUSH1 0x1F DUP5 GT PUSH1 0x1 EQ PUSH3 0x33F JUMPI POP SWAP3 DUP3 SWAP4 SWAP2 DUP4 SWAP3 PUSH1 0x0 SWAP5 PUSH3 0x333 JUMPI JUMPDEST POP POP SHL SWAP2 PUSH1 0x0 NOT SWAP1 DUP5 SHL SHR NOT AND OR SWAP1 SSTORE PUSH1 0xFF SWAP1 JUMP JUMPDEST ADD MLOAD SWAP3 POP CODESIZE DUP1 PUSH3 0x31E JUMP JUMPDEST SWAP2 SWAP1 DUP4 PUSH1 0x1F NOT DUP2 AND DUP8 PUSH1 0x0 MSTORE DUP5 PUSH1 0x0 KECCAK256 SWAP5 PUSH1 0x0 SWAP1 JUMPDEST DUP9 DUP4 DUP4 LT PUSH3 0x38D JUMPI POP POP POP LT PUSH3 0x374 JUMPI JUMPDEST POP POP POP DUP2 SHL ADD SWAP1 SSTORE PUSH1 0xFF SWAP1 JUMP JUMPDEST ADD MLOAD PUSH1 0x0 NOT DUP4 DUP7 SHL PUSH1 0xF8 AND SHR NOT AND SWAP1 SSTORE CODESIZE DUP1 DUP1 PUSH3 0x367 JUMP JUMPDEST DUP6 DUP8 ADD MLOAD DUP9 SSTORE SWAP1 SWAP7 ADD SWAP6 SWAP5 DUP6 ADD SWAP5 DUP8 SWAP4 POP SWAP1 DUP2 ADD SWAP1 PUSH3 0x354 JUMP JUMPDEST DUP6 PUSH1 0x0 MSTORE DUP5 PUSH1 0x1F DUP5 PUSH1 0x0 KECCAK256 SWAP3 ADD PUSH1 0x5 SHR DUP3 ADD SWAP2 PUSH1 0x1F DUP7 ADD PUSH1 0x5 SHR ADD JUMPDEST DUP3 DUP2 LT PUSH3 0x3D4 JUMPI POP POP PUSH3 0x300 JUMP JUMPDEST PUSH1 0x0 DUP2 SSTORE ADD DUP6 SWAP1 PUSH3 0x3C4 JUMP JUMPDEST PUSH4 0x4E487B71 PUSH1 0xE0 SHL PUSH1 0x0 MSTORE PUSH1 0x22 PUSH1 0x4 MSTORE PUSH1 0x24 PUSH1 0x0 REVERT JUMPDEST SWAP1 PUSH1 0x7F AND SWAP1 PUSH3 0x2ED JUMP JUMPDEST DUP1 MLOAD PUSH1 0x20 SWAP2 SWAP1 DUP3 DUP2 LT ISZERO PUSH3 0x492 JUMPI POP SWAP1 PUSH1 0x1F DUP3 MLOAD GT PUSH3 0x431 JUMPI DUP1 DUP3 MLOAD SWAP3 ADD MLOAD SWAP1 DUP1 DUP4 LT PUSH3 0x257 JUMPI POP OR SWAP1 JUMP JUMPDEST SWAP1 PUSH1 0x40 MLOAD DUP1 SWAP3 PUSH4 0x305A27A9 PUSH1 0xE0 SHL DUP3 MSTORE DUP1 PUSH1 0x4 DUP4 ADD MSTORE DUP3 MLOAD SWAP1 DUP2 PUSH1 0x24 DUP5 ADD MSTORE PUSH1 0x0 SWAP4 JUMPDEST DUP3 DUP6 LT PUSH3 0x478 JUMPI POP POP PUSH1 0x44 SWAP3 POP PUSH1 0x0 DUP4 DUP3 DUP5 ADD ADD MSTORE PUSH1 0x1F DUP1 NOT SWAP2 ADD AND DUP2 ADD SUB ADD SWAP1 REVERT JUMPDEST DUP5 DUP2 ADD DUP3 ADD MLOAD DUP7 DUP7 ADD PUSH1 0x44 ADD MSTORE SWAP4 DUP2 ADD SWAP4 DUP6 SWAP4 POP PUSH3 0x454 JUMP JUMPDEST PUSH1 0x1 PUSH1 0x1 PUSH1 0x40 SHL SUB DUP2 GT PUSH3 0x1F6 JUMPI PUSH1 0x4 SWAP3 DUP4 SLOAD SWAP3 PUSH1 0x1 SWAP4 DUP5 DUP2 DUP2 SHR SWAP2 AND DUP1 ISZERO PUSH3 0x5C2 JUMPI JUMPDEST DUP4 DUP3 LT EQ PUSH3 0x5AD JUMPI PUSH1 0x1F DUP2 GT PUSH3 0x574 JUMPI JUMPDEST POP DUP2 PUSH1 0x1F DUP5 GT PUSH1 0x1 EQ PUSH3 0x50B JUMPI POP SWAP3 DUP3 SWAP4 SWAP2 DUP4 SWAP3 PUSH1 0x0 SWAP5 PUSH3 0x4FF JUMPI JUMPDEST POP POP SHL SWAP2 PUSH1 0x0 NOT SWAP1 PUSH1 0x3 SHL SHR NOT AND OR SWAP1 SSTORE PUSH1 0xFF SWAP1 JUMP JUMPDEST ADD MLOAD SWAP3 POP CODESIZE DUP1 PUSH3 0x4E9 JUMP JUMPDEST SWAP2 SWAP1 DUP4 PUSH1 0x1F NOT DUP2 AND DUP8 PUSH1 0x0 MSTORE DUP5 PUSH1 0x0 KECCAK256 SWAP5 PUSH1 0x0 SWAP1 JUMPDEST DUP9 DUP4 DUP4 LT PUSH3 0x559 JUMPI POP POP POP LT PUSH3 0x53F JUMPI POP POP POP DUP2 SHL ADD SWAP1 SSTORE PUSH1 0xFF SWAP1 JUMP JUMPDEST ADD MLOAD PUSH1 0x0 NOT PUSH1 0xF8 DUP5 PUSH1 0x3 SHL AND SHR NOT AND SWAP1 SSTORE CODESIZE DUP1 DUP1 PUSH3 0x367 JUMP JUMPDEST DUP6 DUP8 ADD MLOAD DUP9 SSTORE SWAP1 SWAP7 ADD SWAP6 SWAP5 DUP6 ADD SWAP5 DUP8 SWAP4 POP SWAP1 DUP2 ADD SWAP1 PUSH3 0x520 JUMP JUMPDEST DUP6 PUSH1 0x0 MSTORE DUP5 PUSH1 0x1F DUP5 PUSH1 0x0 KECCAK256 SWAP3 ADD PUSH1 0x5 SHR DUP3 ADD SWAP2 PUSH1 0x1F DUP7 ADD PUSH1 0x5 SHR ADD JUMPDEST DUP3 DUP2 LT PUSH3 0x5A0 JUMPI POP POP PUSH3 0x4CB JUMP JUMPDEST PUSH1 0x0 DUP2 SSTORE ADD DUP6 SWAP1 PUSH3 0x590 JUMP JUMPDEST PUSH1 0x22 DUP7 PUSH4 0x4E487B71 PUSH1 0xE0 SHL PUSH1 0x0 MSTORE MSTORE PUSH1 0x24 PUSH1 0x0 REVERT JUMPDEST SWAP1 PUSH1 0x7F AND SWAP1 PUSH3 0x4B8 JUMP INVALID PUSH1 0x80 DUP1 PUSH1 0x40 MSTORE PUSH1 0x4 CALLDATASIZE LT ISZERO PUSH2 0x1D JUMPI JUMPDEST POP CALLDATASIZE ISZERO PUSH2 0x1B JUMPI PUSH1 0x0 DUP1 REVERT JUMPDEST STOP JUMPDEST PUSH1 0x0 CALLDATALOAD PUSH1 0xE0 SHR SWAP1 DUP2 PUSH3 0xA76770 EQ PUSH2 0x26BA JUMPI POP DUP1 PUSH4 0x8EE3970 EQ PUSH2 0x1F75 JUMPI DUP1 PUSH4 0x902DF91 EQ PUSH2 0x1F3A JUMPI DUP1 PUSH4 0xBC963A6 EQ PUSH2 0x1EFB JUMPI DUP1 PUSH4 0x15A29035 EQ PUSH2 0x1CD6 JUMPI DUP1 PUSH4 0x318D328C EQ PUSH2 0x1B53 JUMPI DUP1 PUSH4 0x3F4BA83A EQ PUSH2 0x1ABF JUMPI DUP1 PUSH4 0x496A7885 EQ PUSH2 0x1A07 JUMPI DUP1 PUSH4 0x499D13A3 EQ PUSH2 0x1886 JUMPI DUP1 PUSH4 0x5C975ABB EQ PUSH2 0x1863 JUMPI DUP1 PUSH4 0x5F150212 EQ PUSH2 0x17FE JUMPI DUP1 PUSH4 0x715018A6 EQ PUSH2 0x17A5 JUMPI DUP1 PUSH4 0x76ADD9EF EQ PUSH2 0x1534 JUMPI DUP1 PUSH4 0x7CD86D60 EQ PUSH2 0x14B4 JUMPI DUP1 PUSH4 0x8456CB59 EQ PUSH2 0x145A JUMPI DUP1 PUSH4 0x84B0196E EQ PUSH2 0x1351 JUMPI DUP1 PUSH4 0x870CE73E EQ PUSH2 0x1321 JUMPI DUP1 PUSH4 0x894562B1 EQ PUSH2 0x12BE JUMPI DUP1 PUSH4 0x8DA5CB5B EQ PUSH2 0x1295 JUMPI DUP1 PUSH4 0x95CCEA67 EQ PUSH2 0x122D JUMPI DUP1 PUSH4 0x9BB88CF2 EQ PUSH2 0x1211 JUMPI DUP1 PUSH4 0xA10AA5C1 EQ PUSH2 0x1109 JUMPI DUP1 PUSH4 0xA1532114 EQ PUSH2 0x10BF JUMPI DUP1 PUSH4 0xA2D09AE8 EQ PUSH2 0x10A3 JUMPI DUP1 PUSH4 0xAFFED0E0 EQ PUSH2 0x1085 JUMPI DUP1 PUSH4 0xBC98FDB3 EQ PUSH2 0x1038 JUMPI DUP1 PUSH4 0xCC3E049B EQ PUSH2 0xE52 JUMPI DUP1 PUSH4 0xD4F0BA14 EQ PUSH2 0xDD5 JUMPI DUP1 PUSH4 0xD91E9241 EQ PUSH2 0xA92 JUMPI DUP1 PUSH4 0xDAC656A9 EQ PUSH2 0x862 JUMPI DUP1 PUSH4 0xE138818C EQ PUSH2 0x839 JUMPI DUP1 PUSH4 0xE579F500 EQ PUSH2 0x749 JUMPI DUP1 PUSH4 0xEF251161 EQ PUSH2 0x291 JUMPI DUP1 PUSH4 0xF2FDE38B EQ PUSH2 0x1CD JUMPI PUSH4 0xF585DC57 EQ PUSH2 0x1AA JUMPI CODESIZE PUSH2 0xF JUMP JUMPDEST CALLVALUE PUSH2 0x1C8 JUMPI PUSH1 0x0 CALLDATASIZE PUSH1 0x3 NOT ADD SLT PUSH2 0x1C8 JUMPI PUSH1 0x20 PUSH1 0x40 MLOAD PUSH3 0x15180 DUP2 MSTORE RETURN JUMPDEST PUSH1 0x0 DUP1 REVERT JUMPDEST CALLVALUE PUSH2 0x1C8 JUMPI PUSH1 0x20 CALLDATASIZE PUSH1 0x3 NOT ADD SLT PUSH2 0x1C8 JUMPI PUSH2 0x1E6 PUSH2 0x2702 JUMP JUMPDEST PUSH2 0x1EE PUSH2 0x27F7 JUMP JUMPDEST PUSH1 0x1 PUSH1 0x1 PUSH1 0xA0 SHL SUB SWAP1 DUP2 AND SWAP1 DUP2 ISZERO PUSH2 0x23D JUMPI PUSH1 0x0 SLOAD DUP3 PUSH1 0x1 PUSH1 0x1 PUSH1 0x60 SHL SUB PUSH1 0xA0 SHL DUP3 AND OR PUSH1 0x0 SSTORE AND PUSH32 0x8BE0079C531659141344CD1FD0A4F28419497F9722A3DAAFE3B4186F6B6457E0 PUSH1 0x0 DUP1 LOG3 STOP JUMPDEST PUSH1 0x40 MLOAD PUSH3 0x461BCD PUSH1 0xE5 SHL DUP2 MSTORE PUSH1 0x20 PUSH1 0x4 DUP3 ADD MSTORE PUSH1 0x26 PUSH1 0x24 DUP3 ADD MSTORE PUSH32 0x4F776E61626C653A206E6577206F776E657220697320746865207A65726F2061 PUSH1 0x44 DUP3 ADD MSTORE PUSH6 0x646472657373 PUSH1 0xD0 SHL PUSH1 0x64 DUP3 ADD MSTORE PUSH1 0x84 SWAP1 REVERT JUMPDEST CALLVALUE PUSH2 0x1C8 JUMPI PUSH2 0x120 CALLDATASIZE PUSH1 0x3 NOT ADD SLT PUSH2 0x1C8 JUMPI PUSH2 0x2AB PUSH2 0x2718 JUMP JUMPDEST PUSH1 0x44 CALLDATALOAD PUSH1 0x1 PUSH1 0x1 PUSH1 0xA0 SHL SUB DUP2 AND DUP2 SUB PUSH2 0x1C8 JUMPI PUSH1 0x3 PUSH1 0x84 CALLDATALOAD LT ISZERO PUSH2 0x1C8 JUMPI PUSH1 0x1 PUSH1 0x1 PUSH1 0x40 SHL SUB DUP1 PUSH1 0xC4 CALLDATALOAD GT PUSH2 0x1C8 JUMPI CALLDATASIZE PUSH1 0x23 PUSH1 0xC4 CALLDATALOAD ADD SLT ISZERO PUSH2 0x1C8 JUMPI PUSH1 0xC4 CALLDATALOAD PUSH1 0x4 ADD CALLDATALOAD GT PUSH2 0x1C8 JUMPI CALLDATASIZE PUSH1 0x24 PUSH1 0xC4 CALLDATALOAD PUSH1 0x4 ADD CALLDATALOAD PUSH1 0x5 SHL PUSH1 0xC4 CALLDATALOAD ADD ADD GT PUSH2 0x1C8 JUMPI PUSH2 0x312 PUSH2 0x2B1A JUMP JUMPDEST PUSH1 0x4 CALLDATALOAD PUSH1 0x0 MSTORE PUSH1 0x5 PUSH1 0x20 MSTORE PUSH1 0x40 PUSH1 0x0 KECCAK256 SLOAD PUSH2 0x716 JUMPI PUSH1 0x1 PUSH1 0x1 PUSH1 0xA0 SHL SUB DUP3 AND ISZERO PUSH2 0x6DE JUMPI PUSH1 0x64 CALLDATALOAD ISZERO PUSH2 0x6A8 JUMPI TIMESTAMP PUSH2 0x104 CALLDATALOAD GT ISZERO PUSH2 0x670 JUMPI PUSH1 0x0 PUSH1 0x84 CALLDATALOAD PUSH1 0x1 SUB PUSH2 0x558 JUMPI PUSH1 0xA4 CALLDATALOAD ISZERO PUSH2 0x523 JUMPI JUMPDEST PUSH2 0x2710 PUSH2 0x36F PUSH1 0xB SLOAD PUSH1 0x64 CALLDATALOAD PUSH2 0x2AF8 JUMP JUMPDEST DIV PUSH1 0x4 CALLDATALOAD PUSH1 0x0 MSTORE PUSH1 0x5 PUSH1 0x20 MSTORE PUSH1 0x40 PUSH1 0x0 KECCAK256 SWAP3 PUSH1 0x4 CALLDATALOAD DUP5 SSTORE PUSH1 0x1 DUP5 ADD PUSH1 0x1 PUSH1 0x1 PUSH1 0x60 SHL SUB PUSH1 0xA0 SHL SWAP1 CALLER DUP3 DUP3 SLOAD AND OR SWAP1 SSTORE PUSH1 0x2 DUP6 ADD PUSH1 0x1 DUP1 PUSH1 0xA0 SHL SUB DUP8 AND DUP3 DUP3 SLOAD AND OR SWAP1 SSTORE PUSH1 0x3 DUP6 ADD SWAP2 PUSH1 0x1 DUP1 PUSH1 0xA0 SHL SUB AND SWAP1 DUP3 SLOAD AND OR SWAP1 SSTORE PUSH1 0x64 CALLDATALOAD PUSH1 0x4 DUP5 ADD SSTORE PUSH1 0x5 DUP4 ADD SSTORE PUSH2 0x50D JUMPI PUSH1 0x6 DUP2 ADD PUSH1 0xFF NOT SWAP1 DUP2 DUP2 SLOAD AND PUSH1 0xFF PUSH1 0x84 CALLDATALOAD AND OR SWAP1 SSTORE PUSH1 0xA4 CALLDATALOAD PUSH1 0x7 DUP4 ADD SSTORE PUSH1 0xE4 CALLDATALOAD PUSH1 0x8 DUP4 ADD SSTORE PUSH1 0x9 DUP3 ADD SWAP1 DUP2 SLOAD AND SWAP1 SSTORE TIMESTAMP PUSH1 0xA DUP3 ADD SSTORE PUSH1 0xB PUSH2 0x104 CALLDATALOAD SWAP2 ADD SSTORE PUSH1 0x0 JUMPDEST PUSH1 0xC4 CALLDATALOAD PUSH1 0x4 ADD CALLDATALOAD DUP2 LT PUSH2 0x480 JUMPI POP PUSH1 0x40 MLOAD SWAP1 PUSH1 0x64 CALLDATALOAD DUP3 MSTORE PUSH2 0x43E PUSH1 0x20 DUP4 ADD PUSH1 0x84 CALLDATALOAD PUSH2 0x272E JUMP JUMPDEST PUSH1 0x1 PUSH1 0x1 PUSH1 0xA0 SHL SUB AND SWAP1 CALLER SWAP1 PUSH1 0x4 CALLDATALOAD SWAP1 PUSH32 0x66315787C10AC5C652C4DB6A6870FDE4CF73A97C2974B9E04763DC351D36F961 SWAP1 PUSH1 0x40 SWAP1 LOG4 PUSH1 0x20 PUSH1 0x40 MLOAD PUSH1 0x4 CALLDATALOAD DUP2 MSTORE RETURN JUMPDEST PUSH1 0x4 CALLDATALOAD PUSH1 0x0 MSTORE PUSH1 0x6 PUSH1 0x20 MSTORE PUSH1 0x40 PUSH1 0x0 KECCAK256 SWAP1 PUSH1 0x24 DUP2 PUSH1 0x5 SHL PUSH1 0xC4 CALLDATALOAD ADD ADD CALLDATALOAD PUSH1 0x1 DUP1 PUSH1 0xA0 SHL SUB DUP2 AND DUP1 SWAP2 SUB PUSH2 0x1C8 JUMPI DUP3 SLOAD SWAP3 PUSH1 0x1 PUSH1 0x40 SHL DUP5 LT ISZERO PUSH2 0x4F7 JUMPI DUP4 PUSH2 0x4CF SWAP2 PUSH1 0x1 PUSH2 0x4F2 SWAP7 ADD DUP2 SSTORE PUSH2 0x27DF JUMP JUMPDEST DUP2 SLOAD PUSH1 0x1 PUSH1 0x1 PUSH1 0xA0 SHL SUB PUSH1 0x3 SWAP3 SWAP1 SWAP3 SHL SWAP2 DUP3 SHL NOT AND SWAP3 SWAP1 SHL SWAP2 SWAP1 SWAP2 OR SWAP1 SSTORE PUSH2 0x2B0B JUMP JUMPDEST PUSH2 0x418 JUMP JUMPDEST PUSH4 0x4E487B71 PUSH1 0xE0 SHL PUSH1 0x0 MSTORE PUSH1 0x41 PUSH1 0x4 MSTORE PUSH1 0x24 PUSH1 0x0 REVERT JUMPDEST PUSH4 0x4E487B71 PUSH1 0xE0 SHL PUSH1 0x0 MSTORE PUSH1 0x21 PUSH1 0x4 MSTORE PUSH1 0x24 PUSH1 0x0 REVERT JUMPDEST PUSH1 0x40 MLOAD PUSH3 0x461BCD PUSH1 0xE5 SHL DUP2 MSTORE PUSH1 0x20 PUSH1 0x4 DUP3 ADD MSTORE PUSH1 0xD PUSH1 0x24 DUP3 ADD MSTORE PUSH13 0x12185CDA081C995C5D5A5C9959 PUSH1 0x9A SHL PUSH1 0x44 DUP3 ADD MSTORE PUSH1 0x64 SWAP1 REVERT JUMPDEST POP PUSH1 0x0 PUSH1 0x84 CALLDATALOAD PUSH2 0x5C5 JUMPI PUSH1 0xC4 CALLDATALOAD PUSH1 0x4 ADD CALLDATALOAD ISZERO ISZERO DUP1 PUSH2 0x5B4 JUMPI JUMPDEST ISZERO PUSH2 0x57C JUMPI JUMPDEST PUSH2 0x35E JUMP JUMPDEST PUSH1 0x40 MLOAD PUSH3 0x461BCD PUSH1 0xE5 SHL DUP2 MSTORE PUSH1 0x20 PUSH1 0x4 DUP3 ADD MSTORE PUSH1 0x10 PUSH1 0x24 DUP3 ADD MSTORE PUSH16 0x496E76616C69642061756469746F7273 PUSH1 0x80 SHL PUSH1 0x44 DUP3 ADD MSTORE PUSH1 0x64 SWAP1 REVERT JUMPDEST POP PUSH1 0xA PUSH1 0xC4 CALLDATALOAD PUSH1 0x4 ADD CALLDATALOAD GT ISZERO PUSH2 0x571 JUMP JUMPDEST POP PUSH1 0x0 PUSH1 0x2 PUSH1 0x84 CALLDATALOAD SUB PUSH2 0x35E JUMPI PUSH1 0xE4 CALLDATALOAD DUP1 PUSH1 0xC4 CALLDATALOAD PUSH1 0x4 ADD CALLDATALOAD LT PUSH2 0x62B JUMPI PUSH2 0x577 JUMPI PUSH1 0x40 MLOAD PUSH3 0x461BCD PUSH1 0xE5 SHL DUP2 MSTORE PUSH1 0x20 PUSH1 0x4 DUP3 ADD MSTORE PUSH1 0x19 PUSH1 0x24 DUP3 ADD MSTORE PUSH32 0x4E656564206174206C656173742031207369676E617475726500000000000000 PUSH1 0x44 DUP3 ADD MSTORE PUSH1 0x64 SWAP1 REVERT JUMPDEST PUSH1 0x40 MLOAD PUSH3 0x461BCD PUSH1 0xE5 SHL DUP2 MSTORE PUSH1 0x20 PUSH1 0x4 DUP3 ADD MSTORE PUSH1 0x17 PUSH1 0x24 DUP3 ADD MSTORE PUSH32 0x496E76616C6964206D756C746973696720636F6E666967000000000000000000 PUSH1 0x44 DUP3 ADD MSTORE PUSH1 0x64 SWAP1 REVERT JUMPDEST PUSH1 0x40 MLOAD PUSH3 0x461BCD PUSH1 0xE5 SHL DUP2 MSTORE PUSH1 0x20 PUSH1 0x4 DUP3 ADD MSTORE PUSH1 0x10 PUSH1 0x24 DUP3 ADD MSTORE PUSH16 0x496E76616C696420646561646C696E65 PUSH1 0x80 SHL PUSH1 0x44 DUP3 ADD MSTORE PUSH1 0x64 SWAP1 REVERT JUMPDEST PUSH1 0x40 MLOAD PUSH3 0x461BCD PUSH1 0xE5 SHL DUP2 MSTORE PUSH1 0x20 PUSH1 0x4 DUP3 ADD MSTORE PUSH1 0xE PUSH1 0x24 DUP3 ADD MSTORE PUSH14 0x125B9D985B1A5908185B5BDD5B9D PUSH1 0x92 SHL PUSH1 0x44 DUP3 ADD MSTORE PUSH1 0x64 SWAP1 REVERT JUMPDEST PUSH1 0x40 MLOAD PUSH3 0x461BCD PUSH1 0xE5 SHL DUP2 MSTORE PUSH1 0x20 PUSH1 0x4 DUP3 ADD MSTORE PUSH1 0x10 PUSH1 0x24 DUP3 ADD MSTORE PUSH16 0x24B73B30B634B21032BC32B1BABA37B9 PUSH1 0x81 SHL PUSH1 0x44 DUP3 ADD MSTORE PUSH1 0x64 SWAP1 REVERT JUMPDEST PUSH1 0x40 MLOAD PUSH3 0x461BCD PUSH1 0xE5 SHL DUP2 MSTORE PUSH1 0x20 PUSH1 0x4 DUP3 ADD MSTORE PUSH1 0xB PUSH1 0x24 DUP3 ADD MSTORE PUSH11 0x5461736B20657869737473 PUSH1 0xA8 SHL PUSH1 0x44 DUP3 ADD MSTORE PUSH1 0x64 SWAP1 REVERT JUMPDEST CALLVALUE PUSH2 0x1C8 JUMPI PUSH1 0x20 CALLDATASIZE PUSH1 0x3 NOT ADD SLT PUSH2 0x1C8 JUMPI PUSH1 0x4 CALLDATALOAD PUSH1 0x0 MSTORE PUSH1 0x5 PUSH1 0x20 MSTORE PUSH1 0x40 PUSH1 0x0 KECCAK256 DUP1 SLOAD PUSH1 0x1 PUSH1 0xA0 SHL PUSH1 0x1 SWAP1 SUB SWAP2 DUP3 PUSH1 0x1 DUP3 ADD SLOAD AND SWAP3 DUP1 PUSH1 0x2 DUP4 ADD SLOAD AND SWAP1 PUSH1 0x3 DUP4 ADD SLOAD AND PUSH1 0x4 DUP4 ADD SLOAD PUSH1 0x5 DUP5 ADD SLOAD PUSH1 0x6 DUP6 ADD SLOAD PUSH1 0xFF AND PUSH1 0x7 DUP7 ADD SLOAD PUSH1 0x8 DUP8 ADD SLOAD SWAP2 PUSH1 0x9 DUP9 ADD SLOAD PUSH1 0xFF AND SWAP4 PUSH1 0xA DUP10 ADD SLOAD SWAP6 PUSH1 0xB DUP11 ADD SLOAD SWAP8 PUSH1 0xC DUP12 ADD SLOAD SWAP10 PUSH1 0xD DUP13 ADD SLOAD SWAP12 PUSH1 0xE ADD SLOAD SWAP13 PUSH1 0x40 MLOAD SWAP15 DUP16 SWAP2 DUP3 MSTORE PUSH1 0x20 DUP3 ADD MSTORE PUSH1 0x40 ADD MSTORE PUSH1 0x60 DUP14 ADD MSTORE PUSH1 0x80 DUP13 ADD MSTORE PUSH1 0xA0 DUP12 ADD MSTORE PUSH1 0xC0 DUP11 ADD PUSH2 0x7FC SWAP2 PUSH2 0x272E JUMP JUMPDEST PUSH1 0xE0 DUP10 ADD MSTORE PUSH2 0x100 DUP9 ADD MSTORE PUSH2 0x120 DUP8 ADD PUSH2 0x815 SWAP2 PUSH2 0x273B JUMP JUMPDEST PUSH2 0x140 DUP7 ADD MSTORE PUSH2 0x160 DUP6 ADD MSTORE PUSH2 0x180 DUP5 ADD MSTORE PUSH2 0x1A0 DUP4 ADD MSTORE PUSH2 0x1C0 DUP3 ADD MSTORE PUSH2 0x1E0 SWAP1 RETURN JUMPDEST CALLVALUE PUSH2 0x1C8 JUMPI PUSH1 0x0 CALLDATASIZE PUSH1 0x3 NOT ADD SLT PUSH2 0x1C8 JUMPI PUSH1 0xA SLOAD PUSH1 0x40 MLOAD PUSH1 0x1 PUSH1 0x1 PUSH1 0xA0 SHL SUB SWAP1 SWAP2 AND DUP2 MSTORE PUSH1 0x20 SWAP1 RETURN JUMPDEST CALLVALUE PUSH2 0x1C8 JUMPI PUSH2 0x870 CALLDATASIZE PUSH2 0x2748 JUMP JUMPDEST SWAP1 PUSH2 0x879 PUSH2 0x2B1A JUMP JUMPDEST DUP1 PUSH1 0x0 MSTORE PUSH1 0x5 PUSH1 0x20 MSTORE PUSH1 0x40 PUSH1 0x0 KECCAK256 PUSH2 0x893 DUP2 SLOAD ISZERO ISZERO PUSH2 0x2B5E JUMP JUMPDEST PUSH1 0xFF PUSH1 0x9 PUSH1 0x1 DUP1 PUSH1 0xA0 SHL SUB SWAP3 PUSH2 0x8B0 DUP5 PUSH1 0x1 DUP4 ADD SLOAD AND CALLER EQ PUSH2 0x30E8 JUMP JUMPDEST ADD SLOAD AND PUSH1 0x7 DUP2 LT ISZERO PUSH2 0x50D JUMPI DUP1 PUSH1 0x2 PUSH2 0x8D2 SWAP3 EQ SWAP1 DUP2 ISZERO PUSH2 0xA87 JUMPI JUMPDEST POP PUSH2 0x2B9B JUMP JUMPDEST PUSH2 0x8DA PUSH2 0x2BF2 JUMP JUMPDEST DUP2 PUSH1 0x0 MSTORE PUSH1 0x5 PUSH1 0x20 MSTORE PUSH1 0x40 PUSH1 0x0 KECCAK256 SWAP3 PUSH1 0x9 DUP5 ADD SWAP2 DUP3 SLOAD SWAP2 PUSH1 0xFF DUP4 AND PUSH1 0x7 DUP2 LT ISZERO PUSH2 0x50D JUMPI PUSH1 0x4 DUP2 EQ PUSH2 0xA4F JUMPI PUSH1 0x6 EQ PUSH2 0xA17 JUMPI PUSH1 0x3 PUSH1 0xFF NOT DUP1 SWAP5 AND OR DUP5 SSTORE PUSH1 0xE DUP7 ADD SSTORE PUSH1 0x3 DUP6 ADD DUP2 DUP2 SLOAD AND DUP1 ISZERO PUSH1 0x0 EQ PUSH2 0x9D0 JUMPI POP POP PUSH1 0x0 DUP1 DUP1 DUP1 DUP5 PUSH1 0x2 DUP11 ADD SLOAD AND PUSH1 0x4 DUP11 ADD SLOAD SWAP1 DUP3 DUP3 ISZERO PUSH2 0x9C7 JUMPI JUMPDEST CALL ISZERO PUSH2 0x9B2 JUMPI PUSH1 0x0 DUP1 DUP1 DUP1 DUP5 PUSH1 0xA SLOAD AND PUSH1 0x5 DUP11 ADD SLOAD SWAP1 DUP3 DUP3 ISZERO PUSH2 0x9BE JUMPI JUMPDEST CALL ISZERO PUSH2 0x9B2 JUMPI PUSH1 0x0 DUP1 MLOAD PUSH1 0x20 PUSH2 0x31DE DUP4 CODECOPY DUP2 MLOAD SWAP2 MSTORE SWAP3 PUSH1 0x4 PUSH1 0x40 SWAP4 JUMPDEST DUP3 SLOAD AND OR SWAP1 SSTORE TIMESTAMP PUSH1 0xC DUP7 ADD SSTORE PUSH1 0x2 DUP6 ADD SLOAD AND SWAP4 PUSH1 0x5 PUSH1 0x4 DUP3 ADD SLOAD SWAP2 ADD SLOAD DUP3 MLOAD SWAP2 DUP3 MSTORE PUSH1 0x20 DUP3 ADD MSTORE LOG3 PUSH1 0x1 DUP1 SSTORE STOP JUMPDEST PUSH1 0x40 MLOAD RETURNDATASIZE PUSH1 0x0 DUP3 RETURNDATACOPY RETURNDATASIZE SWAP1 REVERT JUMPDEST POP PUSH2 0x8FC PUSH2 0x968 JUMP JUMPDEST POP PUSH2 0x8FC PUSH2 0x94A JUMP JUMPDEST PUSH1 0x40 SWAP4 PUSH2 0xA12 DUP5 PUSH1 0x0 DUP1 MLOAD PUSH1 0x20 PUSH2 0x31DE DUP4 CODECOPY DUP2 MLOAD SWAP2 MSTORE SWAP8 SWAP5 PUSH2 0xA00 PUSH1 0x4 SWAP6 DUP13 DUP8 DUP6 PUSH1 0x2 DUP4 ADD SLOAD AND SWAP2 ADD SLOAD SWAP2 PUSH2 0x3122 JUMP JUMPDEST SLOAD AND DUP6 PUSH1 0xA SLOAD AND PUSH1 0x5 DUP12 ADD SLOAD SWAP2 PUSH2 0x3122 JUMP JUMPDEST PUSH2 0x984 JUMP JUMPDEST PUSH1 0x40 MLOAD PUSH3 0x461BCD PUSH1 0xE5 SHL DUP2 MSTORE PUSH1 0x20 PUSH1 0x4 DUP3 ADD MSTORE PUSH1 0x10 PUSH1 0x24 DUP3 ADD MSTORE PUSH16 0x105B1C9958591E481C99599D5B991959 PUSH1 0x82 SHL PUSH1 0x44 DUP3 ADD MSTORE PUSH1 0x64 SWAP1 REVERT JUMPDEST PUSH1 0x40 MLOAD PUSH3 0x461BCD PUSH1 0xE5 SHL DUP2 MSTORE PUSH1 0x20 PUSH1 0x4 DUP3 ADD MSTORE PUSH1 0x10 PUSH1 0x24 DUP3 ADD MSTORE PUSH16 0x105B1C9958591E481C995B19585CD959 PUSH1 0x82 SHL PUSH1 0x44 DUP3 ADD MSTORE PUSH1 0x64 SWAP1 REVERT JUMPDEST PUSH1 0x1 SWAP2 POP EQ DUP6 PUSH2 0x8CC JUMP JUMPDEST CALLVALUE PUSH2 0x1C8 JUMPI PUSH1 0x40 CALLDATASIZE PUSH1 0x3 NOT ADD SLT PUSH2 0x1C8 JUMPI PUSH1 0x4 CALLDATALOAD PUSH1 0x24 SWAP1 DUP2 CALLDATALOAD SWAP2 PUSH2 0xAB4 PUSH2 0x2B1A JUMP JUMPDEST DUP2 PUSH1 0x0 MSTORE PUSH1 0x20 SWAP3 PUSH1 0x5 DUP5 MSTORE PUSH1 0x40 PUSH1 0x0 KECCAK256 SWAP1 PUSH2 0xAD1 DUP3 SLOAD ISZERO ISZERO PUSH2 0x2B5E JUMP JUMPDEST PUSH1 0x9 DUP3 ADD SWAP1 DUP2 SLOAD SWAP3 PUSH1 0xFF DUP5 AND PUSH1 0x7 DUP2 LT ISZERO PUSH2 0xD24 JUMPI PUSH1 0x1 SUB PUSH2 0xD9F JUMPI PUSH1 0x2 DUP2 ADD SLOAD PUSH1 0x1 PUSH1 0x1 PUSH1 0xA0 SHL SUB SWAP4 SWAP1 DUP5 AND CALLER SUB PUSH2 0xD6C JUMPI PUSH1 0xB DUP3 ADD SLOAD TIMESTAMP GT PUSH2 0xD39 JUMPI DUP3 PUSH1 0xD DUP4 ADD SSTORE PUSH1 0x2 PUSH1 0xFF NOT DUP1 SWAP7 AND OR SWAP1 SSTORE PUSH1 0x40 MLOAD DUP3 DUP2 MSTORE DUP7 PUSH32 0x78842DE91FEB7C01FDD3C6BA92FFA4A4D9992388D8718B740B16757BB47F8D5A DUP10 CALLER SWAP4 LOG3 PUSH1 0xFF PUSH1 0x6 DUP3 ADD SLOAD AND PUSH1 0x3 DUP2 LT ISZERO PUSH2 0xD24 JUMPI PUSH1 0x1 EQ PUSH2 0xB66 JUMPI STOP JUMPDEST PUSH1 0x7 ADD SLOAD EQ PUSH2 0xB71 JUMPI STOP JUMPDEST PUSH2 0xB79 PUSH2 0x2BF2 JUMP JUMPDEST DUP4 PUSH1 0x0 MSTORE PUSH1 0x5 DUP6 MSTORE PUSH1 0x40 PUSH1 0x0 KECCAK256 SWAP1 PUSH1 0x9 DUP3 ADD SWAP4 DUP5 SLOAD SWAP1 PUSH1 0xFF DUP3 AND PUSH1 0x7 DUP2 LT ISZERO PUSH2 0xD0F JUMPI PUSH1 0x4 DUP2 EQ PUSH2 0xCD8 JUMPI PUSH1 0x6 EQ PUSH2 0xCA2 JUMPI POP DUP4 AND PUSH1 0x3 SWAP1 DUP2 OR DUP6 SSTORE PUSH1 0x64 PUSH1 0xE DUP5 ADD SSTORE DUP3 ADD DUP1 SLOAD DUP3 AND DUP1 PUSH2 0xC5C JUMPI POP POP PUSH1 0x0 DUP1 DUP1 DUP1 DUP5 PUSH1 0x2 DUP8 ADD SLOAD AND PUSH1 0x4 DUP8 ADD SLOAD SWAP1 DUP3 DUP3 ISZERO PUSH2 0xC53 JUMPI JUMPDEST CALL ISZERO PUSH2 0x9B2 JUMPI PUSH1 0x0 DUP1 DUP1 DUP1 DUP5 PUSH1 0xA SLOAD AND PUSH1 0x5 DUP8 ADD SLOAD SWAP1 DUP3 DUP3 ISZERO PUSH2 0xC4A JUMPI JUMPDEST CALL ISZERO PUSH2 0x9B2 JUMPI PUSH1 0x0 DUP1 MLOAD PUSH1 0x20 PUSH2 0x31DE DUP4 CODECOPY DUP2 MLOAD SWAP2 MSTORE SWAP4 PUSH1 0x4 PUSH1 0x40 SWAP5 JUMPDEST DUP3 SLOAD AND OR SWAP1 SSTORE TIMESTAMP PUSH1 0xC DUP4 ADD SSTORE PUSH1 0x2 DUP3 ADD SLOAD AND SWAP5 PUSH1 0x5 PUSH1 0x4 DUP4 ADD SLOAD SWAP3 ADD SLOAD SWAP1 DUP4 MLOAD SWAP3 DUP4 MSTORE DUP3 ADD MSTORE LOG3 PUSH1 0x1 DUP1 SSTORE STOP JUMPDEST POP PUSH2 0x8FC PUSH2 0xC01 JUMP JUMPDEST POP PUSH2 0x8FC PUSH2 0xBE3 JUMP JUMPDEST PUSH1 0x40 SWAP5 PUSH2 0xC9D DUP5 PUSH1 0x0 DUP1 MLOAD PUSH1 0x20 PUSH2 0x31DE DUP4 CODECOPY DUP2 MLOAD SWAP2 MSTORE SWAP9 SWAP5 PUSH2 0xC8B PUSH1 0x4 SWAP6 DUP4 PUSH1 0x2 DUP12 ADD SLOAD AND DUP8 DUP12 ADD SLOAD SWAP2 PUSH2 0x3122 JUMP JUMPDEST SLOAD AND DUP6 PUSH1 0xA SLOAD AND PUSH1 0x5 DUP9 ADD SLOAD SWAP2 PUSH2 0x3122 JUMP JUMPDEST PUSH2 0xC1D JUMP JUMPDEST DUP8 PUSH1 0x10 PUSH1 0x64 SWAP3 PUSH1 0x40 MLOAD SWAP3 PUSH3 0x461BCD PUSH1 0xE5 SHL DUP5 MSTORE PUSH1 0x4 DUP5 ADD MSTORE DUP3 ADD MSTORE PUSH16 0x105B1C9958591E481C99599D5B991959 PUSH1 0x82 SHL PUSH1 0x44 DUP3 ADD MSTORE REVERT JUMPDEST PUSH1 0x40 MLOAD PUSH3 0x461BCD PUSH1 0xE5 SHL DUP2 MSTORE PUSH1 0x4 DUP2 ADD DUP11 SWAP1 MSTORE PUSH1 0x10 DUP2 DUP5 ADD MSTORE PUSH16 0x105B1C9958591E481C995B19585CD959 PUSH1 0x82 SHL PUSH1 0x44 DUP3 ADD MSTORE PUSH1 0x64 SWAP1 REVERT JUMPDEST POP PUSH4 0x4E487B71 PUSH1 0xE0 SHL PUSH1 0x0 SWAP1 DUP2 MSTORE PUSH1 0x21 PUSH1 0x4 MSTORE REVERT JUMPDEST DUP6 PUSH4 0x4E487B71 PUSH1 0xE0 SHL PUSH1 0x0 MSTORE PUSH1 0x21 PUSH1 0x4 MSTORE PUSH1 0x0 REVERT JUMPDEST PUSH1 0x40 MLOAD PUSH3 0x461BCD PUSH1 0xE5 SHL DUP2 MSTORE PUSH1 0x4 DUP2 ADD DUP10 SWAP1 MSTORE PUSH1 0xC DUP2 DUP9 ADD MSTORE PUSH12 0x15185CDAC8195E1C1A5C9959 PUSH1 0xA2 SHL PUSH1 0x44 DUP3 ADD MSTORE PUSH1 0x64 SWAP1 REVERT JUMPDEST PUSH1 0x40 MLOAD PUSH3 0x461BCD PUSH1 0xE5 SHL DUP2 MSTORE PUSH1 0x4 DUP2 ADD DUP10 SWAP1 MSTORE PUSH1 0xC DUP2 DUP9 ADD MSTORE PUSH12 0x2737BA1032BC32B1BABA37B9 PUSH1 0xA1 SHL PUSH1 0x44 DUP3 ADD MSTORE PUSH1 0x64 SWAP1 REVERT JUMPDEST PUSH1 0x40 MLOAD PUSH3 0x461BCD PUSH1 0xE5 SHL DUP2 MSTORE PUSH1 0x4 DUP2 ADD DUP9 SWAP1 MSTORE PUSH1 0xF DUP2 DUP8 ADD MSTORE PUSH15 0x15185CDAC81B9BDD08199D5B991959 PUSH1 0x8A SHL PUSH1 0x44 DUP3 ADD MSTORE PUSH1 0x64 SWAP1 REVERT JUMPDEST CALLVALUE PUSH2 0x1C8 JUMPI PUSH1 0x40 CALLDATASIZE PUSH1 0x3 NOT ADD SLT PUSH2 0x1C8 JUMPI PUSH2 0xDEE PUSH2 0x2702 JUMP JUMPDEST PUSH32 0x586DDD46D982976BEC1E4D9A834AF85E45533BE873DF97FDBA8C75E9E2F65672 PUSH1 0x20 PUSH2 0xE19 PUSH2 0x2790 JUMP JUMPDEST SWAP3 PUSH2 0xE22 PUSH2 0x27F7 JUMP JUMPDEST PUSH1 0x1 DUP1 PUSH1 0xA0 SHL SUB AND SWAP3 DUP4 PUSH1 0x0 MSTORE PUSH1 0x9 DUP3 MSTORE PUSH1 0x40 PUSH1 0x0 KECCAK256 SWAP1 ISZERO ISZERO SWAP1 PUSH1 0xFF NOT DUP2 SLOAD AND PUSH1 0xFF DUP4 AND OR SWAP1 SSTORE PUSH1 0x40 MLOAD SWAP1 DUP2 MSTORE LOG2 STOP JUMPDEST CALLVALUE PUSH2 0x1C8 JUMPI PUSH1 0x20 CALLDATASIZE PUSH1 0x3 NOT ADD SLT PUSH2 0x1C8 JUMPI PUSH1 0x4 CALLDATALOAD PUSH2 0xE6E PUSH2 0x2B1A JUMP JUMPDEST PUSH2 0xE76 PUSH2 0x2BF2 JUMP JUMPDEST DUP1 PUSH1 0x0 MSTORE PUSH1 0x5 PUSH1 0x20 MSTORE PUSH1 0x40 PUSH1 0x0 KECCAK256 SWAP1 PUSH2 0xE91 DUP3 SLOAD ISZERO ISZERO PUSH2 0x2B5E JUMP JUMPDEST PUSH1 0x1 DUP3 ADD DUP1 SLOAD PUSH1 0x1 PUSH1 0x1 PUSH1 0xA0 SHL SUB SWAP1 DUP2 AND SWAP4 SWAP1 SWAP2 SWAP1 PUSH2 0xEB1 CALLER DUP7 EQ PUSH2 0x30E8 JUMP JUMPDEST PUSH1 0xB DUP2 ADD SLOAD PUSH3 0x15180 DUP2 ADD DUP1 SWAP2 GT PUSH2 0x1022 JUMPI TIMESTAMP GT ISZERO PUSH2 0xFEF JUMPI PUSH1 0x9 DUP2 ADD SWAP5 DUP6 SLOAD SWAP2 PUSH1 0xFF DUP4 AND PUSH1 0x7 DUP2 LT ISZERO PUSH2 0x50D JUMPI PUSH1 0x1 DUP2 EQ SWAP1 DUP2 ISZERO PUSH2 0xFE4 JUMPI JUMPDEST POP ISZERO PUSH2 0xFAF JUMPI PUSH1 0x3 DUP2 PUSH1 0x6 SWAP9 PUSH2 0xF0B PUSH1 0x4 DUP10 SWAP6 ADD SLOAD PUSH1 0x5 DUP5 ADD SLOAD SWAP1 PUSH2 0x2BD8 JUMP JUMPDEST SWAP10 DUP11 SWAP7 PUSH1 0xFF NOT AND OR SWAP1 SSTORE ADD SLOAD AND DUP1 ISZERO PUSH1 0x0 EQ PUSH2 0xF7A JUMPI POP POP PUSH1 0x0 DUP1 DUP1 DUP1 SWAP4 DUP7 DUP7 SLOAD AND DUP3 DUP3 ISZERO PUSH2 0xF71 JUMPI JUMPDEST CALL ISZERO PUSH2 0x9B2 JUMPI PUSH32 0xF3A7AB0CCBAD7F367B7892962016C155D1CE76A3E6FDD0420B5E749763ACBDA7 SWAP2 PUSH1 0x20 SWAP2 JUMPDEST SLOAD AND SWAP4 PUSH1 0x40 MLOAD SWAP1 DUP2 MSTORE LOG3 PUSH1 0x1 DUP1 SSTORE STOP JUMPDEST POP PUSH2 0x8FC PUSH2 0xF35 JUMP JUMPDEST PUSH32 0xF3A7AB0CCBAD7F367B7892962016C155D1CE76A3E6FDD0420B5E749763ACBDA7 SWAP5 SWAP3 PUSH1 0x20 SWAP5 SWAP3 PUSH2 0xFAA SWAP3 PUSH2 0x3122 JUMP JUMPDEST PUSH2 0xF61 JUMP JUMPDEST PUSH1 0x40 MLOAD PUSH3 0x461BCD PUSH1 0xE5 SHL DUP2 MSTORE PUSH1 0x20 PUSH1 0x4 DUP3 ADD MSTORE PUSH1 0xD PUSH1 0x24 DUP3 ADD MSTORE PUSH13 0x10D85B9B9BDD081C99599D5B99 PUSH1 0x9A SHL PUSH1 0x44 DUP3 ADD MSTORE PUSH1 0x64 SWAP1 REVERT JUMPDEST PUSH1 0x2 SWAP2 POP EQ DUP9 PUSH2 0xEEB JUMP JUMPDEST PUSH1 0x40 MLOAD PUSH3 0x461BCD PUSH1 0xE5 SHL DUP2 MSTORE PUSH1 0x20 PUSH1 0x4 DUP3 ADD MSTORE PUSH1 0xB PUSH1 0x24 DUP3 ADD MSTORE PUSH11 0x139BDD08195E1C1A5C9959 PUSH1 0xAA SHL PUSH1 0x44 DUP3 ADD MSTORE PUSH1 0x64 SWAP1 REVERT JUMPDEST PUSH4 0x4E487B71 PUSH1 0xE0 SHL PUSH1 0x0 MSTORE PUSH1 0x11 PUSH1 0x4 MSTORE PUSH1 0x24 PUSH1 0x0 REVERT JUMPDEST CALLVALUE PUSH2 0x1C8 JUMPI PUSH1 0x40 CALLDATASIZE PUSH1 0x3 NOT ADD SLT PUSH2 0x1C8 JUMPI PUSH2 0x1051 PUSH2 0x2718 JUMP JUMPDEST PUSH1 0x4 CALLDATALOAD PUSH1 0x0 MSTORE PUSH1 0x8 PUSH1 0x20 MSTORE PUSH1 0x40 PUSH1 0x0 KECCAK256 SWAP1 PUSH1 0x1 DUP1 PUSH1 0xA0 SHL SUB AND PUSH1 0x0 MSTORE PUSH1 0x20 MSTORE PUSH1 0x20 PUSH1 0xFF PUSH1 0x40 PUSH1 0x0 KECCAK256 SLOAD AND PUSH1 0x40 MLOAD SWAP1 ISZERO ISZERO DUP2 MSTORE RETURN JUMPDEST CALLVALUE PUSH2 0x1C8 JUMPI PUSH1 0x0 CALLDATASIZE PUSH1 0x3 NOT ADD SLT PUSH2 0x1C8 JUMPI PUSH1 0x20 PUSH1 0xC SLOAD PUSH1 0x40 MLOAD SWAP1 DUP2 MSTORE RETURN JUMPDEST CALLVALUE PUSH2 0x1C8 JUMPI PUSH1 0x0 CALLDATASIZE PUSH1 0x3 NOT ADD SLT PUSH2 0x1C8 JUMPI PUSH1 0x20 PUSH1 0x40 MLOAD PUSH1 0x3C DUP2 MSTORE RETURN JUMPDEST CALLVALUE PUSH2 0x1C8 JUMPI PUSH2 0x10CD CALLDATASIZE PUSH2 0x2748 JUMP JUMPDEST SWAP1 PUSH1 0x0 MSTORE PUSH1 0x6 PUSH1 0x20 MSTORE PUSH1 0x40 PUSH1 0x0 KECCAK256 DUP1 SLOAD DUP3 LT ISZERO PUSH2 0x1C8 JUMPI PUSH1 0x20 SWAP2 PUSH2 0x10F0 SWAP2 PUSH2 0x27DF JUMP JUMPDEST SWAP1 SLOAD PUSH1 0x40 MLOAD PUSH1 0x3 SWAP3 SWAP1 SWAP3 SHL SHR PUSH1 0x1 PUSH1 0x1 PUSH1 0xA0 SHL SUB AND DUP2 MSTORE RETURN JUMPDEST CALLVALUE PUSH2 0x1C8 JUMPI PUSH1 0x20 DUP1 PUSH1 0x3 NOT CALLDATASIZE ADD SLT PUSH2 0x1C8 JUMPI PUSH1 0x4 CALLDATALOAD PUSH1 0x0 MSTORE PUSH1 0x7 DUP2 MSTORE PUSH1 0x40 PUSH1 0x0 KECCAK256 SWAP1 DUP2 SLOAD PUSH1 0x1 PUSH1 0x1 PUSH1 0x40 SHL SUB DUP2 GT PUSH2 0x4F7 JUMPI PUSH1 0x40 MLOAD SWAP1 PUSH2 0x114E DUP4 DUP3 PUSH1 0x5 SHL ADD DUP4 PUSH2 0x28BC JUMP JUMPDEST DUP1 DUP3 MSTORE DUP3 DUP3 ADD DUP1 SWAP5 PUSH1 0x0 MSTORE DUP4 PUSH1 0x0 KECCAK256 PUSH1 0x0 SWAP2 JUMPDEST DUP4 DUP4 LT PUSH2 0x11CA JUMPI PUSH1 0x40 DUP1 MLOAD DUP8 DUP2 MSTORE DUP7 MLOAD DUP2 DUP10 ADD DUP2 SWAP1 MSTORE DUP10 SWAP3 DUP3 ADD SWAP1 DUP10 PUSH1 0x0 JUMPDEST DUP3 DUP2 LT PUSH2 0x118D JUMPI DUP5 DUP5 SUB DUP6 RETURN JUMPDEST DUP6 MLOAD DUP1 MLOAD PUSH1 0x1 PUSH1 0x1 PUSH1 0xA0 SHL SUB AND DUP6 MSTORE DUP1 DUP4 ADD MLOAD DUP6 DUP5 ADD MSTORE PUSH1 0x40 DUP1 DUP3 ADD MLOAD SWAP1 DUP7 ADD MSTORE PUSH1 0x60 SWAP1 DUP2 ADD MLOAD SWAP1 DUP6 ADD MSTORE SWAP5 DUP2 ADD SWAP5 PUSH1 0x80 SWAP1 SWAP4 ADD SWAP3 PUSH1 0x1 ADD PUSH2 0x1180 JUMP JUMPDEST PUSH1 0x4 DUP7 PUSH1 0x1 SWAP3 PUSH1 0x40 MLOAD PUSH2 0x11DC DUP2 PUSH2 0x284F JUMP JUMPDEST DUP5 DUP1 PUSH1 0xA0 SHL SUB DUP7 SLOAD AND DUP2 MSTORE DUP5 DUP7 ADD SLOAD DUP4 DUP3 ADD MSTORE PUSH1 0x2 DUP7 ADD SLOAD PUSH1 0x40 DUP3 ADD MSTORE PUSH1 0x3 DUP7 ADD SLOAD PUSH1 0x60 DUP3 ADD MSTORE DUP2 MSTORE ADD SWAP3 ADD SWAP3 ADD SWAP2 SWAP1 PUSH2 0x1161 JUMP JUMPDEST CALLVALUE PUSH2 0x1C8 JUMPI PUSH1 0x0 CALLDATASIZE PUSH1 0x3 NOT ADD SLT PUSH2 0x1C8 JUMPI PUSH1 0x20 PUSH1 0x40 MLOAD PUSH1 0xA DUP2 MSTORE RETURN JUMPDEST CALLVALUE PUSH2 0x1C8 JUMPI PUSH1 0x40 CALLDATASIZE PUSH1 0x3 NOT ADD SLT PUSH2 0x1C8 JUMPI PUSH2 0x1246 PUSH2 0x2702 JUMP JUMPDEST PUSH1 0x24 CALLDATALOAD SWAP1 PUSH2 0x1252 PUSH2 0x27F7 JUMP JUMPDEST PUSH1 0x1 PUSH1 0x1 PUSH1 0xA0 SHL SUB SWAP1 DUP2 AND DUP1 PUSH2 0x1286 JUMPI POP PUSH1 0x0 DUP1 DUP1 SWAP4 DUP2 SWAP4 DUP3 SLOAD AND DUP3 DUP3 ISZERO PUSH2 0x127D JUMPI JUMPDEST CALL ISZERO PUSH2 0x9B2 JUMPI STOP JUMPDEST POP PUSH2 0x8FC PUSH2 0x1275 JUMP JUMPDEST PUSH2 0x1B SWAP3 SWAP2 PUSH1 0x0 SLOAD AND SWAP1 PUSH2 0x3122 JUMP JUMPDEST CALLVALUE PUSH2 0x1C8 JUMPI PUSH1 0x0 CALLDATASIZE PUSH1 0x3 NOT ADD SLT PUSH2 0x1C8 JUMPI PUSH1 0x0 SLOAD PUSH1 0x40 MLOAD PUSH1 0x1 PUSH1 0x1 PUSH1 0xA0 SHL SUB SWAP1 SWAP2 AND DUP2 MSTORE PUSH1 0x20 SWAP1 RETURN JUMPDEST CALLVALUE PUSH2 0x1C8 JUMPI PUSH1 0x20 CALLDATASIZE PUSH1 0x3 NOT ADD SLT PUSH2 0x1C8 JUMPI PUSH1 0x4 CALLDATALOAD PUSH2 0x12DA PUSH2 0x27F7 JUMP JUMPDEST PUSH2 0x3E8 DUP2 GT PUSH2 0x12E8 JUMPI PUSH1 0xB SSTORE STOP JUMPDEST PUSH1 0x40 MLOAD PUSH3 0x461BCD PUSH1 0xE5 SHL DUP2 MSTORE PUSH1 0x20 PUSH1 0x4 DUP3 ADD MSTORE PUSH1 0x11 PUSH1 0x24 DUP3 ADD MSTORE PUSH17 0x8CCACA40E4C2E8CA40E8DEDE40D0D2CED PUSH1 0x7B SHL PUSH1 0x44 DUP3 ADD MSTORE PUSH1 0x64 SWAP1 REVERT JUMPDEST CALLVALUE PUSH2 0x1C8 JUMPI PUSH1 0x40 CALLDATASIZE PUSH1 0x3 NOT ADD SLT PUSH2 0x1C8 JUMPI PUSH1 0x20 PUSH2 0x1347 PUSH2 0x133F PUSH2 0x2718 JUMP JUMPDEST PUSH1 0x4 CALLDATALOAD PUSH2 0x3162 JUMP JUMPDEST PUSH1 0x40 MLOAD SWAP1 ISZERO ISZERO DUP2 MSTORE RETURN JUMPDEST CALLVALUE PUSH2 0x1C8 JUMPI PUSH1 0x0 CALLDATASIZE PUSH1 0x3 NOT ADD SLT PUSH2 0x1C8 JUMPI PUSH2 0x138B PUSH32 0x0 PUSH2 0x28DD JUMP JUMPDEST PUSH2 0x13B4 PUSH32 0x0 PUSH2 0x2A07 JUMP JUMPDEST PUSH1 0x40 MLOAD PUSH1 0x20 DUP1 DUP3 ADD SWAP3 DUP3 DUP5 LT PUSH1 0x1 PUSH1 0x1 PUSH1 0x40 SHL SUB DUP6 GT OR PUSH2 0x4F7 JUMPI SWAP2 DUP2 PUSH2 0x140D DUP6 SWAP5 PUSH2 0x13FF SWAP8 SWAP7 PUSH1 0x40 MSTORE PUSH1 0x0 DUP5 MSTORE PUSH1 0x40 MLOAD SWAP8 DUP9 SWAP8 PUSH1 0xF PUSH1 0xF8 SHL DUP10 MSTORE PUSH1 0xE0 DUP6 DUP11 ADD MSTORE PUSH1 0xE0 DUP10 ADD SWAP1 PUSH2 0x279F JUMP JUMPDEST SWAP1 DUP8 DUP3 SUB PUSH1 0x40 DUP10 ADD MSTORE PUSH2 0x279F JUMP JUMPDEST SWAP2 CHAINID PUSH1 0x60 DUP8 ADD MSTORE ADDRESS PUSH1 0x80 DUP8 ADD MSTORE PUSH1 0x0 PUSH1 0xA0 DUP8 ADD MSTORE DUP6 DUP4 SUB PUSH1 0xC0 DUP8 ADD MSTORE MLOAD SWAP2 DUP3 DUP2 MSTORE ADD SWAP3 SWAP2 PUSH1 0x0 JUMPDEST DUP3 DUP2 LT PUSH2 0x1443 JUMPI POP POP POP POP SUB SWAP1 RETURN JUMPDEST DUP4 MLOAD DUP6 MSTORE DUP7 SWAP6 POP SWAP4 DUP2 ADD SWAP4 SWAP3 DUP2 ADD SWAP3 PUSH1 0x1 ADD PUSH2 0x1434 JUMP JUMPDEST CALLVALUE PUSH2 0x1C8 JUMPI PUSH1 0x0 CALLDATASIZE PUSH1 0x3 NOT ADD SLT PUSH2 0x1C8 JUMPI PUSH2 0x1473 PUSH2 0x27F7 JUMP JUMPDEST PUSH2 0x147B PUSH2 0x2B1A JUMP JUMPDEST PUSH1 0x1 PUSH1 0xFF NOT PUSH1 0x2 SLOAD AND OR PUSH1 0x2 SSTORE PUSH32 0x62E78CEA01BEE320CD4E420270B5EA74000D11B0C9F74754EBDBFC544B05A258 PUSH1 0x20 PUSH1 0x40 MLOAD CALLER DUP2 MSTORE LOG1 STOP JUMPDEST CALLVALUE PUSH2 0x1C8 JUMPI PUSH1 0x20 CALLDATASIZE PUSH1 0x3 NOT ADD SLT PUSH2 0x1C8 JUMPI PUSH2 0x14CD PUSH2 0x2702 JUMP JUMPDEST PUSH2 0x14D5 PUSH2 0x27F7 JUMP JUMPDEST PUSH1 0x1 PUSH1 0x1 PUSH1 0xA0 SHL SUB AND DUP1 ISZERO PUSH2 0x14FC JUMPI PUSH1 0x1 PUSH1 0x1 PUSH1 0x60 SHL SUB PUSH1 0xA0 SHL PUSH1 0xA SLOAD AND OR PUSH1 0xA SSTORE PUSH1 0x0 DUP1 RETURN JUMPDEST PUSH1 0x40 MLOAD PUSH3 0x461BCD PUSH1 0xE5 SHL DUP2 MSTORE PUSH1 0x20 PUSH1 0x4 DUP3 ADD MSTORE PUSH1 0x10 PUSH1 0x24 DUP3 ADD MSTORE PUSH16 0x496E76616C6964207472656173757279 PUSH1 0x80 SHL PUSH1 0x44 DUP3 ADD MSTORE PUSH1 0x64 SWAP1 REVERT JUMPDEST CALLVALUE PUSH2 0x1C8 JUMPI PUSH1 0x60 CALLDATASIZE PUSH1 0x3 NOT ADD SLT PUSH2 0x1C8 JUMPI PUSH2 0x154D PUSH2 0x2790 JUMP JUMPDEST PUSH1 0x44 CALLDATALOAD PUSH2 0x1558 PUSH2 0x27F7 JUMP JUMPDEST PUSH1 0x4 CALLDATALOAD PUSH1 0x0 MSTORE PUSH1 0x5 PUSH1 0x20 MSTORE PUSH1 0x40 PUSH1 0x0 KECCAK256 SWAP1 PUSH1 0x9 DUP3 ADD SWAP3 PUSH1 0xFF DUP5 SLOAD AND PUSH1 0x7 DUP2 LT ISZERO PUSH2 0x50D JUMPI PUSH1 0x5 SUB PUSH2 0x1771 JUMPI PUSH2 0x2710 SWAP1 DUP2 DUP4 GT PUSH2 0x173C JUMPI ISZERO PUSH2 0x16CE JUMPI PUSH2 0x15AE SWAP1 PUSH2 0x15A6 PUSH1 0x4 DUP6 ADD SLOAD SWAP4 DUP5 PUSH2 0x2AF8 JUMP JUMPDEST DIV DUP1 SWAP3 PUSH2 0x2BE5 JUMP JUMPDEST PUSH1 0x3 DUP4 ADD DUP1 SLOAD PUSH1 0x1 PUSH1 0x1 PUSH1 0xA0 SHL SUB SWAP4 SWAP2 SWAP1 DUP5 AND DUP1 PUSH2 0x166C JUMPI POP POP DUP1 ISZERO DUP1 ISZERO PUSH2 0x1640 JUMPI JUMPDEST POP POP DUP1 ISZERO DUP1 ISZERO PUSH2 0x1614 JUMPI JUMPDEST POP POP PUSH1 0x0 DUP1 DUP1 SWAP4 PUSH1 0x5 DUP3 SWAP5 PUSH1 0xA SLOAD AND SWAP2 ADD SLOAD SWAP1 DUP3 DUP3 ISZERO PUSH2 0x160B JUMPI JUMPDEST CALL ISZERO PUSH2 0x9B2 JUMPI JUMPDEST DUP1 SLOAD PUSH1 0xFF NOT AND PUSH1 0x4 OR SWAP1 SSTORE STOP JUMPDEST POP PUSH2 0x8FC PUSH2 0x15F7 JUMP JUMPDEST PUSH1 0x0 DUP1 DUP1 SWAP4 DUP2 SWAP4 DUP7 PUSH1 0x1 DUP10 ADD SLOAD AND SWAP1 DUP4 SWAP1 PUSH2 0x1637 JUMPI JUMPDEST CALL ISZERO PUSH2 0x9B2 JUMPI DUP4 DUP1 PUSH2 0x15DC JUMP JUMPDEST POP PUSH2 0x8FC PUSH2 0x162A JUMP JUMPDEST PUSH1 0x0 DUP1 DUP1 SWAP4 DUP2 SWAP4 DUP8 PUSH1 0x2 DUP11 ADD SLOAD AND SWAP1 DUP4 SWAP1 PUSH2 0x1663 JUMPI JUMPDEST CALL ISZERO PUSH2 0x9B2 JUMPI DUP5 DUP1 PUSH2 0x15D1 JUMP JUMPDEST POP PUSH2 0x8FC PUSH2 0x1656 JUMP JUMPDEST SWAP1 PUSH2 0x1696 SWAP6 SWAP4 DUP6 SWAP3 DUP5 PUSH1 0x5 SWAP6 PUSH2 0x16B6 JUMPI JUMPDEST POP POP DUP1 PUSH2 0x169B JUMPI JUMPDEST POP SLOAD AND SWAP3 PUSH1 0xA SLOAD AND SWAP2 ADD SLOAD SWAP2 PUSH2 0x3122 JUMP JUMPDEST PUSH2 0x15FE JUMP JUMPDEST PUSH2 0x16B0 SWAP1 DUP4 DUP4 SLOAD AND DUP5 PUSH1 0x1 DUP9 ADD SLOAD AND SWAP1 PUSH2 0x3122 JUMP JUMPDEST DUP8 PUSH2 0x1685 JUMP JUMPDEST PUSH2 0x16C7 SWAP2 DUP6 PUSH1 0x2 DUP10 ADD SLOAD AND SWAP1 PUSH2 0x3122 JUMP JUMPDEST DUP9 DUP1 PUSH2 0x167D JUMP JUMPDEST POP POP PUSH2 0x16E3 PUSH1 0x4 DUP3 ADD SLOAD PUSH1 0x5 DUP4 ADD SLOAD SWAP1 PUSH2 0x2BD8 JUMP JUMPDEST PUSH1 0x3 DUP3 ADD SLOAD SWAP1 SWAP2 PUSH1 0x1 PUSH1 0x1 PUSH1 0xA0 SHL SUB SWAP2 DUP3 AND DUP1 PUSH2 0x172A JUMPI POP PUSH1 0x0 DUP1 SWAP4 DUP2 SWAP4 PUSH1 0x1 DUP4 SWAP5 ADD SLOAD AND DUP3 DUP3 ISZERO PUSH2 0x1721 JUMPI JUMPDEST CALL PUSH2 0x15FE JUMPI PUSH1 0x40 MLOAD RETURNDATASIZE PUSH1 0x0 DUP3 RETURNDATACOPY RETURNDATASIZE SWAP1 REVERT JUMPDEST POP PUSH2 0x8FC PUSH2 0x1710 JUMP JUMPDEST SWAP1 SWAP2 PUSH1 0x1 PUSH2 0x1696 SWAP5 SWAP4 ADD SLOAD AND SWAP1 PUSH2 0x3122 JUMP JUMPDEST PUSH1 0x40 MLOAD PUSH3 0x461BCD PUSH1 0xE5 SHL DUP2 MSTORE PUSH1 0x20 PUSH1 0x4 DUP3 ADD MSTORE PUSH1 0xD PUSH1 0x24 DUP3 ADD MSTORE PUSH13 0x496E76616C6964207368617265 PUSH1 0x98 SHL PUSH1 0x44 DUP3 ADD MSTORE PUSH1 0x64 SWAP1 REVERT JUMPDEST PUSH1 0x40 MLOAD PUSH3 0x461BCD PUSH1 0xE5 SHL DUP2 MSTORE PUSH1 0x20 PUSH1 0x4 DUP3 ADD MSTORE PUSH1 0xC PUSH1 0x24 DUP3 ADD MSTORE PUSH12 0x139BDD08191A5CDC1D5D1959 PUSH1 0xA2 SHL PUSH1 0x44 DUP3 ADD MSTORE PUSH1 0x64 SWAP1 REVERT JUMPDEST CALLVALUE PUSH2 0x1C8 JUMPI PUSH1 0x0 CALLDATASIZE PUSH1 0x3 NOT ADD SLT PUSH2 0x1C8 JUMPI PUSH2 0x17BE PUSH2 0x27F7 JUMP JUMPDEST PUSH1 0x0 DUP1 SLOAD PUSH1 0x1 PUSH1 0x1 PUSH1 0xA0 SHL SUB NOT DUP2 AND DUP3 SSTORE PUSH1 0x1 PUSH1 0x1 PUSH1 0xA0 SHL SUB AND PUSH32 0x8BE0079C531659141344CD1FD0A4F28419497F9722A3DAAFE3B4186F6B6457E0 DUP3 DUP1 LOG3 STOP JUMPDEST CALLVALUE PUSH2 0x1C8 JUMPI PUSH2 0x180C CALLDATASIZE PUSH2 0x2748 JUMP JUMPDEST SWAP1 PUSH1 0x0 MSTORE PUSH1 0x7 PUSH1 0x20 MSTORE PUSH1 0x40 PUSH1 0x0 KECCAK256 DUP1 SLOAD DUP3 LT ISZERO PUSH2 0x1C8 JUMPI PUSH1 0x80 SWAP2 PUSH2 0x182F SWAP2 PUSH2 0x275E JUMP JUMPDEST POP PUSH1 0x1 DUP1 PUSH1 0xA0 SHL SUB DUP2 SLOAD AND SWAP1 PUSH1 0x1 DUP2 ADD SLOAD SWAP1 PUSH1 0x3 PUSH1 0x2 DUP3 ADD SLOAD SWAP2 ADD SLOAD SWAP2 PUSH1 0x40 MLOAD SWAP4 DUP5 MSTORE PUSH1 0x20 DUP5 ADD MSTORE PUSH1 0x40 DUP4 ADD MSTORE PUSH1 0x60 DUP3 ADD MSTORE RETURN JUMPDEST CALLVALUE PUSH2 0x1C8 JUMPI PUSH1 0x0 CALLDATASIZE PUSH1 0x3 NOT ADD SLT PUSH2 0x1C8 JUMPI PUSH1 0x20 PUSH1 0xFF PUSH1 0x2 SLOAD AND PUSH1 0x40 MLOAD SWAP1 ISZERO ISZERO DUP2 MSTORE RETURN JUMPDEST CALLVALUE PUSH2 0x1C8 JUMPI PUSH1 0x40 CALLDATASIZE PUSH1 0x3 NOT ADD SLT PUSH2 0x1C8 JUMPI PUSH1 0x4 CALLDATALOAD PUSH1 0x24 CALLDATALOAD PUSH1 0x1 PUSH1 0x1 PUSH1 0x40 SHL SUB DUP2 GT PUSH2 0x1C8 JUMPI PUSH2 0x18B9 SWAP1 CALLDATASIZE SWAP1 PUSH1 0x4 ADD PUSH2 0x26D5 JUMP JUMPDEST SWAP2 SWAP1 PUSH2 0x18C3 PUSH2 0x2B1A JUMP JUMPDEST DUP2 PUSH1 0x0 MSTORE PUSH1 0x5 PUSH1 0x20 MSTORE PUSH1 0x40 PUSH1 0x0 KECCAK256 PUSH2 0x18DD DUP2 SLOAD ISZERO ISZERO PUSH2 0x2B5E JUMP JUMPDEST PUSH1 0x1 DUP2 ADD SLOAD CALLER PUSH1 0x1 PUSH1 0x1 PUSH1 0xA0 SHL SUB SWAP2 DUP3 AND EQ SWAP1 DUP2 ISZERO PUSH2 0x19F7 JUMPI JUMPDEST POP ISZERO PUSH2 0x19C0 JUMPI PUSH1 0x9 ADD SWAP1 DUP2 SLOAD SWAP2 PUSH1 0xFF DUP4 AND PUSH1 0x7 DUP2 LT ISZERO PUSH2 0x50D JUMPI PUSH1 0x2 DUP2 EQ SWAP1 DUP2 ISZERO PUSH2 0x19B5 JUMPI JUMPDEST POP ISZERO PUSH2 0x197F JUMPI PUSH1 0x5 PUSH32 0xAAC12699BB97AB2106984556F30519FF4E43B5DED12822C577D2371AC7B8A5CC SWAP4 PUSH1 0xFF NOT AND OR SWAP1 SSTORE DUP4 PUSH1 0x40 MLOAD SWAP2 PUSH1 0x20 DUP4 MSTORE DUP2 PUSH1 0x20 DUP5 ADD MSTORE PUSH1 0x40 DUP4 ADD CALLDATACOPY PUSH1 0x0 PUSH1 0x40 DUP6 DUP4 ADD ADD MSTORE PUSH1 0x40 DUP2 CALLER SWAP6 PUSH1 0x1F DUP1 NOT SWAP2 ADD AND DUP2 ADD SUB ADD SWAP1 LOG3 STOP JUMPDEST PUSH1 0x40 MLOAD PUSH3 0x461BCD PUSH1 0xE5 SHL DUP2 MSTORE PUSH1 0x20 PUSH1 0x4 DUP3 ADD MSTORE PUSH1 0xE PUSH1 0x24 DUP3 ADD MSTORE PUSH14 0x43616E6E6F742064697370757465 PUSH1 0x90 SHL PUSH1 0x44 DUP3 ADD MSTORE PUSH1 0x64 SWAP1 REVERT JUMPDEST PUSH1 0x3 SWAP2 POP EQ DUP7 PUSH2 0x191D JUMP JUMPDEST PUSH1 0x40 MLOAD PUSH3 0x461BCD PUSH1 0xE5 SHL DUP2 MSTORE PUSH1 0x20 PUSH1 0x4 DUP3 ADD MSTORE PUSH1 0xF PUSH1 0x24 DUP3 ADD MSTORE PUSH15 0x139BDD081C185C9D1A58DA5C185B9D PUSH1 0x8A SHL PUSH1 0x44 DUP3 ADD MSTORE PUSH1 0x64 SWAP1 REVERT JUMPDEST SWAP1 POP PUSH1 0x2 DUP3 ADD SLOAD AND CALLER EQ DUP6 PUSH2 0x18F7 JUMP JUMPDEST CALLVALUE PUSH2 0x1C8 JUMPI PUSH1 0x20 DUP1 PUSH1 0x3 NOT CALLDATASIZE ADD SLT PUSH2 0x1C8 JUMPI PUSH1 0x4 CALLDATALOAD PUSH1 0x0 MSTORE PUSH1 0x6 DUP2 MSTORE PUSH1 0x40 PUSH1 0x0 KECCAK256 PUSH1 0x40 MLOAD SWAP1 DUP2 DUP4 DUP3 SLOAD SWAP2 DUP3 DUP2 MSTORE ADD SWAP1 DUP2 SWAP3 PUSH1 0x0 MSTORE DUP5 PUSH1 0x0 KECCAK256 SWAP1 PUSH1 0x0 JUMPDEST DUP7 DUP3 DUP3 LT PUSH2 0x1AA2 JUMPI DUP7 DUP7 PUSH2 0x1A59 DUP3 DUP9 SUB DUP4 PUSH2 0x28BC JUMP JUMPDEST PUSH1 0x40 MLOAD SWAP3 DUP4 SWAP3 DUP2 DUP5 ADD SWAP1 DUP3 DUP6 MSTORE MLOAD DUP1 SWAP2 MSTORE PUSH1 0x40 DUP5 ADD SWAP3 SWAP2 PUSH1 0x0 JUMPDEST DUP3 DUP2 LT PUSH2 0x1A82 JUMPI POP POP POP POP SUB SWAP1 RETURN JUMPDEST DUP4 MLOAD PUSH1 0x1 PUSH1 0x1 PUSH1 0xA0 SHL SUB AND DUP6 MSTORE DUP7 SWAP6 POP SWAP4 DUP2 ADD SWAP4 SWAP3 DUP2 ADD SWAP3 PUSH1 0x1 ADD PUSH2 0x1A73 JUMP JUMPDEST DUP4 SLOAD PUSH1 0x1 PUSH1 0x1 PUSH1 0xA0 SHL SUB AND DUP6 MSTORE SWAP1 SWAP4 ADD SWAP3 PUSH1 0x1 SWAP3 DUP4 ADD SWAP3 ADD PUSH2 0x1A43 JUMP JUMPDEST CALLVALUE PUSH2 0x1C8 JUMPI PUSH1 0x0 CALLDATASIZE PUSH1 0x3 NOT ADD SLT PUSH2 0x1C8 JUMPI PUSH2 0x1AD8 PUSH2 0x27F7 JUMP JUMPDEST PUSH1 0x2 SLOAD PUSH1 0xFF DUP2 AND ISZERO PUSH2 0x1B17 JUMPI PUSH1 0xFF NOT AND PUSH1 0x2 SSTORE PUSH32 0x5DB9EE0A495BF2E6FF9C91A7834C1BA4FDD244A5E8AA4E537BD38AEAE4B073AA PUSH1 0x20 PUSH1 0x40 MLOAD CALLER DUP2 MSTORE LOG1 STOP JUMPDEST PUSH1 0x40 MLOAD PUSH3 0x461BCD PUSH1 0xE5 SHL DUP2 MSTORE PUSH1 0x20 PUSH1 0x4 DUP3 ADD MSTORE PUSH1 0x14 PUSH1 0x24 DUP3 ADD MSTORE PUSH20 0x14185D5CD8589B194E881B9BDD081C185D5CD959 PUSH1 0x62 SHL PUSH1 0x44 DUP3 ADD MSTORE PUSH1 0x64 SWAP1 REVERT JUMPDEST PUSH1 0x20 CALLDATASIZE PUSH1 0x3 NOT ADD SLT PUSH2 0x1C8 JUMPI PUSH1 0x4 CALLDATALOAD PUSH2 0x1B6A PUSH2 0x2B1A JUMP JUMPDEST PUSH2 0x1B72 PUSH2 0x2BF2 JUMP JUMPDEST DUP1 PUSH1 0x0 MSTORE PUSH1 0x5 PUSH1 0x20 MSTORE PUSH1 0x40 PUSH1 0x0 KECCAK256 SWAP1 PUSH2 0x1B8D DUP3 SLOAD ISZERO ISZERO PUSH2 0x2B5E JUMP JUMPDEST PUSH1 0x9 DUP3 ADD PUSH1 0xFF DUP2 SLOAD AND PUSH1 0x7 DUP2 LT ISZERO PUSH2 0x50D JUMPI PUSH2 0x1BA9 SWAP1 ISZERO PUSH2 0x2B9B JUMP JUMPDEST PUSH2 0x1BBC PUSH1 0x4 DUP5 ADD SLOAD PUSH1 0x5 DUP6 ADD SLOAD SWAP1 PUSH2 0x2BD8 JUMP JUMPDEST PUSH1 0x3 SWAP1 SWAP4 ADD SLOAD PUSH1 0x1 PUSH1 0x1 PUSH1 0xA0 SHL SUB AND DUP1 PUSH2 0x1C88 JUMPI POP DUP3 CALLVALUE LT PUSH2 0x1C50 JUMPI DUP3 CALLVALUE GT PUSH2 0x1C1D JUMPI JUMPDEST PUSH1 0x1 PUSH1 0xFF NOT DUP3 SLOAD AND OR SWAP1 SSTORE PUSH1 0x40 MLOAD SWAP2 DUP3 MSTORE PUSH32 0x445261F2D48E762C283603166FC492190FA0FE097281E8169F243B94077AAFCF PUSH1 0x20 CALLER SWAP4 LOG3 PUSH1 0x1 DUP1 SSTORE STOP JUMPDEST PUSH1 0x0 DUP1 DUP1 DUP1 PUSH2 0x1C2C DUP8 CALLVALUE PUSH2 0x2BE5 JUMP JUMPDEST DUP2 DUP2 ISZERO PUSH2 0x1C47 JUMPI JUMPDEST CALLER SWAP1 CALL PUSH2 0x1BE0 JUMPI PUSH1 0x40 MLOAD RETURNDATASIZE PUSH1 0x0 DUP3 RETURNDATACOPY RETURNDATASIZE SWAP1 REVERT JUMPDEST POP PUSH2 0x8FC PUSH2 0x1C34 JUMP JUMPDEST PUSH1 0x40 MLOAD PUSH3 0x461BCD PUSH1 0xE5 SHL DUP2 MSTORE PUSH1 0x20 PUSH1 0x4 DUP3 ADD MSTORE PUSH1 0x10 PUSH1 0x24 DUP3 ADD MSTORE PUSH16 0x92DCE6EACCCCD2C6D2CADCE8408AA89 PUSH1 0x83 SHL PUSH1 0x44 DUP3 ADD MSTORE PUSH1 0x64 SWAP1 REVERT JUMPDEST PUSH1 0x40 MLOAD PUSH4 0x23B872DD PUSH1 0xE0 SHL PUSH1 0x20 DUP3 ADD MSTORE CALLER PUSH1 0x24 DUP3 ADD MSTORE ADDRESS PUSH1 0x44 DUP3 ADD MSTORE PUSH1 0x64 DUP1 DUP3 ADD DUP7 SWAP1 MSTORE DUP2 MSTORE PUSH1 0xA0 DUP2 ADD SWAP2 PUSH1 0x1 PUSH1 0x1 PUSH1 0x40 SHL SUB DUP4 GT DUP3 DUP5 LT OR PUSH2 0x4F7 JUMPI PUSH2 0x1CD1 SWAP3 PUSH1 0x40 MSTORE PUSH2 0x2C48 JUMP JUMPDEST PUSH2 0x1BE0 JUMP JUMPDEST CALLVALUE PUSH2 0x1C8 JUMPI PUSH1 0x20 CALLDATASIZE PUSH1 0x3 NOT ADD SLT PUSH2 0x1C8 JUMPI PUSH1 0x0 PUSH2 0x1C0 PUSH1 0x40 MLOAD PUSH2 0x1CF8 DUP2 PUSH2 0x286A JUMP JUMPDEST DUP3 DUP2 MSTORE DUP3 PUSH1 0x20 DUP3 ADD MSTORE DUP3 PUSH1 0x40 DUP3 ADD MSTORE DUP3 PUSH1 0x60 DUP3 ADD MSTORE DUP3 PUSH1 0x80 DUP3 ADD MSTORE DUP3 PUSH1 0xA0 DUP3 ADD MSTORE DUP3 PUSH1 0xC0 DUP3 ADD MSTORE DUP3 PUSH1 0xE0 DUP3 ADD MSTORE DUP3 PUSH2 0x100 DUP3 ADD MSTORE DUP3 PUSH2 0x120 DUP3 ADD MSTORE DUP3 PUSH2 0x140 DUP3 ADD MSTORE DUP3 PUSH2 0x160 DUP3 ADD MSTORE DUP3 PUSH2 0x180 DUP3 ADD MSTORE DUP3 PUSH2 0x1A0 DUP3 ADD MSTORE ADD MSTORE PUSH1 0x4 CALLDATALOAD PUSH1 0x0 MSTORE PUSH1 0x5 PUSH1 0x20 MSTORE PUSH1 0x40 PUSH1 0x0 KECCAK256 PUSH1 0x40 MLOAD PUSH2 0x1D6D DUP2 PUSH2 0x286A JUMP JUMPDEST DUP2 SLOAD DUP2 MSTORE PUSH1 0x1 DUP3 ADD SLOAD PUSH1 0x1 PUSH1 0x1 PUSH1 0xA0 SHL SUB SWAP1 DUP2 AND PUSH1 0x20 DUP4 ADD MSTORE PUSH1 0x2 DUP4 ADD SLOAD DUP2 AND PUSH1 0x40 DUP4 ADD MSTORE PUSH1 0x3 DUP1 DUP5 ADD SLOAD SWAP1 SWAP2 AND PUSH1 0x60 DUP4 ADD MSTORE PUSH1 0x4 DUP4 ADD SLOAD PUSH1 0x80 DUP4 ADD MSTORE PUSH1 0x5 DUP4 ADD SLOAD PUSH1 0xA0 DUP4 ADD MSTORE PUSH1 0x6 DUP4 ADD SLOAD PUSH1 0xFF AND SWAP1 DUP2 LT ISZERO PUSH2 0x50D JUMPI PUSH1 0xC0 DUP3 ADD MSTORE PUSH1 0x7 DUP3 ADD SLOAD PUSH1 0xE0 DUP3 ADD MSTORE PUSH1 0x8 DUP3 ADD SLOAD PUSH2 0x100 DUP3 ADD MSTORE PUSH1 0xFF PUSH1 0x9 DUP4 ADD SLOAD AND PUSH1 0x7 DUP2 LT ISZERO PUSH2 0x50D JUMPI PUSH2 0x1E0 SWAP3 PUSH1 0xE SWAP2 PUSH2 0x120 DUP5 ADD MSTORE PUSH1 0xA DUP2 ADD SLOAD PUSH2 0x140 DUP5 ADD MSTORE PUSH1 0xB DUP2 ADD SLOAD PUSH2 0x160 DUP5 ADD MSTORE PUSH1 0xC DUP2 ADD SLOAD PUSH2 0x180 DUP5 ADD MSTORE PUSH1 0xD DUP2 ADD SLOAD PUSH2 0x1A0 DUP5 ADD MSTORE ADD SLOAD PUSH2 0x1C0 DUP3 ADD MSTORE PUSH2 0x1C0 PUSH1 0x40 MLOAD SWAP2 DUP1 MLOAD DUP4 MSTORE PUSH1 0x1 DUP1 PUSH1 0xA0 SHL SUB PUSH1 0x20 DUP3 ADD MLOAD AND PUSH1 0x20 DUP5 ADD MSTORE PUSH1 0x1 DUP1 PUSH1 0xA0 SHL SUB PUSH1 0x40 DUP3 ADD MLOAD AND PUSH1 0x40 DUP5 ADD MSTORE PUSH1 0x1 DUP1 PUSH1 0xA0 SHL SUB PUSH1 0x60 DUP3 ADD MLOAD AND PUSH1 0x60 DUP5 ADD MSTORE PUSH1 0x80 DUP2 ADD MLOAD PUSH1 0x80 DUP5 ADD MSTORE PUSH1 0xA0 DUP2 ADD MLOAD PUSH1 0xA0 DUP5 ADD MSTORE PUSH2 0x1E97 PUSH1 0xC0 DUP3 ADD MLOAD PUSH1 0xC0 DUP6 ADD SWAP1 PUSH2 0x272E JUMP JUMPDEST PUSH1 0xE0 DUP2 ADD MLOAD PUSH1 0xE0 DUP5 ADD MSTORE PUSH2 0x100 DUP2 ADD MLOAD PUSH2 0x100 DUP5 ADD MSTORE PUSH2 0x1EC1 PUSH2 0x120 DUP3 ADD MLOAD PUSH2 0x120 DUP6 ADD SWAP1 PUSH2 0x273B JUMP JUMPDEST PUSH2 0x140 DUP2 ADD MLOAD PUSH2 0x140 DUP5 ADD MSTORE PUSH2 0x160 DUP2 ADD MLOAD PUSH2 0x160 DUP5 ADD MSTORE PUSH2 0x180 DUP2 ADD MLOAD PUSH2 0x180 DUP5 ADD MSTORE PUSH2 0x1A0 DUP2 ADD MLOAD PUSH2 0x1A0 DUP5 ADD MSTORE ADD MLOAD PUSH2 0x1C0 DUP3 ADD MSTORE RETURN JUMPDEST CALLVALUE PUSH2 0x1C8 JUMPI PUSH1 0x20 CALLDATASIZE PUSH1 0x3 NOT ADD SLT PUSH2 0x1C8 JUMPI PUSH1 0x1 PUSH1 0x1 PUSH1 0xA0 SHL SUB PUSH2 0x1F1C PUSH2 0x2702 JUMP JUMPDEST AND PUSH1 0x0 MSTORE PUSH1 0x9 PUSH1 0x20 MSTORE PUSH1 0x20 PUSH1 0xFF PUSH1 0x40 PUSH1 0x0 KECCAK256 SLOAD AND PUSH1 0x40 MLOAD SWAP1 ISZERO ISZERO DUP2 MSTORE RETURN JUMPDEST CALLVALUE PUSH2 0x1C8 JUMPI PUSH1 0x0 CALLDATASIZE PUSH1 0x3 NOT ADD SLT PUSH2 0x1C8 JUMPI PUSH1 0x20 PUSH1 0x40 MLOAD PUSH32 0x5BD933B273F51D3761BF0A918A4105ED3E1E97DF586FBDFEEA9277D229FC6007 DUP2 MSTORE RETURN JUMPDEST CALLVALUE PUSH2 0x1C8 JUMPI PUSH1 0x80 CALLDATASIZE PUSH1 0x3 NOT ADD SLT PUSH2 0x1C8 JUMPI PUSH1 0x64 CALLDATALOAD PUSH1 0x1 PUSH1 0x1 PUSH1 0x40 SHL SUB DUP2 GT PUSH2 0x1C8 JUMPI PUSH2 0x1FA5 SWAP1 CALLDATASIZE SWAP1 PUSH1 0x4 ADD PUSH2 0x26D5 JUMP JUMPDEST PUSH2 0x1FAD PUSH2 0x2B1A JUMP JUMPDEST PUSH1 0x4 CALLDATALOAD PUSH1 0x0 MSTORE PUSH1 0x5 PUSH1 0x20 MSTORE PUSH1 0x40 PUSH1 0x0 KECCAK256 SWAP2 PUSH2 0x1FCA DUP4 SLOAD ISZERO ISZERO PUSH2 0x2B5E JUMP JUMPDEST PUSH1 0xFF PUSH1 0x9 DUP5 ADD SLOAD AND PUSH1 0x7 DUP2 LT ISZERO PUSH2 0x50D JUMPI PUSH1 0x2 SUB PUSH2 0x2685 JUMPI PUSH1 0x4 CALLDATALOAD PUSH1 0x0 MSTORE PUSH1 0x8 PUSH1 0x20 MSTORE PUSH1 0x40 PUSH1 0x0 KECCAK256 CALLER PUSH1 0x0 MSTORE PUSH1 0x20 MSTORE PUSH1 0xFF PUSH1 0x40 PUSH1 0x0 KECCAK256 SLOAD AND PUSH2 0x264F JUMPI PUSH1 0x64 PUSH1 0x44 CALLDATALOAD GT PUSH2 0x2618 JUMPI PUSH1 0x42 PUSH1 0xC SLOAD PUSH2 0x201E DUP2 PUSH2 0x2B0B JUMP JUMPDEST PUSH1 0xC SSTORE PUSH1 0x40 MLOAD SWAP1 PUSH32 0x5BD933B273F51D3761BF0A918A4105ED3E1E97DF586FBDFEEA9277D229FC6007 PUSH1 0x20 DUP4 ADD MSTORE PUSH1 0x4 CALLDATALOAD PUSH1 0x40 DUP4 ADD MSTORE PUSH1 0x24 CALLDATALOAD PUSH1 0x60 DUP4 ADD MSTORE PUSH1 0x44 CALLDATALOAD PUSH1 0x80 DUP4 ADD MSTORE PUSH1 0xA0 DUP3 ADD MSTORE PUSH1 0xA0 DUP2 MSTORE PUSH2 0x2075 DUP2 PUSH2 0x2886 JUMP JUMPDEST PUSH1 0x20 DUP2 MLOAD SWAP2 ADD KECCAK256 PUSH2 0x2084 PUSH2 0x2FCE JUMP JUMPDEST SWAP1 PUSH1 0x40 MLOAD SWAP2 PUSH2 0x1901 PUSH1 0xF0 SHL DUP4 MSTORE PUSH1 0x2 DUP4 ADD MSTORE PUSH1 0x22 DUP3 ADD MSTORE KECCAK256 PUSH2 0x20A5 DUP4 PUSH2 0x2ADD JUMP JUMPDEST SWAP1 PUSH2 0x20B3 PUSH1 0x40 MLOAD SWAP3 DUP4 PUSH2 0x28BC JUMP JUMPDEST DUP4 DUP3 MSTORE CALLDATASIZE DUP5 DUP5 ADD GT PUSH2 0x1C8 JUMPI PUSH1 0x0 PUSH1 0x20 DUP6 PUSH2 0x20E1 SWAP7 PUSH2 0x20D9 SWAP7 DUP4 DUP8 ADD CALLDATACOPY DUP5 ADD ADD MSTORE PUSH2 0x2F07 JUMP JUMPDEST SWAP2 SWAP1 SWAP2 PUSH2 0x2E03 JUMP JUMPDEST PUSH1 0x0 PUSH1 0x4 CALLDATALOAD PUSH1 0x0 MSTORE PUSH1 0x6 PUSH1 0x20 MSTORE PUSH1 0x40 PUSH1 0x0 KECCAK256 PUSH1 0xFF PUSH1 0x6 DUP6 ADD SLOAD AND PUSH1 0x3 DUP2 LT ISZERO PUSH2 0x50D JUMPI DUP1 ISZERO SWAP1 DUP2 ISZERO PUSH2 0x260D JUMPI JUMPDEST POP PUSH2 0x25B1 JUMPI JUMPDEST POP PUSH1 0x1 PUSH1 0x1 PUSH1 0xA0 SHL SUB DUP3 AND PUSH1 0x0 SWAP1 DUP2 MSTORE PUSH1 0x9 PUSH1 0x20 MSTORE PUSH1 0x40 SWAP1 KECCAK256 SLOAD PUSH1 0xFF AND PUSH2 0x25A9 JUMPI JUMPDEST ISZERO PUSH2 0x2573 JUMPI PUSH1 0x4 CALLDATALOAD PUSH1 0x0 DUP2 DUP2 MSTORE PUSH1 0x8 PUSH1 0x20 SWAP1 DUP2 MSTORE PUSH1 0x40 DUP1 DUP4 KECCAK256 PUSH1 0x1 PUSH1 0x1 PUSH1 0xA0 SHL SUB DUP7 AND DUP5 MSTORE DUP3 MSTORE DUP1 DUP4 KECCAK256 DUP1 SLOAD PUSH1 0xFF NOT AND PUSH1 0x1 OR SWAP1 SSTORE SWAP3 DUP3 MSTORE PUSH1 0x7 SWAP1 MSTORE DUP2 SWAP1 KECCAK256 SWAP1 MLOAD SWAP1 PUSH2 0x2181 DUP3 PUSH2 0x284F JUMP JUMPDEST PUSH1 0x1 PUSH1 0x1 PUSH1 0xA0 SHL SUB DUP4 AND DUP3 MSTORE PUSH1 0x24 CALLDATALOAD PUSH1 0x20 DUP4 ADD MSTORE PUSH1 0x44 CALLDATALOAD PUSH1 0x40 DUP4 ADD MSTORE TIMESTAMP PUSH1 0x60 DUP4 ADD MSTORE DUP1 SLOAD PUSH1 0x1 PUSH1 0x40 SHL DUP2 LT ISZERO PUSH2 0x4F7 JUMPI PUSH2 0x21C0 SWAP2 PUSH1 0x1 DUP3 ADD DUP2 SSTORE PUSH2 0x275E JUMP JUMPDEST SWAP2 SWAP1 SWAP2 PUSH2 0x255D JUMPI PUSH1 0x60 PUSH1 0x3 SWAP2 PUSH1 0x1 DUP1 PUSH1 0xA0 SHL SUB DUP2 MLOAD AND PUSH1 0x1 PUSH1 0x1 PUSH1 0x60 SHL SUB PUSH1 0xA0 SHL DUP6 SLOAD AND OR DUP5 SSTORE PUSH1 0x20 DUP2 ADD MLOAD PUSH1 0x1 DUP6 ADD SSTORE PUSH1 0x40 DUP2 ADD MLOAD PUSH1 0x2 DUP6 ADD SSTORE ADD MLOAD SWAP2 ADD SSTORE PUSH1 0x40 MLOAD SWAP1 PUSH1 0x24 CALLDATALOAD DUP3 MSTORE PUSH1 0x44 CALLDATALOAD PUSH1 0x20 DUP4 ADD MSTORE PUSH1 0x1 DUP1 PUSH1 0xA0 SHL SUB AND SWAP1 PUSH32 0xAC0B260CA42965438740B414C41F2147445DCCAC087C386036C4115FA9FF1B00 PUSH1 0x40 PUSH1 0x4 CALLDATALOAD SWAP3 LOG3 PUSH1 0xFF PUSH1 0x6 DUP3 ADD SLOAD AND PUSH1 0x3 DUP2 LT ISZERO PUSH2 0x50D JUMPI DUP1 PUSH2 0x23B8 JUMPI POP POP PUSH1 0x3C PUSH1 0x44 CALLDATALOAD LT ISZERO PUSH2 0x2267 JUMPI STOP JUMPDEST PUSH2 0x226F PUSH2 0x2BF2 JUMP JUMPDEST PUSH1 0x4 CALLDATALOAD PUSH1 0x0 MSTORE PUSH1 0x5 PUSH1 0x20 MSTORE PUSH1 0x40 PUSH1 0x0 KECCAK256 PUSH1 0x9 DUP2 ADD DUP1 SLOAD PUSH1 0xFF DUP2 AND PUSH1 0x7 DUP2 LT ISZERO PUSH2 0x50D JUMPI PUSH1 0x4 DUP2 EQ PUSH2 0xA4F JUMPI PUSH1 0x6 EQ PUSH2 0xA17 JUMPI PUSH1 0xFF NOT AND PUSH1 0x3 SWAP1 DUP2 OR DUP3 SSTORE PUSH1 0x44 CALLDATALOAD PUSH1 0xE DUP5 ADD SSTORE DUP3 ADD DUP1 SLOAD PUSH1 0x1 PUSH1 0x1 PUSH1 0xA0 SHL SUB AND SWAP1 DUP2 PUSH2 0x2376 JUMPI POP POP PUSH1 0x0 DUP1 DUP1 DUP1 PUSH1 0x1 DUP1 PUSH1 0xA0 SHL SUB PUSH1 0x2 DUP8 ADD SLOAD AND PUSH1 0x4 DUP8 ADD SLOAD SWAP1 DUP3 DUP3 ISZERO PUSH2 0x236D JUMPI JUMPDEST CALL ISZERO PUSH2 0x9B2 JUMPI PUSH1 0x0 DUP1 DUP1 DUP1 PUSH1 0x1 DUP1 PUSH1 0xA0 SHL SUB PUSH1 0xA SLOAD AND PUSH1 0x5 DUP8 ADD SLOAD SWAP1 DUP3 DUP3 ISZERO PUSH2 0x2364 JUMPI JUMPDEST CALL ISZERO PUSH2 0x9B2 JUMPI JUMPDEST PUSH1 0x4 PUSH1 0xFF NOT DUP3 SLOAD AND OR SWAP1 SSTORE TIMESTAMP PUSH1 0xC DUP3 ADD SSTORE PUSH1 0x1 DUP1 PUSH1 0xA0 SHL SUB PUSH1 0x2 DUP3 ADD SLOAD AND SWAP1 PUSH1 0x5 PUSH1 0x4 DUP3 ADD SLOAD SWAP2 ADD SLOAD PUSH1 0x40 MLOAD SWAP2 DUP3 MSTORE PUSH1 0x20 DUP3 ADD MSTORE PUSH1 0x0 DUP1 MLOAD PUSH1 0x20 PUSH2 0x31DE DUP4 CODECOPY DUP2 MLOAD SWAP2 MSTORE PUSH1 0x40 PUSH1 0x4 CALLDATALOAD SWAP3 LOG3 PUSH1 0x1 DUP1 SSTORE STOP JUMPDEST POP PUSH2 0x8FC PUSH2 0x230D JUMP JUMPDEST POP PUSH2 0x8FC PUSH2 0x22E9 JUMP JUMPDEST PUSH1 0x2 DUP5 ADD SLOAD PUSH1 0x4 DUP6 ADD SLOAD PUSH2 0x23B3 SWAP4 PUSH2 0x2397 SWAP3 PUSH1 0x1 PUSH1 0x1 PUSH1 0xA0 SHL SUB AND SWAP1 PUSH2 0x3122 JUMP JUMPDEST SLOAD PUSH1 0xA SLOAD PUSH1 0x5 DUP6 ADD SLOAD SWAP2 PUSH1 0x1 PUSH1 0x1 PUSH1 0xA0 SHL SUB SWAP2 DUP3 AND SWAP2 AND PUSH2 0x3122 JUMP JUMPDEST PUSH2 0x2314 JUMP JUMPDEST PUSH1 0x2 EQ PUSH2 0x23C1 JUMPI STOP JUMPDEST PUSH1 0x4 CALLDATALOAD PUSH1 0x0 MSTORE PUSH1 0x7 PUSH1 0x20 MSTORE PUSH1 0x8 PUSH1 0x40 PUSH1 0x0 KECCAK256 SLOAD SWAP2 ADD SLOAD GT ISZERO PUSH2 0x23DF JUMPI STOP JUMPDEST PUSH1 0x0 DUP1 JUMPDEST PUSH1 0x4 CALLDATALOAD PUSH1 0x0 MSTORE PUSH1 0x7 PUSH1 0x20 MSTORE PUSH1 0x40 PUSH1 0x0 KECCAK256 DUP1 SLOAD DUP4 LT ISZERO PUSH2 0x2424 JUMPI PUSH2 0x241E SWAP2 PUSH1 0x2 PUSH2 0x240F DUP6 PUSH2 0x2418 SWAP5 PUSH2 0x275E JUMP JUMPDEST POP ADD SLOAD SWAP1 PUSH2 0x2BD8 JUMP JUMPDEST SWAP2 PUSH2 0x2B0B JUMP JUMPDEST SWAP1 PUSH2 0x23E3 JUMP JUMPDEST POP SWAP1 POP PUSH1 0x4 CALLDATALOAD PUSH1 0x0 MSTORE PUSH1 0x7 PUSH1 0x20 MSTORE PUSH1 0x40 PUSH1 0x0 KECCAK256 SLOAD SWAP1 DUP2 ISZERO PUSH2 0x2547 JUMPI DIV PUSH1 0x3C DUP2 LT ISZERO PUSH2 0x244B JUMPI STOP JUMPDEST PUSH2 0x2453 PUSH2 0x2BF2 JUMP JUMPDEST PUSH1 0x4 CALLDATALOAD PUSH1 0x0 MSTORE PUSH1 0x5 PUSH1 0x20 MSTORE PUSH1 0x40 PUSH1 0x0 KECCAK256 SWAP1 PUSH1 0x9 DUP3 ADD SWAP1 DUP2 SLOAD PUSH1 0xFF DUP2 AND PUSH1 0x7 DUP2 LT ISZERO PUSH2 0x50D JUMPI PUSH1 0x4 DUP2 EQ PUSH2 0xA4F JUMPI PUSH1 0x6 EQ PUSH2 0xA17 JUMPI PUSH1 0xFF NOT AND PUSH1 0x3 SWAP1 DUP2 OR DUP4 SSTORE PUSH1 0xE DUP5 ADD SWAP2 SWAP1 SWAP2 SSTORE DUP3 ADD DUP1 SLOAD PUSH1 0x1 PUSH1 0x1 PUSH1 0xA0 SHL SUB AND SWAP1 DUP2 PUSH2 0x2376 JUMPI POP POP PUSH1 0x0 DUP1 DUP1 DUP1 PUSH1 0x1 DUP1 PUSH1 0xA0 SHL SUB PUSH1 0x2 DUP8 ADD SLOAD AND PUSH1 0x4 DUP8 ADD SLOAD SWAP1 DUP3 DUP3 ISZERO PUSH2 0x236D JUMPI CALL ISZERO PUSH2 0x9B2 JUMPI PUSH1 0x0 DUP1 DUP1 DUP1 PUSH1 0x1 DUP1 PUSH1 0xA0 SHL SUB PUSH1 0xA SLOAD AND PUSH1 0x5 DUP8 ADD SLOAD SWAP1 DUP3 DUP3 ISZERO PUSH2 0x2364 JUMPI CALL ISZERO PUSH2 0x9B2 JUMPI PUSH1 0x4 PUSH1 0xFF NOT DUP3 SLOAD AND OR SWAP1 SSTORE TIMESTAMP PUSH1 0xC DUP3 ADD SSTORE PUSH1 0x1 DUP1 PUSH1 0xA0 SHL SUB PUSH1 0x2 DUP3 ADD SLOAD AND SWAP1 PUSH1 0x5 PUSH1 0x4 DUP3 ADD SLOAD SWAP2 ADD SLOAD PUSH1 0x40 MLOAD SWAP2 DUP3 MSTORE PUSH1 0x20 DUP3 ADD MSTORE PUSH1 0x0 DUP1 MLOAD PUSH1 0x20 PUSH2 0x31DE DUP4 CODECOPY DUP2 MLOAD SWAP2 MSTORE PUSH1 0x40 PUSH1 0x4 CALLDATALOAD SWAP3 LOG3 PUSH1 0x1 DUP1 SSTORE STOP JUMPDEST PUSH4 0x4E487B71 PUSH1 0xE0 SHL PUSH1 0x0 MSTORE PUSH1 0x12 PUSH1 0x4 MSTORE PUSH1 0x24 PUSH1 0x0 REVERT JUMPDEST PUSH4 0x4E487B71 PUSH1 0xE0 SHL PUSH1 0x0 MSTORE PUSH1 0x0 PUSH1 0x4 MSTORE PUSH1 0x24 PUSH1 0x0 REVERT JUMPDEST PUSH1 0x40 MLOAD PUSH3 0x461BCD PUSH1 0xE5 SHL DUP2 MSTORE PUSH1 0x20 PUSH1 0x4 DUP3 ADD MSTORE PUSH1 0xE PUSH1 0x24 DUP3 ADD MSTORE PUSH14 0x24B73B30B634B21039B4B3B732B9 PUSH1 0x91 SHL PUSH1 0x44 DUP3 ADD MSTORE PUSH1 0x64 SWAP1 REVERT JUMPDEST POP PUSH1 0x1 PUSH2 0x2136 JUMP JUMPDEST DUP1 SLOAD SWAP1 PUSH1 0x1 PUSH1 0x1 PUSH1 0xA0 SHL SUB DUP5 DUP2 AND SWAP2 PUSH1 0x0 JUMPDEST DUP5 DUP2 LT PUSH2 0x25D4 JUMPI JUMPDEST POP POP POP POP PUSH2 0x2114 JUMP JUMPDEST DUP4 DUP4 PUSH2 0x25E0 DUP4 DUP6 PUSH2 0x27DF JUMP JUMPDEST SWAP1 SLOAD SWAP1 PUSH1 0x3 SHL SHR AND EQ PUSH2 0x25FB JUMPI PUSH2 0x25F6 SWAP1 PUSH2 0x2B0B JUMP JUMPDEST PUSH2 0x25C3 JUMP JUMPDEST POP POP POP POP POP POP PUSH1 0x1 DUP4 DUP1 DUP1 DUP1 DUP1 PUSH2 0x25CB JUMP JUMPDEST PUSH1 0x2 SWAP2 POP EQ DUP6 PUSH2 0x210E JUMP JUMPDEST PUSH1 0x40 MLOAD PUSH3 0x461BCD PUSH1 0xE5 SHL DUP2 MSTORE PUSH1 0x20 PUSH1 0x4 DUP3 ADD MSTORE PUSH1 0xF PUSH1 0x24 DUP3 ADD MSTORE PUSH15 0x496E76616C6964207175616C697479 PUSH1 0x88 SHL PUSH1 0x44 DUP3 ADD MSTORE PUSH1 0x64 SWAP1 REVERT JUMPDEST PUSH1 0x40 MLOAD PUSH3 0x461BCD PUSH1 0xE5 SHL DUP2 MSTORE PUSH1 0x20 PUSH1 0x4 DUP3 ADD MSTORE PUSH1 0xE PUSH1 0x24 DUP3 ADD MSTORE PUSH14 0x105B1C9958591E481CDA59DB9959 PUSH1 0x92 SHL PUSH1 0x44 DUP3 ADD MSTORE PUSH1 0x64 SWAP1 REVERT JUMPDEST PUSH1 0x40 MLOAD PUSH3 0x461BCD PUSH1 0xE5 SHL DUP2 MSTORE PUSH1 0x20 PUSH1 0x4 DUP3 ADD MSTORE PUSH1 0xD PUSH1 0x24 DUP3 ADD MSTORE PUSH13 0x139BDD081CDD589B5A5D1D1959 PUSH1 0x9A SHL PUSH1 0x44 DUP3 ADD MSTORE PUSH1 0x64 SWAP1 REVERT JUMPDEST CALLVALUE PUSH2 0x1C8 JUMPI PUSH1 0x0 CALLDATASIZE PUSH1 0x3 NOT ADD SLT PUSH2 0x1C8 JUMPI PUSH1 0x20 SWAP1 PUSH1 0xB SLOAD DUP2 MSTORE RETURN JUMPDEST SWAP2 DUP2 PUSH1 0x1F DUP5 ADD SLT ISZERO PUSH2 0x1C8 JUMPI DUP3 CALLDATALOAD SWAP2 PUSH1 0x1 PUSH1 0x1 PUSH1 0x40 SHL SUB DUP4 GT PUSH2 0x1C8 JUMPI PUSH1 0x20 DUP4 DUP2 DUP7 ADD SWAP6 ADD ADD GT PUSH2 0x1C8 JUMPI JUMP JUMPDEST PUSH1 0x4 CALLDATALOAD SWAP1 PUSH1 0x1 PUSH1 0x1 PUSH1 0xA0 SHL SUB DUP3 AND DUP3 SUB PUSH2 0x1C8 JUMPI JUMP JUMPDEST PUSH1 0x24 CALLDATALOAD SWAP1 PUSH1 0x1 PUSH1 0x1 PUSH1 0xA0 SHL SUB DUP3 AND DUP3 SUB PUSH2 0x1C8 JUMPI JUMP JUMPDEST SWAP1 PUSH1 0x3 DUP3 LT ISZERO PUSH2 0x50D JUMPI MSTORE JUMP JUMPDEST SWAP1 PUSH1 0x7 DUP3 LT ISZERO PUSH2 0x50D JUMPI MSTORE JUMP JUMPDEST PUSH1 0x40 SWAP1 PUSH1 0x3 NOT ADD SLT PUSH2 0x1C8 JUMPI PUSH1 0x4 CALLDATALOAD SWAP1 PUSH1 0x24 CALLDATALOAD SWAP1 JUMP JUMPDEST DUP1 SLOAD DUP3 LT ISZERO PUSH2 0x277A JUMPI PUSH1 0x0 MSTORE PUSH1 0x20 PUSH1 0x0 KECCAK256 SWAP1 PUSH1 0x2 SHL ADD SWAP1 PUSH1 0x0 SWAP1 JUMP JUMPDEST PUSH4 0x4E487B71 PUSH1 0xE0 SHL PUSH1 0x0 MSTORE PUSH1 0x32 PUSH1 0x4 MSTORE PUSH1 0x24 PUSH1 0x0 REVERT JUMPDEST PUSH1 0x24 CALLDATALOAD SWAP1 DUP2 ISZERO ISZERO DUP3 SUB PUSH2 0x1C8 JUMPI JUMP JUMPDEST SWAP2 SWAP1 DUP3 MLOAD SWAP3 DUP4 DUP3 MSTORE PUSH1 0x0 JUMPDEST DUP5 DUP2 LT PUSH2 0x27CB JUMPI POP POP DUP3 PUSH1 0x0 PUSH1 0x20 DUP1 SWAP5 SWAP6 DUP5 ADD ADD MSTORE PUSH1 0x1F DUP1 NOT SWAP2 ADD AND ADD ADD SWAP1 JUMP JUMPDEST PUSH1 0x20 DUP2 DUP4 ADD DUP2 ADD MLOAD DUP5 DUP4 ADD DUP3 ADD MSTORE ADD PUSH2 0x27AA JUMP JUMPDEST DUP1 SLOAD DUP3 LT ISZERO PUSH2 0x277A JUMPI PUSH1 0x0 MSTORE PUSH1 0x20 PUSH1 0x0 KECCAK256 ADD SWAP1 PUSH1 0x0 SWAP1 JUMP JUMPDEST PUSH1 0x0 SLOAD PUSH1 0x1 PUSH1 0x1 PUSH1 0xA0 SHL SUB AND CALLER SUB PUSH2 0x280B JUMPI JUMP JUMPDEST PUSH1 0x64 PUSH1 0x40 MLOAD PUSH3 0x461BCD PUSH1 0xE5 SHL DUP2 MSTORE PUSH1 0x20 PUSH1 0x4 DUP3 ADD MSTORE PUSH1 0x20 PUSH1 0x24 DUP3 ADD MSTORE PUSH32 0x4F776E61626C653A2063616C6C6572206973206E6F7420746865206F776E6572 PUSH1 0x44 DUP3 ADD MSTORE REVERT JUMPDEST PUSH1 0x80 DUP2 ADD SWAP1 DUP2 LT PUSH1 0x1 PUSH1 0x1 PUSH1 0x40 SHL SUB DUP3 GT OR PUSH2 0x4F7 JUMPI PUSH1 0x40 MSTORE JUMP JUMPDEST PUSH2 0x1E0 DUP2 ADD SWAP1 DUP2 LT PUSH1 0x1 PUSH1 0x1 PUSH1 0x40 SHL SUB DUP3 GT OR PUSH2 0x4F7 JUMPI PUSH1 0x40 MSTORE JUMP JUMPDEST PUSH1 0xC0 DUP2 ADD SWAP1 DUP2 LT PUSH1 0x1 PUSH1 0x1 PUSH1 0x40 SHL SUB DUP3 GT OR PUSH2 0x4F7 JUMPI PUSH1 0x40 MSTORE JUMP JUMPDEST PUSH1 0x40 DUP2 ADD SWAP1 DUP2 LT PUSH1 0x1 PUSH1 0x1 PUSH1 0x40 SHL SUB DUP3 GT OR PUSH2 0x4F7 JUMPI PUSH1 0x40 MSTORE JUMP JUMPDEST SWAP1 PUSH1 0x1F DUP1 NOT SWAP2 ADD AND DUP2 ADD SWAP1 DUP2 LT PUSH1 0x1 PUSH1 0x1 PUSH1 0x40 SHL SUB DUP3 GT OR PUSH2 0x4F7 JUMPI PUSH1 0x40 MSTORE JUMP JUMPDEST PUSH1 0xFF DUP2 EQ PUSH2 0x291B JUMPI PUSH1 0xFF DUP2 AND SWAP1 PUSH1 0x1F DUP3 GT PUSH2 0x2909 JUMPI PUSH1 0x40 MLOAD SWAP2 PUSH2 0x28FF DUP4 PUSH2 0x28A1 JUMP JUMPDEST DUP3 MSTORE PUSH1 0x20 DUP3 ADD MSTORE SWAP1 JUMP JUMPDEST PUSH1 0x40 MLOAD PUSH4 0x2CD44AC3 PUSH1 0xE2 SHL DUP2 MSTORE PUSH1 0x4 SWAP1 REVERT JUMPDEST POP PUSH1 0x40 MLOAD PUSH1 0x0 PUSH1 0x3 SLOAD SWAP1 PUSH1 0x1 DUP3 DUP2 SHR SWAP1 DUP1 DUP5 AND SWAP4 DUP5 ISZERO PUSH2 0x29FD JUMPI JUMPDEST PUSH1 0x20 SWAP5 DUP6 DUP5 LT DUP2 EQ PUSH2 0x29E9 JUMPI DUP4 DUP8 MSTORE DUP7 SWAP5 SWAP4 SWAP3 SWAP2 DUP2 ISZERO PUSH2 0x29C9 JUMPI POP PUSH1 0x1 EQ PUSH2 0x296A JUMPI JUMPDEST POP POP PUSH2 0x2967 SWAP3 POP SUB DUP3 PUSH2 0x28BC JUMP JUMPDEST SWAP1 JUMP JUMPDEST SWAP1 SWAP4 SWAP2 POP PUSH1 0x3 PUSH1 0x0 MSTORE PUSH32 0xC2575A0E9E593C00F959F8C92F12DB2869C3395A3B0502D05E2516446F71F85B SWAP4 PUSH1 0x0 SWAP2 JUMPDEST DUP2 DUP4 LT PUSH2 0x29B1 JUMPI POP POP PUSH2 0x2967 SWAP4 POP DUP3 ADD ADD CODESIZE DUP1 PUSH2 0x2959 JUMP JUMPDEST DUP6 SLOAD DUP8 DUP5 ADD DUP6 ADD MSTORE SWAP5 DUP6 ADD SWAP5 DUP7 SWAP5 POP SWAP2 DUP4 ADD SWAP2 PUSH2 0x2999 JUMP JUMPDEST SWAP2 POP POP PUSH2 0x2967 SWAP5 SWAP3 POP PUSH1 0xFF NOT AND DUP3 DUP5 ADD MSTORE ISZERO ISZERO PUSH1 0x5 SHL DUP3 ADD ADD CODESIZE DUP1 PUSH2 0x2959 JUMP JUMPDEST PUSH4 0x4E487B71 PUSH1 0xE0 SHL DUP6 MSTORE PUSH1 0x22 PUSH1 0x4 MSTORE PUSH1 0x24 DUP6 REVERT JUMPDEST SWAP2 PUSH1 0x7F AND SWAP2 PUSH2 0x2936 JUMP JUMPDEST PUSH1 0xFF DUP2 EQ PUSH2 0x2A29 JUMPI PUSH1 0xFF DUP2 AND SWAP1 PUSH1 0x1F DUP3 GT PUSH2 0x2909 JUMPI PUSH1 0x40 MLOAD SWAP2 PUSH2 0x28FF DUP4 PUSH2 0x28A1 JUMP JUMPDEST POP PUSH1 0x40 MLOAD PUSH1 0x0 PUSH1 0x4 SLOAD SWAP1 PUSH1 0x1 DUP3 DUP2 SHR SWAP1 DUP1 DUP5 AND SWAP4 DUP5 ISZERO PUSH2 0x2AD3 JUMPI JUMPDEST PUSH1 0x20 SWAP5 DUP6 DUP5 LT DUP2 EQ PUSH2 0x29E9 JUMPI DUP4 DUP8 MSTORE DUP7 SWAP5 SWAP4 SWAP3 SWAP2 DUP2 ISZERO PUSH2 0x29C9 JUMPI POP PUSH1 0x1 EQ PUSH2 0x2A74 JUMPI POP POP PUSH2 0x2967 SWAP3 POP SUB DUP3 PUSH2 0x28BC JUMP JUMPDEST SWAP1 SWAP4 SWAP2 POP PUSH1 0x4 PUSH1 0x0 MSTORE PUSH32 0x8A35ACFBC15FF81A39AE7D344FD709F28E8600B4AA8C65C6B64BFE7FE36BD19B SWAP4 PUSH1 0x0 SWAP2 JUMPDEST DUP2 DUP4 LT PUSH2 0x2ABB JUMPI POP POP PUSH2 0x2967 SWAP4 POP DUP3 ADD ADD CODESIZE DUP1 PUSH2 0x2959 JUMP JUMPDEST DUP6 SLOAD DUP8 DUP5 ADD DUP6 ADD MSTORE SWAP5 DUP6 ADD SWAP5 DUP7 SWAP5 POP SWAP2 DUP4 ADD SWAP2 PUSH2 0x2AA3 JUMP JUMPDEST SWAP2 PUSH1 0x7F AND SWAP2 PUSH2 0x2A44 JUMP JUMPDEST PUSH1 0x1 PUSH1 0x1 PUSH1 0x40 SHL SUB DUP2 GT PUSH2 0x4F7 JUMPI PUSH1 0x1F ADD PUSH1 0x1F NOT AND PUSH1 0x20 ADD SWAP1 JUMP JUMPDEST DUP2 DUP2 MUL SWAP3 SWAP2 DUP2 ISZERO SWAP2 DUP5 DIV EQ OR ISZERO PUSH2 0x1022 JUMPI JUMP JUMPDEST PUSH1 0x0 NOT DUP2 EQ PUSH2 0x1022 JUMPI PUSH1 0x1 ADD SWAP1 JUMP JUMPDEST PUSH1 0xFF PUSH1 0x2 SLOAD AND PUSH2 0x2B26 JUMPI JUMP JUMPDEST PUSH1 0x40 MLOAD PUSH3 0x461BCD PUSH1 0xE5 SHL DUP2 MSTORE PUSH1 0x20 PUSH1 0x4 DUP3 ADD MSTORE PUSH1 0x10 PUSH1 0x24 DUP3 ADD MSTORE PUSH16 0x14185D5CD8589B194E881C185D5CD959 PUSH1 0x82 SHL PUSH1 0x44 DUP3 ADD MSTORE PUSH1 0x64 SWAP1 REVERT JUMPDEST ISZERO PUSH2 0x2B65 JUMPI JUMP JUMPDEST PUSH1 0x40 MLOAD PUSH3 0x461BCD PUSH1 0xE5 SHL DUP2 MSTORE PUSH1 0x20 PUSH1 0x4 DUP3 ADD MSTORE PUSH1 0xE PUSH1 0x24 DUP3 ADD MSTORE PUSH14 0x15185CDAC81B9BDD08199BDD5B99 PUSH1 0x92 SHL PUSH1 0x44 DUP3 ADD MSTORE PUSH1 0x64 SWAP1 REVERT JUMPDEST ISZERO PUSH2 0x2BA2 JUMPI JUMP JUMPDEST PUSH1 0x40 MLOAD PUSH3 0x461BCD PUSH1 0xE5 SHL DUP2 MSTORE PUSH1 0x20 PUSH1 0x4 DUP3 ADD MSTORE PUSH1 0xE PUSH1 0x24 DUP3 ADD MSTORE PUSH14 0x496E76616C696420737461747573 PUSH1 0x90 SHL PUSH1 0x44 DUP3 ADD MSTORE PUSH1 0x64 SWAP1 REVERT JUMPDEST SWAP2 SWAP1 DUP3 ADD DUP1 SWAP3 GT PUSH2 0x1022 JUMPI JUMP JUMPDEST SWAP2 SWAP1 DUP3 SUB SWAP2 DUP3 GT PUSH2 0x1022 JUMPI JUMP JUMPDEST PUSH1 0x2 PUSH1 0x1 SLOAD EQ PUSH2 0x2C03 JUMPI PUSH1 0x2 PUSH1 0x1 SSTORE JUMP JUMPDEST PUSH1 0x40 MLOAD PUSH3 0x461BCD PUSH1 0xE5 SHL DUP2 MSTORE PUSH1 0x20 PUSH1 0x4 DUP3 ADD MSTORE PUSH1 0x1F PUSH1 0x24 DUP3 ADD MSTORE PUSH32 0x5265656E7472616E637947756172643A207265656E7472616E742063616C6C00 PUSH1 0x44 DUP3 ADD MSTORE PUSH1 0x64 SWAP1 REVERT JUMPDEST PUSH1 0x1 DUP1 PUSH1 0xA0 SHL SUB AND SWAP1 PUSH2 0x2CC5 PUSH1 0x40 MLOAD PUSH2 0x2C60 DUP2 PUSH2 0x28A1 JUMP JUMPDEST PUSH1 0x20 SWAP4 DUP5 DUP3 MSTORE PUSH32 0x5361666545524332303A206C6F772D6C6576656C2063616C6C206661696C6564 DUP6 DUP4 ADD MSTORE PUSH1 0x0 DUP1 DUP6 DUP8 DUP3 SWAP8 MLOAD SWAP2 ADD DUP3 DUP6 GAS CALL RETURNDATASIZE ISZERO PUSH2 0x2D62 JUMPI RETURNDATASIZE SWAP2 PUSH2 0x2CAA DUP4 PUSH2 0x2ADD JUMP JUMPDEST SWAP3 PUSH2 0x2CB8 PUSH1 0x40 MLOAD SWAP5 DUP6 PUSH2 0x28BC JUMP JUMPDEST DUP4 MSTORE RETURNDATASIZE DUP7 DUP9 DUP6 ADD RETURNDATACOPY PUSH2 0x2D66 JUMP JUMPDEST DUP1 MLOAD SWAP2 DUP3 ISZERO SWAP2 DUP5 DUP4 ISZERO PUSH2 0x2D37 JUMPI JUMPDEST POP POP POP SWAP1 POP ISZERO PUSH2 0x2CE0 JUMPI POP JUMP JUMPDEST PUSH1 0x84 SWAP1 PUSH1 0x40 MLOAD SWAP1 PUSH3 0x461BCD PUSH1 0xE5 SHL DUP3 MSTORE PUSH1 0x4 DUP3 ADD MSTORE PUSH1 0x2A PUSH1 0x24 DUP3 ADD MSTORE PUSH32 0x5361666545524332303A204552433230206F7065726174696F6E20646964206E PUSH1 0x44 DUP3 ADD MSTORE PUSH10 0x1BDD081CDD58D8D95959 PUSH1 0xB2 SHL PUSH1 0x64 DUP3 ADD MSTORE REVERT JUMPDEST SWAP2 SWAP4 DUP2 DUP1 SWAP5 POP ADD SUB SLT PUSH2 0x2D5E JUMPI DUP3 ADD MLOAD SWAP1 DUP2 ISZERO ISZERO DUP3 SUB PUSH2 0x2D5B JUMPI POP DUP1 CODESIZE DUP1 DUP5 PUSH2 0x2CD3 JUMP JUMPDEST DUP1 REVERT JUMPDEST POP DUP1 REVERT JUMPDEST PUSH1 0x60 SWAP2 JUMPDEST SWAP2 SWAP3 SWAP1 ISZERO PUSH2 0x2DC8 JUMPI POP DUP2 MLOAD ISZERO PUSH2 0x2D7A JUMPI POP SWAP1 JUMP JUMPDEST EXTCODESIZE ISZERO PUSH2 0x2D83 JUMPI SWAP1 JUMP JUMPDEST PUSH1 0x40 MLOAD PUSH3 0x461BCD PUSH1 0xE5 SHL DUP2 MSTORE PUSH1 0x20 PUSH1 0x4 DUP3 ADD MSTORE PUSH1 0x1D PUSH1 0x24 DUP3 ADD MSTORE PUSH32 0x416464726573733A2063616C6C20746F206E6F6E2D636F6E7472616374000000 PUSH1 0x44 DUP3 ADD MSTORE PUSH1 0x64 SWAP1 REVERT JUMPDEST DUP3 MLOAD SWAP1 SWAP2 POP ISZERO PUSH2 0x2DDB JUMPI POP DUP1 MLOAD SWAP1 PUSH1 0x20 ADD REVERT JUMPDEST PUSH1 0x40 MLOAD PUSH3 0x461BCD PUSH1 0xE5 SHL DUP2 MSTORE PUSH1 0x20 PUSH1 0x4 DUP3 ADD MSTORE SWAP1 DUP2 SWAP1 PUSH2 0x2DFF SWAP1 PUSH1 0x24 DUP4 ADD SWAP1 PUSH2 0x279F JUMP JUMPDEST SUB SWAP1 REVERT JUMPDEST PUSH1 0x5 DUP2 LT ISZERO PUSH2 0x50D JUMPI DUP1 PUSH2 0x2E14 JUMPI POP JUMP JUMPDEST PUSH1 0x1 DUP2 SUB PUSH2 0x2E61 JUMPI PUSH1 0x40 MLOAD PUSH3 0x461BCD PUSH1 0xE5 SHL DUP2 MSTORE PUSH1 0x20 PUSH1 0x4 DUP3 ADD MSTORE PUSH1 0x18 PUSH1 0x24 DUP3 ADD MSTORE PUSH32 0x45434453413A20696E76616C6964207369676E61747572650000000000000000 PUSH1 0x44 DUP3 ADD MSTORE PUSH1 0x64 SWAP1 REVERT JUMPDEST PUSH1 0x2 DUP2 SUB PUSH2 0x2EAE JUMPI PUSH1 0x40 MLOAD PUSH3 0x461BCD PUSH1 0xE5 SHL DUP2 MSTORE PUSH1 0x20 PUSH1 0x4 DUP3 ADD MSTORE PUSH1 0x1F PUSH1 0x24 DUP3 ADD MSTORE PUSH32 0x45434453413A20696E76616C6964207369676E6174757265206C656E67746800 PUSH1 0x44 DUP3 ADD MSTORE PUSH1 0x64 SWAP1 REVERT JUMPDEST PUSH1 0x3 EQ PUSH2 0x2EB7 JUMPI JUMP JUMPDEST PUSH1 0x40 MLOAD PUSH3 0x461BCD PUSH1 0xE5 SHL DUP2 MSTORE PUSH1 0x20 PUSH1 0x4 DUP3 ADD MSTORE PUSH1 0x22 PUSH1 0x24 DUP3 ADD MSTORE PUSH32 0x45434453413A20696E76616C6964207369676E6174757265202773272076616C PUSH1 0x44 DUP3 ADD MSTORE PUSH2 0x7565 PUSH1 0xF0 SHL PUSH1 0x64 DUP3 ADD MSTORE PUSH1 0x84 SWAP1 REVERT JUMPDEST SWAP1 PUSH1 0x41 DUP2 MLOAD EQ PUSH1 0x0 EQ PUSH2 0x2F35 JUMPI PUSH2 0x2F31 SWAP2 PUSH1 0x20 DUP3 ADD MLOAD SWAP1 PUSH1 0x60 PUSH1 0x40 DUP5 ADD MLOAD SWAP4 ADD MLOAD PUSH1 0x0 BYTE SWAP1 PUSH2 0x2F3F JUMP JUMPDEST SWAP1 SWAP2 JUMP JUMPDEST POP POP PUSH1 0x0 SWAP1 PUSH1 0x2 SWAP1 JUMP JUMPDEST SWAP3 SWAP2 SWAP1 PUSH32 0x7FFFFFFFFFFFFFFFFFFFFFFFFFFFFFFF5D576E7357A4501DDFE92F46681B20A0 DUP4 GT PUSH2 0x2FC2 JUMPI SWAP2 PUSH1 0x80 SWAP5 SWAP4 SWAP2 PUSH1 0xFF PUSH1 0x20 SWAP5 PUSH1 0x40 MLOAD SWAP5 DUP6 MSTORE AND DUP5 DUP5 ADD MSTORE PUSH1 0x40 DUP4 ADD MSTORE PUSH1 0x60 DUP3 ADD MSTORE PUSH1 0x0 SWAP4 DUP5 SWAP2 DUP3 DUP1 MSTORE PUSH1 0x1 GAS STATICCALL ISZERO PUSH2 0x2FB5 JUMPI DUP2 MLOAD PUSH1 0x1 PUSH1 0x1 PUSH1 0xA0 SHL SUB DUP2 AND ISZERO PUSH2 0x2FAF JUMPI SWAP2 SWAP1 JUMP JUMPDEST POP PUSH1 0x1 SWAP1 JUMP JUMPDEST POP PUSH1 0x40 MLOAD SWAP1 RETURNDATASIZE SWAP1 DUP3 RETURNDATACOPY RETURNDATASIZE SWAP1 REVERT JUMPDEST POP POP POP POP PUSH1 0x0 SWAP1 PUSH1 0x3 SWAP1 JUMP JUMPDEST ADDRESS PUSH32 0x0 PUSH1 0x1 PUSH1 0x1 PUSH1 0xA0 SHL SUB AND EQ DUP1 PUSH2 0x30BF JUMPI JUMPDEST ISZERO PUSH2 0x3029 JUMPI PUSH32 0x0 SWAP1 JUMP JUMPDEST PUSH1 0x40 MLOAD PUSH1 0x20 DUP2 ADD SWAP1 PUSH32 0x8B73C3C69BB8FE3D512ECC4CF759CC79239F7B179B0FFACAA9A75D522B39400F DUP3 MSTORE PUSH32 0x0 PUSH1 0x40 DUP3 ADD MSTORE PUSH32 0x0 PUSH1 0x60 DUP3 ADD MSTORE CHAINID PUSH1 0x80 DUP3 ADD MSTORE ADDRESS PUSH1 0xA0 DUP3 ADD MSTORE PUSH1 0xA0 DUP2 MSTORE PUSH2 0x30B9 DUP2 PUSH2 0x2886 JUMP JUMPDEST MLOAD SWAP1 KECCAK256 SWAP1 JUMP JUMPDEST POP PUSH32 0x0 CHAINID EQ PUSH2 0x3000 JUMP JUMPDEST ISZERO PUSH2 0x30EF JUMPI JUMP JUMPDEST PUSH1 0x40 MLOAD PUSH3 0x461BCD PUSH1 0xE5 SHL DUP2 MSTORE PUSH1 0x20 PUSH1 0x4 DUP3 ADD MSTORE PUSH1 0xB PUSH1 0x24 DUP3 ADD MSTORE PUSH11 0x2737BA1031B932B0BA37B9 PUSH1 0xA9 SHL PUSH1 0x44 DUP3 ADD MSTORE PUSH1 0x64 SWAP1 REVERT JUMPDEST PUSH1 0x40 MLOAD PUSH4 0xA9059CBB PUSH1 0xE0 SHL PUSH1 0x20 DUP3 ADD MSTORE PUSH1 0x1 PUSH1 0x1 PUSH1 0xA0 SHL SUB SWAP1 SWAP3 AND PUSH1 0x24 DUP4 ADD MSTORE PUSH1 0x44 DUP1 DUP4 ADD SWAP4 SWAP1 SWAP4 MSTORE SWAP2 DUP2 MSTORE PUSH2 0x3160 SWAP2 PUSH2 0x315B DUP3 PUSH2 0x284F JUMP JUMPDEST PUSH2 0x2C48 JUMP JUMPDEST JUMP JUMPDEST PUSH1 0x0 MSTORE PUSH1 0x6 PUSH1 0x20 MSTORE PUSH1 0x40 PUSH1 0x0 KECCAK256 SWAP1 PUSH1 0x0 SWAP2 DUP1 SLOAD SWAP3 JUMPDEST DUP4 DUP2 LT PUSH2 0x31A0 JUMPI POP POP PUSH1 0x1 PUSH1 0x1 PUSH1 0xA0 SHL SUB AND PUSH1 0x0 SWAP1 DUP2 MSTORE PUSH1 0x9 PUSH1 0x20 MSTORE PUSH1 0x40 SWAP1 KECCAK256 SLOAD PUSH1 0xFF AND SWAP2 SWAP1 POP JUMP JUMPDEST PUSH2 0x31AA DUP2 DUP4 PUSH2 0x27DF JUMP JUMPDEST SWAP1 SLOAD PUSH1 0x3 SWAP2 SWAP1 SWAP2 SHL SHR PUSH1 0x1 PUSH1 0x1 PUSH1 0xA0 SHL SUB SWAP1 DUP2 AND SWAP1 DUP5 AND EQ PUSH2 0x31D4 JUMPI PUSH2 0x31CF SWAP1 PUSH2 0x2B0B JUMP JUMPDEST PUSH2 0x3177 JUMP JUMPDEST POP POP POP POP PUSH1 0x1 SWAP1 JUMP INVALID MOD DUP3 EXTCODECOPY 0xBB 0xE3 0xD8 PUSH12 0x8D3BC32F4679210E4FF0A8B1 0xBF 0x49 0x5C 0xA5 DUP9 SWAP16 SELFDESTRUCT 0xC5 EXTCODESIZE NOT 0xC6 0xAD 0xD4 LOG2 PUSH5 0x6970667358 0x22 SLT KECCAK256 PUSH3 0xCBDA10 0x2F AND GT 0xAD SHL REVERT COINBASE PUSH21 0xC4A0147FD9A7364EF48935B5D716AEAA948CFDF664 PUSH20 0x6F6C634300081400330000000000000000000000 "},"methodIdentifiers":{"DISPUTE_WINDOW()":"f585dc57","MAX_AUDITORS()":"9bb88cf2","MIN_QUALITY_SCORE()":"a2d09ae8","RELEASE_TYPEHASH()":"0902df91","confirmRelease(bytes32,uint256)":"dac656a9","createTask(bytes32,address,address,uint256,uint8,bytes32,address[],uint256,uint256)":"ef251161","defaultPlatformFeeRate()":"00a76770","disputeTask(bytes32,string)":"499d13a3","eip712Domain()":"84b0196e","emergencyWithdraw(address,uint256)":"95ccea67","fundTask(bytes32)":"318d328c","getTask(bytes32)":"15a29035","getTaskAuditors(bytes32)":"496a7885","getTaskSignatures(bytes32)":"a10aa5c1","hasSignedTask(bytes32,address)":"bc98fdb3","isAuditorForTask(bytes32,address)":"870ce73e","nonce()":"affed0e0","owner()":"8da5cb5b","pause()":"8456cb59","paused()":"5c975abb","platformTreasury()":"e138818c","refundExpired(bytes32)":"cc3e049b","renounceOwnership()":"715018a6","resolveDispute(bytes32,bool,uint256)":"76add9ef","setDefaultPlatformFeeRate(uint256)":"894562b1","setPlatformTreasury(address)":"7cd86d60","setTrustedAuditor(address,bool)":"d4f0ba14","submitResult(bytes32,bytes32)":"d91e9241","taskAuditors(bytes32,uint256)":"a1532114","taskSignatures(bytes32,uint256)":"5f150212","tasks(bytes32)":"e579f500","transferOwnership(address)":"f2fde38b","trustedAuditors(address)":"0bc963a6","unpause()":"3f4ba83a","verifyResult(bytes32,bytes32,uint256,bytes)":"08ee3970"}}}}}