{"contracts/PaymentRouter.sol":{"PaymentRouter":{"abi":[{"anonymous":false,"inputs":[{"indexed":true,"internalType":"address","name":"previousOwner","type":"address"},{"indexed":true,"internalType":"address","name":"newOwner","type":"address"}],"name":"OwnershipTransferred","type":"event"},{"anonymous":false,"inputs":[{"indexed":true,"internalType":"bytes32","name":"paymentId","type":"bytes32"},{"indexed":true,"internalType":"address","name":"recipient","type":"address"},{"indexed":false,"internalType":"uint256","name":"amount","type":"uint256"}],"name":"PaymentCompleted","type":"event"},{"anonymous":false,"inputs":[{"indexed":true,"internalType":"bytes32","name":"paymentId","type":"bytes32"},{"indexed":true,"internalType":"address","name":"payer","type":"address"},{"indexed":true,"internalType":"address","name":"recipient","type":"address"},{"indexed":false,"internalType":"uint256","name":"amount","type":"uint256"},{"indexed":false,"internalType":"enum PaymentRouter.PaymentMethod","name":"method","type":"uint8"},{"indexed":false,"internalType":"bytes32","name":"sessionId","type":"bytes32"},{"indexed":false,"internalType":"uint256","name":"merchantPrice","type":"uint256"},{"indexed":false,"internalType":"uint256","name":"channelFee","type":"uint256"}],"name":"PaymentRouted","type":"event"},{"inputs":[{"internalType":"address","name":"","type":"address"}],"name":"balances","outputs":[{"internalType":"uint256","name":"","type":"uint256"}],"stateMutability":"view","type":"function"},{"inputs":[{"internalType":"bytes32","name":"paymentId","type":"bytes32"}],"name":"completePayment","outputs":[],"stateMutability":"nonpayable","type":"function"},{"inputs":[{"internalType":"bytes32","name":"paymentId","type":"bytes32"}],"name":"getPayment","outputs":[{"components":[{"internalType":"bytes32","name":"paymentId","type":"bytes32"},{"internalType":"address","name":"payer","type":"address"},{"internalType":"address","name":"recipient","type":"address"},{"internalType":"uint256","name":"amount","type":"uint256"},{"internalType":"enum PaymentRouter.PaymentMethod","name":"method","type":"uint8"},{"internalType":"bytes32","name":"sessionId","type":"bytes32"},{"internalType":"uint256","name":"merchantPrice","type":"uint256"},{"internalType":"uint256","name":"channelFee","type":"uint256"},{"internalType":"bool","name":"completed","type":"bool"},{"internalType":"uint256","name":"timestamp","type":"uint256"}],"internalType":"struct PaymentRouter.PaymentRecord","name":"","type":"tuple"}],"stateMutability":"view","type":"function"},{"inputs":[],"name":"owner","outputs":[{"internalType":"address","name":"","type":"address"}],"stateMutability":"view","type":"function"},{"inputs":[{"internalType":"enum PaymentRouter.PaymentMethod","name":"","type":"uint8"}],"name":"paymentChannels","outputs":[{"internalType":"address","name":"channelAddress","type":"address"},{"internalType":"bool","name":"isActive","type":"bool"},{"internalType":"uint256","name":"priority","type":"uint256"},{"internalType":"uint256","name":"minAmount","type":"uint256"},{"internalType":"uint256","name":"maxAmount","type":"uint256"}],"stateMutability":"view","type":"function"},{"inputs":[{"internalType":"bytes32","name":"","type":"bytes32"}],"name":"payments","outputs":[{"internalType":"bytes32","name":"paymentId","type":"bytes32"},{"internalType":"address","name":"payer","type":"address"},{"internalType":"address","name":"recipient","type":"address"},{"internalType":"uint256","name":"amount","type":"uint256"},{"internalType":"enum PaymentRouter.PaymentMethod","name":"method","type":"uint8"},{"internalType":"bytes32","name":"sessionId","type":"bytes32"},{"internalType":"uint256","name":"merchantPrice","type":"uint256"},{"internalType":"uint256","name":"channelFee","type":"uint256"},{"internalType":"bool","name":"completed","type":"bool"},{"internalType":"uint256","name":"timestamp","type":"uint256"}],"stateMutability":"view","type":"function"},{"inputs":[],"name":"renounceOwnership","outputs":[],"stateMutability":"nonpayable","type":"function"},{"inputs":[{"internalType":"bytes32","name":"paymentId","type":"bytes32"},{"internalType":"address","name":"recipient","type":"address"},{"internalType":"uint256","name":"amount","type":"uint256"},{"internalType":"enum PaymentRouter.PaymentMethod","name":"method","type":"uint8"},{"internalType":"bytes32","name":"sessionId","type":"bytes32"},{"internalType":"uint256","name":"merchantPrice","type":"uint256"},{"internalType":"uint256","name":"channelFee","type":"uint256"}],"name":"routePayment","outputs":[],"stateMutability":"payable","type":"function"},{"inputs":[{"internalType":"bytes32","name":"paymentId","type":"bytes32"},{"internalType":"address","name":"recipient","type":"address"},{"internalType":"uint256","name":"amount","type":"uint256"},{"internalType":"enum PaymentRouter.PaymentMethod","name":"method","type":"uint8"}],"name":"routePaymentLegacy","outputs":[],"stateMutability":"payable","type":"function"},{"inputs":[{"internalType":"enum PaymentRouter.PaymentMethod","name":"method","type":"uint8"},{"internalType":"address","name":"channelAddress","type":"address"},{"internalType":"bool","name":"isActive","type":"bool"},{"internalType":"uint256","name":"priority","type":"uint256"},{"internalType":"uint256","name":"minAmount","type":"uint256"},{"internalType":"uint256","name":"maxAmount","type":"uint256"}],"name":"setPaymentChannel","outputs":[],"stateMutability":"nonpayable","type":"function"},{"inputs":[{"internalType":"address","name":"newOwner","type":"address"}],"name":"transferOwnership","outputs":[],"stateMutability":"nonpayable","type":"function"},{"inputs":[{"internalType":"uint256","name":"amount","type":"uint256"}],"name":"withdraw","outputs":[],"stateMutability":"nonpayable","type":"function"},{"stateMutability":"payable","type":"receive"}],"evm":{"bytecode":{"linkReferences":{},"object":"6080806040523461005f5760008054336001600160a01b0319821681178355916001600160a01b03909116907f8be0079c531659141344cd1fd0a4f28419497f9722a3daafe3b4186f6b6457e09080a36001805561103e90816100658239f35b600080fdfe608080604052600436101561001d575b50361561001b57600080fd5b005b600090813560e01c9081630716326d14610c84575080631893fa0a14610baf57806327e235e314610b765780632e1a7d4d14610a2157806347ca8a8b146108ef578063532796c1146106765780636ff0095c146103bd578063715018a6146103635780638da5cb5b1461033c578063e0db06c5146102d3578063e66eefc81461016d5763f2fde38b0361000f573461016a57602036600319011261016a576100c3610d68565b6100cb610d97565b6001600160a01b039081169081156101165782546001600160a01b0319811683178455167f8be0079c531659141344cd1fd0a4f28419497f9722a3daafe3b4186f6b6457e08380a380f35b60405162461bcd60e51b815260206004820152602660248201527f4f776e61626c653a206e6577206f776e657220697320746865207a65726f206160448201526564647265737360d01b6064820152608490fd5b80fd5b503461016a57602036600319011261016a576101409061018b610f09565b908082528060208301528060408301528060608301528060808301528060a08301528060c08301528060e0830152610100918183820152604082610120938480940152600435815260036020522060096101e3610f09565b8254815260018301546001600160a01b03908116602083015260028401541660408201526003830154606082015260048301549092906102299060ff1660808501610f40565b600581015460a0840152600681015460c0840152600781015460e084015260ff600882015416151586840152015482820152604051938151855260018060a01b03602083015116602086015260018060a01b036040830151166040860152606082015160608601526102a360808301516080870190610d2a565b60a082015160a086015260c082015160c086015260e082015160e086015280820151151590850152015190820152f35b503461016a57602036600319011261016a5760043590600482101561016a5760a06102fd83610d7e565b805490600181015490600360028201549101549160ff60405194600180881b0381168652861c1615156020850152604084015260608301526080820152f35b503461016a578060031936011261016a57546040516001600160a01b039091168152602090f35b503461016a578060031936011261016a5761037c610d97565b80546001600160a01b03198116825581906001600160a01b03167f8be0079c531659141344cd1fd0a4f28419497f9722a3daafe3b4186f6b6457e08280a380f35b5060e036600319011261016a576103d2610d4d565b60046064351015610672576103e5610fb2565b6001600160a01b036103fa8282161515610def565b6104076044351515610e2f565b61042160ff610417606435610d7e565b5460a01c16610e7b565b600261042e606435610d7e565b0154604435101580610653575b61044490610ec7565b61044c610f09565b600435815260208101338152604082018385168152606083016044358152608084019261047b60643585610f40565b608435938460a087015260a435928360c088015260c435948560e08901528a610100890152426101208901526004358b52600360205260408b2093885185558960018601915116906bffffffffffffffffffffffff60a01b91828254161790558960028601925116908254161790555160038301555194600486101561063f576101206009916004840160ff199860ff8a835416911617905560a0810151600585015560c0810151600685015560e081015160078501556105526101008201511515600886019060ff801983541691151516179055565b015191015560405192604435845261056f60208501606435610d2a565b6040840152606083015260808201528284169033907fe48accf3cf242ef139d88c03dddd8f8b3c40c61fba1da3e864cc19b62809502660a060043592a46001606435146105bf575b836001805580f35b6105cd604435341015610f4c565b81831684526004602052604084206105e86044358254610f8f565b9055600435845260036020526001600860408620019182541617905560405191604435835216907fa7b31f0f3731da4b3c94c7d84acb277ee788cda12f626e14c6baa74670dc5a07602060043592a33880806105b7565b634e487b7160e01b89526021600452602489fd5b506104446003610664606435610d7e565b01546044351115905061043b565b5080fd5b50608036600319011261016a5760043561068e610d4d565b906044359160643560048110156108eb5783906106a9610fb2565b8084878060018060a01b038097169889976106c5891515610def565b6106d0821515610e2f565b6106de60ff61041788610d7e565b60026106e987610d7e565b0154821015806108d0575b6106fd90610ec7565b610705610f09565b95869186835260209a8b918285019033825260408601928352604088600360608901968a885261073960808b01998a610f40565b61012060a08b019a848c5260c081019c8d5260e081019d8e5261010081019e8f52019d8e429052835252209a518b558060018c01925116916bffffffffffffffffffffffff60a01b928382541617905560028b019251169082541617905551600388015560048701905160048110156108bc57815460ff1990811660ff92831617909255915160058801559151600687015591516007860155915160088501805484169115159092161790559493926001929091600990519101558660405184815261080786820184610d2a565b896040820152846060820152896080820152877fe48accf3cf242ef139d88c03dddd8f8b3c40c61fba1da3e864cc19b62809502660a03393a41461084e575b856001805580f35b7fa7b31f0f3731da4b3c94c7d84acb277ee788cda12f626e14c6baa74670dc5a079261087c82341015610f4c565b8587526004835260408720610892838254610f8f565b90558487526003835260016008604089200191825416179055604051908152a33880808080610846565b634e487b7160e01b8e52602160045260248efd5b506106fd60036108df88610d7e565b015483111590506106f4565b8480fd5b503461016a57602080600319360112610672576004358083526003825260408320916008830180549060ff82166109dc5760048501546001600160a01b039290839061093d9060ff16610d7e565b541633036109a8579060017fa7b31f0f3731da4b3c94c7d84acb277ee788cda12f626e14c6baa74670dc5a0794939260ff19161790556003850194600286549101908282541688526004845261099860408920918254610f8f565b905554169354604051908152a380f35b60405162461bcd60e51b815260048101859052600c60248201526b155b985d5d1a1bdc9a5e995960a21b6044820152606490fd5b60405162461bcd60e51b815260048101849052601960248201527f5061796d656e7420616c726561647920636f6d706c65746564000000000000006044820152606490fd5b503461016a5760208060031936011261067257600435610a3f610fb2565b3383526004825280604084205410610b3a573383526004825260408320805490828203918211610b26578480938193829355335af13d15610b215767ffffffffffffffff3d818111610b0d5760405191601f8201601f19908116603f0116830190811183821017610af957604052815283833d92013e5b15610ac357506001805580f35b6064906040519062461bcd60e51b82526004820152600f60248201526e151c985b9cd9995c8819985a5b1959608a1b6044820152fd5b634e487b7160e01b86526041600452602486fd5b634e487b7160e01b85526041600452602485fd5b610ab6565b634e487b7160e01b85526011600452602485fd5b60405162461bcd60e51b8152600481018390526014602482015273496e73756666696369656e742062616c616e636560601b6044820152606490fd5b503461016a57602036600319011261016a576020906040906001600160a01b03610b9e610d68565b168152600483522054604051908152f35b503461016a5760c036600319011261016a5760043590600482101561016a57610bd6610d4d565b60443592831515809403610c8057610bec610d97565b6040519160a083019483861067ffffffffffffffff871117610b0d57600393949560405260018060a01b038092168552602085019081526040850190606435825260608601926084358452610c49608088019560a4358752610d7e565b9651875492516001600160a81b031990931691161790151560a01b60ff60a01b161785555160018501555160028401555191015580f35b8280fd5b90503461067257602036600319011261067257604061014092600435815260036020522080549060018060a01b0380600183015416906002830154166003830154610d0b60ff600486015416600586015492600687015494600788015496600960ff60088b015416990154998b5260208b015260408a015260608901526080880190610d2a565b60a086015260c085015260e08401521515610100830152610120820152f35b906004821015610d375752565b634e487b7160e01b600052602160045260246000fd5b602435906001600160a01b0382168203610d6357565b600080fd5b600435906001600160a01b0382168203610d6357565b6004811015610d37576000526002602052604060002090565b6000546001600160a01b03163303610dab57565b606460405162461bcd60e51b815260206004820152602060248201527f4f776e61626c653a2063616c6c6572206973206e6f7420746865206f776e65726044820152fd5b15610df657565b60405162461bcd60e51b8152602060048201526011602482015270125b9d985b1a59081c9958da5c1a595b9d607a1b6044820152606490fd5b15610e3657565b60405162461bcd60e51b815260206004820152601d60248201527f416d6f756e74206d7573742062652067726561746572207468616e20300000006044820152606490fd5b15610e8257565b60405162461bcd60e51b815260206004820152601a60248201527f5061796d656e74206368616e6e656c206e6f74206163746976650000000000006044820152606490fd5b15610ece57565b60405162461bcd60e51b8152602060048201526013602482015272416d6f756e74206f7574206f662072616e676560681b6044820152606490fd5b60405190610140820182811067ffffffffffffffff821117610f2a57604052565b634e487b7160e01b600052604160045260246000fd5b6004821015610d375752565b15610f5357565b60405162461bcd60e51b8152602060048201526014602482015273125b9cdd59999a58da595b9d081c185e5b595b9d60621b6044820152606490fd5b91908201809211610f9c57565b634e487b7160e01b600052601160045260246000fd5b600260015414610fc3576002600155565b60405162461bcd60e51b815260206004820152601f60248201527f5265656e7472616e637947756172643a207265656e7472616e742063616c6c006044820152606490fdfea26469706673582212205aceddd4fe964f663c2d5a137ce7dc99e6ed5a84dd7a75f94b791d58330d3fc664736f6c63430008140033","opcodes":"PUSH1 0x80 DUP1 PUSH1 0x40 MSTORE CALLVALUE PUSH2 0x5F JUMPI PUSH1 0x0 DUP1 SLOAD CALLER PUSH1 0x1 PUSH1 0x1 PUSH1 0xA0 SHL SUB NOT DUP3 AND DUP2 OR DUP4 SSTORE SWAP2 PUSH1 0x1 PUSH1 0x1 PUSH1 0xA0 SHL SUB SWAP1 SWAP2 AND SWAP1 PUSH32 0x8BE0079C531659141344CD1FD0A4F28419497F9722A3DAAFE3B4186F6B6457E0 SWAP1 DUP1 LOG3 PUSH1 0x1 DUP1 SSTORE PUSH2 0x103E SWAP1 DUP2 PUSH2 0x65 DUP3 CODECOPY RETURN JUMPDEST PUSH1 0x0 DUP1 REVERT INVALID PUSH1 0x80 DUP1 PUSH1 0x40 MSTORE PUSH1 0x4 CALLDATASIZE LT ISZERO PUSH2 0x1D JUMPI JUMPDEST POP CALLDATASIZE ISZERO PUSH2 0x1B JUMPI PUSH1 0x0 DUP1 REVERT JUMPDEST STOP JUMPDEST PUSH1 0x0 SWAP1 DUP2 CALLDATALOAD PUSH1 0xE0 SHR SWAP1 DUP2 PUSH4 0x716326D EQ PUSH2 0xC84 JUMPI POP DUP1 PUSH4 0x1893FA0A EQ PUSH2 0xBAF JUMPI DUP1 PUSH4 0x27E235E3 EQ PUSH2 0xB76 JUMPI DUP1 PUSH4 0x2E1A7D4D EQ PUSH2 0xA21 JUMPI DUP1 PUSH4 0x47CA8A8B EQ PUSH2 0x8EF JUMPI DUP1 PUSH4 0x532796C1 EQ PUSH2 0x676 JUMPI DUP1 PUSH4 0x6FF0095C EQ PUSH2 0x3BD JUMPI DUP1 PUSH4 0x715018A6 EQ PUSH2 0x363 JUMPI DUP1 PUSH4 0x8DA5CB5B EQ PUSH2 0x33C JUMPI DUP1 PUSH4 0xE0DB06C5 EQ PUSH2 0x2D3 JUMPI DUP1 PUSH4 0xE66EEFC8 EQ PUSH2 0x16D JUMPI PUSH4 0xF2FDE38B SUB PUSH2 0xF JUMPI CALLVALUE PUSH2 0x16A JUMPI PUSH1 0x20 CALLDATASIZE PUSH1 0x3 NOT ADD SLT PUSH2 0x16A JUMPI PUSH2 0xC3 PUSH2 0xD68 JUMP JUMPDEST PUSH2 0xCB PUSH2 0xD97 JUMP JUMPDEST PUSH1 0x1 PUSH1 0x1 PUSH1 0xA0 SHL SUB SWAP1 DUP2 AND SWAP1 DUP2 ISZERO PUSH2 0x116 JUMPI DUP3 SLOAD PUSH1 0x1 PUSH1 0x1 PUSH1 0xA0 SHL SUB NOT DUP2 AND DUP4 OR DUP5 SSTORE AND PUSH32 0x8BE0079C531659141344CD1FD0A4F28419497F9722A3DAAFE3B4186F6B6457E0 DUP4 DUP1 LOG3 DUP1 RETURN JUMPDEST PUSH1 0x40 MLOAD PUSH3 0x461BCD PUSH1 0xE5 SHL DUP2 MSTORE PUSH1 0x20 PUSH1 0x4 DUP3 ADD MSTORE PUSH1 0x26 PUSH1 0x24 DUP3 ADD MSTORE PUSH32 0x4F776E61626C653A206E6577206F776E657220697320746865207A65726F2061 PUSH1 0x44 DUP3 ADD MSTORE PUSH6 0x646472657373 PUSH1 0xD0 SHL PUSH1 0x64 DUP3 ADD MSTORE PUSH1 0x84 SWAP1 REVERT JUMPDEST DUP1 REVERT JUMPDEST POP CALLVALUE PUSH2 0x16A JUMPI PUSH1 0x20 CALLDATASIZE PUSH1 0x3 NOT ADD SLT PUSH2 0x16A JUMPI PUSH2 0x140 SWAP1 PUSH2 0x18B PUSH2 0xF09 JUMP JUMPDEST SWAP1 DUP1 DUP3 MSTORE DUP1 PUSH1 0x20 DUP4 ADD MSTORE DUP1 PUSH1 0x40 DUP4 ADD MSTORE DUP1 PUSH1 0x60 DUP4 ADD MSTORE DUP1 PUSH1 0x80 DUP4 ADD MSTORE DUP1 PUSH1 0xA0 DUP4 ADD MSTORE DUP1 PUSH1 0xC0 DUP4 ADD MSTORE DUP1 PUSH1 0xE0 DUP4 ADD MSTORE PUSH2 0x100 SWAP2 DUP2 DUP4 DUP3 ADD MSTORE PUSH1 0x40 DUP3 PUSH2 0x120 SWAP4 DUP5 DUP1 SWAP5 ADD MSTORE PUSH1 0x4 CALLDATALOAD DUP2 MSTORE PUSH1 0x3 PUSH1 0x20 MSTORE KECCAK256 PUSH1 0x9 PUSH2 0x1E3 PUSH2 0xF09 JUMP JUMPDEST DUP3 SLOAD DUP2 MSTORE PUSH1 0x1 DUP4 ADD SLOAD PUSH1 0x1 PUSH1 0x1 PUSH1 0xA0 SHL SUB SWAP1 DUP2 AND PUSH1 0x20 DUP4 ADD MSTORE PUSH1 0x2 DUP5 ADD SLOAD AND PUSH1 0x40 DUP3 ADD MSTORE PUSH1 0x3 DUP4 ADD SLOAD PUSH1 0x60 DUP3 ADD MSTORE PUSH1 0x4 DUP4 ADD SLOAD SWAP1 SWAP3 SWAP1 PUSH2 0x229 SWAP1 PUSH1 0xFF AND PUSH1 0x80 DUP6 ADD PUSH2 0xF40 JUMP JUMPDEST PUSH1 0x5 DUP2 ADD SLOAD PUSH1 0xA0 DUP5 ADD MSTORE PUSH1 0x6 DUP2 ADD SLOAD PUSH1 0xC0 DUP5 ADD MSTORE PUSH1 0x7 DUP2 ADD SLOAD PUSH1 0xE0 DUP5 ADD MSTORE PUSH1 0xFF PUSH1 0x8 DUP3 ADD SLOAD AND ISZERO ISZERO DUP7 DUP5 ADD MSTORE ADD SLOAD DUP3 DUP3 ADD MSTORE PUSH1 0x40 MLOAD SWAP4 DUP2 MLOAD DUP6 MSTORE PUSH1 0x1 DUP1 PUSH1 0xA0 SHL SUB PUSH1 0x20 DUP4 ADD MLOAD AND PUSH1 0x20 DUP7 ADD MSTORE PUSH1 0x1 DUP1 PUSH1 0xA0 SHL SUB PUSH1 0x40 DUP4 ADD MLOAD AND PUSH1 0x40 DUP7 ADD MSTORE PUSH1 0x60 DUP3 ADD MLOAD PUSH1 0x60 DUP7 ADD MSTORE PUSH2 0x2A3 PUSH1 0x80 DUP4 ADD MLOAD PUSH1 0x80 DUP8 ADD SWAP1 PUSH2 0xD2A JUMP JUMPDEST PUSH1 0xA0 DUP3 ADD MLOAD PUSH1 0xA0 DUP7 ADD MSTORE PUSH1 0xC0 DUP3 ADD MLOAD PUSH1 0xC0 DUP7 ADD MSTORE PUSH1 0xE0 DUP3 ADD MLOAD PUSH1 0xE0 DUP7 ADD MSTORE DUP1 DUP3 ADD MLOAD ISZERO ISZERO SWAP1 DUP6 ADD MSTORE ADD MLOAD SWAP1 DUP3 ADD MSTORE RETURN JUMPDEST POP CALLVALUE PUSH2 0x16A JUMPI PUSH1 0x20 CALLDATASIZE PUSH1 0x3 NOT ADD SLT PUSH2 0x16A JUMPI PUSH1 0x4 CALLDATALOAD SWAP1 PUSH1 0x4 DUP3 LT ISZERO PUSH2 0x16A JUMPI PUSH1 0xA0 PUSH2 0x2FD DUP4 PUSH2 0xD7E JUMP JUMPDEST DUP1 SLOAD SWAP1 PUSH1 0x1 DUP2 ADD SLOAD SWAP1 PUSH1 0x3 PUSH1 0x2 DUP3 ADD SLOAD SWAP2 ADD SLOAD SWAP2 PUSH1 0xFF PUSH1 0x40 MLOAD SWAP5 PUSH1 0x1 DUP1 DUP9 SHL SUB DUP2 AND DUP7 MSTORE DUP7 SHR AND ISZERO ISZERO PUSH1 0x20 DUP6 ADD MSTORE PUSH1 0x40 DUP5 ADD MSTORE PUSH1 0x60 DUP4 ADD MSTORE PUSH1 0x80 DUP3 ADD MSTORE RETURN JUMPDEST POP CALLVALUE PUSH2 0x16A JUMPI DUP1 PUSH1 0x3 NOT CALLDATASIZE ADD SLT PUSH2 0x16A JUMPI SLOAD PUSH1 0x40 MLOAD PUSH1 0x1 PUSH1 0x1 PUSH1 0xA0 SHL SUB SWAP1 SWAP2 AND DUP2 MSTORE PUSH1 0x20 SWAP1 RETURN JUMPDEST POP CALLVALUE PUSH2 0x16A JUMPI DUP1 PUSH1 0x3 NOT CALLDATASIZE ADD SLT PUSH2 0x16A JUMPI PUSH2 0x37C PUSH2 0xD97 JUMP JUMPDEST DUP1 SLOAD PUSH1 0x1 PUSH1 0x1 PUSH1 0xA0 SHL SUB NOT DUP2 AND DUP3 SSTORE DUP2 SWAP1 PUSH1 0x1 PUSH1 0x1 PUSH1 0xA0 SHL SUB AND PUSH32 0x8BE0079C531659141344CD1FD0A4F28419497F9722A3DAAFE3B4186F6B6457E0 DUP3 DUP1 LOG3 DUP1 RETURN JUMPDEST POP PUSH1 0xE0 CALLDATASIZE PUSH1 0x3 NOT ADD SLT PUSH2 0x16A JUMPI PUSH2 0x3D2 PUSH2 0xD4D JUMP JUMPDEST PUSH1 0x4 PUSH1 0x64 CALLDATALOAD LT ISZERO PUSH2 0x672 JUMPI PUSH2 0x3E5 PUSH2 0xFB2 JUMP JUMPDEST PUSH1 0x1 PUSH1 0x1 PUSH1 0xA0 SHL SUB PUSH2 0x3FA DUP3 DUP3 AND ISZERO ISZERO PUSH2 0xDEF JUMP JUMPDEST PUSH2 0x407 PUSH1 0x44 CALLDATALOAD ISZERO ISZERO PUSH2 0xE2F JUMP JUMPDEST PUSH2 0x421 PUSH1 0xFF PUSH2 0x417 PUSH1 0x64 CALLDATALOAD PUSH2 0xD7E JUMP JUMPDEST SLOAD PUSH1 0xA0 SHR AND PUSH2 0xE7B JUMP JUMPDEST PUSH1 0x2 PUSH2 0x42E PUSH1 0x64 CALLDATALOAD PUSH2 0xD7E JUMP JUMPDEST ADD SLOAD PUSH1 0x44 CALLDATALOAD LT ISZERO DUP1 PUSH2 0x653 JUMPI JUMPDEST PUSH2 0x444 SWAP1 PUSH2 0xEC7 JUMP JUMPDEST PUSH2 0x44C PUSH2 0xF09 JUMP JUMPDEST PUSH1 0x4 CALLDATALOAD DUP2 MSTORE PUSH1 0x20 DUP2 ADD CALLER DUP2 MSTORE PUSH1 0x40 DUP3 ADD DUP4 DUP6 AND DUP2 MSTORE PUSH1 0x60 DUP4 ADD PUSH1 0x44 CALLDATALOAD DUP2 MSTORE PUSH1 0x80 DUP5 ADD SWAP3 PUSH2 0x47B PUSH1 0x64 CALLDATALOAD DUP6 PUSH2 0xF40 JUMP JUMPDEST PUSH1 0x84 CALLDATALOAD SWAP4 DUP5 PUSH1 0xA0 DUP8 ADD MSTORE PUSH1 0xA4 CALLDATALOAD SWAP3 DUP4 PUSH1 0xC0 DUP9 ADD MSTORE PUSH1 0xC4 CALLDATALOAD SWAP5 DUP6 PUSH1 0xE0 DUP10 ADD MSTORE DUP11 PUSH2 0x100 DUP10 ADD MSTORE TIMESTAMP PUSH2 0x120 DUP10 ADD MSTORE PUSH1 0x4 CALLDATALOAD DUP12 MSTORE PUSH1 0x3 PUSH1 0x20 MSTORE PUSH1 0x40 DUP12 KECCAK256 SWAP4 DUP9 MLOAD DUP6 SSTORE DUP10 PUSH1 0x1 DUP7 ADD SWAP2 MLOAD AND SWAP1 PUSH12 0xFFFFFFFFFFFFFFFFFFFFFFFF PUSH1 0xA0 SHL SWAP2 DUP3 DUP3 SLOAD AND OR SWAP1 SSTORE DUP10 PUSH1 0x2 DUP7 ADD SWAP3 MLOAD AND SWAP1 DUP3 SLOAD AND OR SWAP1 SSTORE MLOAD PUSH1 0x3 DUP4 ADD SSTORE MLOAD SWAP5 PUSH1 0x4 DUP7 LT ISZERO PUSH2 0x63F JUMPI PUSH2 0x120 PUSH1 0x9 SWAP2 PUSH1 0x4 DUP5 ADD PUSH1 0xFF NOT SWAP9 PUSH1 0xFF DUP11 DUP4 SLOAD AND SWAP2 AND OR SWAP1 SSTORE PUSH1 0xA0 DUP2 ADD MLOAD PUSH1 0x5 DUP6 ADD SSTORE PUSH1 0xC0 DUP2 ADD MLOAD PUSH1 0x6 DUP6 ADD SSTORE PUSH1 0xE0 DUP2 ADD MLOAD PUSH1 0x7 DUP6 ADD SSTORE PUSH2 0x552 PUSH2 0x100 DUP3 ADD MLOAD ISZERO ISZERO PUSH1 0x8 DUP7 ADD SWAP1 PUSH1 0xFF DUP1 NOT DUP4 SLOAD AND SWAP2 ISZERO ISZERO AND OR SWAP1 SSTORE JUMP JUMPDEST ADD MLOAD SWAP2 ADD SSTORE PUSH1 0x40 MLOAD SWAP3 PUSH1 0x44 CALLDATALOAD DUP5 MSTORE PUSH2 0x56F PUSH1 0x20 DUP6 ADD PUSH1 0x64 CALLDATALOAD PUSH2 0xD2A JUMP JUMPDEST PUSH1 0x40 DUP5 ADD MSTORE PUSH1 0x60 DUP4 ADD MSTORE PUSH1 0x80 DUP3 ADD MSTORE DUP3 DUP5 AND SWAP1 CALLER SWAP1 PUSH32 0xE48ACCF3CF242EF139D88C03DDDD8F8B3C40C61FBA1DA3E864CC19B628095026 PUSH1 0xA0 PUSH1 0x4 CALLDATALOAD SWAP3 LOG4 PUSH1 0x1 PUSH1 0x64 CALLDATALOAD EQ PUSH2 0x5BF JUMPI JUMPDEST DUP4 PUSH1 0x1 DUP1 SSTORE DUP1 RETURN JUMPDEST PUSH2 0x5CD PUSH1 0x44 CALLDATALOAD CALLVALUE LT ISZERO PUSH2 0xF4C JUMP JUMPDEST DUP2 DUP4 AND DUP5 MSTORE PUSH1 0x4 PUSH1 0x20 MSTORE PUSH1 0x40 DUP5 KECCAK256 PUSH2 0x5E8 PUSH1 0x44 CALLDATALOAD DUP3 SLOAD PUSH2 0xF8F JUMP JUMPDEST SWAP1 SSTORE PUSH1 0x4 CALLDATALOAD DUP5 MSTORE PUSH1 0x3 PUSH1 0x20 MSTORE PUSH1 0x1 PUSH1 0x8 PUSH1 0x40 DUP7 KECCAK256 ADD SWAP2 DUP3 SLOAD AND OR SWAP1 SSTORE PUSH1 0x40 MLOAD SWAP2 PUSH1 0x44 CALLDATALOAD DUP4 MSTORE AND SWAP1 PUSH32 0xA7B31F0F3731DA4B3C94C7D84ACB277EE788CDA12F626E14C6BAA74670DC5A07 PUSH1 0x20 PUSH1 0x4 CALLDATALOAD SWAP3 LOG3 CODESIZE DUP1 DUP1 PUSH2 0x5B7 JUMP JUMPDEST PUSH4 0x4E487B71 PUSH1 0xE0 SHL DUP10 MSTORE PUSH1 0x21 PUSH1 0x4 MSTORE PUSH1 0x24 DUP10 REVERT JUMPDEST POP PUSH2 0x444 PUSH1 0x3 PUSH2 0x664 PUSH1 0x64 CALLDATALOAD PUSH2 0xD7E JUMP JUMPDEST ADD SLOAD PUSH1 0x44 CALLDATALOAD GT ISZERO SWAP1 POP PUSH2 0x43B JUMP JUMPDEST POP DUP1 REVERT JUMPDEST POP PUSH1 0x80 CALLDATASIZE PUSH1 0x3 NOT ADD SLT PUSH2 0x16A JUMPI PUSH1 0x4 CALLDATALOAD PUSH2 0x68E PUSH2 0xD4D JUMP JUMPDEST SWAP1 PUSH1 0x44 CALLDATALOAD SWAP2 PUSH1 0x64 CALLDATALOAD PUSH1 0x4 DUP2 LT ISZERO PUSH2 0x8EB JUMPI DUP4 SWAP1 PUSH2 0x6A9 PUSH2 0xFB2 JUMP JUMPDEST DUP1 DUP5 DUP8 DUP1 PUSH1 0x1 DUP1 PUSH1 0xA0 SHL SUB DUP1 SWAP8 AND SWAP9 DUP10 SWAP8 PUSH2 0x6C5 DUP10 ISZERO ISZERO PUSH2 0xDEF JUMP JUMPDEST PUSH2 0x6D0 DUP3 ISZERO ISZERO PUSH2 0xE2F JUMP JUMPDEST PUSH2 0x6DE PUSH1 0xFF PUSH2 0x417 DUP9 PUSH2 0xD7E JUMP JUMPDEST PUSH1 0x2 PUSH2 0x6E9 DUP8 PUSH2 0xD7E JUMP JUMPDEST ADD SLOAD DUP3 LT ISZERO DUP1 PUSH2 0x8D0 JUMPI JUMPDEST PUSH2 0x6FD SWAP1 PUSH2 0xEC7 JUMP JUMPDEST PUSH2 0x705 PUSH2 0xF09 JUMP JUMPDEST SWAP6 DUP7 SWAP2 DUP7 DUP4 MSTORE PUSH1 0x20 SWAP11 DUP12 SWAP2 DUP3 DUP6 ADD SWAP1 CALLER DUP3 MSTORE PUSH1 0x40 DUP7 ADD SWAP3 DUP4 MSTORE PUSH1 0x40 DUP9 PUSH1 0x3 PUSH1 0x60 DUP10 ADD SWAP7 DUP11 DUP9 MSTORE PUSH2 0x739 PUSH1 0x80 DUP12 ADD SWAP10 DUP11 PUSH2 0xF40 JUMP JUMPDEST PUSH2 0x120 PUSH1 0xA0 DUP12 ADD SWAP11 DUP5 DUP13 MSTORE PUSH1 0xC0 DUP2 ADD SWAP13 DUP14 MSTORE PUSH1 0xE0 DUP2 ADD SWAP14 DUP15 MSTORE PUSH2 0x100 DUP2 ADD SWAP15 DUP16 MSTORE ADD SWAP14 DUP15 TIMESTAMP SWAP1 MSTORE DUP4 MSTORE MSTORE KECCAK256 SWAP11 MLOAD DUP12 SSTORE DUP1 PUSH1 0x1 DUP13 ADD SWAP3 MLOAD AND SWAP2 PUSH12 0xFFFFFFFFFFFFFFFFFFFFFFFF PUSH1 0xA0 SHL SWAP3 DUP4 DUP3 SLOAD AND OR SWAP1 SSTORE PUSH1 0x2 DUP12 ADD SWAP3 MLOAD AND SWAP1 DUP3 SLOAD AND OR SWAP1 SSTORE MLOAD PUSH1 0x3 DUP9 ADD SSTORE PUSH1 0x4 DUP8 ADD SWAP1 MLOAD PUSH1 0x4 DUP2 LT ISZERO PUSH2 0x8BC JUMPI DUP2 SLOAD PUSH1 0xFF NOT SWAP1 DUP2 AND PUSH1 0xFF SWAP3 DUP4 AND OR SWAP1 SWAP3 SSTORE SWAP2 MLOAD PUSH1 0x5 DUP9 ADD SSTORE SWAP2 MLOAD PUSH1 0x6 DUP8 ADD SSTORE SWAP2 MLOAD PUSH1 0x7 DUP7 ADD SSTORE SWAP2 MLOAD PUSH1 0x8 DUP6 ADD DUP1 SLOAD DUP5 AND SWAP2 ISZERO ISZERO SWAP1 SWAP3 AND OR SWAP1 SSTORE SWAP5 SWAP4 SWAP3 PUSH1 0x1 SWAP3 SWAP1 SWAP2 PUSH1 0x9 SWAP1 MLOAD SWAP2 ADD SSTORE DUP7 PUSH1 0x40 MLOAD DUP5 DUP2 MSTORE PUSH2 0x807 DUP7 DUP3 ADD DUP5 PUSH2 0xD2A JUMP JUMPDEST DUP10 PUSH1 0x40 DUP3 ADD MSTORE DUP5 PUSH1 0x60 DUP3 ADD MSTORE DUP10 PUSH1 0x80 DUP3 ADD MSTORE DUP8 PUSH32 0xE48ACCF3CF242EF139D88C03DDDD8F8B3C40C61FBA1DA3E864CC19B628095026 PUSH1 0xA0 CALLER SWAP4 LOG4 EQ PUSH2 0x84E JUMPI JUMPDEST DUP6 PUSH1 0x1 DUP1 SSTORE DUP1 RETURN JUMPDEST PUSH32 0xA7B31F0F3731DA4B3C94C7D84ACB277EE788CDA12F626E14C6BAA74670DC5A07 SWAP3 PUSH2 0x87C DUP3 CALLVALUE LT ISZERO PUSH2 0xF4C JUMP JUMPDEST DUP6 DUP8 MSTORE PUSH1 0x4 DUP4 MSTORE PUSH1 0x40 DUP8 KECCAK256 PUSH2 0x892 DUP4 DUP3 SLOAD PUSH2 0xF8F JUMP JUMPDEST SWAP1 SSTORE DUP5 DUP8 MSTORE PUSH1 0x3 DUP4 MSTORE PUSH1 0x1 PUSH1 0x8 PUSH1 0x40 DUP10 KECCAK256 ADD SWAP2 DUP3 SLOAD AND OR SWAP1 SSTORE PUSH1 0x40 MLOAD SWAP1 DUP2 MSTORE LOG3 CODESIZE DUP1 DUP1 DUP1 DUP1 PUSH2 0x846 JUMP JUMPDEST PUSH4 0x4E487B71 PUSH1 0xE0 SHL DUP15 MSTORE PUSH1 0x21 PUSH1 0x4 MSTORE PUSH1 0x24 DUP15 REVERT JUMPDEST POP PUSH2 0x6FD PUSH1 0x3 PUSH2 0x8DF DUP9 PUSH2 0xD7E JUMP JUMPDEST ADD SLOAD DUP4 GT ISZERO SWAP1 POP PUSH2 0x6F4 JUMP JUMPDEST DUP5 DUP1 REVERT JUMPDEST POP CALLVALUE PUSH2 0x16A JUMPI PUSH1 0x20 DUP1 PUSH1 0x3 NOT CALLDATASIZE ADD SLT PUSH2 0x672 JUMPI PUSH1 0x4 CALLDATALOAD DUP1 DUP4 MSTORE PUSH1 0x3 DUP3 MSTORE PUSH1 0x40 DUP4 KECCAK256 SWAP2 PUSH1 0x8 DUP4 ADD DUP1 SLOAD SWAP1 PUSH1 0xFF DUP3 AND PUSH2 0x9DC JUMPI PUSH1 0x4 DUP6 ADD SLOAD PUSH1 0x1 PUSH1 0x1 PUSH1 0xA0 SHL SUB SWAP3 SWAP1 DUP4 SWAP1 PUSH2 0x93D SWAP1 PUSH1 0xFF AND PUSH2 0xD7E JUMP JUMPDEST SLOAD AND CALLER SUB PUSH2 0x9A8 JUMPI SWAP1 PUSH1 0x1 PUSH32 0xA7B31F0F3731DA4B3C94C7D84ACB277EE788CDA12F626E14C6BAA74670DC5A07 SWAP5 SWAP4 SWAP3 PUSH1 0xFF NOT AND OR SWAP1 SSTORE PUSH1 0x3 DUP6 ADD SWAP5 PUSH1 0x2 DUP7 SLOAD SWAP2 ADD SWAP1 DUP3 DUP3 SLOAD AND DUP9 MSTORE PUSH1 0x4 DUP5 MSTORE PUSH2 0x998 PUSH1 0x40 DUP10 KECCAK256 SWAP2 DUP3 SLOAD PUSH2 0xF8F JUMP JUMPDEST SWAP1 SSTORE SLOAD AND SWAP4 SLOAD PUSH1 0x40 MLOAD SWAP1 DUP2 MSTORE LOG3 DUP1 RETURN JUMPDEST PUSH1 0x40 MLOAD PUSH3 0x461BCD PUSH1 0xE5 SHL DUP2 MSTORE PUSH1 0x4 DUP2 ADD DUP6 SWAP1 MSTORE PUSH1 0xC PUSH1 0x24 DUP3 ADD MSTORE PUSH12 0x155B985D5D1A1BDC9A5E9959 PUSH1 0xA2 SHL PUSH1 0x44 DUP3 ADD MSTORE PUSH1 0x64 SWAP1 REVERT JUMPDEST PUSH1 0x40 MLOAD PUSH3 0x461BCD PUSH1 0xE5 SHL DUP2 MSTORE PUSH1 0x4 DUP2 ADD DUP5 SWAP1 MSTORE PUSH1 0x19 PUSH1 0x24 DUP3 ADD MSTORE PUSH32 0x5061796D656E7420616C726561647920636F6D706C6574656400000000000000 PUSH1 0x44 DUP3 ADD MSTORE PUSH1 0x64 SWAP1 REVERT JUMPDEST POP CALLVALUE PUSH2 0x16A JUMPI PUSH1 0x20 DUP1 PUSH1 0x3 NOT CALLDATASIZE ADD SLT PUSH2 0x672 JUMPI PUSH1 0x4 CALLDATALOAD PUSH2 0xA3F PUSH2 0xFB2 JUMP JUMPDEST CALLER DUP4 MSTORE PUSH1 0x4 DUP3 MSTORE DUP1 PUSH1 0x40 DUP5 KECCAK256 SLOAD LT PUSH2 0xB3A JUMPI CALLER DUP4 MSTORE PUSH1 0x4 DUP3 MSTORE PUSH1 0x40 DUP4 KECCAK256 DUP1 SLOAD SWAP1 DUP3 DUP3 SUB SWAP2 DUP3 GT PUSH2 0xB26 JUMPI DUP5 DUP1 SWAP4 DUP2 SWAP4 DUP3 SWAP4 SSTORE CALLER GAS CALL RETURNDATASIZE ISZERO PUSH2 0xB21 JUMPI PUSH8 0xFFFFFFFFFFFFFFFF RETURNDATASIZE DUP2 DUP2 GT PUSH2 0xB0D JUMPI PUSH1 0x40 MLOAD SWAP2 PUSH1 0x1F DUP3 ADD PUSH1 0x1F NOT SWAP1 DUP2 AND PUSH1 0x3F ADD AND DUP4 ADD SWAP1 DUP2 GT DUP4 DUP3 LT OR PUSH2 0xAF9 JUMPI PUSH1 0x40 MSTORE DUP2 MSTORE DUP4 DUP4 RETURNDATASIZE SWAP3 ADD RETURNDATACOPY JUMPDEST ISZERO PUSH2 0xAC3 JUMPI POP PUSH1 0x1 DUP1 SSTORE DUP1 RETURN JUMPDEST PUSH1 0x64 SWAP1 PUSH1 0x40 MLOAD SWAP1 PUSH3 0x461BCD PUSH1 0xE5 SHL DUP3 MSTORE PUSH1 0x4 DUP3 ADD MSTORE PUSH1 0xF PUSH1 0x24 DUP3 ADD MSTORE PUSH15 0x151C985B9CD9995C8819985A5B1959 PUSH1 0x8A SHL PUSH1 0x44 DUP3 ADD MSTORE REVERT JUMPDEST PUSH4 0x4E487B71 PUSH1 0xE0 SHL DUP7 MSTORE PUSH1 0x41 PUSH1 0x4 MSTORE PUSH1 0x24 DUP7 REVERT JUMPDEST PUSH4 0x4E487B71 PUSH1 0xE0 SHL DUP6 MSTORE PUSH1 0x41 PUSH1 0x4 MSTORE PUSH1 0x24 DUP6 REVERT JUMPDEST PUSH2 0xAB6 JUMP JUMPDEST PUSH4 0x4E487B71 PUSH1 0xE0 SHL DUP6 MSTORE PUSH1 0x11 PUSH1 0x4 MSTORE PUSH1 0x24 DUP6 REVERT JUMPDEST PUSH1 0x40 MLOAD PUSH3 0x461BCD PUSH1 0xE5 SHL DUP2 MSTORE PUSH1 0x4 DUP2 ADD DUP4 SWAP1 MSTORE PUSH1 0x14 PUSH1 0x24 DUP3 ADD MSTORE PUSH20 0x496E73756666696369656E742062616C616E6365 PUSH1 0x60 SHL PUSH1 0x44 DUP3 ADD MSTORE PUSH1 0x64 SWAP1 REVERT JUMPDEST POP CALLVALUE PUSH2 0x16A JUMPI PUSH1 0x20 CALLDATASIZE PUSH1 0x3 NOT ADD SLT PUSH2 0x16A JUMPI PUSH1 0x20 SWAP1 PUSH1 0x40 SWAP1 PUSH1 0x1 PUSH1 0x1 PUSH1 0xA0 SHL SUB PUSH2 0xB9E PUSH2 0xD68 JUMP JUMPDEST AND DUP2 MSTORE PUSH1 0x4 DUP4 MSTORE KECCAK256 SLOAD PUSH1 0x40 MLOAD SWAP1 DUP2 MSTORE RETURN JUMPDEST POP CALLVALUE PUSH2 0x16A JUMPI PUSH1 0xC0 CALLDATASIZE PUSH1 0x3 NOT ADD SLT PUSH2 0x16A JUMPI PUSH1 0x4 CALLDATALOAD SWAP1 PUSH1 0x4 DUP3 LT ISZERO PUSH2 0x16A JUMPI PUSH2 0xBD6 PUSH2 0xD4D JUMP JUMPDEST PUSH1 0x44 CALLDATALOAD SWAP3 DUP4 ISZERO ISZERO DUP1 SWAP5 SUB PUSH2 0xC80 JUMPI PUSH2 0xBEC PUSH2 0xD97 JUMP JUMPDEST PUSH1 0x40 MLOAD SWAP2 PUSH1 0xA0 DUP4 ADD SWAP5 DUP4 DUP7 LT PUSH8 0xFFFFFFFFFFFFFFFF DUP8 GT OR PUSH2 0xB0D JUMPI PUSH1 0x3 SWAP4 SWAP5 SWAP6 PUSH1 0x40 MSTORE PUSH1 0x1 DUP1 PUSH1 0xA0 SHL SUB DUP1 SWAP3 AND DUP6 MSTORE PUSH1 0x20 DUP6 ADD SWAP1 DUP2 MSTORE PUSH1 0x40 DUP6 ADD SWAP1 PUSH1 0x64 CALLDATALOAD DUP3 MSTORE PUSH1 0x60 DUP7 ADD SWAP3 PUSH1 0x84 CALLDATALOAD DUP5 MSTORE PUSH2 0xC49 PUSH1 0x80 DUP9 ADD SWAP6 PUSH1 0xA4 CALLDATALOAD DUP8 MSTORE PUSH2 0xD7E JUMP JUMPDEST SWAP7 MLOAD DUP8 SLOAD SWAP3 MLOAD PUSH1 0x1 PUSH1 0x1 PUSH1 0xA8 SHL SUB NOT SWAP1 SWAP4 AND SWAP2 AND OR SWAP1 ISZERO ISZERO PUSH1 0xA0 SHL PUSH1 0xFF PUSH1 0xA0 SHL AND OR DUP6 SSTORE MLOAD PUSH1 0x1 DUP6 ADD SSTORE MLOAD PUSH1 0x2 DUP5 ADD SSTORE MLOAD SWAP2 ADD SSTORE DUP1 RETURN JUMPDEST DUP3 DUP1 REVERT JUMPDEST SWAP1 POP CALLVALUE PUSH2 0x672 JUMPI PUSH1 0x20 CALLDATASIZE PUSH1 0x3 NOT ADD SLT PUSH2 0x672 JUMPI PUSH1 0x40 PUSH2 0x140 SWAP3 PUSH1 0x4 CALLDATALOAD DUP2 MSTORE PUSH1 0x3 PUSH1 0x20 MSTORE KECCAK256 DUP1 SLOAD SWAP1 PUSH1 0x1 DUP1 PUSH1 0xA0 SHL SUB DUP1 PUSH1 0x1 DUP4 ADD SLOAD AND SWAP1 PUSH1 0x2 DUP4 ADD SLOAD AND PUSH1 0x3 DUP4 ADD SLOAD PUSH2 0xD0B PUSH1 0xFF PUSH1 0x4 DUP7 ADD SLOAD AND PUSH1 0x5 DUP7 ADD SLOAD SWAP3 PUSH1 0x6 DUP8 ADD SLOAD SWAP5 PUSH1 0x7 DUP9 ADD SLOAD SWAP7 PUSH1 0x9 PUSH1 0xFF PUSH1 0x8 DUP12 ADD SLOAD AND SWAP10 ADD SLOAD SWAP10 DUP12 MSTORE PUSH1 0x20 DUP12 ADD MSTORE PUSH1 0x40 DUP11 ADD MSTORE PUSH1 0x60 DUP10 ADD MSTORE PUSH1 0x80 DUP9 ADD SWAP1 PUSH2 0xD2A JUMP JUMPDEST PUSH1 0xA0 DUP7 ADD MSTORE PUSH1 0xC0 DUP6 ADD MSTORE PUSH1 0xE0 DUP5 ADD MSTORE ISZERO ISZERO PUSH2 0x100 DUP4 ADD MSTORE PUSH2 0x120 DUP3 ADD MSTORE RETURN JUMPDEST SWAP1 PUSH1 0x4 DUP3 LT ISZERO PUSH2 0xD37 JUMPI MSTORE JUMP JUMPDEST PUSH4 0x4E487B71 PUSH1 0xE0 SHL PUSH1 0x0 MSTORE PUSH1 0x21 PUSH1 0x4 MSTORE PUSH1 0x24 PUSH1 0x0 REVERT JUMPDEST PUSH1 0x24 CALLDATALOAD SWAP1 PUSH1 0x1 PUSH1 0x1 PUSH1 0xA0 SHL SUB DUP3 AND DUP3 SUB PUSH2 0xD63 JUMPI JUMP JUMPDEST PUSH1 0x0 DUP1 REVERT JUMPDEST PUSH1 0x4 CALLDATALOAD SWAP1 PUSH1 0x1 PUSH1 0x1 PUSH1 0xA0 SHL SUB DUP3 AND DUP3 SUB PUSH2 0xD63 JUMPI JUMP JUMPDEST PUSH1 0x4 DUP2 LT ISZERO PUSH2 0xD37 JUMPI PUSH1 0x0 MSTORE PUSH1 0x2 PUSH1 0x20 MSTORE PUSH1 0x40 PUSH1 0x0 KECCAK256 SWAP1 JUMP JUMPDEST PUSH1 0x0 SLOAD PUSH1 0x1 PUSH1 0x1 PUSH1 0xA0 SHL SUB AND CALLER SUB PUSH2 0xDAB JUMPI JUMP JUMPDEST PUSH1 0x64 PUSH1 0x40 MLOAD PUSH3 0x461BCD PUSH1 0xE5 SHL DUP2 MSTORE PUSH1 0x20 PUSH1 0x4 DUP3 ADD MSTORE PUSH1 0x20 PUSH1 0x24 DUP3 ADD MSTORE PUSH32 0x4F776E61626C653A2063616C6C6572206973206E6F7420746865206F776E6572 PUSH1 0x44 DUP3 ADD MSTORE REVERT JUMPDEST ISZERO PUSH2 0xDF6 JUMPI JUMP JUMPDEST PUSH1 0x40 MLOAD PUSH3 0x461BCD PUSH1 0xE5 SHL DUP2 MSTORE PUSH1 0x20 PUSH1 0x4 DUP3 ADD MSTORE PUSH1 0x11 PUSH1 0x24 DUP3 ADD MSTORE PUSH17 0x125B9D985B1A59081C9958DA5C1A595B9D PUSH1 0x7A SHL PUSH1 0x44 DUP3 ADD MSTORE PUSH1 0x64 SWAP1 REVERT JUMPDEST ISZERO PUSH2 0xE36 JUMPI JUMP JUMPDEST PUSH1 0x40 MLOAD PUSH3 0x461BCD PUSH1 0xE5 SHL DUP2 MSTORE PUSH1 0x20 PUSH1 0x4 DUP3 ADD MSTORE PUSH1 0x1D PUSH1 0x24 DUP3 ADD MSTORE PUSH32 0x416D6F756E74206D7573742062652067726561746572207468616E2030000000 PUSH1 0x44 DUP3 ADD MSTORE PUSH1 0x64 SWAP1 REVERT JUMPDEST ISZERO PUSH2 0xE82 JUMPI JUMP JUMPDEST PUSH1 0x40 MLOAD PUSH3 0x461BCD PUSH1 0xE5 SHL DUP2 MSTORE PUSH1 0x20 PUSH1 0x4 DUP3 ADD MSTORE PUSH1 0x1A PUSH1 0x24 DUP3 ADD MSTORE PUSH32 0x5061796D656E74206368616E6E656C206E6F7420616374697665000000000000 PUSH1 0x44 DUP3 ADD MSTORE PUSH1 0x64 SWAP1 REVERT JUMPDEST ISZERO PUSH2 0xECE JUMPI JUMP JUMPDEST PUSH1 0x40 MLOAD PUSH3 0x461BCD PUSH1 0xE5 SHL DUP2 MSTORE PUSH1 0x20 PUSH1 0x4 DUP3 ADD MSTORE PUSH1 0x13 PUSH1 0x24 DUP3 ADD MSTORE PUSH19 0x416D6F756E74206F7574206F662072616E6765 PUSH1 0x68 SHL PUSH1 0x44 DUP3 ADD MSTORE PUSH1 0x64 SWAP1 REVERT JUMPDEST PUSH1 0x40 MLOAD SWAP1 PUSH2 0x140 DUP3 ADD DUP3 DUP2 LT PUSH8 0xFFFFFFFFFFFFFFFF DUP3 GT OR PUSH2 0xF2A JUMPI PUSH1 0x40 MSTORE JUMP JUMPDEST PUSH4 0x4E487B71 PUSH1 0xE0 SHL PUSH1 0x0 MSTORE PUSH1 0x41 PUSH1 0x4 MSTORE PUSH1 0x24 PUSH1 0x0 REVERT JUMPDEST PUSH1 0x4 DUP3 LT ISZERO PUSH2 0xD37 JUMPI MSTORE JUMP JUMPDEST ISZERO PUSH2 0xF53 JUMPI JUMP JUMPDEST PUSH1 0x40 MLOAD PUSH3 0x461BCD PUSH1 0xE5 SHL DUP2 MSTORE PUSH1 0x20 PUSH1 0x4 DUP3 ADD MSTORE PUSH1 0x14 PUSH1 0x24 DUP3 ADD MSTORE PUSH20 0x125B9CDD59999A58DA595B9D081C185E5B595B9D PUSH1 0x62 SHL PUSH1 0x44 DUP3 ADD MSTORE PUSH1 0x64 SWAP1 REVERT JUMPDEST SWAP2 SWAP1 DUP3 ADD DUP1 SWAP3 GT PUSH2 0xF9C JUMPI JUMP JUMPDEST PUSH4 0x4E487B71 PUSH1 0xE0 SHL PUSH1 0x0 MSTORE PUSH1 0x11 PUSH1 0x4 MSTORE PUSH1 0x24 PUSH1 0x0 REVERT JUMPDEST PUSH1 0x2 PUSH1 0x1 SLOAD EQ PUSH2 0xFC3 JUMPI PUSH1 0x2 PUSH1 0x1 SSTORE JUMP JUMPDEST PUSH1 0x40 MLOAD PUSH3 0x461BCD PUSH1 0xE5 SHL DUP2 MSTORE PUSH1 0x20 PUSH1 0x4 DUP3 ADD MSTORE PUSH1 0x1F PUSH1 0x24 DUP3 ADD MSTORE PUSH32 0x5265656E7472616E637947756172643A207265656E7472616E742063616C6C00 PUSH1 0x44 DUP3 ADD MSTORE PUSH1 0x64 SWAP1 REVERT INVALID LOG2 PUSH5 0x6970667358 0x22 SLT KECCAK256 GAS 0xCE 0xDD 0xD4 INVALID SWAP7 0x4F PUSH7 0x3C2D5A137CE7DC SWAP10 0xE6 0xED GAS DUP5 0xDD PUSH27 0x75F94B791D58330D3FC664736F6C63430008140033000000000000 "},"methodIdentifiers":{"balances(address)":"27e235e3","completePayment(bytes32)":"47ca8a8b","getPayment(bytes32)":"e66eefc8","owner()":"8da5cb5b","paymentChannels(uint8)":"e0db06c5","payments(bytes32)":"0716326d","renounceOwnership()":"715018a6","routePayment(bytes32,address,uint256,uint8,bytes32,uint256,uint256)":"6ff0095c","routePaymentLegacy(bytes32,address,uint256,uint8)":"532796c1","setPaymentChannel(uint8,address,bool,uint256,uint256,uint256)":"1893fa0a","transferOwnership(address)":"f2fde38b","withdraw(uint256)":"2e1a7d4d"}}}}}