{"contracts/X402Adapter.sol":{"X402Adapter":{"abi":[{"inputs":[{"internalType":"address payable","name":"_paymentRouter","type":"address"}],"stateMutability":"nonpayable","type":"constructor"},{"anonymous":false,"inputs":[{"indexed":true,"internalType":"address","name":"previousOwner","type":"address"},{"indexed":true,"internalType":"address","name":"newOwner","type":"address"}],"name":"OwnershipTransferred","type":"event"},{"anonymous":false,"inputs":[{"indexed":false,"internalType":"address","name":"account","type":"address"}],"name":"Paused","type":"event"},{"anonymous":false,"inputs":[{"indexed":false,"internalType":"address","name":"account","type":"address"}],"name":"Unpaused","type":"event"},{"anonymous":false,"inputs":[{"indexed":true,"internalType":"bytes32","name":"sessionId","type":"bytes32"},{"indexed":true,"internalType":"bytes32","name":"paymentId","type":"bytes32"},{"indexed":true,"internalType":"address","name":"recipient","type":"address"},{"indexed":false,"internalType":"uint256","name":"amount","type":"uint256"},{"indexed":false,"internalType":"uint256","name":"gasSaved","type":"uint256"}],"name":"X402PaymentExecuted","type":"event"},{"anonymous":false,"inputs":[{"indexed":true,"internalType":"bytes32","name":"sessionId","type":"bytes32"},{"indexed":true,"internalType":"bytes32","name":"paymentId","type":"bytes32"},{"indexed":true,"internalType":"address","name":"payer","type":"address"},{"indexed":false,"internalType":"uint256","name":"amount","type":"uint256"}],"name":"X402SessionCreated","type":"event"},{"inputs":[{"internalType":"bytes32","name":"paymentId","type":"bytes32"},{"internalType":"address","name":"recipient","type":"address"},{"internalType":"uint256","name":"amount","type":"uint256"},{"internalType":"bytes","name":"compressedData","type":"bytes"},{"internalType":"uint256","name":"expiresAt","type":"uint256"}],"name":"createSession","outputs":[{"internalType":"bytes32","name":"","type":"bytes32"}],"stateMutability":"nonpayable","type":"function"},{"inputs":[{"internalType":"address","name":"to","type":"address"},{"internalType":"uint256","name":"amount","type":"uint256"}],"name":"emergencyWithdraw","outputs":[],"stateMutability":"nonpayable","type":"function"},{"inputs":[{"internalType":"bytes32","name":"sessionId","type":"bytes32"},{"internalType":"bytes","name":"signature","type":"bytes"}],"name":"executePayment","outputs":[],"stateMutability":"nonpayable","type":"function"},{"inputs":[{"internalType":"bytes32","name":"sessionId","type":"bytes32"}],"name":"getSession","outputs":[{"components":[{"internalType":"bytes32","name":"sessionId","type":"bytes32"},{"internalType":"bytes32","name":"paymentId","type":"bytes32"},{"internalType":"address","name":"payer","type":"address"},{"internalType":"address","name":"recipient","type":"address"},{"internalType":"uint256","name":"amount","type":"uint256"},{"internalType":"bytes","name":"compressedData","type":"bytes"},{"internalType":"bool","name":"executed","type":"bool"},{"internalType":"uint256","name":"createdAt","type":"uint256"},{"internalType":"uint256","name":"expiresAt","type":"uint256"}],"internalType":"struct X402Adapter.X402Session","name":"","type":"tuple"}],"stateMutability":"view","type":"function"},{"inputs":[],"name":"owner","outputs":[{"internalType":"address","name":"","type":"address"}],"stateMutability":"view","type":"function"},{"inputs":[],"name":"pause","outputs":[],"stateMutability":"nonpayable","type":"function"},{"inputs":[],"name":"paused","outputs":[{"internalType":"bool","name":"","type":"bool"}],"stateMutability":"view","type":"function"},{"inputs":[],"name":"paymentRouter","outputs":[{"internalType":"contract PaymentRouter","name":"","type":"address"}],"stateMutability":"view","type":"function"},{"inputs":[],"name":"relayer","outputs":[{"internalType":"address","name":"","type":"address"}],"stateMutability":"view","type":"function"},{"inputs":[],"name":"renounceOwnership","outputs":[],"stateMutability":"nonpayable","type":"function"},{"inputs":[{"internalType":"bytes32","name":"","type":"bytes32"}],"name":"sessions","outputs":[{"internalType":"bytes32","name":"sessionId","type":"bytes32"},{"internalType":"bytes32","name":"paymentId","type":"bytes32"},{"internalType":"address","name":"payer","type":"address"},{"internalType":"address","name":"recipient","type":"address"},{"internalType":"uint256","name":"amount","type":"uint256"},{"internalType":"bytes","name":"compressedData","type":"bytes"},{"internalType":"bool","name":"executed","type":"bool"},{"internalType":"uint256","name":"createdAt","type":"uint256"},{"internalType":"uint256","name":"expiresAt","type":"uint256"}],"stateMutability":"view","type":"function"},{"inputs":[{"internalType":"address","name":"_relayer","type":"address"}],"name":"setRelayer","outputs":[],"stateMutability":"nonpayable","type":"function"},{"inputs":[{"internalType":"address","name":"newOwner","type":"address"}],"name":"transferOwnership","outputs":[],"stateMutability":"nonpayable","type":"function"},{"inputs":[],"name":"unpause","outputs":[],"stateMutability":"nonpayable","type":"function"},{"stateMutability":"payable","type":"receive"}],"evm":{"bytecode":{"linkReferences":{},"object":"6080346100b557601f61146e38819003918201601f19168301916001600160401b038311848410176100ba578084926020946040528339810103126100b557516001600160a01b0390818116908190036100b55760005460018060a01b0319903382821617600055604051933391167f8be0079c531659141344cd1fd0a4f28419497f9722a3daafe3b4186f6b6457e0600080a36001805560ff1960025416600255600454161760045561139d90816100d18239f35b600080fd5b634e487b7160e01b600052604160045260246000fdfe6080604052600436101561001b575b361561001957600080fd5b005b60003560e01c806339b240bd146100fb5780633f4ba83a146100f65780635c975abb146100f15780636548e9bc146100ec578063715018a6146100e757806371df5a2b146100e2578063724f16de146100dd5780637dbd2832146100d85780638406c079146100d35780638456cb59146100ce5780638da5cb5b146100c957806395ccea67146100c4578063f2fde38b146100bf5763ff781bbf0361000e57610d58565b610c95565b610c0e565b610be5565b610b8b565b610b62565b610aee565b610629565b6104d1565b610445565b6103c1565b610372565b6102de565b6101c5565b919082519283825260005b84811061012c575050826000602080949584010152601f8019910116010190565b60208183018101518483018201520161010b565b60208082528251828201528201516040808301919091528201516001600160a01b0316606082015260608201516001600160a01b03166080820152608082015160a082015260a08201516101a2610120918260c0850152610140840190610100565b60c0840151151560e08401529260e0810151906101009182850152015191015290565b346102ce5760203660031901126102ce576102ca6040516101e58161099c565b604060008083528060208401528082840152806060840152806080840152606060a08401528060c08401528060e084015280610100809401526004358152600360205220906008610234610dd9565b835481526001840154602082015260028401546001600160a01b03166040820152926003810154610279906001600160a01b03165b6001600160a01b03166060860152565b6004810154608085015261028f600582016109f4565b60a08501526102ae6102a5600683015460ff1690565b151560c0860152565b600781015460e085015201549082015260405191829182610140565b0390f35b600080fd5b60009103126102ce57565b346102ce5760003660031901126102ce576102f7610d81565b60025460ff8116156103365760ff19166002557f5db9ee0a495bf2e6ff9c91a7834c1ba4fdd244a5e8aa4e537bd38aeae4b073aa6020604051338152a1005b60405162461bcd60e51b815260206004820152601460248201527314185d5cd8589b194e881b9bdd081c185d5cd95960621b6044820152606490fd5b346102ce5760003660031901126102ce57602060ff600254166040519015158152f35b600435906001600160a01b03821682036102ce57565b602435906001600160a01b03821682036102ce57565b346102ce5760203660031901126102ce576103da610395565b6103e2610d81565b6001600160a01b0316801561040e576bffffffffffffffffffffffff60a01b6005541617600555600080f35b60405162461bcd60e51b815260206004820152600f60248201526e24b73b30b634b2103932b630bcb2b960891b6044820152606490fd5b346102ce576000806003193601126104a05761045f610d81565b80546001600160a01b03198116825581906001600160a01b03167f8be0079c531659141344cd1fd0a4f28419497f9722a3daafe3b4186f6b6457e08280a380f35b80fd5b9181601f840112156102ce5782359167ffffffffffffffff83116102ce57602083818601950101116102ce57565b346102ce5760a03660031901126102ce576004356104ed6103ab565b6044356064359267ffffffffffffffff84116102ce576105e06105ac9361051b6102ca9636906004016104a3565b9590604051602081019061057a8161056c428b89338d89939190926088959385526bffffffffffffffffffffffff19809260601b16602086015260601b166034840152604883015260688201520190565b03601f1981018352826109d2565b5190209661059f610589610dd9565b8981526020810188905233604082015294610269565b8660808501523691610e02565b60a0820152600060c08201524260e08201526084356101008201526105db856000526003602052604060002090565b610f5c565b827fa23a57dc5eb67a50f2daedc010fc35f9d2bcee06d0f5f8686fd0164891dfd76e604051806106163396829190602083019252565b0390a46040519081529081906020820190565b346102ce576040806003193601126102ce57600490813560243567ffffffffffffffff81116102ce5761065f90369085016104a3565b91909360026001541461090957600260015561067961126e565b61068d826000526003602052604060002090565b94855480151561069c9061100f565b600687019283546106ad9060ff1690565b156106b79061104f565b60088801544211156106c89061109b565b6005546001600160a01b03166001600160a01b031633146106e8906110d9565b6106f460418714611125565b6001880193845498600381019788546107129060018060a01b031690565b82850180548c5160208101988952604081019e909e52606083811b6bffffffffffffffffffffffff1916908f015260748e018190524660948f01529c919790969091908160b481010391601f1992838101825261076f90826109d2565b519020908c51908160208101936107b09085603c917f19457468657265756d205369676e6564204d6573736167653a0a3332000000008252601c8201520190565b0390810182526107c090826109d2565b5190209136906107cf92610e02565b6107d8916112b2565b6002909101546001600160a01b03166001600160a01b03166001600160a01b03958692909161080991841614611171565b8a471015610816906111b1565b600080809c81948294165af161082a6111f4565b5061083490611224565b805460ff191660011790558054845489916001600160a01b0316803b156109055789516347ca8a8b60e01b8152938401918252839182908490829060200103925af18015610900577f96e4db812578f5ab89327d345d351d8d3ee58b65746ae8eef5e3ff0f6b93bbf7946108d8926108bb926108e7575b505496546001600160a01b031690565b91549651968752620186a060208801529116949081906040820190565b0390a46108e460018055565b80f35b806108f46108fa926109be565b806102d3565b386108ab565b611262565b8280fd5b606490602085519162461bcd60e51b8352820152601f60248201527f5265656e7472616e637947756172643a207265656e7472616e742063616c6c006044820152fd5b90600182811c9216801561097c575b602083101461096657565b634e487b7160e01b600052602260045260246000fd5b91607f169161095b565b634e487b7160e01b600052604160045260246000fd5b610120810190811067ffffffffffffffff8211176109b957604052565b610986565b67ffffffffffffffff81116109b957604052565b90601f8019910116810190811067ffffffffffffffff8211176109b957604052565b9060405191826000825492610a088461094c565b908184526001948581169081600014610a775750600114610a34575b5050610a32925003836109d2565b565b9093915060005260209081600020936000915b818310610a5f575050610a3293508201013880610a24565b85548884018501529485019487945091830191610a47565b915050610a3294506020925060ff191682840152151560051b8201013880610a24565b95929093610100979a99989592610add958852602088015260018060a01b03809216604088015216606086015260808501526101208060a0860152840190610100565b95151560c083015260e08201520152565b346102ce5760203660031901126102ce576004356000526003602052604060002080546102ca60018301549260018060a01b039081600282015416916003820154166004820154610b41600584016109f4565b9060ff600685015416926008600786015495015495604051998a998a610a9a565b346102ce5760003660031901126102ce576005546040516001600160a01b039091168152602090f35b346102ce5760003660031901126102ce57610ba4610d81565b610bac61126e565b600160ff1960025416176002557f62e78cea01bee320cd4e420270b5ea74000d11b0c9f74754ebdbfc544b05a2586020604051338152a1005b346102ce5760003660031901126102ce576000546040516001600160a01b039091168152602090f35b346102ce5760403660031901126102ce57610c27610395565b610c2f610d81565b6001600160a01b03168015610c5c576108e460008080808095602435905af1610c566111f4565b50611224565b60405162461bcd60e51b8152602060048201526011602482015270125b9d985b1a59081c9958da5c1a595b9d607a1b6044820152606490fd5b346102ce5760203660031901126102ce57610cae610395565b610cb6610d81565b6001600160a01b039081168015610d0457600080546001600160a01b03198116831782559092167f8be0079c531659141344cd1fd0a4f28419497f9722a3daafe3b4186f6b6457e08380a380f35b60405162461bcd60e51b815260206004820152602660248201527f4f776e61626c653a206e6577206f776e657220697320746865207a65726f206160448201526564647265737360d01b6064820152608490fd5b346102ce5760003660031901126102ce576004546040516001600160a01b039091168152602090f35b6000546001600160a01b03163303610d9557565b606460405162461bcd60e51b815260206004820152602060248201527f4f776e61626c653a2063616c6c6572206973206e6f7420746865206f776e65726044820152fd5b60405190610a328261099c565b67ffffffffffffffff81116109b957601f01601f191660200190565b929192610e0e82610de6565b91610e1c60405193846109d2565b8294818452818301116102ce578281602093846000960137010152565b90601f8111610e4757505050565b600091825260208220906020601f850160051c83019410610e83575b601f0160051c01915b828110610e7857505050565b818155600101610e6c565b9092508290610e63565b919091825167ffffffffffffffff81116109b957610eb581610eaf845461094c565b84610e39565b602080601f8311600114610ef1575081929394600092610ee6575b50508160011b916000199060031b1c1916179055565b015190503880610ed0565b90601f19831695610f0785600052602060002090565b926000905b888210610f4457505083600195969710610f2b575b505050811b019055565b015160001960f88460031b161c19169055388080610f21565b80600185968294968601518155019501930190610f0c565b815181556020820151600182015560408201516002820180546001600160a01b0319166001600160a01b03909216919091179055906008906101009060608101516003850180546001600160a01b0319166001600160a01b0390921691909117905560808101516004850155610fd960a082015160058601610e8d565b610ffe610fe960c0830151151590565b600686019060ff801983541691151516179055565b60e081015160078501550151910155565b1561101657565b60405162461bcd60e51b815260206004820152601160248201527014d95cdcda5bdb881b9bdd08199bdd5b99607a1b6044820152606490fd5b1561105657565b60405162461bcd60e51b815260206004820152601860248201527f5061796d656e7420616c726561647920657865637574656400000000000000006044820152606490fd5b156110a257565b60405162461bcd60e51b815260206004820152600f60248201526e14d95cdcda5bdb88195e1c1a5c9959608a1b6044820152606490fd5b156110e057565b60405162461bcd60e51b815260206004820152601860248201527f4f6e6c792072656c617965722063616e206578656375746500000000000000006044820152606490fd5b1561112c57565b60405162461bcd60e51b815260206004820152601860248201527f496e76616c6964207369676e6174757265206c656e67746800000000000000006044820152606490fd5b1561117857565b60405162461bcd60e51b8152602060048201526011602482015270496e76616c6964207369676e617475726560781b6044820152606490fd5b156111b857565b60405162461bcd60e51b8152602060048201526014602482015273496e73756666696369656e742062616c616e636560601b6044820152606490fd5b3d1561121f573d9061120582610de6565b9161121360405193846109d2565b82523d6000602084013e565b606090565b1561122b57565b60405162461bcd60e51b815260206004820152600f60248201526e151c985b9cd9995c8819985a5b1959608a1b6044820152606490fd5b6040513d6000823e3d90fd5b60ff6002541661127a57565b60405162461bcd60e51b815260206004820152601060248201526f14185d5cd8589b194e881c185d5cd95960821b6044820152606490fd5b9060009060208101519160606040830151920151901a91601b831061133b575b9261131c83926020956112f660ff60009716601b8114908115611330575b50611171565b604051948594859094939260ff6060936080840197845216602083015260408201520152565b838052039060015afa156109005760005190565b601c915014386112f0565b9091601b019260ff8411611351579291906112d2565b634e487b7160e01b600052601160045260246000fdfea26469706673582212209ab1badbb35ea7371958f8d636cebbc4a79bd2ca34b90f8da228d82374ce1af964736f6c63430008140033","opcodes":"PUSH1 0x80 CALLVALUE PUSH2 0xB5 JUMPI PUSH1 0x1F PUSH2 0x146E CODESIZE DUP2 SWAP1 SUB SWAP2 DUP3 ADD PUSH1 0x1F NOT AND DUP4 ADD SWAP2 PUSH1 0x1 PUSH1 0x1 PUSH1 0x40 SHL SUB DUP4 GT DUP5 DUP5 LT OR PUSH2 0xBA JUMPI DUP1 DUP5 SWAP3 PUSH1 0x20 SWAP5 PUSH1 0x40 MSTORE DUP4 CODECOPY DUP2 ADD SUB SLT PUSH2 0xB5 JUMPI MLOAD PUSH1 0x1 PUSH1 0x1 PUSH1 0xA0 SHL SUB SWAP1 DUP2 DUP2 AND SWAP1 DUP2 SWAP1 SUB PUSH2 0xB5 JUMPI PUSH1 0x0 SLOAD PUSH1 0x1 DUP1 PUSH1 0xA0 SHL SUB NOT SWAP1 CALLER DUP3 DUP3 AND OR PUSH1 0x0 SSTORE PUSH1 0x40 MLOAD SWAP4 CALLER SWAP2 AND PUSH32 0x8BE0079C531659141344CD1FD0A4F28419497F9722A3DAAFE3B4186F6B6457E0 PUSH1 0x0 DUP1 LOG3 PUSH1 0x1 DUP1 SSTORE PUSH1 0xFF NOT PUSH1 0x2 SLOAD AND PUSH1 0x2 SSTORE PUSH1 0x4 SLOAD AND OR PUSH1 0x4 SSTORE PUSH2 0x139D SWAP1 DUP2 PUSH2 0xD1 DUP3 CODECOPY RETURN JUMPDEST PUSH1 0x0 DUP1 REVERT JUMPDEST PUSH4 0x4E487B71 PUSH1 0xE0 SHL PUSH1 0x0 MSTORE PUSH1 0x41 PUSH1 0x4 MSTORE PUSH1 0x24 PUSH1 0x0 REVERT INVALID PUSH1 0x80 PUSH1 0x40 MSTORE PUSH1 0x4 CALLDATASIZE LT ISZERO PUSH2 0x1B JUMPI JUMPDEST CALLDATASIZE ISZERO PUSH2 0x19 JUMPI PUSH1 0x0 DUP1 REVERT JUMPDEST STOP JUMPDEST PUSH1 0x0 CALLDATALOAD PUSH1 0xE0 SHR DUP1 PUSH4 0x39B240BD EQ PUSH2 0xFB JUMPI DUP1 PUSH4 0x3F4BA83A EQ PUSH2 0xF6 JUMPI DUP1 PUSH4 0x5C975ABB EQ PUSH2 0xF1 JUMPI DUP1 PUSH4 0x6548E9BC EQ PUSH2 0xEC JUMPI DUP1 PUSH4 0x715018A6 EQ PUSH2 0xE7 JUMPI DUP1 PUSH4 0x71DF5A2B EQ PUSH2 0xE2 JUMPI DUP1 PUSH4 0x724F16DE EQ PUSH2 0xDD JUMPI DUP1 PUSH4 0x7DBD2832 EQ PUSH2 0xD8 JUMPI DUP1 PUSH4 0x8406C079 EQ PUSH2 0xD3 JUMPI DUP1 PUSH4 0x8456CB59 EQ PUSH2 0xCE JUMPI DUP1 PUSH4 0x8DA5CB5B EQ PUSH2 0xC9 JUMPI DUP1 PUSH4 0x95CCEA67 EQ PUSH2 0xC4 JUMPI DUP1 PUSH4 0xF2FDE38B EQ PUSH2 0xBF JUMPI PUSH4 0xFF781BBF SUB PUSH2 0xE JUMPI PUSH2 0xD58 JUMP JUMPDEST PUSH2 0xC95 JUMP JUMPDEST PUSH2 0xC0E JUMP JUMPDEST PUSH2 0xBE5 JUMP JUMPDEST PUSH2 0xB8B JUMP JUMPDEST PUSH2 0xB62 JUMP JUMPDEST PUSH2 0xAEE JUMP JUMPDEST PUSH2 0x629 JUMP JUMPDEST PUSH2 0x4D1 JUMP JUMPDEST PUSH2 0x445 JUMP JUMPDEST PUSH2 0x3C1 JUMP JUMPDEST PUSH2 0x372 JUMP JUMPDEST PUSH2 0x2DE JUMP JUMPDEST PUSH2 0x1C5 JUMP JUMPDEST SWAP2 SWAP1 DUP3 MLOAD SWAP3 DUP4 DUP3 MSTORE PUSH1 0x0 JUMPDEST DUP5 DUP2 LT PUSH2 0x12C JUMPI POP POP DUP3 PUSH1 0x0 PUSH1 0x20 DUP1 SWAP5 SWAP6 DUP5 ADD ADD MSTORE PUSH1 0x1F DUP1 NOT SWAP2 ADD AND ADD ADD SWAP1 JUMP JUMPDEST PUSH1 0x20 DUP2 DUP4 ADD DUP2 ADD MLOAD DUP5 DUP4 ADD DUP3 ADD MSTORE ADD PUSH2 0x10B JUMP JUMPDEST PUSH1 0x20 DUP1 DUP3 MSTORE DUP3 MLOAD DUP3 DUP3 ADD MSTORE DUP3 ADD MLOAD PUSH1 0x40 DUP1 DUP4 ADD SWAP2 SWAP1 SWAP2 MSTORE DUP3 ADD MLOAD PUSH1 0x1 PUSH1 0x1 PUSH1 0xA0 SHL SUB AND PUSH1 0x60 DUP3 ADD MSTORE PUSH1 0x60 DUP3 ADD MLOAD PUSH1 0x1 PUSH1 0x1 PUSH1 0xA0 SHL SUB AND PUSH1 0x80 DUP3 ADD MSTORE PUSH1 0x80 DUP3 ADD MLOAD PUSH1 0xA0 DUP3 ADD MSTORE PUSH1 0xA0 DUP3 ADD MLOAD PUSH2 0x1A2 PUSH2 0x120 SWAP2 DUP3 PUSH1 0xC0 DUP6 ADD MSTORE PUSH2 0x140 DUP5 ADD SWAP1 PUSH2 0x100 JUMP JUMPDEST PUSH1 0xC0 DUP5 ADD MLOAD ISZERO ISZERO PUSH1 0xE0 DUP5 ADD MSTORE SWAP3 PUSH1 0xE0 DUP2 ADD MLOAD SWAP1 PUSH2 0x100 SWAP2 DUP3 DUP6 ADD MSTORE ADD MLOAD SWAP2 ADD MSTORE SWAP1 JUMP JUMPDEST CALLVALUE PUSH2 0x2CE JUMPI PUSH1 0x20 CALLDATASIZE PUSH1 0x3 NOT ADD SLT PUSH2 0x2CE JUMPI PUSH2 0x2CA PUSH1 0x40 MLOAD PUSH2 0x1E5 DUP2 PUSH2 0x99C JUMP JUMPDEST PUSH1 0x40 PUSH1 0x0 DUP1 DUP4 MSTORE DUP1 PUSH1 0x20 DUP5 ADD MSTORE DUP1 DUP3 DUP5 ADD MSTORE DUP1 PUSH1 0x60 DUP5 ADD MSTORE DUP1 PUSH1 0x80 DUP5 ADD MSTORE PUSH1 0x60 PUSH1 0xA0 DUP5 ADD MSTORE DUP1 PUSH1 0xC0 DUP5 ADD MSTORE DUP1 PUSH1 0xE0 DUP5 ADD MSTORE DUP1 PUSH2 0x100 DUP1 SWAP5 ADD MSTORE PUSH1 0x4 CALLDATALOAD DUP2 MSTORE PUSH1 0x3 PUSH1 0x20 MSTORE KECCAK256 SWAP1 PUSH1 0x8 PUSH2 0x234 PUSH2 0xDD9 JUMP JUMPDEST DUP4 SLOAD DUP2 MSTORE PUSH1 0x1 DUP5 ADD SLOAD PUSH1 0x20 DUP3 ADD MSTORE PUSH1 0x2 DUP5 ADD SLOAD PUSH1 0x1 PUSH1 0x1 PUSH1 0xA0 SHL SUB AND PUSH1 0x40 DUP3 ADD MSTORE SWAP3 PUSH1 0x3 DUP2 ADD SLOAD PUSH2 0x279 SWAP1 PUSH1 0x1 PUSH1 0x1 PUSH1 0xA0 SHL SUB AND JUMPDEST PUSH1 0x1 PUSH1 0x1 PUSH1 0xA0 SHL SUB AND PUSH1 0x60 DUP7 ADD MSTORE JUMP JUMPDEST PUSH1 0x4 DUP2 ADD SLOAD PUSH1 0x80 DUP6 ADD MSTORE PUSH2 0x28F PUSH1 0x5 DUP3 ADD PUSH2 0x9F4 JUMP JUMPDEST PUSH1 0xA0 DUP6 ADD MSTORE PUSH2 0x2AE PUSH2 0x2A5 PUSH1 0x6 DUP4 ADD SLOAD PUSH1 0xFF AND SWAP1 JUMP JUMPDEST ISZERO ISZERO PUSH1 0xC0 DUP7 ADD MSTORE JUMP JUMPDEST PUSH1 0x7 DUP2 ADD SLOAD PUSH1 0xE0 DUP6 ADD MSTORE ADD SLOAD SWAP1 DUP3 ADD MSTORE PUSH1 0x40 MLOAD SWAP2 DUP3 SWAP2 DUP3 PUSH2 0x140 JUMP JUMPDEST SUB SWAP1 RETURN JUMPDEST PUSH1 0x0 DUP1 REVERT JUMPDEST PUSH1 0x0 SWAP2 SUB SLT PUSH2 0x2CE JUMPI JUMP JUMPDEST CALLVALUE PUSH2 0x2CE JUMPI PUSH1 0x0 CALLDATASIZE PUSH1 0x3 NOT ADD SLT PUSH2 0x2CE JUMPI PUSH2 0x2F7 PUSH2 0xD81 JUMP JUMPDEST PUSH1 0x2 SLOAD PUSH1 0xFF DUP2 AND ISZERO PUSH2 0x336 JUMPI PUSH1 0xFF NOT AND PUSH1 0x2 SSTORE PUSH32 0x5DB9EE0A495BF2E6FF9C91A7834C1BA4FDD244A5E8AA4E537BD38AEAE4B073AA PUSH1 0x20 PUSH1 0x40 MLOAD CALLER DUP2 MSTORE LOG1 STOP JUMPDEST PUSH1 0x40 MLOAD PUSH3 0x461BCD PUSH1 0xE5 SHL DUP2 MSTORE PUSH1 0x20 PUSH1 0x4 DUP3 ADD MSTORE PUSH1 0x14 PUSH1 0x24 DUP3 ADD MSTORE PUSH20 0x14185D5CD8589B194E881B9BDD081C185D5CD959 PUSH1 0x62 SHL PUSH1 0x44 DUP3 ADD MSTORE PUSH1 0x64 SWAP1 REVERT JUMPDEST CALLVALUE PUSH2 0x2CE JUMPI PUSH1 0x0 CALLDATASIZE PUSH1 0x3 NOT ADD SLT PUSH2 0x2CE JUMPI PUSH1 0x20 PUSH1 0xFF PUSH1 0x2 SLOAD AND PUSH1 0x40 MLOAD SWAP1 ISZERO ISZERO DUP2 MSTORE RETURN JUMPDEST PUSH1 0x4 CALLDATALOAD SWAP1 PUSH1 0x1 PUSH1 0x1 PUSH1 0xA0 SHL SUB DUP3 AND DUP3 SUB PUSH2 0x2CE JUMPI JUMP JUMPDEST PUSH1 0x24 CALLDATALOAD SWAP1 PUSH1 0x1 PUSH1 0x1 PUSH1 0xA0 SHL SUB DUP3 AND DUP3 SUB PUSH2 0x2CE JUMPI JUMP JUMPDEST CALLVALUE PUSH2 0x2CE JUMPI PUSH1 0x20 CALLDATASIZE PUSH1 0x3 NOT ADD SLT PUSH2 0x2CE JUMPI PUSH2 0x3DA PUSH2 0x395 JUMP JUMPDEST PUSH2 0x3E2 PUSH2 0xD81 JUMP JUMPDEST PUSH1 0x1 PUSH1 0x1 PUSH1 0xA0 SHL SUB AND DUP1 ISZERO PUSH2 0x40E JUMPI PUSH12 0xFFFFFFFFFFFFFFFFFFFFFFFF PUSH1 0xA0 SHL PUSH1 0x5 SLOAD AND OR PUSH1 0x5 SSTORE PUSH1 0x0 DUP1 RETURN JUMPDEST PUSH1 0x40 MLOAD PUSH3 0x461BCD PUSH1 0xE5 SHL DUP2 MSTORE PUSH1 0x20 PUSH1 0x4 DUP3 ADD MSTORE PUSH1 0xF PUSH1 0x24 DUP3 ADD MSTORE PUSH15 0x24B73B30B634B2103932B630BCB2B9 PUSH1 0x89 SHL PUSH1 0x44 DUP3 ADD MSTORE PUSH1 0x64 SWAP1 REVERT JUMPDEST CALLVALUE PUSH2 0x2CE JUMPI PUSH1 0x0 DUP1 PUSH1 0x3 NOT CALLDATASIZE ADD SLT PUSH2 0x4A0 JUMPI PUSH2 0x45F PUSH2 0xD81 JUMP JUMPDEST DUP1 SLOAD PUSH1 0x1 PUSH1 0x1 PUSH1 0xA0 SHL SUB NOT DUP2 AND DUP3 SSTORE DUP2 SWAP1 PUSH1 0x1 PUSH1 0x1 PUSH1 0xA0 SHL SUB AND PUSH32 0x8BE0079C531659141344CD1FD0A4F28419497F9722A3DAAFE3B4186F6B6457E0 DUP3 DUP1 LOG3 DUP1 RETURN JUMPDEST DUP1 REVERT JUMPDEST SWAP2 DUP2 PUSH1 0x1F DUP5 ADD SLT ISZERO PUSH2 0x2CE JUMPI DUP3 CALLDATALOAD SWAP2 PUSH8 0xFFFFFFFFFFFFFFFF DUP4 GT PUSH2 0x2CE JUMPI PUSH1 0x20 DUP4 DUP2 DUP7 ADD SWAP6 ADD ADD GT PUSH2 0x2CE JUMPI JUMP JUMPDEST CALLVALUE PUSH2 0x2CE JUMPI PUSH1 0xA0 CALLDATASIZE PUSH1 0x3 NOT ADD SLT PUSH2 0x2CE JUMPI PUSH1 0x4 CALLDATALOAD PUSH2 0x4ED PUSH2 0x3AB JUMP JUMPDEST PUSH1 0x44 CALLDATALOAD PUSH1 0x64 CALLDATALOAD SWAP3 PUSH8 0xFFFFFFFFFFFFFFFF DUP5 GT PUSH2 0x2CE JUMPI PUSH2 0x5E0 PUSH2 0x5AC SWAP4 PUSH2 0x51B PUSH2 0x2CA SWAP7 CALLDATASIZE SWAP1 PUSH1 0x4 ADD PUSH2 0x4A3 JUMP JUMPDEST SWAP6 SWAP1 PUSH1 0x40 MLOAD PUSH1 0x20 DUP2 ADD SWAP1 PUSH2 0x57A DUP2 PUSH2 0x56C TIMESTAMP DUP12 DUP10 CALLER DUP14 DUP10 SWAP4 SWAP2 SWAP1 SWAP3 PUSH1 0x88 SWAP6 SWAP4 DUP6 MSTORE PUSH12 0xFFFFFFFFFFFFFFFFFFFFFFFF NOT DUP1 SWAP3 PUSH1 0x60 SHL AND PUSH1 0x20 DUP7 ADD MSTORE PUSH1 0x60 SHL AND PUSH1 0x34 DUP5 ADD MSTORE PUSH1 0x48 DUP4 ADD MSTORE PUSH1 0x68 DUP3 ADD MSTORE ADD SWAP1 JUMP JUMPDEST SUB PUSH1 0x1F NOT DUP2 ADD DUP4 MSTORE DUP3 PUSH2 0x9D2 JUMP JUMPDEST MLOAD SWAP1 KECCAK256 SWAP7 PUSH2 0x59F PUSH2 0x589 PUSH2 0xDD9 JUMP JUMPDEST DUP10 DUP2 MSTORE PUSH1 0x20 DUP2 ADD DUP9 SWAP1 MSTORE CALLER PUSH1 0x40 DUP3 ADD MSTORE SWAP5 PUSH2 0x269 JUMP JUMPDEST DUP7 PUSH1 0x80 DUP6 ADD MSTORE CALLDATASIZE SWAP2 PUSH2 0xE02 JUMP JUMPDEST PUSH1 0xA0 DUP3 ADD MSTORE PUSH1 0x0 PUSH1 0xC0 DUP3 ADD MSTORE TIMESTAMP PUSH1 0xE0 DUP3 ADD MSTORE PUSH1 0x84 CALLDATALOAD PUSH2 0x100 DUP3 ADD MSTORE PUSH2 0x5DB DUP6 PUSH1 0x0 MSTORE PUSH1 0x3 PUSH1 0x20 MSTORE PUSH1 0x40 PUSH1 0x0 KECCAK256 SWAP1 JUMP JUMPDEST PUSH2 0xF5C JUMP JUMPDEST DUP3 PUSH32 0xA23A57DC5EB67A50F2DAEDC010FC35F9D2BCEE06D0F5F8686FD0164891DFD76E PUSH1 0x40 MLOAD DUP1 PUSH2 0x616 CALLER SWAP7 DUP3 SWAP2 SWAP1 PUSH1 0x20 DUP4 ADD SWAP3 MSTORE JUMP JUMPDEST SUB SWAP1 LOG4 PUSH1 0x40 MLOAD SWAP1 DUP2 MSTORE SWAP1 DUP2 SWAP1 PUSH1 0x20 DUP3 ADD SWAP1 JUMP JUMPDEST CALLVALUE PUSH2 0x2CE JUMPI PUSH1 0x40 DUP1 PUSH1 0x3 NOT CALLDATASIZE ADD SLT PUSH2 0x2CE JUMPI PUSH1 0x4 SWAP1 DUP2 CALLDATALOAD PUSH1 0x24 CALLDATALOAD PUSH8 0xFFFFFFFFFFFFFFFF DUP2 GT PUSH2 0x2CE JUMPI PUSH2 0x65F SWAP1 CALLDATASIZE SWAP1 DUP6 ADD PUSH2 0x4A3 JUMP JUMPDEST SWAP2 SWAP1 SWAP4 PUSH1 0x2 PUSH1 0x1 SLOAD EQ PUSH2 0x909 JUMPI PUSH1 0x2 PUSH1 0x1 SSTORE PUSH2 0x679 PUSH2 0x126E JUMP JUMPDEST PUSH2 0x68D DUP3 PUSH1 0x0 MSTORE PUSH1 0x3 PUSH1 0x20 MSTORE PUSH1 0x40 PUSH1 0x0 KECCAK256 SWAP1 JUMP JUMPDEST SWAP5 DUP6 SLOAD DUP1 ISZERO ISZERO PUSH2 0x69C SWAP1 PUSH2 0x100F JUMP JUMPDEST PUSH1 0x6 DUP8 ADD SWAP3 DUP4 SLOAD PUSH2 0x6AD SWAP1 PUSH1 0xFF AND SWAP1 JUMP JUMPDEST ISZERO PUSH2 0x6B7 SWAP1 PUSH2 0x104F JUMP JUMPDEST PUSH1 0x8 DUP9 ADD SLOAD TIMESTAMP GT ISZERO PUSH2 0x6C8 SWAP1 PUSH2 0x109B JUMP JUMPDEST PUSH1 0x5 SLOAD PUSH1 0x1 PUSH1 0x1 PUSH1 0xA0 SHL SUB AND PUSH1 0x1 PUSH1 0x1 PUSH1 0xA0 SHL SUB AND CALLER EQ PUSH2 0x6E8 SWAP1 PUSH2 0x10D9 JUMP JUMPDEST PUSH2 0x6F4 PUSH1 0x41 DUP8 EQ PUSH2 0x1125 JUMP JUMPDEST PUSH1 0x1 DUP9 ADD SWAP4 DUP5 SLOAD SWAP9 PUSH1 0x3 DUP2 ADD SWAP8 DUP9 SLOAD PUSH2 0x712 SWAP1 PUSH1 0x1 DUP1 PUSH1 0xA0 SHL SUB AND SWAP1 JUMP JUMPDEST DUP3 DUP6 ADD DUP1 SLOAD DUP13 MLOAD PUSH1 0x20 DUP2 ADD SWAP9 DUP10 MSTORE PUSH1 0x40 DUP2 ADD SWAP15 SWAP1 SWAP15 MSTORE PUSH1 0x60 DUP4 DUP2 SHL PUSH12 0xFFFFFFFFFFFFFFFFFFFFFFFF NOT AND SWAP1 DUP16 ADD MSTORE PUSH1 0x74 DUP15 ADD DUP2 SWAP1 MSTORE CHAINID PUSH1 0x94 DUP16 ADD MSTORE SWAP13 SWAP2 SWAP8 SWAP1 SWAP7 SWAP1 SWAP2 SWAP1 DUP2 PUSH1 0xB4 DUP2 ADD SUB SWAP2 PUSH1 0x1F NOT SWAP3 DUP4 DUP2 ADD DUP3 MSTORE PUSH2 0x76F SWAP1 DUP3 PUSH2 0x9D2 JUMP JUMPDEST MLOAD SWAP1 KECCAK256 SWAP1 DUP13 MLOAD SWAP1 DUP2 PUSH1 0x20 DUP2 ADD SWAP4 PUSH2 0x7B0 SWAP1 DUP6 PUSH1 0x3C SWAP2 PUSH32 0x19457468657265756D205369676E6564204D6573736167653A0A333200000000 DUP3 MSTORE PUSH1 0x1C DUP3 ADD MSTORE ADD SWAP1 JUMP JUMPDEST SUB SWAP1 DUP2 ADD DUP3 MSTORE PUSH2 0x7C0 SWAP1 DUP3 PUSH2 0x9D2 JUMP JUMPDEST MLOAD SWAP1 KECCAK256 SWAP2 CALLDATASIZE SWAP1 PUSH2 0x7CF SWAP3 PUSH2 0xE02 JUMP JUMPDEST PUSH2 0x7D8 SWAP2 PUSH2 0x12B2 JUMP JUMPDEST PUSH1 0x2 SWAP1 SWAP2 ADD SLOAD PUSH1 0x1 PUSH1 0x1 PUSH1 0xA0 SHL SUB AND PUSH1 0x1 PUSH1 0x1 PUSH1 0xA0 SHL SUB AND PUSH1 0x1 PUSH1 0x1 PUSH1 0xA0 SHL SUB SWAP6 DUP7 SWAP3 SWAP1 SWAP2 PUSH2 0x809 SWAP2 DUP5 AND EQ PUSH2 0x1171 JUMP JUMPDEST DUP11 SELFBALANCE LT ISZERO PUSH2 0x816 SWAP1 PUSH2 0x11B1 JUMP JUMPDEST PUSH1 0x0 DUP1 DUP1 SWAP13 DUP2 SWAP5 DUP3 SWAP5 AND GAS CALL PUSH2 0x82A PUSH2 0x11F4 JUMP JUMPDEST POP PUSH2 0x834 SWAP1 PUSH2 0x1224 JUMP JUMPDEST DUP1 SLOAD PUSH1 0xFF NOT AND PUSH1 0x1 OR SWAP1 SSTORE DUP1 SLOAD DUP5 SLOAD DUP10 SWAP2 PUSH1 0x1 PUSH1 0x1 PUSH1 0xA0 SHL SUB AND DUP1 EXTCODESIZE ISZERO PUSH2 0x905 JUMPI DUP10 MLOAD PUSH4 0x47CA8A8B PUSH1 0xE0 SHL DUP2 MSTORE SWAP4 DUP5 ADD SWAP2 DUP3 MSTORE DUP4 SWAP2 DUP3 SWAP1 DUP5 SWAP1 DUP3 SWAP1 PUSH1 0x20 ADD SUB SWAP3 GAS CALL DUP1 ISZERO PUSH2 0x900 JUMPI PUSH32 0x96E4DB812578F5AB89327D345D351D8D3EE58B65746AE8EEF5E3FF0F6B93BBF7 SWAP5 PUSH2 0x8D8 SWAP3 PUSH2 0x8BB SWAP3 PUSH2 0x8E7 JUMPI JUMPDEST POP SLOAD SWAP7 SLOAD PUSH1 0x1 PUSH1 0x1 PUSH1 0xA0 SHL SUB AND SWAP1 JUMP JUMPDEST SWAP2 SLOAD SWAP7 MLOAD SWAP7 DUP8 MSTORE PUSH3 0x186A0 PUSH1 0x20 DUP9 ADD MSTORE SWAP2 AND SWAP5 SWAP1 DUP2 SWAP1 PUSH1 0x40 DUP3 ADD SWAP1 JUMP JUMPDEST SUB SWAP1 LOG4 PUSH2 0x8E4 PUSH1 0x1 DUP1 SSTORE JUMP JUMPDEST DUP1 RETURN JUMPDEST DUP1 PUSH2 0x8F4 PUSH2 0x8FA SWAP3 PUSH2 0x9BE JUMP JUMPDEST DUP1 PUSH2 0x2D3 JUMP JUMPDEST CODESIZE PUSH2 0x8AB JUMP JUMPDEST PUSH2 0x1262 JUMP JUMPDEST DUP3 DUP1 REVERT JUMPDEST PUSH1 0x64 SWAP1 PUSH1 0x20 DUP6 MLOAD SWAP2 PUSH3 0x461BCD PUSH1 0xE5 SHL DUP4 MSTORE DUP3 ADD MSTORE PUSH1 0x1F PUSH1 0x24 DUP3 ADD MSTORE PUSH32 0x5265656E7472616E637947756172643A207265656E7472616E742063616C6C00 PUSH1 0x44 DUP3 ADD MSTORE REVERT JUMPDEST SWAP1 PUSH1 0x1 DUP3 DUP2 SHR SWAP3 AND DUP1 ISZERO PUSH2 0x97C JUMPI JUMPDEST PUSH1 0x20 DUP4 LT EQ PUSH2 0x966 JUMPI JUMP JUMPDEST PUSH4 0x4E487B71 PUSH1 0xE0 SHL PUSH1 0x0 MSTORE PUSH1 0x22 PUSH1 0x4 MSTORE PUSH1 0x24 PUSH1 0x0 REVERT JUMPDEST SWAP2 PUSH1 0x7F AND SWAP2 PUSH2 0x95B JUMP JUMPDEST PUSH4 0x4E487B71 PUSH1 0xE0 SHL PUSH1 0x0 MSTORE PUSH1 0x41 PUSH1 0x4 MSTORE PUSH1 0x24 PUSH1 0x0 REVERT JUMPDEST PUSH2 0x120 DUP2 ADD SWAP1 DUP2 LT PUSH8 0xFFFFFFFFFFFFFFFF DUP3 GT OR PUSH2 0x9B9 JUMPI PUSH1 0x40 MSTORE JUMP JUMPDEST PUSH2 0x986 JUMP JUMPDEST PUSH8 0xFFFFFFFFFFFFFFFF DUP2 GT PUSH2 0x9B9 JUMPI PUSH1 0x40 MSTORE JUMP JUMPDEST SWAP1 PUSH1 0x1F DUP1 NOT SWAP2 ADD AND DUP2 ADD SWAP1 DUP2 LT PUSH8 0xFFFFFFFFFFFFFFFF DUP3 GT OR PUSH2 0x9B9 JUMPI PUSH1 0x40 MSTORE JUMP JUMPDEST SWAP1 PUSH1 0x40 MLOAD SWAP2 DUP3 PUSH1 0x0 DUP3 SLOAD SWAP3 PUSH2 0xA08 DUP5 PUSH2 0x94C JUMP JUMPDEST SWAP1 DUP2 DUP5 MSTORE PUSH1 0x1 SWAP5 DUP6 DUP2 AND SWAP1 DUP2 PUSH1 0x0 EQ PUSH2 0xA77 JUMPI POP PUSH1 0x1 EQ PUSH2 0xA34 JUMPI JUMPDEST POP POP PUSH2 0xA32 SWAP3 POP SUB DUP4 PUSH2 0x9D2 JUMP JUMPDEST JUMP JUMPDEST SWAP1 SWAP4 SWAP2 POP PUSH1 0x0 MSTORE PUSH1 0x20 SWAP1 DUP2 PUSH1 0x0 KECCAK256 SWAP4 PUSH1 0x0 SWAP2 JUMPDEST DUP2 DUP4 LT PUSH2 0xA5F JUMPI POP POP PUSH2 0xA32 SWAP4 POP DUP3 ADD ADD CODESIZE DUP1 PUSH2 0xA24 JUMP JUMPDEST DUP6 SLOAD DUP9 DUP5 ADD DUP6 ADD MSTORE SWAP5 DUP6 ADD SWAP5 DUP8 SWAP5 POP SWAP2 DUP4 ADD SWAP2 PUSH2 0xA47 JUMP JUMPDEST SWAP2 POP POP PUSH2 0xA32 SWAP5 POP PUSH1 0x20 SWAP3 POP PUSH1 0xFF NOT AND DUP3 DUP5 ADD MSTORE ISZERO ISZERO PUSH1 0x5 SHL DUP3 ADD ADD CODESIZE DUP1 PUSH2 0xA24 JUMP JUMPDEST SWAP6 SWAP3 SWAP1 SWAP4 PUSH2 0x100 SWAP8 SWAP11 SWAP10 SWAP9 SWAP6 SWAP3 PUSH2 0xADD SWAP6 DUP9 MSTORE PUSH1 0x20 DUP9 ADD MSTORE PUSH1 0x1 DUP1 PUSH1 0xA0 SHL SUB DUP1 SWAP3 AND PUSH1 0x40 DUP9 ADD MSTORE AND PUSH1 0x60 DUP7 ADD MSTORE PUSH1 0x80 DUP6 ADD MSTORE PUSH2 0x120 DUP1 PUSH1 0xA0 DUP7 ADD MSTORE DUP5 ADD SWAP1 PUSH2 0x100 JUMP JUMPDEST SWAP6 ISZERO ISZERO PUSH1 0xC0 DUP4 ADD MSTORE PUSH1 0xE0 DUP3 ADD MSTORE ADD MSTORE JUMP JUMPDEST CALLVALUE PUSH2 0x2CE JUMPI PUSH1 0x20 CALLDATASIZE PUSH1 0x3 NOT ADD SLT PUSH2 0x2CE JUMPI PUSH1 0x4 CALLDATALOAD PUSH1 0x0 MSTORE PUSH1 0x3 PUSH1 0x20 MSTORE PUSH1 0x40 PUSH1 0x0 KECCAK256 DUP1 SLOAD PUSH2 0x2CA PUSH1 0x1 DUP4 ADD SLOAD SWAP3 PUSH1 0x1 DUP1 PUSH1 0xA0 SHL SUB SWAP1 DUP2 PUSH1 0x2 DUP3 ADD SLOAD AND SWAP2 PUSH1 0x3 DUP3 ADD SLOAD AND PUSH1 0x4 DUP3 ADD SLOAD PUSH2 0xB41 PUSH1 0x5 DUP5 ADD PUSH2 0x9F4 JUMP JUMPDEST SWAP1 PUSH1 0xFF PUSH1 0x6 DUP6 ADD SLOAD AND SWAP3 PUSH1 0x8 PUSH1 0x7 DUP7 ADD SLOAD SWAP6 ADD SLOAD SWAP6 PUSH1 0x40 MLOAD SWAP10 DUP11 SWAP10 DUP11 PUSH2 0xA9A JUMP JUMPDEST CALLVALUE PUSH2 0x2CE JUMPI PUSH1 0x0 CALLDATASIZE PUSH1 0x3 NOT ADD SLT PUSH2 0x2CE JUMPI PUSH1 0x5 SLOAD PUSH1 0x40 MLOAD PUSH1 0x1 PUSH1 0x1 PUSH1 0xA0 SHL SUB SWAP1 SWAP2 AND DUP2 MSTORE PUSH1 0x20 SWAP1 RETURN JUMPDEST CALLVALUE PUSH2 0x2CE JUMPI PUSH1 0x0 CALLDATASIZE PUSH1 0x3 NOT ADD SLT PUSH2 0x2CE JUMPI PUSH2 0xBA4 PUSH2 0xD81 JUMP JUMPDEST PUSH2 0xBAC PUSH2 0x126E JUMP JUMPDEST PUSH1 0x1 PUSH1 0xFF NOT PUSH1 0x2 SLOAD AND OR PUSH1 0x2 SSTORE PUSH32 0x62E78CEA01BEE320CD4E420270B5EA74000D11B0C9F74754EBDBFC544B05A258 PUSH1 0x20 PUSH1 0x40 MLOAD CALLER DUP2 MSTORE LOG1 STOP JUMPDEST CALLVALUE PUSH2 0x2CE JUMPI PUSH1 0x0 CALLDATASIZE PUSH1 0x3 NOT ADD SLT PUSH2 0x2CE JUMPI PUSH1 0x0 SLOAD PUSH1 0x40 MLOAD PUSH1 0x1 PUSH1 0x1 PUSH1 0xA0 SHL SUB SWAP1 SWAP2 AND DUP2 MSTORE PUSH1 0x20 SWAP1 RETURN JUMPDEST CALLVALUE PUSH2 0x2CE JUMPI PUSH1 0x40 CALLDATASIZE PUSH1 0x3 NOT ADD SLT PUSH2 0x2CE JUMPI PUSH2 0xC27 PUSH2 0x395 JUMP JUMPDEST PUSH2 0xC2F PUSH2 0xD81 JUMP JUMPDEST PUSH1 0x1 PUSH1 0x1 PUSH1 0xA0 SHL SUB AND DUP1 ISZERO PUSH2 0xC5C JUMPI PUSH2 0x8E4 PUSH1 0x0 DUP1 DUP1 DUP1 DUP1 SWAP6 PUSH1 0x24 CALLDATALOAD SWAP1 GAS CALL PUSH2 0xC56 PUSH2 0x11F4 JUMP JUMPDEST POP PUSH2 0x1224 JUMP JUMPDEST PUSH1 0x40 MLOAD PUSH3 0x461BCD PUSH1 0xE5 SHL DUP2 MSTORE PUSH1 0x20 PUSH1 0x4 DUP3 ADD MSTORE PUSH1 0x11 PUSH1 0x24 DUP3 ADD MSTORE PUSH17 0x125B9D985B1A59081C9958DA5C1A595B9D PUSH1 0x7A SHL PUSH1 0x44 DUP3 ADD MSTORE PUSH1 0x64 SWAP1 REVERT JUMPDEST CALLVALUE PUSH2 0x2CE JUMPI PUSH1 0x20 CALLDATASIZE PUSH1 0x3 NOT ADD SLT PUSH2 0x2CE JUMPI PUSH2 0xCAE PUSH2 0x395 JUMP JUMPDEST PUSH2 0xCB6 PUSH2 0xD81 JUMP JUMPDEST PUSH1 0x1 PUSH1 0x1 PUSH1 0xA0 SHL SUB SWAP1 DUP2 AND DUP1 ISZERO PUSH2 0xD04 JUMPI PUSH1 0x0 DUP1 SLOAD PUSH1 0x1 PUSH1 0x1 PUSH1 0xA0 SHL SUB NOT DUP2 AND DUP4 OR DUP3 SSTORE SWAP1 SWAP3 AND PUSH32 0x8BE0079C531659141344CD1FD0A4F28419497F9722A3DAAFE3B4186F6B6457E0 DUP4 DUP1 LOG3 DUP1 RETURN JUMPDEST PUSH1 0x40 MLOAD PUSH3 0x461BCD PUSH1 0xE5 SHL DUP2 MSTORE PUSH1 0x20 PUSH1 0x4 DUP3 ADD MSTORE PUSH1 0x26 PUSH1 0x24 DUP3 ADD MSTORE PUSH32 0x4F776E61626C653A206E6577206F776E657220697320746865207A65726F2061 PUSH1 0x44 DUP3 ADD MSTORE PUSH6 0x646472657373 PUSH1 0xD0 SHL PUSH1 0x64 DUP3 ADD MSTORE PUSH1 0x84 SWAP1 REVERT JUMPDEST CALLVALUE PUSH2 0x2CE JUMPI PUSH1 0x0 CALLDATASIZE PUSH1 0x3 NOT ADD SLT PUSH2 0x2CE JUMPI PUSH1 0x4 SLOAD PUSH1 0x40 MLOAD PUSH1 0x1 PUSH1 0x1 PUSH1 0xA0 SHL SUB SWAP1 SWAP2 AND DUP2 MSTORE PUSH1 0x20 SWAP1 RETURN JUMPDEST PUSH1 0x0 SLOAD PUSH1 0x1 PUSH1 0x1 PUSH1 0xA0 SHL SUB AND CALLER SUB PUSH2 0xD95 JUMPI JUMP JUMPDEST PUSH1 0x64 PUSH1 0x40 MLOAD PUSH3 0x461BCD PUSH1 0xE5 SHL DUP2 MSTORE PUSH1 0x20 PUSH1 0x4 DUP3 ADD MSTORE PUSH1 0x20 PUSH1 0x24 DUP3 ADD MSTORE PUSH32 0x4F776E61626C653A2063616C6C6572206973206E6F7420746865206F776E6572 PUSH1 0x44 DUP3 ADD MSTORE REVERT JUMPDEST PUSH1 0x40 MLOAD SWAP1 PUSH2 0xA32 DUP3 PUSH2 0x99C JUMP JUMPDEST PUSH8 0xFFFFFFFFFFFFFFFF DUP2 GT PUSH2 0x9B9 JUMPI PUSH1 0x1F ADD PUSH1 0x1F NOT AND PUSH1 0x20 ADD SWAP1 JUMP JUMPDEST SWAP3 SWAP2 SWAP3 PUSH2 0xE0E DUP3 PUSH2 0xDE6 JUMP JUMPDEST SWAP2 PUSH2 0xE1C PUSH1 0x40 MLOAD SWAP4 DUP5 PUSH2 0x9D2 JUMP JUMPDEST DUP3 SWAP5 DUP2 DUP5 MSTORE DUP2 DUP4 ADD GT PUSH2 0x2CE JUMPI DUP3 DUP2 PUSH1 0x20 SWAP4 DUP5 PUSH1 0x0 SWAP7 ADD CALLDATACOPY ADD ADD MSTORE JUMP JUMPDEST SWAP1 PUSH1 0x1F DUP2 GT PUSH2 0xE47 JUMPI POP POP POP JUMP JUMPDEST PUSH1 0x0 SWAP2 DUP3 MSTORE PUSH1 0x20 DUP3 KECCAK256 SWAP1 PUSH1 0x20 PUSH1 0x1F DUP6 ADD PUSH1 0x5 SHR DUP4 ADD SWAP5 LT PUSH2 0xE83 JUMPI JUMPDEST PUSH1 0x1F ADD PUSH1 0x5 SHR ADD SWAP2 JUMPDEST DUP3 DUP2 LT PUSH2 0xE78 JUMPI POP POP POP JUMP JUMPDEST DUP2 DUP2 SSTORE PUSH1 0x1 ADD PUSH2 0xE6C JUMP JUMPDEST SWAP1 SWAP3 POP DUP3 SWAP1 PUSH2 0xE63 JUMP JUMPDEST SWAP2 SWAP1 SWAP2 DUP3 MLOAD PUSH8 0xFFFFFFFFFFFFFFFF DUP2 GT PUSH2 0x9B9 JUMPI PUSH2 0xEB5 DUP2 PUSH2 0xEAF DUP5 SLOAD PUSH2 0x94C JUMP JUMPDEST DUP5 PUSH2 0xE39 JUMP JUMPDEST PUSH1 0x20 DUP1 PUSH1 0x1F DUP4 GT PUSH1 0x1 EQ PUSH2 0xEF1 JUMPI POP DUP2 SWAP3 SWAP4 SWAP5 PUSH1 0x0 SWAP3 PUSH2 0xEE6 JUMPI JUMPDEST POP POP DUP2 PUSH1 0x1 SHL SWAP2 PUSH1 0x0 NOT SWAP1 PUSH1 0x3 SHL SHR NOT AND OR SWAP1 SSTORE JUMP JUMPDEST ADD MLOAD SWAP1 POP CODESIZE DUP1 PUSH2 0xED0 JUMP JUMPDEST SWAP1 PUSH1 0x1F NOT DUP4 AND SWAP6 PUSH2 0xF07 DUP6 PUSH1 0x0 MSTORE PUSH1 0x20 PUSH1 0x0 KECCAK256 SWAP1 JUMP JUMPDEST SWAP3 PUSH1 0x0 SWAP1 JUMPDEST DUP9 DUP3 LT PUSH2 0xF44 JUMPI POP POP DUP4 PUSH1 0x1 SWAP6 SWAP7 SWAP8 LT PUSH2 0xF2B JUMPI JUMPDEST POP POP POP DUP2 SHL ADD SWAP1 SSTORE JUMP JUMPDEST ADD MLOAD PUSH1 0x0 NOT PUSH1 0xF8 DUP5 PUSH1 0x3 SHL AND SHR NOT AND SWAP1 SSTORE CODESIZE DUP1 DUP1 PUSH2 0xF21 JUMP JUMPDEST DUP1 PUSH1 0x1 DUP6 SWAP7 DUP3 SWAP5 SWAP7 DUP7 ADD MLOAD DUP2 SSTORE ADD SWAP6 ADD SWAP4 ADD SWAP1 PUSH2 0xF0C JUMP JUMPDEST DUP2 MLOAD DUP2 SSTORE PUSH1 0x20 DUP3 ADD MLOAD PUSH1 0x1 DUP3 ADD SSTORE PUSH1 0x40 DUP3 ADD MLOAD PUSH1 0x2 DUP3 ADD DUP1 SLOAD PUSH1 0x1 PUSH1 0x1 PUSH1 0xA0 SHL SUB NOT AND PUSH1 0x1 PUSH1 0x1 PUSH1 0xA0 SHL SUB SWAP1 SWAP3 AND SWAP2 SWAP1 SWAP2 OR SWAP1 SSTORE SWAP1 PUSH1 0x8 SWAP1 PUSH2 0x100 SWAP1 PUSH1 0x60 DUP2 ADD MLOAD PUSH1 0x3 DUP6 ADD DUP1 SLOAD PUSH1 0x1 PUSH1 0x1 PUSH1 0xA0 SHL SUB NOT AND PUSH1 0x1 PUSH1 0x1 PUSH1 0xA0 SHL SUB SWAP1 SWAP3 AND SWAP2 SWAP1 SWAP2 OR SWAP1 SSTORE PUSH1 0x80 DUP2 ADD MLOAD PUSH1 0x4 DUP6 ADD SSTORE PUSH2 0xFD9 PUSH1 0xA0 DUP3 ADD MLOAD PUSH1 0x5 DUP7 ADD PUSH2 0xE8D JUMP JUMPDEST PUSH2 0xFFE PUSH2 0xFE9 PUSH1 0xC0 DUP4 ADD MLOAD ISZERO ISZERO SWAP1 JUMP JUMPDEST PUSH1 0x6 DUP7 ADD SWAP1 PUSH1 0xFF DUP1 NOT DUP4 SLOAD AND SWAP2 ISZERO ISZERO AND OR SWAP1 SSTORE JUMP JUMPDEST PUSH1 0xE0 DUP2 ADD MLOAD PUSH1 0x7 DUP6 ADD SSTORE ADD MLOAD SWAP2 ADD SSTORE JUMP JUMPDEST ISZERO PUSH2 0x1016 JUMPI JUMP JUMPDEST PUSH1 0x40 MLOAD PUSH3 0x461BCD PUSH1 0xE5 SHL DUP2 MSTORE PUSH1 0x20 PUSH1 0x4 DUP3 ADD MSTORE PUSH1 0x11 PUSH1 0x24 DUP3 ADD MSTORE PUSH17 0x14D95CDCDA5BDB881B9BDD08199BDD5B99 PUSH1 0x7A SHL PUSH1 0x44 DUP3 ADD MSTORE PUSH1 0x64 SWAP1 REVERT JUMPDEST ISZERO PUSH2 0x1056 JUMPI JUMP JUMPDEST PUSH1 0x40 MLOAD PUSH3 0x461BCD PUSH1 0xE5 SHL DUP2 MSTORE PUSH1 0x20 PUSH1 0x4 DUP3 ADD MSTORE PUSH1 0x18 PUSH1 0x24 DUP3 ADD MSTORE PUSH32 0x5061796D656E7420616C72656164792065786563757465640000000000000000 PUSH1 0x44 DUP3 ADD MSTORE PUSH1 0x64 SWAP1 REVERT JUMPDEST ISZERO PUSH2 0x10A2 JUMPI JUMP JUMPDEST PUSH1 0x40 MLOAD PUSH3 0x461BCD PUSH1 0xE5 SHL DUP2 MSTORE PUSH1 0x20 PUSH1 0x4 DUP3 ADD MSTORE PUSH1 0xF PUSH1 0x24 DUP3 ADD MSTORE PUSH15 0x14D95CDCDA5BDB88195E1C1A5C9959 PUSH1 0x8A SHL PUSH1 0x44 DUP3 ADD MSTORE PUSH1 0x64 SWAP1 REVERT JUMPDEST ISZERO PUSH2 0x10E0 JUMPI JUMP JUMPDEST PUSH1 0x40 MLOAD PUSH3 0x461BCD PUSH1 0xE5 SHL DUP2 MSTORE PUSH1 0x20 PUSH1 0x4 DUP3 ADD MSTORE PUSH1 0x18 PUSH1 0x24 DUP3 ADD MSTORE PUSH32 0x4F6E6C792072656C617965722063616E20657865637574650000000000000000 PUSH1 0x44 DUP3 ADD MSTORE PUSH1 0x64 SWAP1 REVERT JUMPDEST ISZERO PUSH2 0x112C JUMPI JUMP JUMPDEST PUSH1 0x40 MLOAD PUSH3 0x461BCD PUSH1 0xE5 SHL DUP2 MSTORE PUSH1 0x20 PUSH1 0x4 DUP3 ADD MSTORE PUSH1 0x18 PUSH1 0x24 DUP3 ADD MSTORE PUSH32 0x496E76616C6964207369676E6174757265206C656E6774680000000000000000 PUSH1 0x44 DUP3 ADD MSTORE PUSH1 0x64 SWAP1 REVERT JUMPDEST ISZERO PUSH2 0x1178 JUMPI JUMP JUMPDEST PUSH1 0x40 MLOAD PUSH3 0x461BCD PUSH1 0xE5 SHL DUP2 MSTORE PUSH1 0x20 PUSH1 0x4 DUP3 ADD MSTORE PUSH1 0x11 PUSH1 0x24 DUP3 ADD MSTORE PUSH17 0x496E76616C6964207369676E6174757265 PUSH1 0x78 SHL PUSH1 0x44 DUP3 ADD MSTORE PUSH1 0x64 SWAP1 REVERT JUMPDEST ISZERO PUSH2 0x11B8 JUMPI JUMP JUMPDEST PUSH1 0x40 MLOAD PUSH3 0x461BCD PUSH1 0xE5 SHL DUP2 MSTORE PUSH1 0x20 PUSH1 0x4 DUP3 ADD MSTORE PUSH1 0x14 PUSH1 0x24 DUP3 ADD MSTORE PUSH20 0x496E73756666696369656E742062616C616E6365 PUSH1 0x60 SHL PUSH1 0x44 DUP3 ADD MSTORE PUSH1 0x64 SWAP1 REVERT JUMPDEST RETURNDATASIZE ISZERO PUSH2 0x121F JUMPI RETURNDATASIZE SWAP1 PUSH2 0x1205 DUP3 PUSH2 0xDE6 JUMP JUMPDEST SWAP2 PUSH2 0x1213 PUSH1 0x40 MLOAD SWAP4 DUP5 PUSH2 0x9D2 JUMP JUMPDEST DUP3 MSTORE RETURNDATASIZE PUSH1 0x0 PUSH1 0x20 DUP5 ADD RETURNDATACOPY JUMP JUMPDEST PUSH1 0x60 SWAP1 JUMP JUMPDEST ISZERO PUSH2 0x122B JUMPI JUMP JUMPDEST PUSH1 0x40 MLOAD PUSH3 0x461BCD PUSH1 0xE5 SHL DUP2 MSTORE PUSH1 0x20 PUSH1 0x4 DUP3 ADD MSTORE PUSH1 0xF PUSH1 0x24 DUP3 ADD MSTORE PUSH15 0x151C985B9CD9995C8819985A5B1959 PUSH1 0x8A SHL PUSH1 0x44 DUP3 ADD MSTORE PUSH1 0x64 SWAP1 REVERT JUMPDEST PUSH1 0x40 MLOAD RETURNDATASIZE PUSH1 0x0 DUP3 RETURNDATACOPY RETURNDATASIZE SWAP1 REVERT JUMPDEST PUSH1 0xFF PUSH1 0x2 SLOAD AND PUSH2 0x127A JUMPI JUMP JUMPDEST PUSH1 0x40 MLOAD PUSH3 0x461BCD PUSH1 0xE5 SHL DUP2 MSTORE PUSH1 0x20 PUSH1 0x4 DUP3 ADD MSTORE PUSH1 0x10 PUSH1 0x24 DUP3 ADD MSTORE PUSH16 0x14185D5CD8589B194E881C185D5CD959 PUSH1 0x82 SHL PUSH1 0x44 DUP3 ADD MSTORE PUSH1 0x64 SWAP1 REVERT JUMPDEST SWAP1 PUSH1 0x0 SWAP1 PUSH1 0x20 DUP2 ADD MLOAD SWAP2 PUSH1 0x60 PUSH1 0x40 DUP4 ADD MLOAD SWAP3 ADD MLOAD SWAP1 BYTE SWAP2 PUSH1 0x1B DUP4 LT PUSH2 0x133B JUMPI JUMPDEST SWAP3 PUSH2 0x131C DUP4 SWAP3 PUSH1 0x20 SWAP6 PUSH2 0x12F6 PUSH1 0xFF PUSH1 0x0 SWAP8 AND PUSH1 0x1B DUP2 EQ SWAP1 DUP2 ISZERO PUSH2 0x1330 JUMPI JUMPDEST POP PUSH2 0x1171 JUMP JUMPDEST PUSH1 0x40 MLOAD SWAP5 DUP6 SWAP5 DUP6 SWAP1 SWAP5 SWAP4 SWAP3 PUSH1 0xFF PUSH1 0x60 SWAP4 PUSH1 0x80 DUP5 ADD SWAP8 DUP5 MSTORE AND PUSH1 0x20 DUP4 ADD MSTORE PUSH1 0x40 DUP3 ADD MSTORE ADD MSTORE JUMP JUMPDEST DUP4 DUP1 MSTORE SUB SWAP1 PUSH1 0x1 GAS STATICCALL ISZERO PUSH2 0x900 JUMPI PUSH1 0x0 MLOAD SWAP1 JUMP JUMPDEST PUSH1 0x1C SWAP2 POP EQ CODESIZE PUSH2 0x12F0 JUMP JUMPDEST SWAP1 SWAP2 PUSH1 0x1B ADD SWAP3 PUSH1 0xFF DUP5 GT PUSH2 0x1351 JUMPI SWAP3 SWAP2 SWAP1 PUSH2 0x12D2 JUMP JUMPDEST PUSH4 0x4E487B71 PUSH1 0xE0 SHL PUSH1 0x0 MSTORE PUSH1 0x11 PUSH1 0x4 MSTORE PUSH1 0x24 PUSH1 0x0 REVERT INVALID LOG2 PUSH5 0x6970667358 0x22 SLT KECCAK256 SWAP11 0xB1 0xBA 0xDB 0xB3 0x5E 0xA7 CALLDATACOPY NOT PC 0xF8 0xD6 CALLDATASIZE 0xCE 0xBB 0xC4 0xA7 SWAP12 0xD2 0xCA CALLVALUE 0xB9 0xF DUP14 LOG2 0x28 0xD8 0x23 PUSH21 0xCE1AF964736F6C6343000814003300000000000000 "},"methodIdentifiers":{"createSession(bytes32,address,uint256,bytes,uint256)":"71df5a2b","emergencyWithdraw(address,uint256)":"95ccea67","executePayment(bytes32,bytes)":"724f16de","getSession(bytes32)":"39b240bd","owner()":"8da5cb5b","pause()":"8456cb59","paused()":"5c975abb","paymentRouter()":"ff781bbf","relayer()":"8406c079","renounceOwnership()":"715018a6","sessions(bytes32)":"7dbd2832","setRelayer(address)":"6548e9bc","transferOwnership(address)":"f2fde38b","unpause()":"3f4ba83a"}}}}}