{"contracts/BudgetPool.sol":{"BudgetPool":{"abi":[{"inputs":[{"internalType":"address","name":"_settlementToken","type":"address"},{"internalType":"address","name":"_platformTreasury","type":"address"},{"internalType":"uint16","name":"_platformFeeBps","type":"uint16"}],"stateMutability":"nonpayable","type":"constructor"},{"anonymous":false,"inputs":[{"indexed":true,"internalType":"bytes32","name":"milestoneId","type":"bytes32"},{"indexed":false,"internalType":"uint256","name":"totalAmount","type":"uint256"},{"indexed":false,"internalType":"uint256","name":"participantCount","type":"uint256"}],"name":"FundsReleased","type":"event"},{"anonymous":false,"inputs":[{"indexed":true,"internalType":"bytes32","name":"milestoneId","type":"bytes32"},{"indexed":true,"internalType":"address","name":"approver","type":"address"},{"indexed":false,"internalType":"uint8","name":"qualityScore","type":"uint8"}],"name":"MilestoneApproved","type":"event"},{"anonymous":false,"inputs":[{"indexed":true,"internalType":"bytes32","name":"milestoneId","type":"bytes32"},{"indexed":true,"internalType":"bytes32","name":"poolId","type":"bytes32"},{"indexed":false,"internalType":"string","name":"title","type":"string"},{"indexed":false,"internalType":"uint256","name":"budgetAmount","type":"uint256"}],"name":"MilestoneCreated","type":"event"},{"anonymous":false,"inputs":[{"indexed":true,"internalType":"bytes32","name":"milestoneId","type":"bytes32"},{"indexed":true,"internalType":"address","name":"approver","type":"address"},{"indexed":false,"internalType":"string","name":"reason","type":"string"}],"name":"MilestoneRejected","type":"event"},{"anonymous":false,"inputs":[{"indexed":true,"internalType":"bytes32","name":"milestoneId","type":"bytes32"},{"indexed":false,"internalType":"enum BudgetPool.MilestoneStatus","name":"oldStatus","type":"uint8"},{"indexed":false,"internalType":"enum BudgetPool.MilestoneStatus","name":"newStatus","type":"uint8"}],"name":"MilestoneStatusChanged","type":"event"},{"anonymous":false,"inputs":[{"indexed":true,"internalType":"bytes32","name":"milestoneId","type":"bytes32"},{"indexed":false,"internalType":"bytes32","name":"deliverableHash","type":"bytes32"},{"indexed":true,"internalType":"address","name":"submitter","type":"address"}],"name":"MilestoneSubmitted","type":"event"},{"anonymous":false,"inputs":[{"indexed":true,"internalType":"address","name":"operator","type":"address"},{"indexed":false,"internalType":"bool","name":"authorized","type":"bool"}],"name":"OperatorUpdated","type":"event"},{"anonymous":false,"inputs":[{"indexed":true,"internalType":"address","name":"previousOwner","type":"address"},{"indexed":true,"internalType":"address","name":"newOwner","type":"address"}],"name":"OwnershipTransferred","type":"event"},{"anonymous":false,"inputs":[{"indexed":true,"internalType":"bytes32","name":"milestoneId","type":"bytes32"},{"indexed":true,"internalType":"address","name":"participant","type":"address"},{"indexed":false,"internalType":"uint256","name":"amount","type":"uint256"}],"name":"ParticipantPaid","type":"event"},{"anonymous":false,"inputs":[{"indexed":false,"internalType":"address","name":"account","type":"address"}],"name":"Paused","type":"event"},{"anonymous":false,"inputs":[{"indexed":true,"internalType":"bytes32","name":"poolId","type":"bytes32"},{"indexed":true,"internalType":"address","name":"owner","type":"address"},{"indexed":false,"internalType":"string","name":"name","type":"string"},{"indexed":false,"internalType":"uint256","name":"totalBudget","type":"uint256"},{"indexed":false,"internalType":"address","name":"token","type":"address"}],"name":"PoolCreated","type":"event"},{"anonymous":false,"inputs":[{"indexed":true,"internalType":"bytes32","name":"poolId","type":"bytes32"},{"indexed":true,"internalType":"address","name":"funder","type":"address"},{"indexed":false,"internalType":"uint256","name":"amount","type":"uint256"}],"name":"PoolFunded","type":"event"},{"anonymous":false,"inputs":[{"indexed":true,"internalType":"bytes32","name":"poolId","type":"bytes32"},{"indexed":false,"internalType":"enum BudgetPool.PoolStatus","name":"oldStatus","type":"uint8"},{"indexed":false,"internalType":"enum BudgetPool.PoolStatus","name":"newStatus","type":"uint8"}],"name":"PoolStatusChanged","type":"event"},{"anonymous":false,"inputs":[{"indexed":false,"internalType":"address","name":"account","type":"address"}],"name":"Unpaused","type":"event"},{"inputs":[],"name":"BASIS_POINTS","outputs":[{"internalType":"uint16","name":"","type":"uint16"}],"stateMutability":"view","type":"function"},{"inputs":[],"name":"MAX_MILESTONES","outputs":[{"internalType":"uint256","name":"","type":"uint256"}],"stateMutability":"view","type":"function"},{"inputs":[],"name":"MIN_POOL_AMOUNT","outputs":[{"internalType":"uint256","name":"","type":"uint256"}],"stateMutability":"view","type":"function"},{"inputs":[{"internalType":"bytes32","name":"_poolId","type":"bytes32"}],"name":"activatePool","outputs":[],"stateMutability":"nonpayable","type":"function"},{"inputs":[{"internalType":"bytes32","name":"_poolId","type":"bytes32"},{"internalType":"address","name":"_approver","type":"address"}],"name":"addApprover","outputs":[],"stateMutability":"nonpayable","type":"function"},{"inputs":[{"internalType":"uint256","name":"","type":"uint256"}],"name":"allPoolIds","outputs":[{"internalType":"bytes32","name":"","type":"bytes32"}],"stateMutability":"view","type":"function"},{"inputs":[{"internalType":"bytes32","name":"_milestoneId","type":"bytes32"},{"internalType":"uint8","name":"_qualityScore","type":"uint8"}],"name":"approveMilestone","outputs":[],"stateMutability":"nonpayable","type":"function"},{"inputs":[],"name":"claim","outputs":[],"stateMutability":"nonpayable","type":"function"},{"inputs":[{"internalType":"bytes32","name":"_poolId","type":"bytes32"},{"internalType":"string","name":"_title","type":"string"},{"internalType":"string","name":"_description","type":"string"},{"internalType":"uint16","name":"_percentOfPool","type":"uint16"},{"internalType":"address[]","name":"_participants","type":"address[]"},{"internalType":"uint16[]","name":"_shares","type":"uint16[]"}],"name":"createMilestone","outputs":[{"internalType":"bytes32","name":"milestoneId","type":"bytes32"}],"stateMutability":"nonpayable","type":"function"},{"inputs":[{"internalType":"string","name":"_name","type":"string"},{"internalType":"string","name":"_description","type":"string"},{"internalType":"uint256","name":"_totalBudget","type":"uint256"},{"internalType":"uint256","name":"_deadline","type":"uint256"},{"components":[{"internalType":"uint8","name":"minQualityScore","type":"uint8"},{"internalType":"bool","name":"requiresApproval","type":"bool"},{"internalType":"uint256","name":"autoReleaseDelay","type":"uint256"}],"internalType":"struct BudgetPool.QualityGate","name":"_qualityGate","type":"tuple"}],"name":"createPool","outputs":[{"internalType":"bytes32","name":"poolId","type":"bytes32"}],"stateMutability":"nonpayable","type":"function"},{"inputs":[{"internalType":"bytes32","name":"_poolId","type":"bytes32"},{"internalType":"uint256","name":"_amount","type":"uint256"}],"name":"fundPool","outputs":[],"stateMutability":"nonpayable","type":"function"},{"inputs":[{"internalType":"bytes32","name":"_milestoneId","type":"bytes32"}],"name":"getMilestone","outputs":[{"components":[{"internalType":"bytes32","name":"milestoneId","type":"bytes32"},{"internalType":"bytes32","name":"poolId","type":"bytes32"},{"internalType":"string","name":"title","type":"string"},{"internalType":"string","name":"description","type":"string"},{"internalType":"uint256","name":"budgetAmount","type":"uint256"},{"internalType":"uint16","name":"percentOfPool","type":"uint16"},{"internalType":"enum BudgetPool.MilestoneStatus","name":"status","type":"uint8"},{"internalType":"address[]","name":"participants","type":"address[]"},{"internalType":"uint16[]","name":"participantShares","type":"uint16[]"},{"internalType":"bytes32","name":"deliverableHash","type":"bytes32"},{"internalType":"uint256","name":"submittedAt","type":"uint256"},{"internalType":"uint256","name":"approvedAt","type":"uint256"},{"internalType":"address","name":"approver","type":"address"},{"internalType":"uint8","name":"qualityScore","type":"uint8"}],"internalType":"struct BudgetPool.Milestone","name":"","type":"tuple"}],"stateMutability":"view","type":"function"},{"inputs":[{"internalType":"address","name":"_owner","type":"address"}],"name":"getOwnerPools","outputs":[{"internalType":"bytes32[]","name":"","type":"bytes32[]"}],"stateMutability":"view","type":"function"},{"inputs":[{"internalType":"bytes32","name":"_poolId","type":"bytes32"},{"internalType":"address","name":"_participant","type":"address"}],"name":"getParticipant","outputs":[{"components":[{"internalType":"address","name":"wallet","type":"address"},{"internalType":"uint256","name":"totalEarned","type":"uint256"},{"internalType":"uint256","name":"pendingAmount","type":"uint256"},{"internalType":"uint256","name":"claimedAmount","type":"uint256"}],"internalType":"struct BudgetPool.Participant","name":"","type":"tuple"}],"stateMutability":"view","type":"function"},{"inputs":[{"internalType":"address","name":"_account","type":"address"}],"name":"getPendingBalance","outputs":[{"internalType":"uint256","name":"","type":"uint256"}],"stateMutability":"view","type":"function"},{"inputs":[{"internalType":"bytes32","name":"_poolId","type":"bytes32"}],"name":"getPool","outputs":[{"components":[{"internalType":"bytes32","name":"poolId","type":"bytes32"},{"internalType":"address","name":"owner","type":"address"},{"internalType":"string","name":"name","type":"string"},{"internalType":"string","name":"description","type":"string"},{"internalType":"uint256","name":"totalBudget","type":"uint256"},{"internalType":"uint256","name":"fundedAmount","type":"uint256"},{"internalType":"uint256","name":"reservedAmount","type":"uint256"},{"internalType":"uint256","name":"releasedAmount","type":"uint256"},{"internalType":"address","name":"token","type":"address"},{"internalType":"enum BudgetPool.PoolStatus","name":"status","type":"uint8"},{"internalType":"uint256","name":"createdAt","type":"uint256"},{"internalType":"uint256","name":"deadline","type":"uint256"}],"internalType":"struct BudgetPool.Pool","name":"","type":"tuple"}],"stateMutability":"view","type":"function"},{"inputs":[{"internalType":"bytes32","name":"_poolId","type":"bytes32"}],"name":"getPoolMilestones","outputs":[{"internalType":"bytes32[]","name":"","type":"bytes32[]"}],"stateMutability":"view","type":"function"},{"inputs":[{"internalType":"bytes32","name":"_poolId","type":"bytes32"}],"name":"getQualityGate","outputs":[{"components":[{"internalType":"uint8","name":"minQualityScore","type":"uint8"},{"internalType":"bool","name":"requiresApproval","type":"bool"},{"internalType":"uint256","name":"autoReleaseDelay","type":"uint256"}],"internalType":"struct BudgetPool.QualityGate","name":"","type":"tuple"}],"stateMutability":"view","type":"function"},{"inputs":[{"internalType":"bytes32","name":"","type":"bytes32"}],"name":"milestones","outputs":[{"internalType":"bytes32","name":"milestoneId","type":"bytes32"},{"internalType":"bytes32","name":"poolId","type":"bytes32"},{"internalType":"string","name":"title","type":"string"},{"internalType":"string","name":"description","type":"string"},{"internalType":"uint256","name":"budgetAmount","type":"uint256"},{"internalType":"uint16","name":"percentOfPool","type":"uint16"},{"internalType":"enum BudgetPool.MilestoneStatus","name":"status","type":"uint8"},{"internalType":"bytes32","name":"deliverableHash","type":"bytes32"},{"internalType":"uint256","name":"submittedAt","type":"uint256"},{"internalType":"uint256","name":"approvedAt","type":"uint256"},{"internalType":"address","name":"approver","type":"address"},{"internalType":"uint8","name":"qualityScore","type":"uint8"}],"stateMutability":"view","type":"function"},{"inputs":[{"internalType":"address","name":"","type":"address"}],"name":"operators","outputs":[{"internalType":"bool","name":"","type":"bool"}],"stateMutability":"view","type":"function"},{"inputs":[],"name":"owner","outputs":[{"internalType":"address","name":"","type":"address"}],"stateMutability":"view","type":"function"},{"inputs":[{"internalType":"address","name":"","type":"address"},{"internalType":"uint256","name":"","type":"uint256"}],"name":"ownerPools","outputs":[{"internalType":"bytes32","name":"","type":"bytes32"}],"stateMutability":"view","type":"function"},{"inputs":[],"name":"pause","outputs":[],"stateMutability":"nonpayable","type":"function"},{"inputs":[],"name":"paused","outputs":[{"internalType":"bool","name":"","type":"bool"}],"stateMutability":"view","type":"function"},{"inputs":[{"internalType":"address","name":"","type":"address"}],"name":"pendingBalances","outputs":[{"internalType":"uint256","name":"","type":"uint256"}],"stateMutability":"view","type":"function"},{"inputs":[],"name":"platformFeeBps","outputs":[{"internalType":"uint16","name":"","type":"uint16"}],"stateMutability":"view","type":"function"},{"inputs":[],"name":"platformTreasury","outputs":[{"internalType":"address","name":"","type":"address"}],"stateMutability":"view","type":"function"},{"inputs":[{"internalType":"bytes32","name":"","type":"bytes32"},{"internalType":"address","name":"","type":"address"}],"name":"poolApprovers","outputs":[{"internalType":"bool","name":"","type":"bool"}],"stateMutability":"view","type":"function"},{"inputs":[{"internalType":"bytes32","name":"","type":"bytes32"},{"internalType":"uint256","name":"","type":"uint256"}],"name":"poolMilestones","outputs":[{"internalType":"bytes32","name":"","type":"bytes32"}],"stateMutability":"view","type":"function"},{"inputs":[{"internalType":"bytes32","name":"","type":"bytes32"},{"internalType":"address","name":"","type":"address"}],"name":"poolParticipants","outputs":[{"internalType":"address","name":"wallet","type":"address"},{"internalType":"uint256","name":"totalEarned","type":"uint256"},{"internalType":"uint256","name":"pendingAmount","type":"uint256"},{"internalType":"uint256","name":"claimedAmount","type":"uint256"}],"stateMutability":"view","type":"function"},{"inputs":[{"internalType":"bytes32","name":"","type":"bytes32"}],"name":"poolQualityGates","outputs":[{"internalType":"uint8","name":"minQualityScore","type":"uint8"},{"internalType":"bool","name":"requiresApproval","type":"bool"},{"internalType":"uint256","name":"autoReleaseDelay","type":"uint256"}],"stateMutability":"view","type":"function"},{"inputs":[{"internalType":"bytes32","name":"","type":"bytes32"}],"name":"pools","outputs":[{"internalType":"bytes32","name":"poolId","type":"bytes32"},{"internalType":"address","name":"owner","type":"address"},{"internalType":"string","name":"name","type":"string"},{"internalType":"string","name":"description","type":"string"},{"internalType":"uint256","name":"totalBudget","type":"uint256"},{"internalType":"uint256","name":"fundedAmount","type":"uint256"},{"internalType":"uint256","name":"reservedAmount","type":"uint256"},{"internalType":"uint256","name":"releasedAmount","type":"uint256"},{"internalType":"address","name":"token","type":"address"},{"internalType":"enum BudgetPool.PoolStatus","name":"status","type":"uint8"},{"internalType":"uint256","name":"createdAt","type":"uint256"},{"internalType":"uint256","name":"deadline","type":"uint256"}],"stateMutability":"view","type":"function"},{"inputs":[{"internalType":"bytes32","name":"_milestoneId","type":"bytes32"},{"internalType":"string","name":"_reason","type":"string"}],"name":"rejectMilestone","outputs":[],"stateMutability":"nonpayable","type":"function"},{"inputs":[{"internalType":"bytes32","name":"_milestoneId","type":"bytes32"}],"name":"releaseMilestoneFunds","outputs":[],"stateMutability":"nonpayable","type":"function"},{"inputs":[{"internalType":"bytes32","name":"_poolId","type":"bytes32"},{"internalType":"address","name":"_approver","type":"address"}],"name":"removeApprover","outputs":[],"stateMutability":"nonpayable","type":"function"},{"inputs":[],"name":"renounceOwnership","outputs":[],"stateMutability":"nonpayable","type":"function"},{"inputs":[{"internalType":"address","name":"_operator","type":"address"},{"internalType":"bool","name":"_authorized","type":"bool"}],"name":"setOperator","outputs":[],"stateMutability":"nonpayable","type":"function"},{"inputs":[{"internalType":"uint16","name":"_feeBps","type":"uint16"}],"name":"setPlatformFee","outputs":[],"stateMutability":"nonpayable","type":"function"},{"inputs":[{"internalType":"address","name":"_treasury","type":"address"}],"name":"setPlatformTreasury","outputs":[],"stateMutability":"nonpayable","type":"function"},{"inputs":[],"name":"settlementToken","outputs":[{"internalType":"contract IERC20","name":"","type":"address"}],"stateMutability":"view","type":"function"},{"inputs":[{"internalType":"bytes32","name":"_milestoneId","type":"bytes32"}],"name":"startMilestone","outputs":[],"stateMutability":"nonpayable","type":"function"},{"inputs":[{"internalType":"bytes32","name":"_milestoneId","type":"bytes32"},{"internalType":"bytes32","name":"_deliverableHash","type":"bytes32"}],"name":"submitMilestone","outputs":[],"stateMutability":"nonpayable","type":"function"},{"inputs":[{"internalType":"address","name":"newOwner","type":"address"}],"name":"transferOwnership","outputs":[],"stateMutability":"nonpayable","type":"function"},{"inputs":[],"name":"unpause","outputs":[],"stateMutability":"nonpayable","type":"function"}],"evm":{"bytecode":{"linkReferences":{},"object":"608034620001ce57601f62003a8038819003918201601f191683019291906001600160401b03841183851017620001d3578160609284926040968752833981010312620001ce576200005181620001e9565b826200006060208401620001e9565b9201519161ffff831691828403620001ce5760008054336001600160a01b03198216811783558751946001600160a01b039390928416907f8be0079c531659141344cd1fd0a4f28419497f9722a3daafe3b4186f6b6457e09080a36001805560025493828416156200019c57501692831562000165576101f41062000132576001600160a81b031990911660089190911b610100600160a81b031617600255600380546001600160b01b0319169190911760a09290921b61ffff60a01b16919091179055516138819081620001ff8239f35b845162461bcd60e51b815260206004820152600c60248201526b08ccaca40e8dede40d0d2ced60a31b6044820152606490fd5b855162461bcd60e51b815260206004820152601060248201526f496e76616c696420747265617375727960801b6044820152606490fd5b62461bcd60e51b815260206004820152600d60248201526c24b73b30b634b2103a37b5b2b760991b6044820152606490fd5b600080fd5b634e487b7160e01b600052604160045260246000fd5b51906001600160a01b0382168203620001ce5756fe6080604052600436101561001257600080fd5b60003560e01c80630506043714612f0b5780630967cc3d14612e8857806313e7c9d814612e4957806317ab06e114612e2b57806320cfff3a14612dde57806322dcd13e14612db95780632646b18e14612d4c5780633f4ba83a14612cb85780634c05abeb14612c9c5780634e71d92d14612c0657806350428089146129d457806351d550d214610590578063558a7297146129555780635c975abb146129325780635cbc742c146128ac5780636785ce09146127f85780636a53ad4f146127c75780636b72a7e8146121c85780636c73817614611a0d578063715018a6146119b457806373dfe0da146118825780637518aa32146113dc5780637b9e618d146113af5780637cd86d601461132f5780638456cb591461129c5780638da5cb5b146112735780639c57edde14610e565780639de9aaf414610d69578063b5217bb414610c7f578063b5809d1b14610c07578063b9aeade514610b9d578063babab62c14610a2a578063bdcae3d8146109e3578063d276be961461081a578063d6b2018b146106d5578063d6e4183a1461067d578063e138818c14610654578063e1f1c4a714610637578063e3698c0a146105ca578063ecdae41b14610590578063f2fde38b146104cc578063f6c00927146102d0578063f81a30b0146102565763fcb72a9c1461020057600080fd5b34610251576020366003190112610251576004356006548110156102515760209060066000527ff652222313e28459528d920b65115c16c04f3efc82aaedc97be59f3f377c0d3f0154604051908152f35b600080fd5b34610251576020806003193601126102515760043560005260088152604060002090604051908181845491828152019360005281600020916000905b8282106102b9576102b5856102a981890382613266565b6040519182918261333a565b0390f35b835486529485019460019384019390910190610292565b346102515760203660031901126102515760006101606040516102f28161324a565b828152826020820152606060408201526060808201528260808201528260a08201528260c08201528260e0820152826101008201528261012082015282610140820152015260043560005260046020526040600020604051906103548261324a565b8054825260018101546001600160a01b0316602083015261037760028201613287565b604083015261038860038201613287565b606083015260048101546080830152600581015460a0830152600681015460c0830152600781015460e083015260ff600882015460018060a01b03811661010085015260a01c169060058210156104b657600a91610120840152600981015461014084015201546101608201526040518091602082528051602083015260018060a01b03602082015116604083015261016061044e610438604084015161018060608701526101a0860190613114565b6060840151858203601f19016080870152613114565b91608081015160a085015260a081015160c085015260c081015160e085015260e081015161010085015260018060a01b03610100820151166101208501526104a061012082015161014086019061332d565b6101408101518285015201516101808301520390f35b634e487b7160e01b600052602160045260246000fd5b34610251576020366003190112610251576104e56130ba565b6104ed613375565b6001600160a01b0390811690811561053c57600054826001600160601b0360a01b821617600055167f8be0079c531659141344cd1fd0a4f28419497f9722a3daafe3b4186f6b6457e0600080a3005b60405162461bcd60e51b815260206004820152602660248201527f4f776e61626c653a206e6577206f776e657220697320746865207a65726f206160448201526564647265737360d01b6064820152608490fd5b34610251576020366003190112610251576001600160a01b036105b16130ba565b16600052600b6020526020604060002054604051908152f35b346102515760403660031901126102515760806105e56130d0565b600435600052600a602052604060002060018060a01b03809216600052602052604060002090815416906001810154906003600282015491015491604051938452602084015260408301526060820152f35b346102515760003660031901126102515760206040516127108152f35b34610251576000366003190112610251576003546040516001600160a01b039091168152602090f35b34610251576040366003190112610251576106966130ba565b6001600160a01b0316600090815260056020526040902080546024359190821015610251576020916106c7916130fc565b90546040519160031b1c8152f35b34610251576040366003190112610251576004356024359080600052602060078152604060002060ff600582015460101c1660068110156104b6576001036107e35761072133826137d1565b156107ac5790818460087fe096a2e780162cc5cd31b73254b580d98b7a47aeb7d6b5df78ccb39960fad2f994015560094291015582600052600781528260008051602061382c833981519152604060ff61079a600583600020018054906202000062ff0000198316179055835192839160101c16613154565b600285820152a26040519384523393a3005b60405162461bcd60e51b815260048101839052600f60248201526e139bdd081c185c9d1a58da5c185b9d608a1b6044820152606490fd5b60405162461bcd60e51b815260048101839052600f60248201526e4e6f7420696e2070726f677265737360881b6044820152606490fd5b34610251576020806003193601126102515760043590816000526007815260406000206001810154600052600482526040600020908054156109a85760ff600883015460a01c1660058110156104b6576002036109715760ff600582015460101c1660068110156104b65761093b576108949033906137d1565b908115610924575b50156108ef57604060ff600160008051602061382c8339815191529385600052600781526108e9600585600020018054906201000062ff0000198316179055855194859160101c16613154565b820152a2005b6064906040519062461bcd60e51b82526004820152600e60248201526d139bdd08185d5d1a1bdc9a5e995960921b6044820152fd5b600101546001600160a01b0316331490508361089c565b60405162461bcd60e51b815260048101849052600e60248201526d496e76616c69642073746174757360901b6044820152606490fd5b60405162461bcd60e51b815260048101849052600f60248201526e506f6f6c206e6f742061637469766560881b6044820152606490fd5b60405162461bcd60e51b8152600481018490526013602482015272135a5b195cdd1bdb99481b9bdd08199bdd5b99606a1b6044820152606490fd5b34610251576020366003190112610251576004356000526009602052606060406000206001815491015460ff60405192818116845260081c16151560208301526040820152f35b34610251576040366003190112610251576004356024356001600160401b03811161025157610a5d903690600401613161565b826000939293526020926007845260016040600020015460005260048452610aa760018060a01b0380600160406000200154163314908115610b81575b8115610b73575b5061370b565b826000526007845260406000209160ff600584015460101c1660068110156104b6577f3247d451f8d302d0c5a27d09a7af2bf8bf96bb4322235717f2b75737b00c446593610af96002600b9314613757565b01336001600160601b0360a01b82541617905583600052600785528360008051602061382c833981519152604060ff610b51600583600020018054906204000062ff0000198316179055835192839160101c16613154565b600489820152a2610b6e6040519283928784523397840191613419565b0390a3005b905060005416331486610aa1565b600c8752604060008181203382528952205460ff169150610a9a565b3461025157604036600319011261025157600435610bb96130d0565b9080600052600460205260018060a01b0390610be08260016040600020015416331461369d565b600052600c60205260406000209116600052602052604060002060ff198154169055600080f35b3461025157602080600319360112610251576001600160a01b03610c296130ba565b1660005260058152604060002090604051908181845491828152019360005281600020916000905b828210610c68576102b5856102a981890382613266565b835486529485019460019384019390910190610c51565b3461025157602036600319011261025157600435600052600460205260406000208054600160a01b60019003806001840154169260028101610cc090613287565b90610ccd60038201613287565b60048201549360058301546006840154600785015491600886015494600987015496600a0154976040519b8c9b8c5260208c01526101808060408d01528b01610d1591613114565b8a810360608c0152610d2691613114565b9760808a015260a089015260c088015260e0870152811661010086015261012085019060a01c60ff1690610d599161332d565b6101408401526101608301520390f35b346102515760203660031901126102515760043560005260076020526020604060002080549060ff6001820154610da260028401613287565b92610daf60038201613287565b93600482015494610e276005840154610e08600886015493610dfa600988015496600b600a8a0154990154996040519e8f9e8f908152015260408d61018091829101528d0190613114565b908b820360608d0152613114565b9760808a015261ffff811660a08a01528660c08a019160101c16613154565b60e08701526101008601526101208501526001600160a01b03811661014085015260a01c166101608301520390f35b3461025157602036600319011261025157610e6f613454565b600435600052600760205260406000206001810154600052600460205260406000206009602052604060002060ff600584015460101c1660068110156104b65760030361123f5760010154806111e8575b5060048201549160035492612710610edf61ffff8660a01c16836136f8565b0493610eeb858361343a565b94806111c5575b505060005b600683015481101561102357610f1081600685016130fc565b9054600785015460039290921b1c6001600160a01b0316919081101561100d576110089160078501600052612710610f5e61ffff60206000208560041c015460f08660041b161c16896136f8565b0481600052600b6020526040600020610f78828254613447565b90556001860154600052600a806020526040600020836000526020526002604060002001610fa7838254613447565b905560018701546000526020526040600020826000526020526001604060002001610fd3828254613447565b90556040519081527f5e7dd207a3f24ba1bb9151a151d025be6612aaaccb576d7067e8bdf6db0b48c5602060043592a36136da565b610ef7565b634e487b7160e01b600052603260045260246000fd5b509160069060078101611037858254613447565b90550161104583825461343a565b9055600435600052600760205260ff61107f60056040600020018054906205000062ff000019831617905560405192839160101c16613154565b6005602082015260008051602061382c833981519152604060043592a2600181810154600081815260086020526040812080549493915b85811061116f575b505060069350611105575b50015460405191825260208201527f8e25e132959ea22b5719cab8c807d75b76e91da52a2af91bd58df325fa6f5381604060043592a260018055005b60008181526004602052604090819020600801805460ff60a01b198116600360a01b1790915581517feed224251ff614714290287b931e052c4450c4615267685e4c60ce9d673d4d7f929161116190829060a01c60ff1661332d565b60036020820152a2836110c9565b61117981836130fc565b90549060031b1c600052600760205260ff60056040600020015460101c1660068110156104b6576005036111b5576111b0906136da565b6110b6565b50505060069250600085806110be565b6002546111e1926001600160a01b039081169160081c16613793565b8480610ef2565b6111f690600a840154613447565b42106112025782610ec0565b60405162461bcd60e51b815260206004820152601560248201527414995b19585cd94819195b185e481b9bdd081b595d605a1b6044820152606490fd5b60405162461bcd60e51b815260206004820152600c60248201526b139bdd08185c1c1c9bdd995960a21b6044820152606490fd5b34610251576000366003190112610251576000546040516001600160a01b039091168152602090f35b34610251576000366003190112610251576112b5613375565b60025460ff81166112f75760019060ff1916176002557f62e78cea01bee320cd4e420270b5ea74000d11b0c9f74754ebdbfc544b05a2586020604051338152a1005b60405162461bcd60e51b815260206004820152601060248201526f14185d5cd8589b194e881c185d5cd95960821b6044820152606490fd5b34610251576020366003190112610251576113486130ba565b611350613375565b6001600160a01b03168015611377576001600160601b0360a01b6003541617600355600080f35b60405162461bcd60e51b815260206004820152601060248201526f496e76616c696420747265617375727960801b6044820152606490fd5b346102515760003660031901126102515760025460405160089190911c6001600160a01b03168152602090f35b346102515760e0366003190112610251576004356001600160401b0381116102515761140c903690600401613161565b6024356001600160401b0381116102515761142b903690600401613161565b909160443591606036608319011261025157620f4240831061184c574260643511156118145760065460405161148c60748260208101943360601b8652878b6034840137878201904260348301526054820152036054810184520182613266565b5190209384600052600460205260406000209185835560018301336001600160601b0360a01b8254161790556001600160401b03841161169d576114d360028401546131be565b601f81116117df575b50836000601f821160011461177157600091611766575b508460011b906000198660031b1c19161760028401555b60038301916001600160401b03821161169d57819061152984546131be565b601f8111611729575b50600090601f83116001146116be576000926116b3575b50508160011b916000199060031b1c19161790555b826004820155600254906008810160018060a01b03809360081c166affffffffffffffffffffff60a81b825416179055426009820155600a606435910155836000526009602052604060002060843560ff81168091036102515781549060a4358015158091036102515761ff009060081b169161ffff191617178155600160c4359101553360005260056020526115f98460406000206133e4565b60065491600160401b83101561169d57600183018060065583101561100d576020956116857f245989bfcb89a8e90c2aad204c9ab83bbac0f277372dfea13cbfd55e9114061d9387809660066000527ff652222313e28459528d920b65115c16c04f3efc82aaedc97be59f3f377c0d3f015560025460081c169160405193606085526060850191613419565b948783015260408201528033940390a3604051908152f35b634e487b7160e01b600052604160045260246000fd5b013590508880611549565b909150601f198316918460005260206000209260005b81811061171157509084600195949392106116f7575b505050811b01905561155e565b0135600019600384901b60f8161c191690558880806116ea565b919360206001819287870135815501950192016116d4565b61175690856000526020600020601f850160051c8101916020861061175c575b601f0160051c01906133cd565b89611532565b9091508190611749565b9050870135886114f3565b90506002840160005260206000209060005b601f19871681106117c7575085601f198116106117ad575b5050600184811b01600284015561150a565b880135600019600387901b60f8161c19169055878061179b565b9091602060018192858d013581550193019101611783565b61180e90600285016000526020600020601f870160051c8101916020881061175c57601f0160051c01906133cd565b876114dc565b60405162461bcd60e51b815260206004820152601060248201526f496e76616c696420646561646c696e6560801b6044820152606490fd5b60405162461bcd60e51b815260206004820152600e60248201526d42756467657420746f6f206c6f7760901b6044820152606490fd5b3461025157602080600319360112610251576004359081600052600481526118bb60018060a01b0360016040600020015416331461369d565b816000526004815260ff60086040600020015460a01c1660058110156104b6576001036119835781600052600881526040600020541561194f57604060ff60027feed224251ff614714290287b931e052c4450c4615267685e4c60ce9d673d4d7f9385600052600481526108e960088560002001805490600160a11b8660a01b198316179055855194859160a01c1661332d565b6064906040519062461bcd60e51b82526004820152600d60248201526c4e6f206d696c6573746f6e657360981b6044820152fd5b6064906040519062461bcd60e51b82526004820152600a602482015269139bdd08199d5b99195960b21b6044820152fd5b34610251576000366003190112610251576119cd613375565b600080546001600160a01b0319811682556001600160a01b03167f8be0079c531659141344cd1fd0a4f28419497f9722a3daafe3b4186f6b6457e08280a3005b346102515760c0366003190112610251576024356001600160401b03811161025157611a3d903690600401613161565b906044356001600160401b03811161025157611a5d903690600401613161565b90926064359261ffff84168403610251576084356001600160401b03811161025157611a8d90369060040161318e565b9060a4356001600160401b03811161025157611aad90369060040161318e565b916004356000526004602052611ad460018060a01b0360016040600020015416331461369d565b600435600052600460205260406000209360ff600886015460a01c1660058110156104b65780159081156121bd575b5015612180576004356000526008602052601460406000205410156121455783810361210e5761271061ffff8a16116120d7576000805b858110612092575061ffff612710911603612054576004356000526008602052604060002054604051611b97608082602081019460043586528c8c60408401378c8201904260408301526060820152036060810184520182613266565b51902098612710611bb061ffff831660048901546136f8565b04988a600052600760205260406000209b8b8d558c60016004359101556001600160401b038a1161169d578c8a611bea60028301546131be565b601f811161201e575b50505060008d8b601f8111600114611fb05760029192600091611fa5575b5060001960038e901b1c191660018d901b179101555b6001600160401b03821161169d578c8291611c4560038301546131be565b601f8111611f70575b50600091601f8411600114611f025750600092611ef7575b50508160011b916000199060031b1c19161760038c01555b8860048c015561ffff60058c01911662ffffff198254161790556001600160401b03811161169d57600160401b811161169d5760068a01918254828455808310611ed9575b50916000526020600020916000905b828210611eb457505050506001600160401b03821161169d57600160401b821161169d576007908189015483838b0155808410611e58575b50970160005260206000209060005b8160041c8110611e0b5750600f198116808203611dac575b60208888817f0ece253303648e985fbb085ce4251be0194ad59bb1b95a022d47a6a0153445648a611d978b60068c60043560005260088a52611d778760406000206133e4565b01611d83878254613447565b905560405192604084526040840191613419565b938682015280600435940390a3604051908152f35b9760009860005b8184038110611dd55750505060041c0195909555602094611d97826006611d31565b9091996020611e01600192611de98e6136e9565b9085851b60031b9161ffff809116831b921b19161790565b9b01929101611db3565b6000805b60108110611e24575083820155600101611d19565b99906020611e4f8c600193611e38866136e9565b91851b60031b9161ffff809116831b921b19161790565b92019a01611e0f565b611e8c90838b01600052600f602060002091601e8760011b1680611e92575b500160041c810190600f860160041c016133cd565b89611d0a565b6000199081848a0160041c8601019182549160200360031b1c1690558d611e77565b8035916001600160a01b03831683036102515760206001920192818601550190611cd2565b611ef1908460005283602060002091820191016133cd565b8b611cc3565b013590508d80611c66565b600301600090815260208120909450915b601f1984168510611f58576001945083601f19811610611f3e575b505050811b0160038c0155611c7e565b0135600019600384901b60f8161c191690558d8080611f2e565b81810135835560209485019460019093019201611f13565b611f9f90600384016000526020600020601f860160051c8101916020871061175c57601f0160051c01906133cd565b8f611c4e565b90508b013538611c11565b5060020160005260206000209060005b8b601f198e1682106120065750508b601f19811610611fec575b505060018a811b0160028e0155611c27565b8a013560001960038d901b60f8161c191690558d80611fda565b60018394602093948493013581550193019101611fc0565b600261204c93016000526020600020906020601f840160051c8301931061175c57601f0160051c01906133cd565b8c8a8f611bf3565b60405162461bcd60e51b8152602060048201526016602482015275536861726573206d75737420657175616c203130302560501b6044820152606490fd5b9061ffff806120a58460051b88016136e9565b1691160161ffff81116120c1576120bc90916136da565b611b3a565b634e487b7160e01b600052601160045260246000fd5b60405162461bcd60e51b815260206004820152600f60248201526e125b9d985b1a59081c195c98d95b9d608a1b6044820152606490fd5b60405162461bcd60e51b815260206004820152600f60248201526e098cadccee8d040dad2e6dac2e8c6d608b1b6044820152606490fd5b60405162461bcd60e51b8152602060048201526013602482015272546f6f206d616e79206d696c6573746f6e657360681b6044820152606490fd5b60405162461bcd60e51b8152602060048201526015602482015274506f6f6c206e6f7420636f6e666967757261626c6560581b6044820152606490fd5b60019150148b611b03565b346102515760203660031901126102515760006101a06040516121ea8161322e565b828152826020820152606060408201526060808201528260808201528260a08201528260c0820152606060e082015260606101008201528261012082015282610140820152826101608201528261018082015201526004356000526007602052604060002060405161225b8161322e565b815481526001820154602082015261227560028301613287565b604082015261228660038301613287565b606082015260048201546080820152600582015461ffff811660a0830152600660ff8260101c1610156104b65760ff9060101c1660c08201526040518081600685016020815493848152019060005260206000209260005b8181106127a55750506122f392500382613266565b60e0820152604051918260206007830154948581520193600783016000526020600020906000915b81600f8401106126c357838760ff9694600b96946123bb9454918181106126ae575b818110612696575b81811061267f575b818110612667575b81811061264f575b818110612637575b81811061261f575b818110612607575b8181106125ef575b8181106125d7575b8181106125bf575b8181106125a7575b81811061258f575b818110612577575b81811061255f575b10612551575b500382613266565b61010085015260088101546101208501526009810154610140850152600a81015461016085015201546001600160a01b03811661018084015260a01c166101a082015260408051602080825283518183015283015181830152908201516101c0606083015261244990612433906101e0840190613114565b6060840151838203601f19016080850152613114565b608083015160a083015261ffff60a08401511660c083015261247360c084015160e0840190613154565b60e083015190601f19838203016101008401526020808351928381520192019060005b8181106125325750505061010083015190601f19838203016101208401526020808351928381520192019060005b8181106125185750505060ff6101a0846101208596015161014086015261014081015161016086015261016081015161018086015260018060a01b0361018082015116828601520151166101c08301520390f35b825161ffff168452602093840193909201916001016124c4565b82516001600160a01b0316845260209384019390920191600101612496565b60f01c8152602001886123b3565b92602060019161ffff8560e01c1681520193016123ad565b92602060019161ffff8560d01c1681520193016123a5565b92602060019161ffff8560c01c16815201930161239d565b92602060019161ffff8560b01c168152019301612395565b92602060019161ffff8560a01c16815201930161238d565b92602060019161ffff8560901c168152019301612385565b92602060019161ffff8560801c16815201930161237d565b92602060019161ffff8560701c168152019301612375565b92602060019161ffff8560601c16815201930161236d565b92602060019161ffff8560501c168152019301612365565b92602060019161ffff8560401c16815201930161235d565b92602060019161ffff8560301c168152019301612355565b92602060019161ffff85831c16815201930161234d565b92602060019161ffff8560101c168152019301612345565b92602060019161ffff8516815201930161233d565b956001610200601092895461ffff8116825261ffff81861c16602083015261ffff8160201c16604083015261ffff8160301c16606083015261ffff8160401c16608083015261ffff8160501c1660a083015261ffff8160601c1660c083015261ffff8160701c1660e083015261ffff8160801c1661010083015261ffff8160901c1661012083015261ffff8160a01c1661014083015261ffff8160b01c1661016083015261ffff8160c01c1661018083015261ffff8160d01c166101a083015261ffff8160e01c166101c083015260f01c6101e082015201970192019161231b565b84546001600160a01b03168352600194850194869450602090930192016122de565b34610251576127d5366130e6565b90600052600860205260406000208054821015610251576020916106c7916130fc565b346102515760403660031901126102515760806128136130d0565b6000606060405161282381613213565b8281528260208201528260408201520152600435600052600a602052604060002060018060a01b038092166000526020526040600020906040519061286782613213565b82541691828252600181015460208301908152606060036002840154936040860194855201549301928352604051938452516020840152516040830152516060820152f35b346102515760203660031901126102515760043561ffff8116808203610251576101f4906128d8613375565b116128fe576003805461ffff60a01b191660a09290921b61ffff60a01b16919091179055005b60405162461bcd60e51b815260206004820152600c60248201526b08ccaca40e8dede40d0d2ced60a31b6044820152606490fd5b3461025157600036600319011261025157602060ff600254166040519015158152f35b346102515760403660031901126102515761296e6130ba565b602435908115158092036102515760207f966c160e1c4dbc7df8d69af4ace01e9297c3cf016397b7914971f2fbfa32672d916129a8613375565b60018060a01b03169283600052600d8252604060002060ff1981541660ff8316179055604051908152a2005b34610251576129e2366130e6565b906129eb613454565b8060005260209160048352604060002092835415612bd15760ff600885015460a01c1660058110156104b6578015908115612bc6575b5015612b94578115612b5f576004840191612a446005845496019586549061343a565b9081811115612b575750935b6002546040516323b872dd60e01b848201523360248201523060448201526064808201889052815260089190911c6001600160a01b0316939060a08101906001600160401b0382118183101761169d577fb41248cbb9f620dcc228147603ac5c34dbf73c9b90044f38e49c9a862d9f328b95612ace926040526134aa565b612ad9868354613447565b809255541115612af3575b6040519384523393a360018055005b8260005260048152827feed224251ff614714290287b931e052c4450c4615267685e4c60ce9d673d4d7f604060ff612b4b60088360002001805490600160a01b8460a01b198316179055835192839160a01c1661332d565b600185820152a2612ae4565b905093612a50565b6064906040519062461bcd60e51b82526004820152600e60248201526d125b9d985b1a5908185b5bdd5b9d60921b6044820152fd5b6064906040519062461bcd60e51b82526004820152600b60248201526a10d85b9b9bdd08199d5b9960aa1b6044820152fd5b600191501485612a21565b6064906040519062461bcd60e51b82526004820152600e60248201526d141bdbdb081b9bdd08199bdd5b9960921b6044820152fd5b3461025157600036600319011261025157612c1f613454565b33600052600b6020526040600020548015612c6457336000818152600b6020526040812055600254612c5e92919060081c6001600160a01b0316613793565b60018055005b60405162461bcd60e51b815260206004820152601060248201526f4e6f7468696e6720746f20636c61696d60801b6044820152606490fd5b3461025157600036600319011261025157602060405160148152f35b3461025157600036600319011261025157612cd1613375565b60025460ff811615612d105760ff19166002557f5db9ee0a495bf2e6ff9c91a7834c1ba4fdd244a5e8aa4e537bd38aeae4b073aa6020604051338152a1005b60405162461bcd60e51b815260206004820152601460248201527314185d5cd8589b194e881b9bdd081c185d5cd95960621b6044820152606490fd5b3461025157604036600319011261025157600435612d686130d0565b9080600052600460205260018060a01b0390612d8f8260016040600020015416331461369d565b600052600c602052604060002091166000526020526040600020600160ff19825416179055600080f35b3461025157600036600319011261025157602061ffff60035460a01c16604051908152f35b3461025157604036600319011261025157612df76130d0565b600435600052600c60205260406000209060018060a01b0316600052602052602060ff604060002054166040519015158152f35b34610251576000366003190112610251576020604051620f42408152f35b34610251576020366003190112610251576001600160a01b03612e6a6130ba565b16600052600d602052602060ff604060002054166040519015158152f35b3461025157602036600319011261025157600060408051612ea8816131f8565b8281528260208201520152600435600052600960205260606040600020604051612ed1816131f8565b81546040600160ff83169485855260ff602086019460081c1615158452015492019182526040519283525115156020830152516040820152f35b34610251576040366003190112610251576004356024359060ff82169182810361025157816000526020906007825260016040600020015460005260048252612f7460018060a01b038060016040600020015416331490811561309e578115610b73575061370b565b8260005260078252604060002090600182015460005260098352604060002060ff600584015460101c169060068210156104b657612fb6600260ff9314613757565b5416851061306757907f8961e4e77f19b019a9539d062f9c87d96e026b9fb8cdd52aa868a77fda602e0a9291600b8201908154339160ff60a01b9060a01b16906affffffffffffffffffffff60a81b1617179055600a4291015582600052600781528260008051602061382c833981519152604060ff613055600583600020018054906203000062ff0000198316179055835192839160101c16613154565b600385820152a26040519384523393a3005b60405162461bcd60e51b815260048101849052600f60248201526e5175616c69747920746f6f206c6f7760881b6044820152606490fd5b600c8552604060008181203382528752205460ff169150610a9a565b600435906001600160a01b038216820361025157565b602435906001600160a01b038216820361025157565b6040906003190112610251576004359060243590565b805482101561100d5760005260206000200190600090565b919082519283825260005b848110613140575050826000602080949584010152601f8019910116010190565b60208183018101518483018201520161311f565b9060068210156104b65752565b9181601f84011215610251578235916001600160401b038311610251576020838186019501011161025157565b9181601f84011215610251578235916001600160401b038311610251576020808501948460051b01011161025157565b90600182811c921680156131ee575b60208310146131d857565b634e487b7160e01b600052602260045260246000fd5b91607f16916131cd565b606081019081106001600160401b0382111761169d57604052565b608081019081106001600160401b0382111761169d57604052565b6101c081019081106001600160401b0382111761169d57604052565b61018081019081106001600160401b0382111761169d57604052565b90601f801991011681019081106001600160401b0382111761169d57604052565b906040519182600082549261329b846131be565b90818452600194858116908160001461330a57506001146132c7575b50506132c592500383613266565b565b9093915060005260209081600020936000915b8183106132f25750506132c5935082010138806132b7565b855488840185015294850194879450918301916132da565b9150506132c594506020925060ff191682840152151560051b82010138806132b7565b9060058210156104b65752565b6020908160408183019282815285518094520193019160005b828110613361575050505090565b835185529381019392810192600101613353565b6000546001600160a01b0316330361338957565b606460405162461bcd60e51b815260206004820152602060248201527f4f776e61626c653a2063616c6c6572206973206e6f7420746865206f776e65726044820152fd5b8181106133d8575050565b600081556001016133cd565b8054600160401b81101561169d57613401916001820181556130fc565b819291549060031b91821b91600019901b1916179055565b908060209392818452848401376000828201840152601f01601f1916010190565b919082039182116120c157565b919082018092116120c157565b600260015414613465576002600155565b60405162461bcd60e51b815260206004820152601f60248201527f5265656e7472616e637947756172643a207265656e7472616e742063616c6c006044820152606490fd5b60018060a01b031690604051604081016001600160401b03908281108282111761169d576040526020938483527f5361666545524332303a206c6f772d6c6576656c2063616c6c206661696c6564858401526000808587829751910182855af1903d156135f5573d9283116135e157906135449392916040519261353788601f19601f8401160185613266565b83523d868885013e613600565b8051918215918483156135b6575b50505090501561355f5750565b6084906040519062461bcd60e51b82526004820152602a60248201527f5361666545524332303a204552433230206f7065726174696f6e20646964206e6044820152691bdd081cdd58d8d9595960b21b6064820152fd5b9193818094500103126135dd578201519081151582036135da575080388084613552565b80fd5b5080fd5b634e487b7160e01b85526041600452602485fd5b906135449392506060915b919290156136625750815115613614575090565b3b1561361d5790565b60405162461bcd60e51b815260206004820152601d60248201527f416464726573733a2063616c6c20746f206e6f6e2d636f6e74726163740000006044820152606490fd5b8251909150156136755750805190602001fd5b60405162461bcd60e51b815260206004820152908190613699906024830190613114565b0390fd5b156136a457565b60405162461bcd60e51b815260206004820152600e60248201526d2737ba103837b7b61037bbb732b960911b6044820152606490fd5b60001981146120c15760010190565b3561ffff811681036102515790565b818102929181159184041417156120c157565b1561371257565b60405162461bcd60e51b815260206004820152601760248201527f4e6f7420617574686f72697a656420617070726f7665720000000000000000006044820152606490fd5b1561375e57565b60405162461bcd60e51b815260206004820152600d60248201526c139bdd081cdd589b5a5d1d1959609a1b6044820152606490fd5b60405163a9059cbb60e01b60208201526001600160a01b0390921660248301526044808301939093529181526132c5916137cc82613213565b6134aa565b9060005b60068301805482101561382257816137ec916130fc565b905460039190911b1c6001600160a01b039081169083161461381a576138136006916136da565b90506137d5565b505050600190565b5050505060009056fe1e7d0035836bbb5e11d9d46fe7b9bc928257622b8cadebeed7545b2ab7b69295a2646970667358221220783085272c3aecfb36e0eed3d738ba6c0a83fcd6e82f4a5d12da5c7b084a113f64736f6c63430008140033","opcodes":"PUSH1 0x80 CALLVALUE PUSH3 0x1CE JUMPI PUSH1 0x1F PUSH3 0x3A80 CODESIZE DUP2 SWAP1 SUB SWAP2 DUP3 ADD PUSH1 0x1F NOT AND DUP4 ADD SWAP3 SWAP2 SWAP1 PUSH1 0x1 PUSH1 0x1 PUSH1 0x40 SHL SUB DUP5 GT DUP4 DUP6 LT OR PUSH3 0x1D3 JUMPI DUP2 PUSH1 0x60 SWAP3 DUP5 SWAP3 PUSH1 0x40 SWAP7 DUP8 MSTORE DUP4 CODECOPY DUP2 ADD SUB SLT PUSH3 0x1CE JUMPI PUSH3 0x51 DUP2 PUSH3 0x1E9 JUMP JUMPDEST DUP3 PUSH3 0x60 PUSH1 0x20 DUP5 ADD PUSH3 0x1E9 JUMP JUMPDEST SWAP3 ADD MLOAD SWAP2 PUSH2 0xFFFF DUP4 AND SWAP2 DUP3 DUP5 SUB PUSH3 0x1CE JUMPI PUSH1 0x0 DUP1 SLOAD CALLER PUSH1 0x1 PUSH1 0x1 PUSH1 0xA0 SHL SUB NOT DUP3 AND DUP2 OR DUP4 SSTORE DUP8 MLOAD SWAP5 PUSH1 0x1 PUSH1 0x1 PUSH1 0xA0 SHL SUB SWAP4 SWAP1 SWAP3 DUP5 AND SWAP1 PUSH32 0x8BE0079C531659141344CD1FD0A4F28419497F9722A3DAAFE3B4186F6B6457E0 SWAP1 DUP1 LOG3 PUSH1 0x1 DUP1 SSTORE PUSH1 0x2 SLOAD SWAP4 DUP3 DUP5 AND ISZERO PUSH3 0x19C JUMPI POP AND SWAP3 DUP4 ISZERO PUSH3 0x165 JUMPI PUSH2 0x1F4 LT PUSH3 0x132 JUMPI PUSH1 0x1 PUSH1 0x1 PUSH1 0xA8 SHL SUB NOT SWAP1 SWAP2 AND PUSH1 0x8 SWAP2 SWAP1 SWAP2 SHL PUSH2 0x100 PUSH1 0x1 PUSH1 0xA8 SHL SUB AND OR PUSH1 0x2 SSTORE PUSH1 0x3 DUP1 SLOAD PUSH1 0x1 PUSH1 0x1 PUSH1 0xB0 SHL SUB NOT AND SWAP2 SWAP1 SWAP2 OR PUSH1 0xA0 SWAP3 SWAP1 SWAP3 SHL PUSH2 0xFFFF PUSH1 0xA0 SHL AND SWAP2 SWAP1 SWAP2 OR SWAP1 SSTORE MLOAD PUSH2 0x3881 SWAP1 DUP2 PUSH3 0x1FF DUP3 CODECOPY RETURN JUMPDEST DUP5 MLOAD PUSH3 0x461BCD PUSH1 0xE5 SHL DUP2 MSTORE PUSH1 0x20 PUSH1 0x4 DUP3 ADD MSTORE PUSH1 0xC PUSH1 0x24 DUP3 ADD MSTORE PUSH12 0x8CCACA40E8DEDE40D0D2CED PUSH1 0xA3 SHL PUSH1 0x44 DUP3 ADD MSTORE PUSH1 0x64 SWAP1 REVERT JUMPDEST DUP6 MLOAD PUSH3 0x461BCD PUSH1 0xE5 SHL DUP2 MSTORE PUSH1 0x20 PUSH1 0x4 DUP3 ADD MSTORE PUSH1 0x10 PUSH1 0x24 DUP3 ADD MSTORE PUSH16 0x496E76616C6964207472656173757279 PUSH1 0x80 SHL PUSH1 0x44 DUP3 ADD MSTORE PUSH1 0x64 SWAP1 REVERT JUMPDEST PUSH3 0x461BCD PUSH1 0xE5 SHL DUP2 MSTORE PUSH1 0x20 PUSH1 0x4 DUP3 ADD MSTORE PUSH1 0xD PUSH1 0x24 DUP3 ADD MSTORE PUSH13 0x24B73B30B634B2103A37B5B2B7 PUSH1 0x99 SHL PUSH1 0x44 DUP3 ADD MSTORE PUSH1 0x64 SWAP1 REVERT JUMPDEST PUSH1 0x0 DUP1 REVERT JUMPDEST PUSH4 0x4E487B71 PUSH1 0xE0 SHL PUSH1 0x0 MSTORE PUSH1 0x41 PUSH1 0x4 MSTORE PUSH1 0x24 PUSH1 0x0 REVERT JUMPDEST MLOAD SWAP1 PUSH1 0x1 PUSH1 0x1 PUSH1 0xA0 SHL SUB DUP3 AND DUP3 SUB PUSH3 0x1CE JUMPI JUMP INVALID PUSH1 0x80 PUSH1 0x40 MSTORE PUSH1 0x4 CALLDATASIZE LT ISZERO PUSH2 0x12 JUMPI PUSH1 0x0 DUP1 REVERT JUMPDEST PUSH1 0x0 CALLDATALOAD PUSH1 0xE0 SHR DUP1 PUSH4 0x5060437 EQ PUSH2 0x2F0B JUMPI DUP1 PUSH4 0x967CC3D EQ PUSH2 0x2E88 JUMPI DUP1 PUSH4 0x13E7C9D8 EQ PUSH2 0x2E49 JUMPI DUP1 PUSH4 0x17AB06E1 EQ PUSH2 0x2E2B JUMPI DUP1 PUSH4 0x20CFFF3A EQ PUSH2 0x2DDE JUMPI DUP1 PUSH4 0x22DCD13E EQ PUSH2 0x2DB9 JUMPI DUP1 PUSH4 0x2646B18E EQ PUSH2 0x2D4C JUMPI DUP1 PUSH4 0x3F4BA83A EQ PUSH2 0x2CB8 JUMPI DUP1 PUSH4 0x4C05ABEB EQ PUSH2 0x2C9C JUMPI DUP1 PUSH4 0x4E71D92D EQ PUSH2 0x2C06 JUMPI DUP1 PUSH4 0x50428089 EQ PUSH2 0x29D4 JUMPI DUP1 PUSH4 0x51D550D2 EQ PUSH2 0x590 JUMPI DUP1 PUSH4 0x558A7297 EQ PUSH2 0x2955 JUMPI DUP1 PUSH4 0x5C975ABB EQ PUSH2 0x2932 JUMPI DUP1 PUSH4 0x5CBC742C EQ PUSH2 0x28AC JUMPI DUP1 PUSH4 0x6785CE09 EQ PUSH2 0x27F8 JUMPI DUP1 PUSH4 0x6A53AD4F EQ PUSH2 0x27C7 JUMPI DUP1 PUSH4 0x6B72A7E8 EQ PUSH2 0x21C8 JUMPI DUP1 PUSH4 0x6C738176 EQ PUSH2 0x1A0D JUMPI DUP1 PUSH4 0x715018A6 EQ PUSH2 0x19B4 JUMPI DUP1 PUSH4 0x73DFE0DA EQ PUSH2 0x1882 JUMPI DUP1 PUSH4 0x7518AA32 EQ PUSH2 0x13DC JUMPI DUP1 PUSH4 0x7B9E618D EQ PUSH2 0x13AF JUMPI DUP1 PUSH4 0x7CD86D60 EQ PUSH2 0x132F JUMPI DUP1 PUSH4 0x8456CB59 EQ PUSH2 0x129C JUMPI DUP1 PUSH4 0x8DA5CB5B EQ PUSH2 0x1273 JUMPI DUP1 PUSH4 0x9C57EDDE EQ PUSH2 0xE56 JUMPI DUP1 PUSH4 0x9DE9AAF4 EQ PUSH2 0xD69 JUMPI DUP1 PUSH4 0xB5217BB4 EQ PUSH2 0xC7F JUMPI DUP1 PUSH4 0xB5809D1B EQ PUSH2 0xC07 JUMPI DUP1 PUSH4 0xB9AEADE5 EQ PUSH2 0xB9D JUMPI DUP1 PUSH4 0xBABAB62C EQ PUSH2 0xA2A JUMPI DUP1 PUSH4 0xBDCAE3D8 EQ PUSH2 0x9E3 JUMPI DUP1 PUSH4 0xD276BE96 EQ PUSH2 0x81A JUMPI DUP1 PUSH4 0xD6B2018B EQ PUSH2 0x6D5 JUMPI DUP1 PUSH4 0xD6E4183A EQ PUSH2 0x67D JUMPI DUP1 PUSH4 0xE138818C EQ PUSH2 0x654 JUMPI DUP1 PUSH4 0xE1F1C4A7 EQ PUSH2 0x637 JUMPI DUP1 PUSH4 0xE3698C0A EQ PUSH2 0x5CA JUMPI DUP1 PUSH4 0xECDAE41B EQ PUSH2 0x590 JUMPI DUP1 PUSH4 0xF2FDE38B EQ PUSH2 0x4CC JUMPI DUP1 PUSH4 0xF6C00927 EQ PUSH2 0x2D0 JUMPI DUP1 PUSH4 0xF81A30B0 EQ PUSH2 0x256 JUMPI PUSH4 0xFCB72A9C EQ PUSH2 0x200 JUMPI PUSH1 0x0 DUP1 REVERT JUMPDEST CALLVALUE PUSH2 0x251 JUMPI PUSH1 0x20 CALLDATASIZE PUSH1 0x3 NOT ADD SLT PUSH2 0x251 JUMPI PUSH1 0x4 CALLDATALOAD PUSH1 0x6 SLOAD DUP2 LT ISZERO PUSH2 0x251 JUMPI PUSH1 0x20 SWAP1 PUSH1 0x6 PUSH1 0x0 MSTORE PUSH32 0xF652222313E28459528D920B65115C16C04F3EFC82AAEDC97BE59F3F377C0D3F ADD SLOAD PUSH1 0x40 MLOAD SWAP1 DUP2 MSTORE RETURN JUMPDEST PUSH1 0x0 DUP1 REVERT JUMPDEST CALLVALUE PUSH2 0x251 JUMPI PUSH1 0x20 DUP1 PUSH1 0x3 NOT CALLDATASIZE ADD SLT PUSH2 0x251 JUMPI PUSH1 0x4 CALLDATALOAD PUSH1 0x0 MSTORE PUSH1 0x8 DUP2 MSTORE PUSH1 0x40 PUSH1 0x0 KECCAK256 SWAP1 PUSH1 0x40 MLOAD SWAP1 DUP2 DUP2 DUP5 SLOAD SWAP2 DUP3 DUP2 MSTORE ADD SWAP4 PUSH1 0x0 MSTORE DUP2 PUSH1 0x0 KECCAK256 SWAP2 PUSH1 0x0 SWAP1 JUMPDEST DUP3 DUP3 LT PUSH2 0x2B9 JUMPI PUSH2 0x2B5 DUP6 PUSH2 0x2A9 DUP2 DUP10 SUB DUP3 PUSH2 0x3266 JUMP JUMPDEST PUSH1 0x40 MLOAD SWAP2 DUP3 SWAP2 DUP3 PUSH2 0x333A JUMP JUMPDEST SUB SWAP1 RETURN JUMPDEST DUP4 SLOAD DUP7 MSTORE SWAP5 DUP6 ADD SWAP5 PUSH1 0x1 SWAP4 DUP5 ADD SWAP4 SWAP1 SWAP2 ADD SWAP1 PUSH2 0x292 JUMP JUMPDEST CALLVALUE PUSH2 0x251 JUMPI PUSH1 0x20 CALLDATASIZE PUSH1 0x3 NOT ADD SLT PUSH2 0x251 JUMPI PUSH1 0x0 PUSH2 0x160 PUSH1 0x40 MLOAD PUSH2 0x2F2 DUP2 PUSH2 0x324A JUMP JUMPDEST DUP3 DUP2 MSTORE DUP3 PUSH1 0x20 DUP3 ADD MSTORE PUSH1 0x60 PUSH1 0x40 DUP3 ADD MSTORE PUSH1 0x60 DUP1 DUP3 ADD MSTORE DUP3 PUSH1 0x80 DUP3 ADD MSTORE DUP3 PUSH1 0xA0 DUP3 ADD MSTORE DUP3 PUSH1 0xC0 DUP3 ADD MSTORE DUP3 PUSH1 0xE0 DUP3 ADD MSTORE DUP3 PUSH2 0x100 DUP3 ADD MSTORE DUP3 PUSH2 0x120 DUP3 ADD MSTORE DUP3 PUSH2 0x140 DUP3 ADD MSTORE ADD MSTORE PUSH1 0x4 CALLDATALOAD PUSH1 0x0 MSTORE PUSH1 0x4 PUSH1 0x20 MSTORE PUSH1 0x40 PUSH1 0x0 KECCAK256 PUSH1 0x40 MLOAD SWAP1 PUSH2 0x354 DUP3 PUSH2 0x324A JUMP JUMPDEST DUP1 SLOAD DUP3 MSTORE PUSH1 0x1 DUP2 ADD SLOAD PUSH1 0x1 PUSH1 0x1 PUSH1 0xA0 SHL SUB AND PUSH1 0x20 DUP4 ADD MSTORE PUSH2 0x377 PUSH1 0x2 DUP3 ADD PUSH2 0x3287 JUMP JUMPDEST PUSH1 0x40 DUP4 ADD MSTORE PUSH2 0x388 PUSH1 0x3 DUP3 ADD PUSH2 0x3287 JUMP JUMPDEST PUSH1 0x60 DUP4 ADD MSTORE PUSH1 0x4 DUP2 ADD SLOAD PUSH1 0x80 DUP4 ADD MSTORE PUSH1 0x5 DUP2 ADD SLOAD PUSH1 0xA0 DUP4 ADD MSTORE PUSH1 0x6 DUP2 ADD SLOAD PUSH1 0xC0 DUP4 ADD MSTORE PUSH1 0x7 DUP2 ADD SLOAD PUSH1 0xE0 DUP4 ADD MSTORE PUSH1 0xFF PUSH1 0x8 DUP3 ADD SLOAD PUSH1 0x1 DUP1 PUSH1 0xA0 SHL SUB DUP2 AND PUSH2 0x100 DUP6 ADD MSTORE PUSH1 0xA0 SHR AND SWAP1 PUSH1 0x5 DUP3 LT ISZERO PUSH2 0x4B6 JUMPI PUSH1 0xA SWAP2 PUSH2 0x120 DUP5 ADD MSTORE PUSH1 0x9 DUP2 ADD SLOAD PUSH2 0x140 DUP5 ADD MSTORE ADD SLOAD PUSH2 0x160 DUP3 ADD MSTORE PUSH1 0x40 MLOAD DUP1 SWAP2 PUSH1 0x20 DUP3 MSTORE DUP1 MLOAD PUSH1 0x20 DUP4 ADD MSTORE PUSH1 0x1 DUP1 PUSH1 0xA0 SHL SUB PUSH1 0x20 DUP3 ADD MLOAD AND PUSH1 0x40 DUP4 ADD MSTORE PUSH2 0x160 PUSH2 0x44E PUSH2 0x438 PUSH1 0x40 DUP5 ADD MLOAD PUSH2 0x180 PUSH1 0x60 DUP8 ADD MSTORE PUSH2 0x1A0 DUP7 ADD SWAP1 PUSH2 0x3114 JUMP JUMPDEST PUSH1 0x60 DUP5 ADD MLOAD DUP6 DUP3 SUB PUSH1 0x1F NOT ADD PUSH1 0x80 DUP8 ADD MSTORE PUSH2 0x3114 JUMP JUMPDEST SWAP2 PUSH1 0x80 DUP2 ADD MLOAD PUSH1 0xA0 DUP6 ADD MSTORE PUSH1 0xA0 DUP2 ADD MLOAD PUSH1 0xC0 DUP6 ADD MSTORE PUSH1 0xC0 DUP2 ADD MLOAD PUSH1 0xE0 DUP6 ADD MSTORE PUSH1 0xE0 DUP2 ADD MLOAD PUSH2 0x100 DUP6 ADD MSTORE PUSH1 0x1 DUP1 PUSH1 0xA0 SHL SUB PUSH2 0x100 DUP3 ADD MLOAD AND PUSH2 0x120 DUP6 ADD MSTORE PUSH2 0x4A0 PUSH2 0x120 DUP3 ADD MLOAD PUSH2 0x140 DUP7 ADD SWAP1 PUSH2 0x332D JUMP JUMPDEST PUSH2 0x140 DUP2 ADD MLOAD DUP3 DUP6 ADD MSTORE ADD MLOAD PUSH2 0x180 DUP4 ADD MSTORE SUB SWAP1 RETURN JUMPDEST PUSH4 0x4E487B71 PUSH1 0xE0 SHL PUSH1 0x0 MSTORE PUSH1 0x21 PUSH1 0x4 MSTORE PUSH1 0x24 PUSH1 0x0 REVERT JUMPDEST CALLVALUE PUSH2 0x251 JUMPI PUSH1 0x20 CALLDATASIZE PUSH1 0x3 NOT ADD SLT PUSH2 0x251 JUMPI PUSH2 0x4E5 PUSH2 0x30BA JUMP JUMPDEST PUSH2 0x4ED PUSH2 0x3375 JUMP JUMPDEST PUSH1 0x1 PUSH1 0x1 PUSH1 0xA0 SHL SUB SWAP1 DUP2 AND SWAP1 DUP2 ISZERO PUSH2 0x53C JUMPI PUSH1 0x0 SLOAD DUP3 PUSH1 0x1 PUSH1 0x1 PUSH1 0x60 SHL SUB PUSH1 0xA0 SHL DUP3 AND OR PUSH1 0x0 SSTORE AND PUSH32 0x8BE0079C531659141344CD1FD0A4F28419497F9722A3DAAFE3B4186F6B6457E0 PUSH1 0x0 DUP1 LOG3 STOP JUMPDEST PUSH1 0x40 MLOAD PUSH3 0x461BCD PUSH1 0xE5 SHL DUP2 MSTORE PUSH1 0x20 PUSH1 0x4 DUP3 ADD MSTORE PUSH1 0x26 PUSH1 0x24 DUP3 ADD MSTORE PUSH32 0x4F776E61626C653A206E6577206F776E657220697320746865207A65726F2061 PUSH1 0x44 DUP3 ADD MSTORE PUSH6 0x646472657373 PUSH1 0xD0 SHL PUSH1 0x64 DUP3 ADD MSTORE PUSH1 0x84 SWAP1 REVERT JUMPDEST CALLVALUE PUSH2 0x251 JUMPI PUSH1 0x20 CALLDATASIZE PUSH1 0x3 NOT ADD SLT PUSH2 0x251 JUMPI PUSH1 0x1 PUSH1 0x1 PUSH1 0xA0 SHL SUB PUSH2 0x5B1 PUSH2 0x30BA JUMP JUMPDEST AND PUSH1 0x0 MSTORE PUSH1 0xB PUSH1 0x20 MSTORE PUSH1 0x20 PUSH1 0x40 PUSH1 0x0 KECCAK256 SLOAD PUSH1 0x40 MLOAD SWAP1 DUP2 MSTORE RETURN JUMPDEST CALLVALUE PUSH2 0x251 JUMPI PUSH1 0x40 CALLDATASIZE PUSH1 0x3 NOT ADD SLT PUSH2 0x251 JUMPI PUSH1 0x80 PUSH2 0x5E5 PUSH2 0x30D0 JUMP JUMPDEST PUSH1 0x4 CALLDATALOAD PUSH1 0x0 MSTORE PUSH1 0xA PUSH1 0x20 MSTORE PUSH1 0x40 PUSH1 0x0 KECCAK256 PUSH1 0x1 DUP1 PUSH1 0xA0 SHL SUB DUP1 SWAP3 AND PUSH1 0x0 MSTORE PUSH1 0x20 MSTORE PUSH1 0x40 PUSH1 0x0 KECCAK256 SWAP1 DUP2 SLOAD AND SWAP1 PUSH1 0x1 DUP2 ADD SLOAD SWAP1 PUSH1 0x3 PUSH1 0x2 DUP3 ADD SLOAD SWAP2 ADD SLOAD SWAP2 PUSH1 0x40 MLOAD SWAP4 DUP5 MSTORE PUSH1 0x20 DUP5 ADD MSTORE PUSH1 0x40 DUP4 ADD MSTORE PUSH1 0x60 DUP3 ADD MSTORE RETURN JUMPDEST CALLVALUE PUSH2 0x251 JUMPI PUSH1 0x0 CALLDATASIZE PUSH1 0x3 NOT ADD SLT PUSH2 0x251 JUMPI PUSH1 0x20 PUSH1 0x40 MLOAD PUSH2 0x2710 DUP2 MSTORE RETURN JUMPDEST CALLVALUE PUSH2 0x251 JUMPI PUSH1 0x0 CALLDATASIZE PUSH1 0x3 NOT ADD SLT PUSH2 0x251 JUMPI PUSH1 0x3 SLOAD PUSH1 0x40 MLOAD PUSH1 0x1 PUSH1 0x1 PUSH1 0xA0 SHL SUB SWAP1 SWAP2 AND DUP2 MSTORE PUSH1 0x20 SWAP1 RETURN JUMPDEST CALLVALUE PUSH2 0x251 JUMPI PUSH1 0x40 CALLDATASIZE PUSH1 0x3 NOT ADD SLT PUSH2 0x251 JUMPI PUSH2 0x696 PUSH2 0x30BA JUMP JUMPDEST PUSH1 0x1 PUSH1 0x1 PUSH1 0xA0 SHL SUB AND PUSH1 0x0 SWAP1 DUP2 MSTORE PUSH1 0x5 PUSH1 0x20 MSTORE PUSH1 0x40 SWAP1 KECCAK256 DUP1 SLOAD PUSH1 0x24 CALLDATALOAD SWAP2 SWAP1 DUP3 LT ISZERO PUSH2 0x251 JUMPI PUSH1 0x20 SWAP2 PUSH2 0x6C7 SWAP2 PUSH2 0x30FC JUMP JUMPDEST SWAP1 SLOAD PUSH1 0x40 MLOAD SWAP2 PUSH1 0x3 SHL SHR DUP2 MSTORE RETURN JUMPDEST CALLVALUE PUSH2 0x251 JUMPI PUSH1 0x40 CALLDATASIZE PUSH1 0x3 NOT ADD SLT PUSH2 0x251 JUMPI PUSH1 0x4 CALLDATALOAD PUSH1 0x24 CALLDATALOAD SWAP1 DUP1 PUSH1 0x0 MSTORE PUSH1 0x20 PUSH1 0x7 DUP2 MSTORE PUSH1 0x40 PUSH1 0x0 KECCAK256 PUSH1 0xFF PUSH1 0x5 DUP3 ADD SLOAD PUSH1 0x10 SHR AND PUSH1 0x6 DUP2 LT ISZERO PUSH2 0x4B6 JUMPI PUSH1 0x1 SUB PUSH2 0x7E3 JUMPI PUSH2 0x721 CALLER DUP3 PUSH2 0x37D1 JUMP JUMPDEST ISZERO PUSH2 0x7AC JUMPI SWAP1 DUP2 DUP5 PUSH1 0x8 PUSH32 0xE096A2E780162CC5CD31B73254B580D98B7A47AEB7D6B5DF78CCB39960FAD2F9 SWAP5 ADD SSTORE PUSH1 0x9 TIMESTAMP SWAP2 ADD SSTORE DUP3 PUSH1 0x0 MSTORE PUSH1 0x7 DUP2 MSTORE DUP3 PUSH1 0x0 DUP1 MLOAD PUSH1 0x20 PUSH2 0x382C DUP4 CODECOPY DUP2 MLOAD SWAP2 MSTORE PUSH1 0x40 PUSH1 0xFF PUSH2 0x79A PUSH1 0x5 DUP4 PUSH1 0x0 KECCAK256 ADD DUP1 SLOAD SWAP1 PUSH3 0x20000 PUSH3 0xFF0000 NOT DUP4 AND OR SWAP1 SSTORE DUP4 MLOAD SWAP3 DUP4 SWAP2 PUSH1 0x10 SHR AND PUSH2 0x3154 JUMP JUMPDEST PUSH1 0x2 DUP6 DUP3 ADD MSTORE LOG2 PUSH1 0x40 MLOAD SWAP4 DUP5 MSTORE CALLER SWAP4 LOG3 STOP JUMPDEST PUSH1 0x40 MLOAD PUSH3 0x461BCD PUSH1 0xE5 SHL DUP2 MSTORE PUSH1 0x4 DUP2 ADD DUP4 SWAP1 MSTORE PUSH1 0xF PUSH1 0x24 DUP3 ADD MSTORE PUSH15 0x139BDD081C185C9D1A58DA5C185B9D PUSH1 0x8A SHL PUSH1 0x44 DUP3 ADD MSTORE PUSH1 0x64 SWAP1 REVERT JUMPDEST PUSH1 0x40 MLOAD PUSH3 0x461BCD PUSH1 0xE5 SHL DUP2 MSTORE PUSH1 0x4 DUP2 ADD DUP4 SWAP1 MSTORE PUSH1 0xF PUSH1 0x24 DUP3 ADD MSTORE PUSH15 0x4E6F7420696E2070726F6772657373 PUSH1 0x88 SHL PUSH1 0x44 DUP3 ADD MSTORE PUSH1 0x64 SWAP1 REVERT JUMPDEST CALLVALUE PUSH2 0x251 JUMPI PUSH1 0x20 DUP1 PUSH1 0x3 NOT CALLDATASIZE ADD SLT PUSH2 0x251 JUMPI PUSH1 0x4 CALLDATALOAD SWAP1 DUP2 PUSH1 0x0 MSTORE PUSH1 0x7 DUP2 MSTORE PUSH1 0x40 PUSH1 0x0 KECCAK256 PUSH1 0x1 DUP2 ADD SLOAD PUSH1 0x0 MSTORE PUSH1 0x4 DUP3 MSTORE PUSH1 0x40 PUSH1 0x0 KECCAK256 SWAP1 DUP1 SLOAD ISZERO PUSH2 0x9A8 JUMPI PUSH1 0xFF PUSH1 0x8 DUP4 ADD SLOAD PUSH1 0xA0 SHR AND PUSH1 0x5 DUP2 LT ISZERO PUSH2 0x4B6 JUMPI PUSH1 0x2 SUB PUSH2 0x971 JUMPI PUSH1 0xFF PUSH1 0x5 DUP3 ADD SLOAD PUSH1 0x10 SHR AND PUSH1 0x6 DUP2 LT ISZERO PUSH2 0x4B6 JUMPI PUSH2 0x93B JUMPI PUSH2 0x894 SWAP1 CALLER SWAP1 PUSH2 0x37D1 JUMP JUMPDEST SWAP1 DUP2 ISZERO PUSH2 0x924 JUMPI JUMPDEST POP ISZERO PUSH2 0x8EF JUMPI PUSH1 0x40 PUSH1 0xFF PUSH1 0x1 PUSH1 0x0 DUP1 MLOAD PUSH1 0x20 PUSH2 0x382C DUP4 CODECOPY DUP2 MLOAD SWAP2 MSTORE SWAP4 DUP6 PUSH1 0x0 MSTORE PUSH1 0x7 DUP2 MSTORE PUSH2 0x8E9 PUSH1 0x5 DUP6 PUSH1 0x0 KECCAK256 ADD DUP1 SLOAD SWAP1 PUSH3 0x10000 PUSH3 0xFF0000 NOT DUP4 AND OR SWAP1 SSTORE DUP6 MLOAD SWAP5 DUP6 SWAP2 PUSH1 0x10 SHR AND PUSH2 0x3154 JUMP JUMPDEST DUP3 ADD MSTORE LOG2 STOP JUMPDEST PUSH1 0x64 SWAP1 PUSH1 0x40 MLOAD SWAP1 PUSH3 0x461BCD PUSH1 0xE5 SHL DUP3 MSTORE PUSH1 0x4 DUP3 ADD MSTORE PUSH1 0xE PUSH1 0x24 DUP3 ADD MSTORE PUSH14 0x139BDD08185D5D1A1BDC9A5E9959 PUSH1 0x92 SHL PUSH1 0x44 DUP3 ADD MSTORE REVERT JUMPDEST PUSH1 0x1 ADD SLOAD PUSH1 0x1 PUSH1 0x1 PUSH1 0xA0 SHL SUB AND CALLER EQ SWAP1 POP DUP4 PUSH2 0x89C JUMP JUMPDEST PUSH1 0x40 MLOAD PUSH3 0x461BCD PUSH1 0xE5 SHL DUP2 MSTORE PUSH1 0x4 DUP2 ADD DUP5 SWAP1 MSTORE PUSH1 0xE PUSH1 0x24 DUP3 ADD MSTORE PUSH14 0x496E76616C696420737461747573 PUSH1 0x90 SHL PUSH1 0x44 DUP3 ADD MSTORE PUSH1 0x64 SWAP1 REVERT JUMPDEST PUSH1 0x40 MLOAD PUSH3 0x461BCD PUSH1 0xE5 SHL DUP2 MSTORE PUSH1 0x4 DUP2 ADD DUP5 SWAP1 MSTORE PUSH1 0xF PUSH1 0x24 DUP3 ADD MSTORE PUSH15 0x506F6F6C206E6F7420616374697665 PUSH1 0x88 SHL PUSH1 0x44 DUP3 ADD MSTORE PUSH1 0x64 SWAP1 REVERT JUMPDEST PUSH1 0x40 MLOAD PUSH3 0x461BCD PUSH1 0xE5 SHL DUP2 MSTORE PUSH1 0x4 DUP2 ADD DUP5 SWAP1 MSTORE PUSH1 0x13 PUSH1 0x24 DUP3 ADD MSTORE PUSH19 0x135A5B195CDD1BDB99481B9BDD08199BDD5B99 PUSH1 0x6A SHL PUSH1 0x44 DUP3 ADD MSTORE PUSH1 0x64 SWAP1 REVERT JUMPDEST CALLVALUE PUSH2 0x251 JUMPI PUSH1 0x20 CALLDATASIZE PUSH1 0x3 NOT ADD SLT PUSH2 0x251 JUMPI PUSH1 0x4 CALLDATALOAD PUSH1 0x0 MSTORE PUSH1 0x9 PUSH1 0x20 MSTORE PUSH1 0x60 PUSH1 0x40 PUSH1 0x0 KECCAK256 PUSH1 0x1 DUP2 SLOAD SWAP2 ADD SLOAD PUSH1 0xFF PUSH1 0x40 MLOAD SWAP3 DUP2 DUP2 AND DUP5 MSTORE PUSH1 0x8 SHR AND ISZERO ISZERO PUSH1 0x20 DUP4 ADD MSTORE PUSH1 0x40 DUP3 ADD MSTORE RETURN JUMPDEST CALLVALUE PUSH2 0x251 JUMPI PUSH1 0x40 CALLDATASIZE PUSH1 0x3 NOT ADD SLT PUSH2 0x251 JUMPI PUSH1 0x4 CALLDATALOAD PUSH1 0x24 CALLDATALOAD PUSH1 0x1 PUSH1 0x1 PUSH1 0x40 SHL SUB DUP2 GT PUSH2 0x251 JUMPI PUSH2 0xA5D SWAP1 CALLDATASIZE SWAP1 PUSH1 0x4 ADD PUSH2 0x3161 JUMP JUMPDEST DUP3 PUSH1 0x0 SWAP4 SWAP3 SWAP4 MSTORE PUSH1 0x20 SWAP3 PUSH1 0x7 DUP5 MSTORE PUSH1 0x1 PUSH1 0x40 PUSH1 0x0 KECCAK256 ADD SLOAD PUSH1 0x0 MSTORE PUSH1 0x4 DUP5 MSTORE PUSH2 0xAA7 PUSH1 0x1 DUP1 PUSH1 0xA0 SHL SUB DUP1 PUSH1 0x1 PUSH1 0x40 PUSH1 0x0 KECCAK256 ADD SLOAD AND CALLER EQ SWAP1 DUP2 ISZERO PUSH2 0xB81 JUMPI JUMPDEST DUP2 ISZERO PUSH2 0xB73 JUMPI JUMPDEST POP PUSH2 0x370B JUMP JUMPDEST DUP3 PUSH1 0x0 MSTORE PUSH1 0x7 DUP5 MSTORE PUSH1 0x40 PUSH1 0x0 KECCAK256 SWAP2 PUSH1 0xFF PUSH1 0x5 DUP5 ADD SLOAD PUSH1 0x10 SHR AND PUSH1 0x6 DUP2 LT ISZERO PUSH2 0x4B6 JUMPI PUSH32 0x3247D451F8D302D0C5A27D09A7AF2BF8BF96BB4322235717F2B75737B00C4465 SWAP4 PUSH2 0xAF9 PUSH1 0x2 PUSH1 0xB SWAP4 EQ PUSH2 0x3757 JUMP JUMPDEST ADD CALLER PUSH1 0x1 PUSH1 0x1 PUSH1 0x60 SHL SUB PUSH1 0xA0 SHL DUP3 SLOAD AND OR SWAP1 SSTORE DUP4 PUSH1 0x0 MSTORE PUSH1 0x7 DUP6 MSTORE DUP4 PUSH1 0x0 DUP1 MLOAD PUSH1 0x20 PUSH2 0x382C DUP4 CODECOPY DUP2 MLOAD SWAP2 MSTORE PUSH1 0x40 PUSH1 0xFF PUSH2 0xB51 PUSH1 0x5 DUP4 PUSH1 0x0 KECCAK256 ADD DUP1 SLOAD SWAP1 PUSH3 0x40000 PUSH3 0xFF0000 NOT DUP4 AND OR SWAP1 SSTORE DUP4 MLOAD SWAP3 DUP4 SWAP2 PUSH1 0x10 SHR AND PUSH2 0x3154 JUMP JUMPDEST PUSH1 0x4 DUP10 DUP3 ADD MSTORE LOG2 PUSH2 0xB6E PUSH1 0x40 MLOAD SWAP3 DUP4 SWAP3 DUP8 DUP5 MSTORE CALLER SWAP8 DUP5 ADD SWAP2 PUSH2 0x3419 JUMP JUMPDEST SUB SWAP1 LOG3 STOP JUMPDEST SWAP1 POP PUSH1 0x0 SLOAD AND CALLER EQ DUP7 PUSH2 0xAA1 JUMP JUMPDEST PUSH1 0xC DUP8 MSTORE PUSH1 0x40 PUSH1 0x0 DUP2 DUP2 KECCAK256 CALLER DUP3 MSTORE DUP10 MSTORE KECCAK256 SLOAD PUSH1 0xFF AND SWAP2 POP PUSH2 0xA9A JUMP JUMPDEST CALLVALUE PUSH2 0x251 JUMPI PUSH1 0x40 CALLDATASIZE PUSH1 0x3 NOT ADD SLT PUSH2 0x251 JUMPI PUSH1 0x4 CALLDATALOAD PUSH2 0xBB9 PUSH2 0x30D0 JUMP JUMPDEST SWAP1 DUP1 PUSH1 0x0 MSTORE PUSH1 0x4 PUSH1 0x20 MSTORE PUSH1 0x1 DUP1 PUSH1 0xA0 SHL SUB SWAP1 PUSH2 0xBE0 DUP3 PUSH1 0x1 PUSH1 0x40 PUSH1 0x0 KECCAK256 ADD SLOAD AND CALLER EQ PUSH2 0x369D JUMP JUMPDEST PUSH1 0x0 MSTORE PUSH1 0xC PUSH1 0x20 MSTORE PUSH1 0x40 PUSH1 0x0 KECCAK256 SWAP2 AND PUSH1 0x0 MSTORE PUSH1 0x20 MSTORE PUSH1 0x40 PUSH1 0x0 KECCAK256 PUSH1 0xFF NOT DUP2 SLOAD AND SWAP1 SSTORE PUSH1 0x0 DUP1 RETURN JUMPDEST CALLVALUE PUSH2 0x251 JUMPI PUSH1 0x20 DUP1 PUSH1 0x3 NOT CALLDATASIZE ADD SLT PUSH2 0x251 JUMPI PUSH1 0x1 PUSH1 0x1 PUSH1 0xA0 SHL SUB PUSH2 0xC29 PUSH2 0x30BA JUMP JUMPDEST AND PUSH1 0x0 MSTORE PUSH1 0x5 DUP2 MSTORE PUSH1 0x40 PUSH1 0x0 KECCAK256 SWAP1 PUSH1 0x40 MLOAD SWAP1 DUP2 DUP2 DUP5 SLOAD SWAP2 DUP3 DUP2 MSTORE ADD SWAP4 PUSH1 0x0 MSTORE DUP2 PUSH1 0x0 KECCAK256 SWAP2 PUSH1 0x0 SWAP1 JUMPDEST DUP3 DUP3 LT PUSH2 0xC68 JUMPI PUSH2 0x2B5 DUP6 PUSH2 0x2A9 DUP2 DUP10 SUB DUP3 PUSH2 0x3266 JUMP JUMPDEST DUP4 SLOAD DUP7 MSTORE SWAP5 DUP6 ADD SWAP5 PUSH1 0x1 SWAP4 DUP5 ADD SWAP4 SWAP1 SWAP2 ADD SWAP1 PUSH2 0xC51 JUMP JUMPDEST CALLVALUE PUSH2 0x251 JUMPI PUSH1 0x20 CALLDATASIZE PUSH1 0x3 NOT ADD SLT PUSH2 0x251 JUMPI PUSH1 0x4 CALLDATALOAD PUSH1 0x0 MSTORE PUSH1 0x4 PUSH1 0x20 MSTORE PUSH1 0x40 PUSH1 0x0 KECCAK256 DUP1 SLOAD PUSH1 0x1 PUSH1 0xA0 SHL PUSH1 0x1 SWAP1 SUB DUP1 PUSH1 0x1 DUP5 ADD SLOAD AND SWAP3 PUSH1 0x2 DUP2 ADD PUSH2 0xCC0 SWAP1 PUSH2 0x3287 JUMP JUMPDEST SWAP1 PUSH2 0xCCD PUSH1 0x3 DUP3 ADD PUSH2 0x3287 JUMP JUMPDEST PUSH1 0x4 DUP3 ADD SLOAD SWAP4 PUSH1 0x5 DUP4 ADD SLOAD PUSH1 0x6 DUP5 ADD SLOAD PUSH1 0x7 DUP6 ADD SLOAD SWAP2 PUSH1 0x8 DUP7 ADD SLOAD SWAP5 PUSH1 0x9 DUP8 ADD SLOAD SWAP7 PUSH1 0xA ADD SLOAD SWAP8 PUSH1 0x40 MLOAD SWAP12 DUP13 SWAP12 DUP13 MSTORE PUSH1 0x20 DUP13 ADD MSTORE PUSH2 0x180 DUP1 PUSH1 0x40 DUP14 ADD MSTORE DUP12 ADD PUSH2 0xD15 SWAP2 PUSH2 0x3114 JUMP JUMPDEST DUP11 DUP2 SUB PUSH1 0x60 DUP13 ADD MSTORE PUSH2 0xD26 SWAP2 PUSH2 0x3114 JUMP JUMPDEST SWAP8 PUSH1 0x80 DUP11 ADD MSTORE PUSH1 0xA0 DUP10 ADD MSTORE PUSH1 0xC0 DUP9 ADD MSTORE PUSH1 0xE0 DUP8 ADD MSTORE DUP2 AND PUSH2 0x100 DUP7 ADD MSTORE PUSH2 0x120 DUP6 ADD SWAP1 PUSH1 0xA0 SHR PUSH1 0xFF AND SWAP1 PUSH2 0xD59 SWAP2 PUSH2 0x332D JUMP JUMPDEST PUSH2 0x140 DUP5 ADD MSTORE PUSH2 0x160 DUP4 ADD MSTORE SUB SWAP1 RETURN JUMPDEST CALLVALUE PUSH2 0x251 JUMPI PUSH1 0x20 CALLDATASIZE PUSH1 0x3 NOT ADD SLT PUSH2 0x251 JUMPI PUSH1 0x4 CALLDATALOAD PUSH1 0x0 MSTORE PUSH1 0x7 PUSH1 0x20 MSTORE PUSH1 0x20 PUSH1 0x40 PUSH1 0x0 KECCAK256 DUP1 SLOAD SWAP1 PUSH1 0xFF PUSH1 0x1 DUP3 ADD SLOAD PUSH2 0xDA2 PUSH1 0x2 DUP5 ADD PUSH2 0x3287 JUMP JUMPDEST SWAP3 PUSH2 0xDAF PUSH1 0x3 DUP3 ADD PUSH2 0x3287 JUMP JUMPDEST SWAP4 PUSH1 0x4 DUP3 ADD SLOAD SWAP5 PUSH2 0xE27 PUSH1 0x5 DUP5 ADD SLOAD PUSH2 0xE08 PUSH1 0x8 DUP7 ADD SLOAD SWAP4 PUSH2 0xDFA PUSH1 0x9 DUP9 ADD SLOAD SWAP7 PUSH1 0xB PUSH1 0xA DUP11 ADD SLOAD SWAP10 ADD SLOAD SWAP10 PUSH1 0x40 MLOAD SWAP15 DUP16 SWAP15 DUP16 SWAP1 DUP2 MSTORE ADD MSTORE PUSH1 0x40 DUP14 PUSH2 0x180 SWAP2 DUP3 SWAP2 ADD MSTORE DUP14 ADD SWAP1 PUSH2 0x3114 JUMP JUMPDEST SWAP1 DUP12 DUP3 SUB PUSH1 0x60 DUP14 ADD MSTORE PUSH2 0x3114 JUMP JUMPDEST SWAP8 PUSH1 0x80 DUP11 ADD MSTORE PUSH2 0xFFFF DUP2 AND PUSH1 0xA0 DUP11 ADD MSTORE DUP7 PUSH1 0xC0 DUP11 ADD SWAP2 PUSH1 0x10 SHR AND PUSH2 0x3154 JUMP JUMPDEST PUSH1 0xE0 DUP8 ADD MSTORE PUSH2 0x100 DUP7 ADD MSTORE PUSH2 0x120 DUP6 ADD MSTORE PUSH1 0x1 PUSH1 0x1 PUSH1 0xA0 SHL SUB DUP2 AND PUSH2 0x140 DUP6 ADD MSTORE PUSH1 0xA0 SHR AND PUSH2 0x160 DUP4 ADD MSTORE SUB SWAP1 RETURN JUMPDEST CALLVALUE PUSH2 0x251 JUMPI PUSH1 0x20 CALLDATASIZE PUSH1 0x3 NOT ADD SLT PUSH2 0x251 JUMPI PUSH2 0xE6F PUSH2 0x3454 JUMP JUMPDEST PUSH1 0x4 CALLDATALOAD PUSH1 0x0 MSTORE PUSH1 0x7 PUSH1 0x20 MSTORE PUSH1 0x40 PUSH1 0x0 KECCAK256 PUSH1 0x1 DUP2 ADD SLOAD PUSH1 0x0 MSTORE PUSH1 0x4 PUSH1 0x20 MSTORE PUSH1 0x40 PUSH1 0x0 KECCAK256 PUSH1 0x9 PUSH1 0x20 MSTORE PUSH1 0x40 PUSH1 0x0 KECCAK256 PUSH1 0xFF PUSH1 0x5 DUP5 ADD SLOAD PUSH1 0x10 SHR AND PUSH1 0x6 DUP2 LT ISZERO PUSH2 0x4B6 JUMPI PUSH1 0x3 SUB PUSH2 0x123F JUMPI PUSH1 0x1 ADD SLOAD DUP1 PUSH2 0x11E8 JUMPI JUMPDEST POP PUSH1 0x4 DUP3 ADD SLOAD SWAP2 PUSH1 0x3 SLOAD SWAP3 PUSH2 0x2710 PUSH2 0xEDF PUSH2 0xFFFF DUP7 PUSH1 0xA0 SHR AND DUP4 PUSH2 0x36F8 JUMP JUMPDEST DIV SWAP4 PUSH2 0xEEB DUP6 DUP4 PUSH2 0x343A JUMP JUMPDEST SWAP5 DUP1 PUSH2 0x11C5 JUMPI JUMPDEST POP POP PUSH1 0x0 JUMPDEST PUSH1 0x6 DUP4 ADD SLOAD DUP2 LT ISZERO PUSH2 0x1023 JUMPI PUSH2 0xF10 DUP2 PUSH1 0x6 DUP6 ADD PUSH2 0x30FC JUMP JUMPDEST SWAP1 SLOAD PUSH1 0x7 DUP6 ADD SLOAD PUSH1 0x3 SWAP3 SWAP1 SWAP3 SHL SHR PUSH1 0x1 PUSH1 0x1 PUSH1 0xA0 SHL SUB AND SWAP2 SWAP1 DUP2 LT ISZERO PUSH2 0x100D JUMPI PUSH2 0x1008 SWAP2 PUSH1 0x7 DUP6 ADD PUSH1 0x0 MSTORE PUSH2 0x2710 PUSH2 0xF5E PUSH2 0xFFFF PUSH1 0x20 PUSH1 0x0 KECCAK256 DUP6 PUSH1 0x4 SHR ADD SLOAD PUSH1 0xF0 DUP7 PUSH1 0x4 SHL AND SHR AND DUP10 PUSH2 0x36F8 JUMP JUMPDEST DIV DUP2 PUSH1 0x0 MSTORE PUSH1 0xB PUSH1 0x20 MSTORE PUSH1 0x40 PUSH1 0x0 KECCAK256 PUSH2 0xF78 DUP3 DUP3 SLOAD PUSH2 0x3447 JUMP JUMPDEST SWAP1 SSTORE PUSH1 0x1 DUP7 ADD SLOAD PUSH1 0x0 MSTORE PUSH1 0xA DUP1 PUSH1 0x20 MSTORE PUSH1 0x40 PUSH1 0x0 KECCAK256 DUP4 PUSH1 0x0 MSTORE PUSH1 0x20 MSTORE PUSH1 0x2 PUSH1 0x40 PUSH1 0x0 KECCAK256 ADD PUSH2 0xFA7 DUP4 DUP3 SLOAD PUSH2 0x3447 JUMP JUMPDEST SWAP1 SSTORE PUSH1 0x1 DUP8 ADD SLOAD PUSH1 0x0 MSTORE PUSH1 0x20 MSTORE PUSH1 0x40 PUSH1 0x0 KECCAK256 DUP3 PUSH1 0x0 MSTORE PUSH1 0x20 MSTORE PUSH1 0x1 PUSH1 0x40 PUSH1 0x0 KECCAK256 ADD PUSH2 0xFD3 DUP3 DUP3 SLOAD PUSH2 0x3447 JUMP JUMPDEST SWAP1 SSTORE PUSH1 0x40 MLOAD SWAP1 DUP2 MSTORE PUSH32 0x5E7DD207A3F24BA1BB9151A151D025BE6612AAACCB576D7067E8BDF6DB0B48C5 PUSH1 0x20 PUSH1 0x4 CALLDATALOAD SWAP3 LOG3 PUSH2 0x36DA JUMP JUMPDEST PUSH2 0xEF7 JUMP JUMPDEST PUSH4 0x4E487B71 PUSH1 0xE0 SHL PUSH1 0x0 MSTORE PUSH1 0x32 PUSH1 0x4 MSTORE PUSH1 0x24 PUSH1 0x0 REVERT JUMPDEST POP SWAP2 PUSH1 0x6 SWAP1 PUSH1 0x7 DUP2 ADD PUSH2 0x1037 DUP6 DUP3 SLOAD PUSH2 0x3447 JUMP JUMPDEST SWAP1 SSTORE ADD PUSH2 0x1045 DUP4 DUP3 SLOAD PUSH2 0x343A JUMP JUMPDEST SWAP1 SSTORE PUSH1 0x4 CALLDATALOAD PUSH1 0x0 MSTORE PUSH1 0x7 PUSH1 0x20 MSTORE PUSH1 0xFF PUSH2 0x107F PUSH1 0x5 PUSH1 0x40 PUSH1 0x0 KECCAK256 ADD DUP1 SLOAD SWAP1 PUSH3 0x50000 PUSH3 0xFF0000 NOT DUP4 AND OR SWAP1 SSTORE PUSH1 0x40 MLOAD SWAP3 DUP4 SWAP2 PUSH1 0x10 SHR AND PUSH2 0x3154 JUMP JUMPDEST PUSH1 0x5 PUSH1 0x20 DUP3 ADD MSTORE PUSH1 0x0 DUP1 MLOAD PUSH1 0x20 PUSH2 0x382C DUP4 CODECOPY DUP2 MLOAD SWAP2 MSTORE PUSH1 0x40 PUSH1 0x4 CALLDATALOAD SWAP3 LOG2 PUSH1 0x1 DUP2 DUP2 ADD SLOAD PUSH1 0x0 DUP2 DUP2 MSTORE PUSH1 0x8 PUSH1 0x20 MSTORE PUSH1 0x40 DUP2 KECCAK256 DUP1 SLOAD SWAP5 SWAP4 SWAP2 JUMPDEST DUP6 DUP2 LT PUSH2 0x116F JUMPI JUMPDEST POP POP PUSH1 0x6 SWAP4 POP PUSH2 0x1105 JUMPI JUMPDEST POP ADD SLOAD PUSH1 0x40 MLOAD SWAP2 DUP3 MSTORE PUSH1 0x20 DUP3 ADD MSTORE PUSH32 0x8E25E132959EA22B5719CAB8C807D75B76E91DA52A2AF91BD58DF325FA6F5381 PUSH1 0x40 PUSH1 0x4 CALLDATALOAD SWAP3 LOG2 PUSH1 0x1 DUP1 SSTORE STOP JUMPDEST PUSH1 0x0 DUP2 DUP2 MSTORE PUSH1 0x4 PUSH1 0x20 MSTORE PUSH1 0x40 SWAP1 DUP2 SWAP1 KECCAK256 PUSH1 0x8 ADD DUP1 SLOAD PUSH1 0xFF PUSH1 0xA0 SHL NOT DUP2 AND PUSH1 0x3 PUSH1 0xA0 SHL OR SWAP1 SWAP2 SSTORE DUP2 MLOAD PUSH32 0xEED224251FF614714290287B931E052C4450C4615267685E4C60CE9D673D4D7F SWAP3 SWAP2 PUSH2 0x1161 SWAP1 DUP3 SWAP1 PUSH1 0xA0 SHR PUSH1 0xFF AND PUSH2 0x332D JUMP JUMPDEST PUSH1 0x3 PUSH1 0x20 DUP3 ADD MSTORE LOG2 DUP4 PUSH2 0x10C9 JUMP JUMPDEST PUSH2 0x1179 DUP2 DUP4 PUSH2 0x30FC JUMP JUMPDEST SWAP1 SLOAD SWAP1 PUSH1 0x3 SHL SHR PUSH1 0x0 MSTORE PUSH1 0x7 PUSH1 0x20 MSTORE PUSH1 0xFF PUSH1 0x5 PUSH1 0x40 PUSH1 0x0 KECCAK256 ADD SLOAD PUSH1 0x10 SHR AND PUSH1 0x6 DUP2 LT ISZERO PUSH2 0x4B6 JUMPI PUSH1 0x5 SUB PUSH2 0x11B5 JUMPI PUSH2 0x11B0 SWAP1 PUSH2 0x36DA JUMP JUMPDEST PUSH2 0x10B6 JUMP JUMPDEST POP POP POP PUSH1 0x6 SWAP3 POP PUSH1 0x0 DUP6 DUP1 PUSH2 0x10BE JUMP JUMPDEST PUSH1 0x2 SLOAD PUSH2 0x11E1 SWAP3 PUSH1 0x1 PUSH1 0x1 PUSH1 0xA0 SHL SUB SWAP1 DUP2 AND SWAP2 PUSH1 0x8 SHR AND PUSH2 0x3793 JUMP JUMPDEST DUP5 DUP1 PUSH2 0xEF2 JUMP JUMPDEST PUSH2 0x11F6 SWAP1 PUSH1 0xA DUP5 ADD SLOAD PUSH2 0x3447 JUMP JUMPDEST TIMESTAMP LT PUSH2 0x1202 JUMPI DUP3 PUSH2 0xEC0 JUMP JUMPDEST PUSH1 0x40 MLOAD PUSH3 0x461BCD PUSH1 0xE5 SHL DUP2 MSTORE PUSH1 0x20 PUSH1 0x4 DUP3 ADD MSTORE PUSH1 0x15 PUSH1 0x24 DUP3 ADD MSTORE PUSH21 0x14995B19585CD94819195B185E481B9BDD081B595D PUSH1 0x5A SHL PUSH1 0x44 DUP3 ADD MSTORE PUSH1 0x64 SWAP1 REVERT JUMPDEST PUSH1 0x40 MLOAD PUSH3 0x461BCD PUSH1 0xE5 SHL DUP2 MSTORE PUSH1 0x20 PUSH1 0x4 DUP3 ADD MSTORE PUSH1 0xC PUSH1 0x24 DUP3 ADD MSTORE PUSH12 0x139BDD08185C1C1C9BDD9959 PUSH1 0xA2 SHL PUSH1 0x44 DUP3 ADD MSTORE PUSH1 0x64 SWAP1 REVERT JUMPDEST CALLVALUE PUSH2 0x251 JUMPI PUSH1 0x0 CALLDATASIZE PUSH1 0x3 NOT ADD SLT PUSH2 0x251 JUMPI PUSH1 0x0 SLOAD PUSH1 0x40 MLOAD PUSH1 0x1 PUSH1 0x1 PUSH1 0xA0 SHL SUB SWAP1 SWAP2 AND DUP2 MSTORE PUSH1 0x20 SWAP1 RETURN JUMPDEST CALLVALUE PUSH2 0x251 JUMPI PUSH1 0x0 CALLDATASIZE PUSH1 0x3 NOT ADD SLT PUSH2 0x251 JUMPI PUSH2 0x12B5 PUSH2 0x3375 JUMP JUMPDEST PUSH1 0x2 SLOAD PUSH1 0xFF DUP2 AND PUSH2 0x12F7 JUMPI PUSH1 0x1 SWAP1 PUSH1 0xFF NOT AND OR PUSH1 0x2 SSTORE PUSH32 0x62E78CEA01BEE320CD4E420270B5EA74000D11B0C9F74754EBDBFC544B05A258 PUSH1 0x20 PUSH1 0x40 MLOAD CALLER DUP2 MSTORE LOG1 STOP JUMPDEST PUSH1 0x40 MLOAD PUSH3 0x461BCD PUSH1 0xE5 SHL DUP2 MSTORE PUSH1 0x20 PUSH1 0x4 DUP3 ADD MSTORE PUSH1 0x10 PUSH1 0x24 DUP3 ADD MSTORE PUSH16 0x14185D5CD8589B194E881C185D5CD959 PUSH1 0x82 SHL PUSH1 0x44 DUP3 ADD MSTORE PUSH1 0x64 SWAP1 REVERT JUMPDEST CALLVALUE PUSH2 0x251 JUMPI PUSH1 0x20 CALLDATASIZE PUSH1 0x3 NOT ADD SLT PUSH2 0x251 JUMPI PUSH2 0x1348 PUSH2 0x30BA JUMP JUMPDEST PUSH2 0x1350 PUSH2 0x3375 JUMP JUMPDEST PUSH1 0x1 PUSH1 0x1 PUSH1 0xA0 SHL SUB AND DUP1 ISZERO PUSH2 0x1377 JUMPI PUSH1 0x1 PUSH1 0x1 PUSH1 0x60 SHL SUB PUSH1 0xA0 SHL PUSH1 0x3 SLOAD AND OR PUSH1 0x3 SSTORE PUSH1 0x0 DUP1 RETURN JUMPDEST PUSH1 0x40 MLOAD PUSH3 0x461BCD PUSH1 0xE5 SHL DUP2 MSTORE PUSH1 0x20 PUSH1 0x4 DUP3 ADD MSTORE PUSH1 0x10 PUSH1 0x24 DUP3 ADD MSTORE PUSH16 0x496E76616C6964207472656173757279 PUSH1 0x80 SHL PUSH1 0x44 DUP3 ADD MSTORE PUSH1 0x64 SWAP1 REVERT JUMPDEST CALLVALUE PUSH2 0x251 JUMPI PUSH1 0x0 CALLDATASIZE PUSH1 0x3 NOT ADD SLT PUSH2 0x251 JUMPI PUSH1 0x2 SLOAD PUSH1 0x40 MLOAD PUSH1 0x8 SWAP2 SWAP1 SWAP2 SHR PUSH1 0x1 PUSH1 0x1 PUSH1 0xA0 SHL SUB AND DUP2 MSTORE PUSH1 0x20 SWAP1 RETURN JUMPDEST CALLVALUE PUSH2 0x251 JUMPI PUSH1 0xE0 CALLDATASIZE PUSH1 0x3 NOT ADD SLT PUSH2 0x251 JUMPI PUSH1 0x4 CALLDATALOAD PUSH1 0x1 PUSH1 0x1 PUSH1 0x40 SHL SUB DUP2 GT PUSH2 0x251 JUMPI PUSH2 0x140C SWAP1 CALLDATASIZE SWAP1 PUSH1 0x4 ADD PUSH2 0x3161 JUMP JUMPDEST PUSH1 0x24 CALLDATALOAD PUSH1 0x1 PUSH1 0x1 PUSH1 0x40 SHL SUB DUP2 GT PUSH2 0x251 JUMPI PUSH2 0x142B SWAP1 CALLDATASIZE SWAP1 PUSH1 0x4 ADD PUSH2 0x3161 JUMP JUMPDEST SWAP1 SWAP2 PUSH1 0x44 CALLDATALOAD SWAP2 PUSH1 0x60 CALLDATASIZE PUSH1 0x83 NOT ADD SLT PUSH2 0x251 JUMPI PUSH3 0xF4240 DUP4 LT PUSH2 0x184C JUMPI TIMESTAMP PUSH1 0x64 CALLDATALOAD GT ISZERO PUSH2 0x1814 JUMPI PUSH1 0x6 SLOAD PUSH1 0x40 MLOAD PUSH2 0x148C PUSH1 0x74 DUP3 PUSH1 0x20 DUP2 ADD SWAP5 CALLER PUSH1 0x60 SHL DUP7 MSTORE DUP8 DUP12 PUSH1 0x34 DUP5 ADD CALLDATACOPY DUP8 DUP3 ADD SWAP1 TIMESTAMP PUSH1 0x34 DUP4 ADD MSTORE PUSH1 0x54 DUP3 ADD MSTORE SUB PUSH1 0x54 DUP2 ADD DUP5 MSTORE ADD DUP3 PUSH2 0x3266 JUMP JUMPDEST MLOAD SWAP1 KECCAK256 SWAP4 DUP5 PUSH1 0x0 MSTORE PUSH1 0x4 PUSH1 0x20 MSTORE PUSH1 0x40 PUSH1 0x0 KECCAK256 SWAP2 DUP6 DUP4 SSTORE PUSH1 0x1 DUP4 ADD CALLER PUSH1 0x1 PUSH1 0x1 PUSH1 0x60 SHL SUB PUSH1 0xA0 SHL DUP3 SLOAD AND OR SWAP1 SSTORE PUSH1 0x1 PUSH1 0x1 PUSH1 0x40 SHL SUB DUP5 GT PUSH2 0x169D JUMPI PUSH2 0x14D3 PUSH1 0x2 DUP5 ADD SLOAD PUSH2 0x31BE JUMP JUMPDEST PUSH1 0x1F DUP2 GT PUSH2 0x17DF JUMPI JUMPDEST POP DUP4 PUSH1 0x0 PUSH1 0x1F DUP3 GT PUSH1 0x1 EQ PUSH2 0x1771 JUMPI PUSH1 0x0 SWAP2 PUSH2 0x1766 JUMPI JUMPDEST POP DUP5 PUSH1 0x1 SHL SWAP1 PUSH1 0x0 NOT DUP7 PUSH1 0x3 SHL SHR NOT AND OR PUSH1 0x2 DUP5 ADD SSTORE JUMPDEST PUSH1 0x3 DUP4 ADD SWAP2 PUSH1 0x1 PUSH1 0x1 PUSH1 0x40 SHL SUB DUP3 GT PUSH2 0x169D JUMPI DUP2 SWAP1 PUSH2 0x1529 DUP5 SLOAD PUSH2 0x31BE JUMP JUMPDEST PUSH1 0x1F DUP2 GT PUSH2 0x1729 JUMPI JUMPDEST POP PUSH1 0x0 SWAP1 PUSH1 0x1F DUP4 GT PUSH1 0x1 EQ PUSH2 0x16BE JUMPI PUSH1 0x0 SWAP3 PUSH2 0x16B3 JUMPI JUMPDEST POP POP DUP2 PUSH1 0x1 SHL SWAP2 PUSH1 0x0 NOT SWAP1 PUSH1 0x3 SHL SHR NOT AND OR SWAP1 SSTORE JUMPDEST DUP3 PUSH1 0x4 DUP3 ADD SSTORE PUSH1 0x2 SLOAD SWAP1 PUSH1 0x8 DUP2 ADD PUSH1 0x1 DUP1 PUSH1 0xA0 SHL SUB DUP1 SWAP4 PUSH1 0x8 SHR AND PUSH11 0xFFFFFFFFFFFFFFFFFFFFFF PUSH1 0xA8 SHL DUP3 SLOAD AND OR SWAP1 SSTORE TIMESTAMP PUSH1 0x9 DUP3 ADD SSTORE PUSH1 0xA PUSH1 0x64 CALLDATALOAD SWAP2 ADD SSTORE DUP4 PUSH1 0x0 MSTORE PUSH1 0x9 PUSH1 0x20 MSTORE PUSH1 0x40 PUSH1 0x0 KECCAK256 PUSH1 0x84 CALLDATALOAD PUSH1 0xFF DUP2 AND DUP1 SWAP2 SUB PUSH2 0x251 JUMPI DUP2 SLOAD SWAP1 PUSH1 0xA4 CALLDATALOAD DUP1 ISZERO ISZERO DUP1 SWAP2 SUB PUSH2 0x251 JUMPI PUSH2 0xFF00 SWAP1 PUSH1 0x8 SHL AND SWAP2 PUSH2 0xFFFF NOT AND OR OR DUP2 SSTORE PUSH1 0x1 PUSH1 0xC4 CALLDATALOAD SWAP2 ADD SSTORE CALLER PUSH1 0x0 MSTORE PUSH1 0x5 PUSH1 0x20 MSTORE PUSH2 0x15F9 DUP5 PUSH1 0x40 PUSH1 0x0 KECCAK256 PUSH2 0x33E4 JUMP JUMPDEST PUSH1 0x6 SLOAD SWAP2 PUSH1 0x1 PUSH1 0x40 SHL DUP4 LT ISZERO PUSH2 0x169D JUMPI PUSH1 0x1 DUP4 ADD DUP1 PUSH1 0x6 SSTORE DUP4 LT ISZERO PUSH2 0x100D JUMPI PUSH1 0x20 SWAP6 PUSH2 0x1685 PUSH32 0x245989BFCB89A8E90C2AAD204C9AB83BBAC0F277372DFEA13CBFD55E9114061D SWAP4 DUP8 DUP1 SWAP7 PUSH1 0x6 PUSH1 0x0 MSTORE PUSH32 0xF652222313E28459528D920B65115C16C04F3EFC82AAEDC97BE59F3F377C0D3F ADD SSTORE PUSH1 0x2 SLOAD PUSH1 0x8 SHR AND SWAP2 PUSH1 0x40 MLOAD SWAP4 PUSH1 0x60 DUP6 MSTORE PUSH1 0x60 DUP6 ADD SWAP2 PUSH2 0x3419 JUMP JUMPDEST SWAP5 DUP8 DUP4 ADD MSTORE PUSH1 0x40 DUP3 ADD MSTORE DUP1 CALLER SWAP5 SUB SWAP1 LOG3 PUSH1 0x40 MLOAD SWAP1 DUP2 MSTORE RETURN JUMPDEST PUSH4 0x4E487B71 PUSH1 0xE0 SHL PUSH1 0x0 MSTORE PUSH1 0x41 PUSH1 0x4 MSTORE PUSH1 0x24 PUSH1 0x0 REVERT JUMPDEST ADD CALLDATALOAD SWAP1 POP DUP9 DUP1 PUSH2 0x1549 JUMP JUMPDEST SWAP1 SWAP2 POP PUSH1 0x1F NOT DUP4 AND SWAP2 DUP5 PUSH1 0x0 MSTORE PUSH1 0x20 PUSH1 0x0 KECCAK256 SWAP3 PUSH1 0x0 JUMPDEST DUP2 DUP2 LT PUSH2 0x1711 JUMPI POP SWAP1 DUP5 PUSH1 0x1 SWAP6 SWAP5 SWAP4 SWAP3 LT PUSH2 0x16F7 JUMPI JUMPDEST POP POP POP DUP2 SHL ADD SWAP1 SSTORE PUSH2 0x155E JUMP JUMPDEST ADD CALLDATALOAD PUSH1 0x0 NOT PUSH1 0x3 DUP5 SWAP1 SHL PUSH1 0xF8 AND SHR NOT AND SWAP1 SSTORE DUP9 DUP1 DUP1 PUSH2 0x16EA JUMP JUMPDEST SWAP2 SWAP4 PUSH1 0x20 PUSH1 0x1 DUP2 SWAP3 DUP8 DUP8 ADD CALLDATALOAD DUP2 SSTORE ADD SWAP6 ADD SWAP3 ADD PUSH2 0x16D4 JUMP JUMPDEST PUSH2 0x1756 SWAP1 DUP6 PUSH1 0x0 MSTORE PUSH1 0x20 PUSH1 0x0 KECCAK256 PUSH1 0x1F DUP6 ADD PUSH1 0x5 SHR DUP2 ADD SWAP2 PUSH1 0x20 DUP7 LT PUSH2 0x175C JUMPI JUMPDEST PUSH1 0x1F ADD PUSH1 0x5 SHR ADD SWAP1 PUSH2 0x33CD JUMP JUMPDEST DUP10 PUSH2 0x1532 JUMP JUMPDEST SWAP1 SWAP2 POP DUP2 SWAP1 PUSH2 0x1749 JUMP JUMPDEST SWAP1 POP DUP8 ADD CALLDATALOAD DUP9 PUSH2 0x14F3 JUMP JUMPDEST SWAP1 POP PUSH1 0x2 DUP5 ADD PUSH1 0x0 MSTORE PUSH1 0x20 PUSH1 0x0 KECCAK256 SWAP1 PUSH1 0x0 JUMPDEST PUSH1 0x1F NOT DUP8 AND DUP2 LT PUSH2 0x17C7 JUMPI POP DUP6 PUSH1 0x1F NOT DUP2 AND LT PUSH2 0x17AD JUMPI JUMPDEST POP POP PUSH1 0x1 DUP5 DUP2 SHL ADD PUSH1 0x2 DUP5 ADD SSTORE PUSH2 0x150A JUMP JUMPDEST DUP9 ADD CALLDATALOAD PUSH1 0x0 NOT PUSH1 0x3 DUP8 SWAP1 SHL PUSH1 0xF8 AND SHR NOT AND SWAP1 SSTORE DUP8 DUP1 PUSH2 0x179B JUMP JUMPDEST SWAP1 SWAP2 PUSH1 0x20 PUSH1 0x1 DUP2 SWAP3 DUP6 DUP14 ADD CALLDATALOAD DUP2 SSTORE ADD SWAP4 ADD SWAP2 ADD PUSH2 0x1783 JUMP JUMPDEST PUSH2 0x180E SWAP1 PUSH1 0x2 DUP6 ADD PUSH1 0x0 MSTORE PUSH1 0x20 PUSH1 0x0 KECCAK256 PUSH1 0x1F DUP8 ADD PUSH1 0x5 SHR DUP2 ADD SWAP2 PUSH1 0x20 DUP9 LT PUSH2 0x175C JUMPI PUSH1 0x1F ADD PUSH1 0x5 SHR ADD SWAP1 PUSH2 0x33CD JUMP JUMPDEST DUP8 PUSH2 0x14DC JUMP JUMPDEST PUSH1 0x40 MLOAD PUSH3 0x461BCD PUSH1 0xE5 SHL DUP2 MSTORE PUSH1 0x20 PUSH1 0x4 DUP3 ADD MSTORE PUSH1 0x10 PUSH1 0x24 DUP3 ADD MSTORE PUSH16 0x496E76616C696420646561646C696E65 PUSH1 0x80 SHL PUSH1 0x44 DUP3 ADD MSTORE PUSH1 0x64 SWAP1 REVERT JUMPDEST PUSH1 0x40 MLOAD PUSH3 0x461BCD PUSH1 0xE5 SHL DUP2 MSTORE PUSH1 0x20 PUSH1 0x4 DUP3 ADD MSTORE PUSH1 0xE PUSH1 0x24 DUP3 ADD MSTORE PUSH14 0x42756467657420746F6F206C6F77 PUSH1 0x90 SHL PUSH1 0x44 DUP3 ADD MSTORE PUSH1 0x64 SWAP1 REVERT JUMPDEST CALLVALUE PUSH2 0x251 JUMPI PUSH1 0x20 DUP1 PUSH1 0x3 NOT CALLDATASIZE ADD SLT PUSH2 0x251 JUMPI PUSH1 0x4 CALLDATALOAD SWAP1 DUP2 PUSH1 0x0 MSTORE PUSH1 0x4 DUP2 MSTORE PUSH2 0x18BB PUSH1 0x1 DUP1 PUSH1 0xA0 SHL SUB PUSH1 0x1 PUSH1 0x40 PUSH1 0x0 KECCAK256 ADD SLOAD AND CALLER EQ PUSH2 0x369D JUMP JUMPDEST DUP2 PUSH1 0x0 MSTORE PUSH1 0x4 DUP2 MSTORE PUSH1 0xFF PUSH1 0x8 PUSH1 0x40 PUSH1 0x0 KECCAK256 ADD SLOAD PUSH1 0xA0 SHR AND PUSH1 0x5 DUP2 LT ISZERO PUSH2 0x4B6 JUMPI PUSH1 0x1 SUB PUSH2 0x1983 JUMPI DUP2 PUSH1 0x0 MSTORE PUSH1 0x8 DUP2 MSTORE PUSH1 0x40 PUSH1 0x0 KECCAK256 SLOAD ISZERO PUSH2 0x194F JUMPI PUSH1 0x40 PUSH1 0xFF PUSH1 0x2 PUSH32 0xEED224251FF614714290287B931E052C4450C4615267685E4C60CE9D673D4D7F SWAP4 DUP6 PUSH1 0x0 MSTORE PUSH1 0x4 DUP2 MSTORE PUSH2 0x8E9 PUSH1 0x8 DUP6 PUSH1 0x0 KECCAK256 ADD DUP1 SLOAD SWAP1 PUSH1 0x1 PUSH1 0xA1 SHL DUP7 PUSH1 0xA0 SHL NOT DUP4 AND OR SWAP1 SSTORE DUP6 MLOAD SWAP5 DUP6 SWAP2 PUSH1 0xA0 SHR AND PUSH2 0x332D JUMP JUMPDEST PUSH1 0x64 SWAP1 PUSH1 0x40 MLOAD SWAP1 PUSH3 0x461BCD PUSH1 0xE5 SHL DUP3 MSTORE PUSH1 0x4 DUP3 ADD MSTORE PUSH1 0xD PUSH1 0x24 DUP3 ADD MSTORE PUSH13 0x4E6F206D696C6573746F6E6573 PUSH1 0x98 SHL PUSH1 0x44 DUP3 ADD MSTORE REVERT JUMPDEST PUSH1 0x64 SWAP1 PUSH1 0x40 MLOAD SWAP1 PUSH3 0x461BCD PUSH1 0xE5 SHL DUP3 MSTORE PUSH1 0x4 DUP3 ADD MSTORE PUSH1 0xA PUSH1 0x24 DUP3 ADD MSTORE PUSH10 0x139BDD08199D5B991959 PUSH1 0xB2 SHL PUSH1 0x44 DUP3 ADD MSTORE REVERT JUMPDEST CALLVALUE PUSH2 0x251 JUMPI PUSH1 0x0 CALLDATASIZE PUSH1 0x3 NOT ADD SLT PUSH2 0x251 JUMPI PUSH2 0x19CD PUSH2 0x3375 JUMP JUMPDEST PUSH1 0x0 DUP1 SLOAD PUSH1 0x1 PUSH1 0x1 PUSH1 0xA0 SHL SUB NOT DUP2 AND DUP3 SSTORE PUSH1 0x1 PUSH1 0x1 PUSH1 0xA0 SHL SUB AND PUSH32 0x8BE0079C531659141344CD1FD0A4F28419497F9722A3DAAFE3B4186F6B6457E0 DUP3 DUP1 LOG3 STOP JUMPDEST CALLVALUE PUSH2 0x251 JUMPI PUSH1 0xC0 CALLDATASIZE PUSH1 0x3 NOT ADD SLT PUSH2 0x251 JUMPI PUSH1 0x24 CALLDATALOAD PUSH1 0x1 PUSH1 0x1 PUSH1 0x40 SHL SUB DUP2 GT PUSH2 0x251 JUMPI PUSH2 0x1A3D SWAP1 CALLDATASIZE SWAP1 PUSH1 0x4 ADD PUSH2 0x3161 JUMP JUMPDEST SWAP1 PUSH1 0x44 CALLDATALOAD PUSH1 0x1 PUSH1 0x1 PUSH1 0x40 SHL SUB DUP2 GT PUSH2 0x251 JUMPI PUSH2 0x1A5D SWAP1 CALLDATASIZE SWAP1 PUSH1 0x4 ADD PUSH2 0x3161 JUMP JUMPDEST SWAP1 SWAP3 PUSH1 0x64 CALLDATALOAD SWAP3 PUSH2 0xFFFF DUP5 AND DUP5 SUB PUSH2 0x251 JUMPI PUSH1 0x84 CALLDATALOAD PUSH1 0x1 PUSH1 0x1 PUSH1 0x40 SHL SUB DUP2 GT PUSH2 0x251 JUMPI PUSH2 0x1A8D SWAP1 CALLDATASIZE SWAP1 PUSH1 0x4 ADD PUSH2 0x318E JUMP JUMPDEST SWAP1 PUSH1 0xA4 CALLDATALOAD PUSH1 0x1 PUSH1 0x1 PUSH1 0x40 SHL SUB DUP2 GT PUSH2 0x251 JUMPI PUSH2 0x1AAD SWAP1 CALLDATASIZE SWAP1 PUSH1 0x4 ADD PUSH2 0x318E JUMP JUMPDEST SWAP2 PUSH1 0x4 CALLDATALOAD PUSH1 0x0 MSTORE PUSH1 0x4 PUSH1 0x20 MSTORE PUSH2 0x1AD4 PUSH1 0x1 DUP1 PUSH1 0xA0 SHL SUB PUSH1 0x1 PUSH1 0x40 PUSH1 0x0 KECCAK256 ADD SLOAD AND CALLER EQ PUSH2 0x369D JUMP JUMPDEST PUSH1 0x4 CALLDATALOAD PUSH1 0x0 MSTORE PUSH1 0x4 PUSH1 0x20 MSTORE PUSH1 0x40 PUSH1 0x0 KECCAK256 SWAP4 PUSH1 0xFF PUSH1 0x8 DUP7 ADD SLOAD PUSH1 0xA0 SHR AND PUSH1 0x5 DUP2 LT ISZERO PUSH2 0x4B6 JUMPI DUP1 ISZERO SWAP1 DUP2 ISZERO PUSH2 0x21BD JUMPI JUMPDEST POP ISZERO PUSH2 0x2180 JUMPI PUSH1 0x4 CALLDATALOAD PUSH1 0x0 MSTORE PUSH1 0x8 PUSH1 0x20 MSTORE PUSH1 0x14 PUSH1 0x40 PUSH1 0x0 KECCAK256 SLOAD LT ISZERO PUSH2 0x2145 JUMPI DUP4 DUP2 SUB PUSH2 0x210E JUMPI PUSH2 0x2710 PUSH2 0xFFFF DUP11 AND GT PUSH2 0x20D7 JUMPI PUSH1 0x0 DUP1 JUMPDEST DUP6 DUP2 LT PUSH2 0x2092 JUMPI POP PUSH2 0xFFFF PUSH2 0x2710 SWAP2 AND SUB PUSH2 0x2054 JUMPI PUSH1 0x4 CALLDATALOAD PUSH1 0x0 MSTORE PUSH1 0x8 PUSH1 0x20 MSTORE PUSH1 0x40 PUSH1 0x0 KECCAK256 SLOAD PUSH1 0x40 MLOAD PUSH2 0x1B97 PUSH1 0x80 DUP3 PUSH1 0x20 DUP2 ADD SWAP5 PUSH1 0x4 CALLDATALOAD DUP7 MSTORE DUP13 DUP13 PUSH1 0x40 DUP5 ADD CALLDATACOPY DUP13 DUP3 ADD SWAP1 TIMESTAMP PUSH1 0x40 DUP4 ADD MSTORE PUSH1 0x60 DUP3 ADD MSTORE SUB PUSH1 0x60 DUP2 ADD DUP5 MSTORE ADD DUP3 PUSH2 0x3266 JUMP JUMPDEST MLOAD SWAP1 KECCAK256 SWAP9 PUSH2 0x2710 PUSH2 0x1BB0 PUSH2 0xFFFF DUP4 AND PUSH1 0x4 DUP10 ADD SLOAD PUSH2 0x36F8 JUMP JUMPDEST DIV SWAP9 DUP11 PUSH1 0x0 MSTORE PUSH1 0x7 PUSH1 0x20 MSTORE PUSH1 0x40 PUSH1 0x0 KECCAK256 SWAP12 DUP12 DUP14 SSTORE DUP13 PUSH1 0x1 PUSH1 0x4 CALLDATALOAD SWAP2 ADD SSTORE PUSH1 0x1 PUSH1 0x1 PUSH1 0x40 SHL SUB DUP11 GT PUSH2 0x169D JUMPI DUP13 DUP11 PUSH2 0x1BEA PUSH1 0x2 DUP4 ADD SLOAD PUSH2 0x31BE JUMP JUMPDEST PUSH1 0x1F DUP2 GT PUSH2 0x201E JUMPI JUMPDEST POP POP POP PUSH1 0x0 DUP14 DUP12 PUSH1 0x1F DUP2 GT PUSH1 0x1 EQ PUSH2 0x1FB0 JUMPI PUSH1 0x2 SWAP2 SWAP3 PUSH1 0x0 SWAP2 PUSH2 0x1FA5 JUMPI JUMPDEST POP PUSH1 0x0 NOT PUSH1 0x3 DUP15 SWAP1 SHL SHR NOT AND PUSH1 0x1 DUP14 SWAP1 SHL OR SWAP2 ADD SSTORE JUMPDEST PUSH1 0x1 PUSH1 0x1 PUSH1 0x40 SHL SUB DUP3 GT PUSH2 0x169D JUMPI DUP13 DUP3 SWAP2 PUSH2 0x1C45 PUSH1 0x3 DUP4 ADD SLOAD PUSH2 0x31BE JUMP JUMPDEST PUSH1 0x1F DUP2 GT PUSH2 0x1F70 JUMPI JUMPDEST POP PUSH1 0x0 SWAP2 PUSH1 0x1F DUP5 GT PUSH1 0x1 EQ PUSH2 0x1F02 JUMPI POP PUSH1 0x0 SWAP3 PUSH2 0x1EF7 JUMPI JUMPDEST POP POP DUP2 PUSH1 0x1 SHL SWAP2 PUSH1 0x0 NOT SWAP1 PUSH1 0x3 SHL SHR NOT AND OR PUSH1 0x3 DUP13 ADD SSTORE JUMPDEST DUP9 PUSH1 0x4 DUP13 ADD SSTORE PUSH2 0xFFFF PUSH1 0x5 DUP13 ADD SWAP2 AND PUSH3 0xFFFFFF NOT DUP3 SLOAD AND OR SWAP1 SSTORE PUSH1 0x1 PUSH1 0x1 PUSH1 0x40 SHL SUB DUP2 GT PUSH2 0x169D JUMPI PUSH1 0x1 PUSH1 0x40 SHL DUP2 GT PUSH2 0x169D JUMPI PUSH1 0x6 DUP11 ADD SWAP2 DUP3 SLOAD DUP3 DUP5 SSTORE DUP1 DUP4 LT PUSH2 0x1ED9 JUMPI JUMPDEST POP SWAP2 PUSH1 0x0 MSTORE PUSH1 0x20 PUSH1 0x0 KECCAK256 SWAP2 PUSH1 0x0 SWAP1 JUMPDEST DUP3 DUP3 LT PUSH2 0x1EB4 JUMPI POP POP POP POP PUSH1 0x1 PUSH1 0x1 PUSH1 0x40 SHL SUB DUP3 GT PUSH2 0x169D JUMPI PUSH1 0x1 PUSH1 0x40 SHL DUP3 GT PUSH2 0x169D JUMPI PUSH1 0x7 SWAP1 DUP2 DUP10 ADD SLOAD DUP4 DUP4 DUP12 ADD SSTORE DUP1 DUP5 LT PUSH2 0x1E58 JUMPI JUMPDEST POP SWAP8 ADD PUSH1 0x0 MSTORE PUSH1 0x20 PUSH1 0x0 KECCAK256 SWAP1 PUSH1 0x0 JUMPDEST DUP2 PUSH1 0x4 SHR DUP2 LT PUSH2 0x1E0B JUMPI POP PUSH1 0xF NOT DUP2 AND DUP1 DUP3 SUB PUSH2 0x1DAC JUMPI JUMPDEST PUSH1 0x20 DUP9 DUP9 DUP2 PUSH32 0xECE253303648E985FBB085CE4251BE0194AD59BB1B95A022D47A6A015344564 DUP11 PUSH2 0x1D97 DUP12 PUSH1 0x6 DUP13 PUSH1 0x4 CALLDATALOAD PUSH1 0x0 MSTORE PUSH1 0x8 DUP11 MSTORE PUSH2 0x1D77 DUP8 PUSH1 0x40 PUSH1 0x0 KECCAK256 PUSH2 0x33E4 JUMP JUMPDEST ADD PUSH2 0x1D83 DUP8 DUP3 SLOAD PUSH2 0x3447 JUMP JUMPDEST SWAP1 SSTORE PUSH1 0x40 MLOAD SWAP3 PUSH1 0x40 DUP5 MSTORE PUSH1 0x40 DUP5 ADD SWAP2 PUSH2 0x3419 JUMP JUMPDEST SWAP4 DUP7 DUP3 ADD MSTORE DUP1 PUSH1 0x4 CALLDATALOAD SWAP5 SUB SWAP1 LOG3 PUSH1 0x40 MLOAD SWAP1 DUP2 MSTORE RETURN JUMPDEST SWAP8 PUSH1 0x0 SWAP9 PUSH1 0x0 JUMPDEST DUP2 DUP5 SUB DUP2 LT PUSH2 0x1DD5 JUMPI POP POP POP PUSH1 0x4 SHR ADD SWAP6 SWAP1 SWAP6 SSTORE PUSH1 0x20 SWAP5 PUSH2 0x1D97 DUP3 PUSH1 0x6 PUSH2 0x1D31 JUMP JUMPDEST SWAP1 SWAP2 SWAP10 PUSH1 0x20 PUSH2 0x1E01 PUSH1 0x1 SWAP3 PUSH2 0x1DE9 DUP15 PUSH2 0x36E9 JUMP JUMPDEST SWAP1 DUP6 DUP6 SHL PUSH1 0x3 SHL SWAP2 PUSH2 0xFFFF DUP1 SWAP2 AND DUP4 SHL SWAP3 SHL NOT AND OR SWAP1 JUMP JUMPDEST SWAP12 ADD SWAP3 SWAP2 ADD PUSH2 0x1DB3 JUMP JUMPDEST PUSH1 0x0 DUP1 JUMPDEST PUSH1 0x10 DUP2 LT PUSH2 0x1E24 JUMPI POP DUP4 DUP3 ADD SSTORE PUSH1 0x1 ADD PUSH2 0x1D19 JUMP JUMPDEST SWAP10 SWAP1 PUSH1 0x20 PUSH2 0x1E4F DUP13 PUSH1 0x1 SWAP4 PUSH2 0x1E38 DUP7 PUSH2 0x36E9 JUMP JUMPDEST SWAP2 DUP6 SHL PUSH1 0x3 SHL SWAP2 PUSH2 0xFFFF DUP1 SWAP2 AND DUP4 SHL SWAP3 SHL NOT AND OR SWAP1 JUMP JUMPDEST SWAP3 ADD SWAP11 ADD PUSH2 0x1E0F JUMP JUMPDEST PUSH2 0x1E8C SWAP1 DUP4 DUP12 ADD PUSH1 0x0 MSTORE PUSH1 0xF PUSH1 0x20 PUSH1 0x0 KECCAK256 SWAP2 PUSH1 0x1E DUP8 PUSH1 0x1 SHL AND DUP1 PUSH2 0x1E92 JUMPI JUMPDEST POP ADD PUSH1 0x4 SHR DUP2 ADD SWAP1 PUSH1 0xF DUP7 ADD PUSH1 0x4 SHR ADD PUSH2 0x33CD JUMP JUMPDEST DUP10 PUSH2 0x1D0A JUMP JUMPDEST PUSH1 0x0 NOT SWAP1 DUP2 DUP5 DUP11 ADD PUSH1 0x4 SHR DUP7 ADD ADD SWAP2 DUP3 SLOAD SWAP2 PUSH1 0x20 SUB PUSH1 0x3 SHL SHR AND SWAP1 SSTORE DUP14 PUSH2 0x1E77 JUMP JUMPDEST DUP1 CALLDATALOAD SWAP2 PUSH1 0x1 PUSH1 0x1 PUSH1 0xA0 SHL SUB DUP4 AND DUP4 SUB PUSH2 0x251 JUMPI PUSH1 0x20 PUSH1 0x1 SWAP3 ADD SWAP3 DUP2 DUP7 ADD SSTORE ADD SWAP1 PUSH2 0x1CD2 JUMP JUMPDEST PUSH2 0x1EF1 SWAP1 DUP5 PUSH1 0x0 MSTORE DUP4 PUSH1 0x20 PUSH1 0x0 KECCAK256 SWAP2 DUP3 ADD SWAP2 ADD PUSH2 0x33CD JUMP JUMPDEST DUP12 PUSH2 0x1CC3 JUMP JUMPDEST ADD CALLDATALOAD SWAP1 POP DUP14 DUP1 PUSH2 0x1C66 JUMP JUMPDEST PUSH1 0x3 ADD PUSH1 0x0 SWAP1 DUP2 MSTORE PUSH1 0x20 DUP2 KECCAK256 SWAP1 SWAP5 POP SWAP2 JUMPDEST PUSH1 0x1F NOT DUP5 AND DUP6 LT PUSH2 0x1F58 JUMPI PUSH1 0x1 SWAP5 POP DUP4 PUSH1 0x1F NOT DUP2 AND LT PUSH2 0x1F3E JUMPI JUMPDEST POP POP POP DUP2 SHL ADD PUSH1 0x3 DUP13 ADD SSTORE PUSH2 0x1C7E JUMP JUMPDEST ADD CALLDATALOAD PUSH1 0x0 NOT PUSH1 0x3 DUP5 SWAP1 SHL PUSH1 0xF8 AND SHR NOT AND SWAP1 SSTORE DUP14 DUP1 DUP1 PUSH2 0x1F2E JUMP JUMPDEST DUP2 DUP2 ADD CALLDATALOAD DUP4 SSTORE PUSH1 0x20 SWAP5 DUP6 ADD SWAP5 PUSH1 0x1 SWAP1 SWAP4 ADD SWAP3 ADD PUSH2 0x1F13 JUMP JUMPDEST PUSH2 0x1F9F SWAP1 PUSH1 0x3 DUP5 ADD PUSH1 0x0 MSTORE PUSH1 0x20 PUSH1 0x0 KECCAK256 PUSH1 0x1F DUP7 ADD PUSH1 0x5 SHR DUP2 ADD SWAP2 PUSH1 0x20 DUP8 LT PUSH2 0x175C JUMPI PUSH1 0x1F ADD PUSH1 0x5 SHR ADD SWAP1 PUSH2 0x33CD JUMP JUMPDEST DUP16 PUSH2 0x1C4E JUMP JUMPDEST SWAP1 POP DUP12 ADD CALLDATALOAD CODESIZE PUSH2 0x1C11 JUMP JUMPDEST POP PUSH1 0x2 ADD PUSH1 0x0 MSTORE PUSH1 0x20 PUSH1 0x0 KECCAK256 SWAP1 PUSH1 0x0 JUMPDEST DUP12 PUSH1 0x1F NOT DUP15 AND DUP3 LT PUSH2 0x2006 JUMPI POP POP DUP12 PUSH1 0x1F NOT DUP2 AND LT PUSH2 0x1FEC JUMPI JUMPDEST POP POP PUSH1 0x1 DUP11 DUP2 SHL ADD PUSH1 0x2 DUP15 ADD SSTORE PUSH2 0x1C27 JUMP JUMPDEST DUP11 ADD CALLDATALOAD PUSH1 0x0 NOT PUSH1 0x3 DUP14 SWAP1 SHL PUSH1 0xF8 AND SHR NOT AND SWAP1 SSTORE DUP14 DUP1 PUSH2 0x1FDA JUMP JUMPDEST PUSH1 0x1 DUP4 SWAP5 PUSH1 0x20 SWAP4 SWAP5 DUP5 SWAP4 ADD CALLDATALOAD DUP2 SSTORE ADD SWAP4 ADD SWAP2 ADD PUSH2 0x1FC0 JUMP JUMPDEST PUSH1 0x2 PUSH2 0x204C SWAP4 ADD PUSH1 0x0 MSTORE PUSH1 0x20 PUSH1 0x0 KECCAK256 SWAP1 PUSH1 0x20 PUSH1 0x1F DUP5 ADD PUSH1 0x5 SHR DUP4 ADD SWAP4 LT PUSH2 0x175C JUMPI PUSH1 0x1F ADD PUSH1 0x5 SHR ADD SWAP1 PUSH2 0x33CD JUMP JUMPDEST DUP13 DUP11 DUP16 PUSH2 0x1BF3 JUMP JUMPDEST PUSH1 0x40 MLOAD PUSH3 0x461BCD PUSH1 0xE5 SHL DUP2 MSTORE PUSH1 0x20 PUSH1 0x4 DUP3 ADD MSTORE PUSH1 0x16 PUSH1 0x24 DUP3 ADD MSTORE PUSH22 0x536861726573206D75737420657175616C2031303025 PUSH1 0x50 SHL PUSH1 0x44 DUP3 ADD MSTORE PUSH1 0x64 SWAP1 REVERT JUMPDEST SWAP1 PUSH2 0xFFFF DUP1 PUSH2 0x20A5 DUP5 PUSH1 0x5 SHL DUP9 ADD PUSH2 0x36E9 JUMP JUMPDEST AND SWAP2 AND ADD PUSH2 0xFFFF DUP2 GT PUSH2 0x20C1 JUMPI PUSH2 0x20BC SWAP1 SWAP2 PUSH2 0x36DA JUMP JUMPDEST PUSH2 0x1B3A JUMP JUMPDEST PUSH4 0x4E487B71 PUSH1 0xE0 SHL PUSH1 0x0 MSTORE PUSH1 0x11 PUSH1 0x4 MSTORE PUSH1 0x24 PUSH1 0x0 REVERT JUMPDEST PUSH1 0x40 MLOAD PUSH3 0x461BCD PUSH1 0xE5 SHL DUP2 MSTORE PUSH1 0x20 PUSH1 0x4 DUP3 ADD MSTORE PUSH1 0xF PUSH1 0x24 DUP3 ADD MSTORE PUSH15 0x125B9D985B1A59081C195C98D95B9D PUSH1 0x8A SHL PUSH1 0x44 DUP3 ADD MSTORE PUSH1 0x64 SWAP1 REVERT JUMPDEST PUSH1 0x40 MLOAD PUSH3 0x461BCD PUSH1 0xE5 SHL DUP2 MSTORE PUSH1 0x20 PUSH1 0x4 DUP3 ADD MSTORE PUSH1 0xF PUSH1 0x24 DUP3 ADD MSTORE PUSH15 0x98CADCCEE8D040DAD2E6DAC2E8C6D PUSH1 0x8B SHL PUSH1 0x44 DUP3 ADD MSTORE PUSH1 0x64 SWAP1 REVERT JUMPDEST PUSH1 0x40 MLOAD PUSH3 0x461BCD PUSH1 0xE5 SHL DUP2 MSTORE PUSH1 0x20 PUSH1 0x4 DUP3 ADD MSTORE PUSH1 0x13 PUSH1 0x24 DUP3 ADD MSTORE PUSH19 0x546F6F206D616E79206D696C6573746F6E6573 PUSH1 0x68 SHL PUSH1 0x44 DUP3 ADD MSTORE PUSH1 0x64 SWAP1 REVERT JUMPDEST PUSH1 0x40 MLOAD PUSH3 0x461BCD PUSH1 0xE5 SHL DUP2 MSTORE PUSH1 0x20 PUSH1 0x4 DUP3 ADD MSTORE PUSH1 0x15 PUSH1 0x24 DUP3 ADD MSTORE PUSH21 0x506F6F6C206E6F7420636F6E666967757261626C65 PUSH1 0x58 SHL PUSH1 0x44 DUP3 ADD MSTORE PUSH1 0x64 SWAP1 REVERT JUMPDEST PUSH1 0x1 SWAP2 POP EQ DUP12 PUSH2 0x1B03 JUMP JUMPDEST CALLVALUE PUSH2 0x251 JUMPI PUSH1 0x20 CALLDATASIZE PUSH1 0x3 NOT ADD SLT PUSH2 0x251 JUMPI PUSH1 0x0 PUSH2 0x1A0 PUSH1 0x40 MLOAD PUSH2 0x21EA DUP2 PUSH2 0x322E JUMP JUMPDEST DUP3 DUP2 MSTORE DUP3 PUSH1 0x20 DUP3 ADD MSTORE PUSH1 0x60 PUSH1 0x40 DUP3 ADD MSTORE PUSH1 0x60 DUP1 DUP3 ADD MSTORE DUP3 PUSH1 0x80 DUP3 ADD MSTORE DUP3 PUSH1 0xA0 DUP3 ADD MSTORE DUP3 PUSH1 0xC0 DUP3 ADD MSTORE PUSH1 0x60 PUSH1 0xE0 DUP3 ADD MSTORE PUSH1 0x60 PUSH2 0x100 DUP3 ADD MSTORE DUP3 PUSH2 0x120 DUP3 ADD MSTORE DUP3 PUSH2 0x140 DUP3 ADD MSTORE DUP3 PUSH2 0x160 DUP3 ADD MSTORE DUP3 PUSH2 0x180 DUP3 ADD MSTORE ADD MSTORE PUSH1 0x4 CALLDATALOAD PUSH1 0x0 MSTORE PUSH1 0x7 PUSH1 0x20 MSTORE PUSH1 0x40 PUSH1 0x0 KECCAK256 PUSH1 0x40 MLOAD PUSH2 0x225B DUP2 PUSH2 0x322E JUMP JUMPDEST DUP2 SLOAD DUP2 MSTORE PUSH1 0x1 DUP3 ADD SLOAD PUSH1 0x20 DUP3 ADD MSTORE PUSH2 0x2275 PUSH1 0x2 DUP4 ADD PUSH2 0x3287 JUMP JUMPDEST PUSH1 0x40 DUP3 ADD MSTORE PUSH2 0x2286 PUSH1 0x3 DUP4 ADD PUSH2 0x3287 JUMP JUMPDEST PUSH1 0x60 DUP3 ADD MSTORE PUSH1 0x4 DUP3 ADD SLOAD PUSH1 0x80 DUP3 ADD MSTORE PUSH1 0x5 DUP3 ADD SLOAD PUSH2 0xFFFF DUP2 AND PUSH1 0xA0 DUP4 ADD MSTORE PUSH1 0x6 PUSH1 0xFF DUP3 PUSH1 0x10 SHR AND LT ISZERO PUSH2 0x4B6 JUMPI PUSH1 0xFF SWAP1 PUSH1 0x10 SHR AND PUSH1 0xC0 DUP3 ADD MSTORE PUSH1 0x40 MLOAD DUP1 DUP2 PUSH1 0x6 DUP6 ADD PUSH1 0x20 DUP2 SLOAD SWAP4 DUP5 DUP2 MSTORE ADD SWAP1 PUSH1 0x0 MSTORE PUSH1 0x20 PUSH1 0x0 KECCAK256 SWAP3 PUSH1 0x0 JUMPDEST DUP2 DUP2 LT PUSH2 0x27A5 JUMPI POP POP PUSH2 0x22F3 SWAP3 POP SUB DUP3 PUSH2 0x3266 JUMP JUMPDEST PUSH1 0xE0 DUP3 ADD MSTORE PUSH1 0x40 MLOAD SWAP2 DUP3 PUSH1 0x20 PUSH1 0x7 DUP4 ADD SLOAD SWAP5 DUP6 DUP2 MSTORE ADD SWAP4 PUSH1 0x7 DUP4 ADD PUSH1 0x0 MSTORE PUSH1 0x20 PUSH1 0x0 KECCAK256 SWAP1 PUSH1 0x0 SWAP2 JUMPDEST DUP2 PUSH1 0xF DUP5 ADD LT PUSH2 0x26C3 JUMPI DUP4 DUP8 PUSH1 0xFF SWAP7 SWAP5 PUSH1 0xB SWAP7 SWAP5 PUSH2 0x23BB SWAP5 SLOAD SWAP2 DUP2 DUP2 LT PUSH2 0x26AE JUMPI JUMPDEST DUP2 DUP2 LT PUSH2 0x2696 JUMPI JUMPDEST DUP2 DUP2 LT PUSH2 0x267F JUMPI JUMPDEST DUP2 DUP2 LT PUSH2 0x2667 JUMPI JUMPDEST DUP2 DUP2 LT PUSH2 0x264F JUMPI JUMPDEST DUP2 DUP2 LT PUSH2 0x2637 JUMPI JUMPDEST DUP2 DUP2 LT PUSH2 0x261F JUMPI JUMPDEST DUP2 DUP2 LT PUSH2 0x2607 JUMPI JUMPDEST DUP2 DUP2 LT PUSH2 0x25EF JUMPI JUMPDEST DUP2 DUP2 LT PUSH2 0x25D7 JUMPI JUMPDEST DUP2 DUP2 LT PUSH2 0x25BF JUMPI JUMPDEST DUP2 DUP2 LT PUSH2 0x25A7 JUMPI JUMPDEST DUP2 DUP2 LT PUSH2 0x258F JUMPI JUMPDEST DUP2 DUP2 LT PUSH2 0x2577 JUMPI JUMPDEST DUP2 DUP2 LT PUSH2 0x255F JUMPI JUMPDEST LT PUSH2 0x2551 JUMPI JUMPDEST POP SUB DUP3 PUSH2 0x3266 JUMP JUMPDEST PUSH2 0x100 DUP6 ADD MSTORE PUSH1 0x8 DUP2 ADD SLOAD PUSH2 0x120 DUP6 ADD MSTORE PUSH1 0x9 DUP2 ADD SLOAD PUSH2 0x140 DUP6 ADD MSTORE PUSH1 0xA DUP2 ADD SLOAD PUSH2 0x160 DUP6 ADD MSTORE ADD SLOAD PUSH1 0x1 PUSH1 0x1 PUSH1 0xA0 SHL SUB DUP2 AND PUSH2 0x180 DUP5 ADD MSTORE PUSH1 0xA0 SHR AND PUSH2 0x1A0 DUP3 ADD MSTORE PUSH1 0x40 DUP1 MLOAD PUSH1 0x20 DUP1 DUP3 MSTORE DUP4 MLOAD DUP2 DUP4 ADD MSTORE DUP4 ADD MLOAD DUP2 DUP4 ADD MSTORE SWAP1 DUP3 ADD MLOAD PUSH2 0x1C0 PUSH1 0x60 DUP4 ADD MSTORE PUSH2 0x2449 SWAP1 PUSH2 0x2433 SWAP1 PUSH2 0x1E0 DUP5 ADD SWAP1 PUSH2 0x3114 JUMP JUMPDEST PUSH1 0x60 DUP5 ADD MLOAD DUP4 DUP3 SUB PUSH1 0x1F NOT ADD PUSH1 0x80 DUP6 ADD MSTORE PUSH2 0x3114 JUMP JUMPDEST PUSH1 0x80 DUP4 ADD MLOAD PUSH1 0xA0 DUP4 ADD MSTORE PUSH2 0xFFFF PUSH1 0xA0 DUP5 ADD MLOAD AND PUSH1 0xC0 DUP4 ADD MSTORE PUSH2 0x2473 PUSH1 0xC0 DUP5 ADD MLOAD PUSH1 0xE0 DUP5 ADD SWAP1 PUSH2 0x3154 JUMP JUMPDEST PUSH1 0xE0 DUP4 ADD MLOAD SWAP1 PUSH1 0x1F NOT DUP4 DUP3 SUB ADD PUSH2 0x100 DUP5 ADD MSTORE PUSH1 0x20 DUP1 DUP4 MLOAD SWAP3 DUP4 DUP2 MSTORE ADD SWAP3 ADD SWAP1 PUSH1 0x0 JUMPDEST DUP2 DUP2 LT PUSH2 0x2532 JUMPI POP POP POP PUSH2 0x100 DUP4 ADD MLOAD SWAP1 PUSH1 0x1F NOT DUP4 DUP3 SUB ADD PUSH2 0x120 DUP5 ADD MSTORE PUSH1 0x20 DUP1 DUP4 MLOAD SWAP3 DUP4 DUP2 MSTORE ADD SWAP3 ADD SWAP1 PUSH1 0x0 JUMPDEST DUP2 DUP2 LT PUSH2 0x2518 JUMPI POP POP POP PUSH1 0xFF PUSH2 0x1A0 DUP5 PUSH2 0x120 DUP6 SWAP7 ADD MLOAD PUSH2 0x140 DUP7 ADD MSTORE PUSH2 0x140 DUP2 ADD MLOAD PUSH2 0x160 DUP7 ADD MSTORE PUSH2 0x160 DUP2 ADD MLOAD PUSH2 0x180 DUP7 ADD MSTORE PUSH1 0x1 DUP1 PUSH1 0xA0 SHL SUB PUSH2 0x180 DUP3 ADD MLOAD AND DUP3 DUP7 ADD MSTORE ADD MLOAD AND PUSH2 0x1C0 DUP4 ADD MSTORE SUB SWAP1 RETURN JUMPDEST DUP3 MLOAD PUSH2 0xFFFF AND DUP5 MSTORE PUSH1 0x20 SWAP4 DUP5 ADD SWAP4 SWAP1 SWAP3 ADD SWAP2 PUSH1 0x1 ADD PUSH2 0x24C4 JUMP JUMPDEST DUP3 MLOAD PUSH1 0x1 PUSH1 0x1 PUSH1 0xA0 SHL SUB AND DUP5 MSTORE PUSH1 0x20 SWAP4 DUP5 ADD SWAP4 SWAP1 SWAP3 ADD SWAP2 PUSH1 0x1 ADD PUSH2 0x2496 JUMP JUMPDEST PUSH1 0xF0 SHR DUP2 MSTORE PUSH1 0x20 ADD DUP9 PUSH2 0x23B3 JUMP JUMPDEST SWAP3 PUSH1 0x20 PUSH1 0x1 SWAP2 PUSH2 0xFFFF DUP6 PUSH1 0xE0 SHR AND DUP2 MSTORE ADD SWAP4 ADD PUSH2 0x23AD JUMP JUMPDEST SWAP3 PUSH1 0x20 PUSH1 0x1 SWAP2 PUSH2 0xFFFF DUP6 PUSH1 0xD0 SHR AND DUP2 MSTORE ADD SWAP4 ADD PUSH2 0x23A5 JUMP JUMPDEST SWAP3 PUSH1 0x20 PUSH1 0x1 SWAP2 PUSH2 0xFFFF DUP6 PUSH1 0xC0 SHR AND DUP2 MSTORE ADD SWAP4 ADD PUSH2 0x239D JUMP JUMPDEST SWAP3 PUSH1 0x20 PUSH1 0x1 SWAP2 PUSH2 0xFFFF DUP6 PUSH1 0xB0 SHR AND DUP2 MSTORE ADD SWAP4 ADD PUSH2 0x2395 JUMP JUMPDEST SWAP3 PUSH1 0x20 PUSH1 0x1 SWAP2 PUSH2 0xFFFF DUP6 PUSH1 0xA0 SHR AND DUP2 MSTORE ADD SWAP4 ADD PUSH2 0x238D JUMP JUMPDEST SWAP3 PUSH1 0x20 PUSH1 0x1 SWAP2 PUSH2 0xFFFF DUP6 PUSH1 0x90 SHR AND DUP2 MSTORE ADD SWAP4 ADD PUSH2 0x2385 JUMP JUMPDEST SWAP3 PUSH1 0x20 PUSH1 0x1 SWAP2 PUSH2 0xFFFF DUP6 PUSH1 0x80 SHR AND DUP2 MSTORE ADD SWAP4 ADD PUSH2 0x237D JUMP JUMPDEST SWAP3 PUSH1 0x20 PUSH1 0x1 SWAP2 PUSH2 0xFFFF DUP6 PUSH1 0x70 SHR AND DUP2 MSTORE ADD SWAP4 ADD PUSH2 0x2375 JUMP JUMPDEST SWAP3 PUSH1 0x20 PUSH1 0x1 SWAP2 PUSH2 0xFFFF DUP6 PUSH1 0x60 SHR AND DUP2 MSTORE ADD SWAP4 ADD PUSH2 0x236D JUMP JUMPDEST SWAP3 PUSH1 0x20 PUSH1 0x1 SWAP2 PUSH2 0xFFFF DUP6 PUSH1 0x50 SHR AND DUP2 MSTORE ADD SWAP4 ADD PUSH2 0x2365 JUMP JUMPDEST SWAP3 PUSH1 0x20 PUSH1 0x1 SWAP2 PUSH2 0xFFFF DUP6 PUSH1 0x40 SHR AND DUP2 MSTORE ADD SWAP4 ADD PUSH2 0x235D JUMP JUMPDEST SWAP3 PUSH1 0x20 PUSH1 0x1 SWAP2 PUSH2 0xFFFF DUP6 PUSH1 0x30 SHR AND DUP2 MSTORE ADD SWAP4 ADD PUSH2 0x2355 JUMP JUMPDEST SWAP3 PUSH1 0x20 PUSH1 0x1 SWAP2 PUSH2 0xFFFF DUP6 DUP4 SHR AND DUP2 MSTORE ADD SWAP4 ADD PUSH2 0x234D JUMP JUMPDEST SWAP3 PUSH1 0x20 PUSH1 0x1 SWAP2 PUSH2 0xFFFF DUP6 PUSH1 0x10 SHR AND DUP2 MSTORE ADD SWAP4 ADD PUSH2 0x2345 JUMP JUMPDEST SWAP3 PUSH1 0x20 PUSH1 0x1 SWAP2 PUSH2 0xFFFF DUP6 AND DUP2 MSTORE ADD SWAP4 ADD PUSH2 0x233D JUMP JUMPDEST SWAP6 PUSH1 0x1 PUSH2 0x200 PUSH1 0x10 SWAP3 DUP10 SLOAD PUSH2 0xFFFF DUP2 AND DUP3 MSTORE PUSH2 0xFFFF DUP2 DUP7 SHR AND PUSH1 0x20 DUP4 ADD MSTORE PUSH2 0xFFFF DUP2 PUSH1 0x20 SHR AND PUSH1 0x40 DUP4 ADD MSTORE PUSH2 0xFFFF DUP2 PUSH1 0x30 SHR AND PUSH1 0x60 DUP4 ADD MSTORE PUSH2 0xFFFF DUP2 PUSH1 0x40 SHR AND PUSH1 0x80 DUP4 ADD MSTORE PUSH2 0xFFFF DUP2 PUSH1 0x50 SHR AND PUSH1 0xA0 DUP4 ADD MSTORE PUSH2 0xFFFF DUP2 PUSH1 0x60 SHR AND PUSH1 0xC0 DUP4 ADD MSTORE PUSH2 0xFFFF DUP2 PUSH1 0x70 SHR AND PUSH1 0xE0 DUP4 ADD MSTORE PUSH2 0xFFFF DUP2 PUSH1 0x80 SHR AND PUSH2 0x100 DUP4 ADD MSTORE PUSH2 0xFFFF DUP2 PUSH1 0x90 SHR AND PUSH2 0x120 DUP4 ADD MSTORE PUSH2 0xFFFF DUP2 PUSH1 0xA0 SHR AND PUSH2 0x140 DUP4 ADD MSTORE PUSH2 0xFFFF DUP2 PUSH1 0xB0 SHR AND PUSH2 0x160 DUP4 ADD MSTORE PUSH2 0xFFFF DUP2 PUSH1 0xC0 SHR AND PUSH2 0x180 DUP4 ADD MSTORE PUSH2 0xFFFF DUP2 PUSH1 0xD0 SHR AND PUSH2 0x1A0 DUP4 ADD MSTORE PUSH2 0xFFFF DUP2 PUSH1 0xE0 SHR AND PUSH2 0x1C0 DUP4 ADD MSTORE PUSH1 0xF0 SHR PUSH2 0x1E0 DUP3 ADD MSTORE ADD SWAP8 ADD SWAP3 ADD SWAP2 PUSH2 0x231B JUMP JUMPDEST DUP5 SLOAD PUSH1 0x1 PUSH1 0x1 PUSH1 0xA0 SHL SUB AND DUP4 MSTORE PUSH1 0x1 SWAP5 DUP6 ADD SWAP5 DUP7 SWAP5 POP PUSH1 0x20 SWAP1 SWAP4 ADD SWAP3 ADD PUSH2 0x22DE JUMP JUMPDEST CALLVALUE PUSH2 0x251 JUMPI PUSH2 0x27D5 CALLDATASIZE PUSH2 0x30E6 JUMP JUMPDEST SWAP1 PUSH1 0x0 MSTORE PUSH1 0x8 PUSH1 0x20 MSTORE PUSH1 0x40 PUSH1 0x0 KECCAK256 DUP1 SLOAD DUP3 LT ISZERO PUSH2 0x251 JUMPI PUSH1 0x20 SWAP2 PUSH2 0x6C7 SWAP2 PUSH2 0x30FC JUMP JUMPDEST CALLVALUE PUSH2 0x251 JUMPI PUSH1 0x40 CALLDATASIZE PUSH1 0x3 NOT ADD SLT PUSH2 0x251 JUMPI PUSH1 0x80 PUSH2 0x2813 PUSH2 0x30D0 JUMP JUMPDEST PUSH1 0x0 PUSH1 0x60 PUSH1 0x40 MLOAD PUSH2 0x2823 DUP2 PUSH2 0x3213 JUMP JUMPDEST DUP3 DUP2 MSTORE DUP3 PUSH1 0x20 DUP3 ADD MSTORE DUP3 PUSH1 0x40 DUP3 ADD MSTORE ADD MSTORE PUSH1 0x4 CALLDATALOAD PUSH1 0x0 MSTORE PUSH1 0xA PUSH1 0x20 MSTORE PUSH1 0x40 PUSH1 0x0 KECCAK256 PUSH1 0x1 DUP1 PUSH1 0xA0 SHL SUB DUP1 SWAP3 AND PUSH1 0x0 MSTORE PUSH1 0x20 MSTORE PUSH1 0x40 PUSH1 0x0 KECCAK256 SWAP1 PUSH1 0x40 MLOAD SWAP1 PUSH2 0x2867 DUP3 PUSH2 0x3213 JUMP JUMPDEST DUP3 SLOAD AND SWAP2 DUP3 DUP3 MSTORE PUSH1 0x1 DUP2 ADD SLOAD PUSH1 0x20 DUP4 ADD SWAP1 DUP2 MSTORE PUSH1 0x60 PUSH1 0x3 PUSH1 0x2 DUP5 ADD SLOAD SWAP4 PUSH1 0x40 DUP7 ADD SWAP5 DUP6 MSTORE ADD SLOAD SWAP4 ADD SWAP3 DUP4 MSTORE PUSH1 0x40 MLOAD SWAP4 DUP5 MSTORE MLOAD PUSH1 0x20 DUP5 ADD MSTORE MLOAD PUSH1 0x40 DUP4 ADD MSTORE MLOAD PUSH1 0x60 DUP3 ADD MSTORE RETURN JUMPDEST CALLVALUE PUSH2 0x251 JUMPI PUSH1 0x20 CALLDATASIZE PUSH1 0x3 NOT ADD SLT PUSH2 0x251 JUMPI PUSH1 0x4 CALLDATALOAD PUSH2 0xFFFF DUP2 AND DUP1 DUP3 SUB PUSH2 0x251 JUMPI PUSH2 0x1F4 SWAP1 PUSH2 0x28D8 PUSH2 0x3375 JUMP JUMPDEST GT PUSH2 0x28FE JUMPI PUSH1 0x3 DUP1 SLOAD PUSH2 0xFFFF PUSH1 0xA0 SHL NOT AND PUSH1 0xA0 SWAP3 SWAP1 SWAP3 SHL PUSH2 0xFFFF PUSH1 0xA0 SHL AND SWAP2 SWAP1 SWAP2 OR SWAP1 SSTORE STOP JUMPDEST PUSH1 0x40 MLOAD PUSH3 0x461BCD PUSH1 0xE5 SHL DUP2 MSTORE PUSH1 0x20 PUSH1 0x4 DUP3 ADD MSTORE PUSH1 0xC PUSH1 0x24 DUP3 ADD MSTORE PUSH12 0x8CCACA40E8DEDE40D0D2CED PUSH1 0xA3 SHL PUSH1 0x44 DUP3 ADD MSTORE PUSH1 0x64 SWAP1 REVERT JUMPDEST CALLVALUE PUSH2 0x251 JUMPI PUSH1 0x0 CALLDATASIZE PUSH1 0x3 NOT ADD SLT PUSH2 0x251 JUMPI PUSH1 0x20 PUSH1 0xFF PUSH1 0x2 SLOAD AND PUSH1 0x40 MLOAD SWAP1 ISZERO ISZERO DUP2 MSTORE RETURN JUMPDEST CALLVALUE PUSH2 0x251 JUMPI PUSH1 0x40 CALLDATASIZE PUSH1 0x3 NOT ADD SLT PUSH2 0x251 JUMPI PUSH2 0x296E PUSH2 0x30BA JUMP JUMPDEST PUSH1 0x24 CALLDATALOAD SWAP1 DUP2 ISZERO ISZERO DUP1 SWAP3 SUB PUSH2 0x251 JUMPI PUSH1 0x20 PUSH32 0x966C160E1C4DBC7DF8D69AF4ACE01E9297C3CF016397B7914971F2FBFA32672D SWAP2 PUSH2 0x29A8 PUSH2 0x3375 JUMP JUMPDEST PUSH1 0x1 DUP1 PUSH1 0xA0 SHL SUB AND SWAP3 DUP4 PUSH1 0x0 MSTORE PUSH1 0xD DUP3 MSTORE PUSH1 0x40 PUSH1 0x0 KECCAK256 PUSH1 0xFF NOT DUP2 SLOAD AND PUSH1 0xFF DUP4 AND OR SWAP1 SSTORE PUSH1 0x40 MLOAD SWAP1 DUP2 MSTORE LOG2 STOP JUMPDEST CALLVALUE PUSH2 0x251 JUMPI PUSH2 0x29E2 CALLDATASIZE PUSH2 0x30E6 JUMP JUMPDEST SWAP1 PUSH2 0x29EB PUSH2 0x3454 JUMP JUMPDEST DUP1 PUSH1 0x0 MSTORE PUSH1 0x20 SWAP2 PUSH1 0x4 DUP4 MSTORE PUSH1 0x40 PUSH1 0x0 KECCAK256 SWAP3 DUP4 SLOAD ISZERO PUSH2 0x2BD1 JUMPI PUSH1 0xFF PUSH1 0x8 DUP6 ADD SLOAD PUSH1 0xA0 SHR AND PUSH1 0x5 DUP2 LT ISZERO PUSH2 0x4B6 JUMPI DUP1 ISZERO SWAP1 DUP2 ISZERO PUSH2 0x2BC6 JUMPI JUMPDEST POP ISZERO PUSH2 0x2B94 JUMPI DUP2 ISZERO PUSH2 0x2B5F JUMPI PUSH1 0x4 DUP5 ADD SWAP2 PUSH2 0x2A44 PUSH1 0x5 DUP5 SLOAD SWAP7 ADD SWAP6 DUP7 SLOAD SWAP1 PUSH2 0x343A JUMP JUMPDEST SWAP1 DUP2 DUP2 GT ISZERO PUSH2 0x2B57 JUMPI POP SWAP4 JUMPDEST PUSH1 0x2 SLOAD PUSH1 0x40 MLOAD PUSH4 0x23B872DD PUSH1 0xE0 SHL DUP5 DUP3 ADD MSTORE CALLER PUSH1 0x24 DUP3 ADD MSTORE ADDRESS PUSH1 0x44 DUP3 ADD MSTORE PUSH1 0x64 DUP1 DUP3 ADD DUP9 SWAP1 MSTORE DUP2 MSTORE PUSH1 0x8 SWAP2 SWAP1 SWAP2 SHR PUSH1 0x1 PUSH1 0x1 PUSH1 0xA0 SHL SUB AND SWAP4 SWAP1 PUSH1 0xA0 DUP2 ADD SWAP1 PUSH1 0x1 PUSH1 0x1 PUSH1 0x40 SHL SUB DUP3 GT DUP2 DUP4 LT OR PUSH2 0x169D JUMPI PUSH32 0xB41248CBB9F620DCC228147603AC5C34DBF73C9B90044F38E49C9A862D9F328B SWAP6 PUSH2 0x2ACE SWAP3 PUSH1 0x40 MSTORE PUSH2 0x34AA JUMP JUMPDEST PUSH2 0x2AD9 DUP7 DUP4 SLOAD PUSH2 0x3447 JUMP JUMPDEST DUP1 SWAP3 SSTORE SLOAD GT ISZERO PUSH2 0x2AF3 JUMPI JUMPDEST PUSH1 0x40 MLOAD SWAP4 DUP5 MSTORE CALLER SWAP4 LOG3 PUSH1 0x1 DUP1 SSTORE STOP JUMPDEST DUP3 PUSH1 0x0 MSTORE PUSH1 0x4 DUP2 MSTORE DUP3 PUSH32 0xEED224251FF614714290287B931E052C4450C4615267685E4C60CE9D673D4D7F PUSH1 0x40 PUSH1 0xFF PUSH2 0x2B4B PUSH1 0x8 DUP4 PUSH1 0x0 KECCAK256 ADD DUP1 SLOAD SWAP1 PUSH1 0x1 PUSH1 0xA0 SHL DUP5 PUSH1 0xA0 SHL NOT DUP4 AND OR SWAP1 SSTORE DUP4 MLOAD SWAP3 DUP4 SWAP2 PUSH1 0xA0 SHR AND PUSH2 0x332D JUMP JUMPDEST PUSH1 0x1 DUP6 DUP3 ADD MSTORE LOG2 PUSH2 0x2AE4 JUMP JUMPDEST SWAP1 POP SWAP4 PUSH2 0x2A50 JUMP JUMPDEST PUSH1 0x64 SWAP1 PUSH1 0x40 MLOAD SWAP1 PUSH3 0x461BCD PUSH1 0xE5 SHL DUP3 MSTORE PUSH1 0x4 DUP3 ADD MSTORE PUSH1 0xE PUSH1 0x24 DUP3 ADD MSTORE PUSH14 0x125B9D985B1A5908185B5BDD5B9D PUSH1 0x92 SHL PUSH1 0x44 DUP3 ADD MSTORE REVERT JUMPDEST PUSH1 0x64 SWAP1 PUSH1 0x40 MLOAD SWAP1 PUSH3 0x461BCD PUSH1 0xE5 SHL DUP3 MSTORE PUSH1 0x4 DUP3 ADD MSTORE PUSH1 0xB PUSH1 0x24 DUP3 ADD MSTORE PUSH11 0x10D85B9B9BDD08199D5B99 PUSH1 0xAA SHL PUSH1 0x44 DUP3 ADD MSTORE REVERT JUMPDEST PUSH1 0x1 SWAP2 POP EQ DUP6 PUSH2 0x2A21 JUMP JUMPDEST PUSH1 0x64 SWAP1 PUSH1 0x40 MLOAD SWAP1 PUSH3 0x461BCD PUSH1 0xE5 SHL DUP3 MSTORE PUSH1 0x4 DUP3 ADD MSTORE PUSH1 0xE PUSH1 0x24 DUP3 ADD MSTORE PUSH14 0x141BDBDB081B9BDD08199BDD5B99 PUSH1 0x92 SHL PUSH1 0x44 DUP3 ADD MSTORE REVERT JUMPDEST CALLVALUE PUSH2 0x251 JUMPI PUSH1 0x0 CALLDATASIZE PUSH1 0x3 NOT ADD SLT PUSH2 0x251 JUMPI PUSH2 0x2C1F PUSH2 0x3454 JUMP JUMPDEST CALLER PUSH1 0x0 MSTORE PUSH1 0xB PUSH1 0x20 MSTORE PUSH1 0x40 PUSH1 0x0 KECCAK256 SLOAD DUP1 ISZERO PUSH2 0x2C64 JUMPI CALLER PUSH1 0x0 DUP2 DUP2 MSTORE PUSH1 0xB PUSH1 0x20 MSTORE PUSH1 0x40 DUP2 KECCAK256 SSTORE PUSH1 0x2 SLOAD PUSH2 0x2C5E SWAP3 SWAP2 SWAP1 PUSH1 0x8 SHR PUSH1 0x1 PUSH1 0x1 PUSH1 0xA0 SHL SUB AND PUSH2 0x3793 JUMP JUMPDEST PUSH1 0x1 DUP1 SSTORE STOP JUMPDEST PUSH1 0x40 MLOAD PUSH3 0x461BCD PUSH1 0xE5 SHL DUP2 MSTORE PUSH1 0x20 PUSH1 0x4 DUP3 ADD MSTORE PUSH1 0x10 PUSH1 0x24 DUP3 ADD MSTORE PUSH16 0x4E6F7468696E6720746F20636C61696D PUSH1 0x80 SHL PUSH1 0x44 DUP3 ADD MSTORE PUSH1 0x64 SWAP1 REVERT JUMPDEST CALLVALUE PUSH2 0x251 JUMPI PUSH1 0x0 CALLDATASIZE PUSH1 0x3 NOT ADD SLT PUSH2 0x251 JUMPI PUSH1 0x20 PUSH1 0x40 MLOAD PUSH1 0x14 DUP2 MSTORE RETURN JUMPDEST CALLVALUE PUSH2 0x251 JUMPI PUSH1 0x0 CALLDATASIZE PUSH1 0x3 NOT ADD SLT PUSH2 0x251 JUMPI PUSH2 0x2CD1 PUSH2 0x3375 JUMP JUMPDEST PUSH1 0x2 SLOAD PUSH1 0xFF DUP2 AND ISZERO PUSH2 0x2D10 JUMPI PUSH1 0xFF NOT AND PUSH1 0x2 SSTORE PUSH32 0x5DB9EE0A495BF2E6FF9C91A7834C1BA4FDD244A5E8AA4E537BD38AEAE4B073AA PUSH1 0x20 PUSH1 0x40 MLOAD CALLER DUP2 MSTORE LOG1 STOP JUMPDEST PUSH1 0x40 MLOAD PUSH3 0x461BCD PUSH1 0xE5 SHL DUP2 MSTORE PUSH1 0x20 PUSH1 0x4 DUP3 ADD MSTORE PUSH1 0x14 PUSH1 0x24 DUP3 ADD MSTORE PUSH20 0x14185D5CD8589B194E881B9BDD081C185D5CD959 PUSH1 0x62 SHL PUSH1 0x44 DUP3 ADD MSTORE PUSH1 0x64 SWAP1 REVERT JUMPDEST CALLVALUE PUSH2 0x251 JUMPI PUSH1 0x40 CALLDATASIZE PUSH1 0x3 NOT ADD SLT PUSH2 0x251 JUMPI PUSH1 0x4 CALLDATALOAD PUSH2 0x2D68 PUSH2 0x30D0 JUMP JUMPDEST SWAP1 DUP1 PUSH1 0x0 MSTORE PUSH1 0x4 PUSH1 0x20 MSTORE PUSH1 0x1 DUP1 PUSH1 0xA0 SHL SUB SWAP1 PUSH2 0x2D8F DUP3 PUSH1 0x1 PUSH1 0x40 PUSH1 0x0 KECCAK256 ADD SLOAD AND CALLER EQ PUSH2 0x369D JUMP JUMPDEST PUSH1 0x0 MSTORE PUSH1 0xC PUSH1 0x20 MSTORE PUSH1 0x40 PUSH1 0x0 KECCAK256 SWAP2 AND PUSH1 0x0 MSTORE PUSH1 0x20 MSTORE PUSH1 0x40 PUSH1 0x0 KECCAK256 PUSH1 0x1 PUSH1 0xFF NOT DUP3 SLOAD AND OR SWAP1 SSTORE PUSH1 0x0 DUP1 RETURN JUMPDEST CALLVALUE PUSH2 0x251 JUMPI PUSH1 0x0 CALLDATASIZE PUSH1 0x3 NOT ADD SLT PUSH2 0x251 JUMPI PUSH1 0x20 PUSH2 0xFFFF PUSH1 0x3 SLOAD PUSH1 0xA0 SHR AND PUSH1 0x40 MLOAD SWAP1 DUP2 MSTORE RETURN JUMPDEST CALLVALUE PUSH2 0x251 JUMPI PUSH1 0x40 CALLDATASIZE PUSH1 0x3 NOT ADD SLT PUSH2 0x251 JUMPI PUSH2 0x2DF7 PUSH2 0x30D0 JUMP JUMPDEST PUSH1 0x4 CALLDATALOAD PUSH1 0x0 MSTORE PUSH1 0xC PUSH1 0x20 MSTORE PUSH1 0x40 PUSH1 0x0 KECCAK256 SWAP1 PUSH1 0x1 DUP1 PUSH1 0xA0 SHL SUB AND PUSH1 0x0 MSTORE PUSH1 0x20 MSTORE PUSH1 0x20 PUSH1 0xFF PUSH1 0x40 PUSH1 0x0 KECCAK256 SLOAD AND PUSH1 0x40 MLOAD SWAP1 ISZERO ISZERO DUP2 MSTORE RETURN JUMPDEST CALLVALUE PUSH2 0x251 JUMPI PUSH1 0x0 CALLDATASIZE PUSH1 0x3 NOT ADD SLT PUSH2 0x251 JUMPI PUSH1 0x20 PUSH1 0x40 MLOAD PUSH3 0xF4240 DUP2 MSTORE RETURN JUMPDEST CALLVALUE PUSH2 0x251 JUMPI PUSH1 0x20 CALLDATASIZE PUSH1 0x3 NOT ADD SLT PUSH2 0x251 JUMPI PUSH1 0x1 PUSH1 0x1 PUSH1 0xA0 SHL SUB PUSH2 0x2E6A PUSH2 0x30BA JUMP JUMPDEST AND PUSH1 0x0 MSTORE PUSH1 0xD PUSH1 0x20 MSTORE PUSH1 0x20 PUSH1 0xFF PUSH1 0x40 PUSH1 0x0 KECCAK256 SLOAD AND PUSH1 0x40 MLOAD SWAP1 ISZERO ISZERO DUP2 MSTORE RETURN JUMPDEST CALLVALUE PUSH2 0x251 JUMPI PUSH1 0x20 CALLDATASIZE PUSH1 0x3 NOT ADD SLT PUSH2 0x251 JUMPI PUSH1 0x0 PUSH1 0x40 DUP1 MLOAD PUSH2 0x2EA8 DUP2 PUSH2 0x31F8 JUMP JUMPDEST DUP3 DUP2 MSTORE DUP3 PUSH1 0x20 DUP3 ADD MSTORE ADD MSTORE PUSH1 0x4 CALLDATALOAD PUSH1 0x0 MSTORE PUSH1 0x9 PUSH1 0x20 MSTORE PUSH1 0x60 PUSH1 0x40 PUSH1 0x0 KECCAK256 PUSH1 0x40 MLOAD PUSH2 0x2ED1 DUP2 PUSH2 0x31F8 JUMP JUMPDEST DUP2 SLOAD PUSH1 0x40 PUSH1 0x1 PUSH1 0xFF DUP4 AND SWAP5 DUP6 DUP6 MSTORE PUSH1 0xFF PUSH1 0x20 DUP7 ADD SWAP5 PUSH1 0x8 SHR AND ISZERO ISZERO DUP5 MSTORE ADD SLOAD SWAP3 ADD SWAP2 DUP3 MSTORE PUSH1 0x40 MLOAD SWAP3 DUP4 MSTORE MLOAD ISZERO ISZERO PUSH1 0x20 DUP4 ADD MSTORE MLOAD PUSH1 0x40 DUP3 ADD MSTORE RETURN JUMPDEST CALLVALUE PUSH2 0x251 JUMPI PUSH1 0x40 CALLDATASIZE PUSH1 0x3 NOT ADD SLT PUSH2 0x251 JUMPI PUSH1 0x4 CALLDATALOAD PUSH1 0x24 CALLDATALOAD SWAP1 PUSH1 0xFF DUP3 AND SWAP2 DUP3 DUP2 SUB PUSH2 0x251 JUMPI DUP2 PUSH1 0x0 MSTORE PUSH1 0x20 SWAP1 PUSH1 0x7 DUP3 MSTORE PUSH1 0x1 PUSH1 0x40 PUSH1 0x0 KECCAK256 ADD SLOAD PUSH1 0x0 MSTORE PUSH1 0x4 DUP3 MSTORE PUSH2 0x2F74 PUSH1 0x1 DUP1 PUSH1 0xA0 SHL SUB DUP1 PUSH1 0x1 PUSH1 0x40 PUSH1 0x0 KECCAK256 ADD SLOAD AND CALLER EQ SWAP1 DUP2 ISZERO PUSH2 0x309E JUMPI DUP2 ISZERO PUSH2 0xB73 JUMPI POP PUSH2 0x370B JUMP JUMPDEST DUP3 PUSH1 0x0 MSTORE PUSH1 0x7 DUP3 MSTORE PUSH1 0x40 PUSH1 0x0 KECCAK256 SWAP1 PUSH1 0x1 DUP3 ADD SLOAD PUSH1 0x0 MSTORE PUSH1 0x9 DUP4 MSTORE PUSH1 0x40 PUSH1 0x0 KECCAK256 PUSH1 0xFF PUSH1 0x5 DUP5 ADD SLOAD PUSH1 0x10 SHR AND SWAP1 PUSH1 0x6 DUP3 LT ISZERO PUSH2 0x4B6 JUMPI PUSH2 0x2FB6 PUSH1 0x2 PUSH1 0xFF SWAP4 EQ PUSH2 0x3757 JUMP JUMPDEST SLOAD AND DUP6 LT PUSH2 0x3067 JUMPI SWAP1 PUSH32 0x8961E4E77F19B019A9539D062F9C87D96E026B9FB8CDD52AA868A77FDA602E0A SWAP3 SWAP2 PUSH1 0xB DUP3 ADD SWAP1 DUP2 SLOAD CALLER SWAP2 PUSH1 0xFF PUSH1 0xA0 SHL SWAP1 PUSH1 0xA0 SHL AND SWAP1 PUSH11 0xFFFFFFFFFFFFFFFFFFFFFF PUSH1 0xA8 SHL AND OR OR SWAP1 SSTORE PUSH1 0xA TIMESTAMP SWAP2 ADD SSTORE DUP3 PUSH1 0x0 MSTORE PUSH1 0x7 DUP2 MSTORE DUP3 PUSH1 0x0 DUP1 MLOAD PUSH1 0x20 PUSH2 0x382C DUP4 CODECOPY DUP2 MLOAD SWAP2 MSTORE PUSH1 0x40 PUSH1 0xFF PUSH2 0x3055 PUSH1 0x5 DUP4 PUSH1 0x0 KECCAK256 ADD DUP1 SLOAD SWAP1 PUSH3 0x30000 PUSH3 0xFF0000 NOT DUP4 AND OR SWAP1 SSTORE DUP4 MLOAD SWAP3 DUP4 SWAP2 PUSH1 0x10 SHR AND PUSH2 0x3154 JUMP JUMPDEST PUSH1 0x3 DUP6 DUP3 ADD MSTORE LOG2 PUSH1 0x40 MLOAD SWAP4 DUP5 MSTORE CALLER SWAP4 LOG3 STOP JUMPDEST PUSH1 0x40 MLOAD PUSH3 0x461BCD PUSH1 0xE5 SHL DUP2 MSTORE PUSH1 0x4 DUP2 ADD DUP5 SWAP1 MSTORE PUSH1 0xF PUSH1 0x24 DUP3 ADD MSTORE PUSH15 0x5175616C69747920746F6F206C6F77 PUSH1 0x88 SHL PUSH1 0x44 DUP3 ADD MSTORE PUSH1 0x64 SWAP1 REVERT JUMPDEST PUSH1 0xC DUP6 MSTORE PUSH1 0x40 PUSH1 0x0 DUP2 DUP2 KECCAK256 CALLER DUP3 MSTORE DUP8 MSTORE KECCAK256 SLOAD PUSH1 0xFF AND SWAP2 POP PUSH2 0xA9A JUMP JUMPDEST PUSH1 0x4 CALLDATALOAD SWAP1 PUSH1 0x1 PUSH1 0x1 PUSH1 0xA0 SHL SUB DUP3 AND DUP3 SUB PUSH2 0x251 JUMPI JUMP JUMPDEST PUSH1 0x24 CALLDATALOAD SWAP1 PUSH1 0x1 PUSH1 0x1 PUSH1 0xA0 SHL SUB DUP3 AND DUP3 SUB PUSH2 0x251 JUMPI JUMP JUMPDEST PUSH1 0x40 SWAP1 PUSH1 0x3 NOT ADD SLT PUSH2 0x251 JUMPI PUSH1 0x4 CALLDATALOAD SWAP1 PUSH1 0x24 CALLDATALOAD SWAP1 JUMP JUMPDEST DUP1 SLOAD DUP3 LT ISZERO PUSH2 0x100D JUMPI PUSH1 0x0 MSTORE PUSH1 0x20 PUSH1 0x0 KECCAK256 ADD SWAP1 PUSH1 0x0 SWAP1 JUMP JUMPDEST SWAP2 SWAP1 DUP3 MLOAD SWAP3 DUP4 DUP3 MSTORE PUSH1 0x0 JUMPDEST DUP5 DUP2 LT PUSH2 0x3140 JUMPI POP POP DUP3 PUSH1 0x0 PUSH1 0x20 DUP1 SWAP5 SWAP6 DUP5 ADD ADD MSTORE PUSH1 0x1F DUP1 NOT SWAP2 ADD AND ADD ADD SWAP1 JUMP JUMPDEST PUSH1 0x20 DUP2 DUP4 ADD DUP2 ADD MLOAD DUP5 DUP4 ADD DUP3 ADD MSTORE ADD PUSH2 0x311F JUMP JUMPDEST SWAP1 PUSH1 0x6 DUP3 LT ISZERO PUSH2 0x4B6 JUMPI MSTORE JUMP JUMPDEST SWAP2 DUP2 PUSH1 0x1F DUP5 ADD SLT ISZERO PUSH2 0x251 JUMPI DUP3 CALLDATALOAD SWAP2 PUSH1 0x1 PUSH1 0x1 PUSH1 0x40 SHL SUB DUP4 GT PUSH2 0x251 JUMPI PUSH1 0x20 DUP4 DUP2 DUP7 ADD SWAP6 ADD ADD GT PUSH2 0x251 JUMPI JUMP JUMPDEST SWAP2 DUP2 PUSH1 0x1F DUP5 ADD SLT ISZERO PUSH2 0x251 JUMPI DUP3 CALLDATALOAD SWAP2 PUSH1 0x1 PUSH1 0x1 PUSH1 0x40 SHL SUB DUP4 GT PUSH2 0x251 JUMPI PUSH1 0x20 DUP1 DUP6 ADD SWAP5 DUP5 PUSH1 0x5 SHL ADD ADD GT PUSH2 0x251 JUMPI JUMP JUMPDEST SWAP1 PUSH1 0x1 DUP3 DUP2 SHR SWAP3 AND DUP1 ISZERO PUSH2 0x31EE JUMPI JUMPDEST PUSH1 0x20 DUP4 LT EQ PUSH2 0x31D8 JUMPI JUMP JUMPDEST PUSH4 0x4E487B71 PUSH1 0xE0 SHL PUSH1 0x0 MSTORE PUSH1 0x22 PUSH1 0x4 MSTORE PUSH1 0x24 PUSH1 0x0 REVERT JUMPDEST SWAP2 PUSH1 0x7F AND SWAP2 PUSH2 0x31CD JUMP JUMPDEST PUSH1 0x60 DUP2 ADD SWAP1 DUP2 LT PUSH1 0x1 PUSH1 0x1 PUSH1 0x40 SHL SUB DUP3 GT OR PUSH2 0x169D JUMPI PUSH1 0x40 MSTORE JUMP JUMPDEST PUSH1 0x80 DUP2 ADD SWAP1 DUP2 LT PUSH1 0x1 PUSH1 0x1 PUSH1 0x40 SHL SUB DUP3 GT OR PUSH2 0x169D JUMPI PUSH1 0x40 MSTORE JUMP JUMPDEST PUSH2 0x1C0 DUP2 ADD SWAP1 DUP2 LT PUSH1 0x1 PUSH1 0x1 PUSH1 0x40 SHL SUB DUP3 GT OR PUSH2 0x169D JUMPI PUSH1 0x40 MSTORE JUMP JUMPDEST PUSH2 0x180 DUP2 ADD SWAP1 DUP2 LT PUSH1 0x1 PUSH1 0x1 PUSH1 0x40 SHL SUB DUP3 GT OR PUSH2 0x169D JUMPI PUSH1 0x40 MSTORE JUMP JUMPDEST SWAP1 PUSH1 0x1F DUP1 NOT SWAP2 ADD AND DUP2 ADD SWAP1 DUP2 LT PUSH1 0x1 PUSH1 0x1 PUSH1 0x40 SHL SUB DUP3 GT OR PUSH2 0x169D JUMPI PUSH1 0x40 MSTORE JUMP JUMPDEST SWAP1 PUSH1 0x40 MLOAD SWAP2 DUP3 PUSH1 0x0 DUP3 SLOAD SWAP3 PUSH2 0x329B DUP5 PUSH2 0x31BE JUMP JUMPDEST SWAP1 DUP2 DUP5 MSTORE PUSH1 0x1 SWAP5 DUP6 DUP2 AND SWAP1 DUP2 PUSH1 0x0 EQ PUSH2 0x330A JUMPI POP PUSH1 0x1 EQ PUSH2 0x32C7 JUMPI JUMPDEST POP POP PUSH2 0x32C5 SWAP3 POP SUB DUP4 PUSH2 0x3266 JUMP JUMPDEST JUMP JUMPDEST SWAP1 SWAP4 SWAP2 POP PUSH1 0x0 MSTORE PUSH1 0x20 SWAP1 DUP2 PUSH1 0x0 KECCAK256 SWAP4 PUSH1 0x0 SWAP2 JUMPDEST DUP2 DUP4 LT PUSH2 0x32F2 JUMPI POP POP PUSH2 0x32C5 SWAP4 POP DUP3 ADD ADD CODESIZE DUP1 PUSH2 0x32B7 JUMP JUMPDEST DUP6 SLOAD DUP9 DUP5 ADD DUP6 ADD MSTORE SWAP5 DUP6 ADD SWAP5 DUP8 SWAP5 POP SWAP2 DUP4 ADD SWAP2 PUSH2 0x32DA JUMP JUMPDEST SWAP2 POP POP PUSH2 0x32C5 SWAP5 POP PUSH1 0x20 SWAP3 POP PUSH1 0xFF NOT AND DUP3 DUP5 ADD MSTORE ISZERO ISZERO PUSH1 0x5 SHL DUP3 ADD ADD CODESIZE DUP1 PUSH2 0x32B7 JUMP JUMPDEST SWAP1 PUSH1 0x5 DUP3 LT ISZERO PUSH2 0x4B6 JUMPI MSTORE JUMP JUMPDEST PUSH1 0x20 SWAP1 DUP2 PUSH1 0x40 DUP2 DUP4 ADD SWAP3 DUP3 DUP2 MSTORE DUP6 MLOAD DUP1 SWAP5 MSTORE ADD SWAP4 ADD SWAP2 PUSH1 0x0 JUMPDEST DUP3 DUP2 LT PUSH2 0x3361 JUMPI POP POP POP POP SWAP1 JUMP JUMPDEST DUP4 MLOAD DUP6 MSTORE SWAP4 DUP2 ADD SWAP4 SWAP3 DUP2 ADD SWAP3 PUSH1 0x1 ADD PUSH2 0x3353 JUMP JUMPDEST PUSH1 0x0 SLOAD PUSH1 0x1 PUSH1 0x1 PUSH1 0xA0 SHL SUB AND CALLER SUB PUSH2 0x3389 JUMPI JUMP JUMPDEST PUSH1 0x64 PUSH1 0x40 MLOAD PUSH3 0x461BCD PUSH1 0xE5 SHL DUP2 MSTORE PUSH1 0x20 PUSH1 0x4 DUP3 ADD MSTORE PUSH1 0x20 PUSH1 0x24 DUP3 ADD MSTORE PUSH32 0x4F776E61626C653A2063616C6C6572206973206E6F7420746865206F776E6572 PUSH1 0x44 DUP3 ADD MSTORE REVERT JUMPDEST DUP2 DUP2 LT PUSH2 0x33D8 JUMPI POP POP JUMP JUMPDEST PUSH1 0x0 DUP2 SSTORE PUSH1 0x1 ADD PUSH2 0x33CD JUMP JUMPDEST DUP1 SLOAD PUSH1 0x1 PUSH1 0x40 SHL DUP2 LT ISZERO PUSH2 0x169D JUMPI PUSH2 0x3401 SWAP2 PUSH1 0x1 DUP3 ADD DUP2 SSTORE PUSH2 0x30FC JUMP JUMPDEST DUP2 SWAP3 SWAP2 SLOAD SWAP1 PUSH1 0x3 SHL SWAP2 DUP3 SHL SWAP2 PUSH1 0x0 NOT SWAP1 SHL NOT AND OR SWAP1 SSTORE JUMP JUMPDEST SWAP1 DUP1 PUSH1 0x20 SWAP4 SWAP3 DUP2 DUP5 MSTORE DUP5 DUP5 ADD CALLDATACOPY PUSH1 0x0 DUP3 DUP3 ADD DUP5 ADD MSTORE PUSH1 0x1F ADD PUSH1 0x1F NOT AND ADD ADD SWAP1 JUMP JUMPDEST SWAP2 SWAP1 DUP3 SUB SWAP2 DUP3 GT PUSH2 0x20C1 JUMPI JUMP JUMPDEST SWAP2 SWAP1 DUP3 ADD DUP1 SWAP3 GT PUSH2 0x20C1 JUMPI JUMP JUMPDEST PUSH1 0x2 PUSH1 0x1 SLOAD EQ PUSH2 0x3465 JUMPI PUSH1 0x2 PUSH1 0x1 SSTORE JUMP JUMPDEST PUSH1 0x40 MLOAD PUSH3 0x461BCD PUSH1 0xE5 SHL DUP2 MSTORE PUSH1 0x20 PUSH1 0x4 DUP3 ADD MSTORE PUSH1 0x1F PUSH1 0x24 DUP3 ADD MSTORE PUSH32 0x5265656E7472616E637947756172643A207265656E7472616E742063616C6C00 PUSH1 0x44 DUP3 ADD MSTORE PUSH1 0x64 SWAP1 REVERT JUMPDEST PUSH1 0x1 DUP1 PUSH1 0xA0 SHL SUB AND SWAP1 PUSH1 0x40 MLOAD PUSH1 0x40 DUP2 ADD PUSH1 0x1 PUSH1 0x1 PUSH1 0x40 SHL SUB SWAP1 DUP3 DUP2 LT DUP3 DUP3 GT OR PUSH2 0x169D JUMPI PUSH1 0x40 MSTORE PUSH1 0x20 SWAP4 DUP5 DUP4 MSTORE PUSH32 0x5361666545524332303A206C6F772D6C6576656C2063616C6C206661696C6564 DUP6 DUP5 ADD MSTORE PUSH1 0x0 DUP1 DUP6 DUP8 DUP3 SWAP8 MLOAD SWAP2 ADD DUP3 DUP6 GAS CALL SWAP1 RETURNDATASIZE ISZERO PUSH2 0x35F5 JUMPI RETURNDATASIZE SWAP3 DUP4 GT PUSH2 0x35E1 JUMPI SWAP1 PUSH2 0x3544 SWAP4 SWAP3 SWAP2 PUSH1 0x40 MLOAD SWAP3 PUSH2 0x3537 DUP9 PUSH1 0x1F NOT PUSH1 0x1F DUP5 ADD AND ADD DUP6 PUSH2 0x3266 JUMP JUMPDEST DUP4 MSTORE RETURNDATASIZE DUP7 DUP9 DUP6 ADD RETURNDATACOPY PUSH2 0x3600 JUMP JUMPDEST DUP1 MLOAD SWAP2 DUP3 ISZERO SWAP2 DUP5 DUP4 ISZERO PUSH2 0x35B6 JUMPI JUMPDEST POP POP POP SWAP1 POP ISZERO PUSH2 0x355F JUMPI POP JUMP JUMPDEST PUSH1 0x84 SWAP1 PUSH1 0x40 MLOAD SWAP1 PUSH3 0x461BCD PUSH1 0xE5 SHL DUP3 MSTORE PUSH1 0x4 DUP3 ADD MSTORE PUSH1 0x2A PUSH1 0x24 DUP3 ADD MSTORE PUSH32 0x5361666545524332303A204552433230206F7065726174696F6E20646964206E PUSH1 0x44 DUP3 ADD MSTORE PUSH10 0x1BDD081CDD58D8D95959 PUSH1 0xB2 SHL PUSH1 0x64 DUP3 ADD MSTORE REVERT JUMPDEST SWAP2 SWAP4 DUP2 DUP1 SWAP5 POP ADD SUB SLT PUSH2 0x35DD JUMPI DUP3 ADD MLOAD SWAP1 DUP2 ISZERO ISZERO DUP3 SUB PUSH2 0x35DA JUMPI POP DUP1 CODESIZE DUP1 DUP5 PUSH2 0x3552 JUMP JUMPDEST DUP1 REVERT JUMPDEST POP DUP1 REVERT JUMPDEST PUSH4 0x4E487B71 PUSH1 0xE0 SHL DUP6 MSTORE PUSH1 0x41 PUSH1 0x4 MSTORE PUSH1 0x24 DUP6 REVERT JUMPDEST SWAP1 PUSH2 0x3544 SWAP4 SWAP3 POP PUSH1 0x60 SWAP2 JUMPDEST SWAP2 SWAP3 SWAP1 ISZERO PUSH2 0x3662 JUMPI POP DUP2 MLOAD ISZERO PUSH2 0x3614 JUMPI POP SWAP1 JUMP JUMPDEST EXTCODESIZE ISZERO PUSH2 0x361D JUMPI SWAP1 JUMP JUMPDEST PUSH1 0x40 MLOAD PUSH3 0x461BCD PUSH1 0xE5 SHL DUP2 MSTORE PUSH1 0x20 PUSH1 0x4 DUP3 ADD MSTORE PUSH1 0x1D PUSH1 0x24 DUP3 ADD MSTORE PUSH32 0x416464726573733A2063616C6C20746F206E6F6E2D636F6E7472616374000000 PUSH1 0x44 DUP3 ADD MSTORE PUSH1 0x64 SWAP1 REVERT JUMPDEST DUP3 MLOAD SWAP1 SWAP2 POP ISZERO PUSH2 0x3675 JUMPI POP DUP1 MLOAD SWAP1 PUSH1 0x20 ADD REVERT JUMPDEST PUSH1 0x40 MLOAD PUSH3 0x461BCD PUSH1 0xE5 SHL DUP2 MSTORE PUSH1 0x20 PUSH1 0x4 DUP3 ADD MSTORE SWAP1 DUP2 SWAP1 PUSH2 0x3699 SWAP1 PUSH1 0x24 DUP4 ADD SWAP1 PUSH2 0x3114 JUMP JUMPDEST SUB SWAP1 REVERT JUMPDEST ISZERO PUSH2 0x36A4 JUMPI JUMP JUMPDEST PUSH1 0x40 MLOAD PUSH3 0x461BCD PUSH1 0xE5 SHL DUP2 MSTORE PUSH1 0x20 PUSH1 0x4 DUP3 ADD MSTORE PUSH1 0xE PUSH1 0x24 DUP3 ADD MSTORE PUSH14 0x2737BA103837B7B61037BBB732B9 PUSH1 0x91 SHL PUSH1 0x44 DUP3 ADD MSTORE PUSH1 0x64 SWAP1 REVERT JUMPDEST PUSH1 0x0 NOT DUP2 EQ PUSH2 0x20C1 JUMPI PUSH1 0x1 ADD SWAP1 JUMP JUMPDEST CALLDATALOAD PUSH2 0xFFFF DUP2 AND DUP2 SUB PUSH2 0x251 JUMPI SWAP1 JUMP JUMPDEST DUP2 DUP2 MUL SWAP3 SWAP2 DUP2 ISZERO SWAP2 DUP5 DIV EQ OR ISZERO PUSH2 0x20C1 JUMPI JUMP JUMPDEST ISZERO PUSH2 0x3712 JUMPI JUMP JUMPDEST PUSH1 0x40 MLOAD PUSH3 0x461BCD PUSH1 0xE5 SHL DUP2 MSTORE PUSH1 0x20 PUSH1 0x4 DUP3 ADD MSTORE PUSH1 0x17 PUSH1 0x24 DUP3 ADD MSTORE PUSH32 0x4E6F7420617574686F72697A656420617070726F766572000000000000000000 PUSH1 0x44 DUP3 ADD MSTORE PUSH1 0x64 SWAP1 REVERT JUMPDEST ISZERO PUSH2 0x375E JUMPI JUMP JUMPDEST PUSH1 0x40 MLOAD PUSH3 0x461BCD PUSH1 0xE5 SHL DUP2 MSTORE PUSH1 0x20 PUSH1 0x4 DUP3 ADD MSTORE PUSH1 0xD PUSH1 0x24 DUP3 ADD MSTORE PUSH13 0x139BDD081CDD589B5A5D1D1959 PUSH1 0x9A SHL PUSH1 0x44 DUP3 ADD MSTORE PUSH1 0x64 SWAP1 REVERT JUMPDEST PUSH1 0x40 MLOAD PUSH4 0xA9059CBB PUSH1 0xE0 SHL PUSH1 0x20 DUP3 ADD MSTORE PUSH1 0x1 PUSH1 0x1 PUSH1 0xA0 SHL SUB SWAP1 SWAP3 AND PUSH1 0x24 DUP4 ADD MSTORE PUSH1 0x44 DUP1 DUP4 ADD SWAP4 SWAP1 SWAP4 MSTORE SWAP2 DUP2 MSTORE PUSH2 0x32C5 SWAP2 PUSH2 0x37CC DUP3 PUSH2 0x3213 JUMP JUMPDEST PUSH2 0x34AA JUMP JUMPDEST SWAP1 PUSH1 0x0 JUMPDEST PUSH1 0x6 DUP4 ADD DUP1 SLOAD DUP3 LT ISZERO PUSH2 0x3822 JUMPI DUP2 PUSH2 0x37EC SWAP2 PUSH2 0x30FC JUMP JUMPDEST SWAP1 SLOAD PUSH1 0x3 SWAP2 SWAP1 SWAP2 SHL SHR PUSH1 0x1 PUSH1 0x1 PUSH1 0xA0 SHL SUB SWAP1 DUP2 AND SWAP1 DUP4 AND EQ PUSH2 0x381A JUMPI PUSH2 0x3813 PUSH1 0x6 SWAP2 PUSH2 0x36DA JUMP JUMPDEST SWAP1 POP PUSH2 0x37D5 JUMP JUMPDEST POP POP POP PUSH1 0x1 SWAP1 JUMP JUMPDEST POP POP POP POP PUSH1 0x0 SWAP1 JUMP INVALID 0x1E PUSH30 0x35836BBB5E11D9D46FE7B9BC928257622B8CADEBEED7545B2AB7B69295 LOG2 PUSH5 0x6970667358 0x22 SLT KECCAK256 PUSH25 0x3085272C3AECFB36E0EED3D738BA6C0A83FCD6E82F4A5D12DA 0x5C PUSH28 0x84A113F64736F6C6343000814003300000000000000000000000000 "},"methodIdentifiers":{"BASIS_POINTS()":"e1f1c4a7","MAX_MILESTONES()":"4c05abeb","MIN_POOL_AMOUNT()":"17ab06e1","activatePool(bytes32)":"73dfe0da","addApprover(bytes32,address)":"2646b18e","allPoolIds(uint256)":"fcb72a9c","approveMilestone(bytes32,uint8)":"05060437","claim()":"4e71d92d","createMilestone(bytes32,string,string,uint16,address[],uint16[])":"6c738176","createPool(string,string,uint256,uint256,(uint8,bool,uint256))":"7518aa32","fundPool(bytes32,uint256)":"50428089","getMilestone(bytes32)":"6b72a7e8","getOwnerPools(address)":"b5809d1b","getParticipant(bytes32,address)":"6785ce09","getPendingBalance(address)":"51d550d2","getPool(bytes32)":"f6c00927","getPoolMilestones(bytes32)":"f81a30b0","getQualityGate(bytes32)":"0967cc3d","milestones(bytes32)":"9de9aaf4","operators(address)":"13e7c9d8","owner()":"8da5cb5b","ownerPools(address,uint256)":"d6e4183a","pause()":"8456cb59","paused()":"5c975abb","pendingBalances(address)":"ecdae41b","platformFeeBps()":"22dcd13e","platformTreasury()":"e138818c","poolApprovers(bytes32,address)":"20cfff3a","poolMilestones(bytes32,uint256)":"6a53ad4f","poolParticipants(bytes32,address)":"e3698c0a","poolQualityGates(bytes32)":"bdcae3d8","pools(bytes32)":"b5217bb4","rejectMilestone(bytes32,string)":"babab62c","releaseMilestoneFunds(bytes32)":"9c57edde","removeApprover(bytes32,address)":"b9aeade5","renounceOwnership()":"715018a6","setOperator(address,bool)":"558a7297","setPlatformFee(uint16)":"5cbc742c","setPlatformTreasury(address)":"7cd86d60","settlementToken()":"7b9e618d","startMilestone(bytes32)":"d276be96","submitMilestone(bytes32,bytes32)":"d6b2018b","transferOwnership(address)":"f2fde38b","unpause()":"3f4ba83a"}}}}}