{
  "_format": "hh-sol-artifact-1",
  "contractName": "BudgetPool",
  "sourceName": "contracts/BudgetPool.sol",
  "abi": [
    {
      "inputs": [
        {
          "internalType": "address",
          "name": "_settlementToken",
          "type": "address"
        },
        {
          "internalType": "address",
          "name": "_platformTreasury",
          "type": "address"
        },
        {
          "internalType": "uint16",
          "name": "_platformFeeBps",
          "type": "uint16"
        }
      ],
      "stateMutability": "nonpayable",
      "type": "constructor"
    },
    {
      "anonymous": false,
      "inputs": [
        {
          "indexed": true,
          "internalType": "bytes32",
          "name": "milestoneId",
          "type": "bytes32"
        },
        {
          "indexed": false,
          "internalType": "uint256",
          "name": "totalAmount",
          "type": "uint256"
        },
        {
          "indexed": false,
          "internalType": "uint256",
          "name": "participantCount",
          "type": "uint256"
        }
      ],
      "name": "FundsReleased",
      "type": "event"
    },
    {
      "anonymous": false,
      "inputs": [
        {
          "indexed": true,
          "internalType": "bytes32",
          "name": "milestoneId",
          "type": "bytes32"
        },
        {
          "indexed": true,
          "internalType": "address",
          "name": "approver",
          "type": "address"
        },
        {
          "indexed": false,
          "internalType": "uint8",
          "name": "qualityScore",
          "type": "uint8"
        }
      ],
      "name": "MilestoneApproved",
      "type": "event"
    },
    {
      "anonymous": false,
      "inputs": [
        {
          "indexed": true,
          "internalType": "bytes32",
          "name": "milestoneId",
          "type": "bytes32"
        },
        {
          "indexed": true,
          "internalType": "bytes32",
          "name": "poolId",
          "type": "bytes32"
        },
        {
          "indexed": false,
          "internalType": "string",
          "name": "title",
          "type": "string"
        },
        {
          "indexed": false,
          "internalType": "uint256",
          "name": "budgetAmount",
          "type": "uint256"
        }
      ],
      "name": "MilestoneCreated",
      "type": "event"
    },
    {
      "anonymous": false,
      "inputs": [
        {
          "indexed": true,
          "internalType": "bytes32",
          "name": "milestoneId",
          "type": "bytes32"
        },
        {
          "indexed": true,
          "internalType": "address",
          "name": "approver",
          "type": "address"
        },
        {
          "indexed": false,
          "internalType": "string",
          "name": "reason",
          "type": "string"
        }
      ],
      "name": "MilestoneRejected",
      "type": "event"
    },
    {
      "anonymous": false,
      "inputs": [
        {
          "indexed": true,
          "internalType": "bytes32",
          "name": "milestoneId",
          "type": "bytes32"
        },
        {
          "indexed": false,
          "internalType": "enum BudgetPool.MilestoneStatus",
          "name": "oldStatus",
          "type": "uint8"
        },
        {
          "indexed": false,
          "internalType": "enum BudgetPool.MilestoneStatus",
          "name": "newStatus",
          "type": "uint8"
        }
      ],
      "name": "MilestoneStatusChanged",
      "type": "event"
    },
    {
      "anonymous": false,
      "inputs": [
        {
          "indexed": true,
          "internalType": "bytes32",
          "name": "milestoneId",
          "type": "bytes32"
        },
        {
          "indexed": false,
          "internalType": "bytes32",
          "name": "deliverableHash",
          "type": "bytes32"
        },
        {
          "indexed": true,
          "internalType": "address",
          "name": "submitter",
          "type": "address"
        }
      ],
      "name": "MilestoneSubmitted",
      "type": "event"
    },
    {
      "anonymous": false,
      "inputs": [
        {
          "indexed": true,
          "internalType": "address",
          "name": "operator",
          "type": "address"
        },
        {
          "indexed": false,
          "internalType": "bool",
          "name": "authorized",
          "type": "bool"
        }
      ],
      "name": "OperatorUpdated",
      "type": "event"
    },
    {
      "anonymous": false,
      "inputs": [
        {
          "indexed": true,
          "internalType": "address",
          "name": "previousOwner",
          "type": "address"
        },
        {
          "indexed": true,
          "internalType": "address",
          "name": "newOwner",
          "type": "address"
        }
      ],
      "name": "OwnershipTransferred",
      "type": "event"
    },
    {
      "anonymous": false,
      "inputs": [
        {
          "indexed": true,
          "internalType": "bytes32",
          "name": "milestoneId",
          "type": "bytes32"
        },
        {
          "indexed": true,
          "internalType": "address",
          "name": "participant",
          "type": "address"
        },
        {
          "indexed": false,
          "internalType": "uint256",
          "name": "amount",
          "type": "uint256"
        }
      ],
      "name": "ParticipantPaid",
      "type": "event"
    },
    {
      "anonymous": false,
      "inputs": [
        {
          "indexed": false,
          "internalType": "address",
          "name": "account",
          "type": "address"
        }
      ],
      "name": "Paused",
      "type": "event"
    },
    {
      "anonymous": false,
      "inputs": [
        {
          "indexed": true,
          "internalType": "bytes32",
          "name": "poolId",
          "type": "bytes32"
        },
        {
          "indexed": true,
          "internalType": "address",
          "name": "owner",
          "type": "address"
        },
        {
          "indexed": false,
          "internalType": "string",
          "name": "name",
          "type": "string"
        },
        {
          "indexed": false,
          "internalType": "uint256",
          "name": "totalBudget",
          "type": "uint256"
        },
        {
          "indexed": false,
          "internalType": "address",
          "name": "token",
          "type": "address"
        }
      ],
      "name": "PoolCreated",
      "type": "event"
    },
    {
      "anonymous": false,
      "inputs": [
        {
          "indexed": true,
          "internalType": "bytes32",
          "name": "poolId",
          "type": "bytes32"
        },
        {
          "indexed": true,
          "internalType": "address",
          "name": "funder",
          "type": "address"
        },
        {
          "indexed": false,
          "internalType": "uint256",
          "name": "amount",
          "type": "uint256"
        }
      ],
      "name": "PoolFunded",
      "type": "event"
    },
    {
      "anonymous": false,
      "inputs": [
        {
          "indexed": true,
          "internalType": "bytes32",
          "name": "poolId",
          "type": "bytes32"
        },
        {
          "indexed": false,
          "internalType": "enum BudgetPool.PoolStatus",
          "name": "oldStatus",
          "type": "uint8"
        },
        {
          "indexed": false,
          "internalType": "enum BudgetPool.PoolStatus",
          "name": "newStatus",
          "type": "uint8"
        }
      ],
      "name": "PoolStatusChanged",
      "type": "event"
    },
    {
      "anonymous": false,
      "inputs": [
        {
          "indexed": false,
          "internalType": "address",
          "name": "account",
          "type": "address"
        }
      ],
      "name": "Unpaused",
      "type": "event"
    },
    {
      "inputs": [],
      "name": "BASIS_POINTS",
      "outputs": [
        {
          "internalType": "uint16",
          "name": "",
          "type": "uint16"
        }
      ],
      "stateMutability": "view",
      "type": "function"
    },
    {
      "inputs": [],
      "name": "MAX_MILESTONES",
      "outputs": [
        {
          "internalType": "uint256",
          "name": "",
          "type": "uint256"
        }
      ],
      "stateMutability": "view",
      "type": "function"
    },
    {
      "inputs": [],
      "name": "MIN_POOL_AMOUNT",
      "outputs": [
        {
          "internalType": "uint256",
          "name": "",
          "type": "uint256"
        }
      ],
      "stateMutability": "view",
      "type": "function"
    },
    {
      "inputs": [
        {
          "internalType": "bytes32",
          "name": "_poolId",
          "type": "bytes32"
        }
      ],
      "name": "activatePool",
      "outputs": [],
      "stateMutability": "nonpayable",
      "type": "function"
    },
    {
      "inputs": [
        {
          "internalType": "bytes32",
          "name": "_poolId",
          "type": "bytes32"
        },
        {
          "internalType": "address",
          "name": "_approver",
          "type": "address"
        }
      ],
      "name": "addApprover",
      "outputs": [],
      "stateMutability": "nonpayable",
      "type": "function"
    },
    {
      "inputs": [
        {
          "internalType": "uint256",
          "name": "",
          "type": "uint256"
        }
      ],
      "name": "allPoolIds",
      "outputs": [
        {
          "internalType": "bytes32",
          "name": "",
          "type": "bytes32"
        }
      ],
      "stateMutability": "view",
      "type": "function"
    },
    {
      "inputs": [
        {
          "internalType": "bytes32",
          "name": "_milestoneId",
          "type": "bytes32"
        },
        {
          "internalType": "uint8",
          "name": "_qualityScore",
          "type": "uint8"
        }
      ],
      "name": "approveMilestone",
      "outputs": [],
      "stateMutability": "nonpayable",
      "type": "function"
    },
    {
      "inputs": [],
      "name": "claim",
      "outputs": [],
      "stateMutability": "nonpayable",
      "type": "function"
    },
    {
      "inputs": [
        {
          "internalType": "bytes32",
          "name": "_poolId",
          "type": "bytes32"
        },
        {
          "internalType": "string",
          "name": "_title",
          "type": "string"
        },
        {
          "internalType": "string",
          "name": "_description",
          "type": "string"
        },
        {
          "internalType": "uint16",
          "name": "_percentOfPool",
          "type": "uint16"
        },
        {
          "internalType": "address[]",
          "name": "_participants",
          "type": "address[]"
        },
        {
          "internalType": "uint16[]",
          "name": "_shares",
          "type": "uint16[]"
        }
      ],
      "name": "createMilestone",
      "outputs": [
        {
          "internalType": "bytes32",
          "name": "milestoneId",
          "type": "bytes32"
        }
      ],
      "stateMutability": "nonpayable",
      "type": "function"
    },
    {
      "inputs": [
        {
          "internalType": "string",
          "name": "_name",
          "type": "string"
        },
        {
          "internalType": "string",
          "name": "_description",
          "type": "string"
        },
        {
          "internalType": "uint256",
          "name": "_totalBudget",
          "type": "uint256"
        },
        {
          "internalType": "uint256",
          "name": "_deadline",
          "type": "uint256"
        },
        {
          "components": [
            {
              "internalType": "uint8",
              "name": "minQualityScore",
              "type": "uint8"
            },
            {
              "internalType": "bool",
              "name": "requiresApproval",
              "type": "bool"
            },
            {
              "internalType": "uint256",
              "name": "autoReleaseDelay",
              "type": "uint256"
            }
          ],
          "internalType": "struct BudgetPool.QualityGate",
          "name": "_qualityGate",
          "type": "tuple"
        }
      ],
      "name": "createPool",
      "outputs": [
        {
          "internalType": "bytes32",
          "name": "poolId",
          "type": "bytes32"
        }
      ],
      "stateMutability": "nonpayable",
      "type": "function"
    },
    {
      "inputs": [
        {
          "internalType": "bytes32",
          "name": "_poolId",
          "type": "bytes32"
        },
        {
          "internalType": "uint256",
          "name": "_amount",
          "type": "uint256"
        }
      ],
      "name": "fundPool",
      "outputs": [],
      "stateMutability": "nonpayable",
      "type": "function"
    },
    {
      "inputs": [
        {
          "internalType": "bytes32",
          "name": "_milestoneId",
          "type": "bytes32"
        }
      ],
      "name": "getMilestone",
      "outputs": [
        {
          "components": [
            {
              "internalType": "bytes32",
              "name": "milestoneId",
              "type": "bytes32"
            },
            {
              "internalType": "bytes32",
              "name": "poolId",
              "type": "bytes32"
            },
            {
              "internalType": "string",
              "name": "title",
              "type": "string"
            },
            {
              "internalType": "string",
              "name": "description",
              "type": "string"
            },
            {
              "internalType": "uint256",
              "name": "budgetAmount",
              "type": "uint256"
            },
            {
              "internalType": "uint16",
              "name": "percentOfPool",
              "type": "uint16"
            },
            {
              "internalType": "enum BudgetPool.MilestoneStatus",
              "name": "status",
              "type": "uint8"
            },
            {
              "internalType": "address[]",
              "name": "participants",
              "type": "address[]"
            },
            {
              "internalType": "uint16[]",
              "name": "participantShares",
              "type": "uint16[]"
            },
            {
              "internalType": "bytes32",
              "name": "deliverableHash",
              "type": "bytes32"
            },
            {
              "internalType": "uint256",
              "name": "submittedAt",
              "type": "uint256"
            },
            {
              "internalType": "uint256",
              "name": "approvedAt",
              "type": "uint256"
            },
            {
              "internalType": "address",
              "name": "approver",
              "type": "address"
            },
            {
              "internalType": "uint8",
              "name": "qualityScore",
              "type": "uint8"
            }
          ],
          "internalType": "struct BudgetPool.Milestone",
          "name": "",
          "type": "tuple"
        }
      ],
      "stateMutability": "view",
      "type": "function"
    },
    {
      "inputs": [
        {
          "internalType": "address",
          "name": "_owner",
          "type": "address"
        }
      ],
      "name": "getOwnerPools",
      "outputs": [
        {
          "internalType": "bytes32[]",
          "name": "",
          "type": "bytes32[]"
        }
      ],
      "stateMutability": "view",
      "type": "function"
    },
    {
      "inputs": [
        {
          "internalType": "bytes32",
          "name": "_poolId",
          "type": "bytes32"
        },
        {
          "internalType": "address",
          "name": "_participant",
          "type": "address"
        }
      ],
      "name": "getParticipant",
      "outputs": [
        {
          "components": [
            {
              "internalType": "address",
              "name": "wallet",
              "type": "address"
            },
            {
              "internalType": "uint256",
              "name": "totalEarned",
              "type": "uint256"
            },
            {
              "internalType": "uint256",
              "name": "pendingAmount",
              "type": "uint256"
            },
            {
              "internalType": "uint256",
              "name": "claimedAmount",
              "type": "uint256"
            }
          ],
          "internalType": "struct BudgetPool.Participant",
          "name": "",
          "type": "tuple"
        }
      ],
      "stateMutability": "view",
      "type": "function"
    },
    {
      "inputs": [
        {
          "internalType": "address",
          "name": "_account",
          "type": "address"
        }
      ],
      "name": "getPendingBalance",
      "outputs": [
        {
          "internalType": "uint256",
          "name": "",
          "type": "uint256"
        }
      ],
      "stateMutability": "view",
      "type": "function"
    },
    {
      "inputs": [
        {
          "internalType": "bytes32",
          "name": "_poolId",
          "type": "bytes32"
        }
      ],
      "name": "getPool",
      "outputs": [
        {
          "components": [
            {
              "internalType": "bytes32",
              "name": "poolId",
              "type": "bytes32"
            },
            {
              "internalType": "address",
              "name": "owner",
              "type": "address"
            },
            {
              "internalType": "string",
              "name": "name",
              "type": "string"
            },
            {
              "internalType": "string",
              "name": "description",
              "type": "string"
            },
            {
              "internalType": "uint256",
              "name": "totalBudget",
              "type": "uint256"
            },
            {
              "internalType": "uint256",
              "name": "fundedAmount",
              "type": "uint256"
            },
            {
              "internalType": "uint256",
              "name": "reservedAmount",
              "type": "uint256"
            },
            {
              "internalType": "uint256",
              "name": "releasedAmount",
              "type": "uint256"
            },
            {
              "internalType": "address",
              "name": "token",
              "type": "address"
            },
            {
              "internalType": "enum BudgetPool.PoolStatus",
              "name": "status",
              "type": "uint8"
            },
            {
              "internalType": "uint256",
              "name": "createdAt",
              "type": "uint256"
            },
            {
              "internalType": "uint256",
              "name": "deadline",
              "type": "uint256"
            }
          ],
          "internalType": "struct BudgetPool.Pool",
          "name": "",
          "type": "tuple"
        }
      ],
      "stateMutability": "view",
      "type": "function"
    },
    {
      "inputs": [
        {
          "internalType": "bytes32",
          "name": "_poolId",
          "type": "bytes32"
        }
      ],
      "name": "getPoolMilestones",
      "outputs": [
        {
          "internalType": "bytes32[]",
          "name": "",
          "type": "bytes32[]"
        }
      ],
      "stateMutability": "view",
      "type": "function"
    },
    {
      "inputs": [
        {
          "internalType": "bytes32",
          "name": "_poolId",
          "type": "bytes32"
        }
      ],
      "name": "getQualityGate",
      "outputs": [
        {
          "components": [
            {
              "internalType": "uint8",
              "name": "minQualityScore",
              "type": "uint8"
            },
            {
              "internalType": "bool",
              "name": "requiresApproval",
              "type": "bool"
            },
            {
              "internalType": "uint256",
              "name": "autoReleaseDelay",
              "type": "uint256"
            }
          ],
          "internalType": "struct BudgetPool.QualityGate",
          "name": "",
          "type": "tuple"
        }
      ],
      "stateMutability": "view",
      "type": "function"
    },
    {
      "inputs": [
        {
          "internalType": "bytes32",
          "name": "",
          "type": "bytes32"
        }
      ],
      "name": "milestones",
      "outputs": [
        {
          "internalType": "bytes32",
          "name": "milestoneId",
          "type": "bytes32"
        },
        {
          "internalType": "bytes32",
          "name": "poolId",
          "type": "bytes32"
        },
        {
          "internalType": "string",
          "name": "title",
          "type": "string"
        },
        {
          "internalType": "string",
          "name": "description",
          "type": "string"
        },
        {
          "internalType": "uint256",
          "name": "budgetAmount",
          "type": "uint256"
        },
        {
          "internalType": "uint16",
          "name": "percentOfPool",
          "type": "uint16"
        },
        {
          "internalType": "enum BudgetPool.MilestoneStatus",
          "name": "status",
          "type": "uint8"
        },
        {
          "internalType": "bytes32",
          "name": "deliverableHash",
          "type": "bytes32"
        },
        {
          "internalType": "uint256",
          "name": "submittedAt",
          "type": "uint256"
        },
        {
          "internalType": "uint256",
          "name": "approvedAt",
          "type": "uint256"
        },
        {
          "internalType": "address",
          "name": "approver",
          "type": "address"
        },
        {
          "internalType": "uint8",
          "name": "qualityScore",
          "type": "uint8"
        }
      ],
      "stateMutability": "view",
      "type": "function"
    },
    {
      "inputs": [
        {
          "internalType": "address",
          "name": "",
          "type": "address"
        }
      ],
      "name": "operators",
      "outputs": [
        {
          "internalType": "bool",
          "name": "",
          "type": "bool"
        }
      ],
      "stateMutability": "view",
      "type": "function"
    },
    {
      "inputs": [],
      "name": "owner",
      "outputs": [
        {
          "internalType": "address",
          "name": "",
          "type": "address"
        }
      ],
      "stateMutability": "view",
      "type": "function"
    },
    {
      "inputs": [
        {
          "internalType": "address",
          "name": "",
          "type": "address"
        },
        {
          "internalType": "uint256",
          "name": "",
          "type": "uint256"
        }
      ],
      "name": "ownerPools",
      "outputs": [
        {
          "internalType": "bytes32",
          "name": "",
          "type": "bytes32"
        }
      ],
      "stateMutability": "view",
      "type": "function"
    },
    {
      "inputs": [],
      "name": "pause",
      "outputs": [],
      "stateMutability": "nonpayable",
      "type": "function"
    },
    {
      "inputs": [],
      "name": "paused",
      "outputs": [
        {
          "internalType": "bool",
          "name": "",
          "type": "bool"
        }
      ],
      "stateMutability": "view",
      "type": "function"
    },
    {
      "inputs": [
        {
          "internalType": "address",
          "name": "",
          "type": "address"
        }
      ],
      "name": "pendingBalances",
      "outputs": [
        {
          "internalType": "uint256",
          "name": "",
          "type": "uint256"
        }
      ],
      "stateMutability": "view",
      "type": "function"
    },
    {
      "inputs": [],
      "name": "platformFeeBps",
      "outputs": [
        {
          "internalType": "uint16",
          "name": "",
          "type": "uint16"
        }
      ],
      "stateMutability": "view",
      "type": "function"
    },
    {
      "inputs": [],
      "name": "platformTreasury",
      "outputs": [
        {
          "internalType": "address",
          "name": "",
          "type": "address"
        }
      ],
      "stateMutability": "view",
      "type": "function"
    },
    {
      "inputs": [
        {
          "internalType": "bytes32",
          "name": "",
          "type": "bytes32"
        },
        {
          "internalType": "address",
          "name": "",
          "type": "address"
        }
      ],
      "name": "poolApprovers",
      "outputs": [
        {
          "internalType": "bool",
          "name": "",
          "type": "bool"
        }
      ],
      "stateMutability": "view",
      "type": "function"
    },
    {
      "inputs": [
        {
          "internalType": "bytes32",
          "name": "",
          "type": "bytes32"
        },
        {
          "internalType": "uint256",
          "name": "",
          "type": "uint256"
        }
      ],
      "name": "poolMilestones",
      "outputs": [
        {
          "internalType": "bytes32",
          "name": "",
          "type": "bytes32"
        }
      ],
      "stateMutability": "view",
      "type": "function"
    },
    {
      "inputs": [
        {
          "internalType": "bytes32",
          "name": "",
          "type": "bytes32"
        },
        {
          "internalType": "address",
          "name": "",
          "type": "address"
        }
      ],
      "name": "poolParticipants",
      "outputs": [
        {
          "internalType": "address",
          "name": "wallet",
          "type": "address"
        },
        {
          "internalType": "uint256",
          "name": "totalEarned",
          "type": "uint256"
        },
        {
          "internalType": "uint256",
          "name": "pendingAmount",
          "type": "uint256"
        },
        {
          "internalType": "uint256",
          "name": "claimedAmount",
          "type": "uint256"
        }
      ],
      "stateMutability": "view",
      "type": "function"
    },
    {
      "inputs": [
        {
          "internalType": "bytes32",
          "name": "",
          "type": "bytes32"
        }
      ],
      "name": "poolQualityGates",
      "outputs": [
        {
          "internalType": "uint8",
          "name": "minQualityScore",
          "type": "uint8"
        },
        {
          "internalType": "bool",
          "name": "requiresApproval",
          "type": "bool"
        },
        {
          "internalType": "uint256",
          "name": "autoReleaseDelay",
          "type": "uint256"
        }
      ],
      "stateMutability": "view",
      "type": "function"
    },
    {
      "inputs": [
        {
          "internalType": "bytes32",
          "name": "",
          "type": "bytes32"
        }
      ],
      "name": "pools",
      "outputs": [
        {
          "internalType": "bytes32",
          "name": "poolId",
          "type": "bytes32"
        },
        {
          "internalType": "address",
          "name": "owner",
          "type": "address"
        },
        {
          "internalType": "string",
          "name": "name",
          "type": "string"
        },
        {
          "internalType": "string",
          "name": "description",
          "type": "string"
        },
        {
          "internalType": "uint256",
          "name": "totalBudget",
          "type": "uint256"
        },
        {
          "internalType": "uint256",
          "name": "fundedAmount",
          "type": "uint256"
        },
        {
          "internalType": "uint256",
          "name": "reservedAmount",
          "type": "uint256"
        },
        {
          "internalType": "uint256",
          "name": "releasedAmount",
          "type": "uint256"
        },
        {
          "internalType": "address",
          "name": "token",
          "type": "address"
        },
        {
          "internalType": "enum BudgetPool.PoolStatus",
          "name": "status",
          "type": "uint8"
        },
        {
          "internalType": "uint256",
          "name": "createdAt",
          "type": "uint256"
        },
        {
          "internalType": "uint256",
          "name": "deadline",
          "type": "uint256"
        }
      ],
      "stateMutability": "view",
      "type": "function"
    },
    {
      "inputs": [
        {
          "internalType": "bytes32",
          "name": "_milestoneId",
          "type": "bytes32"
        },
        {
          "internalType": "string",
          "name": "_reason",
          "type": "string"
        }
      ],
      "name": "rejectMilestone",
      "outputs": [],
      "stateMutability": "nonpayable",
      "type": "function"
    },
    {
      "inputs": [
        {
          "internalType": "bytes32",
          "name": "_milestoneId",
          "type": "bytes32"
        }
      ],
      "name": "releaseMilestoneFunds",
      "outputs": [],
      "stateMutability": "nonpayable",
      "type": "function"
    },
    {
      "inputs": [
        {
          "internalType": "bytes32",
          "name": "_poolId",
          "type": "bytes32"
        },
        {
          "internalType": "address",
          "name": "_approver",
          "type": "address"
        }
      ],
      "name": "removeApprover",
      "outputs": [],
      "stateMutability": "nonpayable",
      "type": "function"
    },
    {
      "inputs": [],
      "name": "renounceOwnership",
      "outputs": [],
      "stateMutability": "nonpayable",
      "type": "function"
    },
    {
      "inputs": [
        {
          "internalType": "address",
          "name": "_operator",
          "type": "address"
        },
        {
          "internalType": "bool",
          "name": "_authorized",
          "type": "bool"
        }
      ],
      "name": "setOperator",
      "outputs": [],
      "stateMutability": "nonpayable",
      "type": "function"
    },
    {
      "inputs": [
        {
          "internalType": "uint16",
          "name": "_feeBps",
          "type": "uint16"
        }
      ],
      "name": "setPlatformFee",
      "outputs": [],
      "stateMutability": "nonpayable",
      "type": "function"
    },
    {
      "inputs": [
        {
          "internalType": "address",
          "name": "_treasury",
          "type": "address"
        }
      ],
      "name": "setPlatformTreasury",
      "outputs": [],
      "stateMutability": "nonpayable",
      "type": "function"
    },
    {
      "inputs": [],
      "name": "settlementToken",
      "outputs": [
        {
          "internalType": "contract IERC20",
          "name": "",
          "type": "address"
        }
      ],
      "stateMutability": "view",
      "type": "function"
    },
    {
      "inputs": [
        {
          "internalType": "bytes32",
          "name": "_milestoneId",
          "type": "bytes32"
        }
      ],
      "name": "startMilestone",
      "outputs": [],
      "stateMutability": "nonpayable",
      "type": "function"
    },
    {
      "inputs": [
        {
          "internalType": "bytes32",
          "name": "_milestoneId",
          "type": "bytes32"
        },
        {
          "internalType": "bytes32",
          "name": "_deliverableHash",
          "type": "bytes32"
        }
      ],
      "name": "submitMilestone",
      "outputs": [],
      "stateMutability": "nonpayable",
      "type": "function"
    },
    {
      "inputs": [
        {
          "internalType": "address",
          "name": "newOwner",
          "type": "address"
        }
      ],
      "name": "transferOwnership",
      "outputs": [],
      "stateMutability": "nonpayable",
      "type": "function"
    },
    {
      "inputs": [],
      "name": "unpause",
      "outputs": [],
      "stateMutability": "nonpayable",
      "type": "function"
    }
  ],
  "bytecode": "0x608034620001ce57601f62003a8038819003918201601f191683019291906001600160401b03841183851017620001d3578160609284926040968752833981010312620001ce576200005181620001e9565b826200006060208401620001e9565b9201519161ffff831691828403620001ce5760008054336001600160a01b03198216811783558751946001600160a01b039390928416907f8be0079c531659141344cd1fd0a4f28419497f9722a3daafe3b4186f6b6457e09080a36001805560025493828416156200019c57501692831562000165576101f41062000132576001600160a81b031990911660089190911b610100600160a81b031617600255600380546001600160b01b0319169190911760a09290921b61ffff60a01b16919091179055516138819081620001ff8239f35b845162461bcd60e51b815260206004820152600c60248201526b08ccaca40e8dede40d0d2ced60a31b6044820152606490fd5b855162461bcd60e51b815260206004820152601060248201526f496e76616c696420747265617375727960801b6044820152606490fd5b62461bcd60e51b815260206004820152600d60248201526c24b73b30b634b2103a37b5b2b760991b6044820152606490fd5b600080fd5b634e487b7160e01b600052604160045260246000fd5b51906001600160a01b0382168203620001ce5756fe6080604052600436101561001257600080fd5b60003560e01c80630506043714612f0b5780630967cc3d14612e8857806313e7c9d814612e4957806317ab06e114612e2b57806320cfff3a14612dde57806322dcd13e14612db95780632646b18e14612d4c5780633f4ba83a14612cb85780634c05abeb14612c9c5780634e71d92d14612c0657806350428089146129d457806351d550d214610590578063558a7297146129555780635c975abb146129325780635cbc742c146128ac5780636785ce09146127f85780636a53ad4f146127c75780636b72a7e8146121c85780636c73817614611a0d578063715018a6146119b457806373dfe0da146118825780637518aa32146113dc5780637b9e618d146113af5780637cd86d601461132f5780638456cb591461129c5780638da5cb5b146112735780639c57edde14610e565780639de9aaf414610d69578063b5217bb414610c7f578063b5809d1b14610c07578063b9aeade514610b9d578063babab62c14610a2a578063bdcae3d8146109e3578063d276be961461081a578063d6b2018b146106d5578063d6e4183a1461067d578063e138818c14610654578063e1f1c4a714610637578063e3698c0a146105ca578063ecdae41b14610590578063f2fde38b146104cc578063f6c00927146102d0578063f81a30b0146102565763fcb72a9c1461020057600080fd5b34610251576020366003190112610251576004356006548110156102515760209060066000527ff652222313e28459528d920b65115c16c04f3efc82aaedc97be59f3f377c0d3f0154604051908152f35b600080fd5b34610251576020806003193601126102515760043560005260088152604060002090604051908181845491828152019360005281600020916000905b8282106102b9576102b5856102a981890382613266565b6040519182918261333a565b0390f35b835486529485019460019384019390910190610292565b346102515760203660031901126102515760006101606040516102f28161324a565b828152826020820152606060408201526060808201528260808201528260a08201528260c08201528260e0820152826101008201528261012082015282610140820152015260043560005260046020526040600020604051906103548261324a565b8054825260018101546001600160a01b0316602083015261037760028201613287565b604083015261038860038201613287565b606083015260048101546080830152600581015460a0830152600681015460c0830152600781015460e083015260ff600882015460018060a01b03811661010085015260a01c169060058210156104b657600a91610120840152600981015461014084015201546101608201526040518091602082528051602083015260018060a01b03602082015116604083015261016061044e610438604084015161018060608701526101a0860190613114565b6060840151858203601f19016080870152613114565b91608081015160a085015260a081015160c085015260c081015160e085015260e081015161010085015260018060a01b03610100820151166101208501526104a061012082015161014086019061332d565b6101408101518285015201516101808301520390f35b634e487b7160e01b600052602160045260246000fd5b34610251576020366003190112610251576104e56130ba565b6104ed613375565b6001600160a01b0390811690811561053c57600054826001600160601b0360a01b821617600055167f8be0079c531659141344cd1fd0a4f28419497f9722a3daafe3b4186f6b6457e0600080a3005b60405162461bcd60e51b815260206004820152602660248201527f4f776e61626c653a206e6577206f776e657220697320746865207a65726f206160448201526564647265737360d01b6064820152608490fd5b34610251576020366003190112610251576001600160a01b036105b16130ba565b16600052600b6020526020604060002054604051908152f35b346102515760403660031901126102515760806105e56130d0565b600435600052600a602052604060002060018060a01b03809216600052602052604060002090815416906001810154906003600282015491015491604051938452602084015260408301526060820152f35b346102515760003660031901126102515760206040516127108152f35b34610251576000366003190112610251576003546040516001600160a01b039091168152602090f35b34610251576040366003190112610251576106966130ba565b6001600160a01b0316600090815260056020526040902080546024359190821015610251576020916106c7916130fc565b90546040519160031b1c8152f35b34610251576040366003190112610251576004356024359080600052602060078152604060002060ff600582015460101c1660068110156104b6576001036107e35761072133826137d1565b156107ac5790818460087fe096a2e780162cc5cd31b73254b580d98b7a47aeb7d6b5df78ccb39960fad2f994015560094291015582600052600781528260008051602061382c833981519152604060ff61079a600583600020018054906202000062ff0000198316179055835192839160101c16613154565b600285820152a26040519384523393a3005b60405162461bcd60e51b815260048101839052600f60248201526e139bdd081c185c9d1a58da5c185b9d608a1b6044820152606490fd5b60405162461bcd60e51b815260048101839052600f60248201526e4e6f7420696e2070726f677265737360881b6044820152606490fd5b34610251576020806003193601126102515760043590816000526007815260406000206001810154600052600482526040600020908054156109a85760ff600883015460a01c1660058110156104b6576002036109715760ff600582015460101c1660068110156104b65761093b576108949033906137d1565b908115610924575b50156108ef57604060ff600160008051602061382c8339815191529385600052600781526108e9600585600020018054906201000062ff0000198316179055855194859160101c16613154565b820152a2005b6064906040519062461bcd60e51b82526004820152600e60248201526d139bdd08185d5d1a1bdc9a5e995960921b6044820152fd5b600101546001600160a01b0316331490508361089c565b60405162461bcd60e51b815260048101849052600e60248201526d496e76616c69642073746174757360901b6044820152606490fd5b60405162461bcd60e51b815260048101849052600f60248201526e506f6f6c206e6f742061637469766560881b6044820152606490fd5b60405162461bcd60e51b8152600481018490526013602482015272135a5b195cdd1bdb99481b9bdd08199bdd5b99606a1b6044820152606490fd5b34610251576020366003190112610251576004356000526009602052606060406000206001815491015460ff60405192818116845260081c16151560208301526040820152f35b34610251576040366003190112610251576004356024356001600160401b03811161025157610a5d903690600401613161565b826000939293526020926007845260016040600020015460005260048452610aa760018060a01b0380600160406000200154163314908115610b81575b8115610b73575b5061370b565b826000526007845260406000209160ff600584015460101c1660068110156104b6577f3247d451f8d302d0c5a27d09a7af2bf8bf96bb4322235717f2b75737b00c446593610af96002600b9314613757565b01336001600160601b0360a01b82541617905583600052600785528360008051602061382c833981519152604060ff610b51600583600020018054906204000062ff0000198316179055835192839160101c16613154565b600489820152a2610b6e6040519283928784523397840191613419565b0390a3005b905060005416331486610aa1565b600c8752604060008181203382528952205460ff169150610a9a565b3461025157604036600319011261025157600435610bb96130d0565b9080600052600460205260018060a01b0390610be08260016040600020015416331461369d565b600052600c60205260406000209116600052602052604060002060ff198154169055600080f35b3461025157602080600319360112610251576001600160a01b03610c296130ba565b1660005260058152604060002090604051908181845491828152019360005281600020916000905b828210610c68576102b5856102a981890382613266565b835486529485019460019384019390910190610c51565b3461025157602036600319011261025157600435600052600460205260406000208054600160a01b60019003806001840154169260028101610cc090613287565b90610ccd60038201613287565b60048201549360058301546006840154600785015491600886015494600987015496600a0154976040519b8c9b8c5260208c01526101808060408d01528b01610d1591613114565b8a810360608c0152610d2691613114565b9760808a015260a089015260c088015260e0870152811661010086015261012085019060a01c60ff1690610d599161332d565b6101408401526101608301520390f35b346102515760203660031901126102515760043560005260076020526020604060002080549060ff6001820154610da260028401613287565b92610daf60038201613287565b93600482015494610e276005840154610e08600886015493610dfa600988015496600b600a8a0154990154996040519e8f9e8f908152015260408d61018091829101528d0190613114565b908b820360608d0152613114565b9760808a015261ffff811660a08a01528660c08a019160101c16613154565b60e08701526101008601526101208501526001600160a01b03811661014085015260a01c166101608301520390f35b3461025157602036600319011261025157610e6f613454565b600435600052600760205260406000206001810154600052600460205260406000206009602052604060002060ff600584015460101c1660068110156104b65760030361123f5760010154806111e8575b5060048201549160035492612710610edf61ffff8660a01c16836136f8565b0493610eeb858361343a565b94806111c5575b505060005b600683015481101561102357610f1081600685016130fc565b9054600785015460039290921b1c6001600160a01b0316919081101561100d576110089160078501600052612710610f5e61ffff60206000208560041c015460f08660041b161c16896136f8565b0481600052600b6020526040600020610f78828254613447565b90556001860154600052600a806020526040600020836000526020526002604060002001610fa7838254613447565b905560018701546000526020526040600020826000526020526001604060002001610fd3828254613447565b90556040519081527f5e7dd207a3f24ba1bb9151a151d025be6612aaaccb576d7067e8bdf6db0b48c5602060043592a36136da565b610ef7565b634e487b7160e01b600052603260045260246000fd5b509160069060078101611037858254613447565b90550161104583825461343a565b9055600435600052600760205260ff61107f60056040600020018054906205000062ff000019831617905560405192839160101c16613154565b6005602082015260008051602061382c833981519152604060043592a2600181810154600081815260086020526040812080549493915b85811061116f575b505060069350611105575b50015460405191825260208201527f8e25e132959ea22b5719cab8c807d75b76e91da52a2af91bd58df325fa6f5381604060043592a260018055005b60008181526004602052604090819020600801805460ff60a01b198116600360a01b1790915581517feed224251ff614714290287b931e052c4450c4615267685e4c60ce9d673d4d7f929161116190829060a01c60ff1661332d565b60036020820152a2836110c9565b61117981836130fc565b90549060031b1c600052600760205260ff60056040600020015460101c1660068110156104b6576005036111b5576111b0906136da565b6110b6565b50505060069250600085806110be565b6002546111e1926001600160a01b039081169160081c16613793565b8480610ef2565b6111f690600a840154613447565b42106112025782610ec0565b60405162461bcd60e51b815260206004820152601560248201527414995b19585cd94819195b185e481b9bdd081b595d605a1b6044820152606490fd5b60405162461bcd60e51b815260206004820152600c60248201526b139bdd08185c1c1c9bdd995960a21b6044820152606490fd5b34610251576000366003190112610251576000546040516001600160a01b039091168152602090f35b34610251576000366003190112610251576112b5613375565b60025460ff81166112f75760019060ff1916176002557f62e78cea01bee320cd4e420270b5ea74000d11b0c9f74754ebdbfc544b05a2586020604051338152a1005b60405162461bcd60e51b815260206004820152601060248201526f14185d5cd8589b194e881c185d5cd95960821b6044820152606490fd5b34610251576020366003190112610251576113486130ba565b611350613375565b6001600160a01b03168015611377576001600160601b0360a01b6003541617600355600080f35b60405162461bcd60e51b815260206004820152601060248201526f496e76616c696420747265617375727960801b6044820152606490fd5b346102515760003660031901126102515760025460405160089190911c6001600160a01b03168152602090f35b346102515760e0366003190112610251576004356001600160401b0381116102515761140c903690600401613161565b6024356001600160401b0381116102515761142b903690600401613161565b909160443591606036608319011261025157620f4240831061184c574260643511156118145760065460405161148c60748260208101943360601b8652878b6034840137878201904260348301526054820152036054810184520182613266565b5190209384600052600460205260406000209185835560018301336001600160601b0360a01b8254161790556001600160401b03841161169d576114d360028401546131be565b601f81116117df575b50836000601f821160011461177157600091611766575b508460011b906000198660031b1c19161760028401555b60038301916001600160401b03821161169d57819061152984546131be565b601f8111611729575b50600090601f83116001146116be576000926116b3575b50508160011b916000199060031b1c19161790555b826004820155600254906008810160018060a01b03809360081c166affffffffffffffffffffff60a81b825416179055426009820155600a606435910155836000526009602052604060002060843560ff81168091036102515781549060a4358015158091036102515761ff009060081b169161ffff191617178155600160c4359101553360005260056020526115f98460406000206133e4565b60065491600160401b83101561169d57600183018060065583101561100d576020956116857f245989bfcb89a8e90c2aad204c9ab83bbac0f277372dfea13cbfd55e9114061d9387809660066000527ff652222313e28459528d920b65115c16c04f3efc82aaedc97be59f3f377c0d3f015560025460081c169160405193606085526060850191613419565b948783015260408201528033940390a3604051908152f35b634e487b7160e01b600052604160045260246000fd5b013590508880611549565b909150601f198316918460005260206000209260005b81811061171157509084600195949392106116f7575b505050811b01905561155e565b0135600019600384901b60f8161c191690558880806116ea565b919360206001819287870135815501950192016116d4565b61175690856000526020600020601f850160051c8101916020861061175c575b601f0160051c01906133cd565b89611532565b9091508190611749565b9050870135886114f3565b90506002840160005260206000209060005b601f19871681106117c7575085601f198116106117ad575b5050600184811b01600284015561150a565b880135600019600387901b60f8161c19169055878061179b565b9091602060018192858d013581550193019101611783565b61180e90600285016000526020600020601f870160051c8101916020881061175c57601f0160051c01906133cd565b876114dc565b60405162461bcd60e51b815260206004820152601060248201526f496e76616c696420646561646c696e6560801b6044820152606490fd5b60405162461bcd60e51b815260206004820152600e60248201526d42756467657420746f6f206c6f7760901b6044820152606490fd5b3461025157602080600319360112610251576004359081600052600481526118bb60018060a01b0360016040600020015416331461369d565b816000526004815260ff60086040600020015460a01c1660058110156104b6576001036119835781600052600881526040600020541561194f57604060ff60027feed224251ff614714290287b931e052c4450c4615267685e4c60ce9d673d4d7f9385600052600481526108e960088560002001805490600160a11b8660a01b198316179055855194859160a01c1661332d565b6064906040519062461bcd60e51b82526004820152600d60248201526c4e6f206d696c6573746f6e657360981b6044820152fd5b6064906040519062461bcd60e51b82526004820152600a602482015269139bdd08199d5b99195960b21b6044820152fd5b34610251576000366003190112610251576119cd613375565b600080546001600160a01b0319811682556001600160a01b03167f8be0079c531659141344cd1fd0a4f28419497f9722a3daafe3b4186f6b6457e08280a3005b346102515760c0366003190112610251576024356001600160401b03811161025157611a3d903690600401613161565b906044356001600160401b03811161025157611a5d903690600401613161565b90926064359261ffff84168403610251576084356001600160401b03811161025157611a8d90369060040161318e565b9060a4356001600160401b03811161025157611aad90369060040161318e565b916004356000526004602052611ad460018060a01b0360016040600020015416331461369d565b600435600052600460205260406000209360ff600886015460a01c1660058110156104b65780159081156121bd575b5015612180576004356000526008602052601460406000205410156121455783810361210e5761271061ffff8a16116120d7576000805b858110612092575061ffff612710911603612054576004356000526008602052604060002054604051611b97608082602081019460043586528c8c60408401378c8201904260408301526060820152036060810184520182613266565b51902098612710611bb061ffff831660048901546136f8565b04988a600052600760205260406000209b8b8d558c60016004359101556001600160401b038a1161169d578c8a611bea60028301546131be565b601f811161201e575b50505060008d8b601f8111600114611fb05760029192600091611fa5575b5060001960038e901b1c191660018d901b179101555b6001600160401b03821161169d578c8291611c4560038301546131be565b601f8111611f70575b50600091601f8411600114611f025750600092611ef7575b50508160011b916000199060031b1c19161760038c01555b8860048c015561ffff60058c01911662ffffff198254161790556001600160401b03811161169d57600160401b811161169d5760068a01918254828455808310611ed9575b50916000526020600020916000905b828210611eb457505050506001600160401b03821161169d57600160401b821161169d576007908189015483838b0155808410611e58575b50970160005260206000209060005b8160041c8110611e0b5750600f198116808203611dac575b60208888817f0ece253303648e985fbb085ce4251be0194ad59bb1b95a022d47a6a0153445648a611d978b60068c60043560005260088a52611d778760406000206133e4565b01611d83878254613447565b905560405192604084526040840191613419565b938682015280600435940390a3604051908152f35b9760009860005b8184038110611dd55750505060041c0195909555602094611d97826006611d31565b9091996020611e01600192611de98e6136e9565b9085851b60031b9161ffff809116831b921b19161790565b9b01929101611db3565b6000805b60108110611e24575083820155600101611d19565b99906020611e4f8c600193611e38866136e9565b91851b60031b9161ffff809116831b921b19161790565b92019a01611e0f565b611e8c90838b01600052600f602060002091601e8760011b1680611e92575b500160041c810190600f860160041c016133cd565b89611d0a565b6000199081848a0160041c8601019182549160200360031b1c1690558d611e77565b8035916001600160a01b03831683036102515760206001920192818601550190611cd2565b611ef1908460005283602060002091820191016133cd565b8b611cc3565b013590508d80611c66565b600301600090815260208120909450915b601f1984168510611f58576001945083601f19811610611f3e575b505050811b0160038c0155611c7e565b0135600019600384901b60f8161c191690558d8080611f2e565b81810135835560209485019460019093019201611f13565b611f9f90600384016000526020600020601f860160051c8101916020871061175c57601f0160051c01906133cd565b8f611c4e565b90508b013538611c11565b5060020160005260206000209060005b8b601f198e1682106120065750508b601f19811610611fec575b505060018a811b0160028e0155611c27565b8a013560001960038d901b60f8161c191690558d80611fda565b60018394602093948493013581550193019101611fc0565b600261204c93016000526020600020906020601f840160051c8301931061175c57601f0160051c01906133cd565b8c8a8f611bf3565b60405162461bcd60e51b8152602060048201526016602482015275536861726573206d75737420657175616c203130302560501b6044820152606490fd5b9061ffff806120a58460051b88016136e9565b1691160161ffff81116120c1576120bc90916136da565b611b3a565b634e487b7160e01b600052601160045260246000fd5b60405162461bcd60e51b815260206004820152600f60248201526e125b9d985b1a59081c195c98d95b9d608a1b6044820152606490fd5b60405162461bcd60e51b815260206004820152600f60248201526e098cadccee8d040dad2e6dac2e8c6d608b1b6044820152606490fd5b60405162461bcd60e51b8152602060048201526013602482015272546f6f206d616e79206d696c6573746f6e657360681b6044820152606490fd5b60405162461bcd60e51b8152602060048201526015602482015274506f6f6c206e6f7420636f6e666967757261626c6560581b6044820152606490fd5b60019150148b611b03565b346102515760203660031901126102515760006101a06040516121ea8161322e565b828152826020820152606060408201526060808201528260808201528260a08201528260c0820152606060e082015260606101008201528261012082015282610140820152826101608201528261018082015201526004356000526007602052604060002060405161225b8161322e565b815481526001820154602082015261227560028301613287565b604082015261228660038301613287565b606082015260048201546080820152600582015461ffff811660a0830152600660ff8260101c1610156104b65760ff9060101c1660c08201526040518081600685016020815493848152019060005260206000209260005b8181106127a55750506122f392500382613266565b60e0820152604051918260206007830154948581520193600783016000526020600020906000915b81600f8401106126c357838760ff9694600b96946123bb9454918181106126ae575b818110612696575b81811061267f575b818110612667575b81811061264f575b818110612637575b81811061261f575b818110612607575b8181106125ef575b8181106125d7575b8181106125bf575b8181106125a7575b81811061258f575b818110612577575b81811061255f575b10612551575b500382613266565b61010085015260088101546101208501526009810154610140850152600a81015461016085015201546001600160a01b03811661018084015260a01c166101a082015260408051602080825283518183015283015181830152908201516101c0606083015261244990612433906101e0840190613114565b6060840151838203601f19016080850152613114565b608083015160a083015261ffff60a08401511660c083015261247360c084015160e0840190613154565b60e083015190601f19838203016101008401526020808351928381520192019060005b8181106125325750505061010083015190601f19838203016101208401526020808351928381520192019060005b8181106125185750505060ff6101a0846101208596015161014086015261014081015161016086015261016081015161018086015260018060a01b0361018082015116828601520151166101c08301520390f35b825161ffff168452602093840193909201916001016124c4565b82516001600160a01b0316845260209384019390920191600101612496565b60f01c8152602001886123b3565b92602060019161ffff8560e01c1681520193016123ad565b92602060019161ffff8560d01c1681520193016123a5565b92602060019161ffff8560c01c16815201930161239d565b92602060019161ffff8560b01c168152019301612395565b92602060019161ffff8560a01c16815201930161238d565b92602060019161ffff8560901c168152019301612385565b92602060019161ffff8560801c16815201930161237d565b92602060019161ffff8560701c168152019301612375565b92602060019161ffff8560601c16815201930161236d565b92602060019161ffff8560501c168152019301612365565b92602060019161ffff8560401c16815201930161235d565b92602060019161ffff8560301c168152019301612355565b92602060019161ffff85831c16815201930161234d565b92602060019161ffff8560101c168152019301612345565b92602060019161ffff8516815201930161233d565b956001610200601092895461ffff8116825261ffff81861c16602083015261ffff8160201c16604083015261ffff8160301c16606083015261ffff8160401c16608083015261ffff8160501c1660a083015261ffff8160601c1660c083015261ffff8160701c1660e083015261ffff8160801c1661010083015261ffff8160901c1661012083015261ffff8160a01c1661014083015261ffff8160b01c1661016083015261ffff8160c01c1661018083015261ffff8160d01c166101a083015261ffff8160e01c166101c083015260f01c6101e082015201970192019161231b565b84546001600160a01b03168352600194850194869450602090930192016122de565b34610251576127d5366130e6565b90600052600860205260406000208054821015610251576020916106c7916130fc565b346102515760403660031901126102515760806128136130d0565b6000606060405161282381613213565b8281528260208201528260408201520152600435600052600a602052604060002060018060a01b038092166000526020526040600020906040519061286782613213565b82541691828252600181015460208301908152606060036002840154936040860194855201549301928352604051938452516020840152516040830152516060820152f35b346102515760203660031901126102515760043561ffff8116808203610251576101f4906128d8613375565b116128fe576003805461ffff60a01b191660a09290921b61ffff60a01b16919091179055005b60405162461bcd60e51b815260206004820152600c60248201526b08ccaca40e8dede40d0d2ced60a31b6044820152606490fd5b3461025157600036600319011261025157602060ff600254166040519015158152f35b346102515760403660031901126102515761296e6130ba565b602435908115158092036102515760207f966c160e1c4dbc7df8d69af4ace01e9297c3cf016397b7914971f2fbfa32672d916129a8613375565b60018060a01b03169283600052600d8252604060002060ff1981541660ff8316179055604051908152a2005b34610251576129e2366130e6565b906129eb613454565b8060005260209160048352604060002092835415612bd15760ff600885015460a01c1660058110156104b6578015908115612bc6575b5015612b94578115612b5f576004840191612a446005845496019586549061343a565b9081811115612b575750935b6002546040516323b872dd60e01b848201523360248201523060448201526064808201889052815260089190911c6001600160a01b0316939060a08101906001600160401b0382118183101761169d577fb41248cbb9f620dcc228147603ac5c34dbf73c9b90044f38e49c9a862d9f328b95612ace926040526134aa565b612ad9868354613447565b809255541115612af3575b6040519384523393a360018055005b8260005260048152827feed224251ff614714290287b931e052c4450c4615267685e4c60ce9d673d4d7f604060ff612b4b60088360002001805490600160a01b8460a01b198316179055835192839160a01c1661332d565b600185820152a2612ae4565b905093612a50565b6064906040519062461bcd60e51b82526004820152600e60248201526d125b9d985b1a5908185b5bdd5b9d60921b6044820152fd5b6064906040519062461bcd60e51b82526004820152600b60248201526a10d85b9b9bdd08199d5b9960aa1b6044820152fd5b600191501485612a21565b6064906040519062461bcd60e51b82526004820152600e60248201526d141bdbdb081b9bdd08199bdd5b9960921b6044820152fd5b3461025157600036600319011261025157612c1f613454565b33600052600b6020526040600020548015612c6457336000818152600b6020526040812055600254612c5e92919060081c6001600160a01b0316613793565b60018055005b60405162461bcd60e51b815260206004820152601060248201526f4e6f7468696e6720746f20636c61696d60801b6044820152606490fd5b3461025157600036600319011261025157602060405160148152f35b3461025157600036600319011261025157612cd1613375565b60025460ff811615612d105760ff19166002557f5db9ee0a495bf2e6ff9c91a7834c1ba4fdd244a5e8aa4e537bd38aeae4b073aa6020604051338152a1005b60405162461bcd60e51b815260206004820152601460248201527314185d5cd8589b194e881b9bdd081c185d5cd95960621b6044820152606490fd5b3461025157604036600319011261025157600435612d686130d0565b9080600052600460205260018060a01b0390612d8f8260016040600020015416331461369d565b600052600c602052604060002091166000526020526040600020600160ff19825416179055600080f35b3461025157600036600319011261025157602061ffff60035460a01c16604051908152f35b3461025157604036600319011261025157612df76130d0565b600435600052600c60205260406000209060018060a01b0316600052602052602060ff604060002054166040519015158152f35b34610251576000366003190112610251576020604051620f42408152f35b34610251576020366003190112610251576001600160a01b03612e6a6130ba565b16600052600d602052602060ff604060002054166040519015158152f35b3461025157602036600319011261025157600060408051612ea8816131f8565b8281528260208201520152600435600052600960205260606040600020604051612ed1816131f8565b81546040600160ff83169485855260ff602086019460081c1615158452015492019182526040519283525115156020830152516040820152f35b34610251576040366003190112610251576004356024359060ff82169182810361025157816000526020906007825260016040600020015460005260048252612f7460018060a01b038060016040600020015416331490811561309e578115610b73575061370b565b8260005260078252604060002090600182015460005260098352604060002060ff600584015460101c169060068210156104b657612fb6600260ff9314613757565b5416851061306757907f8961e4e77f19b019a9539d062f9c87d96e026b9fb8cdd52aa868a77fda602e0a9291600b8201908154339160ff60a01b9060a01b16906affffffffffffffffffffff60a81b1617179055600a4291015582600052600781528260008051602061382c833981519152604060ff613055600583600020018054906203000062ff0000198316179055835192839160101c16613154565b600385820152a26040519384523393a3005b60405162461bcd60e51b815260048101849052600f60248201526e5175616c69747920746f6f206c6f7760881b6044820152606490fd5b600c8552604060008181203382528752205460ff169150610a9a565b600435906001600160a01b038216820361025157565b602435906001600160a01b038216820361025157565b6040906003190112610251576004359060243590565b805482101561100d5760005260206000200190600090565b919082519283825260005b848110613140575050826000602080949584010152601f8019910116010190565b60208183018101518483018201520161311f565b9060068210156104b65752565b9181601f84011215610251578235916001600160401b038311610251576020838186019501011161025157565b9181601f84011215610251578235916001600160401b038311610251576020808501948460051b01011161025157565b90600182811c921680156131ee575b60208310146131d857565b634e487b7160e01b600052602260045260246000fd5b91607f16916131cd565b606081019081106001600160401b0382111761169d57604052565b608081019081106001600160401b0382111761169d57604052565b6101c081019081106001600160401b0382111761169d57604052565b61018081019081106001600160401b0382111761169d57604052565b90601f801991011681019081106001600160401b0382111761169d57604052565b906040519182600082549261329b846131be565b90818452600194858116908160001461330a57506001146132c7575b50506132c592500383613266565b565b9093915060005260209081600020936000915b8183106132f25750506132c5935082010138806132b7565b855488840185015294850194879450918301916132da565b9150506132c594506020925060ff191682840152151560051b82010138806132b7565b9060058210156104b65752565b6020908160408183019282815285518094520193019160005b828110613361575050505090565b835185529381019392810192600101613353565b6000546001600160a01b0316330361338957565b606460405162461bcd60e51b815260206004820152602060248201527f4f776e61626c653a2063616c6c6572206973206e6f7420746865206f776e65726044820152fd5b8181106133d8575050565b600081556001016133cd565b8054600160401b81101561169d57613401916001820181556130fc565b819291549060031b91821b91600019901b1916179055565b908060209392818452848401376000828201840152601f01601f1916010190565b919082039182116120c157565b919082018092116120c157565b600260015414613465576002600155565b60405162461bcd60e51b815260206004820152601f60248201527f5265656e7472616e637947756172643a207265656e7472616e742063616c6c006044820152606490fd5b60018060a01b031690604051604081016001600160401b03908281108282111761169d576040526020938483527f5361666545524332303a206c6f772d6c6576656c2063616c6c206661696c6564858401526000808587829751910182855af1903d156135f5573d9283116135e157906135449392916040519261353788601f19601f8401160185613266565b83523d868885013e613600565b8051918215918483156135b6575b50505090501561355f5750565b6084906040519062461bcd60e51b82526004820152602a60248201527f5361666545524332303a204552433230206f7065726174696f6e20646964206e6044820152691bdd081cdd58d8d9595960b21b6064820152fd5b9193818094500103126135dd578201519081151582036135da575080388084613552565b80fd5b5080fd5b634e487b7160e01b85526041600452602485fd5b906135449392506060915b919290156136625750815115613614575090565b3b1561361d5790565b60405162461bcd60e51b815260206004820152601d60248201527f416464726573733a2063616c6c20746f206e6f6e2d636f6e74726163740000006044820152606490fd5b8251909150156136755750805190602001fd5b60405162461bcd60e51b815260206004820152908190613699906024830190613114565b0390fd5b156136a457565b60405162461bcd60e51b815260206004820152600e60248201526d2737ba103837b7b61037bbb732b960911b6044820152606490fd5b60001981146120c15760010190565b3561ffff811681036102515790565b818102929181159184041417156120c157565b1561371257565b60405162461bcd60e51b815260206004820152601760248201527f4e6f7420617574686f72697a656420617070726f7665720000000000000000006044820152606490fd5b1561375e57565b60405162461bcd60e51b815260206004820152600d60248201526c139bdd081cdd589b5a5d1d1959609a1b6044820152606490fd5b60405163a9059cbb60e01b60208201526001600160a01b0390921660248301526044808301939093529181526132c5916137cc82613213565b6134aa565b9060005b60068301805482101561382257816137ec916130fc565b905460039190911b1c6001600160a01b039081169083161461381a576138136006916136da565b90506137d5565b505050600190565b5050505060009056fe1e7d0035836bbb5e11d9d46fe7b9bc928257622b8cadebeed7545b2ab7b69295a2646970667358221220783085272c3aecfb36e0eed3d738ba6c0a83fcd6e82f4a5d12da5c7b084a113f64736f6c63430008140033",
  "linkReferences": {},
  "deployedLinkReferences": {}
}